{
	"data": {
		"bytecode": {
			"linkReferences": {},
			"object": "608060405234801561000f575f5ffd5b506040518060400160405280600681526020017f41524154544100000000000000000000000000000000000000000000000000008152506040518060400160405280600681526020017f4152415454410000000000000000000000000000000000000000000000000000815250335f5f848484848484848484816100a561009a6102ab60201b60201c565b6102b260201b60201c565b5f73ffffffffffffffffffffffffffffffffffffffff168173ffffffffffffffffffffffffffffffffffffffff160361010a576040517f1ad8836c00000000000000000000000000000000000000000000000000000000815260040160405180910390fd5b610119816102b260201b60201c565b506101817feafec4d89fa9619884b60000a4d96624a38f7ac2d8d9a604ecf07c12c77e480c5f1b6040518060400160405280600481526020017fa4d966240000000000000000000000000000000000000000000000000000000081525061037360201b60201c565b6101b37fdeba1e292f8ba88238e10ab3c7f88bd4be4fac56cad5194b6ecceaf653468af15f1b8561037360201b60201c565b6101e57f2f0a68ab07768e01943a599e73362a0e17a63a72e94dd2e384d2c1d4db9327565f1b8461037360201b60201c565b6102367fe0261fa95db2eb3b5439bd033cda66d56b96f92f243a8228fd87550ed7bdfdb35f1b8260405160200161021c9190610aca565b60405160208183030381529060405261037360201b60201c565b505050508060025f6101000a81548160ff021916908315150217905550505050505050505050506102a63361026f6103ce60201b60201c565b600a61027b9190610c4b565b631908b10061028a9190610c95565b600160405180602001604052805f8152506103f060201b60201c565b61144e565b5f33905090565b5f5f5f9054906101000a900473ffffffffffffffffffffffffffffffffffffffff169050815f5f6101000a81548173ffffffffffffffffffffffffffffffffffffffff021916908373ffffffffffffffffffffffffffffffffffffffff1602179055508173ffffffffffffffffffffffffffffffffffffffff168173ffffffffffffffffffffffffffffffffffffffff167f8be0079c531659141344cd1fd0a4f28419497f9722a3daafe3b4186f6b6457e060405160405180910390a35050565b8060015f8481526020019081526020015f2090816103919190610f0a565b50817fece574603820d07bc9b91f2a932baadf4628aabcb8afba49776529c14a6104b2826040516103c2919061103f565b60405180910390a25050565b5f60025f9054906101000a900460ff166103e95760126103eb565b5f5b905090565b6103fe61041660201b60201c565b610410848484846104a060201b60201c565b50505050565b6104246102ab60201b60201c565b73ffffffffffffffffffffffffffffffffffffffff1661044861053c60201b60201c565b73ffffffffffffffffffffffffffffffffffffffff161461049e576040517f08c379a0000000000000000000000000000000000000000000000000000000008152600401610495906110b9565b60405180910390fd5b565b6b019d971e4fe8401e74000000836104bc61056360201b60201c565b6104c691906110d7565b1115610524576104da61056360201b60201c565b6b019d971e4fe8401e740000006040517f3dc729a700000000000000000000000000000000000000000000000000000000815260040161051b92919061110a565b60405180910390fd5b6105368484848461056c60201b60201c565b50505050565b5f5f5f9054906101000a900473ffffffffffffffffffffffffffffffffffffffff16905090565b5f600354905090565b5f73ffffffffffffffffffffffffffffffffffffffff168473ffffffffffffffffffffffffffffffffffffffff16036105d1576040517fd2d5ec3000000000000000000000000000000000000000000000000000000000815260040160405180910390fd5b6105e45f8585858561064d60201b60201c565b6105f75f8585858561065460201b60201c565b61060a5f8585858561088d60201b60201c565b5f335f868685604051602001610624959493929190611170565b604051602081830303815290604052905061064685848361089460201b60201c565b5050505050565b5050505050565b5f73ffffffffffffffffffffffffffffffffffffffff168573ffffffffffffffffffffffffffffffffffffffff16036106a4578260035f82825461069891906110d7565b92505081905550610774565b5f60045f8773ffffffffffffffffffffffffffffffffffffffff1673ffffffffffffffffffffffffffffffffffffffff1681526020019081526020015f205490508381101561072e578086856040517f08d47949000000000000000000000000000000000000000000000000000000008152600401610725939291906111c8565b60405180910390fd5b83810360045f8873ffffffffffffffffffffffffffffffffffffffff1673ffffffffffffffffffffffffffffffffffffffff1681526020019081526020015f2081905550505b5f73ffffffffffffffffffffffffffffffffffffffff168473ffffffffffffffffffffffffffffffffffffffff16036107bb578260035f8282540392505081905550610806565b8260045f8673ffffffffffffffffffffffffffffffffffffffff1673ffffffffffffffffffffffffffffffffffffffff1681526020019081526020015f205f82825401925050819055505b8373ffffffffffffffffffffffffffffffffffffffff168573ffffffffffffffffffffffffffffffffffffffff163373ffffffffffffffffffffffffffffffffffffffff167f3997e418d2cef0b3b0e907b1e39605c3f7d32dbd061e82ea5b4a770d46a160a686868660405161087e93929190611217565b60405180910390a45050505050565b5050505050565b6108ab83636bb56a1460e01b6109f960201b60201c565b15610956578273ffffffffffffffffffffffffffffffffffffffff16636bb56a147f20804611b3e2ea21c480dc465142210acf4a2485947541770ec1fb87dee4a55c5f1b836040518363ffffffff1660e01b815260040161090d92919061126b565b5f604051808303815f875af1158015610928573d5f5f3e3d5ffd5b505050506040513d5f823e3d601f19601f82011682018060405250810190610950919061139b565b506109f4565b816109f3575f8373ffffffffffffffffffffffffffffffffffffffff163b146109b657826040517fa608fbb60000000000000000000000000000000000000000000000000000000081526004016109ad91906113e2565b60405180910390fd5b826040517f26c247f40000000000000000000000000000000000000000000000000000000081526004016109ea91906113e2565b60405180910390fd5b5b505050565b5f5f6301ffc9a760e01b83604051602401610a149190611435565b604051602081830303815290604052907bffffffffffffffffffffffffffffffffffffffffffffffffffffffff19166020820180517bffffffffffffffffffffffffffffffffffffffffffffffffffffffff838183161783525050505090505f5f5f60205f8551602087018a617530fa92503d91505f519050828015610a9b575060208210155b8015610aa657505f81115b94505050505092915050565b5f819050919050565b610ac481610ab2565b82525050565b5f602082019050610add5f830184610abb565b92915050565b7f4e487b71000000000000000000000000000000000000000000000000000000005f52601160045260245ffd5b5f8160011c9050919050565b5f5f8291508390505b6001851115610b6557808604811115610b4157610b40610ae3565b5b6001851615610b505780820291505b8081029050610b5e85610b10565b9450610b25565b94509492505050565b5f82610b7d5760019050610c38565b81610b8a575f9050610c38565b8160018114610ba05760028114610baa57610bd9565b6001915050610c38565b60ff841115610bbc57610bbb610ae3565b5b8360020a915084821115610bd357610bd2610ae3565b5b50610c38565b5060208310610133831016604e8410600b8410161715610c0e5782820a905083811115610c0957610c08610ae3565b5b610c38565b610c1b8484846001610b1c565b92509050818404811115610c3257610c31610ae3565b5b81810290505b9392505050565b5f60ff82169050919050565b5f610c5582610ab2565b9150610c6083610c3f565b9250610c8d7fffffffffffffffffffffffffffffffffffffffffffffffffffffffffffffffff8484610b6e565b905092915050565b5f610c9f82610ab2565b9150610caa83610ab2565b9250828202610cb881610ab2565b91508282048414831517610ccf57610cce610ae3565b5b5092915050565b5f81519050919050565b7f4e487b71000000000000000000000000000000000000000000000000000000005f52604160045260245ffd5b7f4e487b71000000000000000000000000000000000000000000000000000000005f52602260045260245ffd5b5f6002820490506001821680610d5157607f821691505b602082108103610d6457610d63610d0d565b5b50919050565b5f819050815f5260205f209050919050565b5f6020601f8301049050919050565b5f82821b905092915050565b5f60088302610dc67fffffffffffffffffffffffffffffffffffffffffffffffffffffffffffffffff82610d8b565b610dd08683610d8b565b95508019841693508086168417925050509392505050565b5f819050919050565b5f610e0b610e06610e0184610ab2565b610de8565b610ab2565b9050919050565b5f819050919050565b610e2483610df1565b610e38610e3082610e12565b848454610d97565b825550505050565b5f5f905090565b610e4f610e40565b610e5a818484610e1b565b505050565b5b81811015610e7d57610e725f82610e47565b600181019050610e60565b5050565b601f821115610ec257610e9381610d6a565b610e9c84610d7c565b81016020851015610eab578190505b610ebf610eb785610d7c565b830182610e5f565b50505b505050565b5f82821c905092915050565b5f610ee25f1984600802610ec7565b1980831691505092915050565b5f610efa8383610ed3565b9150826002028217905092915050565b610f1382610cd6565b67ffffffffffffffff811115610f2c57610f2b610ce0565b5b610f368254610d3a565b610f41828285610e81565b5f60209050601f831160018114610f72575f8415610f60578287015190505b610f6a8582610eef565b865550610fd1565b601f198416610f8086610d6a565b5f5b82811015610fa757848901518255600182019150602085019450602081019050610f82565b86831015610fc45784890151610fc0601f891682610ed3565b8355505b6001600288020188555050505b505050505050565b5f82825260208201905092915050565b8281835e5f83830152505050565b5f601f19601f8301169050919050565b5f61101182610cd6565b61101b8185610fd9565b935061102b818560208601610fe9565b61103481610ff7565b840191505092915050565b5f6020820190508181035f8301526110578184611007565b905092915050565b5f82825260208201905092915050565b7f4f776e61626c653a2063616c6c6572206973206e6f7420746865206f776e65725f82015250565b5f6110a360208361105f565b91506110ae8261106f565b602082019050919050565b5f6020820190508181035f8301526110d081611097565b9050919050565b5f6110e182610ab2565b91506110ec83610ab2565b925082820190508082111561110457611103610ae3565b5b92915050565b5f60408201905061111d5f830185610abb565b61112a6020830184610abb565b9392505050565b5f73ffffffffffffffffffffffffffffffffffffffff82169050919050565b5f61115a82611131565b9050919050565b61116a81611150565b82525050565b5f60a0820190506111835f830188611161565b6111906020830187611161565b61119d6040830186611161565b6111aa6060830185610abb565b81810360808301526111bc8184611007565b90509695505050505050565b5f6060820190506111db5f830186610abb565b6111e86020830185611161565b6111f56040830184610abb565b949350505050565b5f8115159050919050565b611211816111fd565b82525050565b5f60608201905061122a5f830186610abb565b6112376020830185611208565b81810360408301526112498184611007565b9050949350505050565b5f819050919050565b61126581611253565b82525050565b5f60408201905061127e5f83018561125c565b81810360208301526112908184611007565b90509392505050565b5f604051905090565b5f5ffd5b5f5ffd5b5f5ffd5b5f5ffd5b6112bb82610ff7565b810181811067ffffffffffffffff821117156112da576112d9610ce0565b5b80604052505050565b5f6112ec611299565b90506112f882826112b2565b919050565b5f67ffffffffffffffff82111561131757611316610ce0565b5b61132082610ff7565b9050602081019050919050565b5f61133f61133a846112fd565b6112e3565b90508281526020810184848401111561135b5761135a6112ae565b5b611366848285610fe9565b509392505050565b5f82601f830112611382576113816112aa565b5b815161139284826020860161132d565b91505092915050565b5f602082840312156113b0576113af6112a2565b5b5f82015167ffffffffffffffff8111156113cd576113cc6112a6565b5b6113d98482850161136e565b91505092915050565b5f6020820190506113f55f830184611161565b92915050565b5f7fffffffff0000000000000000000000000000000000000000000000000000000082169050919050565b61142f816113fb565b82525050565b5f6020820190506114485f830184611426565b92915050565b6142898061145b5f395ff3fe608060405260043610610138575f3560e01c8063715018a6116100aa5780638da5cb5b1161006e5780638da5cb5b146104e3578063979024211461050d578063b49506fd14610529578063d72fc29a14610551578063dedff9c61461058d578063f2fde38b146105c9576101b1565b8063715018a6146104395780637580d9201461044f578063760d9bba14610477578063783816701461049f5780637f23690c146104c7576101b1565b8063313ce567116100fc578063313ce567146102f557806352058d8a1461031f57806354f6127f1461034957806365aeaa95146103855780636963d438146103c157806370a08231146103fd576101b1565b806301ffc9a71461021757806318160ddd146102535780632bc1da821461027d5780632d7667c9146102a557806330d0dc37146102cd576101b1565b366101b1575f340361017f576040517fe5099ee3000000000000000000000000000000000000000000000000000000008152600401610176906126b1565b60405180910390fd5b6040517f388f5adc00000000000000000000000000000000000000000000000000000000815260040160405180910390fd5b5f36606060045f36905010156102005782826040517fe5099ee30000000000000000000000000000000000000000000000000000000081526004016101f7929190612719565b60405180910390fd5b61020a83836105f1565b9050915050805190602001f35b348015610222575f5ffd5b5061023d600480360381019061023891906127a1565b610767565b60405161024a91906127e6565b60405180910390f35b34801561025e575f5ffd5b506102676107d7565b6040516102749190612817565b60405180910390f35b348015610288575f5ffd5b506102a3600480360381019061029e91906129d2565b6107e0565b005b3480156102b0575f5ffd5b506102cb60048036038101906102c69190612d8a565b610887565b005b3480156102d8575f5ffd5b506102f360048036038101906102ee9190612e8d565b610999565b005b348015610300575f5ffd5b50610309610a93565b6040516103169190612f28565b60405180910390f35b34801561032a575f5ffd5b50610333610ab5565b6040516103409190612817565b60405180910390f35b348015610354575f5ffd5b5061036f600480360381019061036a9190612f74565b610ac5565b60405161037c9190612fef565b60405180910390f35b348015610390575f5ffd5b506103ab60048036038101906103a6919061300f565b610ad7565b6040516103b89190612817565b60405180910390f35b3480156103cc575f5ffd5b506103e760048036038101906103e291906130a6565b610bd2565b6040516103f491906131f4565b60405180910390f35b348015610408575f5ffd5b50610423600480360381019061041e9190613214565b610d48565b6040516104309190612817565b60405180910390f35b348015610444575f5ffd5b5061044d610d8e565b005b34801561045a575f5ffd5b506104756004803603810190610470919061323f565b610da1565b005b348015610482575f5ffd5b5061049d600480360381019061049891906132bf565b610dbb565b005b3480156104aa575f5ffd5b506104c560048036038101906104c09190613352565b610e0e565b005b6104e160048036038101906104dc91906133d2565b610f51565b005b3480156104ee575f5ffd5b506104f7610fa0565b604051610504919061343b565b60405180910390f35b61052760048036038101906105229190613514565b610fc7565b005b348015610534575f5ffd5b5061054f600480360381019061054a91906129d2565b611016565b005b34801561055c575f5ffd5b5061057760048036038101906105729190613214565b61105b565b6040516105849190613641565b60405180910390f35b348015610598575f5ffd5b506105b360048036038101906105ae9190613661565b6110a9565b6040516105c091906131f4565b60405180910390f35b3480156105d4575f5ffd5b506105ef60048036038101906105ea9190613214565b61115c565b005b60605f6106205f357fffffffff00000000000000000000000000000000000000000000000000000000166111de565b5090505f73ffffffffffffffffffffffffffffffffffffffff168173ffffffffffffffffffffffffffffffffffffffff16036106b6575f357fffffffff00000000000000000000000000000000000000000000000000000000166040517fbb370b2b0000000000000000000000000000000000000000000000000000000081526004016106ad91906136b7565b60405180910390fd5b5f5f8273ffffffffffffffffffffffffffffffffffffffff1634878733346040516020016106e79493929190613763565b60405160208183030381529060405260405161070391906137cd565b5f6040518083038185875af1925050503d805f811461073d576040519150601f19603f3d011682016040523d82523d5f602084013e610742565b606091505b5091509150811561075857809350505050610761565b80518060208301fd5b92915050565b5f63c52d600860e01b7bffffffffffffffffffffffffffffffffffffffffffffffffffffffff1916827bffffffffffffffffffffffffffffffffffffffffffffffffffffffff191614806107c057506107bf82611294565b5b806107d057506107cf826112f4565b5b9050919050565b5f600354905090565b5f6107eb8433610ad7565b90505f810361083157836040517fcba6e977000000000000000000000000000000000000000000000000000000008152600401610828919061343b565b60405180910390fd5b5f838261083e9190613810565b905061084e338683600187611358565b5f33828560405160200161086493929190613843565b604051602081830303815290604052905061087f8682611621565b505050505050565b5f8551905084518114158061089d575083518114155b806108a9575082518114155b806108b5575081518114155b156108ec576040517f263eee8d00000000000000000000000000000000000000000000000000000000815260040160405180910390fd5b5f5b818110156109905761098587828151811061090c5761090b61387f565b5b60200260200101518783815181106109275761092661387f565b5b60200260200101518784815181106109425761094161387f565b5b602002602001015187858151811061095d5761095c61387f565b5b60200260200101518786815181106109785761097761387f565b5b6020026020010151610dbb565b8060010190506108ee565b50505050505050565b8273ffffffffffffffffffffffffffffffffffffffff163373ffffffffffffffffffffffffffffffffffffffff1614158015610a0157508373ffffffffffffffffffffffffffffffffffffffff163373ffffffffffffffffffffffffffffffffffffffff1614155b15610a47573383856040517f1a525b32000000000000000000000000000000000000000000000000000000008152600401610a3e939291906138ac565b60405180910390fd5b610a5483855f8585611358565b8115610a8d575f835f83604051602001610a7093929190613923565b6040516020818303038152906040529050610a8b8582611621565b505b50505050565b5f60025f9054906101000a900460ff16610aae576012610ab0565b5f5b905090565b6b019d971e4fe8401e7400000081565b6060610ad082611652565b9050919050565b5f8273ffffffffffffffffffffffffffffffffffffffff168273ffffffffffffffffffffffffffffffffffffffff1603610b505760045f8373ffffffffffffffffffffffffffffffffffffffff1673ffffffffffffffffffffffffffffffffffffffff1681526020019081526020015f20549050610bcc565b60065f8373ffffffffffffffffffffffffffffffffffffffff1673ffffffffffffffffffffffffffffffffffffffff1681526020019081526020015f205f8473ffffffffffffffffffffffffffffffffffffffff1673ffffffffffffffffffffffffffffffffffffffff1681526020019081526020015f205490505b92915050565b60608282905067ffffffffffffffff811115610bf157610bf06128bc565b5b604051908082528060200260200182016040528015610c2457816020015b6060815260200190600190039081610c0f5790505b5090505f5b83839050811015610d41575f5f3073ffffffffffffffffffffffffffffffffffffffff16868685818110610c6057610c5f61387f565b5b9050602002810190610c72919061396b565b604051610c809291906139cd565b5f60405180830381855af49150503d805f8114610cb8576040519150601f19603f3d011682016040523d82523d5f602084013e610cbd565b606091505b509150915081610d15575f815114610cd85780518082602001fd5b826040517fb774c284000000000000000000000000000000000000000000000000000000008152600401610d0c9190612817565b60405180910390fd5b80848481518110610d2957610d2861387f565b5b60200260200101819052508260010192505050610c29565b5092915050565b5f60045f8373ffffffffffffffffffffffffffffffffffffffff1673ffffffffffffffffffffffffffffffffffffffff1681526020019081526020015f20549050919050565b610d966116f3565b610d9f5f611771565b565b610da96116f3565b610db584848484611832565b50505050565b8473ffffffffffffffffffffffffffffffffffffffff163373ffffffffffffffffffffffffffffffffffffffff1614610dfa57610df93386856118bc565b5b610e0785858585856119b9565b5050505050565b8273ffffffffffffffffffffffffffffffffffffffff163373ffffffffffffffffffffffffffffffffffffffff1614158015610e7657508373ffffffffffffffffffffffffffffffffffffffff163373ffffffffffffffffffffffffffffffffffffffff1614155b15610ebc573383856040517f98ce2945000000000000000000000000000000000000000000000000000000008152600401610eb3939291906138ac565b60405180910390fd5b5f610ec78585610ad7565b905082811015610f03576040517f0ef76c3500000000000000000000000000000000000000000000000000000000815260040160405180910390fd5b5f8382039050610f17858783600187611358565b5f858285604051602001610f2d93929190613843565b6040516020818303038152906040529050610f488782611621565b50505050505050565b610f596116f3565b5f3414610f92576040517ff36ba73700000000000000000000000000000000000000000000000000000000815260040160405180910390fd5b610f9c8282611ac4565b5050565b5f5f5f9054906101000a900473ffffffffffffffffffffffffffffffffffffffff16905090565b610fcf6116f3565b5f3414611008576040517ff36ba73700000000000000000000000000000000000000000000000000000000815260040160405180910390fd5b6110128282611c30565b5050565b611024338484600185611358565b5f33838360405160200161103a93929190613843565b60405160208183030381529060405290506110558482611621565b50505050565b60606110a260055f8473ffffffffffffffffffffffffffffffffffffffff1673ffffffffffffffffffffffffffffffffffffffff1681526020019081526020015f20611d01565b9050919050565b6060815167ffffffffffffffff8111156110c6576110c56128bc565b5b6040519080825280602002602001820160405280156110f957816020015b60608152602001906001900390816110e45790505b5090505f5f90505b82518110156111565761112d8382815181106111205761111f61387f565b5b6020026020010151611652565b8282815181106111405761113f61387f565b5b6020026020010181905250806001019050611101565b50919050565b6111646116f3565b5f73ffffffffffffffffffffffffffffffffffffffff168173ffffffffffffffffffffffffffffffffffffffff16036111d2576040517f08c379a00000000000000000000000000000000000000000000000000000000081526004016111c990613a65565b60405180910390fd5b6111db81611771565b50565b5f5f5f61121769cee78b4094da8601109660b01b857bffffffffffffffffffffffffffffffffffffffffffffffffffffffff1916611d20565b90505f61122382611652565b9050601481511415801561123857505f815114155b1561127a57806040517f42bfe79f0000000000000000000000000000000000000000000000000000000081526004016112719190612fef565b60405180910390fd5b8061128490613add565b60601c6001935093505050915091565b5f63a918fa6b60e01b7bffffffffffffffffffffffffffffffffffffffffffffffffffffffff1916827bffffffffffffffffffffffffffffffffffffffffffffffffffffffff191614806112ed57506112ec82611d5e565b5b9050919050565b5f5f6113066301ffc9a760e01b6111de565b5090505f73ffffffffffffffffffffffffffffffffffffffff168173ffffffffffffffffffffffffffffffffffffffff1603611345575f915050611353565b61134f8184611e27565b9150505b919050565b5f73ffffffffffffffffffffffffffffffffffffffff168473ffffffffffffffffffffffffffffffffffffffff16036113bd576040517f6355e76600000000000000000000000000000000000000000000000000000000815260040160405180910390fd5b8473ffffffffffffffffffffffffffffffffffffffff168473ffffffffffffffffffffffffffffffffffffffff1603611422576040517fdab7504700000000000000000000000000000000000000000000000000000000815260040160405180910390fd5b8260065f8773ffffffffffffffffffffffffffffffffffffffff1673ffffffffffffffffffffffffffffffffffffffff1681526020019081526020015f205f8673ffffffffffffffffffffffffffffffffffffffff1673ffffffffffffffffffffffffffffffffffffffff1681526020019081526020015f20819055505f8314611561576114f58460055f8873ffffffffffffffffffffffffffffffffffffffff1673ffffffffffffffffffffffffffffffffffffffff1681526020019081526020015f20611ee090919063ffffffff16565b50828573ffffffffffffffffffffffffffffffffffffffff168573ffffffffffffffffffffffffffffffffffffffff167ff772a43bfdf4729b196e3fb54a818b91a2ca6c49d10b2e16278752f9f515c25d846040516115549190612fef565b60405180910390a461161a565b6115b08460055f8873ffffffffffffffffffffffffffffffffffffffff1673ffffffffffffffffffffffffffffffffffffffff1681526020019081526020015f20611f0d90919063ffffffff16565b508115158573ffffffffffffffffffffffffffffffffffffffff168573ffffffffffffffffffffffffffffffffffffffff167f0ebf5762d8855cbe012d2ca42fb33a81175e17c8a8751f8859931ba453bd4167846040516116119190612fef565b60405180910390a45b5050505050565b61164e827f386072cc5a58e61263b434c722725f21031cd06e7c552cfaa06db5de8a320dbc5f1b83611f3a565b5050565b606060015f8381526020019081526020015f20805461167090613b70565b80601f016020809104026020016040519081016040528092919081815260200182805461169c90613b70565b80156116e75780601f106116be576101008083540402835291602001916116e7565b820191905f5260205f20905b8154815290600101906020018083116116ca57829003601f168201915b50505050509050919050565b6116fb611ff4565b73ffffffffffffffffffffffffffffffffffffffff16611719610fa0565b73ffffffffffffffffffffffffffffffffffffffff161461176f576040517f08c379a000000000000000000000000000000000000000000000000000000000815260040161176690613bea565b60405180910390fd5b565b5f5f5f9054906101000a900473ffffffffffffffffffffffffffffffffffffffff169050815f5f6101000a81548173ffffffffffffffffffffffffffffffffffffffff021916908373ffffffffffffffffffffffffffffffffffffffff1602179055508173ffffffffffffffffffffffffffffffffffffffff168173ffffffffffffffffffffffffffffffffffffffff167f8be0079c531659141344cd1fd0a4f28419497f9722a3daafe3b4186f6b6457e060405160405180910390a35050565b6b019d971e4fe8401e74000000836118486107d7565b6118529190613810565b11156118aa576118606107d7565b6b019d971e4fe8401e740000006040517f3dc729a70000000000000000000000000000000000000000000000000000000081526004016118a1929190613c08565b60405180910390fd5b6118b684848484611ffb565b50505050565b5f60065f8473ffffffffffffffffffffffffffffffffffffffff1673ffffffffffffffffffffffffffffffffffffffff1681526020019081526020015f205f8573ffffffffffffffffffffffffffffffffffffffff1673ffffffffffffffffffffffffffffffffffffffff1681526020019081526020015f205490505f81148061194557508082115b1561198d57828185846040517ff3a6b6910000000000000000000000000000000000000000000000000000000081526004016119849493929190613c2f565b60405180910390fd5b6119b38385848461199e9190613c72565b5f60405180602001604052805f815250611358565b50505050565b5f73ffffffffffffffffffffffffffffffffffffffff168573ffffffffffffffffffffffffffffffffffffffff161480611a1e57505f73ffffffffffffffffffffffffffffffffffffffff168473ffffffffffffffffffffffffffffffffffffffff16145b15611a55576040517fd2d5ec3000000000000000000000000000000000000000000000000000000000815260040160405180910390fd5b611a6285858585856120c4565b611a6f85858585856120cb565b611a7c8585858585612304565b5f3386868685604051602001611a96959493929190613ca5565b6040516020818303038152906040529050611ab1868261230b565b611abc85848361233c565b505050505050565b7fdeba1e292f8ba88238e10ab3c7f88bd4be4fac56cad5194b6ecceaf653468af15f1b8203611b1f576040517f85c169bd00000000000000000000000000000000000000000000000000000000815260040160405180910390fd5b7f2f0a68ab07768e01943a599e73362a0e17a63a72e94dd2e384d2c1d4db9327565f1b8203611b7a576040517f76755b3800000000000000000000000000000000000000000000000000000000815260040160405180910390fd5b7fe0261fa95db2eb3b5439bd033cda66d56b96f92f243a8228fd87550ed7bdfdb35f1b8203611bd5576040517f4ef6d7fb00000000000000000000000000000000000000000000000000000000815260040160405180910390fd5b8060015f8481526020019081526020015f209081611bf39190613e88565b50817fece574603820d07bc9b91f2a932baadf4628aabcb8afba49776529c14a6104b282604051611c249190612fef565b60405180910390a25050565b8051825114611c6b576040517f3bcc897900000000000000000000000000000000000000000000000000000000815260040160405180910390fd5b5f825103611ca5576040517f97da5f9500000000000000000000000000000000000000000000000000000000815260040160405180910390fd5b5f5f90505b8251811015611cfc57611cf1838281518110611cc957611cc861387f565b5b6020026020010151838381518110611ce457611ce361387f565b5b6020026020010151611ac4565b806001019050611caa565b505050565b60605f611d0f835f0161249b565b905060608190508092505050919050565b5f5f835f60f01b84604051602001611d3a9392919061400d565b604051602081830303815290604052905080611d559061405d565b91505092915050565b5f63629aa69460e01b7bffffffffffffffffffffffffffffffffffffffffffffffffffffffff1916827bffffffffffffffffffffffffffffffffffffffffffffffffffffffff19161480611db75750611db682611dbe565b5b9050919050565b5f7f01ffc9a7000000000000000000000000000000000000000000000000000000007bffffffffffffffffffffffffffffffffffffffffffffffffffffffff1916827bffffffffffffffffffffffffffffffffffffffffffffffffffffffff1916149050919050565b5f5f6301ffc9a760e01b83604051602401611e4291906136b7565b604051602081830303815290604052907bffffffffffffffffffffffffffffffffffffffffffffffffffffffff19166020820180517bffffffffffffffffffffffffffffffffffffffffffffffffffffffff838183161783525050505090505f5f5f60205f8551602087018a617530fa92503d91505f519050828015611ec9575060208210155b8015611ed457505f81115b94505050505092915050565b5f611f05835f018373ffffffffffffffffffffffffffffffffffffffff165f1b6124f4565b905092915050565b5f611f32835f018373ffffffffffffffffffffffffffffffffffffffff165f1b61255b565b905092915050565b611f6a636bb56a1460e01b8473ffffffffffffffffffffffffffffffffffffffff16611e2790919063ffffffff16565b15611fef578273ffffffffffffffffffffffffffffffffffffffff16636bb56a1483836040518363ffffffff1660e01b8152600401611faa9291906140d2565b5f604051808303815f875af1158015611fc5573d5f5f3e3d5ffd5b505050506040513d5f823e3d601f19601f82011682018060405250810190611fed919061416e565b505b505050565b5f33905090565b5f73ffffffffffffffffffffffffffffffffffffffff168473ffffffffffffffffffffffffffffffffffffffff1603612060576040517fd2d5ec3000000000000000000000000000000000000000000000000000000000815260040160405180910390fd5b61206d5f858585856120c4565b61207a5f858585856120cb565b6120875f85858585612304565b5f335f8686856040516020016120a1959493929190613ca5565b60405160208183030381529060405290506120bd85848361233c565b5050505050565b5050505050565b5f73ffffffffffffffffffffffffffffffffffffffff168573ffffffffffffffffffffffffffffffffffffffff160361211b578260035f82825461210f9190613810565b925050819055506121eb565b5f60045f8773ffffffffffffffffffffffffffffffffffffffff1673ffffffffffffffffffffffffffffffffffffffff1681526020019081526020015f20549050838110156121a5578086856040517f08d4794900000000000000000000000000000000000000000000000000000000815260040161219c939291906141b5565b60405180910390fd5b83810360045f8873ffffffffffffffffffffffffffffffffffffffff1673ffffffffffffffffffffffffffffffffffffffff1681526020019081526020015f2081905550505b5f73ffffffffffffffffffffffffffffffffffffffff168473ffffffffffffffffffffffffffffffffffffffff1603612232578260035f828254039250508190555061227d565b8260045f8673ffffffffffffffffffffffffffffffffffffffff1673ffffffffffffffffffffffffffffffffffffffff1681526020019081526020015f205f82825401925050819055505b8373ffffffffffffffffffffffffffffffffffffffff168573ffffffffffffffffffffffffffffffffffffffff163373ffffffffffffffffffffffffffffffffffffffff167f3997e418d2cef0b3b0e907b1e39605c3f7d32dbd061e82ea5b4a770d46a160a68686866040516122f5939291906141ea565b60405180910390a45050505050565b5050505050565b612338827f429ac7a06903dbc9c13dfcb3c9d11df8194581fa047c96d7a4171fc7402958ea5f1b83611f3a565b5050565b61234d83636bb56a1460e01b611e27565b156123f8578273ffffffffffffffffffffffffffffffffffffffff16636bb56a147f20804611b3e2ea21c480dc465142210acf4a2485947541770ec1fb87dee4a55c5f1b836040518363ffffffff1660e01b81526004016123af9291906140d2565b5f604051808303815f875af11580156123ca573d5f5f3e3d5ffd5b505050506040513d5f823e3d601f19601f820116820180604052508101906123f2919061416e565b50612496565b81612495575f8373ffffffffffffffffffffffffffffffffffffffff163b1461245857826040517fa608fbb600000000000000000000000000000000000000000000000000000000815260040161244f919061343b565b60405180910390fd5b826040517f26c247f400000000000000000000000000000000000000000000000000000000815260040161248c919061343b565b60405180910390fd5b5b505050565b6060815f018054806020026020016040519081016040528092919081815260200182805480156124e857602002820191905f5260205f20905b8154815260200190600101908083116124d4575b50505050509050919050565b5f6124ff8383612657565b61255157825f0182908060018154018082558091505060019003905f5260205f20015f9091909190915055825f0180549050836001015f8481526020019081526020015f208190555060019050612555565b5f90505b92915050565b5f5f836001015f8481526020019081526020015f205490505f811461264c575f6001826125889190613c72565b90505f6001865f018054905061259e9190613c72565b9050818114612604575f865f0182815481106125bd576125bc61387f565b5b905f5260205f200154905080875f0184815481106125de576125dd61387f565b5b905f5260205f20018190555083876001015f8381526020019081526020015f2081905550505b855f0180548061261757612616614226565b5b600190038181905f5260205f20015f90559055856001015f8681526020019081526020015f205f905560019350505050612651565b5f9150505b92915050565b5f5f836001015f8481526020019081526020015f20541415905092915050565b5f82825260208201905092915050565b5f5f82015250565b5f61269b600483612677565b91506126a682612687565b602082019050919050565b5f6020820190508181035f8301526126c88161268f565b9050919050565b828183375f83830152505050565b5f601f19601f8301169050919050565b5f6126f88385612677565b93506127058385846126cf565b61270e836126dd565b840190509392505050565b5f6020820190508181035f8301526127328184866126ed565b90509392505050565b5f604051905090565b5f5ffd5b5f5ffd5b5f7fffffffff0000000000000000000000000000000000000000000000000000000082169050919050565b6127808161274c565b811461278a575f5ffd5b50565b5f8135905061279b81612777565b92915050565b5f602082840312156127b6576127b5612744565b5b5f6127c38482850161278d565b91505092915050565b5f8115159050919050565b6127e0816127cc565b82525050565b5f6020820190506127f95f8301846127d7565b92915050565b5f819050919050565b612811816127ff565b82525050565b5f60208201905061282a5f830184612808565b92915050565b5f73ffffffffffffffffffffffffffffffffffffffff82169050919050565b5f61285982612830565b9050919050565b6128698161284f565b8114612873575f5ffd5b50565b5f8135905061288481612860565b92915050565b612893816127ff565b811461289d575f5ffd5b50565b5f813590506128ae8161288a565b92915050565b5f5ffd5b5f5ffd5b7f4e487b71000000000000000000000000000000000000000000000000000000005f52604160045260245ffd5b6128f2826126dd565b810181811067ffffffffffffffff82111715612911576129106128bc565b5b80604052505050565b5f61292361273b565b905061292f82826128e9565b919050565b5f67ffffffffffffffff82111561294e5761294d6128bc565b5b612957826126dd565b9050602081019050919050565b5f61297661297184612934565b61291a565b905082815260208101848484011115612992576129916128b8565b5b61299d8482856126cf565b509392505050565b5f82601f8301126129b9576129b86128b4565b5b81356129c9848260208601612964565b91505092915050565b5f5f5f606084860312156129e9576129e8612744565b5b5f6129f686828701612876565b9350506020612a07868287016128a0565b925050604084013567ffffffffffffffff811115612a2857612a27612748565b5b612a34868287016129a5565b9150509250925092565b5f67ffffffffffffffff821115612a5857612a576128bc565b5b602082029050602081019050919050565b5f5ffd5b5f612a7f612a7a84612a3e565b61291a565b90508083825260208201905060208402830185811115612aa257612aa1612a69565b5b835b81811015612acb5780612ab78882612876565b845260208401935050602081019050612aa4565b5050509392505050565b5f82601f830112612ae957612ae86128b4565b5b8135612af9848260208601612a6d565b91505092915050565b5f67ffffffffffffffff821115612b1c57612b1b6128bc565b5b602082029050602081019050919050565b5f612b3f612b3a84612b02565b61291a565b90508083825260208201905060208402830185811115612b6257612b61612a69565b5b835b81811015612b8b5780612b7788826128a0565b845260208401935050602081019050612b64565b5050509392505050565b5f82601f830112612ba957612ba86128b4565b5b8135612bb9848260208601612b2d565b91505092915050565b5f67ffffffffffffffff821115612bdc57612bdb6128bc565b5b602082029050602081019050919050565b612bf6816127cc565b8114612c00575f5ffd5b50565b5f81359050612c1181612bed565b92915050565b5f612c29612c2484612bc2565b61291a565b90508083825260208201905060208402830185811115612c4c57612c4b612a69565b5b835b81811015612c755780612c618882612c03565b845260208401935050602081019050612c4e565b5050509392505050565b5f82601f830112612c9357612c926128b4565b5b8135612ca3848260208601612c17565b91505092915050565b5f67ffffffffffffffff821115612cc657612cc56128bc565b5b602082029050602081019050919050565b5f612ce9612ce484612cac565b61291a565b90508083825260208201905060208402830185811115612d0c57612d0b612a69565b5b835b81811015612d5357803567ffffffffffffffff811115612d3157612d306128b4565b5b808601612d3e89826129a5565b85526020850194505050602081019050612d0e565b5050509392505050565b5f82601f830112612d7157612d706128b4565b5b8135612d81848260208601612cd7565b91505092915050565b5f5f5f5f5f60a08688031215612da357612da2612744565b5b5f86013567ffffffffffffffff811115612dc057612dbf612748565b5b612dcc88828901612ad5565b955050602086013567ffffffffffffffff811115612ded57612dec612748565b5b612df988828901612ad5565b945050604086013567ffffffffffffffff811115612e1a57612e19612748565b5b612e2688828901612b95565b935050606086013567ffffffffffffffff811115612e4757612e46612748565b5b612e5388828901612c7f565b925050608086013567ffffffffffffffff811115612e7457612e73612748565b5b612e8088828901612d5d565b9150509295509295909350565b5f5f5f5f60808587031215612ea557612ea4612744565b5b5f612eb287828801612876565b9450506020612ec387828801612876565b9350506040612ed487828801612c03565b925050606085013567ffffffffffffffff811115612ef557612ef4612748565b5b612f01878288016129a5565b91505092959194509250565b5f60ff82169050919050565b612f2281612f0d565b82525050565b5f602082019050612f3b5f830184612f19565b92915050565b5f819050919050565b612f5381612f41565b8114612f5d575f5ffd5b50565b5f81359050612f6e81612f4a565b92915050565b5f60208284031215612f8957612f88612744565b5b5f612f9684828501612f60565b91505092915050565b5f81519050919050565b8281835e5f83830152505050565b5f612fc182612f9f565b612fcb8185612677565b9350612fdb818560208601612fa9565b612fe4816126dd565b840191505092915050565b5f6020820190508181035f8301526130078184612fb7565b905092915050565b5f5f6040838503121561302557613024612744565b5b5f61303285828601612876565b925050602061304385828601612876565b9150509250929050565b5f5ffd5b5f5f83601f840112613066576130656128b4565b5b8235905067ffffffffffffffff8111156130835761308261304d565b5b60208301915083602082028301111561309f5761309e612a69565b5b9250929050565b5f5f602083850312156130bc576130bb612744565b5b5f83013567ffffffffffffffff8111156130d9576130d8612748565b5b6130e585828601613051565b92509250509250929050565b5f81519050919050565b5f82825260208201905092915050565b5f819050602082019050919050565b5f82825260208201905092915050565b5f61313482612f9f565b61313e818561311a565b935061314e818560208601612fa9565b613157816126dd565b840191505092915050565b5f61316d838361312a565b905092915050565b5f602082019050919050565b5f61318b826130f1565b61319581856130fb565b9350836020820285016131a78561310b565b805f5b858110156131e257848403895281516131c38582613162565b94506131ce83613175565b925060208a019950506001810190506131aa565b50829750879550505050505092915050565b5f6020820190508181035f83015261320c8184613181565b905092915050565b5f6020828403121561322957613228612744565b5b5f61323684828501612876565b91505092915050565b5f5f5f5f6080858703121561325757613256612744565b5b5f61326487828801612876565b9450506020613275878288016128a0565b935050604061328687828801612c03565b925050606085013567ffffffffffffffff8111156132a7576132a6612748565b5b6132b3878288016129a5565b91505092959194509250565b5f5f5f5f5f60a086880312156132d8576132d7612744565b5b5f6132e588828901612876565b95505060206132f688828901612876565b9450506040613307888289016128a0565b935050606061331888828901612c03565b925050608086013567ffffffffffffffff81111561333957613338612748565b5b613345888289016129a5565b9150509295509295909350565b5f5f5f5f6080858703121561336a57613369612744565b5b5f61337787828801612876565b945050602061338887828801612876565b9350506040613399878288016128a0565b925050606085013567ffffffffffffffff8111156133ba576133b9612748565b5b6133c6878288016129a5565b91505092959194509250565b5f5f604083850312156133e8576133e7612744565b5b5f6133f585828601612f60565b925050602083013567ffffffffffffffff81111561341657613415612748565b5b613422858286016129a5565b9150509250929050565b6134358161284f565b82525050565b5f60208201905061344e5f83018461342c565b92915050565b5f67ffffffffffffffff82111561346e5761346d6128bc565b5b602082029050602081019050919050565b5f61349161348c84613454565b61291a565b905080838252602082019050602084028301858111156134b4576134b3612a69565b5b835b818110156134dd57806134c98882612f60565b8452602084019350506020810190506134b6565b5050509392505050565b5f82601f8301126134fb576134fa6128b4565b5b813561350b84826020860161347f565b91505092915050565b5f5f6040838503121561352a57613529612744565b5b5f83013567ffffffffffffffff81111561354757613546612748565b5b613553858286016134e7565b925050602083013567ffffffffffffffff81111561357457613573612748565b5b61358085828601612d5d565b9150509250929050565b5f81519050919050565b5f82825260208201905092915050565b5f819050602082019050919050565b6135bc8161284f565b82525050565b5f6135cd83836135b3565b60208301905092915050565b5f602082019050919050565b5f6135ef8261358a565b6135f98185613594565b9350613604836135a4565b805f5b8381101561363457815161361b88826135c2565b9750613626836135d9565b925050600181019050613607565b5085935050505092915050565b5f6020820190508181035f83015261365981846135e5565b905092915050565b5f6020828403121561367657613675612744565b5b5f82013567ffffffffffffffff81111561369357613692612748565b5b61369f848285016134e7565b91505092915050565b6136b18161274c565b82525050565b5f6020820190506136ca5f8301846136a8565b92915050565b5f81905092915050565b5f6136e583856136d0565b93506136f28385846126cf565b82840190509392505050565b5f8160601b9050919050565b5f613714826136fe565b9050919050565b5f6137258261370a565b9050919050565b61373d6137388261284f565b61371b565b82525050565b5f819050919050565b61375d613758826127ff565b613743565b82525050565b5f61376f8286886136da565b915061377b828561372c565b60148201915061378b828461374c565b60208201915081905095945050505050565b5f6137a782612f9f565b6137b181856136d0565b93506137c1818560208601612fa9565b80840191505092915050565b5f6137d8828461379d565b915081905092915050565b7f4e487b71000000000000000000000000000000000000000000000000000000005f52601160045260245ffd5b5f61381a826127ff565b9150613825836127ff565b925082820190508082111561383d5761383c6137e3565b5b92915050565b5f6060820190506138565f83018661342c565b6138636020830185612808565b81810360408301526138758184612fb7565b9050949350505050565b7f4e487b71000000000000000000000000000000000000000000000000000000005f52603260045260245ffd5b5f6060820190506138bf5f83018661342c565b6138cc602083018561342c565b6138d9604083018461342c565b949350505050565b5f819050919050565b5f819050919050565b5f61390d613908613903846138e1565b6138ea565b612f0d565b9050919050565b61391d816138f3565b82525050565b5f6060820190506139365f83018661342c565b6139436020830185613914565b81810360408301526139558184612fb7565b9050949350505050565b5f5ffd5b5f5ffd5b5f5ffd5b5f5f833560016020038436030381126139875761398661395f565b5b80840192508235915067ffffffffffffffff8211156139a9576139a8613963565b5b6020830192506001820236038313156139c5576139c4613967565b5b509250929050565b5f6139d98284866136da565b91508190509392505050565b5f82825260208201905092915050565b7f4f776e61626c653a206e6577206f776e657220697320746865207a65726f20615f8201527f6464726573730000000000000000000000000000000000000000000000000000602082015250565b5f613a4f6026836139e5565b9150613a5a826139f5565b604082019050919050565b5f6020820190508181035f830152613a7c81613a43565b9050919050565b5f819050602082019050919050565b5f7fffffffffffffffffffffffffffffffffffffffff00000000000000000000000082169050919050565b5f613ac88251613a92565b80915050919050565b5f82821b905092915050565b5f613ae782612f9f565b82613af184613a83565b9050613afc81613abd565b92506014821015613b3c57613b377fffffffffffffffffffffffffffffffffffffffff00000000000000000000000083601403600802613ad1565b831692505b5050919050565b7f4e487b71000000000000000000000000000000000000000000000000000000005f52602260045260245ffd5b5f6002820490506001821680613b8757607f821691505b602082108103613b9a57613b99613b43565b5b50919050565b7f4f776e61626c653a2063616c6c6572206973206e6f7420746865206f776e65725f82015250565b5f613bd46020836139e5565b9150613bdf82613ba0565b602082019050919050565b5f6020820190508181035f830152613c0181613bc8565b9050919050565b5f604082019050613c1b5f830185612808565b613c286020830184612808565b9392505050565b5f608082019050613c425f83018761342c565b613c4f6020830186612808565b613c5c604083018561342c565b613c696060830184612808565b95945050505050565b5f613c7c826127ff565b9150613c87836127ff565b9250828203905081811115613c9f57613c9e6137e3565b5b92915050565b5f60a082019050613cb85f83018861342c565b613cc5602083018761342c565b613cd2604083018661342c565b613cdf6060830185612808565b8181036080830152613cf18184612fb7565b90509695505050505050565b5f819050815f5260205f209050919050565b5f6020601f8301049050919050565b5f60088302613d4d7fffffffffffffffffffffffffffffffffffffffffffffffffffffffffffffffff82613ad1565b613d578683613ad1565b95508019841693508086168417925050509392505050565b5f613d89613d84613d7f846127ff565b6138ea565b6127ff565b9050919050565b5f819050919050565b613da283613d6f565b613db6613dae82613d90565b848454613d1e565b825550505050565b5f5f905090565b613dcd613dbe565b613dd8818484613d99565b505050565b5b81811015613dfb57613df05f82613dc5565b600181019050613dde565b5050565b601f821115613e4057613e1181613cfd565b613e1a84613d0f565b81016020851015613e29578190505b613e3d613e3585613d0f565b830182613ddd565b50505b505050565b5f82821c905092915050565b5f613e605f1984600802613e45565b1980831691505092915050565b5f613e788383613e51565b9150826002028217905092915050565b613e9182612f9f565b67ffffffffffffffff811115613eaa57613ea96128bc565b5b613eb48254613b70565b613ebf828285613dff565b5f60209050601f831160018114613ef0575f8415613ede578287015190505b613ee88582613e6d565b865550613f4f565b601f198416613efe86613cfd565b5f5b82811015613f2557848901518255600182019150602085019450602081019050613f00565b86831015613f425784890151613f3e601f891682613e51565b8355505b6001600288020188555050505b505050505050565b5f7fffffffffffffffffffff0000000000000000000000000000000000000000000082169050919050565b5f819050919050565b613f9c613f9782613f57565b613f82565b82525050565b5f7fffff00000000000000000000000000000000000000000000000000000000000082169050919050565b5f819050919050565b613fe7613fe282613fa2565b613fcd565b82525050565b5f819050919050565b61400761400282613a92565b613fed565b82525050565b5f6140188286613f8b565b600a820191506140288285613fd6565b6002820191506140388284613ff6565b601482019150819050949350505050565b5f6140548251612f41565b80915050919050565b5f61406782612f9f565b8261407184613a83565b905061407c81614049565b925060208210156140bc576140b77fffffffffffffffffffffffffffffffffffffffffffffffffffffffffffffffff83602003600802613ad1565b831692505b5050919050565b6140cc81612f41565b82525050565b5f6040820190506140e55f8301856140c3565b81810360208301526140f78184612fb7565b90509392505050565b5f61411261410d84612934565b61291a565b90508281526020810184848401111561412e5761412d6128b8565b5b614139848285612fa9565b509392505050565b5f82601f830112614155576141546128b4565b5b8151614165848260208601614100565b91505092915050565b5f6020828403121561418357614182612744565b5b5f82015167ffffffffffffffff8111156141a05761419f612748565b5b6141ac84828501614141565b91505092915050565b5f6060820190506141c85f830186612808565b6141d5602083018561342c565b6141e26040830184612808565b949350505050565b5f6060820190506141fd5f830186612808565b61420a60208301856127d7565b818103604083015261421c8184612fb7565b9050949350505050565b7f4e487b71000000000000000000000000000000000000000000000000000000005f52603160045260245ffdfea264697066735822122021e8486982f8528a6644ee2df3a02f8f06c1ab80e9e144492d9baed43d3ed43564736f6c634300081d0033",
			"opcodes": "PUSH1 0x80 PUSH1 0x40 MSTORE CALLVALUE DUP1 ISZERO PUSH2 0xF JUMPI PUSH0 PUSH0 REVERT JUMPDEST POP PUSH1 0x40 MLOAD DUP1 PUSH1 0x40 ADD PUSH1 0x40 MSTORE DUP1 PUSH1 0x6 DUP2 MSTORE PUSH1 0x20 ADD PUSH32 0x4152415454410000000000000000000000000000000000000000000000000000 DUP2 MSTORE POP PUSH1 0x40 MLOAD DUP1 PUSH1 0x40 ADD PUSH1 0x40 MSTORE DUP1 PUSH1 0x6 DUP2 MSTORE PUSH1 0x20 ADD PUSH32 0x4152415454410000000000000000000000000000000000000000000000000000 DUP2 MSTORE POP CALLER PUSH0 PUSH0 DUP5 DUP5 DUP5 DUP5 DUP5 DUP5 DUP5 DUP5 DUP5 DUP2 PUSH2 0xA5 PUSH2 0x9A PUSH2 0x2AB PUSH1 0x20 SHL PUSH1 0x20 SHR JUMP JUMPDEST PUSH2 0x2B2 PUSH1 0x20 SHL PUSH1 0x20 SHR JUMP JUMPDEST PUSH0 PUSH20 0xFFFFFFFFFFFFFFFFFFFFFFFFFFFFFFFFFFFFFFFF AND DUP2 PUSH20 0xFFFFFFFFFFFFFFFFFFFFFFFFFFFFFFFFFFFFFFFF AND SUB PUSH2 0x10A JUMPI PUSH1 0x40 MLOAD PUSH32 0x1AD8836C00000000000000000000000000000000000000000000000000000000 DUP2 MSTORE PUSH1 0x4 ADD PUSH1 0x40 MLOAD DUP1 SWAP2 SUB SWAP1 REVERT JUMPDEST PUSH2 0x119 DUP2 PUSH2 0x2B2 PUSH1 0x20 SHL PUSH1 0x20 SHR JUMP JUMPDEST POP PUSH2 0x181 PUSH32 0xEAFEC4D89FA9619884B60000A4D96624A38F7AC2D8D9A604ECF07C12C77E480C PUSH0 SHL PUSH1 0x40 MLOAD DUP1 PUSH1 0x40 ADD PUSH1 0x40 MSTORE DUP1 PUSH1 0x4 DUP2 MSTORE PUSH1 0x20 ADD PUSH32 0xA4D9662400000000000000000000000000000000000000000000000000000000 DUP2 MSTORE POP PUSH2 0x373 PUSH1 0x20 SHL PUSH1 0x20 SHR JUMP JUMPDEST PUSH2 0x1B3 PUSH32 0xDEBA1E292F8BA88238E10AB3C7F88BD4BE4FAC56CAD5194B6ECCEAF653468AF1 PUSH0 SHL DUP6 PUSH2 0x373 PUSH1 0x20 SHL PUSH1 0x20 SHR JUMP JUMPDEST PUSH2 0x1E5 PUSH32 0x2F0A68AB07768E01943A599E73362A0E17A63A72E94DD2E384D2C1D4DB932756 PUSH0 SHL DUP5 PUSH2 0x373 PUSH1 0x20 SHL PUSH1 0x20 SHR JUMP JUMPDEST PUSH2 0x236 PUSH32 0xE0261FA95DB2EB3B5439BD033CDA66D56B96F92F243A8228FD87550ED7BDFDB3 PUSH0 SHL DUP3 PUSH1 0x40 MLOAD PUSH1 0x20 ADD PUSH2 0x21C SWAP2 SWAP1 PUSH2 0xACA JUMP JUMPDEST PUSH1 0x40 MLOAD PUSH1 0x20 DUP2 DUP4 SUB SUB DUP2 MSTORE SWAP1 PUSH1 0x40 MSTORE PUSH2 0x373 PUSH1 0x20 SHL PUSH1 0x20 SHR JUMP JUMPDEST POP POP POP POP DUP1 PUSH1 0x2 PUSH0 PUSH2 0x100 EXP DUP2 SLOAD DUP2 PUSH1 0xFF MUL NOT AND SWAP1 DUP4 ISZERO ISZERO MUL OR SWAP1 SSTORE POP POP POP POP POP POP POP POP POP POP POP PUSH2 0x2A6 CALLER PUSH2 0x26F PUSH2 0x3CE PUSH1 0x20 SHL PUSH1 0x20 SHR JUMP JUMPDEST PUSH1 0xA PUSH2 0x27B SWAP2 SWAP1 PUSH2 0xC4B JUMP JUMPDEST PUSH4 0x1908B100 PUSH2 0x28A SWAP2 SWAP1 PUSH2 0xC95 JUMP JUMPDEST PUSH1 0x1 PUSH1 0x40 MLOAD DUP1 PUSH1 0x20 ADD PUSH1 0x40 MSTORE DUP1 PUSH0 DUP2 MSTORE POP PUSH2 0x3F0 PUSH1 0x20 SHL PUSH1 0x20 SHR JUMP JUMPDEST PUSH2 0x144E JUMP JUMPDEST PUSH0 CALLER SWAP1 POP SWAP1 JUMP JUMPDEST PUSH0 PUSH0 PUSH0 SWAP1 SLOAD SWAP1 PUSH2 0x100 EXP SWAP1 DIV PUSH20 0xFFFFFFFFFFFFFFFFFFFFFFFFFFFFFFFFFFFFFFFF AND SWAP1 POP DUP2 PUSH0 PUSH0 PUSH2 0x100 EXP DUP2 SLOAD DUP2 PUSH20 0xFFFFFFFFFFFFFFFFFFFFFFFFFFFFFFFFFFFFFFFF MUL NOT AND SWAP1 DUP4 PUSH20 0xFFFFFFFFFFFFFFFFFFFFFFFFFFFFFFFFFFFFFFFF AND MUL OR SWAP1 SSTORE POP DUP2 PUSH20 0xFFFFFFFFFFFFFFFFFFFFFFFFFFFFFFFFFFFFFFFF AND DUP2 PUSH20 0xFFFFFFFFFFFFFFFFFFFFFFFFFFFFFFFFFFFFFFFF AND PUSH32 0x8BE0079C531659141344CD1FD0A4F28419497F9722A3DAAFE3B4186F6B6457E0 PUSH1 0x40 MLOAD PUSH1 0x40 MLOAD DUP1 SWAP2 SUB SWAP1 LOG3 POP POP JUMP JUMPDEST DUP1 PUSH1 0x1 PUSH0 DUP5 DUP2 MSTORE PUSH1 0x20 ADD SWAP1 DUP2 MSTORE PUSH1 0x20 ADD PUSH0 KECCAK256 SWAP1 DUP2 PUSH2 0x391 SWAP2 SWAP1 PUSH2 0xF0A JUMP JUMPDEST POP DUP2 PUSH32 0xECE574603820D07BC9B91F2A932BAADF4628AABCB8AFBA49776529C14A6104B2 DUP3 PUSH1 0x40 MLOAD PUSH2 0x3C2 SWAP2 SWAP1 PUSH2 0x103F JUMP JUMPDEST PUSH1 0x40 MLOAD DUP1 SWAP2 SUB SWAP1 LOG2 POP POP JUMP JUMPDEST PUSH0 PUSH1 0x2 PUSH0 SWAP1 SLOAD SWAP1 PUSH2 0x100 EXP SWAP1 DIV PUSH1 0xFF AND PUSH2 0x3E9 JUMPI PUSH1 0x12 PUSH2 0x3EB JUMP JUMPDEST PUSH0 JUMPDEST SWAP1 POP SWAP1 JUMP JUMPDEST PUSH2 0x3FE PUSH2 0x416 PUSH1 0x20 SHL PUSH1 0x20 SHR JUMP JUMPDEST PUSH2 0x410 DUP5 DUP5 DUP5 DUP5 PUSH2 0x4A0 PUSH1 0x20 SHL PUSH1 0x20 SHR JUMP JUMPDEST POP POP POP POP JUMP JUMPDEST PUSH2 0x424 PUSH2 0x2AB PUSH1 0x20 SHL PUSH1 0x20 SHR JUMP JUMPDEST PUSH20 0xFFFFFFFFFFFFFFFFFFFFFFFFFFFFFFFFFFFFFFFF AND PUSH2 0x448 PUSH2 0x53C PUSH1 0x20 SHL PUSH1 0x20 SHR JUMP JUMPDEST PUSH20 0xFFFFFFFFFFFFFFFFFFFFFFFFFFFFFFFFFFFFFFFF AND EQ PUSH2 0x49E JUMPI PUSH1 0x40 MLOAD PUSH32 0x8C379A000000000000000000000000000000000000000000000000000000000 DUP2 MSTORE PUSH1 0x4 ADD PUSH2 0x495 SWAP1 PUSH2 0x10B9 JUMP JUMPDEST PUSH1 0x40 MLOAD DUP1 SWAP2 SUB SWAP1 REVERT JUMPDEST JUMP JUMPDEST PUSH12 0x19D971E4FE8401E74000000 DUP4 PUSH2 0x4BC PUSH2 0x563 PUSH1 0x20 SHL PUSH1 0x20 SHR JUMP JUMPDEST PUSH2 0x4C6 SWAP2 SWAP1 PUSH2 0x10D7 JUMP JUMPDEST GT ISZERO PUSH2 0x524 JUMPI PUSH2 0x4DA PUSH2 0x563 PUSH1 0x20 SHL PUSH1 0x20 SHR JUMP JUMPDEST PUSH12 0x19D971E4FE8401E74000000 PUSH1 0x40 MLOAD PUSH32 0x3DC729A700000000000000000000000000000000000000000000000000000000 DUP2 MSTORE PUSH1 0x4 ADD PUSH2 0x51B SWAP3 SWAP2 SWAP1 PUSH2 0x110A JUMP JUMPDEST PUSH1 0x40 MLOAD DUP1 SWAP2 SUB SWAP1 REVERT JUMPDEST PUSH2 0x536 DUP5 DUP5 DUP5 DUP5 PUSH2 0x56C PUSH1 0x20 SHL PUSH1 0x20 SHR JUMP JUMPDEST POP POP POP POP JUMP JUMPDEST PUSH0 PUSH0 PUSH0 SWAP1 SLOAD SWAP1 PUSH2 0x100 EXP SWAP1 DIV PUSH20 0xFFFFFFFFFFFFFFFFFFFFFFFFFFFFFFFFFFFFFFFF AND SWAP1 POP SWAP1 JUMP JUMPDEST PUSH0 PUSH1 0x3 SLOAD SWAP1 POP SWAP1 JUMP JUMPDEST PUSH0 PUSH20 0xFFFFFFFFFFFFFFFFFFFFFFFFFFFFFFFFFFFFFFFF AND DUP5 PUSH20 0xFFFFFFFFFFFFFFFFFFFFFFFFFFFFFFFFFFFFFFFF AND SUB PUSH2 0x5D1 JUMPI PUSH1 0x40 MLOAD PUSH32 0xD2D5EC3000000000000000000000000000000000000000000000000000000000 DUP2 MSTORE PUSH1 0x4 ADD PUSH1 0x40 MLOAD DUP1 SWAP2 SUB SWAP1 REVERT JUMPDEST PUSH2 0x5E4 PUSH0 DUP6 DUP6 DUP6 DUP6 PUSH2 0x64D PUSH1 0x20 SHL PUSH1 0x20 SHR JUMP JUMPDEST PUSH2 0x5F7 PUSH0 DUP6 DUP6 DUP6 DUP6 PUSH2 0x654 PUSH1 0x20 SHL PUSH1 0x20 SHR JUMP JUMPDEST PUSH2 0x60A PUSH0 DUP6 DUP6 DUP6 DUP6 PUSH2 0x88D PUSH1 0x20 SHL PUSH1 0x20 SHR JUMP JUMPDEST PUSH0 CALLER PUSH0 DUP7 DUP7 DUP6 PUSH1 0x40 MLOAD PUSH1 0x20 ADD PUSH2 0x624 SWAP6 SWAP5 SWAP4 SWAP3 SWAP2 SWAP1 PUSH2 0x1170 JUMP JUMPDEST PUSH1 0x40 MLOAD PUSH1 0x20 DUP2 DUP4 SUB SUB DUP2 MSTORE SWAP1 PUSH1 0x40 MSTORE SWAP1 POP PUSH2 0x646 DUP6 DUP5 DUP4 PUSH2 0x894 PUSH1 0x20 SHL PUSH1 0x20 SHR JUMP JUMPDEST POP POP POP POP POP JUMP JUMPDEST POP POP POP POP POP JUMP JUMPDEST PUSH0 PUSH20 0xFFFFFFFFFFFFFFFFFFFFFFFFFFFFFFFFFFFFFFFF AND DUP6 PUSH20 0xFFFFFFFFFFFFFFFFFFFFFFFFFFFFFFFFFFFFFFFF AND SUB PUSH2 0x6A4 JUMPI DUP3 PUSH1 0x3 PUSH0 DUP3 DUP3 SLOAD PUSH2 0x698 SWAP2 SWAP1 PUSH2 0x10D7 JUMP JUMPDEST SWAP3 POP POP DUP2 SWAP1 SSTORE POP PUSH2 0x774 JUMP JUMPDEST PUSH0 PUSH1 0x4 PUSH0 DUP8 PUSH20 0xFFFFFFFFFFFFFFFFFFFFFFFFFFFFFFFFFFFFFFFF AND PUSH20 0xFFFFFFFFFFFFFFFFFFFFFFFFFFFFFFFFFFFFFFFF AND DUP2 MSTORE PUSH1 0x20 ADD SWAP1 DUP2 MSTORE PUSH1 0x20 ADD PUSH0 KECCAK256 SLOAD SWAP1 POP DUP4 DUP2 LT ISZERO PUSH2 0x72E JUMPI DUP1 DUP7 DUP6 PUSH1 0x40 MLOAD PUSH32 0x8D4794900000000000000000000000000000000000000000000000000000000 DUP2 MSTORE PUSH1 0x4 ADD PUSH2 0x725 SWAP4 SWAP3 SWAP2 SWAP1 PUSH2 0x11C8 JUMP JUMPDEST PUSH1 0x40 MLOAD DUP1 SWAP2 SUB SWAP1 REVERT JUMPDEST DUP4 DUP2 SUB PUSH1 0x4 PUSH0 DUP9 PUSH20 0xFFFFFFFFFFFFFFFFFFFFFFFFFFFFFFFFFFFFFFFF AND PUSH20 0xFFFFFFFFFFFFFFFFFFFFFFFFFFFFFFFFFFFFFFFF AND DUP2 MSTORE PUSH1 0x20 ADD SWAP1 DUP2 MSTORE PUSH1 0x20 ADD PUSH0 KECCAK256 DUP2 SWAP1 SSTORE POP POP JUMPDEST PUSH0 PUSH20 0xFFFFFFFFFFFFFFFFFFFFFFFFFFFFFFFFFFFFFFFF AND DUP5 PUSH20 0xFFFFFFFFFFFFFFFFFFFFFFFFFFFFFFFFFFFFFFFF AND SUB PUSH2 0x7BB JUMPI DUP3 PUSH1 0x3 PUSH0 DUP3 DUP3 SLOAD SUB SWAP3 POP POP DUP2 SWAP1 SSTORE POP PUSH2 0x806 JUMP JUMPDEST DUP3 PUSH1 0x4 PUSH0 DUP7 PUSH20 0xFFFFFFFFFFFFFFFFFFFFFFFFFFFFFFFFFFFFFFFF AND PUSH20 0xFFFFFFFFFFFFFFFFFFFFFFFFFFFFFFFFFFFFFFFF AND DUP2 MSTORE PUSH1 0x20 ADD SWAP1 DUP2 MSTORE PUSH1 0x20 ADD PUSH0 KECCAK256 PUSH0 DUP3 DUP3 SLOAD ADD SWAP3 POP POP DUP2 SWAP1 SSTORE POP JUMPDEST DUP4 PUSH20 0xFFFFFFFFFFFFFFFFFFFFFFFFFFFFFFFFFFFFFFFF AND DUP6 PUSH20 0xFFFFFFFFFFFFFFFFFFFFFFFFFFFFFFFFFFFFFFFF AND CALLER PUSH20 0xFFFFFFFFFFFFFFFFFFFFFFFFFFFFFFFFFFFFFFFF AND PUSH32 0x3997E418D2CEF0B3B0E907B1E39605C3F7D32DBD061E82EA5B4A770D46A160A6 DUP7 DUP7 DUP7 PUSH1 0x40 MLOAD PUSH2 0x87E SWAP4 SWAP3 SWAP2 SWAP1 PUSH2 0x1217 JUMP JUMPDEST PUSH1 0x40 MLOAD DUP1 SWAP2 SUB SWAP1 LOG4 POP POP POP POP POP JUMP JUMPDEST POP POP POP POP POP JUMP JUMPDEST PUSH2 0x8AB DUP4 PUSH4 0x6BB56A14 PUSH1 0xE0 SHL PUSH2 0x9F9 PUSH1 0x20 SHL PUSH1 0x20 SHR JUMP JUMPDEST ISZERO PUSH2 0x956 JUMPI DUP3 PUSH20 0xFFFFFFFFFFFFFFFFFFFFFFFFFFFFFFFFFFFFFFFF AND PUSH4 0x6BB56A14 PUSH32 0x20804611B3E2EA21C480DC465142210ACF4A2485947541770EC1FB87DEE4A55C PUSH0 SHL DUP4 PUSH1 0x40 MLOAD DUP4 PUSH4 0xFFFFFFFF AND PUSH1 0xE0 SHL DUP2 MSTORE PUSH1 0x4 ADD PUSH2 0x90D SWAP3 SWAP2 SWAP1 PUSH2 0x126B JUMP JUMPDEST PUSH0 PUSH1 0x40 MLOAD DUP1 DUP4 SUB DUP2 PUSH0 DUP8 GAS CALL ISZERO DUP1 ISZERO PUSH2 0x928 JUMPI RETURNDATASIZE PUSH0 PUSH0 RETURNDATACOPY RETURNDATASIZE PUSH0 REVERT JUMPDEST POP POP POP POP PUSH1 0x40 MLOAD RETURNDATASIZE PUSH0 DUP3 RETURNDATACOPY RETURNDATASIZE PUSH1 0x1F NOT PUSH1 0x1F DUP3 ADD AND DUP3 ADD DUP1 PUSH1 0x40 MSTORE POP DUP2 ADD SWAP1 PUSH2 0x950 SWAP2 SWAP1 PUSH2 0x139B JUMP JUMPDEST POP PUSH2 0x9F4 JUMP JUMPDEST DUP2 PUSH2 0x9F3 JUMPI PUSH0 DUP4 PUSH20 0xFFFFFFFFFFFFFFFFFFFFFFFFFFFFFFFFFFFFFFFF AND EXTCODESIZE EQ PUSH2 0x9B6 JUMPI DUP3 PUSH1 0x40 MLOAD PUSH32 0xA608FBB600000000000000000000000000000000000000000000000000000000 DUP2 MSTORE PUSH1 0x4 ADD PUSH2 0x9AD SWAP2 SWAP1 PUSH2 0x13E2 JUMP JUMPDEST PUSH1 0x40 MLOAD DUP1 SWAP2 SUB SWAP1 REVERT JUMPDEST DUP3 PUSH1 0x40 MLOAD PUSH32 0x26C247F400000000000000000000000000000000000000000000000000000000 DUP2 MSTORE PUSH1 0x4 ADD PUSH2 0x9EA SWAP2 SWAP1 PUSH2 0x13E2 JUMP JUMPDEST PUSH1 0x40 MLOAD DUP1 SWAP2 SUB SWAP1 REVERT JUMPDEST JUMPDEST POP POP POP JUMP JUMPDEST PUSH0 PUSH0 PUSH4 0x1FFC9A7 PUSH1 0xE0 SHL DUP4 PUSH1 0x40 MLOAD PUSH1 0x24 ADD PUSH2 0xA14 SWAP2 SWAP1 PUSH2 0x1435 JUMP JUMPDEST PUSH1 0x40 MLOAD PUSH1 0x20 DUP2 DUP4 SUB SUB DUP2 MSTORE SWAP1 PUSH1 0x40 MSTORE SWAP1 PUSH28 0xFFFFFFFFFFFFFFFFFFFFFFFFFFFFFFFFFFFFFFFFFFFFFFFFFFFFFFFF NOT AND PUSH1 0x20 DUP3 ADD DUP1 MLOAD PUSH28 0xFFFFFFFFFFFFFFFFFFFFFFFFFFFFFFFFFFFFFFFFFFFFFFFFFFFFFFFF DUP4 DUP2 DUP4 AND OR DUP4 MSTORE POP POP POP POP SWAP1 POP PUSH0 PUSH0 PUSH0 PUSH1 0x20 PUSH0 DUP6 MLOAD PUSH1 0x20 DUP8 ADD DUP11 PUSH2 0x7530 STATICCALL SWAP3 POP RETURNDATASIZE SWAP2 POP PUSH0 MLOAD SWAP1 POP DUP3 DUP1 ISZERO PUSH2 0xA9B JUMPI POP PUSH1 0x20 DUP3 LT ISZERO JUMPDEST DUP1 ISZERO PUSH2 0xAA6 JUMPI POP PUSH0 DUP2 GT JUMPDEST SWAP5 POP POP POP POP POP SWAP3 SWAP2 POP POP JUMP JUMPDEST PUSH0 DUP2 SWAP1 POP SWAP2 SWAP1 POP JUMP JUMPDEST PUSH2 0xAC4 DUP2 PUSH2 0xAB2 JUMP JUMPDEST DUP3 MSTORE POP POP JUMP JUMPDEST PUSH0 PUSH1 0x20 DUP3 ADD SWAP1 POP PUSH2 0xADD PUSH0 DUP4 ADD DUP5 PUSH2 0xABB JUMP JUMPDEST SWAP3 SWAP2 POP POP JUMP JUMPDEST PUSH32 0x4E487B7100000000000000000000000000000000000000000000000000000000 PUSH0 MSTORE PUSH1 0x11 PUSH1 0x4 MSTORE PUSH1 0x24 PUSH0 REVERT JUMPDEST PUSH0 DUP2 PUSH1 0x1 SHR SWAP1 POP SWAP2 SWAP1 POP JUMP JUMPDEST PUSH0 PUSH0 DUP3 SWAP2 POP DUP4 SWAP1 POP JUMPDEST PUSH1 0x1 DUP6 GT ISZERO PUSH2 0xB65 JUMPI DUP1 DUP7 DIV DUP2 GT ISZERO PUSH2 0xB41 JUMPI PUSH2 0xB40 PUSH2 0xAE3 JUMP JUMPDEST JUMPDEST PUSH1 0x1 DUP6 AND ISZERO PUSH2 0xB50 JUMPI DUP1 DUP3 MUL SWAP2 POP JUMPDEST DUP1 DUP2 MUL SWAP1 POP PUSH2 0xB5E DUP6 PUSH2 0xB10 JUMP JUMPDEST SWAP5 POP PUSH2 0xB25 JUMP JUMPDEST SWAP5 POP SWAP5 SWAP3 POP POP POP JUMP JUMPDEST PUSH0 DUP3 PUSH2 0xB7D JUMPI PUSH1 0x1 SWAP1 POP PUSH2 0xC38 JUMP JUMPDEST DUP2 PUSH2 0xB8A JUMPI PUSH0 SWAP1 POP PUSH2 0xC38 JUMP JUMPDEST DUP2 PUSH1 0x1 DUP2 EQ PUSH2 0xBA0 JUMPI PUSH1 0x2 DUP2 EQ PUSH2 0xBAA JUMPI PUSH2 0xBD9 JUMP JUMPDEST PUSH1 0x1 SWAP2 POP POP PUSH2 0xC38 JUMP JUMPDEST PUSH1 0xFF DUP5 GT ISZERO PUSH2 0xBBC JUMPI PUSH2 0xBBB PUSH2 0xAE3 JUMP JUMPDEST JUMPDEST DUP4 PUSH1 0x2 EXP SWAP2 POP DUP5 DUP3 GT ISZERO PUSH2 0xBD3 JUMPI PUSH2 0xBD2 PUSH2 0xAE3 JUMP JUMPDEST JUMPDEST POP PUSH2 0xC38 JUMP JUMPDEST POP PUSH1 0x20 DUP4 LT PUSH2 0x133 DUP4 LT AND PUSH1 0x4E DUP5 LT PUSH1 0xB DUP5 LT AND OR ISZERO PUSH2 0xC0E JUMPI DUP3 DUP3 EXP SWAP1 POP DUP4 DUP2 GT ISZERO PUSH2 0xC09 JUMPI PUSH2 0xC08 PUSH2 0xAE3 JUMP JUMPDEST JUMPDEST PUSH2 0xC38 JUMP JUMPDEST PUSH2 0xC1B DUP5 DUP5 DUP5 PUSH1 0x1 PUSH2 0xB1C JUMP JUMPDEST SWAP3 POP SWAP1 POP DUP2 DUP5 DIV DUP2 GT ISZERO PUSH2 0xC32 JUMPI PUSH2 0xC31 PUSH2 0xAE3 JUMP JUMPDEST JUMPDEST DUP2 DUP2 MUL SWAP1 POP JUMPDEST SWAP4 SWAP3 POP POP POP JUMP JUMPDEST PUSH0 PUSH1 0xFF DUP3 AND SWAP1 POP SWAP2 SWAP1 POP JUMP JUMPDEST PUSH0 PUSH2 0xC55 DUP3 PUSH2 0xAB2 JUMP JUMPDEST SWAP2 POP PUSH2 0xC60 DUP4 PUSH2 0xC3F JUMP JUMPDEST SWAP3 POP PUSH2 0xC8D PUSH32 0xFFFFFFFFFFFFFFFFFFFFFFFFFFFFFFFFFFFFFFFFFFFFFFFFFFFFFFFFFFFFFFFF DUP5 DUP5 PUSH2 0xB6E JUMP JUMPDEST SWAP1 POP SWAP3 SWAP2 POP POP JUMP JUMPDEST PUSH0 PUSH2 0xC9F DUP3 PUSH2 0xAB2 JUMP JUMPDEST SWAP2 POP PUSH2 0xCAA DUP4 PUSH2 0xAB2 JUMP JUMPDEST SWAP3 POP DUP3 DUP3 MUL PUSH2 0xCB8 DUP2 PUSH2 0xAB2 JUMP JUMPDEST SWAP2 POP DUP3 DUP3 DIV DUP5 EQ DUP4 ISZERO OR PUSH2 0xCCF JUMPI PUSH2 0xCCE PUSH2 0xAE3 JUMP JUMPDEST JUMPDEST POP SWAP3 SWAP2 POP POP JUMP JUMPDEST PUSH0 DUP2 MLOAD SWAP1 POP SWAP2 SWAP1 POP JUMP JUMPDEST PUSH32 0x4E487B7100000000000000000000000000000000000000000000000000000000 PUSH0 MSTORE PUSH1 0x41 PUSH1 0x4 MSTORE PUSH1 0x24 PUSH0 REVERT JUMPDEST PUSH32 0x4E487B7100000000000000000000000000000000000000000000000000000000 PUSH0 MSTORE PUSH1 0x22 PUSH1 0x4 MSTORE PUSH1 0x24 PUSH0 REVERT JUMPDEST PUSH0 PUSH1 0x2 DUP3 DIV SWAP1 POP PUSH1 0x1 DUP3 AND DUP1 PUSH2 0xD51 JUMPI PUSH1 0x7F DUP3 AND SWAP2 POP JUMPDEST PUSH1 0x20 DUP3 LT DUP2 SUB PUSH2 0xD64 JUMPI PUSH2 0xD63 PUSH2 0xD0D JUMP JUMPDEST JUMPDEST POP SWAP2 SWAP1 POP JUMP JUMPDEST PUSH0 DUP2 SWAP1 POP DUP2 PUSH0 MSTORE PUSH1 0x20 PUSH0 KECCAK256 SWAP1 POP SWAP2 SWAP1 POP JUMP JUMPDEST PUSH0 PUSH1 0x20 PUSH1 0x1F DUP4 ADD DIV SWAP1 POP SWAP2 SWAP1 POP JUMP JUMPDEST PUSH0 DUP3 DUP3 SHL SWAP1 POP SWAP3 SWAP2 POP POP JUMP JUMPDEST PUSH0 PUSH1 0x8 DUP4 MUL PUSH2 0xDC6 PUSH32 0xFFFFFFFFFFFFFFFFFFFFFFFFFFFFFFFFFFFFFFFFFFFFFFFFFFFFFFFFFFFFFFFF DUP3 PUSH2 0xD8B JUMP JUMPDEST PUSH2 0xDD0 DUP7 DUP4 PUSH2 0xD8B JUMP JUMPDEST SWAP6 POP DUP1 NOT DUP5 AND SWAP4 POP DUP1 DUP7 AND DUP5 OR SWAP3 POP POP POP SWAP4 SWAP3 POP POP POP JUMP JUMPDEST PUSH0 DUP2 SWAP1 POP SWAP2 SWAP1 POP JUMP JUMPDEST PUSH0 PUSH2 0xE0B PUSH2 0xE06 PUSH2 0xE01 DUP5 PUSH2 0xAB2 JUMP JUMPDEST PUSH2 0xDE8 JUMP JUMPDEST PUSH2 0xAB2 JUMP JUMPDEST SWAP1 POP SWAP2 SWAP1 POP JUMP JUMPDEST PUSH0 DUP2 SWAP1 POP SWAP2 SWAP1 POP JUMP JUMPDEST PUSH2 0xE24 DUP4 PUSH2 0xDF1 JUMP JUMPDEST PUSH2 0xE38 PUSH2 0xE30 DUP3 PUSH2 0xE12 JUMP JUMPDEST DUP5 DUP5 SLOAD PUSH2 0xD97 JUMP JUMPDEST DUP3 SSTORE POP POP POP POP JUMP JUMPDEST PUSH0 PUSH0 SWAP1 POP SWAP1 JUMP JUMPDEST PUSH2 0xE4F PUSH2 0xE40 JUMP JUMPDEST PUSH2 0xE5A DUP2 DUP5 DUP5 PUSH2 0xE1B JUMP JUMPDEST POP POP POP JUMP JUMPDEST JUMPDEST DUP2 DUP2 LT ISZERO PUSH2 0xE7D JUMPI PUSH2 0xE72 PUSH0 DUP3 PUSH2 0xE47 JUMP JUMPDEST PUSH1 0x1 DUP2 ADD SWAP1 POP PUSH2 0xE60 JUMP JUMPDEST POP POP JUMP JUMPDEST PUSH1 0x1F DUP3 GT ISZERO PUSH2 0xEC2 JUMPI PUSH2 0xE93 DUP2 PUSH2 0xD6A JUMP JUMPDEST PUSH2 0xE9C DUP5 PUSH2 0xD7C JUMP JUMPDEST DUP2 ADD PUSH1 0x20 DUP6 LT ISZERO PUSH2 0xEAB JUMPI DUP2 SWAP1 POP JUMPDEST PUSH2 0xEBF PUSH2 0xEB7 DUP6 PUSH2 0xD7C JUMP JUMPDEST DUP4 ADD DUP3 PUSH2 0xE5F JUMP JUMPDEST POP POP JUMPDEST POP POP POP JUMP JUMPDEST PUSH0 DUP3 DUP3 SHR SWAP1 POP SWAP3 SWAP2 POP POP JUMP JUMPDEST PUSH0 PUSH2 0xEE2 PUSH0 NOT DUP5 PUSH1 0x8 MUL PUSH2 0xEC7 JUMP JUMPDEST NOT DUP1 DUP4 AND SWAP2 POP POP SWAP3 SWAP2 POP POP JUMP JUMPDEST PUSH0 PUSH2 0xEFA DUP4 DUP4 PUSH2 0xED3 JUMP JUMPDEST SWAP2 POP DUP3 PUSH1 0x2 MUL DUP3 OR SWAP1 POP SWAP3 SWAP2 POP POP JUMP JUMPDEST PUSH2 0xF13 DUP3 PUSH2 0xCD6 JUMP JUMPDEST PUSH8 0xFFFFFFFFFFFFFFFF DUP2 GT ISZERO PUSH2 0xF2C JUMPI PUSH2 0xF2B PUSH2 0xCE0 JUMP JUMPDEST JUMPDEST PUSH2 0xF36 DUP3 SLOAD PUSH2 0xD3A JUMP JUMPDEST PUSH2 0xF41 DUP3 DUP3 DUP6 PUSH2 0xE81 JUMP JUMPDEST PUSH0 PUSH1 0x20 SWAP1 POP PUSH1 0x1F DUP4 GT PUSH1 0x1 DUP2 EQ PUSH2 0xF72 JUMPI PUSH0 DUP5 ISZERO PUSH2 0xF60 JUMPI DUP3 DUP8 ADD MLOAD SWAP1 POP JUMPDEST PUSH2 0xF6A DUP6 DUP3 PUSH2 0xEEF JUMP JUMPDEST DUP7 SSTORE POP PUSH2 0xFD1 JUMP JUMPDEST PUSH1 0x1F NOT DUP5 AND PUSH2 0xF80 DUP7 PUSH2 0xD6A JUMP JUMPDEST PUSH0 JUMPDEST DUP3 DUP2 LT ISZERO PUSH2 0xFA7 JUMPI DUP5 DUP10 ADD MLOAD DUP3 SSTORE PUSH1 0x1 DUP3 ADD SWAP2 POP PUSH1 0x20 DUP6 ADD SWAP5 POP PUSH1 0x20 DUP2 ADD SWAP1 POP PUSH2 0xF82 JUMP JUMPDEST DUP7 DUP4 LT ISZERO PUSH2 0xFC4 JUMPI DUP5 DUP10 ADD MLOAD PUSH2 0xFC0 PUSH1 0x1F DUP10 AND DUP3 PUSH2 0xED3 JUMP JUMPDEST DUP4 SSTORE POP JUMPDEST PUSH1 0x1 PUSH1 0x2 DUP9 MUL ADD DUP9 SSTORE POP POP POP JUMPDEST POP POP POP POP POP POP JUMP JUMPDEST PUSH0 DUP3 DUP3 MSTORE PUSH1 0x20 DUP3 ADD SWAP1 POP SWAP3 SWAP2 POP POP JUMP JUMPDEST DUP3 DUP2 DUP4 MCOPY PUSH0 DUP4 DUP4 ADD MSTORE POP POP POP JUMP JUMPDEST PUSH0 PUSH1 0x1F NOT PUSH1 0x1F DUP4 ADD AND SWAP1 POP SWAP2 SWAP1 POP JUMP JUMPDEST PUSH0 PUSH2 0x1011 DUP3 PUSH2 0xCD6 JUMP JUMPDEST PUSH2 0x101B DUP2 DUP6 PUSH2 0xFD9 JUMP JUMPDEST SWAP4 POP PUSH2 0x102B DUP2 DUP6 PUSH1 0x20 DUP7 ADD PUSH2 0xFE9 JUMP JUMPDEST PUSH2 0x1034 DUP2 PUSH2 0xFF7 JUMP JUMPDEST DUP5 ADD SWAP2 POP POP SWAP3 SWAP2 POP POP JUMP JUMPDEST PUSH0 PUSH1 0x20 DUP3 ADD SWAP1 POP DUP2 DUP2 SUB PUSH0 DUP4 ADD MSTORE PUSH2 0x1057 DUP2 DUP5 PUSH2 0x1007 JUMP JUMPDEST SWAP1 POP SWAP3 SWAP2 POP POP JUMP JUMPDEST PUSH0 DUP3 DUP3 MSTORE PUSH1 0x20 DUP3 ADD SWAP1 POP SWAP3 SWAP2 POP POP JUMP JUMPDEST PUSH32 0x4F776E61626C653A2063616C6C6572206973206E6F7420746865206F776E6572 PUSH0 DUP3 ADD MSTORE POP JUMP JUMPDEST PUSH0 PUSH2 0x10A3 PUSH1 0x20 DUP4 PUSH2 0x105F JUMP JUMPDEST SWAP2 POP PUSH2 0x10AE DUP3 PUSH2 0x106F JUMP JUMPDEST PUSH1 0x20 DUP3 ADD SWAP1 POP SWAP2 SWAP1 POP JUMP JUMPDEST PUSH0 PUSH1 0x20 DUP3 ADD SWAP1 POP DUP2 DUP2 SUB PUSH0 DUP4 ADD MSTORE PUSH2 0x10D0 DUP2 PUSH2 0x1097 JUMP JUMPDEST SWAP1 POP SWAP2 SWAP1 POP JUMP JUMPDEST PUSH0 PUSH2 0x10E1 DUP3 PUSH2 0xAB2 JUMP JUMPDEST SWAP2 POP PUSH2 0x10EC DUP4 PUSH2 0xAB2 JUMP JUMPDEST SWAP3 POP DUP3 DUP3 ADD SWAP1 POP DUP1 DUP3 GT ISZERO PUSH2 0x1104 JUMPI PUSH2 0x1103 PUSH2 0xAE3 JUMP JUMPDEST JUMPDEST SWAP3 SWAP2 POP POP JUMP JUMPDEST PUSH0 PUSH1 0x40 DUP3 ADD SWAP1 POP PUSH2 0x111D PUSH0 DUP4 ADD DUP6 PUSH2 0xABB JUMP JUMPDEST PUSH2 0x112A PUSH1 0x20 DUP4 ADD DUP5 PUSH2 0xABB JUMP JUMPDEST SWAP4 SWAP3 POP POP POP JUMP JUMPDEST PUSH0 PUSH20 0xFFFFFFFFFFFFFFFFFFFFFFFFFFFFFFFFFFFFFFFF DUP3 AND SWAP1 POP SWAP2 SWAP1 POP JUMP JUMPDEST PUSH0 PUSH2 0x115A DUP3 PUSH2 0x1131 JUMP JUMPDEST SWAP1 POP SWAP2 SWAP1 POP JUMP JUMPDEST PUSH2 0x116A DUP2 PUSH2 0x1150 JUMP JUMPDEST DUP3 MSTORE POP POP JUMP JUMPDEST PUSH0 PUSH1 0xA0 DUP3 ADD SWAP1 POP PUSH2 0x1183 PUSH0 DUP4 ADD DUP9 PUSH2 0x1161 JUMP JUMPDEST PUSH2 0x1190 PUSH1 0x20 DUP4 ADD DUP8 PUSH2 0x1161 JUMP JUMPDEST PUSH2 0x119D PUSH1 0x40 DUP4 ADD DUP7 PUSH2 0x1161 JUMP JUMPDEST PUSH2 0x11AA PUSH1 0x60 DUP4 ADD DUP6 PUSH2 0xABB JUMP JUMPDEST DUP2 DUP2 SUB PUSH1 0x80 DUP4 ADD MSTORE PUSH2 0x11BC DUP2 DUP5 PUSH2 0x1007 JUMP JUMPDEST SWAP1 POP SWAP7 SWAP6 POP POP POP POP POP POP JUMP JUMPDEST PUSH0 PUSH1 0x60 DUP3 ADD SWAP1 POP PUSH2 0x11DB PUSH0 DUP4 ADD DUP7 PUSH2 0xABB JUMP JUMPDEST PUSH2 0x11E8 PUSH1 0x20 DUP4 ADD DUP6 PUSH2 0x1161 JUMP JUMPDEST PUSH2 0x11F5 PUSH1 0x40 DUP4 ADD DUP5 PUSH2 0xABB JUMP JUMPDEST SWAP5 SWAP4 POP POP POP POP JUMP JUMPDEST PUSH0 DUP2 ISZERO ISZERO SWAP1 POP SWAP2 SWAP1 POP JUMP JUMPDEST PUSH2 0x1211 DUP2 PUSH2 0x11FD JUMP JUMPDEST DUP3 MSTORE POP POP JUMP JUMPDEST PUSH0 PUSH1 0x60 DUP3 ADD SWAP1 POP PUSH2 0x122A PUSH0 DUP4 ADD DUP7 PUSH2 0xABB JUMP JUMPDEST PUSH2 0x1237 PUSH1 0x20 DUP4 ADD DUP6 PUSH2 0x1208 JUMP JUMPDEST DUP2 DUP2 SUB PUSH1 0x40 DUP4 ADD MSTORE PUSH2 0x1249 DUP2 DUP5 PUSH2 0x1007 JUMP JUMPDEST SWAP1 POP SWAP5 SWAP4 POP POP POP POP JUMP JUMPDEST PUSH0 DUP2 SWAP1 POP SWAP2 SWAP1 POP JUMP JUMPDEST PUSH2 0x1265 DUP2 PUSH2 0x1253 JUMP JUMPDEST DUP3 MSTORE POP POP JUMP JUMPDEST PUSH0 PUSH1 0x40 DUP3 ADD SWAP1 POP PUSH2 0x127E PUSH0 DUP4 ADD DUP6 PUSH2 0x125C JUMP JUMPDEST DUP2 DUP2 SUB PUSH1 0x20 DUP4 ADD MSTORE PUSH2 0x1290 DUP2 DUP5 PUSH2 0x1007 JUMP JUMPDEST SWAP1 POP SWAP4 SWAP3 POP POP POP JUMP JUMPDEST PUSH0 PUSH1 0x40 MLOAD SWAP1 POP SWAP1 JUMP JUMPDEST PUSH0 PUSH0 REVERT JUMPDEST PUSH0 PUSH0 REVERT JUMPDEST PUSH0 PUSH0 REVERT JUMPDEST PUSH0 PUSH0 REVERT JUMPDEST PUSH2 0x12BB DUP3 PUSH2 0xFF7 JUMP JUMPDEST DUP2 ADD DUP2 DUP2 LT PUSH8 0xFFFFFFFFFFFFFFFF DUP3 GT OR ISZERO PUSH2 0x12DA JUMPI PUSH2 0x12D9 PUSH2 0xCE0 JUMP JUMPDEST JUMPDEST DUP1 PUSH1 0x40 MSTORE POP POP POP JUMP JUMPDEST PUSH0 PUSH2 0x12EC PUSH2 0x1299 JUMP JUMPDEST SWAP1 POP PUSH2 0x12F8 DUP3 DUP3 PUSH2 0x12B2 JUMP JUMPDEST SWAP2 SWAP1 POP JUMP JUMPDEST PUSH0 PUSH8 0xFFFFFFFFFFFFFFFF DUP3 GT ISZERO PUSH2 0x1317 JUMPI PUSH2 0x1316 PUSH2 0xCE0 JUMP JUMPDEST JUMPDEST PUSH2 0x1320 DUP3 PUSH2 0xFF7 JUMP JUMPDEST SWAP1 POP PUSH1 0x20 DUP2 ADD SWAP1 POP SWAP2 SWAP1 POP JUMP JUMPDEST PUSH0 PUSH2 0x133F PUSH2 0x133A DUP5 PUSH2 0x12FD JUMP JUMPDEST PUSH2 0x12E3 JUMP JUMPDEST SWAP1 POP DUP3 DUP2 MSTORE PUSH1 0x20 DUP2 ADD DUP5 DUP5 DUP5 ADD GT ISZERO PUSH2 0x135B JUMPI PUSH2 0x135A PUSH2 0x12AE JUMP JUMPDEST JUMPDEST PUSH2 0x1366 DUP5 DUP3 DUP6 PUSH2 0xFE9 JUMP JUMPDEST POP SWAP4 SWAP3 POP POP POP JUMP JUMPDEST PUSH0 DUP3 PUSH1 0x1F DUP4 ADD SLT PUSH2 0x1382 JUMPI PUSH2 0x1381 PUSH2 0x12AA JUMP JUMPDEST JUMPDEST DUP2 MLOAD PUSH2 0x1392 DUP5 DUP3 PUSH1 0x20 DUP7 ADD PUSH2 0x132D JUMP JUMPDEST SWAP2 POP POP SWAP3 SWAP2 POP POP JUMP JUMPDEST PUSH0 PUSH1 0x20 DUP3 DUP5 SUB SLT ISZERO PUSH2 0x13B0 JUMPI PUSH2 0x13AF PUSH2 0x12A2 JUMP JUMPDEST JUMPDEST PUSH0 DUP3 ADD MLOAD PUSH8 0xFFFFFFFFFFFFFFFF DUP2 GT ISZERO PUSH2 0x13CD JUMPI PUSH2 0x13CC PUSH2 0x12A6 JUMP JUMPDEST JUMPDEST PUSH2 0x13D9 DUP5 DUP3 DUP6 ADD PUSH2 0x136E JUMP JUMPDEST SWAP2 POP POP SWAP3 SWAP2 POP POP JUMP JUMPDEST PUSH0 PUSH1 0x20 DUP3 ADD SWAP1 POP PUSH2 0x13F5 PUSH0 DUP4 ADD DUP5 PUSH2 0x1161 JUMP JUMPDEST SWAP3 SWAP2 POP POP JUMP JUMPDEST PUSH0 PUSH32 0xFFFFFFFF00000000000000000000000000000000000000000000000000000000 DUP3 AND SWAP1 POP SWAP2 SWAP1 POP JUMP JUMPDEST PUSH2 0x142F DUP2 PUSH2 0x13FB JUMP JUMPDEST DUP3 MSTORE POP POP JUMP JUMPDEST PUSH0 PUSH1 0x20 DUP3 ADD SWAP1 POP PUSH2 0x1448 PUSH0 DUP4 ADD DUP5 PUSH2 0x1426 JUMP JUMPDEST SWAP3 SWAP2 POP POP JUMP JUMPDEST PUSH2 0x4289 DUP1 PUSH2 0x145B PUSH0 CODECOPY PUSH0 RETURN INVALID PUSH1 0x80 PUSH1 0x40 MSTORE PUSH1 0x4 CALLDATASIZE LT PUSH2 0x138 JUMPI PUSH0 CALLDATALOAD PUSH1 0xE0 SHR DUP1 PUSH4 0x715018A6 GT PUSH2 0xAA JUMPI DUP1 PUSH4 0x8DA5CB5B GT PUSH2 0x6E JUMPI DUP1 PUSH4 0x8DA5CB5B EQ PUSH2 0x4E3 JUMPI DUP1 PUSH4 0x97902421 EQ PUSH2 0x50D JUMPI DUP1 PUSH4 0xB49506FD EQ PUSH2 0x529 JUMPI DUP1 PUSH4 0xD72FC29A EQ PUSH2 0x551 JUMPI DUP1 PUSH4 0xDEDFF9C6 EQ PUSH2 0x58D JUMPI DUP1 PUSH4 0xF2FDE38B EQ PUSH2 0x5C9 JUMPI PUSH2 0x1B1 JUMP JUMPDEST DUP1 PUSH4 0x715018A6 EQ PUSH2 0x439 JUMPI DUP1 PUSH4 0x7580D920 EQ PUSH2 0x44F JUMPI DUP1 PUSH4 0x760D9BBA EQ PUSH2 0x477 JUMPI DUP1 PUSH4 0x78381670 EQ PUSH2 0x49F JUMPI DUP1 PUSH4 0x7F23690C EQ PUSH2 0x4C7 JUMPI PUSH2 0x1B1 JUMP JUMPDEST DUP1 PUSH4 0x313CE567 GT PUSH2 0xFC JUMPI DUP1 PUSH4 0x313CE567 EQ PUSH2 0x2F5 JUMPI DUP1 PUSH4 0x52058D8A EQ PUSH2 0x31F JUMPI DUP1 PUSH4 0x54F6127F EQ PUSH2 0x349 JUMPI DUP1 PUSH4 0x65AEAA95 EQ PUSH2 0x385 JUMPI DUP1 PUSH4 0x6963D438 EQ PUSH2 0x3C1 JUMPI DUP1 PUSH4 0x70A08231 EQ PUSH2 0x3FD JUMPI PUSH2 0x1B1 JUMP JUMPDEST DUP1 PUSH4 0x1FFC9A7 EQ PUSH2 0x217 JUMPI DUP1 PUSH4 0x18160DDD EQ PUSH2 0x253 JUMPI DUP1 PUSH4 0x2BC1DA82 EQ PUSH2 0x27D JUMPI DUP1 PUSH4 0x2D7667C9 EQ PUSH2 0x2A5 JUMPI DUP1 PUSH4 0x30D0DC37 EQ PUSH2 0x2CD JUMPI PUSH2 0x1B1 JUMP JUMPDEST CALLDATASIZE PUSH2 0x1B1 JUMPI PUSH0 CALLVALUE SUB PUSH2 0x17F JUMPI PUSH1 0x40 MLOAD PUSH32 0xE5099EE300000000000000000000000000000000000000000000000000000000 DUP2 MSTORE PUSH1 0x4 ADD PUSH2 0x176 SWAP1 PUSH2 0x26B1 JUMP JUMPDEST PUSH1 0x40 MLOAD DUP1 SWAP2 SUB SWAP1 REVERT JUMPDEST PUSH1 0x40 MLOAD PUSH32 0x388F5ADC00000000000000000000000000000000000000000000000000000000 DUP2 MSTORE PUSH1 0x4 ADD PUSH1 0x40 MLOAD DUP1 SWAP2 SUB SWAP1 REVERT JUMPDEST PUSH0 CALLDATASIZE PUSH1 0x60 PUSH1 0x4 PUSH0 CALLDATASIZE SWAP1 POP LT ISZERO PUSH2 0x200 JUMPI DUP3 DUP3 PUSH1 0x40 MLOAD PUSH32 0xE5099EE300000000000000000000000000000000000000000000000000000000 DUP2 MSTORE PUSH1 0x4 ADD PUSH2 0x1F7 SWAP3 SWAP2 SWAP1 PUSH2 0x2719 JUMP JUMPDEST PUSH1 0x40 MLOAD DUP1 SWAP2 SUB SWAP1 REVERT JUMPDEST PUSH2 0x20A DUP4 DUP4 PUSH2 0x5F1 JUMP JUMPDEST SWAP1 POP SWAP2 POP POP DUP1 MLOAD SWAP1 PUSH1 0x20 ADD RETURN JUMPDEST CALLVALUE DUP1 ISZERO PUSH2 0x222 JUMPI PUSH0 PUSH0 REVERT JUMPDEST POP PUSH2 0x23D PUSH1 0x4 DUP1 CALLDATASIZE SUB DUP2 ADD SWAP1 PUSH2 0x238 SWAP2 SWAP1 PUSH2 0x27A1 JUMP JUMPDEST PUSH2 0x767 JUMP JUMPDEST PUSH1 0x40 MLOAD PUSH2 0x24A SWAP2 SWAP1 PUSH2 0x27E6 JUMP JUMPDEST PUSH1 0x40 MLOAD DUP1 SWAP2 SUB SWAP1 RETURN JUMPDEST CALLVALUE DUP1 ISZERO PUSH2 0x25E JUMPI PUSH0 PUSH0 REVERT JUMPDEST POP PUSH2 0x267 PUSH2 0x7D7 JUMP JUMPDEST PUSH1 0x40 MLOAD PUSH2 0x274 SWAP2 SWAP1 PUSH2 0x2817 JUMP JUMPDEST PUSH1 0x40 MLOAD DUP1 SWAP2 SUB SWAP1 RETURN JUMPDEST CALLVALUE DUP1 ISZERO PUSH2 0x288 JUMPI PUSH0 PUSH0 REVERT JUMPDEST POP PUSH2 0x2A3 PUSH1 0x4 DUP1 CALLDATASIZE SUB DUP2 ADD SWAP1 PUSH2 0x29E SWAP2 SWAP1 PUSH2 0x29D2 JUMP JUMPDEST PUSH2 0x7E0 JUMP JUMPDEST STOP JUMPDEST CALLVALUE DUP1 ISZERO PUSH2 0x2B0 JUMPI PUSH0 PUSH0 REVERT JUMPDEST POP PUSH2 0x2CB PUSH1 0x4 DUP1 CALLDATASIZE SUB DUP2 ADD SWAP1 PUSH2 0x2C6 SWAP2 SWAP1 PUSH2 0x2D8A JUMP JUMPDEST PUSH2 0x887 JUMP JUMPDEST STOP JUMPDEST CALLVALUE DUP1 ISZERO PUSH2 0x2D8 JUMPI PUSH0 PUSH0 REVERT JUMPDEST POP PUSH2 0x2F3 PUSH1 0x4 DUP1 CALLDATASIZE SUB DUP2 ADD SWAP1 PUSH2 0x2EE SWAP2 SWAP1 PUSH2 0x2E8D JUMP JUMPDEST PUSH2 0x999 JUMP JUMPDEST STOP JUMPDEST CALLVALUE DUP1 ISZERO PUSH2 0x300 JUMPI PUSH0 PUSH0 REVERT JUMPDEST POP PUSH2 0x309 PUSH2 0xA93 JUMP JUMPDEST PUSH1 0x40 MLOAD PUSH2 0x316 SWAP2 SWAP1 PUSH2 0x2F28 JUMP JUMPDEST PUSH1 0x40 MLOAD DUP1 SWAP2 SUB SWAP1 RETURN JUMPDEST CALLVALUE DUP1 ISZERO PUSH2 0x32A JUMPI PUSH0 PUSH0 REVERT JUMPDEST POP PUSH2 0x333 PUSH2 0xAB5 JUMP JUMPDEST PUSH1 0x40 MLOAD PUSH2 0x340 SWAP2 SWAP1 PUSH2 0x2817 JUMP JUMPDEST PUSH1 0x40 MLOAD DUP1 SWAP2 SUB SWAP1 RETURN JUMPDEST CALLVALUE DUP1 ISZERO PUSH2 0x354 JUMPI PUSH0 PUSH0 REVERT JUMPDEST POP PUSH2 0x36F PUSH1 0x4 DUP1 CALLDATASIZE SUB DUP2 ADD SWAP1 PUSH2 0x36A SWAP2 SWAP1 PUSH2 0x2F74 JUMP JUMPDEST PUSH2 0xAC5 JUMP JUMPDEST PUSH1 0x40 MLOAD PUSH2 0x37C SWAP2 SWAP1 PUSH2 0x2FEF JUMP JUMPDEST PUSH1 0x40 MLOAD DUP1 SWAP2 SUB SWAP1 RETURN JUMPDEST CALLVALUE DUP1 ISZERO PUSH2 0x390 JUMPI PUSH0 PUSH0 REVERT JUMPDEST POP PUSH2 0x3AB PUSH1 0x4 DUP1 CALLDATASIZE SUB DUP2 ADD SWAP1 PUSH2 0x3A6 SWAP2 SWAP1 PUSH2 0x300F JUMP JUMPDEST PUSH2 0xAD7 JUMP JUMPDEST PUSH1 0x40 MLOAD PUSH2 0x3B8 SWAP2 SWAP1 PUSH2 0x2817 JUMP JUMPDEST PUSH1 0x40 MLOAD DUP1 SWAP2 SUB SWAP1 RETURN JUMPDEST CALLVALUE DUP1 ISZERO PUSH2 0x3CC JUMPI PUSH0 PUSH0 REVERT JUMPDEST POP PUSH2 0x3E7 PUSH1 0x4 DUP1 CALLDATASIZE SUB DUP2 ADD SWAP1 PUSH2 0x3E2 SWAP2 SWAP1 PUSH2 0x30A6 JUMP JUMPDEST PUSH2 0xBD2 JUMP JUMPDEST PUSH1 0x40 MLOAD PUSH2 0x3F4 SWAP2 SWAP1 PUSH2 0x31F4 JUMP JUMPDEST PUSH1 0x40 MLOAD DUP1 SWAP2 SUB SWAP1 RETURN JUMPDEST CALLVALUE DUP1 ISZERO PUSH2 0x408 JUMPI PUSH0 PUSH0 REVERT JUMPDEST POP PUSH2 0x423 PUSH1 0x4 DUP1 CALLDATASIZE SUB DUP2 ADD SWAP1 PUSH2 0x41E SWAP2 SWAP1 PUSH2 0x3214 JUMP JUMPDEST PUSH2 0xD48 JUMP JUMPDEST PUSH1 0x40 MLOAD PUSH2 0x430 SWAP2 SWAP1 PUSH2 0x2817 JUMP JUMPDEST PUSH1 0x40 MLOAD DUP1 SWAP2 SUB SWAP1 RETURN JUMPDEST CALLVALUE DUP1 ISZERO PUSH2 0x444 JUMPI PUSH0 PUSH0 REVERT JUMPDEST POP PUSH2 0x44D PUSH2 0xD8E JUMP JUMPDEST STOP JUMPDEST CALLVALUE DUP1 ISZERO PUSH2 0x45A JUMPI PUSH0 PUSH0 REVERT JUMPDEST POP PUSH2 0x475 PUSH1 0x4 DUP1 CALLDATASIZE SUB DUP2 ADD SWAP1 PUSH2 0x470 SWAP2 SWAP1 PUSH2 0x323F JUMP JUMPDEST PUSH2 0xDA1 JUMP JUMPDEST STOP JUMPDEST CALLVALUE DUP1 ISZERO PUSH2 0x482 JUMPI PUSH0 PUSH0 REVERT JUMPDEST POP PUSH2 0x49D PUSH1 0x4 DUP1 CALLDATASIZE SUB DUP2 ADD SWAP1 PUSH2 0x498 SWAP2 SWAP1 PUSH2 0x32BF JUMP JUMPDEST PUSH2 0xDBB JUMP JUMPDEST STOP JUMPDEST CALLVALUE DUP1 ISZERO PUSH2 0x4AA JUMPI PUSH0 PUSH0 REVERT JUMPDEST POP PUSH2 0x4C5 PUSH1 0x4 DUP1 CALLDATASIZE SUB DUP2 ADD SWAP1 PUSH2 0x4C0 SWAP2 SWAP1 PUSH2 0x3352 JUMP JUMPDEST PUSH2 0xE0E JUMP JUMPDEST STOP JUMPDEST PUSH2 0x4E1 PUSH1 0x4 DUP1 CALLDATASIZE SUB DUP2 ADD SWAP1 PUSH2 0x4DC SWAP2 SWAP1 PUSH2 0x33D2 JUMP JUMPDEST PUSH2 0xF51 JUMP JUMPDEST STOP JUMPDEST CALLVALUE DUP1 ISZERO PUSH2 0x4EE JUMPI PUSH0 PUSH0 REVERT JUMPDEST POP PUSH2 0x4F7 PUSH2 0xFA0 JUMP JUMPDEST PUSH1 0x40 MLOAD PUSH2 0x504 SWAP2 SWAP1 PUSH2 0x343B JUMP JUMPDEST PUSH1 0x40 MLOAD DUP1 SWAP2 SUB SWAP1 RETURN JUMPDEST PUSH2 0x527 PUSH1 0x4 DUP1 CALLDATASIZE SUB DUP2 ADD SWAP1 PUSH2 0x522 SWAP2 SWAP1 PUSH2 0x3514 JUMP JUMPDEST PUSH2 0xFC7 JUMP JUMPDEST STOP JUMPDEST CALLVALUE DUP1 ISZERO PUSH2 0x534 JUMPI PUSH0 PUSH0 REVERT JUMPDEST POP PUSH2 0x54F PUSH1 0x4 DUP1 CALLDATASIZE SUB DUP2 ADD SWAP1 PUSH2 0x54A SWAP2 SWAP1 PUSH2 0x29D2 JUMP JUMPDEST PUSH2 0x1016 JUMP JUMPDEST STOP JUMPDEST CALLVALUE DUP1 ISZERO PUSH2 0x55C JUMPI PUSH0 PUSH0 REVERT JUMPDEST POP PUSH2 0x577 PUSH1 0x4 DUP1 CALLDATASIZE SUB DUP2 ADD SWAP1 PUSH2 0x572 SWAP2 SWAP1 PUSH2 0x3214 JUMP JUMPDEST PUSH2 0x105B JUMP JUMPDEST PUSH1 0x40 MLOAD PUSH2 0x584 SWAP2 SWAP1 PUSH2 0x3641 JUMP JUMPDEST PUSH1 0x40 MLOAD DUP1 SWAP2 SUB SWAP1 RETURN JUMPDEST CALLVALUE DUP1 ISZERO PUSH2 0x598 JUMPI PUSH0 PUSH0 REVERT JUMPDEST POP PUSH2 0x5B3 PUSH1 0x4 DUP1 CALLDATASIZE SUB DUP2 ADD SWAP1 PUSH2 0x5AE SWAP2 SWAP1 PUSH2 0x3661 JUMP JUMPDEST PUSH2 0x10A9 JUMP JUMPDEST PUSH1 0x40 MLOAD PUSH2 0x5C0 SWAP2 SWAP1 PUSH2 0x31F4 JUMP JUMPDEST PUSH1 0x40 MLOAD DUP1 SWAP2 SUB SWAP1 RETURN JUMPDEST CALLVALUE DUP1 ISZERO PUSH2 0x5D4 JUMPI PUSH0 PUSH0 REVERT JUMPDEST POP PUSH2 0x5EF PUSH1 0x4 DUP1 CALLDATASIZE SUB DUP2 ADD SWAP1 PUSH2 0x5EA SWAP2 SWAP1 PUSH2 0x3214 JUMP JUMPDEST PUSH2 0x115C JUMP JUMPDEST STOP JUMPDEST PUSH1 0x60 PUSH0 PUSH2 0x620 PUSH0 CALLDATALOAD PUSH32 0xFFFFFFFF00000000000000000000000000000000000000000000000000000000 AND PUSH2 0x11DE JUMP JUMPDEST POP SWAP1 POP PUSH0 PUSH20 0xFFFFFFFFFFFFFFFFFFFFFFFFFFFFFFFFFFFFFFFF AND DUP2 PUSH20 0xFFFFFFFFFFFFFFFFFFFFFFFFFFFFFFFFFFFFFFFF AND SUB PUSH2 0x6B6 JUMPI PUSH0 CALLDATALOAD PUSH32 0xFFFFFFFF00000000000000000000000000000000000000000000000000000000 AND PUSH1 0x40 MLOAD PUSH32 0xBB370B2B00000000000000000000000000000000000000000000000000000000 DUP2 MSTORE PUSH1 0x4 ADD PUSH2 0x6AD SWAP2 SWAP1 PUSH2 0x36B7 JUMP JUMPDEST PUSH1 0x40 MLOAD DUP1 SWAP2 SUB SWAP1 REVERT JUMPDEST PUSH0 PUSH0 DUP3 PUSH20 0xFFFFFFFFFFFFFFFFFFFFFFFFFFFFFFFFFFFFFFFF AND CALLVALUE DUP8 DUP8 CALLER CALLVALUE PUSH1 0x40 MLOAD PUSH1 0x20 ADD PUSH2 0x6E7 SWAP5 SWAP4 SWAP3 SWAP2 SWAP1 PUSH2 0x3763 JUMP JUMPDEST PUSH1 0x40 MLOAD PUSH1 0x20 DUP2 DUP4 SUB SUB DUP2 MSTORE SWAP1 PUSH1 0x40 MSTORE PUSH1 0x40 MLOAD PUSH2 0x703 SWAP2 SWAP1 PUSH2 0x37CD JUMP JUMPDEST PUSH0 PUSH1 0x40 MLOAD DUP1 DUP4 SUB DUP2 DUP6 DUP8 GAS CALL SWAP3 POP POP POP RETURNDATASIZE DUP1 PUSH0 DUP2 EQ PUSH2 0x73D JUMPI PUSH1 0x40 MLOAD SWAP2 POP PUSH1 0x1F NOT PUSH1 0x3F RETURNDATASIZE ADD AND DUP3 ADD PUSH1 0x40 MSTORE RETURNDATASIZE DUP3 MSTORE RETURNDATASIZE PUSH0 PUSH1 0x20 DUP5 ADD RETURNDATACOPY PUSH2 0x742 JUMP JUMPDEST PUSH1 0x60 SWAP2 POP JUMPDEST POP SWAP2 POP SWAP2 POP DUP2 ISZERO PUSH2 0x758 JUMPI DUP1 SWAP4 POP POP POP POP PUSH2 0x761 JUMP JUMPDEST DUP1 MLOAD DUP1 PUSH1 0x20 DUP4 ADD REVERT JUMPDEST SWAP3 SWAP2 POP POP JUMP JUMPDEST PUSH0 PUSH4 0xC52D6008 PUSH1 0xE0 SHL PUSH28 0xFFFFFFFFFFFFFFFFFFFFFFFFFFFFFFFFFFFFFFFFFFFFFFFFFFFFFFFF NOT AND DUP3 PUSH28 0xFFFFFFFFFFFFFFFFFFFFFFFFFFFFFFFFFFFFFFFFFFFFFFFFFFFFFFFF NOT AND EQ DUP1 PUSH2 0x7C0 JUMPI POP PUSH2 0x7BF DUP3 PUSH2 0x1294 JUMP JUMPDEST JUMPDEST DUP1 PUSH2 0x7D0 JUMPI POP PUSH2 0x7CF DUP3 PUSH2 0x12F4 JUMP JUMPDEST JUMPDEST SWAP1 POP SWAP2 SWAP1 POP JUMP JUMPDEST PUSH0 PUSH1 0x3 SLOAD SWAP1 POP SWAP1 JUMP JUMPDEST PUSH0 PUSH2 0x7EB DUP5 CALLER PUSH2 0xAD7 JUMP JUMPDEST SWAP1 POP PUSH0 DUP2 SUB PUSH2 0x831 JUMPI DUP4 PUSH1 0x40 MLOAD PUSH32 0xCBA6E97700000000000000000000000000000000000000000000000000000000 DUP2 MSTORE PUSH1 0x4 ADD PUSH2 0x828 SWAP2 SWAP1 PUSH2 0x343B JUMP JUMPDEST PUSH1 0x40 MLOAD DUP1 SWAP2 SUB SWAP1 REVERT JUMPDEST PUSH0 DUP4 DUP3 PUSH2 0x83E SWAP2 SWAP1 PUSH2 0x3810 JUMP JUMPDEST SWAP1 POP PUSH2 0x84E CALLER DUP7 DUP4 PUSH1 0x1 DUP8 PUSH2 0x1358 JUMP JUMPDEST PUSH0 CALLER DUP3 DUP6 PUSH1 0x40 MLOAD PUSH1 0x20 ADD PUSH2 0x864 SWAP4 SWAP3 SWAP2 SWAP1 PUSH2 0x3843 JUMP JUMPDEST PUSH1 0x40 MLOAD PUSH1 0x20 DUP2 DUP4 SUB SUB DUP2 MSTORE SWAP1 PUSH1 0x40 MSTORE SWAP1 POP PUSH2 0x87F DUP7 DUP3 PUSH2 0x1621 JUMP JUMPDEST POP POP POP POP POP POP JUMP JUMPDEST PUSH0 DUP6 MLOAD SWAP1 POP DUP5 MLOAD DUP2 EQ ISZERO DUP1 PUSH2 0x89D JUMPI POP DUP4 MLOAD DUP2 EQ ISZERO JUMPDEST DUP1 PUSH2 0x8A9 JUMPI POP DUP3 MLOAD DUP2 EQ ISZERO JUMPDEST DUP1 PUSH2 0x8B5 JUMPI POP DUP2 MLOAD DUP2 EQ ISZERO JUMPDEST ISZERO PUSH2 0x8EC JUMPI PUSH1 0x40 MLOAD PUSH32 0x263EEE8D00000000000000000000000000000000000000000000000000000000 DUP2 MSTORE PUSH1 0x4 ADD PUSH1 0x40 MLOAD DUP1 SWAP2 SUB SWAP1 REVERT JUMPDEST PUSH0 JUMPDEST DUP2 DUP2 LT ISZERO PUSH2 0x990 JUMPI PUSH2 0x985 DUP8 DUP3 DUP2 MLOAD DUP2 LT PUSH2 0x90C JUMPI PUSH2 0x90B PUSH2 0x387F JUMP JUMPDEST JUMPDEST PUSH1 0x20 MUL PUSH1 0x20 ADD ADD MLOAD DUP8 DUP4 DUP2 MLOAD DUP2 LT PUSH2 0x927 JUMPI PUSH2 0x926 PUSH2 0x387F JUMP JUMPDEST JUMPDEST PUSH1 0x20 MUL PUSH1 0x20 ADD ADD MLOAD DUP8 DUP5 DUP2 MLOAD DUP2 LT PUSH2 0x942 JUMPI PUSH2 0x941 PUSH2 0x387F JUMP JUMPDEST JUMPDEST PUSH1 0x20 MUL PUSH1 0x20 ADD ADD MLOAD DUP8 DUP6 DUP2 MLOAD DUP2 LT PUSH2 0x95D JUMPI PUSH2 0x95C PUSH2 0x387F JUMP JUMPDEST JUMPDEST PUSH1 0x20 MUL PUSH1 0x20 ADD ADD MLOAD DUP8 DUP7 DUP2 MLOAD DUP2 LT PUSH2 0x978 JUMPI PUSH2 0x977 PUSH2 0x387F JUMP JUMPDEST JUMPDEST PUSH1 0x20 MUL PUSH1 0x20 ADD ADD MLOAD PUSH2 0xDBB JUMP JUMPDEST DUP1 PUSH1 0x1 ADD SWAP1 POP PUSH2 0x8EE JUMP JUMPDEST POP POP POP POP POP POP POP JUMP JUMPDEST DUP3 PUSH20 0xFFFFFFFFFFFFFFFFFFFFFFFFFFFFFFFFFFFFFFFF AND CALLER PUSH20 0xFFFFFFFFFFFFFFFFFFFFFFFFFFFFFFFFFFFFFFFF AND EQ ISZERO DUP1 ISZERO PUSH2 0xA01 JUMPI POP DUP4 PUSH20 0xFFFFFFFFFFFFFFFFFFFFFFFFFFFFFFFFFFFFFFFF AND CALLER PUSH20 0xFFFFFFFFFFFFFFFFFFFFFFFFFFFFFFFFFFFFFFFF AND EQ ISZERO JUMPDEST ISZERO PUSH2 0xA47 JUMPI CALLER DUP4 DUP6 PUSH1 0x40 MLOAD PUSH32 0x1A525B3200000000000000000000000000000000000000000000000000000000 DUP2 MSTORE PUSH1 0x4 ADD PUSH2 0xA3E SWAP4 SWAP3 SWAP2 SWAP1 PUSH2 0x38AC JUMP JUMPDEST PUSH1 0x40 MLOAD DUP1 SWAP2 SUB SWAP1 REVERT JUMPDEST PUSH2 0xA54 DUP4 DUP6 PUSH0 DUP6 DUP6 PUSH2 0x1358 JUMP JUMPDEST DUP2 ISZERO PUSH2 0xA8D JUMPI PUSH0 DUP4 PUSH0 DUP4 PUSH1 0x40 MLOAD PUSH1 0x20 ADD PUSH2 0xA70 SWAP4 SWAP3 SWAP2 SWAP1 PUSH2 0x3923 JUMP JUMPDEST PUSH1 0x40 MLOAD PUSH1 0x20 DUP2 DUP4 SUB SUB DUP2 MSTORE SWAP1 PUSH1 0x40 MSTORE SWAP1 POP PUSH2 0xA8B DUP6 DUP3 PUSH2 0x1621 JUMP JUMPDEST POP JUMPDEST POP POP POP POP JUMP JUMPDEST PUSH0 PUSH1 0x2 PUSH0 SWAP1 SLOAD SWAP1 PUSH2 0x100 EXP SWAP1 DIV PUSH1 0xFF AND PUSH2 0xAAE JUMPI PUSH1 0x12 PUSH2 0xAB0 JUMP JUMPDEST PUSH0 JUMPDEST SWAP1 POP SWAP1 JUMP JUMPDEST PUSH12 0x19D971E4FE8401E74000000 DUP2 JUMP JUMPDEST PUSH1 0x60 PUSH2 0xAD0 DUP3 PUSH2 0x1652 JUMP JUMPDEST SWAP1 POP SWAP2 SWAP1 POP JUMP JUMPDEST PUSH0 DUP3 PUSH20 0xFFFFFFFFFFFFFFFFFFFFFFFFFFFFFFFFFFFFFFFF AND DUP3 PUSH20 0xFFFFFFFFFFFFFFFFFFFFFFFFFFFFFFFFFFFFFFFF AND SUB PUSH2 0xB50 JUMPI PUSH1 0x4 PUSH0 DUP4 PUSH20 0xFFFFFFFFFFFFFFFFFFFFFFFFFFFFFFFFFFFFFFFF AND PUSH20 0xFFFFFFFFFFFFFFFFFFFFFFFFFFFFFFFFFFFFFFFF AND DUP2 MSTORE PUSH1 0x20 ADD SWAP1 DUP2 MSTORE PUSH1 0x20 ADD PUSH0 KECCAK256 SLOAD SWAP1 POP PUSH2 0xBCC JUMP JUMPDEST PUSH1 0x6 PUSH0 DUP4 PUSH20 0xFFFFFFFFFFFFFFFFFFFFFFFFFFFFFFFFFFFFFFFF AND PUSH20 0xFFFFFFFFFFFFFFFFFFFFFFFFFFFFFFFFFFFFFFFF AND DUP2 MSTORE PUSH1 0x20 ADD SWAP1 DUP2 MSTORE PUSH1 0x20 ADD PUSH0 KECCAK256 PUSH0 DUP5 PUSH20 0xFFFFFFFFFFFFFFFFFFFFFFFFFFFFFFFFFFFFFFFF AND PUSH20 0xFFFFFFFFFFFFFFFFFFFFFFFFFFFFFFFFFFFFFFFF AND DUP2 MSTORE PUSH1 0x20 ADD SWAP1 DUP2 MSTORE PUSH1 0x20 ADD PUSH0 KECCAK256 SLOAD SWAP1 POP JUMPDEST SWAP3 SWAP2 POP POP JUMP JUMPDEST PUSH1 0x60 DUP3 DUP3 SWAP1 POP PUSH8 0xFFFFFFFFFFFFFFFF DUP2 GT ISZERO PUSH2 0xBF1 JUMPI PUSH2 0xBF0 PUSH2 0x28BC JUMP JUMPDEST JUMPDEST PUSH1 0x40 MLOAD SWAP1 DUP1 DUP3 MSTORE DUP1 PUSH1 0x20 MUL PUSH1 0x20 ADD DUP3 ADD PUSH1 0x40 MSTORE DUP1 ISZERO PUSH2 0xC24 JUMPI DUP2 PUSH1 0x20 ADD JUMPDEST PUSH1 0x60 DUP2 MSTORE PUSH1 0x20 ADD SWAP1 PUSH1 0x1 SWAP1 SUB SWAP1 DUP2 PUSH2 0xC0F JUMPI SWAP1 POP JUMPDEST POP SWAP1 POP PUSH0 JUMPDEST DUP4 DUP4 SWAP1 POP DUP2 LT ISZERO PUSH2 0xD41 JUMPI PUSH0 PUSH0 ADDRESS PUSH20 0xFFFFFFFFFFFFFFFFFFFFFFFFFFFFFFFFFFFFFFFF AND DUP7 DUP7 DUP6 DUP2 DUP2 LT PUSH2 0xC60 JUMPI PUSH2 0xC5F PUSH2 0x387F JUMP JUMPDEST JUMPDEST SWAP1 POP PUSH1 0x20 MUL DUP2 ADD SWAP1 PUSH2 0xC72 SWAP2 SWAP1 PUSH2 0x396B JUMP JUMPDEST PUSH1 0x40 MLOAD PUSH2 0xC80 SWAP3 SWAP2 SWAP1 PUSH2 0x39CD JUMP JUMPDEST PUSH0 PUSH1 0x40 MLOAD DUP1 DUP4 SUB DUP2 DUP6 GAS DELEGATECALL SWAP2 POP POP RETURNDATASIZE DUP1 PUSH0 DUP2 EQ PUSH2 0xCB8 JUMPI PUSH1 0x40 MLOAD SWAP2 POP PUSH1 0x1F NOT PUSH1 0x3F RETURNDATASIZE ADD AND DUP3 ADD PUSH1 0x40 MSTORE RETURNDATASIZE DUP3 MSTORE RETURNDATASIZE PUSH0 PUSH1 0x20 DUP5 ADD RETURNDATACOPY PUSH2 0xCBD JUMP JUMPDEST PUSH1 0x60 SWAP2 POP JUMPDEST POP SWAP2 POP SWAP2 POP DUP2 PUSH2 0xD15 JUMPI PUSH0 DUP2 MLOAD EQ PUSH2 0xCD8 JUMPI DUP1 MLOAD DUP1 DUP3 PUSH1 0x20 ADD REVERT JUMPDEST DUP3 PUSH1 0x40 MLOAD PUSH32 0xB774C28400000000000000000000000000000000000000000000000000000000 DUP2 MSTORE PUSH1 0x4 ADD PUSH2 0xD0C SWAP2 SWAP1 PUSH2 0x2817 JUMP JUMPDEST PUSH1 0x40 MLOAD DUP1 SWAP2 SUB SWAP1 REVERT JUMPDEST DUP1 DUP5 DUP5 DUP2 MLOAD DUP2 LT PUSH2 0xD29 JUMPI PUSH2 0xD28 PUSH2 0x387F JUMP JUMPDEST JUMPDEST PUSH1 0x20 MUL PUSH1 0x20 ADD ADD DUP2 SWAP1 MSTORE POP DUP3 PUSH1 0x1 ADD SWAP3 POP POP POP PUSH2 0xC29 JUMP JUMPDEST POP SWAP3 SWAP2 POP POP JUMP JUMPDEST PUSH0 PUSH1 0x4 PUSH0 DUP4 PUSH20 0xFFFFFFFFFFFFFFFFFFFFFFFFFFFFFFFFFFFFFFFF AND PUSH20 0xFFFFFFFFFFFFFFFFFFFFFFFFFFFFFFFFFFFFFFFF AND DUP2 MSTORE PUSH1 0x20 ADD SWAP1 DUP2 MSTORE PUSH1 0x20 ADD PUSH0 KECCAK256 SLOAD SWAP1 POP SWAP2 SWAP1 POP JUMP JUMPDEST PUSH2 0xD96 PUSH2 0x16F3 JUMP JUMPDEST PUSH2 0xD9F PUSH0 PUSH2 0x1771 JUMP JUMPDEST JUMP JUMPDEST PUSH2 0xDA9 PUSH2 0x16F3 JUMP JUMPDEST PUSH2 0xDB5 DUP5 DUP5 DUP5 DUP5 PUSH2 0x1832 JUMP JUMPDEST POP POP POP POP JUMP JUMPDEST DUP5 PUSH20 0xFFFFFFFFFFFFFFFFFFFFFFFFFFFFFFFFFFFFFFFF AND CALLER PUSH20 0xFFFFFFFFFFFFFFFFFFFFFFFFFFFFFFFFFFFFFFFF AND EQ PUSH2 0xDFA JUMPI PUSH2 0xDF9 CALLER DUP7 DUP6 PUSH2 0x18BC JUMP JUMPDEST JUMPDEST PUSH2 0xE07 DUP6 DUP6 DUP6 DUP6 DUP6 PUSH2 0x19B9 JUMP JUMPDEST POP POP POP POP POP JUMP JUMPDEST DUP3 PUSH20 0xFFFFFFFFFFFFFFFFFFFFFFFFFFFFFFFFFFFFFFFF AND CALLER PUSH20 0xFFFFFFFFFFFFFFFFFFFFFFFFFFFFFFFFFFFFFFFF AND EQ ISZERO DUP1 ISZERO PUSH2 0xE76 JUMPI POP DUP4 PUSH20 0xFFFFFFFFFFFFFFFFFFFFFFFFFFFFFFFFFFFFFFFF AND CALLER PUSH20 0xFFFFFFFFFFFFFFFFFFFFFFFFFFFFFFFFFFFFFFFF AND EQ ISZERO JUMPDEST ISZERO PUSH2 0xEBC JUMPI CALLER DUP4 DUP6 PUSH1 0x40 MLOAD PUSH32 0x98CE294500000000000000000000000000000000000000000000000000000000 DUP2 MSTORE PUSH1 0x4 ADD PUSH2 0xEB3 SWAP4 SWAP3 SWAP2 SWAP1 PUSH2 0x38AC JUMP JUMPDEST PUSH1 0x40 MLOAD DUP1 SWAP2 SUB SWAP1 REVERT JUMPDEST PUSH0 PUSH2 0xEC7 DUP6 DUP6 PUSH2 0xAD7 JUMP JUMPDEST SWAP1 POP DUP3 DUP2 LT ISZERO PUSH2 0xF03 JUMPI PUSH1 0x40 MLOAD PUSH32 0xEF76C3500000000000000000000000000000000000000000000000000000000 DUP2 MSTORE PUSH1 0x4 ADD PUSH1 0x40 MLOAD DUP1 SWAP2 SUB SWAP1 REVERT JUMPDEST PUSH0 DUP4 DUP3 SUB SWAP1 POP PUSH2 0xF17 DUP6 DUP8 DUP4 PUSH1 0x1 DUP8 PUSH2 0x1358 JUMP JUMPDEST PUSH0 DUP6 DUP3 DUP6 PUSH1 0x40 MLOAD PUSH1 0x20 ADD PUSH2 0xF2D SWAP4 SWAP3 SWAP2 SWAP1 PUSH2 0x3843 JUMP JUMPDEST PUSH1 0x40 MLOAD PUSH1 0x20 DUP2 DUP4 SUB SUB DUP2 MSTORE SWAP1 PUSH1 0x40 MSTORE SWAP1 POP PUSH2 0xF48 DUP8 DUP3 PUSH2 0x1621 JUMP JUMPDEST POP POP POP POP POP POP POP JUMP JUMPDEST PUSH2 0xF59 PUSH2 0x16F3 JUMP JUMPDEST PUSH0 CALLVALUE EQ PUSH2 0xF92 JUMPI PUSH1 0x40 MLOAD PUSH32 0xF36BA73700000000000000000000000000000000000000000000000000000000 DUP2 MSTORE PUSH1 0x4 ADD PUSH1 0x40 MLOAD DUP1 SWAP2 SUB SWAP1 REVERT JUMPDEST PUSH2 0xF9C DUP3 DUP3 PUSH2 0x1AC4 JUMP JUMPDEST POP POP JUMP JUMPDEST PUSH0 PUSH0 PUSH0 SWAP1 SLOAD SWAP1 PUSH2 0x100 EXP SWAP1 DIV PUSH20 0xFFFFFFFFFFFFFFFFFFFFFFFFFFFFFFFFFFFFFFFF AND SWAP1 POP SWAP1 JUMP JUMPDEST PUSH2 0xFCF PUSH2 0x16F3 JUMP JUMPDEST PUSH0 CALLVALUE EQ PUSH2 0x1008 JUMPI PUSH1 0x40 MLOAD PUSH32 0xF36BA73700000000000000000000000000000000000000000000000000000000 DUP2 MSTORE PUSH1 0x4 ADD PUSH1 0x40 MLOAD DUP1 SWAP2 SUB SWAP1 REVERT JUMPDEST PUSH2 0x1012 DUP3 DUP3 PUSH2 0x1C30 JUMP JUMPDEST POP POP JUMP JUMPDEST PUSH2 0x1024 CALLER DUP5 DUP5 PUSH1 0x1 DUP6 PUSH2 0x1358 JUMP JUMPDEST PUSH0 CALLER DUP4 DUP4 PUSH1 0x40 MLOAD PUSH1 0x20 ADD PUSH2 0x103A SWAP4 SWAP3 SWAP2 SWAP1 PUSH2 0x3843 JUMP JUMPDEST PUSH1 0x40 MLOAD PUSH1 0x20 DUP2 DUP4 SUB SUB DUP2 MSTORE SWAP1 PUSH1 0x40 MSTORE SWAP1 POP PUSH2 0x1055 DUP5 DUP3 PUSH2 0x1621 JUMP JUMPDEST POP POP POP POP JUMP JUMPDEST PUSH1 0x60 PUSH2 0x10A2 PUSH1 0x5 PUSH0 DUP5 PUSH20 0xFFFFFFFFFFFFFFFFFFFFFFFFFFFFFFFFFFFFFFFF AND PUSH20 0xFFFFFFFFFFFFFFFFFFFFFFFFFFFFFFFFFFFFFFFF AND DUP2 MSTORE PUSH1 0x20 ADD SWAP1 DUP2 MSTORE PUSH1 0x20 ADD PUSH0 KECCAK256 PUSH2 0x1D01 JUMP JUMPDEST SWAP1 POP SWAP2 SWAP1 POP JUMP JUMPDEST PUSH1 0x60 DUP2 MLOAD PUSH8 0xFFFFFFFFFFFFFFFF DUP2 GT ISZERO PUSH2 0x10C6 JUMPI PUSH2 0x10C5 PUSH2 0x28BC JUMP JUMPDEST JUMPDEST PUSH1 0x40 MLOAD SWAP1 DUP1 DUP3 MSTORE DUP1 PUSH1 0x20 MUL PUSH1 0x20 ADD DUP3 ADD PUSH1 0x40 MSTORE DUP1 ISZERO PUSH2 0x10F9 JUMPI DUP2 PUSH1 0x20 ADD JUMPDEST PUSH1 0x60 DUP2 MSTORE PUSH1 0x20 ADD SWAP1 PUSH1 0x1 SWAP1 SUB SWAP1 DUP2 PUSH2 0x10E4 JUMPI SWAP1 POP JUMPDEST POP SWAP1 POP PUSH0 PUSH0 SWAP1 POP JUMPDEST DUP3 MLOAD DUP2 LT ISZERO PUSH2 0x1156 JUMPI PUSH2 0x112D DUP4 DUP3 DUP2 MLOAD DUP2 LT PUSH2 0x1120 JUMPI PUSH2 0x111F PUSH2 0x387F JUMP JUMPDEST JUMPDEST PUSH1 0x20 MUL PUSH1 0x20 ADD ADD MLOAD PUSH2 0x1652 JUMP JUMPDEST DUP3 DUP3 DUP2 MLOAD DUP2 LT PUSH2 0x1140 JUMPI PUSH2 0x113F PUSH2 0x387F JUMP JUMPDEST JUMPDEST PUSH1 0x20 MUL PUSH1 0x20 ADD ADD DUP2 SWAP1 MSTORE POP DUP1 PUSH1 0x1 ADD SWAP1 POP PUSH2 0x1101 JUMP JUMPDEST POP SWAP2 SWAP1 POP JUMP JUMPDEST PUSH2 0x1164 PUSH2 0x16F3 JUMP JUMPDEST PUSH0 PUSH20 0xFFFFFFFFFFFFFFFFFFFFFFFFFFFFFFFFFFFFFFFF AND DUP2 PUSH20 0xFFFFFFFFFFFFFFFFFFFFFFFFFFFFFFFFFFFFFFFF AND SUB PUSH2 0x11D2 JUMPI PUSH1 0x40 MLOAD PUSH32 0x8C379A000000000000000000000000000000000000000000000000000000000 DUP2 MSTORE PUSH1 0x4 ADD PUSH2 0x11C9 SWAP1 PUSH2 0x3A65 JUMP JUMPDEST PUSH1 0x40 MLOAD DUP1 SWAP2 SUB SWAP1 REVERT JUMPDEST PUSH2 0x11DB DUP2 PUSH2 0x1771 JUMP JUMPDEST POP JUMP JUMPDEST PUSH0 PUSH0 PUSH0 PUSH2 0x1217 PUSH10 0xCEE78B4094DA86011096 PUSH1 0xB0 SHL DUP6 PUSH28 0xFFFFFFFFFFFFFFFFFFFFFFFFFFFFFFFFFFFFFFFFFFFFFFFFFFFFFFFF NOT AND PUSH2 0x1D20 JUMP JUMPDEST SWAP1 POP PUSH0 PUSH2 0x1223 DUP3 PUSH2 0x1652 JUMP JUMPDEST SWAP1 POP PUSH1 0x14 DUP2 MLOAD EQ ISZERO DUP1 ISZERO PUSH2 0x1238 JUMPI POP PUSH0 DUP2 MLOAD EQ ISZERO JUMPDEST ISZERO PUSH2 0x127A JUMPI DUP1 PUSH1 0x40 MLOAD PUSH32 0x42BFE79F00000000000000000000000000000000000000000000000000000000 DUP2 MSTORE PUSH1 0x4 ADD PUSH2 0x1271 SWAP2 SWAP1 PUSH2 0x2FEF JUMP JUMPDEST PUSH1 0x40 MLOAD DUP1 SWAP2 SUB SWAP1 REVERT JUMPDEST DUP1 PUSH2 0x1284 SWAP1 PUSH2 0x3ADD JUMP JUMPDEST PUSH1 0x60 SHR PUSH1 0x1 SWAP4 POP SWAP4 POP POP POP SWAP2 POP SWAP2 JUMP JUMPDEST PUSH0 PUSH4 0xA918FA6B PUSH1 0xE0 SHL PUSH28 0xFFFFFFFFFFFFFFFFFFFFFFFFFFFFFFFFFFFFFFFFFFFFFFFFFFFFFFFF NOT AND DUP3 PUSH28 0xFFFFFFFFFFFFFFFFFFFFFFFFFFFFFFFFFFFFFFFFFFFFFFFFFFFFFFFF NOT AND EQ DUP1 PUSH2 0x12ED JUMPI POP PUSH2 0x12EC DUP3 PUSH2 0x1D5E JUMP JUMPDEST JUMPDEST SWAP1 POP SWAP2 SWAP1 POP JUMP JUMPDEST PUSH0 PUSH0 PUSH2 0x1306 PUSH4 0x1FFC9A7 PUSH1 0xE0 SHL PUSH2 0x11DE JUMP JUMPDEST POP SWAP1 POP PUSH0 PUSH20 0xFFFFFFFFFFFFFFFFFFFFFFFFFFFFFFFFFFFFFFFF AND DUP2 PUSH20 0xFFFFFFFFFFFFFFFFFFFFFFFFFFFFFFFFFFFFFFFF AND SUB PUSH2 0x1345 JUMPI PUSH0 SWAP2 POP POP PUSH2 0x1353 JUMP JUMPDEST PUSH2 0x134F DUP2 DUP5 PUSH2 0x1E27 JUMP JUMPDEST SWAP2 POP POP JUMPDEST SWAP2 SWAP1 POP JUMP JUMPDEST PUSH0 PUSH20 0xFFFFFFFFFFFFFFFFFFFFFFFFFFFFFFFFFFFFFFFF AND DUP5 PUSH20 0xFFFFFFFFFFFFFFFFFFFFFFFFFFFFFFFFFFFFFFFF AND SUB PUSH2 0x13BD JUMPI PUSH1 0x40 MLOAD PUSH32 0x6355E76600000000000000000000000000000000000000000000000000000000 DUP2 MSTORE PUSH1 0x4 ADD PUSH1 0x40 MLOAD DUP1 SWAP2 SUB SWAP1 REVERT JUMPDEST DUP5 PUSH20 0xFFFFFFFFFFFFFFFFFFFFFFFFFFFFFFFFFFFFFFFF AND DUP5 PUSH20 0xFFFFFFFFFFFFFFFFFFFFFFFFFFFFFFFFFFFFFFFF AND SUB PUSH2 0x1422 JUMPI PUSH1 0x40 MLOAD PUSH32 0xDAB7504700000000000000000000000000000000000000000000000000000000 DUP2 MSTORE PUSH1 0x4 ADD PUSH1 0x40 MLOAD DUP1 SWAP2 SUB SWAP1 REVERT JUMPDEST DUP3 PUSH1 0x6 PUSH0 DUP8 PUSH20 0xFFFFFFFFFFFFFFFFFFFFFFFFFFFFFFFFFFFFFFFF AND PUSH20 0xFFFFFFFFFFFFFFFFFFFFFFFFFFFFFFFFFFFFFFFF AND DUP2 MSTORE PUSH1 0x20 ADD SWAP1 DUP2 MSTORE PUSH1 0x20 ADD PUSH0 KECCAK256 PUSH0 DUP7 PUSH20 0xFFFFFFFFFFFFFFFFFFFFFFFFFFFFFFFFFFFFFFFF AND PUSH20 0xFFFFFFFFFFFFFFFFFFFFFFFFFFFFFFFFFFFFFFFF AND DUP2 MSTORE PUSH1 0x20 ADD SWAP1 DUP2 MSTORE PUSH1 0x20 ADD PUSH0 KECCAK256 DUP2 SWAP1 SSTORE POP PUSH0 DUP4 EQ PUSH2 0x1561 JUMPI PUSH2 0x14F5 DUP5 PUSH1 0x5 PUSH0 DUP9 PUSH20 0xFFFFFFFFFFFFFFFFFFFFFFFFFFFFFFFFFFFFFFFF AND PUSH20 0xFFFFFFFFFFFFFFFFFFFFFFFFFFFFFFFFFFFFFFFF AND DUP2 MSTORE PUSH1 0x20 ADD SWAP1 DUP2 MSTORE PUSH1 0x20 ADD PUSH0 KECCAK256 PUSH2 0x1EE0 SWAP1 SWAP2 SWAP1 PUSH4 0xFFFFFFFF AND JUMP JUMPDEST POP DUP3 DUP6 PUSH20 0xFFFFFFFFFFFFFFFFFFFFFFFFFFFFFFFFFFFFFFFF AND DUP6 PUSH20 0xFFFFFFFFFFFFFFFFFFFFFFFFFFFFFFFFFFFFFFFF AND PUSH32 0xF772A43BFDF4729B196E3FB54A818B91A2CA6C49D10B2E16278752F9F515C25D DUP5 PUSH1 0x40 MLOAD PUSH2 0x1554 SWAP2 SWAP1 PUSH2 0x2FEF JUMP JUMPDEST PUSH1 0x40 MLOAD DUP1 SWAP2 SUB SWAP1 LOG4 PUSH2 0x161A JUMP JUMPDEST PUSH2 0x15B0 DUP5 PUSH1 0x5 PUSH0 DUP9 PUSH20 0xFFFFFFFFFFFFFFFFFFFFFFFFFFFFFFFFFFFFFFFF AND PUSH20 0xFFFFFFFFFFFFFFFFFFFFFFFFFFFFFFFFFFFFFFFF AND DUP2 MSTORE PUSH1 0x20 ADD SWAP1 DUP2 MSTORE PUSH1 0x20 ADD PUSH0 KECCAK256 PUSH2 0x1F0D SWAP1 SWAP2 SWAP1 PUSH4 0xFFFFFFFF AND JUMP JUMPDEST POP DUP2 ISZERO ISZERO DUP6 PUSH20 0xFFFFFFFFFFFFFFFFFFFFFFFFFFFFFFFFFFFFFFFF AND DUP6 PUSH20 0xFFFFFFFFFFFFFFFFFFFFFFFFFFFFFFFFFFFFFFFF AND PUSH32 0xEBF5762D8855CBE012D2CA42FB33A81175E17C8A8751F8859931BA453BD4167 DUP5 PUSH1 0x40 MLOAD PUSH2 0x1611 SWAP2 SWAP1 PUSH2 0x2FEF JUMP JUMPDEST PUSH1 0x40 MLOAD DUP1 SWAP2 SUB SWAP1 LOG4 JUMPDEST POP POP POP POP POP JUMP JUMPDEST PUSH2 0x164E DUP3 PUSH32 0x386072CC5A58E61263B434C722725F21031CD06E7C552CFAA06DB5DE8A320DBC PUSH0 SHL DUP4 PUSH2 0x1F3A JUMP JUMPDEST POP POP JUMP JUMPDEST PUSH1 0x60 PUSH1 0x1 PUSH0 DUP4 DUP2 MSTORE PUSH1 0x20 ADD SWAP1 DUP2 MSTORE PUSH1 0x20 ADD PUSH0 KECCAK256 DUP1 SLOAD PUSH2 0x1670 SWAP1 PUSH2 0x3B70 JUMP JUMPDEST DUP1 PUSH1 0x1F ADD PUSH1 0x20 DUP1 SWAP2 DIV MUL PUSH1 0x20 ADD PUSH1 0x40 MLOAD SWAP1 DUP2 ADD PUSH1 0x40 MSTORE DUP1 SWAP3 SWAP2 SWAP1 DUP2 DUP2 MSTORE PUSH1 0x20 ADD DUP3 DUP1 SLOAD PUSH2 0x169C SWAP1 PUSH2 0x3B70 JUMP JUMPDEST DUP1 ISZERO PUSH2 0x16E7 JUMPI DUP1 PUSH1 0x1F LT PUSH2 0x16BE JUMPI PUSH2 0x100 DUP1 DUP4 SLOAD DIV MUL DUP4 MSTORE SWAP2 PUSH1 0x20 ADD SWAP2 PUSH2 0x16E7 JUMP JUMPDEST DUP3 ADD SWAP2 SWAP1 PUSH0 MSTORE PUSH1 0x20 PUSH0 KECCAK256 SWAP1 JUMPDEST DUP2 SLOAD DUP2 MSTORE SWAP1 PUSH1 0x1 ADD SWAP1 PUSH1 0x20 ADD DUP1 DUP4 GT PUSH2 0x16CA JUMPI DUP3 SWAP1 SUB PUSH1 0x1F AND DUP3 ADD SWAP2 JUMPDEST POP POP POP POP POP SWAP1 POP SWAP2 SWAP1 POP JUMP JUMPDEST PUSH2 0x16FB PUSH2 0x1FF4 JUMP JUMPDEST PUSH20 0xFFFFFFFFFFFFFFFFFFFFFFFFFFFFFFFFFFFFFFFF AND PUSH2 0x1719 PUSH2 0xFA0 JUMP JUMPDEST PUSH20 0xFFFFFFFFFFFFFFFFFFFFFFFFFFFFFFFFFFFFFFFF AND EQ PUSH2 0x176F JUMPI PUSH1 0x40 MLOAD PUSH32 0x8C379A000000000000000000000000000000000000000000000000000000000 DUP2 MSTORE PUSH1 0x4 ADD PUSH2 0x1766 SWAP1 PUSH2 0x3BEA JUMP JUMPDEST PUSH1 0x40 MLOAD DUP1 SWAP2 SUB SWAP1 REVERT JUMPDEST JUMP JUMPDEST PUSH0 PUSH0 PUSH0 SWAP1 SLOAD SWAP1 PUSH2 0x100 EXP SWAP1 DIV PUSH20 0xFFFFFFFFFFFFFFFFFFFFFFFFFFFFFFFFFFFFFFFF AND SWAP1 POP DUP2 PUSH0 PUSH0 PUSH2 0x100 EXP DUP2 SLOAD DUP2 PUSH20 0xFFFFFFFFFFFFFFFFFFFFFFFFFFFFFFFFFFFFFFFF MUL NOT AND SWAP1 DUP4 PUSH20 0xFFFFFFFFFFFFFFFFFFFFFFFFFFFFFFFFFFFFFFFF AND MUL OR SWAP1 SSTORE POP DUP2 PUSH20 0xFFFFFFFFFFFFFFFFFFFFFFFFFFFFFFFFFFFFFFFF AND DUP2 PUSH20 0xFFFFFFFFFFFFFFFFFFFFFFFFFFFFFFFFFFFFFFFF AND PUSH32 0x8BE0079C531659141344CD1FD0A4F28419497F9722A3DAAFE3B4186F6B6457E0 PUSH1 0x40 MLOAD PUSH1 0x40 MLOAD DUP1 SWAP2 SUB SWAP1 LOG3 POP POP JUMP JUMPDEST PUSH12 0x19D971E4FE8401E74000000 DUP4 PUSH2 0x1848 PUSH2 0x7D7 JUMP JUMPDEST PUSH2 0x1852 SWAP2 SWAP1 PUSH2 0x3810 JUMP JUMPDEST GT ISZERO PUSH2 0x18AA JUMPI PUSH2 0x1860 PUSH2 0x7D7 JUMP JUMPDEST PUSH12 0x19D971E4FE8401E74000000 PUSH1 0x40 MLOAD PUSH32 0x3DC729A700000000000000000000000000000000000000000000000000000000 DUP2 MSTORE PUSH1 0x4 ADD PUSH2 0x18A1 SWAP3 SWAP2 SWAP1 PUSH2 0x3C08 JUMP JUMPDEST PUSH1 0x40 MLOAD DUP1 SWAP2 SUB SWAP1 REVERT JUMPDEST PUSH2 0x18B6 DUP5 DUP5 DUP5 DUP5 PUSH2 0x1FFB JUMP JUMPDEST POP POP POP POP JUMP JUMPDEST PUSH0 PUSH1 0x6 PUSH0 DUP5 PUSH20 0xFFFFFFFFFFFFFFFFFFFFFFFFFFFFFFFFFFFFFFFF AND PUSH20 0xFFFFFFFFFFFFFFFFFFFFFFFFFFFFFFFFFFFFFFFF AND DUP2 MSTORE PUSH1 0x20 ADD SWAP1 DUP2 MSTORE PUSH1 0x20 ADD PUSH0 KECCAK256 PUSH0 DUP6 PUSH20 0xFFFFFFFFFFFFFFFFFFFFFFFFFFFFFFFFFFFFFFFF AND PUSH20 0xFFFFFFFFFFFFFFFFFFFFFFFFFFFFFFFFFFFFFFFF AND DUP2 MSTORE PUSH1 0x20 ADD SWAP1 DUP2 MSTORE PUSH1 0x20 ADD PUSH0 KECCAK256 SLOAD SWAP1 POP PUSH0 DUP2 EQ DUP1 PUSH2 0x1945 JUMPI POP DUP1 DUP3 GT JUMPDEST ISZERO PUSH2 0x198D JUMPI DUP3 DUP2 DUP6 DUP5 PUSH1 0x40 MLOAD PUSH32 0xF3A6B69100000000000000000000000000000000000000000000000000000000 DUP2 MSTORE PUSH1 0x4 ADD PUSH2 0x1984 SWAP5 SWAP4 SWAP3 SWAP2 SWAP1 PUSH2 0x3C2F JUMP JUMPDEST PUSH1 0x40 MLOAD DUP1 SWAP2 SUB SWAP1 REVERT JUMPDEST PUSH2 0x19B3 DUP4 DUP6 DUP5 DUP5 PUSH2 0x199E SWAP2 SWAP1 PUSH2 0x3C72 JUMP JUMPDEST PUSH0 PUSH1 0x40 MLOAD DUP1 PUSH1 0x20 ADD PUSH1 0x40 MSTORE DUP1 PUSH0 DUP2 MSTORE POP PUSH2 0x1358 JUMP JUMPDEST POP POP POP POP JUMP JUMPDEST PUSH0 PUSH20 0xFFFFFFFFFFFFFFFFFFFFFFFFFFFFFFFFFFFFFFFF AND DUP6 PUSH20 0xFFFFFFFFFFFFFFFFFFFFFFFFFFFFFFFFFFFFFFFF AND EQ DUP1 PUSH2 0x1A1E JUMPI POP PUSH0 PUSH20 0xFFFFFFFFFFFFFFFFFFFFFFFFFFFFFFFFFFFFFFFF AND DUP5 PUSH20 0xFFFFFFFFFFFFFFFFFFFFFFFFFFFFFFFFFFFFFFFF AND EQ JUMPDEST ISZERO PUSH2 0x1A55 JUMPI PUSH1 0x40 MLOAD PUSH32 0xD2D5EC3000000000000000000000000000000000000000000000000000000000 DUP2 MSTORE PUSH1 0x4 ADD PUSH1 0x40 MLOAD DUP1 SWAP2 SUB SWAP1 REVERT JUMPDEST PUSH2 0x1A62 DUP6 DUP6 DUP6 DUP6 DUP6 PUSH2 0x20C4 JUMP JUMPDEST PUSH2 0x1A6F DUP6 DUP6 DUP6 DUP6 DUP6 PUSH2 0x20CB JUMP JUMPDEST PUSH2 0x1A7C DUP6 DUP6 DUP6 DUP6 DUP6 PUSH2 0x2304 JUMP JUMPDEST PUSH0 CALLER DUP7 DUP7 DUP7 DUP6 PUSH1 0x40 MLOAD PUSH1 0x20 ADD PUSH2 0x1A96 SWAP6 SWAP5 SWAP4 SWAP3 SWAP2 SWAP1 PUSH2 0x3CA5 JUMP JUMPDEST PUSH1 0x40 MLOAD PUSH1 0x20 DUP2 DUP4 SUB SUB DUP2 MSTORE SWAP1 PUSH1 0x40 MSTORE SWAP1 POP PUSH2 0x1AB1 DUP7 DUP3 PUSH2 0x230B JUMP JUMPDEST PUSH2 0x1ABC DUP6 DUP5 DUP4 PUSH2 0x233C JUMP JUMPDEST POP POP POP POP POP POP JUMP JUMPDEST PUSH32 0xDEBA1E292F8BA88238E10AB3C7F88BD4BE4FAC56CAD5194B6ECCEAF653468AF1 PUSH0 SHL DUP3 SUB PUSH2 0x1B1F JUMPI PUSH1 0x40 MLOAD PUSH32 0x85C169BD00000000000000000000000000000000000000000000000000000000 DUP2 MSTORE PUSH1 0x4 ADD PUSH1 0x40 MLOAD DUP1 SWAP2 SUB SWAP1 REVERT JUMPDEST PUSH32 0x2F0A68AB07768E01943A599E73362A0E17A63A72E94DD2E384D2C1D4DB932756 PUSH0 SHL DUP3 SUB PUSH2 0x1B7A JUMPI PUSH1 0x40 MLOAD PUSH32 0x76755B3800000000000000000000000000000000000000000000000000000000 DUP2 MSTORE PUSH1 0x4 ADD PUSH1 0x40 MLOAD DUP1 SWAP2 SUB SWAP1 REVERT JUMPDEST PUSH32 0xE0261FA95DB2EB3B5439BD033CDA66D56B96F92F243A8228FD87550ED7BDFDB3 PUSH0 SHL DUP3 SUB PUSH2 0x1BD5 JUMPI PUSH1 0x40 MLOAD PUSH32 0x4EF6D7FB00000000000000000000000000000000000000000000000000000000 DUP2 MSTORE PUSH1 0x4 ADD PUSH1 0x40 MLOAD DUP1 SWAP2 SUB SWAP1 REVERT JUMPDEST DUP1 PUSH1 0x1 PUSH0 DUP5 DUP2 MSTORE PUSH1 0x20 ADD SWAP1 DUP2 MSTORE PUSH1 0x20 ADD PUSH0 KECCAK256 SWAP1 DUP2 PUSH2 0x1BF3 SWAP2 SWAP1 PUSH2 0x3E88 JUMP JUMPDEST POP DUP2 PUSH32 0xECE574603820D07BC9B91F2A932BAADF4628AABCB8AFBA49776529C14A6104B2 DUP3 PUSH1 0x40 MLOAD PUSH2 0x1C24 SWAP2 SWAP1 PUSH2 0x2FEF JUMP JUMPDEST PUSH1 0x40 MLOAD DUP1 SWAP2 SUB SWAP1 LOG2 POP POP JUMP JUMPDEST DUP1 MLOAD DUP3 MLOAD EQ PUSH2 0x1C6B JUMPI PUSH1 0x40 MLOAD PUSH32 0x3BCC897900000000000000000000000000000000000000000000000000000000 DUP2 MSTORE PUSH1 0x4 ADD PUSH1 0x40 MLOAD DUP1 SWAP2 SUB SWAP1 REVERT JUMPDEST PUSH0 DUP3 MLOAD SUB PUSH2 0x1CA5 JUMPI PUSH1 0x40 MLOAD PUSH32 0x97DA5F9500000000000000000000000000000000000000000000000000000000 DUP2 MSTORE PUSH1 0x4 ADD PUSH1 0x40 MLOAD DUP1 SWAP2 SUB SWAP1 REVERT JUMPDEST PUSH0 PUSH0 SWAP1 POP JUMPDEST DUP3 MLOAD DUP2 LT ISZERO PUSH2 0x1CFC JUMPI PUSH2 0x1CF1 DUP4 DUP3 DUP2 MLOAD DUP2 LT PUSH2 0x1CC9 JUMPI PUSH2 0x1CC8 PUSH2 0x387F JUMP JUMPDEST JUMPDEST PUSH1 0x20 MUL PUSH1 0x20 ADD ADD MLOAD DUP4 DUP4 DUP2 MLOAD DUP2 LT PUSH2 0x1CE4 JUMPI PUSH2 0x1CE3 PUSH2 0x387F JUMP JUMPDEST JUMPDEST PUSH1 0x20 MUL PUSH1 0x20 ADD ADD MLOAD PUSH2 0x1AC4 JUMP JUMPDEST DUP1 PUSH1 0x1 ADD SWAP1 POP PUSH2 0x1CAA JUMP JUMPDEST POP POP POP JUMP JUMPDEST PUSH1 0x60 PUSH0 PUSH2 0x1D0F DUP4 PUSH0 ADD PUSH2 0x249B JUMP JUMPDEST SWAP1 POP PUSH1 0x60 DUP2 SWAP1 POP DUP1 SWAP3 POP POP POP SWAP2 SWAP1 POP JUMP JUMPDEST PUSH0 PUSH0 DUP4 PUSH0 PUSH1 0xF0 SHL DUP5 PUSH1 0x40 MLOAD PUSH1 0x20 ADD PUSH2 0x1D3A SWAP4 SWAP3 SWAP2 SWAP1 PUSH2 0x400D JUMP JUMPDEST PUSH1 0x40 MLOAD PUSH1 0x20 DUP2 DUP4 SUB SUB DUP2 MSTORE SWAP1 PUSH1 0x40 MSTORE SWAP1 POP DUP1 PUSH2 0x1D55 SWAP1 PUSH2 0x405D JUMP JUMPDEST SWAP2 POP POP SWAP3 SWAP2 POP POP JUMP JUMPDEST PUSH0 PUSH4 0x629AA694 PUSH1 0xE0 SHL PUSH28 0xFFFFFFFFFFFFFFFFFFFFFFFFFFFFFFFFFFFFFFFFFFFFFFFFFFFFFFFF NOT AND DUP3 PUSH28 0xFFFFFFFFFFFFFFFFFFFFFFFFFFFFFFFFFFFFFFFFFFFFFFFFFFFFFFFF NOT AND EQ DUP1 PUSH2 0x1DB7 JUMPI POP PUSH2 0x1DB6 DUP3 PUSH2 0x1DBE JUMP JUMPDEST JUMPDEST SWAP1 POP SWAP2 SWAP1 POP JUMP JUMPDEST PUSH0 PUSH32 0x1FFC9A700000000000000000000000000000000000000000000000000000000 PUSH28 0xFFFFFFFFFFFFFFFFFFFFFFFFFFFFFFFFFFFFFFFFFFFFFFFFFFFFFFFF NOT AND DUP3 PUSH28 0xFFFFFFFFFFFFFFFFFFFFFFFFFFFFFFFFFFFFFFFFFFFFFFFFFFFFFFFF NOT AND EQ SWAP1 POP SWAP2 SWAP1 POP JUMP JUMPDEST PUSH0 PUSH0 PUSH4 0x1FFC9A7 PUSH1 0xE0 SHL DUP4 PUSH1 0x40 MLOAD PUSH1 0x24 ADD PUSH2 0x1E42 SWAP2 SWAP1 PUSH2 0x36B7 JUMP JUMPDEST PUSH1 0x40 MLOAD PUSH1 0x20 DUP2 DUP4 SUB SUB DUP2 MSTORE SWAP1 PUSH1 0x40 MSTORE SWAP1 PUSH28 0xFFFFFFFFFFFFFFFFFFFFFFFFFFFFFFFFFFFFFFFFFFFFFFFFFFFFFFFF NOT AND PUSH1 0x20 DUP3 ADD DUP1 MLOAD PUSH28 0xFFFFFFFFFFFFFFFFFFFFFFFFFFFFFFFFFFFFFFFFFFFFFFFFFFFFFFFF DUP4 DUP2 DUP4 AND OR DUP4 MSTORE POP POP POP POP SWAP1 POP PUSH0 PUSH0 PUSH0 PUSH1 0x20 PUSH0 DUP6 MLOAD PUSH1 0x20 DUP8 ADD DUP11 PUSH2 0x7530 STATICCALL SWAP3 POP RETURNDATASIZE SWAP2 POP PUSH0 MLOAD SWAP1 POP DUP3 DUP1 ISZERO PUSH2 0x1EC9 JUMPI POP PUSH1 0x20 DUP3 LT ISZERO JUMPDEST DUP1 ISZERO PUSH2 0x1ED4 JUMPI POP PUSH0 DUP2 GT JUMPDEST SWAP5 POP POP POP POP POP SWAP3 SWAP2 POP POP JUMP JUMPDEST PUSH0 PUSH2 0x1F05 DUP4 PUSH0 ADD DUP4 PUSH20 0xFFFFFFFFFFFFFFFFFFFFFFFFFFFFFFFFFFFFFFFF AND PUSH0 SHL PUSH2 0x24F4 JUMP JUMPDEST SWAP1 POP SWAP3 SWAP2 POP POP JUMP JUMPDEST PUSH0 PUSH2 0x1F32 DUP4 PUSH0 ADD DUP4 PUSH20 0xFFFFFFFFFFFFFFFFFFFFFFFFFFFFFFFFFFFFFFFF AND PUSH0 SHL PUSH2 0x255B JUMP JUMPDEST SWAP1 POP SWAP3 SWAP2 POP POP JUMP JUMPDEST PUSH2 0x1F6A PUSH4 0x6BB56A14 PUSH1 0xE0 SHL DUP5 PUSH20 0xFFFFFFFFFFFFFFFFFFFFFFFFFFFFFFFFFFFFFFFF AND PUSH2 0x1E27 SWAP1 SWAP2 SWAP1 PUSH4 0xFFFFFFFF AND JUMP JUMPDEST ISZERO PUSH2 0x1FEF JUMPI DUP3 PUSH20 0xFFFFFFFFFFFFFFFFFFFFFFFFFFFFFFFFFFFFFFFF AND PUSH4 0x6BB56A14 DUP4 DUP4 PUSH1 0x40 MLOAD DUP4 PUSH4 0xFFFFFFFF AND PUSH1 0xE0 SHL DUP2 MSTORE PUSH1 0x4 ADD PUSH2 0x1FAA SWAP3 SWAP2 SWAP1 PUSH2 0x40D2 JUMP JUMPDEST PUSH0 PUSH1 0x40 MLOAD DUP1 DUP4 SUB DUP2 PUSH0 DUP8 GAS CALL ISZERO DUP1 ISZERO PUSH2 0x1FC5 JUMPI RETURNDATASIZE PUSH0 PUSH0 RETURNDATACOPY RETURNDATASIZE PUSH0 REVERT JUMPDEST POP POP POP POP PUSH1 0x40 MLOAD RETURNDATASIZE PUSH0 DUP3 RETURNDATACOPY RETURNDATASIZE PUSH1 0x1F NOT PUSH1 0x1F DUP3 ADD AND DUP3 ADD DUP1 PUSH1 0x40 MSTORE POP DUP2 ADD SWAP1 PUSH2 0x1FED SWAP2 SWAP1 PUSH2 0x416E JUMP JUMPDEST POP JUMPDEST POP POP POP JUMP JUMPDEST PUSH0 CALLER SWAP1 POP SWAP1 JUMP JUMPDEST PUSH0 PUSH20 0xFFFFFFFFFFFFFFFFFFFFFFFFFFFFFFFFFFFFFFFF AND DUP5 PUSH20 0xFFFFFFFFFFFFFFFFFFFFFFFFFFFFFFFFFFFFFFFF AND SUB PUSH2 0x2060 JUMPI PUSH1 0x40 MLOAD PUSH32 0xD2D5EC3000000000000000000000000000000000000000000000000000000000 DUP2 MSTORE PUSH1 0x4 ADD PUSH1 0x40 MLOAD DUP1 SWAP2 SUB SWAP1 REVERT JUMPDEST PUSH2 0x206D PUSH0 DUP6 DUP6 DUP6 DUP6 PUSH2 0x20C4 JUMP JUMPDEST PUSH2 0x207A PUSH0 DUP6 DUP6 DUP6 DUP6 PUSH2 0x20CB JUMP JUMPDEST PUSH2 0x2087 PUSH0 DUP6 DUP6 DUP6 DUP6 PUSH2 0x2304 JUMP JUMPDEST PUSH0 CALLER PUSH0 DUP7 DUP7 DUP6 PUSH1 0x40 MLOAD PUSH1 0x20 ADD PUSH2 0x20A1 SWAP6 SWAP5 SWAP4 SWAP3 SWAP2 SWAP1 PUSH2 0x3CA5 JUMP JUMPDEST PUSH1 0x40 MLOAD PUSH1 0x20 DUP2 DUP4 SUB SUB DUP2 MSTORE SWAP1 PUSH1 0x40 MSTORE SWAP1 POP PUSH2 0x20BD DUP6 DUP5 DUP4 PUSH2 0x233C JUMP JUMPDEST POP POP POP POP POP JUMP JUMPDEST POP POP POP POP POP JUMP JUMPDEST PUSH0 PUSH20 0xFFFFFFFFFFFFFFFFFFFFFFFFFFFFFFFFFFFFFFFF AND DUP6 PUSH20 0xFFFFFFFFFFFFFFFFFFFFFFFFFFFFFFFFFFFFFFFF AND SUB PUSH2 0x211B JUMPI DUP3 PUSH1 0x3 PUSH0 DUP3 DUP3 SLOAD PUSH2 0x210F SWAP2 SWAP1 PUSH2 0x3810 JUMP JUMPDEST SWAP3 POP POP DUP2 SWAP1 SSTORE POP PUSH2 0x21EB JUMP JUMPDEST PUSH0 PUSH1 0x4 PUSH0 DUP8 PUSH20 0xFFFFFFFFFFFFFFFFFFFFFFFFFFFFFFFFFFFFFFFF AND PUSH20 0xFFFFFFFFFFFFFFFFFFFFFFFFFFFFFFFFFFFFFFFF AND DUP2 MSTORE PUSH1 0x20 ADD SWAP1 DUP2 MSTORE PUSH1 0x20 ADD PUSH0 KECCAK256 SLOAD SWAP1 POP DUP4 DUP2 LT ISZERO PUSH2 0x21A5 JUMPI DUP1 DUP7 DUP6 PUSH1 0x40 MLOAD PUSH32 0x8D4794900000000000000000000000000000000000000000000000000000000 DUP2 MSTORE PUSH1 0x4 ADD PUSH2 0x219C SWAP4 SWAP3 SWAP2 SWAP1 PUSH2 0x41B5 JUMP JUMPDEST PUSH1 0x40 MLOAD DUP1 SWAP2 SUB SWAP1 REVERT JUMPDEST DUP4 DUP2 SUB PUSH1 0x4 PUSH0 DUP9 PUSH20 0xFFFFFFFFFFFFFFFFFFFFFFFFFFFFFFFFFFFFFFFF AND PUSH20 0xFFFFFFFFFFFFFFFFFFFFFFFFFFFFFFFFFFFFFFFF AND DUP2 MSTORE PUSH1 0x20 ADD SWAP1 DUP2 MSTORE PUSH1 0x20 ADD PUSH0 KECCAK256 DUP2 SWAP1 SSTORE POP POP JUMPDEST PUSH0 PUSH20 0xFFFFFFFFFFFFFFFFFFFFFFFFFFFFFFFFFFFFFFFF AND DUP5 PUSH20 0xFFFFFFFFFFFFFFFFFFFFFFFFFFFFFFFFFFFFFFFF AND SUB PUSH2 0x2232 JUMPI DUP3 PUSH1 0x3 PUSH0 DUP3 DUP3 SLOAD SUB SWAP3 POP POP DUP2 SWAP1 SSTORE POP PUSH2 0x227D JUMP JUMPDEST DUP3 PUSH1 0x4 PUSH0 DUP7 PUSH20 0xFFFFFFFFFFFFFFFFFFFFFFFFFFFFFFFFFFFFFFFF AND PUSH20 0xFFFFFFFFFFFFFFFFFFFFFFFFFFFFFFFFFFFFFFFF AND DUP2 MSTORE PUSH1 0x20 ADD SWAP1 DUP2 MSTORE PUSH1 0x20 ADD PUSH0 KECCAK256 PUSH0 DUP3 DUP3 SLOAD ADD SWAP3 POP POP DUP2 SWAP1 SSTORE POP JUMPDEST DUP4 PUSH20 0xFFFFFFFFFFFFFFFFFFFFFFFFFFFFFFFFFFFFFFFF AND DUP6 PUSH20 0xFFFFFFFFFFFFFFFFFFFFFFFFFFFFFFFFFFFFFFFF AND CALLER PUSH20 0xFFFFFFFFFFFFFFFFFFFFFFFFFFFFFFFFFFFFFFFF AND PUSH32 0x3997E418D2CEF0B3B0E907B1E39605C3F7D32DBD061E82EA5B4A770D46A160A6 DUP7 DUP7 DUP7 PUSH1 0x40 MLOAD PUSH2 0x22F5 SWAP4 SWAP3 SWAP2 SWAP1 PUSH2 0x41EA JUMP JUMPDEST PUSH1 0x40 MLOAD DUP1 SWAP2 SUB SWAP1 LOG4 POP POP POP POP POP JUMP JUMPDEST POP POP POP POP POP JUMP JUMPDEST PUSH2 0x2338 DUP3 PUSH32 0x429AC7A06903DBC9C13DFCB3C9D11DF8194581FA047C96D7A4171FC7402958EA PUSH0 SHL DUP4 PUSH2 0x1F3A JUMP JUMPDEST POP POP JUMP JUMPDEST PUSH2 0x234D DUP4 PUSH4 0x6BB56A14 PUSH1 0xE0 SHL PUSH2 0x1E27 JUMP JUMPDEST ISZERO PUSH2 0x23F8 JUMPI DUP3 PUSH20 0xFFFFFFFFFFFFFFFFFFFFFFFFFFFFFFFFFFFFFFFF AND PUSH4 0x6BB56A14 PUSH32 0x20804611B3E2EA21C480DC465142210ACF4A2485947541770EC1FB87DEE4A55C PUSH0 SHL DUP4 PUSH1 0x40 MLOAD DUP4 PUSH4 0xFFFFFFFF AND PUSH1 0xE0 SHL DUP2 MSTORE PUSH1 0x4 ADD PUSH2 0x23AF SWAP3 SWAP2 SWAP1 PUSH2 0x40D2 JUMP JUMPDEST PUSH0 PUSH1 0x40 MLOAD DUP1 DUP4 SUB DUP2 PUSH0 DUP8 GAS CALL ISZERO DUP1 ISZERO PUSH2 0x23CA JUMPI RETURNDATASIZE PUSH0 PUSH0 RETURNDATACOPY RETURNDATASIZE PUSH0 REVERT JUMPDEST POP POP POP POP PUSH1 0x40 MLOAD RETURNDATASIZE PUSH0 DUP3 RETURNDATACOPY RETURNDATASIZE PUSH1 0x1F NOT PUSH1 0x1F DUP3 ADD AND DUP3 ADD DUP1 PUSH1 0x40 MSTORE POP DUP2 ADD SWAP1 PUSH2 0x23F2 SWAP2 SWAP1 PUSH2 0x416E JUMP JUMPDEST POP PUSH2 0x2496 JUMP JUMPDEST DUP2 PUSH2 0x2495 JUMPI PUSH0 DUP4 PUSH20 0xFFFFFFFFFFFFFFFFFFFFFFFFFFFFFFFFFFFFFFFF AND EXTCODESIZE EQ PUSH2 0x2458 JUMPI DUP3 PUSH1 0x40 MLOAD PUSH32 0xA608FBB600000000000000000000000000000000000000000000000000000000 DUP2 MSTORE PUSH1 0x4 ADD PUSH2 0x244F SWAP2 SWAP1 PUSH2 0x343B JUMP JUMPDEST PUSH1 0x40 MLOAD DUP1 SWAP2 SUB SWAP1 REVERT JUMPDEST DUP3 PUSH1 0x40 MLOAD PUSH32 0x26C247F400000000000000000000000000000000000000000000000000000000 DUP2 MSTORE PUSH1 0x4 ADD PUSH2 0x248C SWAP2 SWAP1 PUSH2 0x343B JUMP JUMPDEST PUSH1 0x40 MLOAD DUP1 SWAP2 SUB SWAP1 REVERT JUMPDEST JUMPDEST POP POP POP JUMP JUMPDEST PUSH1 0x60 DUP2 PUSH0 ADD DUP1 SLOAD DUP1 PUSH1 0x20 MUL PUSH1 0x20 ADD PUSH1 0x40 MLOAD SWAP1 DUP2 ADD PUSH1 0x40 MSTORE DUP1 SWAP3 SWAP2 SWAP1 DUP2 DUP2 MSTORE PUSH1 0x20 ADD DUP3 DUP1 SLOAD DUP1 ISZERO PUSH2 0x24E8 JUMPI PUSH1 0x20 MUL DUP3 ADD SWAP2 SWAP1 PUSH0 MSTORE PUSH1 0x20 PUSH0 KECCAK256 SWAP1 JUMPDEST DUP2 SLOAD DUP2 MSTORE PUSH1 0x20 ADD SWAP1 PUSH1 0x1 ADD SWAP1 DUP1 DUP4 GT PUSH2 0x24D4 JUMPI JUMPDEST POP POP POP POP POP SWAP1 POP SWAP2 SWAP1 POP JUMP JUMPDEST PUSH0 PUSH2 0x24FF DUP4 DUP4 PUSH2 0x2657 JUMP JUMPDEST PUSH2 0x2551 JUMPI DUP3 PUSH0 ADD DUP3 SWAP1 DUP1 PUSH1 0x1 DUP2 SLOAD ADD DUP1 DUP3 SSTORE DUP1 SWAP2 POP POP PUSH1 0x1 SWAP1 SUB SWAP1 PUSH0 MSTORE PUSH1 0x20 PUSH0 KECCAK256 ADD PUSH0 SWAP1 SWAP2 SWAP1 SWAP2 SWAP1 SWAP2 POP SSTORE DUP3 PUSH0 ADD DUP1 SLOAD SWAP1 POP DUP4 PUSH1 0x1 ADD PUSH0 DUP5 DUP2 MSTORE PUSH1 0x20 ADD SWAP1 DUP2 MSTORE PUSH1 0x20 ADD PUSH0 KECCAK256 DUP2 SWAP1 SSTORE POP PUSH1 0x1 SWAP1 POP PUSH2 0x2555 JUMP JUMPDEST PUSH0 SWAP1 POP JUMPDEST SWAP3 SWAP2 POP POP JUMP JUMPDEST PUSH0 PUSH0 DUP4 PUSH1 0x1 ADD PUSH0 DUP5 DUP2 MSTORE PUSH1 0x20 ADD SWAP1 DUP2 MSTORE PUSH1 0x20 ADD PUSH0 KECCAK256 SLOAD SWAP1 POP PUSH0 DUP2 EQ PUSH2 0x264C JUMPI PUSH0 PUSH1 0x1 DUP3 PUSH2 0x2588 SWAP2 SWAP1 PUSH2 0x3C72 JUMP JUMPDEST SWAP1 POP PUSH0 PUSH1 0x1 DUP7 PUSH0 ADD DUP1 SLOAD SWAP1 POP PUSH2 0x259E SWAP2 SWAP1 PUSH2 0x3C72 JUMP JUMPDEST SWAP1 POP DUP2 DUP2 EQ PUSH2 0x2604 JUMPI PUSH0 DUP7 PUSH0 ADD DUP3 DUP2 SLOAD DUP2 LT PUSH2 0x25BD JUMPI PUSH2 0x25BC PUSH2 0x387F JUMP JUMPDEST JUMPDEST SWAP1 PUSH0 MSTORE PUSH1 0x20 PUSH0 KECCAK256 ADD SLOAD SWAP1 POP DUP1 DUP8 PUSH0 ADD DUP5 DUP2 SLOAD DUP2 LT PUSH2 0x25DE JUMPI PUSH2 0x25DD PUSH2 0x387F JUMP JUMPDEST JUMPDEST SWAP1 PUSH0 MSTORE PUSH1 0x20 PUSH0 KECCAK256 ADD DUP2 SWAP1 SSTORE POP DUP4 DUP8 PUSH1 0x1 ADD PUSH0 DUP4 DUP2 MSTORE PUSH1 0x20 ADD SWAP1 DUP2 MSTORE PUSH1 0x20 ADD PUSH0 KECCAK256 DUP2 SWAP1 SSTORE POP POP JUMPDEST DUP6 PUSH0 ADD DUP1 SLOAD DUP1 PUSH2 0x2617 JUMPI PUSH2 0x2616 PUSH2 0x4226 JUMP JUMPDEST JUMPDEST PUSH1 0x1 SWAP1 SUB DUP2 DUP2 SWAP1 PUSH0 MSTORE PUSH1 0x20 PUSH0 KECCAK256 ADD PUSH0 SWAP1 SSTORE SWAP1 SSTORE DUP6 PUSH1 0x1 ADD PUSH0 DUP7 DUP2 MSTORE PUSH1 0x20 ADD SWAP1 DUP2 MSTORE PUSH1 0x20 ADD PUSH0 KECCAK256 PUSH0 SWAP1 SSTORE PUSH1 0x1 SWAP4 POP POP POP POP PUSH2 0x2651 JUMP JUMPDEST PUSH0 SWAP2 POP POP JUMPDEST SWAP3 SWAP2 POP POP JUMP JUMPDEST PUSH0 PUSH0 DUP4 PUSH1 0x1 ADD PUSH0 DUP5 DUP2 MSTORE PUSH1 0x20 ADD SWAP1 DUP2 MSTORE PUSH1 0x20 ADD PUSH0 KECCAK256 SLOAD EQ ISZERO SWAP1 POP SWAP3 SWAP2 POP POP JUMP JUMPDEST PUSH0 DUP3 DUP3 MSTORE PUSH1 0x20 DUP3 ADD SWAP1 POP SWAP3 SWAP2 POP POP JUMP JUMPDEST PUSH0 PUSH0 DUP3 ADD MSTORE POP JUMP JUMPDEST PUSH0 PUSH2 0x269B PUSH1 0x4 DUP4 PUSH2 0x2677 JUMP JUMPDEST SWAP2 POP PUSH2 0x26A6 DUP3 PUSH2 0x2687 JUMP JUMPDEST PUSH1 0x20 DUP3 ADD SWAP1 POP SWAP2 SWAP1 POP JUMP JUMPDEST PUSH0 PUSH1 0x20 DUP3 ADD SWAP1 POP DUP2 DUP2 SUB PUSH0 DUP4 ADD MSTORE PUSH2 0x26C8 DUP2 PUSH2 0x268F JUMP JUMPDEST SWAP1 POP SWAP2 SWAP1 POP JUMP JUMPDEST DUP3 DUP2 DUP4 CALLDATACOPY PUSH0 DUP4 DUP4 ADD MSTORE POP POP POP JUMP JUMPDEST PUSH0 PUSH1 0x1F NOT PUSH1 0x1F DUP4 ADD AND SWAP1 POP SWAP2 SWAP1 POP JUMP JUMPDEST PUSH0 PUSH2 0x26F8 DUP4 DUP6 PUSH2 0x2677 JUMP JUMPDEST SWAP4 POP PUSH2 0x2705 DUP4 DUP6 DUP5 PUSH2 0x26CF JUMP JUMPDEST PUSH2 0x270E DUP4 PUSH2 0x26DD JUMP JUMPDEST DUP5 ADD SWAP1 POP SWAP4 SWAP3 POP POP POP JUMP JUMPDEST PUSH0 PUSH1 0x20 DUP3 ADD SWAP1 POP DUP2 DUP2 SUB PUSH0 DUP4 ADD MSTORE PUSH2 0x2732 DUP2 DUP5 DUP7 PUSH2 0x26ED JUMP JUMPDEST SWAP1 POP SWAP4 SWAP3 POP POP POP JUMP JUMPDEST PUSH0 PUSH1 0x40 MLOAD SWAP1 POP SWAP1 JUMP JUMPDEST PUSH0 PUSH0 REVERT JUMPDEST PUSH0 PUSH0 REVERT JUMPDEST PUSH0 PUSH32 0xFFFFFFFF00000000000000000000000000000000000000000000000000000000 DUP3 AND SWAP1 POP SWAP2 SWAP1 POP JUMP JUMPDEST PUSH2 0x2780 DUP2 PUSH2 0x274C JUMP JUMPDEST DUP2 EQ PUSH2 0x278A JUMPI PUSH0 PUSH0 REVERT JUMPDEST POP JUMP JUMPDEST PUSH0 DUP2 CALLDATALOAD SWAP1 POP PUSH2 0x279B DUP2 PUSH2 0x2777 JUMP JUMPDEST SWAP3 SWAP2 POP POP JUMP JUMPDEST PUSH0 PUSH1 0x20 DUP3 DUP5 SUB SLT ISZERO PUSH2 0x27B6 JUMPI PUSH2 0x27B5 PUSH2 0x2744 JUMP JUMPDEST JUMPDEST PUSH0 PUSH2 0x27C3 DUP5 DUP3 DUP6 ADD PUSH2 0x278D JUMP JUMPDEST SWAP2 POP POP SWAP3 SWAP2 POP POP JUMP JUMPDEST PUSH0 DUP2 ISZERO ISZERO SWAP1 POP SWAP2 SWAP1 POP JUMP JUMPDEST PUSH2 0x27E0 DUP2 PUSH2 0x27CC JUMP JUMPDEST DUP3 MSTORE POP POP JUMP JUMPDEST PUSH0 PUSH1 0x20 DUP3 ADD SWAP1 POP PUSH2 0x27F9 PUSH0 DUP4 ADD DUP5 PUSH2 0x27D7 JUMP JUMPDEST SWAP3 SWAP2 POP POP JUMP JUMPDEST PUSH0 DUP2 SWAP1 POP SWAP2 SWAP1 POP JUMP JUMPDEST PUSH2 0x2811 DUP2 PUSH2 0x27FF JUMP JUMPDEST DUP3 MSTORE POP POP JUMP JUMPDEST PUSH0 PUSH1 0x20 DUP3 ADD SWAP1 POP PUSH2 0x282A PUSH0 DUP4 ADD DUP5 PUSH2 0x2808 JUMP JUMPDEST SWAP3 SWAP2 POP POP JUMP JUMPDEST PUSH0 PUSH20 0xFFFFFFFFFFFFFFFFFFFFFFFFFFFFFFFFFFFFFFFF DUP3 AND SWAP1 POP SWAP2 SWAP1 POP JUMP JUMPDEST PUSH0 PUSH2 0x2859 DUP3 PUSH2 0x2830 JUMP JUMPDEST SWAP1 POP SWAP2 SWAP1 POP JUMP JUMPDEST PUSH2 0x2869 DUP2 PUSH2 0x284F JUMP JUMPDEST DUP2 EQ PUSH2 0x2873 JUMPI PUSH0 PUSH0 REVERT JUMPDEST POP JUMP JUMPDEST PUSH0 DUP2 CALLDATALOAD SWAP1 POP PUSH2 0x2884 DUP2 PUSH2 0x2860 JUMP JUMPDEST SWAP3 SWAP2 POP POP JUMP JUMPDEST PUSH2 0x2893 DUP2 PUSH2 0x27FF JUMP JUMPDEST DUP2 EQ PUSH2 0x289D JUMPI PUSH0 PUSH0 REVERT JUMPDEST POP JUMP JUMPDEST PUSH0 DUP2 CALLDATALOAD SWAP1 POP PUSH2 0x28AE DUP2 PUSH2 0x288A JUMP JUMPDEST SWAP3 SWAP2 POP POP JUMP JUMPDEST PUSH0 PUSH0 REVERT JUMPDEST PUSH0 PUSH0 REVERT JUMPDEST PUSH32 0x4E487B7100000000000000000000000000000000000000000000000000000000 PUSH0 MSTORE PUSH1 0x41 PUSH1 0x4 MSTORE PUSH1 0x24 PUSH0 REVERT JUMPDEST PUSH2 0x28F2 DUP3 PUSH2 0x26DD JUMP JUMPDEST DUP2 ADD DUP2 DUP2 LT PUSH8 0xFFFFFFFFFFFFFFFF DUP3 GT OR ISZERO PUSH2 0x2911 JUMPI PUSH2 0x2910 PUSH2 0x28BC JUMP JUMPDEST JUMPDEST DUP1 PUSH1 0x40 MSTORE POP POP POP JUMP JUMPDEST PUSH0 PUSH2 0x2923 PUSH2 0x273B JUMP JUMPDEST SWAP1 POP PUSH2 0x292F DUP3 DUP3 PUSH2 0x28E9 JUMP JUMPDEST SWAP2 SWAP1 POP JUMP JUMPDEST PUSH0 PUSH8 0xFFFFFFFFFFFFFFFF DUP3 GT ISZERO PUSH2 0x294E JUMPI PUSH2 0x294D PUSH2 0x28BC JUMP JUMPDEST JUMPDEST PUSH2 0x2957 DUP3 PUSH2 0x26DD JUMP JUMPDEST SWAP1 POP PUSH1 0x20 DUP2 ADD SWAP1 POP SWAP2 SWAP1 POP JUMP JUMPDEST PUSH0 PUSH2 0x2976 PUSH2 0x2971 DUP5 PUSH2 0x2934 JUMP JUMPDEST PUSH2 0x291A JUMP JUMPDEST SWAP1 POP DUP3 DUP2 MSTORE PUSH1 0x20 DUP2 ADD DUP5 DUP5 DUP5 ADD GT ISZERO PUSH2 0x2992 JUMPI PUSH2 0x2991 PUSH2 0x28B8 JUMP JUMPDEST JUMPDEST PUSH2 0x299D DUP5 DUP3 DUP6 PUSH2 0x26CF JUMP JUMPDEST POP SWAP4 SWAP3 POP POP POP JUMP JUMPDEST PUSH0 DUP3 PUSH1 0x1F DUP4 ADD SLT PUSH2 0x29B9 JUMPI PUSH2 0x29B8 PUSH2 0x28B4 JUMP JUMPDEST JUMPDEST DUP2 CALLDATALOAD PUSH2 0x29C9 DUP5 DUP3 PUSH1 0x20 DUP7 ADD PUSH2 0x2964 JUMP JUMPDEST SWAP2 POP POP SWAP3 SWAP2 POP POP JUMP JUMPDEST PUSH0 PUSH0 PUSH0 PUSH1 0x60 DUP5 DUP7 SUB SLT ISZERO PUSH2 0x29E9 JUMPI PUSH2 0x29E8 PUSH2 0x2744 JUMP JUMPDEST JUMPDEST PUSH0 PUSH2 0x29F6 DUP7 DUP3 DUP8 ADD PUSH2 0x2876 JUMP JUMPDEST SWAP4 POP POP PUSH1 0x20 PUSH2 0x2A07 DUP7 DUP3 DUP8 ADD PUSH2 0x28A0 JUMP JUMPDEST SWAP3 POP POP PUSH1 0x40 DUP5 ADD CALLDATALOAD PUSH8 0xFFFFFFFFFFFFFFFF DUP2 GT ISZERO PUSH2 0x2A28 JUMPI PUSH2 0x2A27 PUSH2 0x2748 JUMP JUMPDEST JUMPDEST PUSH2 0x2A34 DUP7 DUP3 DUP8 ADD PUSH2 0x29A5 JUMP JUMPDEST SWAP2 POP POP SWAP3 POP SWAP3 POP SWAP3 JUMP JUMPDEST PUSH0 PUSH8 0xFFFFFFFFFFFFFFFF DUP3 GT ISZERO PUSH2 0x2A58 JUMPI PUSH2 0x2A57 PUSH2 0x28BC JUMP JUMPDEST JUMPDEST PUSH1 0x20 DUP3 MUL SWAP1 POP PUSH1 0x20 DUP2 ADD SWAP1 POP SWAP2 SWAP1 POP JUMP JUMPDEST PUSH0 PUSH0 REVERT JUMPDEST PUSH0 PUSH2 0x2A7F PUSH2 0x2A7A DUP5 PUSH2 0x2A3E JUMP JUMPDEST PUSH2 0x291A JUMP JUMPDEST SWAP1 POP DUP1 DUP4 DUP3 MSTORE PUSH1 0x20 DUP3 ADD SWAP1 POP PUSH1 0x20 DUP5 MUL DUP4 ADD DUP6 DUP2 GT ISZERO PUSH2 0x2AA2 JUMPI PUSH2 0x2AA1 PUSH2 0x2A69 JUMP JUMPDEST JUMPDEST DUP4 JUMPDEST DUP2 DUP2 LT ISZERO PUSH2 0x2ACB JUMPI DUP1 PUSH2 0x2AB7 DUP9 DUP3 PUSH2 0x2876 JUMP JUMPDEST DUP5 MSTORE PUSH1 0x20 DUP5 ADD SWAP4 POP POP PUSH1 0x20 DUP2 ADD SWAP1 POP PUSH2 0x2AA4 JUMP JUMPDEST POP POP POP SWAP4 SWAP3 POP POP POP JUMP JUMPDEST PUSH0 DUP3 PUSH1 0x1F DUP4 ADD SLT PUSH2 0x2AE9 JUMPI PUSH2 0x2AE8 PUSH2 0x28B4 JUMP JUMPDEST JUMPDEST DUP2 CALLDATALOAD PUSH2 0x2AF9 DUP5 DUP3 PUSH1 0x20 DUP7 ADD PUSH2 0x2A6D JUMP JUMPDEST SWAP2 POP POP SWAP3 SWAP2 POP POP JUMP JUMPDEST PUSH0 PUSH8 0xFFFFFFFFFFFFFFFF DUP3 GT ISZERO PUSH2 0x2B1C JUMPI PUSH2 0x2B1B PUSH2 0x28BC JUMP JUMPDEST JUMPDEST PUSH1 0x20 DUP3 MUL SWAP1 POP PUSH1 0x20 DUP2 ADD SWAP1 POP SWAP2 SWAP1 POP JUMP JUMPDEST PUSH0 PUSH2 0x2B3F PUSH2 0x2B3A DUP5 PUSH2 0x2B02 JUMP JUMPDEST PUSH2 0x291A JUMP JUMPDEST SWAP1 POP DUP1 DUP4 DUP3 MSTORE PUSH1 0x20 DUP3 ADD SWAP1 POP PUSH1 0x20 DUP5 MUL DUP4 ADD DUP6 DUP2 GT ISZERO PUSH2 0x2B62 JUMPI PUSH2 0x2B61 PUSH2 0x2A69 JUMP JUMPDEST JUMPDEST DUP4 JUMPDEST DUP2 DUP2 LT ISZERO PUSH2 0x2B8B JUMPI DUP1 PUSH2 0x2B77 DUP9 DUP3 PUSH2 0x28A0 JUMP JUMPDEST DUP5 MSTORE PUSH1 0x20 DUP5 ADD SWAP4 POP POP PUSH1 0x20 DUP2 ADD SWAP1 POP PUSH2 0x2B64 JUMP JUMPDEST POP POP POP SWAP4 SWAP3 POP POP POP JUMP JUMPDEST PUSH0 DUP3 PUSH1 0x1F DUP4 ADD SLT PUSH2 0x2BA9 JUMPI PUSH2 0x2BA8 PUSH2 0x28B4 JUMP JUMPDEST JUMPDEST DUP2 CALLDATALOAD PUSH2 0x2BB9 DUP5 DUP3 PUSH1 0x20 DUP7 ADD PUSH2 0x2B2D JUMP JUMPDEST SWAP2 POP POP SWAP3 SWAP2 POP POP JUMP JUMPDEST PUSH0 PUSH8 0xFFFFFFFFFFFFFFFF DUP3 GT ISZERO PUSH2 0x2BDC JUMPI PUSH2 0x2BDB PUSH2 0x28BC JUMP JUMPDEST JUMPDEST PUSH1 0x20 DUP3 MUL SWAP1 POP PUSH1 0x20 DUP2 ADD SWAP1 POP SWAP2 SWAP1 POP JUMP JUMPDEST PUSH2 0x2BF6 DUP2 PUSH2 0x27CC JUMP JUMPDEST DUP2 EQ PUSH2 0x2C00 JUMPI PUSH0 PUSH0 REVERT JUMPDEST POP JUMP JUMPDEST PUSH0 DUP2 CALLDATALOAD SWAP1 POP PUSH2 0x2C11 DUP2 PUSH2 0x2BED JUMP JUMPDEST SWAP3 SWAP2 POP POP JUMP JUMPDEST PUSH0 PUSH2 0x2C29 PUSH2 0x2C24 DUP5 PUSH2 0x2BC2 JUMP JUMPDEST PUSH2 0x291A JUMP JUMPDEST SWAP1 POP DUP1 DUP4 DUP3 MSTORE PUSH1 0x20 DUP3 ADD SWAP1 POP PUSH1 0x20 DUP5 MUL DUP4 ADD DUP6 DUP2 GT ISZERO PUSH2 0x2C4C JUMPI PUSH2 0x2C4B PUSH2 0x2A69 JUMP JUMPDEST JUMPDEST DUP4 JUMPDEST DUP2 DUP2 LT ISZERO PUSH2 0x2C75 JUMPI DUP1 PUSH2 0x2C61 DUP9 DUP3 PUSH2 0x2C03 JUMP JUMPDEST DUP5 MSTORE PUSH1 0x20 DUP5 ADD SWAP4 POP POP PUSH1 0x20 DUP2 ADD SWAP1 POP PUSH2 0x2C4E JUMP JUMPDEST POP POP POP SWAP4 SWAP3 POP POP POP JUMP JUMPDEST PUSH0 DUP3 PUSH1 0x1F DUP4 ADD SLT PUSH2 0x2C93 JUMPI PUSH2 0x2C92 PUSH2 0x28B4 JUMP JUMPDEST JUMPDEST DUP2 CALLDATALOAD PUSH2 0x2CA3 DUP5 DUP3 PUSH1 0x20 DUP7 ADD PUSH2 0x2C17 JUMP JUMPDEST SWAP2 POP POP SWAP3 SWAP2 POP POP JUMP JUMPDEST PUSH0 PUSH8 0xFFFFFFFFFFFFFFFF DUP3 GT ISZERO PUSH2 0x2CC6 JUMPI PUSH2 0x2CC5 PUSH2 0x28BC JUMP JUMPDEST JUMPDEST PUSH1 0x20 DUP3 MUL SWAP1 POP PUSH1 0x20 DUP2 ADD SWAP1 POP SWAP2 SWAP1 POP JUMP JUMPDEST PUSH0 PUSH2 0x2CE9 PUSH2 0x2CE4 DUP5 PUSH2 0x2CAC JUMP JUMPDEST PUSH2 0x291A JUMP JUMPDEST SWAP1 POP DUP1 DUP4 DUP3 MSTORE PUSH1 0x20 DUP3 ADD SWAP1 POP PUSH1 0x20 DUP5 MUL DUP4 ADD DUP6 DUP2 GT ISZERO PUSH2 0x2D0C JUMPI PUSH2 0x2D0B PUSH2 0x2A69 JUMP JUMPDEST JUMPDEST DUP4 JUMPDEST DUP2 DUP2 LT ISZERO PUSH2 0x2D53 JUMPI DUP1 CALLDATALOAD PUSH8 0xFFFFFFFFFFFFFFFF DUP2 GT ISZERO PUSH2 0x2D31 JUMPI PUSH2 0x2D30 PUSH2 0x28B4 JUMP JUMPDEST JUMPDEST DUP1 DUP7 ADD PUSH2 0x2D3E DUP10 DUP3 PUSH2 0x29A5 JUMP JUMPDEST DUP6 MSTORE PUSH1 0x20 DUP6 ADD SWAP5 POP POP POP PUSH1 0x20 DUP2 ADD SWAP1 POP PUSH2 0x2D0E JUMP JUMPDEST POP POP POP SWAP4 SWAP3 POP POP POP JUMP JUMPDEST PUSH0 DUP3 PUSH1 0x1F DUP4 ADD SLT PUSH2 0x2D71 JUMPI PUSH2 0x2D70 PUSH2 0x28B4 JUMP JUMPDEST JUMPDEST DUP2 CALLDATALOAD PUSH2 0x2D81 DUP5 DUP3 PUSH1 0x20 DUP7 ADD PUSH2 0x2CD7 JUMP JUMPDEST SWAP2 POP POP SWAP3 SWAP2 POP POP JUMP JUMPDEST PUSH0 PUSH0 PUSH0 PUSH0 PUSH0 PUSH1 0xA0 DUP7 DUP9 SUB SLT ISZERO PUSH2 0x2DA3 JUMPI PUSH2 0x2DA2 PUSH2 0x2744 JUMP JUMPDEST JUMPDEST PUSH0 DUP7 ADD CALLDATALOAD PUSH8 0xFFFFFFFFFFFFFFFF DUP2 GT ISZERO PUSH2 0x2DC0 JUMPI PUSH2 0x2DBF PUSH2 0x2748 JUMP JUMPDEST JUMPDEST PUSH2 0x2DCC DUP9 DUP3 DUP10 ADD PUSH2 0x2AD5 JUMP JUMPDEST SWAP6 POP POP PUSH1 0x20 DUP7 ADD CALLDATALOAD PUSH8 0xFFFFFFFFFFFFFFFF DUP2 GT ISZERO PUSH2 0x2DED JUMPI PUSH2 0x2DEC PUSH2 0x2748 JUMP JUMPDEST JUMPDEST PUSH2 0x2DF9 DUP9 DUP3 DUP10 ADD PUSH2 0x2AD5 JUMP JUMPDEST SWAP5 POP POP PUSH1 0x40 DUP7 ADD CALLDATALOAD PUSH8 0xFFFFFFFFFFFFFFFF DUP2 GT ISZERO PUSH2 0x2E1A JUMPI PUSH2 0x2E19 PUSH2 0x2748 JUMP JUMPDEST JUMPDEST PUSH2 0x2E26 DUP9 DUP3 DUP10 ADD PUSH2 0x2B95 JUMP JUMPDEST SWAP4 POP POP PUSH1 0x60 DUP7 ADD CALLDATALOAD PUSH8 0xFFFFFFFFFFFFFFFF DUP2 GT ISZERO PUSH2 0x2E47 JUMPI PUSH2 0x2E46 PUSH2 0x2748 JUMP JUMPDEST JUMPDEST PUSH2 0x2E53 DUP9 DUP3 DUP10 ADD PUSH2 0x2C7F JUMP JUMPDEST SWAP3 POP POP PUSH1 0x80 DUP7 ADD CALLDATALOAD PUSH8 0xFFFFFFFFFFFFFFFF DUP2 GT ISZERO PUSH2 0x2E74 JUMPI PUSH2 0x2E73 PUSH2 0x2748 JUMP JUMPDEST JUMPDEST PUSH2 0x2E80 DUP9 DUP3 DUP10 ADD PUSH2 0x2D5D JUMP JUMPDEST SWAP2 POP POP SWAP3 SWAP6 POP SWAP3 SWAP6 SWAP1 SWAP4 POP JUMP JUMPDEST PUSH0 PUSH0 PUSH0 PUSH0 PUSH1 0x80 DUP6 DUP8 SUB SLT ISZERO PUSH2 0x2EA5 JUMPI PUSH2 0x2EA4 PUSH2 0x2744 JUMP JUMPDEST JUMPDEST PUSH0 PUSH2 0x2EB2 DUP8 DUP3 DUP9 ADD PUSH2 0x2876 JUMP JUMPDEST SWAP5 POP POP PUSH1 0x20 PUSH2 0x2EC3 DUP8 DUP3 DUP9 ADD PUSH2 0x2876 JUMP JUMPDEST SWAP4 POP POP PUSH1 0x40 PUSH2 0x2ED4 DUP8 DUP3 DUP9 ADD PUSH2 0x2C03 JUMP JUMPDEST SWAP3 POP POP PUSH1 0x60 DUP6 ADD CALLDATALOAD PUSH8 0xFFFFFFFFFFFFFFFF DUP2 GT ISZERO PUSH2 0x2EF5 JUMPI PUSH2 0x2EF4 PUSH2 0x2748 JUMP JUMPDEST JUMPDEST PUSH2 0x2F01 DUP8 DUP3 DUP9 ADD PUSH2 0x29A5 JUMP JUMPDEST SWAP2 POP POP SWAP3 SWAP6 SWAP2 SWAP5 POP SWAP3 POP JUMP JUMPDEST PUSH0 PUSH1 0xFF DUP3 AND SWAP1 POP SWAP2 SWAP1 POP JUMP JUMPDEST PUSH2 0x2F22 DUP2 PUSH2 0x2F0D JUMP JUMPDEST DUP3 MSTORE POP POP JUMP JUMPDEST PUSH0 PUSH1 0x20 DUP3 ADD SWAP1 POP PUSH2 0x2F3B PUSH0 DUP4 ADD DUP5 PUSH2 0x2F19 JUMP JUMPDEST SWAP3 SWAP2 POP POP JUMP JUMPDEST PUSH0 DUP2 SWAP1 POP SWAP2 SWAP1 POP JUMP JUMPDEST PUSH2 0x2F53 DUP2 PUSH2 0x2F41 JUMP JUMPDEST DUP2 EQ PUSH2 0x2F5D JUMPI PUSH0 PUSH0 REVERT JUMPDEST POP JUMP JUMPDEST PUSH0 DUP2 CALLDATALOAD SWAP1 POP PUSH2 0x2F6E DUP2 PUSH2 0x2F4A JUMP JUMPDEST SWAP3 SWAP2 POP POP JUMP JUMPDEST PUSH0 PUSH1 0x20 DUP3 DUP5 SUB SLT ISZERO PUSH2 0x2F89 JUMPI PUSH2 0x2F88 PUSH2 0x2744 JUMP JUMPDEST JUMPDEST PUSH0 PUSH2 0x2F96 DUP5 DUP3 DUP6 ADD PUSH2 0x2F60 JUMP JUMPDEST SWAP2 POP POP SWAP3 SWAP2 POP POP JUMP JUMPDEST PUSH0 DUP2 MLOAD SWAP1 POP SWAP2 SWAP1 POP JUMP JUMPDEST DUP3 DUP2 DUP4 MCOPY PUSH0 DUP4 DUP4 ADD MSTORE POP POP POP JUMP JUMPDEST PUSH0 PUSH2 0x2FC1 DUP3 PUSH2 0x2F9F JUMP JUMPDEST PUSH2 0x2FCB DUP2 DUP6 PUSH2 0x2677 JUMP JUMPDEST SWAP4 POP PUSH2 0x2FDB DUP2 DUP6 PUSH1 0x20 DUP7 ADD PUSH2 0x2FA9 JUMP JUMPDEST PUSH2 0x2FE4 DUP2 PUSH2 0x26DD JUMP JUMPDEST DUP5 ADD SWAP2 POP POP SWAP3 SWAP2 POP POP JUMP JUMPDEST PUSH0 PUSH1 0x20 DUP3 ADD SWAP1 POP DUP2 DUP2 SUB PUSH0 DUP4 ADD MSTORE PUSH2 0x3007 DUP2 DUP5 PUSH2 0x2FB7 JUMP JUMPDEST SWAP1 POP SWAP3 SWAP2 POP POP JUMP JUMPDEST PUSH0 PUSH0 PUSH1 0x40 DUP4 DUP6 SUB SLT ISZERO PUSH2 0x3025 JUMPI PUSH2 0x3024 PUSH2 0x2744 JUMP JUMPDEST JUMPDEST PUSH0 PUSH2 0x3032 DUP6 DUP3 DUP7 ADD PUSH2 0x2876 JUMP JUMPDEST SWAP3 POP POP PUSH1 0x20 PUSH2 0x3043 DUP6 DUP3 DUP7 ADD PUSH2 0x2876 JUMP JUMPDEST SWAP2 POP POP SWAP3 POP SWAP3 SWAP1 POP JUMP JUMPDEST PUSH0 PUSH0 REVERT JUMPDEST PUSH0 PUSH0 DUP4 PUSH1 0x1F DUP5 ADD SLT PUSH2 0x3066 JUMPI PUSH2 0x3065 PUSH2 0x28B4 JUMP JUMPDEST JUMPDEST DUP3 CALLDATALOAD SWAP1 POP PUSH8 0xFFFFFFFFFFFFFFFF DUP2 GT ISZERO PUSH2 0x3083 JUMPI PUSH2 0x3082 PUSH2 0x304D JUMP JUMPDEST JUMPDEST PUSH1 0x20 DUP4 ADD SWAP2 POP DUP4 PUSH1 0x20 DUP3 MUL DUP4 ADD GT ISZERO PUSH2 0x309F JUMPI PUSH2 0x309E PUSH2 0x2A69 JUMP JUMPDEST JUMPDEST SWAP3 POP SWAP3 SWAP1 POP JUMP JUMPDEST PUSH0 PUSH0 PUSH1 0x20 DUP4 DUP6 SUB SLT ISZERO PUSH2 0x30BC JUMPI PUSH2 0x30BB PUSH2 0x2744 JUMP JUMPDEST JUMPDEST PUSH0 DUP4 ADD CALLDATALOAD PUSH8 0xFFFFFFFFFFFFFFFF DUP2 GT ISZERO PUSH2 0x30D9 JUMPI PUSH2 0x30D8 PUSH2 0x2748 JUMP JUMPDEST JUMPDEST PUSH2 0x30E5 DUP6 DUP3 DUP7 ADD PUSH2 0x3051 JUMP JUMPDEST SWAP3 POP SWAP3 POP POP SWAP3 POP SWAP3 SWAP1 POP JUMP JUMPDEST PUSH0 DUP2 MLOAD SWAP1 POP SWAP2 SWAP1 POP JUMP JUMPDEST PUSH0 DUP3 DUP3 MSTORE PUSH1 0x20 DUP3 ADD SWAP1 POP SWAP3 SWAP2 POP POP JUMP JUMPDEST PUSH0 DUP2 SWAP1 POP PUSH1 0x20 DUP3 ADD SWAP1 POP SWAP2 SWAP1 POP JUMP JUMPDEST PUSH0 DUP3 DUP3 MSTORE PUSH1 0x20 DUP3 ADD SWAP1 POP SWAP3 SWAP2 POP POP JUMP JUMPDEST PUSH0 PUSH2 0x3134 DUP3 PUSH2 0x2F9F JUMP JUMPDEST PUSH2 0x313E DUP2 DUP6 PUSH2 0x311A JUMP JUMPDEST SWAP4 POP PUSH2 0x314E DUP2 DUP6 PUSH1 0x20 DUP7 ADD PUSH2 0x2FA9 JUMP JUMPDEST PUSH2 0x3157 DUP2 PUSH2 0x26DD JUMP JUMPDEST DUP5 ADD SWAP2 POP POP SWAP3 SWAP2 POP POP JUMP JUMPDEST PUSH0 PUSH2 0x316D DUP4 DUP4 PUSH2 0x312A JUMP JUMPDEST SWAP1 POP SWAP3 SWAP2 POP POP JUMP JUMPDEST PUSH0 PUSH1 0x20 DUP3 ADD SWAP1 POP SWAP2 SWAP1 POP JUMP JUMPDEST PUSH0 PUSH2 0x318B DUP3 PUSH2 0x30F1 JUMP JUMPDEST PUSH2 0x3195 DUP2 DUP6 PUSH2 0x30FB JUMP JUMPDEST SWAP4 POP DUP4 PUSH1 0x20 DUP3 MUL DUP6 ADD PUSH2 0x31A7 DUP6 PUSH2 0x310B JUMP JUMPDEST DUP1 PUSH0 JUMPDEST DUP6 DUP2 LT ISZERO PUSH2 0x31E2 JUMPI DUP5 DUP5 SUB DUP10 MSTORE DUP2 MLOAD PUSH2 0x31C3 DUP6 DUP3 PUSH2 0x3162 JUMP JUMPDEST SWAP5 POP PUSH2 0x31CE DUP4 PUSH2 0x3175 JUMP JUMPDEST SWAP3 POP PUSH1 0x20 DUP11 ADD SWAP10 POP POP PUSH1 0x1 DUP2 ADD SWAP1 POP PUSH2 0x31AA JUMP JUMPDEST POP DUP3 SWAP8 POP DUP8 SWAP6 POP POP POP POP POP POP SWAP3 SWAP2 POP POP JUMP JUMPDEST PUSH0 PUSH1 0x20 DUP3 ADD SWAP1 POP DUP2 DUP2 SUB PUSH0 DUP4 ADD MSTORE PUSH2 0x320C DUP2 DUP5 PUSH2 0x3181 JUMP JUMPDEST SWAP1 POP SWAP3 SWAP2 POP POP JUMP JUMPDEST PUSH0 PUSH1 0x20 DUP3 DUP5 SUB SLT ISZERO PUSH2 0x3229 JUMPI PUSH2 0x3228 PUSH2 0x2744 JUMP JUMPDEST JUMPDEST PUSH0 PUSH2 0x3236 DUP5 DUP3 DUP6 ADD PUSH2 0x2876 JUMP JUMPDEST SWAP2 POP POP SWAP3 SWAP2 POP POP JUMP JUMPDEST PUSH0 PUSH0 PUSH0 PUSH0 PUSH1 0x80 DUP6 DUP8 SUB SLT ISZERO PUSH2 0x3257 JUMPI PUSH2 0x3256 PUSH2 0x2744 JUMP JUMPDEST JUMPDEST PUSH0 PUSH2 0x3264 DUP8 DUP3 DUP9 ADD PUSH2 0x2876 JUMP JUMPDEST SWAP5 POP POP PUSH1 0x20 PUSH2 0x3275 DUP8 DUP3 DUP9 ADD PUSH2 0x28A0 JUMP JUMPDEST SWAP4 POP POP PUSH1 0x40 PUSH2 0x3286 DUP8 DUP3 DUP9 ADD PUSH2 0x2C03 JUMP JUMPDEST SWAP3 POP POP PUSH1 0x60 DUP6 ADD CALLDATALOAD PUSH8 0xFFFFFFFFFFFFFFFF DUP2 GT ISZERO PUSH2 0x32A7 JUMPI PUSH2 0x32A6 PUSH2 0x2748 JUMP JUMPDEST JUMPDEST PUSH2 0x32B3 DUP8 DUP3 DUP9 ADD PUSH2 0x29A5 JUMP JUMPDEST SWAP2 POP POP SWAP3 SWAP6 SWAP2 SWAP5 POP SWAP3 POP JUMP JUMPDEST PUSH0 PUSH0 PUSH0 PUSH0 PUSH0 PUSH1 0xA0 DUP7 DUP9 SUB SLT ISZERO PUSH2 0x32D8 JUMPI PUSH2 0x32D7 PUSH2 0x2744 JUMP JUMPDEST JUMPDEST PUSH0 PUSH2 0x32E5 DUP9 DUP3 DUP10 ADD PUSH2 0x2876 JUMP JUMPDEST SWAP6 POP POP PUSH1 0x20 PUSH2 0x32F6 DUP9 DUP3 DUP10 ADD PUSH2 0x2876 JUMP JUMPDEST SWAP5 POP POP PUSH1 0x40 PUSH2 0x3307 DUP9 DUP3 DUP10 ADD PUSH2 0x28A0 JUMP JUMPDEST SWAP4 POP POP PUSH1 0x60 PUSH2 0x3318 DUP9 DUP3 DUP10 ADD PUSH2 0x2C03 JUMP JUMPDEST SWAP3 POP POP PUSH1 0x80 DUP7 ADD CALLDATALOAD PUSH8 0xFFFFFFFFFFFFFFFF DUP2 GT ISZERO PUSH2 0x3339 JUMPI PUSH2 0x3338 PUSH2 0x2748 JUMP JUMPDEST JUMPDEST PUSH2 0x3345 DUP9 DUP3 DUP10 ADD PUSH2 0x29A5 JUMP JUMPDEST SWAP2 POP POP SWAP3 SWAP6 POP SWAP3 SWAP6 SWAP1 SWAP4 POP JUMP JUMPDEST PUSH0 PUSH0 PUSH0 PUSH0 PUSH1 0x80 DUP6 DUP8 SUB SLT ISZERO PUSH2 0x336A JUMPI PUSH2 0x3369 PUSH2 0x2744 JUMP JUMPDEST JUMPDEST PUSH0 PUSH2 0x3377 DUP8 DUP3 DUP9 ADD PUSH2 0x2876 JUMP JUMPDEST SWAP5 POP POP PUSH1 0x20 PUSH2 0x3388 DUP8 DUP3 DUP9 ADD PUSH2 0x2876 JUMP JUMPDEST SWAP4 POP POP PUSH1 0x40 PUSH2 0x3399 DUP8 DUP3 DUP9 ADD PUSH2 0x28A0 JUMP JUMPDEST SWAP3 POP POP PUSH1 0x60 DUP6 ADD CALLDATALOAD PUSH8 0xFFFFFFFFFFFFFFFF DUP2 GT ISZERO PUSH2 0x33BA JUMPI PUSH2 0x33B9 PUSH2 0x2748 JUMP JUMPDEST JUMPDEST PUSH2 0x33C6 DUP8 DUP3 DUP9 ADD PUSH2 0x29A5 JUMP JUMPDEST SWAP2 POP POP SWAP3 SWAP6 SWAP2 SWAP5 POP SWAP3 POP JUMP JUMPDEST PUSH0 PUSH0 PUSH1 0x40 DUP4 DUP6 SUB SLT ISZERO PUSH2 0x33E8 JUMPI PUSH2 0x33E7 PUSH2 0x2744 JUMP JUMPDEST JUMPDEST PUSH0 PUSH2 0x33F5 DUP6 DUP3 DUP7 ADD PUSH2 0x2F60 JUMP JUMPDEST SWAP3 POP POP PUSH1 0x20 DUP4 ADD CALLDATALOAD PUSH8 0xFFFFFFFFFFFFFFFF DUP2 GT ISZERO PUSH2 0x3416 JUMPI PUSH2 0x3415 PUSH2 0x2748 JUMP JUMPDEST JUMPDEST PUSH2 0x3422 DUP6 DUP3 DUP7 ADD PUSH2 0x29A5 JUMP JUMPDEST SWAP2 POP POP SWAP3 POP SWAP3 SWAP1 POP JUMP JUMPDEST PUSH2 0x3435 DUP2 PUSH2 0x284F JUMP JUMPDEST DUP3 MSTORE POP POP JUMP JUMPDEST PUSH0 PUSH1 0x20 DUP3 ADD SWAP1 POP PUSH2 0x344E PUSH0 DUP4 ADD DUP5 PUSH2 0x342C JUMP JUMPDEST SWAP3 SWAP2 POP POP JUMP JUMPDEST PUSH0 PUSH8 0xFFFFFFFFFFFFFFFF DUP3 GT ISZERO PUSH2 0x346E JUMPI PUSH2 0x346D PUSH2 0x28BC JUMP JUMPDEST JUMPDEST PUSH1 0x20 DUP3 MUL SWAP1 POP PUSH1 0x20 DUP2 ADD SWAP1 POP SWAP2 SWAP1 POP JUMP JUMPDEST PUSH0 PUSH2 0x3491 PUSH2 0x348C DUP5 PUSH2 0x3454 JUMP JUMPDEST PUSH2 0x291A JUMP JUMPDEST SWAP1 POP DUP1 DUP4 DUP3 MSTORE PUSH1 0x20 DUP3 ADD SWAP1 POP PUSH1 0x20 DUP5 MUL DUP4 ADD DUP6 DUP2 GT ISZERO PUSH2 0x34B4 JUMPI PUSH2 0x34B3 PUSH2 0x2A69 JUMP JUMPDEST JUMPDEST DUP4 JUMPDEST DUP2 DUP2 LT ISZERO PUSH2 0x34DD JUMPI DUP1 PUSH2 0x34C9 DUP9 DUP3 PUSH2 0x2F60 JUMP JUMPDEST DUP5 MSTORE PUSH1 0x20 DUP5 ADD SWAP4 POP POP PUSH1 0x20 DUP2 ADD SWAP1 POP PUSH2 0x34B6 JUMP JUMPDEST POP POP POP SWAP4 SWAP3 POP POP POP JUMP JUMPDEST PUSH0 DUP3 PUSH1 0x1F DUP4 ADD SLT PUSH2 0x34FB JUMPI PUSH2 0x34FA PUSH2 0x28B4 JUMP JUMPDEST JUMPDEST DUP2 CALLDATALOAD PUSH2 0x350B DUP5 DUP3 PUSH1 0x20 DUP7 ADD PUSH2 0x347F JUMP JUMPDEST SWAP2 POP POP SWAP3 SWAP2 POP POP JUMP JUMPDEST PUSH0 PUSH0 PUSH1 0x40 DUP4 DUP6 SUB SLT ISZERO PUSH2 0x352A JUMPI PUSH2 0x3529 PUSH2 0x2744 JUMP JUMPDEST JUMPDEST PUSH0 DUP4 ADD CALLDATALOAD PUSH8 0xFFFFFFFFFFFFFFFF DUP2 GT ISZERO PUSH2 0x3547 JUMPI PUSH2 0x3546 PUSH2 0x2748 JUMP JUMPDEST JUMPDEST PUSH2 0x3553 DUP6 DUP3 DUP7 ADD PUSH2 0x34E7 JUMP JUMPDEST SWAP3 POP POP PUSH1 0x20 DUP4 ADD CALLDATALOAD PUSH8 0xFFFFFFFFFFFFFFFF DUP2 GT ISZERO PUSH2 0x3574 JUMPI PUSH2 0x3573 PUSH2 0x2748 JUMP JUMPDEST JUMPDEST PUSH2 0x3580 DUP6 DUP3 DUP7 ADD PUSH2 0x2D5D JUMP JUMPDEST SWAP2 POP POP SWAP3 POP SWAP3 SWAP1 POP JUMP JUMPDEST PUSH0 DUP2 MLOAD SWAP1 POP SWAP2 SWAP1 POP JUMP JUMPDEST PUSH0 DUP3 DUP3 MSTORE PUSH1 0x20 DUP3 ADD SWAP1 POP SWAP3 SWAP2 POP POP JUMP JUMPDEST PUSH0 DUP2 SWAP1 POP PUSH1 0x20 DUP3 ADD SWAP1 POP SWAP2 SWAP1 POP JUMP JUMPDEST PUSH2 0x35BC DUP2 PUSH2 0x284F JUMP JUMPDEST DUP3 MSTORE POP POP JUMP JUMPDEST PUSH0 PUSH2 0x35CD DUP4 DUP4 PUSH2 0x35B3 JUMP JUMPDEST PUSH1 0x20 DUP4 ADD SWAP1 POP SWAP3 SWAP2 POP POP JUMP JUMPDEST PUSH0 PUSH1 0x20 DUP3 ADD SWAP1 POP SWAP2 SWAP1 POP JUMP JUMPDEST PUSH0 PUSH2 0x35EF DUP3 PUSH2 0x358A JUMP JUMPDEST PUSH2 0x35F9 DUP2 DUP6 PUSH2 0x3594 JUMP JUMPDEST SWAP4 POP PUSH2 0x3604 DUP4 PUSH2 0x35A4 JUMP JUMPDEST DUP1 PUSH0 JUMPDEST DUP4 DUP2 LT ISZERO PUSH2 0x3634 JUMPI DUP2 MLOAD PUSH2 0x361B DUP9 DUP3 PUSH2 0x35C2 JUMP JUMPDEST SWAP8 POP PUSH2 0x3626 DUP4 PUSH2 0x35D9 JUMP JUMPDEST SWAP3 POP POP PUSH1 0x1 DUP2 ADD SWAP1 POP PUSH2 0x3607 JUMP JUMPDEST POP DUP6 SWAP4 POP POP POP POP SWAP3 SWAP2 POP POP JUMP JUMPDEST PUSH0 PUSH1 0x20 DUP3 ADD SWAP1 POP DUP2 DUP2 SUB PUSH0 DUP4 ADD MSTORE PUSH2 0x3659 DUP2 DUP5 PUSH2 0x35E5 JUMP JUMPDEST SWAP1 POP SWAP3 SWAP2 POP POP JUMP JUMPDEST PUSH0 PUSH1 0x20 DUP3 DUP5 SUB SLT ISZERO PUSH2 0x3676 JUMPI PUSH2 0x3675 PUSH2 0x2744 JUMP JUMPDEST JUMPDEST PUSH0 DUP3 ADD CALLDATALOAD PUSH8 0xFFFFFFFFFFFFFFFF DUP2 GT ISZERO PUSH2 0x3693 JUMPI PUSH2 0x3692 PUSH2 0x2748 JUMP JUMPDEST JUMPDEST PUSH2 0x369F DUP5 DUP3 DUP6 ADD PUSH2 0x34E7 JUMP JUMPDEST SWAP2 POP POP SWAP3 SWAP2 POP POP JUMP JUMPDEST PUSH2 0x36B1 DUP2 PUSH2 0x274C JUMP JUMPDEST DUP3 MSTORE POP POP JUMP JUMPDEST PUSH0 PUSH1 0x20 DUP3 ADD SWAP1 POP PUSH2 0x36CA PUSH0 DUP4 ADD DUP5 PUSH2 0x36A8 JUMP JUMPDEST SWAP3 SWAP2 POP POP JUMP JUMPDEST PUSH0 DUP2 SWAP1 POP SWAP3 SWAP2 POP POP JUMP JUMPDEST PUSH0 PUSH2 0x36E5 DUP4 DUP6 PUSH2 0x36D0 JUMP JUMPDEST SWAP4 POP PUSH2 0x36F2 DUP4 DUP6 DUP5 PUSH2 0x26CF JUMP JUMPDEST DUP3 DUP5 ADD SWAP1 POP SWAP4 SWAP3 POP POP POP JUMP JUMPDEST PUSH0 DUP2 PUSH1 0x60 SHL SWAP1 POP SWAP2 SWAP1 POP JUMP JUMPDEST PUSH0 PUSH2 0x3714 DUP3 PUSH2 0x36FE JUMP JUMPDEST SWAP1 POP SWAP2 SWAP1 POP JUMP JUMPDEST PUSH0 PUSH2 0x3725 DUP3 PUSH2 0x370A JUMP JUMPDEST SWAP1 POP SWAP2 SWAP1 POP JUMP JUMPDEST PUSH2 0x373D PUSH2 0x3738 DUP3 PUSH2 0x284F JUMP JUMPDEST PUSH2 0x371B JUMP JUMPDEST DUP3 MSTORE POP POP JUMP JUMPDEST PUSH0 DUP2 SWAP1 POP SWAP2 SWAP1 POP JUMP JUMPDEST PUSH2 0x375D PUSH2 0x3758 DUP3 PUSH2 0x27FF JUMP JUMPDEST PUSH2 0x3743 JUMP JUMPDEST DUP3 MSTORE POP POP JUMP JUMPDEST PUSH0 PUSH2 0x376F DUP3 DUP7 DUP9 PUSH2 0x36DA JUMP JUMPDEST SWAP2 POP PUSH2 0x377B DUP3 DUP6 PUSH2 0x372C JUMP JUMPDEST PUSH1 0x14 DUP3 ADD SWAP2 POP PUSH2 0x378B DUP3 DUP5 PUSH2 0x374C JUMP JUMPDEST PUSH1 0x20 DUP3 ADD SWAP2 POP DUP2 SWAP1 POP SWAP6 SWAP5 POP POP POP POP POP JUMP JUMPDEST PUSH0 PUSH2 0x37A7 DUP3 PUSH2 0x2F9F JUMP JUMPDEST PUSH2 0x37B1 DUP2 DUP6 PUSH2 0x36D0 JUMP JUMPDEST SWAP4 POP PUSH2 0x37C1 DUP2 DUP6 PUSH1 0x20 DUP7 ADD PUSH2 0x2FA9 JUMP JUMPDEST DUP1 DUP5 ADD SWAP2 POP POP SWAP3 SWAP2 POP POP JUMP JUMPDEST PUSH0 PUSH2 0x37D8 DUP3 DUP5 PUSH2 0x379D JUMP JUMPDEST SWAP2 POP DUP2 SWAP1 POP SWAP3 SWAP2 POP POP JUMP JUMPDEST PUSH32 0x4E487B7100000000000000000000000000000000000000000000000000000000 PUSH0 MSTORE PUSH1 0x11 PUSH1 0x4 MSTORE PUSH1 0x24 PUSH0 REVERT JUMPDEST PUSH0 PUSH2 0x381A DUP3 PUSH2 0x27FF JUMP JUMPDEST SWAP2 POP PUSH2 0x3825 DUP4 PUSH2 0x27FF JUMP JUMPDEST SWAP3 POP DUP3 DUP3 ADD SWAP1 POP DUP1 DUP3 GT ISZERO PUSH2 0x383D JUMPI PUSH2 0x383C PUSH2 0x37E3 JUMP JUMPDEST JUMPDEST SWAP3 SWAP2 POP POP JUMP JUMPDEST PUSH0 PUSH1 0x60 DUP3 ADD SWAP1 POP PUSH2 0x3856 PUSH0 DUP4 ADD DUP7 PUSH2 0x342C JUMP JUMPDEST PUSH2 0x3863 PUSH1 0x20 DUP4 ADD DUP6 PUSH2 0x2808 JUMP JUMPDEST DUP2 DUP2 SUB PUSH1 0x40 DUP4 ADD MSTORE PUSH2 0x3875 DUP2 DUP5 PUSH2 0x2FB7 JUMP JUMPDEST SWAP1 POP SWAP5 SWAP4 POP POP POP POP JUMP JUMPDEST PUSH32 0x4E487B7100000000000000000000000000000000000000000000000000000000 PUSH0 MSTORE PUSH1 0x32 PUSH1 0x4 MSTORE PUSH1 0x24 PUSH0 REVERT JUMPDEST PUSH0 PUSH1 0x60 DUP3 ADD SWAP1 POP PUSH2 0x38BF PUSH0 DUP4 ADD DUP7 PUSH2 0x342C JUMP JUMPDEST PUSH2 0x38CC PUSH1 0x20 DUP4 ADD DUP6 PUSH2 0x342C JUMP JUMPDEST PUSH2 0x38D9 PUSH1 0x40 DUP4 ADD DUP5 PUSH2 0x342C JUMP JUMPDEST SWAP5 SWAP4 POP POP POP POP JUMP JUMPDEST PUSH0 DUP2 SWAP1 POP SWAP2 SWAP1 POP JUMP JUMPDEST PUSH0 DUP2 SWAP1 POP SWAP2 SWAP1 POP JUMP JUMPDEST PUSH0 PUSH2 0x390D PUSH2 0x3908 PUSH2 0x3903 DUP5 PUSH2 0x38E1 JUMP JUMPDEST PUSH2 0x38EA JUMP JUMPDEST PUSH2 0x2F0D JUMP JUMPDEST SWAP1 POP SWAP2 SWAP1 POP JUMP JUMPDEST PUSH2 0x391D DUP2 PUSH2 0x38F3 JUMP JUMPDEST DUP3 MSTORE POP POP JUMP JUMPDEST PUSH0 PUSH1 0x60 DUP3 ADD SWAP1 POP PUSH2 0x3936 PUSH0 DUP4 ADD DUP7 PUSH2 0x342C JUMP JUMPDEST PUSH2 0x3943 PUSH1 0x20 DUP4 ADD DUP6 PUSH2 0x3914 JUMP JUMPDEST DUP2 DUP2 SUB PUSH1 0x40 DUP4 ADD MSTORE PUSH2 0x3955 DUP2 DUP5 PUSH2 0x2FB7 JUMP JUMPDEST SWAP1 POP SWAP5 SWAP4 POP POP POP POP JUMP JUMPDEST PUSH0 PUSH0 REVERT JUMPDEST PUSH0 PUSH0 REVERT JUMPDEST PUSH0 PUSH0 REVERT JUMPDEST PUSH0 PUSH0 DUP4 CALLDATALOAD PUSH1 0x1 PUSH1 0x20 SUB DUP5 CALLDATASIZE SUB SUB DUP2 SLT PUSH2 0x3987 JUMPI PUSH2 0x3986 PUSH2 0x395F JUMP JUMPDEST JUMPDEST DUP1 DUP5 ADD SWAP3 POP DUP3 CALLDATALOAD SWAP2 POP PUSH8 0xFFFFFFFFFFFFFFFF DUP3 GT ISZERO PUSH2 0x39A9 JUMPI PUSH2 0x39A8 PUSH2 0x3963 JUMP JUMPDEST JUMPDEST PUSH1 0x20 DUP4 ADD SWAP3 POP PUSH1 0x1 DUP3 MUL CALLDATASIZE SUB DUP4 SGT ISZERO PUSH2 0x39C5 JUMPI PUSH2 0x39C4 PUSH2 0x3967 JUMP JUMPDEST JUMPDEST POP SWAP3 POP SWAP3 SWAP1 POP JUMP JUMPDEST PUSH0 PUSH2 0x39D9 DUP3 DUP5 DUP7 PUSH2 0x36DA JUMP JUMPDEST SWAP2 POP DUP2 SWAP1 POP SWAP4 SWAP3 POP POP POP JUMP JUMPDEST PUSH0 DUP3 DUP3 MSTORE PUSH1 0x20 DUP3 ADD SWAP1 POP SWAP3 SWAP2 POP POP JUMP JUMPDEST PUSH32 0x4F776E61626C653A206E6577206F776E657220697320746865207A65726F2061 PUSH0 DUP3 ADD MSTORE PUSH32 0x6464726573730000000000000000000000000000000000000000000000000000 PUSH1 0x20 DUP3 ADD MSTORE POP JUMP JUMPDEST PUSH0 PUSH2 0x3A4F PUSH1 0x26 DUP4 PUSH2 0x39E5 JUMP JUMPDEST SWAP2 POP PUSH2 0x3A5A DUP3 PUSH2 0x39F5 JUMP JUMPDEST PUSH1 0x40 DUP3 ADD SWAP1 POP SWAP2 SWAP1 POP JUMP JUMPDEST PUSH0 PUSH1 0x20 DUP3 ADD SWAP1 POP DUP2 DUP2 SUB PUSH0 DUP4 ADD MSTORE PUSH2 0x3A7C DUP2 PUSH2 0x3A43 JUMP JUMPDEST SWAP1 POP SWAP2 SWAP1 POP JUMP JUMPDEST PUSH0 DUP2 SWAP1 POP PUSH1 0x20 DUP3 ADD SWAP1 POP SWAP2 SWAP1 POP JUMP JUMPDEST PUSH0 PUSH32 0xFFFFFFFFFFFFFFFFFFFFFFFFFFFFFFFFFFFFFFFF000000000000000000000000 DUP3 AND SWAP1 POP SWAP2 SWAP1 POP JUMP JUMPDEST PUSH0 PUSH2 0x3AC8 DUP3 MLOAD PUSH2 0x3A92 JUMP JUMPDEST DUP1 SWAP2 POP POP SWAP2 SWAP1 POP JUMP JUMPDEST PUSH0 DUP3 DUP3 SHL SWAP1 POP SWAP3 SWAP2 POP POP JUMP JUMPDEST PUSH0 PUSH2 0x3AE7 DUP3 PUSH2 0x2F9F JUMP JUMPDEST DUP3 PUSH2 0x3AF1 DUP5 PUSH2 0x3A83 JUMP JUMPDEST SWAP1 POP PUSH2 0x3AFC DUP2 PUSH2 0x3ABD JUMP JUMPDEST SWAP3 POP PUSH1 0x14 DUP3 LT ISZERO PUSH2 0x3B3C JUMPI PUSH2 0x3B37 PUSH32 0xFFFFFFFFFFFFFFFFFFFFFFFFFFFFFFFFFFFFFFFF000000000000000000000000 DUP4 PUSH1 0x14 SUB PUSH1 0x8 MUL PUSH2 0x3AD1 JUMP JUMPDEST DUP4 AND SWAP3 POP JUMPDEST POP POP SWAP2 SWAP1 POP JUMP JUMPDEST PUSH32 0x4E487B7100000000000000000000000000000000000000000000000000000000 PUSH0 MSTORE PUSH1 0x22 PUSH1 0x4 MSTORE PUSH1 0x24 PUSH0 REVERT JUMPDEST PUSH0 PUSH1 0x2 DUP3 DIV SWAP1 POP PUSH1 0x1 DUP3 AND DUP1 PUSH2 0x3B87 JUMPI PUSH1 0x7F DUP3 AND SWAP2 POP JUMPDEST PUSH1 0x20 DUP3 LT DUP2 SUB PUSH2 0x3B9A JUMPI PUSH2 0x3B99 PUSH2 0x3B43 JUMP JUMPDEST JUMPDEST POP SWAP2 SWAP1 POP JUMP JUMPDEST PUSH32 0x4F776E61626C653A2063616C6C6572206973206E6F7420746865206F776E6572 PUSH0 DUP3 ADD MSTORE POP JUMP JUMPDEST PUSH0 PUSH2 0x3BD4 PUSH1 0x20 DUP4 PUSH2 0x39E5 JUMP JUMPDEST SWAP2 POP PUSH2 0x3BDF DUP3 PUSH2 0x3BA0 JUMP JUMPDEST PUSH1 0x20 DUP3 ADD SWAP1 POP SWAP2 SWAP1 POP JUMP JUMPDEST PUSH0 PUSH1 0x20 DUP3 ADD SWAP1 POP DUP2 DUP2 SUB PUSH0 DUP4 ADD MSTORE PUSH2 0x3C01 DUP2 PUSH2 0x3BC8 JUMP JUMPDEST SWAP1 POP SWAP2 SWAP1 POP JUMP JUMPDEST PUSH0 PUSH1 0x40 DUP3 ADD SWAP1 POP PUSH2 0x3C1B PUSH0 DUP4 ADD DUP6 PUSH2 0x2808 JUMP JUMPDEST PUSH2 0x3C28 PUSH1 0x20 DUP4 ADD DUP5 PUSH2 0x2808 JUMP JUMPDEST SWAP4 SWAP3 POP POP POP JUMP JUMPDEST PUSH0 PUSH1 0x80 DUP3 ADD SWAP1 POP PUSH2 0x3C42 PUSH0 DUP4 ADD DUP8 PUSH2 0x342C JUMP JUMPDEST PUSH2 0x3C4F PUSH1 0x20 DUP4 ADD DUP7 PUSH2 0x2808 JUMP JUMPDEST PUSH2 0x3C5C PUSH1 0x40 DUP4 ADD DUP6 PUSH2 0x342C JUMP JUMPDEST PUSH2 0x3C69 PUSH1 0x60 DUP4 ADD DUP5 PUSH2 0x2808 JUMP JUMPDEST SWAP6 SWAP5 POP POP POP POP POP JUMP JUMPDEST PUSH0 PUSH2 0x3C7C DUP3 PUSH2 0x27FF JUMP JUMPDEST SWAP2 POP PUSH2 0x3C87 DUP4 PUSH2 0x27FF JUMP JUMPDEST SWAP3 POP DUP3 DUP3 SUB SWAP1 POP DUP2 DUP2 GT ISZERO PUSH2 0x3C9F JUMPI PUSH2 0x3C9E PUSH2 0x37E3 JUMP JUMPDEST JUMPDEST SWAP3 SWAP2 POP POP JUMP JUMPDEST PUSH0 PUSH1 0xA0 DUP3 ADD SWAP1 POP PUSH2 0x3CB8 PUSH0 DUP4 ADD DUP9 PUSH2 0x342C JUMP JUMPDEST PUSH2 0x3CC5 PUSH1 0x20 DUP4 ADD DUP8 PUSH2 0x342C JUMP JUMPDEST PUSH2 0x3CD2 PUSH1 0x40 DUP4 ADD DUP7 PUSH2 0x342C JUMP JUMPDEST PUSH2 0x3CDF PUSH1 0x60 DUP4 ADD DUP6 PUSH2 0x2808 JUMP JUMPDEST DUP2 DUP2 SUB PUSH1 0x80 DUP4 ADD MSTORE PUSH2 0x3CF1 DUP2 DUP5 PUSH2 0x2FB7 JUMP JUMPDEST SWAP1 POP SWAP7 SWAP6 POP POP POP POP POP POP JUMP JUMPDEST PUSH0 DUP2 SWAP1 POP DUP2 PUSH0 MSTORE PUSH1 0x20 PUSH0 KECCAK256 SWAP1 POP SWAP2 SWAP1 POP JUMP JUMPDEST PUSH0 PUSH1 0x20 PUSH1 0x1F DUP4 ADD DIV SWAP1 POP SWAP2 SWAP1 POP JUMP JUMPDEST PUSH0 PUSH1 0x8 DUP4 MUL PUSH2 0x3D4D PUSH32 0xFFFFFFFFFFFFFFFFFFFFFFFFFFFFFFFFFFFFFFFFFFFFFFFFFFFFFFFFFFFFFFFF DUP3 PUSH2 0x3AD1 JUMP JUMPDEST PUSH2 0x3D57 DUP7 DUP4 PUSH2 0x3AD1 JUMP JUMPDEST SWAP6 POP DUP1 NOT DUP5 AND SWAP4 POP DUP1 DUP7 AND DUP5 OR SWAP3 POP POP POP SWAP4 SWAP3 POP POP POP JUMP JUMPDEST PUSH0 PUSH2 0x3D89 PUSH2 0x3D84 PUSH2 0x3D7F DUP5 PUSH2 0x27FF JUMP JUMPDEST PUSH2 0x38EA JUMP JUMPDEST PUSH2 0x27FF JUMP JUMPDEST SWAP1 POP SWAP2 SWAP1 POP JUMP JUMPDEST PUSH0 DUP2 SWAP1 POP SWAP2 SWAP1 POP JUMP JUMPDEST PUSH2 0x3DA2 DUP4 PUSH2 0x3D6F JUMP JUMPDEST PUSH2 0x3DB6 PUSH2 0x3DAE DUP3 PUSH2 0x3D90 JUMP JUMPDEST DUP5 DUP5 SLOAD PUSH2 0x3D1E JUMP JUMPDEST DUP3 SSTORE POP POP POP POP JUMP JUMPDEST PUSH0 PUSH0 SWAP1 POP SWAP1 JUMP JUMPDEST PUSH2 0x3DCD PUSH2 0x3DBE JUMP JUMPDEST PUSH2 0x3DD8 DUP2 DUP5 DUP5 PUSH2 0x3D99 JUMP JUMPDEST POP POP POP JUMP JUMPDEST JUMPDEST DUP2 DUP2 LT ISZERO PUSH2 0x3DFB JUMPI PUSH2 0x3DF0 PUSH0 DUP3 PUSH2 0x3DC5 JUMP JUMPDEST PUSH1 0x1 DUP2 ADD SWAP1 POP PUSH2 0x3DDE JUMP JUMPDEST POP POP JUMP JUMPDEST PUSH1 0x1F DUP3 GT ISZERO PUSH2 0x3E40 JUMPI PUSH2 0x3E11 DUP2 PUSH2 0x3CFD JUMP JUMPDEST PUSH2 0x3E1A DUP5 PUSH2 0x3D0F JUMP JUMPDEST DUP2 ADD PUSH1 0x20 DUP6 LT ISZERO PUSH2 0x3E29 JUMPI DUP2 SWAP1 POP JUMPDEST PUSH2 0x3E3D PUSH2 0x3E35 DUP6 PUSH2 0x3D0F JUMP JUMPDEST DUP4 ADD DUP3 PUSH2 0x3DDD JUMP JUMPDEST POP POP JUMPDEST POP POP POP JUMP JUMPDEST PUSH0 DUP3 DUP3 SHR SWAP1 POP SWAP3 SWAP2 POP POP JUMP JUMPDEST PUSH0 PUSH2 0x3E60 PUSH0 NOT DUP5 PUSH1 0x8 MUL PUSH2 0x3E45 JUMP JUMPDEST NOT DUP1 DUP4 AND SWAP2 POP POP SWAP3 SWAP2 POP POP JUMP JUMPDEST PUSH0 PUSH2 0x3E78 DUP4 DUP4 PUSH2 0x3E51 JUMP JUMPDEST SWAP2 POP DUP3 PUSH1 0x2 MUL DUP3 OR SWAP1 POP SWAP3 SWAP2 POP POP JUMP JUMPDEST PUSH2 0x3E91 DUP3 PUSH2 0x2F9F JUMP JUMPDEST PUSH8 0xFFFFFFFFFFFFFFFF DUP2 GT ISZERO PUSH2 0x3EAA JUMPI PUSH2 0x3EA9 PUSH2 0x28BC JUMP JUMPDEST JUMPDEST PUSH2 0x3EB4 DUP3 SLOAD PUSH2 0x3B70 JUMP JUMPDEST PUSH2 0x3EBF DUP3 DUP3 DUP6 PUSH2 0x3DFF JUMP JUMPDEST PUSH0 PUSH1 0x20 SWAP1 POP PUSH1 0x1F DUP4 GT PUSH1 0x1 DUP2 EQ PUSH2 0x3EF0 JUMPI PUSH0 DUP5 ISZERO PUSH2 0x3EDE JUMPI DUP3 DUP8 ADD MLOAD SWAP1 POP JUMPDEST PUSH2 0x3EE8 DUP6 DUP3 PUSH2 0x3E6D JUMP JUMPDEST DUP7 SSTORE POP PUSH2 0x3F4F JUMP JUMPDEST PUSH1 0x1F NOT DUP5 AND PUSH2 0x3EFE DUP7 PUSH2 0x3CFD JUMP JUMPDEST PUSH0 JUMPDEST DUP3 DUP2 LT ISZERO PUSH2 0x3F25 JUMPI DUP5 DUP10 ADD MLOAD DUP3 SSTORE PUSH1 0x1 DUP3 ADD SWAP2 POP PUSH1 0x20 DUP6 ADD SWAP5 POP PUSH1 0x20 DUP2 ADD SWAP1 POP PUSH2 0x3F00 JUMP JUMPDEST DUP7 DUP4 LT ISZERO PUSH2 0x3F42 JUMPI DUP5 DUP10 ADD MLOAD PUSH2 0x3F3E PUSH1 0x1F DUP10 AND DUP3 PUSH2 0x3E51 JUMP JUMPDEST DUP4 SSTORE POP JUMPDEST PUSH1 0x1 PUSH1 0x2 DUP9 MUL ADD DUP9 SSTORE POP POP POP JUMPDEST POP POP POP POP POP POP JUMP JUMPDEST PUSH0 PUSH32 0xFFFFFFFFFFFFFFFFFFFF00000000000000000000000000000000000000000000 DUP3 AND SWAP1 POP SWAP2 SWAP1 POP JUMP JUMPDEST PUSH0 DUP2 SWAP1 POP SWAP2 SWAP1 POP JUMP JUMPDEST PUSH2 0x3F9C PUSH2 0x3F97 DUP3 PUSH2 0x3F57 JUMP JUMPDEST PUSH2 0x3F82 JUMP JUMPDEST DUP3 MSTORE POP POP JUMP JUMPDEST PUSH0 PUSH32 0xFFFF000000000000000000000000000000000000000000000000000000000000 DUP3 AND SWAP1 POP SWAP2 SWAP1 POP JUMP JUMPDEST PUSH0 DUP2 SWAP1 POP SWAP2 SWAP1 POP JUMP JUMPDEST PUSH2 0x3FE7 PUSH2 0x3FE2 DUP3 PUSH2 0x3FA2 JUMP JUMPDEST PUSH2 0x3FCD JUMP JUMPDEST DUP3 MSTORE POP POP JUMP JUMPDEST PUSH0 DUP2 SWAP1 POP SWAP2 SWAP1 POP JUMP JUMPDEST PUSH2 0x4007 PUSH2 0x4002 DUP3 PUSH2 0x3A92 JUMP JUMPDEST PUSH2 0x3FED JUMP JUMPDEST DUP3 MSTORE POP POP JUMP JUMPDEST PUSH0 PUSH2 0x4018 DUP3 DUP7 PUSH2 0x3F8B JUMP JUMPDEST PUSH1 0xA DUP3 ADD SWAP2 POP PUSH2 0x4028 DUP3 DUP6 PUSH2 0x3FD6 JUMP JUMPDEST PUSH1 0x2 DUP3 ADD SWAP2 POP PUSH2 0x4038 DUP3 DUP5 PUSH2 0x3FF6 JUMP JUMPDEST PUSH1 0x14 DUP3 ADD SWAP2 POP DUP2 SWAP1 POP SWAP5 SWAP4 POP POP POP POP JUMP JUMPDEST PUSH0 PUSH2 0x4054 DUP3 MLOAD PUSH2 0x2F41 JUMP JUMPDEST DUP1 SWAP2 POP POP SWAP2 SWAP1 POP JUMP JUMPDEST PUSH0 PUSH2 0x4067 DUP3 PUSH2 0x2F9F JUMP JUMPDEST DUP3 PUSH2 0x4071 DUP5 PUSH2 0x3A83 JUMP JUMPDEST SWAP1 POP PUSH2 0x407C DUP2 PUSH2 0x4049 JUMP JUMPDEST SWAP3 POP PUSH1 0x20 DUP3 LT ISZERO PUSH2 0x40BC JUMPI PUSH2 0x40B7 PUSH32 0xFFFFFFFFFFFFFFFFFFFFFFFFFFFFFFFFFFFFFFFFFFFFFFFFFFFFFFFFFFFFFFFF DUP4 PUSH1 0x20 SUB PUSH1 0x8 MUL PUSH2 0x3AD1 JUMP JUMPDEST DUP4 AND SWAP3 POP JUMPDEST POP POP SWAP2 SWAP1 POP JUMP JUMPDEST PUSH2 0x40CC DUP2 PUSH2 0x2F41 JUMP JUMPDEST DUP3 MSTORE POP POP JUMP JUMPDEST PUSH0 PUSH1 0x40 DUP3 ADD SWAP1 POP PUSH2 0x40E5 PUSH0 DUP4 ADD DUP6 PUSH2 0x40C3 JUMP JUMPDEST DUP2 DUP2 SUB PUSH1 0x20 DUP4 ADD MSTORE PUSH2 0x40F7 DUP2 DUP5 PUSH2 0x2FB7 JUMP JUMPDEST SWAP1 POP SWAP4 SWAP3 POP POP POP JUMP JUMPDEST PUSH0 PUSH2 0x4112 PUSH2 0x410D DUP5 PUSH2 0x2934 JUMP JUMPDEST PUSH2 0x291A JUMP JUMPDEST SWAP1 POP DUP3 DUP2 MSTORE PUSH1 0x20 DUP2 ADD DUP5 DUP5 DUP5 ADD GT ISZERO PUSH2 0x412E JUMPI PUSH2 0x412D PUSH2 0x28B8 JUMP JUMPDEST JUMPDEST PUSH2 0x4139 DUP5 DUP3 DUP6 PUSH2 0x2FA9 JUMP JUMPDEST POP SWAP4 SWAP3 POP POP POP JUMP JUMPDEST PUSH0 DUP3 PUSH1 0x1F DUP4 ADD SLT PUSH2 0x4155 JUMPI PUSH2 0x4154 PUSH2 0x28B4 JUMP JUMPDEST JUMPDEST DUP2 MLOAD PUSH2 0x4165 DUP5 DUP3 PUSH1 0x20 DUP7 ADD PUSH2 0x4100 JUMP JUMPDEST SWAP2 POP POP SWAP3 SWAP2 POP POP JUMP JUMPDEST PUSH0 PUSH1 0x20 DUP3 DUP5 SUB SLT ISZERO PUSH2 0x4183 JUMPI PUSH2 0x4182 PUSH2 0x2744 JUMP JUMPDEST JUMPDEST PUSH0 DUP3 ADD MLOAD PUSH8 0xFFFFFFFFFFFFFFFF DUP2 GT ISZERO PUSH2 0x41A0 JUMPI PUSH2 0x419F PUSH2 0x2748 JUMP JUMPDEST JUMPDEST PUSH2 0x41AC DUP5 DUP3 DUP6 ADD PUSH2 0x4141 JUMP JUMPDEST SWAP2 POP POP SWAP3 SWAP2 POP POP JUMP JUMPDEST PUSH0 PUSH1 0x60 DUP3 ADD SWAP1 POP PUSH2 0x41C8 PUSH0 DUP4 ADD DUP7 PUSH2 0x2808 JUMP JUMPDEST PUSH2 0x41D5 PUSH1 0x20 DUP4 ADD DUP6 PUSH2 0x342C JUMP JUMPDEST PUSH2 0x41E2 PUSH1 0x40 DUP4 ADD DUP5 PUSH2 0x2808 JUMP JUMPDEST SWAP5 SWAP4 POP POP POP POP JUMP JUMPDEST PUSH0 PUSH1 0x60 DUP3 ADD SWAP1 POP PUSH2 0x41FD PUSH0 DUP4 ADD DUP7 PUSH2 0x2808 JUMP JUMPDEST PUSH2 0x420A PUSH1 0x20 DUP4 ADD DUP6 PUSH2 0x27D7 JUMP JUMPDEST DUP2 DUP2 SUB PUSH1 0x40 DUP4 ADD MSTORE PUSH2 0x421C DUP2 DUP5 PUSH2 0x2FB7 JUMP JUMPDEST SWAP1 POP SWAP5 SWAP4 POP POP POP POP JUMP JUMPDEST PUSH32 0x4E487B7100000000000000000000000000000000000000000000000000000000 PUSH0 MSTORE PUSH1 0x31 PUSH1 0x4 MSTORE PUSH1 0x24 PUSH0 REVERT INVALID LOG2 PUSH5 0x6970667358 0x22 SLT KECCAK256 0x21 0xE8 BASEFEE PUSH10 0x82F8528A6644EE2DF3A0 0x2F DUP16 MOD 0xC1 0xAB DUP1 0xE9 RJUMPI 0x4449 0x2D SWAP12 0xAE 0xD4 RETURNDATASIZE RETURNDATACOPY 0xD4 CALLDATALOAD PUSH5 0x736F6C6343 STOP ADDMOD SAR STOP CALLER "
		},
		"gasEstimates": {
			"creation": {
				"codeDepositCost": "3406600",
				"executionCost": "infinite",
				"totalCost": "infinite"
			},
			"external": {
				"": "infinite",
				"authorizeOperator(address,uint256,bytes)": "infinite",
				"authorizedAmountFor(address,address)": "infinite",
				"balanceOf(address)": "2962",
				"batchCalls(bytes[])": "infinite",
				"decimals()": "2524",
				"decreaseAllowance(address,address,uint256,bytes)": "infinite",
				"getData(bytes32)": "infinite",
				"getDataBatch(bytes32[])": "infinite",
				"getOperatorsOf(address)": "infinite",
				"increaseAllowance(address,uint256,bytes)": "infinite",
				"mint(address,uint256,bool,bytes)": "infinite",
				"owner()": "2536",
				"renounceOwnership()": "30410",
				"revokeOperator(address,address,bool,bytes)": "infinite",
				"setData(bytes32,bytes)": "infinite",
				"setDataBatch(bytes32[],bytes[])": "infinite",
				"supportsInterface(bytes4)": "infinite",
				"tokenSupplyCap()": "370",
				"totalSupply()": "2478",
				"transfer(address,address,uint256,bool,bytes)": "infinite",
				"transferBatch(address[],address[],uint256[],bool[],bytes[])": "infinite",
				"transferOwnership(address)": "30860"
			},
			"internal": {
				"_mint(address,uint256,bool,bytes memory)": "infinite"
			}
		},
		"methodIdentifiers": {
			"authorizeOperator(address,uint256,bytes)": "b49506fd",
			"authorizedAmountFor(address,address)": "65aeaa95",
			"balanceOf(address)": "70a08231",
			"batchCalls(bytes[])": "6963d438",
			"decimals()": "313ce567",
			"decreaseAllowance(address,address,uint256,bytes)": "78381670",
			"getData(bytes32)": "54f6127f",
			"getDataBatch(bytes32[])": "dedff9c6",
			"getOperatorsOf(address)": "d72fc29a",
			"increaseAllowance(address,uint256,bytes)": "2bc1da82",
			"mint(address,uint256,bool,bytes)": "7580d920",
			"owner()": "8da5cb5b",
			"renounceOwnership()": "715018a6",
			"revokeOperator(address,address,bool,bytes)": "30d0dc37",
			"setData(bytes32,bytes)": "7f23690c",
			"setDataBatch(bytes32[],bytes[])": "97902421",
			"supportsInterface(bytes4)": "01ffc9a7",
			"tokenSupplyCap()": "52058d8a",
			"totalSupply()": "18160ddd",
			"transfer(address,address,uint256,bool,bytes)": "760d9bba",
			"transferBatch(address[],address[],uint256[],bool[],bytes[])": "2d7667c9",
			"transferOwnership(address)": "f2fde38b"
		}
	},
	"abi": [
		{
			"inputs": [],
			"stateMutability": "nonpayable",
			"type": "constructor"
		},
		{
			"inputs": [],
			"name": "ERC725Y_DataKeysValuesEmptyArray",
			"type": "error"
		},
		{
			"inputs": [],
			"name": "ERC725Y_DataKeysValuesLengthMismatch",
			"type": "error"
		},
		{
			"inputs": [],
			"name": "ERC725Y_MsgValueDisallowed",
			"type": "error"
		},
		{
			"inputs": [
				{
					"internalType": "bytes",
					"name": "storedData",
					"type": "bytes"
				}
			],
			"name": "InvalidExtensionAddress",
			"type": "error"
		},
		{
			"inputs": [
				{
					"internalType": "bytes",
					"name": "data",
					"type": "bytes"
				}
			],
			"name": "InvalidFunctionSelector",
			"type": "error"
		},
		{
			"inputs": [],
			"name": "LSP4TokenNameNotEditable",
			"type": "error"
		},
		{
			"inputs": [],
			"name": "LSP4TokenSymbolNotEditable",
			"type": "error"
		},
		{
			"inputs": [],
			"name": "LSP4TokenTypeNotEditable",
			"type": "error"
		},
		{
			"inputs": [
				{
					"internalType": "address",
					"name": "tokenOwner",
					"type": "address"
				},
				{
					"internalType": "uint256",
					"name": "authorizedAmount",
					"type": "uint256"
				},
				{
					"internalType": "address",
					"name": "operator",
					"type": "address"
				},
				{
					"internalType": "uint256",
					"name": "amount",
					"type": "uint256"
				}
			],
			"name": "LSP7AmountExceedsAuthorizedAmount",
			"type": "error"
		},
		{
			"inputs": [
				{
					"internalType": "uint256",
					"name": "balance",
					"type": "uint256"
				},
				{
					"internalType": "address",
					"name": "tokenOwner",
					"type": "address"
				},
				{
					"internalType": "uint256",
					"name": "amount",
					"type": "uint256"
				}
			],
			"name": "LSP7AmountExceedsBalance",
			"type": "error"
		},
		{
			"inputs": [
				{
					"internalType": "uint256",
					"name": "callIndex",
					"type": "uint256"
				}
			],
			"name": "LSP7BatchCallFailed",
			"type": "error"
		},
		{
			"inputs": [],
			"name": "LSP7CannotSendWithAddressZero",
			"type": "error"
		},
		{
			"inputs": [],
			"name": "LSP7CannotUseAddressZeroAsOperator",
			"type": "error"
		},
		{
			"inputs": [
				{
					"internalType": "address",
					"name": "caller",
					"type": "address"
				},
				{
					"internalType": "address",
					"name": "tokenOwner",
					"type": "address"
				},
				{
					"internalType": "address",
					"name": "operator",
					"type": "address"
				}
			],
			"name": "LSP7DecreaseAllowanceNotAuthorized",
			"type": "error"
		},
		{
			"inputs": [],
			"name": "LSP7DecreasedAllowanceBelowZero",
			"type": "error"
		},
		{
			"inputs": [],
			"name": "LSP7InvalidTransferBatch",
			"type": "error"
		},
		{
			"inputs": [
				{
					"internalType": "address",
					"name": "tokenReceiver",
					"type": "address"
				}
			],
			"name": "LSP7NotifyTokenReceiverContractMissingLSP1Interface",
			"type": "error"
		},
		{
			"inputs": [
				{
					"internalType": "address",
					"name": "tokenReceiver",
					"type": "address"
				}
			],
			"name": "LSP7NotifyTokenReceiverIsEOA",
			"type": "error"
		},
		{
			"inputs": [
				{
					"internalType": "address",
					"name": "caller",
					"type": "address"
				},
				{
					"internalType": "address",
					"name": "tokenOwner",
					"type": "address"
				},
				{
					"internalType": "address",
					"name": "operator",
					"type": "address"
				}
			],
			"name": "LSP7RevokeOperatorNotAuthorized",
			"type": "error"
		},
		{
			"inputs": [],
			"name": "LSP7TokenContractCannotHoldValue",
			"type": "error"
		},
		{
			"inputs": [],
			"name": "LSP7TokenOwnerCannotBeOperator",
			"type": "error"
		},
		{
			"inputs": [
				{
					"internalType": "bytes4",
					"name": "functionSelector",
					"type": "bytes4"
				}
			],
			"name": "NoExtensionFoundForFunctionSelector",
			"type": "error"
		},
		{
			"inputs": [
				{
					"internalType": "address",
					"name": "operator",
					"type": "address"
				}
			],
			"name": "OperatorAllowanceCannotBeIncreasedFromZero",
			"type": "error"
		},
		{
			"inputs": [],
			"name": "OwnableCannotSetZeroAddressAsOwner",
			"type": "error"
		},
		{
			"inputs": [
				{
					"internalType": "uint256",
					"name": "totalSupply",
					"type": "uint256"
				},
				{
					"internalType": "uint256",
					"name": "tokenSupplyCap",
					"type": "uint256"
				}
			],
			"name": "SupplyLimitExceeded",
			"type": "error"
		},
		{
			"anonymous": false,
			"inputs": [
				{
					"indexed": true,
					"internalType": "bytes32",
					"name": "dataKey",
					"type": "bytes32"
				},
				{
					"indexed": false,
					"internalType": "bytes",
					"name": "dataValue",
					"type": "bytes"
				}
			],
			"name": "DataChanged",
			"type": "event"
		},
		{
			"anonymous": false,
			"inputs": [
				{
					"indexed": true,
					"internalType": "address",
					"name": "operator",
					"type": "address"
				},
				{
					"indexed": true,
					"internalType": "address",
					"name": "tokenOwner",
					"type": "address"
				},
				{
					"indexed": true,
					"internalType": "uint256",
					"name": "amount",
					"type": "uint256"
				},
				{
					"indexed": false,
					"internalType": "bytes",
					"name": "operatorNotificationData",
					"type": "bytes"
				}
			],
			"name": "OperatorAuthorizationChanged",
			"type": "event"
		},
		{
			"anonymous": false,
			"inputs": [
				{
					"indexed": true,
					"internalType": "address",
					"name": "operator",
					"type": "address"
				},
				{
					"indexed": true,
					"internalType": "address",
					"name": "tokenOwner",
					"type": "address"
				},
				{
					"indexed": true,
					"internalType": "bool",
					"name": "notified",
					"type": "bool"
				},
				{
					"indexed": false,
					"internalType": "bytes",
					"name": "operatorNotificationData",
					"type": "bytes"
				}
			],
			"name": "OperatorRevoked",
			"type": "event"
		},
		{
			"anonymous": false,
			"inputs": [
				{
					"indexed": true,
					"internalType": "address",
					"name": "previousOwner",
					"type": "address"
				},
				{
					"indexed": true,
					"internalType": "address",
					"name": "newOwner",
					"type": "address"
				}
			],
			"name": "OwnershipTransferred",
			"type": "event"
		},
		{
			"anonymous": false,
			"inputs": [
				{
					"indexed": true,
					"internalType": "address",
					"name": "operator",
					"type": "address"
				},
				{
					"indexed": true,
					"internalType": "address",
					"name": "from",
					"type": "address"
				},
				{
					"indexed": true,
					"internalType": "address",
					"name": "to",
					"type": "address"
				},
				{
					"indexed": false,
					"internalType": "uint256",
					"name": "amount",
					"type": "uint256"
				},
				{
					"indexed": false,
					"internalType": "bool",
					"name": "force",
					"type": "bool"
				},
				{
					"indexed": false,
					"internalType": "bytes",
					"name": "data",
					"type": "bytes"
				}
			],
			"name": "Transfer",
			"type": "event"
		},
		{
			"stateMutability": "payable",
			"type": "fallback"
		},
		{
			"inputs": [
				{
					"internalType": "address",
					"name": "operator",
					"type": "address"
				},
				{
					"internalType": "uint256",
					"name": "amount",
					"type": "uint256"
				},
				{
					"internalType": "bytes",
					"name": "operatorNotificationData",
					"type": "bytes"
				}
			],
			"name": "authorizeOperator",
			"outputs": [],
			"stateMutability": "nonpayable",
			"type": "function"
		},
		{
			"inputs": [
				{
					"internalType": "address",
					"name": "operator",
					"type": "address"
				},
				{
					"internalType": "address",
					"name": "tokenOwner",
					"type": "address"
				}
			],
			"name": "authorizedAmountFor",
			"outputs": [
				{
					"internalType": "uint256",
					"name": "",
					"type": "uint256"
				}
			],
			"stateMutability": "view",
			"type": "function"
		},
		{
			"inputs": [
				{
					"internalType": "address",
					"name": "tokenOwner",
					"type": "address"
				}
			],
			"name": "balanceOf",
			"outputs": [
				{
					"internalType": "uint256",
					"name": "",
					"type": "uint256"
				}
			],
			"stateMutability": "view",
			"type": "function"
		},
		{
			"inputs": [
				{
					"internalType": "bytes[]",
					"name": "data",
					"type": "bytes[]"
				}
			],
			"name": "batchCalls",
			"outputs": [
				{
					"internalType": "bytes[]",
					"name": "results",
					"type": "bytes[]"
				}
			],
			"stateMutability": "nonpayable",
			"type": "function"
		},
		{
			"inputs": [],
			"name": "decimals",
			"outputs": [
				{
					"internalType": "uint8",
					"name": "",
					"type": "uint8"
				}
			],
			"stateMutability": "view",
			"type": "function"
		},
		{
			"inputs": [
				{
					"internalType": "address",
					"name": "operator",
					"type": "address"
				},
				{
					"internalType": "address",
					"name": "tokenOwner",
					"type": "address"
				},
				{
					"internalType": "uint256",
					"name": "subtractedAmount",
					"type": "uint256"
				},
				{
					"internalType": "bytes",
					"name": "operatorNotificationData",
					"type": "bytes"
				}
			],
			"name": "decreaseAllowance",
			"outputs": [],
			"stateMutability": "nonpayable",
			"type": "function"
		},
		{
			"inputs": [
				{
					"internalType": "bytes32",
					"name": "dataKey",
					"type": "bytes32"
				}
			],
			"name": "getData",
			"outputs": [
				{
					"internalType": "bytes",
					"name": "dataValue",
					"type": "bytes"
				}
			],
			"stateMutability": "view",
			"type": "function"
		},
		{
			"inputs": [
				{
					"internalType": "bytes32[]",
					"name": "dataKeys",
					"type": "bytes32[]"
				}
			],
			"name": "getDataBatch",
			"outputs": [
				{
					"internalType": "bytes[]",
					"name": "dataValues",
					"type": "bytes[]"
				}
			],
			"stateMutability": "view",
			"type": "function"
		},
		{
			"inputs": [
				{
					"internalType": "address",
					"name": "tokenOwner",
					"type": "address"
				}
			],
			"name": "getOperatorsOf",
			"outputs": [
				{
					"internalType": "address[]",
					"name": "",
					"type": "address[]"
				}
			],
			"stateMutability": "view",
			"type": "function"
		},
		{
			"inputs": [
				{
					"internalType": "address",
					"name": "operator",
					"type": "address"
				},
				{
					"internalType": "uint256",
					"name": "addedAmount",
					"type": "uint256"
				},
				{
					"internalType": "bytes",
					"name": "operatorNotificationData",
					"type": "bytes"
				}
			],
			"name": "increaseAllowance",
			"outputs": [],
			"stateMutability": "nonpayable",
			"type": "function"
		},
		{
			"inputs": [
				{
					"internalType": "address",
					"name": "to",
					"type": "address"
				},
				{
					"internalType": "uint256",
					"name": "amount",
					"type": "uint256"
				},
				{
					"internalType": "bool",
					"name": "force",
					"type": "bool"
				},
				{
					"internalType": "bytes",
					"name": "data",
					"type": "bytes"
				}
			],
			"name": "mint",
			"outputs": [],
			"stateMutability": "nonpayable",
			"type": "function"
		},
		{
			"inputs": [],
			"name": "owner",
			"outputs": [
				{
					"internalType": "address",
					"name": "",
					"type": "address"
				}
			],
			"stateMutability": "view",
			"type": "function"
		},
		{
			"inputs": [],
			"name": "renounceOwnership",
			"outputs": [],
			"stateMutability": "nonpayable",
			"type": "function"
		},
		{
			"inputs": [
				{
					"internalType": "address",
					"name": "operator",
					"type": "address"
				},
				{
					"internalType": "address",
					"name": "tokenOwner",
					"type": "address"
				},
				{
					"internalType": "bool",
					"name": "notify",
					"type": "bool"
				},
				{
					"internalType": "bytes",
					"name": "operatorNotificationData",
					"type": "bytes"
				}
			],
			"name": "revokeOperator",
			"outputs": [],
			"stateMutability": "nonpayable",
			"type": "function"
		},
		{
			"inputs": [
				{
					"internalType": "bytes32",
					"name": "dataKey",
					"type": "bytes32"
				},
				{
					"internalType": "bytes",
					"name": "dataValue",
					"type": "bytes"
				}
			],
			"name": "setData",
			"outputs": [],
			"stateMutability": "payable",
			"type": "function"
		},
		{
			"inputs": [
				{
					"internalType": "bytes32[]",
					"name": "dataKeys",
					"type": "bytes32[]"
				},
				{
					"internalType": "bytes[]",
					"name": "dataValues",
					"type": "bytes[]"
				}
			],
			"name": "setDataBatch",
			"outputs": [],
			"stateMutability": "payable",
			"type": "function"
		},
		{
			"inputs": [
				{
					"internalType": "bytes4",
					"name": "interfaceId",
					"type": "bytes4"
				}
			],
			"name": "supportsInterface",
			"outputs": [
				{
					"internalType": "bool",
					"name": "",
					"type": "bool"
				}
			],
			"stateMutability": "view",
			"type": "function"
		},
		{
			"inputs": [],
			"name": "tokenSupplyCap",
			"outputs": [
				{
					"internalType": "uint256",
					"name": "",
					"type": "uint256"
				}
			],
			"stateMutability": "view",
			"type": "function"
		},
		{
			"inputs": [],
			"name": "totalSupply",
			"outputs": [
				{
					"internalType": "uint256",
					"name": "",
					"type": "uint256"
				}
			],
			"stateMutability": "view",
			"type": "function"
		},
		{
			"inputs": [
				{
					"internalType": "address",
					"name": "from",
					"type": "address"
				},
				{
					"internalType": "address",
					"name": "to",
					"type": "address"
				},
				{
					"internalType": "uint256",
					"name": "amount",
					"type": "uint256"
				},
				{
					"internalType": "bool",
					"name": "force",
					"type": "bool"
				},
				{
					"internalType": "bytes",
					"name": "data",
					"type": "bytes"
				}
			],
			"name": "transfer",
			"outputs": [],
			"stateMutability": "nonpayable",
			"type": "function"
		},
		{
			"inputs": [
				{
					"internalType": "address[]",
					"name": "from",
					"type": "address[]"
				},
				{
					"internalType": "address[]",
					"name": "to",
					"type": "address[]"
				},
				{
					"internalType": "uint256[]",
					"name": "amount",
					"type": "uint256[]"
				},
				{
					"internalType": "bool[]",
					"name": "force",
					"type": "bool[]"
				},
				{
					"internalType": "bytes[]",
					"name": "data",
					"type": "bytes[]"
				}
			],
			"name": "transferBatch",
			"outputs": [],
			"stateMutability": "nonpayable",
			"type": "function"
		},
		{
			"inputs": [
				{
					"internalType": "address",
					"name": "newOwner",
					"type": "address"
				}
			],
			"name": "transferOwnership",
			"outputs": [],
			"stateMutability": "nonpayable",
			"type": "function"
		},
		{
			"stateMutability": "payable",
			"type": "receive"
		}
	]
}