{
	"data": {
		"bytecode": {
			"linkReferences": {},
			"object": "608060405234801561000f575f5ffd5b506040516157e33803806157e383398181016040528101906100319190610aa8565b8282335f5f848484848484848484815f73ffffffffffffffffffffffffffffffffffffffff168173ffffffffffffffffffffffffffffffffffffffff16036100a5576040517f1ad8836c00000000000000000000000000000000000000000000000000000000815260040160405180910390fd5b6100b48161027060201b60201c565b5061011c7feafec4d89fa9619884b60000a4d96624a38f7ac2d8d9a604ecf07c12c77e480c5f1b6040518060400160405280600481526020017fa4d966240000000000000000000000000000000000000000000000000000000081525061036d60201b60201c565b61014e7fdeba1e292f8ba88238e10ab3c7f88bd4be4fac56cad5194b6ecceaf653468af15f1b8561036d60201b60201c565b6101807f2f0a68ab07768e01943a599e73362a0e17a63a72e94dd2e384d2c1d4db9327565f1b8461036d60201b60201c565b6101d17fe0261fa95db2eb3b5439bd033cda66d56b96f92f243a8228fd87550ed7bdfdb35f1b826040516020016101b79190610b3f565b60405160208183030381529060405261036d60201b60201c565b505050508060025f6101000a81548160ff021916908315150217905550505050505050505050506102066103c860201b60201c565b600a6102129190610cc0565b8161021d9190610d0a565b600781905550610268336102356103c860201b60201c565b600a6102419190610cc0565b8361024c9190610d0a565b600160405180602001604052805f8152506103ea60201b60201c565b505050611367565b61027e61041060201b60201c565b73ffffffffffffffffffffffffffffffffffffffff168173ffffffffffffffffffffffffffffffffffffffff161461036a578073ffffffffffffffffffffffffffffffffffffffff165f5f9054906101000a900473ffffffffffffffffffffffffffffffffffffffff1673ffffffffffffffffffffffffffffffffffffffff167f8be0079c531659141344cd1fd0a4f28419497f9722a3daafe3b4186f6b6457e060405160405180910390a3805f5f6101000a81548173ffffffffffffffffffffffffffffffffffffffff021916908373ffffffffffffffffffffffffffffffffffffffff1602179055505b50565b8060015f8481526020019081526020015f20908161038b9190610f52565b50817fece574603820d07bc9b91f2a932baadf4628aabcb8afba49776529c14a6104b2826040516103bc9190611069565b60405180910390a25050565b5f60025f9054906101000a900460ff166103e35760126103e5565b5f5b905090565b6103f861043760201b60201c565b61040a848484846104b660201b60201c565b50505050565b5f5f5f9054906101000a900473ffffffffffffffffffffffffffffffffffffffff16905090565b3373ffffffffffffffffffffffffffffffffffffffff1661045c61041060201b60201c565b73ffffffffffffffffffffffffffffffffffffffff16146104b457336040517fbf1169c50000000000000000000000000000000000000000000000000000000081526004016104ab91906110c8565b60405180910390fd5b565b600754836104c861053e60201b60201c565b6104d291906110e1565b1115610526576104e661053e60201b60201c565b6007546040517f3dc729a700000000000000000000000000000000000000000000000000000000815260040161051d929190611114565b60405180910390fd5b6105388484848461054760201b60201c565b50505050565b5f600354905090565b5f73ffffffffffffffffffffffffffffffffffffffff168473ffffffffffffffffffffffffffffffffffffffff16036105ac576040517fd2d5ec3000000000000000000000000000000000000000000000000000000000815260040160405180910390fd5b6105be5f8585846106fe60201b60201c565b8260035f8282546105cf91906110e1565b925050819055508260045f8673ffffffffffffffffffffffffffffffffffffffff1673ffffffffffffffffffffffffffffffffffffffff1681526020019081526020015f205f82825461062291906110e1565b925050819055508373ffffffffffffffffffffffffffffffffffffffff165f73ffffffffffffffffffffffffffffffffffffffff163373ffffffffffffffffffffffffffffffffffffffff167f3997e418d2cef0b3b0e907b1e39605c3f7d32dbd061e82ea5b4a770d46a160a68686866040516106a193929190611155565b60405180910390a46106bb5f85858461070460201b60201c565b5f335f8686856040516020016106d5959493929190611191565b60405160208183030381529060405290506106f785848361070a60201b60201c565b5050505050565b50505050565b50505050565b61072183636bb56a1460e01b61086f60201b60201c565b156107cc578273ffffffffffffffffffffffffffffffffffffffff16636bb56a147f20804611b3e2ea21c480dc465142210acf4a2485947541770ec1fb87dee4a55c5f1b836040518363ffffffff1660e01b8152600401610783929190611201565b5f604051808303815f875af115801561079e573d5f5f3e3d5ffd5b505050506040513d5f823e3d601f19601f820116820180604052508101906107c691906112cd565b5061086a565b81610869575f8373ffffffffffffffffffffffffffffffffffffffff163b1461082c57826040517fa608fbb600000000000000000000000000000000000000000000000000000000815260040161082391906110c8565b60405180910390fd5b826040517f26c247f400000000000000000000000000000000000000000000000000000000815260040161086091906110c8565b60405180910390fd5b5b505050565b5f5f6301ffc9a760e01b8360405160240161088a919061134e565b604051602081830303815290604052907bffffffffffffffffffffffffffffffffffffffffffffffffffffffff19166020820180517bffffffffffffffffffffffffffffffffffffffffffffffffffffffff838183161783525050505090505f5f5f60205f8551602087018a617530fa92503d91505f519050828015610911575060208210155b801561091c57505f81115b94505050505092915050565b5f604051905090565b5f5ffd5b5f5ffd5b5f5ffd5b5f5ffd5b5f601f19601f8301169050919050565b7f4e487b71000000000000000000000000000000000000000000000000000000005f52604160045260245ffd5b61098782610941565b810181811067ffffffffffffffff821117156109a6576109a5610951565b5b80604052505050565b5f6109b8610928565b90506109c4828261097e565b919050565b5f67ffffffffffffffff8211156109e3576109e2610951565b5b6109ec82610941565b9050602081019050919050565b8281835e5f83830152505050565b5f610a19610a14846109c9565b6109af565b905082815260208101848484011115610a3557610a3461093d565b5b610a408482856109f9565b509392505050565b5f82601f830112610a5c57610a5b610939565b5b8151610a6c848260208601610a07565b91505092915050565b5f819050919050565b610a8781610a75565b8114610a91575f5ffd5b50565b5f81519050610aa281610a7e565b92915050565b5f5f5f60608486031215610abf57610abe610931565b5b5f84015167ffffffffffffffff811115610adc57610adb610935565b5b610ae886828701610a48565b935050602084015167ffffffffffffffff811115610b0957610b08610935565b5b610b1586828701610a48565b9250506040610b2686828701610a94565b9150509250925092565b610b3981610a75565b82525050565b5f602082019050610b525f830184610b30565b92915050565b7f4e487b71000000000000000000000000000000000000000000000000000000005f52601160045260245ffd5b5f8160011c9050919050565b5f5f8291508390505b6001851115610bda57808604811115610bb657610bb5610b58565b5b6001851615610bc55780820291505b8081029050610bd385610b85565b9450610b9a565b94509492505050565b5f82610bf25760019050610cad565b81610bff575f9050610cad565b8160018114610c155760028114610c1f57610c4e565b6001915050610cad565b60ff841115610c3157610c30610b58565b5b8360020a915084821115610c4857610c47610b58565b5b50610cad565b5060208310610133831016604e8410600b8410161715610c835782820a905083811115610c7e57610c7d610b58565b5b610cad565b610c908484846001610b91565b92509050818404811115610ca757610ca6610b58565b5b81810290505b9392505050565b5f60ff82169050919050565b5f610cca82610a75565b9150610cd583610cb4565b9250610d027fffffffffffffffffffffffffffffffffffffffffffffffffffffffffffffffff8484610be3565b905092915050565b5f610d1482610a75565b9150610d1f83610a75565b9250828202610d2d81610a75565b91508282048414831517610d4457610d43610b58565b5b5092915050565b5f81519050919050565b7f4e487b71000000000000000000000000000000000000000000000000000000005f52602260045260245ffd5b5f6002820490506001821680610d9957607f821691505b602082108103610dac57610dab610d55565b5b50919050565b5f819050815f5260205f209050919050565b5f6020601f8301049050919050565b5f82821b905092915050565b5f60088302610e0e7fffffffffffffffffffffffffffffffffffffffffffffffffffffffffffffffff82610dd3565b610e188683610dd3565b95508019841693508086168417925050509392505050565b5f819050919050565b5f610e53610e4e610e4984610a75565b610e30565b610a75565b9050919050565b5f819050919050565b610e6c83610e39565b610e80610e7882610e5a565b848454610ddf565b825550505050565b5f5f905090565b610e97610e88565b610ea2818484610e63565b505050565b5b81811015610ec557610eba5f82610e8f565b600181019050610ea8565b5050565b601f821115610f0a57610edb81610db2565b610ee484610dc4565b81016020851015610ef3578190505b610f07610eff85610dc4565b830182610ea7565b50505b505050565b5f82821c905092915050565b5f610f2a5f1984600802610f0f565b1980831691505092915050565b5f610f428383610f1b565b9150826002028217905092915050565b610f5b82610d4b565b67ffffffffffffffff811115610f7457610f73610951565b5b610f7e8254610d82565b610f89828285610ec9565b5f60209050601f831160018114610fba575f8415610fa8578287015190505b610fb28582610f37565b865550611019565b601f198416610fc886610db2565b5f5b82811015610fef57848901518255600182019150602085019450602081019050610fca565b8683101561100c5784890151611008601f891682610f1b565b8355505b6001600288020188555050505b505050505050565b5f82825260208201905092915050565b5f61103b82610d4b565b6110458185611021565b93506110558185602086016109f9565b61105e81610941565b840191505092915050565b5f6020820190508181035f8301526110818184611031565b905092915050565b5f73ffffffffffffffffffffffffffffffffffffffff82169050919050565b5f6110b282611089565b9050919050565b6110c2816110a8565b82525050565b5f6020820190506110db5f8301846110b9565b92915050565b5f6110eb82610a75565b91506110f683610a75565b925082820190508082111561110e5761110d610b58565b5b92915050565b5f6040820190506111275f830185610b30565b6111346020830184610b30565b9392505050565b5f8115159050919050565b61114f8161113b565b82525050565b5f6060820190506111685f830186610b30565b6111756020830185611146565b81810360408301526111878184611031565b9050949350505050565b5f60a0820190506111a45f8301886110b9565b6111b160208301876110b9565b6111be60408301866110b9565b6111cb6060830185610b30565b81810360808301526111dd8184611031565b90509695505050505050565b5f819050919050565b6111fb816111e9565b82525050565b5f6040820190506112145f8301856111f2565b81810360208301526112268184611031565b90509392505050565b5f67ffffffffffffffff82111561124957611248610951565b5b61125282610941565b9050602081019050919050565b5f61127161126c8461122f565b6109af565b90508281526020810184848401111561128d5761128c61093d565b5b6112988482856109f9565b509392505050565b5f82601f8301126112b4576112b3610939565b5b81516112c484826020860161125f565b91505092915050565b5f602082840312156112e2576112e1610931565b5b5f82015167ffffffffffffffff8111156112ff576112fe610935565b5b61130b848285016112a0565b91505092915050565b5f7fffffffff0000000000000000000000000000000000000000000000000000000082169050919050565b61134881611314565b82525050565b5f6020820190506113615f83018461133f565b92915050565b61446f806113745f395ff3fe608060405260043610610143575f3560e01c806370a08231116100b55780638da5cb5b1161006e5780638da5cb5b146105165780639790242114610540578063b49506fd1461055c578063d72fc29a14610584578063dedff9c6146105c0578063f2fde38b146105fc576101bc565b806370a0823114610430578063715018a61461046c5780637580d92014610482578063760d9bba146104aa57806378381670146104d25780637f23690c146104fa576101bc565b8063313ce56711610107578063313ce5671461030057806344d171871461032a57806352058d8a1461035257806354f6127f1461037c57806365aeaa95146103b85780636963d438146103f4576101bc565b806301ffc9a71461022257806318160ddd1461025e5780632bc1da82146102885780632d7667c9146102b057806330d0dc37146102d8576101bc565b366101bc575f340361018a576040517fe5099ee30000000000000000000000000000000000000000000000000000000081526004016101819061299d565b60405180910390fd5b6040517f388f5adc00000000000000000000000000000000000000000000000000000000815260040160405180910390fd5b5f36606060045f369050101561020b5782826040517fe5099ee3000000000000000000000000000000000000000000000000000000008152600401610202929190612a05565b60405180910390fd5b6102158383610624565b9050915050805190602001f35b34801561022d575f5ffd5b5061024860048036038101906102439190612a8d565b61079a565b6040516102559190612ad2565b60405180910390f35b348015610269575f5ffd5b5061027261080a565b60405161027f9190612b03565b60405180910390f35b348015610293575f5ffd5b506102ae60048036038101906102a99190612cbe565b610813565b005b3480156102bb575f5ffd5b506102d660048036038101906102d19190613076565b6108ba565b005b3480156102e3575f5ffd5b506102fe60048036038101906102f99190613179565b6109cc565b005b34801561030b575f5ffd5b50610314610ac6565b6040516103219190613214565b60405180910390f35b348015610335575f5ffd5b50610350600480360381019061034b9190612cbe565b610ae8565b005b34801561035d575f5ffd5b50610366610b37565b6040516103739190612b03565b60405180910390f35b348015610387575f5ffd5b506103a2600480360381019061039d9190613260565b610b3d565b6040516103af91906132db565b60405180910390f35b3480156103c3575f5ffd5b506103de60048036038101906103d991906132fb565b610b4f565b6040516103eb9190612b03565b60405180910390f35b3480156103ff575f5ffd5b5061041a60048036038101906104159190613392565b610c4a565b60405161042791906134e0565b60405180910390f35b34801561043b575f5ffd5b5061045660048036038101906104519190613500565b610dc0565b6040516104639190612b03565b60405180910390f35b348015610477575f5ffd5b50610480610e06565b005b34801561048d575f5ffd5b506104a860048036038101906104a3919061352b565b610e19565b005b3480156104b5575f5ffd5b506104d060048036038101906104cb91906135ab565b610e33565b005b3480156104dd575f5ffd5b506104f860048036038101906104f3919061363e565b610e86565b005b610514600480360381019061050f91906136be565b610fc9565b005b348015610521575f5ffd5b5061052a611018565b6040516105379190613727565b60405180910390f35b61055a60048036038101906105559190613800565b61103f565b005b348015610567575f5ffd5b50610582600480360381019061057d9190612cbe565b611151565b005b34801561058f575f5ffd5b506105aa60048036038101906105a59190613500565b611196565b6040516105b7919061392d565b60405180910390f35b3480156105cb575f5ffd5b506105e660048036038101906105e1919061394d565b6111e4565b6040516105f391906134e0565b60405180910390f35b348015610607575f5ffd5b50610622600480360381019061061d9190613500565b611297565b005b60605f6106535f357fffffffff0000000000000000000000000000000000000000000000000000000016611310565b5090505f73ffffffffffffffffffffffffffffffffffffffff168173ffffffffffffffffffffffffffffffffffffffff16036106e9575f357fffffffff00000000000000000000000000000000000000000000000000000000166040517fbb370b2b0000000000000000000000000000000000000000000000000000000081526004016106e091906139a3565b60405180910390fd5b5f5f8273ffffffffffffffffffffffffffffffffffffffff16348787333460405160200161071a9493929190613a4f565b6040516020818303038152906040526040516107369190613ab9565b5f6040518083038185875af1925050503d805f8114610770576040519150601f19603f3d011682016040523d82523d5f602084013e610775565b606091505b5091509150811561078b57809350505050610794565b80518060208301fd5b92915050565b5f63c52d600860e01b7bffffffffffffffffffffffffffffffffffffffffffffffffffffffff1916827bffffffffffffffffffffffffffffffffffffffffffffffffffffffff191614806107f357506107f2826113c6565b5b80610803575061080282611426565b5b9050919050565b5f600354905090565b5f61081e8433610b4f565b90505f810361086457836040517fcba6e97700000000000000000000000000000000000000000000000000000000815260040161085b9190613727565b60405180910390fd5b5f83826108719190613afc565b905061088133868360018761148a565b5f33828560405160200161089793929190613b2f565b60405160208183030381529060405290506108b28682611753565b505050505050565b5f855190508451811415806108d0575083518114155b806108dc575082518114155b806108e8575081518114155b1561091f576040517f263eee8d00000000000000000000000000000000000000000000000000000000815260040160405180910390fd5b5f5b818110156109c3576109b887828151811061093f5761093e613b6b565b5b602002602001015187838151811061095a57610959613b6b565b5b602002602001015187848151811061097557610974613b6b565b5b60200260200101518785815181106109905761098f613b6b565b5b60200260200101518786815181106109ab576109aa613b6b565b5b6020026020010151610e33565b806001019050610921565b50505050505050565b8273ffffffffffffffffffffffffffffffffffffffff163373ffffffffffffffffffffffffffffffffffffffff1614158015610a3457508373ffffffffffffffffffffffffffffffffffffffff163373ffffffffffffffffffffffffffffffffffffffff1614155b15610a7a573383856040517f1a525b32000000000000000000000000000000000000000000000000000000008152600401610a7193929190613b98565b60405180910390fd5b610a8783855f858561148a565b8115610ac0575f835f83604051602001610aa393929190613c0f565b6040516020818303038152906040529050610abe8582611753565b505b50505050565b5f60025f9054906101000a900460ff16610ae1576012610ae3565b5f5b905090565b8273ffffffffffffffffffffffffffffffffffffffff163373ffffffffffffffffffffffffffffffffffffffff1614610b2757610b26338484611784565b5b610b32838383611877565b505050565b60075481565b6060610b4882611aa5565b9050919050565b5f8273ffffffffffffffffffffffffffffffffffffffff168273ffffffffffffffffffffffffffffffffffffffff1603610bc85760045f8373ffffffffffffffffffffffffffffffffffffffff1673ffffffffffffffffffffffffffffffffffffffff1681526020019081526020015f20549050610c44565b60065f8373ffffffffffffffffffffffffffffffffffffffff1673ffffffffffffffffffffffffffffffffffffffff1681526020019081526020015f205f8473ffffffffffffffffffffffffffffffffffffffff1673ffffffffffffffffffffffffffffffffffffffff1681526020019081526020015f205490505b92915050565b60608282905067ffffffffffffffff811115610c6957610c68612ba8565b5b604051908082528060200260200182016040528015610c9c57816020015b6060815260200190600190039081610c875790505b5090505f5b83839050811015610db9575f5f3073ffffffffffffffffffffffffffffffffffffffff16868685818110610cd857610cd7613b6b565b5b9050602002810190610cea9190613c57565b604051610cf8929190613cb9565b5f60405180830381855af49150503d805f8114610d30576040519150601f19603f3d011682016040523d82523d5f602084013e610d35565b606091505b509150915081610d8d575f815114610d505780518082602001fd5b826040517fb774c284000000000000000000000000000000000000000000000000000000008152600401610d849190612b03565b60405180910390fd5b80848481518110610da157610da0613b6b565b5b60200260200101819052508260010192505050610ca1565b5092915050565b5f60045f8373ffffffffffffffffffffffffffffffffffffffff1673ffffffffffffffffffffffffffffffffffffffff1681526020019081526020015f20549050919050565b610e0e611b46565b610e175f611bbf565b565b610e21611b46565b610e2d84848484611cb6565b50505050565b8473ffffffffffffffffffffffffffffffffffffffff163373ffffffffffffffffffffffffffffffffffffffff1614610e7257610e71338685611784565b5b610e7f8585858585611d2c565b5050505050565b8273ffffffffffffffffffffffffffffffffffffffff163373ffffffffffffffffffffffffffffffffffffffff1614158015610eee57508373ffffffffffffffffffffffffffffffffffffffff163373ffffffffffffffffffffffffffffffffffffffff1614155b15610f34573383856040517f98ce2945000000000000000000000000000000000000000000000000000000008152600401610f2b93929190613b98565b60405180910390fd5b5f610f3f8585610b4f565b905082811015610f7b576040517f0ef76c3500000000000000000000000000000000000000000000000000000000815260040160405180910390fd5b5f8382039050610f8f85878360018761148a565b5f858285604051602001610fa593929190613b2f565b6040516020818303038152906040529050610fc08782611753565b50505050505050565b610fd1611b46565b5f341461100a576040517ff36ba73700000000000000000000000000000000000000000000000000000000815260040160405180910390fd5b6110148282611fd9565b5050565b5f5f5f9054906101000a900473ffffffffffffffffffffffffffffffffffffffff16905090565b611047611b46565b5f3414611080576040517ff36ba73700000000000000000000000000000000000000000000000000000000815260040160405180910390fd5b80518251146110bb576040517f3bcc897900000000000000000000000000000000000000000000000000000000815260040160405180910390fd5b5f8251036110f5576040517f97da5f9500000000000000000000000000000000000000000000000000000000815260040160405180910390fd5b5f5f90505b825181101561114c5761114183828151811061111957611118613b6b565b5b602002602001015183838151811061113457611133613b6b565b5b6020026020010151611fd9565b8060010190506110fa565b505050565b61115f33848460018561148a565b5f33838360405160200161117593929190613b2f565b60405160208183030381529060405290506111908482611753565b50505050565b60606111dd60055f8473ffffffffffffffffffffffffffffffffffffffff1673ffffffffffffffffffffffffffffffffffffffff1681526020019081526020015f20611fe7565b9050919050565b6060815167ffffffffffffffff81111561120157611200612ba8565b5b60405190808252806020026020018201604052801561123457816020015b606081526020019060019003908161121f5790505b5090505f5f90505b82518110156112915761126883828151811061125b5761125a613b6b565b5b6020026020010151611aa5565b82828151811061127b5761127a613b6b565b5b602002602001018190525080600101905061123c565b50919050565b61129f611b46565b5f73ffffffffffffffffffffffffffffffffffffffff168173ffffffffffffffffffffffffffffffffffffffff1603611304576040517f1ad8836c00000000000000000000000000000000000000000000000000000000815260040160405180910390fd5b61130d81611bbf565b50565b5f5f5f61134969cee78b4094da8601109660b01b857bffffffffffffffffffffffffffffffffffffffffffffffffffffffff1916612006565b90505f61135582611aa5565b9050601481511415801561136a57505f815114155b156113ac57806040517f42bfe79f0000000000000000000000000000000000000000000000000000000081526004016113a391906132db565b60405180910390fd5b806113b690613d2b565b60601c6001935093505050915091565b5f63a918fa6b60e01b7bffffffffffffffffffffffffffffffffffffffffffffffffffffffff1916827bffffffffffffffffffffffffffffffffffffffffffffffffffffffff1916148061141f575061141e82612044565b5b9050919050565b5f5f6114386301ffc9a760e01b611310565b5090505f73ffffffffffffffffffffffffffffffffffffffff168173ffffffffffffffffffffffffffffffffffffffff1603611477575f915050611485565b611481818461210d565b9150505b919050565b5f73ffffffffffffffffffffffffffffffffffffffff168473ffffffffffffffffffffffffffffffffffffffff16036114ef576040517f6355e76600000000000000000000000000000000000000000000000000000000815260040160405180910390fd5b8473ffffffffffffffffffffffffffffffffffffffff168473ffffffffffffffffffffffffffffffffffffffff1603611554576040517fdab7504700000000000000000000000000000000000000000000000000000000815260040160405180910390fd5b8260065f8773ffffffffffffffffffffffffffffffffffffffff1673ffffffffffffffffffffffffffffffffffffffff1681526020019081526020015f205f8673ffffffffffffffffffffffffffffffffffffffff1673ffffffffffffffffffffffffffffffffffffffff1681526020019081526020015f20819055505f8314611693576116278460055f8873ffffffffffffffffffffffffffffffffffffffff1673ffffffffffffffffffffffffffffffffffffffff1681526020019081526020015f206121c690919063ffffffff16565b50828573ffffffffffffffffffffffffffffffffffffffff168573ffffffffffffffffffffffffffffffffffffffff167ff772a43bfdf4729b196e3fb54a818b91a2ca6c49d10b2e16278752f9f515c25d8460405161168691906132db565b60405180910390a461174c565b6116e28460055f8873ffffffffffffffffffffffffffffffffffffffff1673ffffffffffffffffffffffffffffffffffffffff1681526020019081526020015f206121f390919063ffffffff16565b508115158573ffffffffffffffffffffffffffffffffffffffff168573ffffffffffffffffffffffffffffffffffffffff167f0ebf5762d8855cbe012d2ca42fb33a81175e17c8a8751f8859931ba453bd41678460405161174391906132db565b60405180910390a45b5050505050565b611780827f386072cc5a58e61263b434c722725f21031cd06e7c552cfaa06db5de8a320dbc5f1b83612220565b5050565b5f60065f8473ffffffffffffffffffffffffffffffffffffffff1673ffffffffffffffffffffffffffffffffffffffff1681526020019081526020015f205f8573ffffffffffffffffffffffffffffffffffffffff1673ffffffffffffffffffffffffffffffffffffffff1681526020019081526020015f205490508082111561184b57828185846040517ff3a6b6910000000000000000000000000000000000000000000000000000000081526004016118429493929190613d91565b60405180910390fd5b6118718385848461185c9190613dd4565b5f60405180602001604052805f81525061148a565b50505050565b5f73ffffffffffffffffffffffffffffffffffffffff168373ffffffffffffffffffffffffffffffffffffffff16036118dc576040517fd2d5ec3000000000000000000000000000000000000000000000000000000000815260040160405180910390fd5b6118e8835f84846122da565b5f60045f8573ffffffffffffffffffffffffffffffffffffffff1673ffffffffffffffffffffffffffffffffffffffff1681526020019081526020015f2054905080831115611972578084846040517f08d4794900000000000000000000000000000000000000000000000000000000815260040161196993929190613e07565b60405180910390fd5b8260035f8282546119839190613dd4565b925050819055508260045f8673ffffffffffffffffffffffffffffffffffffffff1673ffffffffffffffffffffffffffffffffffffffff1681526020019081526020015f205f8282546119d69190613dd4565b925050819055505f73ffffffffffffffffffffffffffffffffffffffff168473ffffffffffffffffffffffffffffffffffffffff163373ffffffffffffffffffffffffffffffffffffffff167f3997e418d2cef0b3b0e907b1e39605c3f7d32dbd061e82ea5b4a770d46a160a6865f87604051611a5593929190613e3c565b60405180910390a4611a69845f85856122e0565b5f33855f8686604051602001611a83959493929190613e78565b6040516020818303038152906040529050611a9e85826122e6565b5050505050565b606060015f8381526020019081526020015f208054611ac390613efd565b80601f0160208091040260200160405190810160405280929190818152602001828054611aef90613efd565b8015611b3a5780601f10611b1157610100808354040283529160200191611b3a565b820191905f5260205f20905b815481529060010190602001808311611b1d57829003601f168201915b50505050509050919050565b3373ffffffffffffffffffffffffffffffffffffffff16611b65611018565b73ffffffffffffffffffffffffffffffffffffffff1614611bbd57336040517fbf1169c5000000000000000000000000000000000000000000000000000000008152600401611bb49190613727565b60405180910390fd5b565b611bc7611018565b73ffffffffffffffffffffffffffffffffffffffff168173ffffffffffffffffffffffffffffffffffffffff1614611cb3578073ffffffffffffffffffffffffffffffffffffffff165f5f9054906101000a900473ffffffffffffffffffffffffffffffffffffffff1673ffffffffffffffffffffffffffffffffffffffff167f8be0079c531659141344cd1fd0a4f28419497f9722a3daafe3b4186f6b6457e060405160405180910390a3805f5f6101000a81548173ffffffffffffffffffffffffffffffffffffffff021916908373ffffffffffffffffffffffffffffffffffffffff1602179055505b50565b60075483611cc261080a565b611ccc9190613afc565b1115611d1a57611cda61080a565b6007546040517f3dc729a7000000000000000000000000000000000000000000000000000000008152600401611d11929190613f2d565b60405180910390fd5b611d2684848484612317565b50505050565b5f73ffffffffffffffffffffffffffffffffffffffff168573ffffffffffffffffffffffffffffffffffffffff161480611d9157505f73ffffffffffffffffffffffffffffffffffffffff168473ffffffffffffffffffffffffffffffffffffffff16145b15611dc8576040517fd2d5ec3000000000000000000000000000000000000000000000000000000000815260040160405180910390fd5b611dd4858585846122da565b5f60045f8773ffffffffffffffffffffffffffffffffffffffff1673ffffffffffffffffffffffffffffffffffffffff1681526020019081526020015f2054905080841115611e5e578086856040517f08d47949000000000000000000000000000000000000000000000000000000008152600401611e5593929190613e07565b60405180910390fd5b8360045f8873ffffffffffffffffffffffffffffffffffffffff1673ffffffffffffffffffffffffffffffffffffffff1681526020019081526020015f205f828254611eaa9190613dd4565b925050819055508360045f8773ffffffffffffffffffffffffffffffffffffffff1673ffffffffffffffffffffffffffffffffffffffff1681526020019081526020015f205f828254611efd9190613afc565b925050819055508473ffffffffffffffffffffffffffffffffffffffff168673ffffffffffffffffffffffffffffffffffffffff163373ffffffffffffffffffffffffffffffffffffffff167f3997e418d2cef0b3b0e907b1e39605c3f7d32dbd061e82ea5b4a770d46a160a6878787604051611f7c93929190613e3c565b60405180910390a4611f90868686856122e0565b5f3387878786604051602001611faa959493929190613e78565b6040516020818303038152906040529050611fc587826122e6565b611fd08685836124bc565b50505050505050565b611fe3828261261b565b5050565b60605f611ff5835f01612787565b905060608190508092505050919050565b5f5f835f60f01b846040516020016120209392919061400a565b60405160208183030381529060405290508061203b9061405a565b91505092915050565b5f63629aa69460e01b7bffffffffffffffffffffffffffffffffffffffffffffffffffffffff1916827bffffffffffffffffffffffffffffffffffffffffffffffffffffffff1916148061209d575061209c826120a4565b5b9050919050565b5f7f01ffc9a7000000000000000000000000000000000000000000000000000000007bffffffffffffffffffffffffffffffffffffffffffffffffffffffff1916827bffffffffffffffffffffffffffffffffffffffffffffffffffffffff1916149050919050565b5f5f6301ffc9a760e01b8360405160240161212891906139a3565b604051602081830303815290604052907bffffffffffffffffffffffffffffffffffffffffffffffffffffffff19166020820180517bffffffffffffffffffffffffffffffffffffffffffffffffffffffff838183161783525050505090505f5f5f60205f8551602087018a617530fa92503d91505f5190508280156121af575060208210155b80156121ba57505f81115b94505050505092915050565b5f6121eb835f018373ffffffffffffffffffffffffffffffffffffffff165f1b6127e0565b905092915050565b5f612218835f018373ffffffffffffffffffffffffffffffffffffffff165f1b612847565b905092915050565b612250636bb56a1460e01b8473ffffffffffffffffffffffffffffffffffffffff1661210d90919063ffffffff16565b156122d5578273ffffffffffffffffffffffffffffffffffffffff16636bb56a1483836040518363ffffffff1660e01b81526004016122909291906140cf565b5f604051808303815f875af11580156122ab573d5f5f3e3d5ffd5b505050506040513d5f823e3d601f19601f820116820180604052508101906122d3919061416b565b505b505050565b50505050565b50505050565b612313827f429ac7a06903dbc9c13dfcb3c9d11df8194581fa047c96d7a4171fc7402958ea5f1b83612220565b5050565b5f73ffffffffffffffffffffffffffffffffffffffff168473ffffffffffffffffffffffffffffffffffffffff160361237c576040517fd2d5ec3000000000000000000000000000000000000000000000000000000000815260040160405180910390fd5b6123885f8585846122da565b8260035f8282546123999190613afc565b925050819055508260045f8673ffffffffffffffffffffffffffffffffffffffff1673ffffffffffffffffffffffffffffffffffffffff1681526020019081526020015f205f8282546123ec9190613afc565b925050819055508373ffffffffffffffffffffffffffffffffffffffff165f73ffffffffffffffffffffffffffffffffffffffff163373ffffffffffffffffffffffffffffffffffffffff167f3997e418d2cef0b3b0e907b1e39605c3f7d32dbd061e82ea5b4a770d46a160a686868660405161246b93929190613e3c565b60405180910390a461247f5f8585846122e0565b5f335f868685604051602001612499959493929190613e78565b60405160208183030381529060405290506124b58584836124bc565b5050505050565b6124cd83636bb56a1460e01b61210d565b15612578578273ffffffffffffffffffffffffffffffffffffffff16636bb56a147f20804611b3e2ea21c480dc465142210acf4a2485947541770ec1fb87dee4a55c5f1b836040518363ffffffff1660e01b815260040161252f9291906140cf565b5f604051808303815f875af115801561254a573d5f5f3e3d5ffd5b505050506040513d5f823e3d601f19601f82011682018060405250810190612572919061416b565b50612616565b81612615575f8373ffffffffffffffffffffffffffffffffffffffff163b146125d857826040517fa608fbb60000000000000000000000000000000000000000000000000000000081526004016125cf9190613727565b60405180910390fd5b826040517f26c247f400000000000000000000000000000000000000000000000000000000815260040161260c9190613727565b60405180910390fd5b5b505050565b7fdeba1e292f8ba88238e10ab3c7f88bd4be4fac56cad5194b6ecceaf653468af15f1b8203612676576040517f85c169bd00000000000000000000000000000000000000000000000000000000815260040160405180910390fd5b7f2f0a68ab07768e01943a599e73362a0e17a63a72e94dd2e384d2c1d4db9327565f1b82036126d1576040517f76755b3800000000000000000000000000000000000000000000000000000000815260040160405180910390fd5b7fe0261fa95db2eb3b5439bd033cda66d56b96f92f243a8228fd87550ed7bdfdb35f1b820361272c576040517f4ef6d7fb00000000000000000000000000000000000000000000000000000000815260040160405180910390fd5b8060015f8481526020019081526020015f20908161274a919061433d565b50817fece574603820d07bc9b91f2a932baadf4628aabcb8afba49776529c14a6104b28260405161277b91906132db565b60405180910390a25050565b6060815f018054806020026020016040519081016040528092919081815260200182805480156127d457602002820191905f5260205f20905b8154815260200190600101908083116127c0575b50505050509050919050565b5f6127eb8383612943565b61283d57825f0182908060018154018082558091505060019003905f5260205f20015f9091909190915055825f0180549050836001015f8481526020019081526020015f208190555060019050612841565b5f90505b92915050565b5f5f836001015f8481526020019081526020015f205490505f8114612938575f6001826128749190613dd4565b90505f6001865f018054905061288a9190613dd4565b90508181146128f0575f865f0182815481106128a9576128a8613b6b565b5b905f5260205f200154905080875f0184815481106128ca576128c9613b6b565b5b905f5260205f20018190555083876001015f8381526020019081526020015f2081905550505b855f018054806129035761290261440c565b5b600190038181905f5260205f20015f90559055856001015f8681526020019081526020015f205f90556001935050505061293d565b5f9150505b92915050565b5f5f836001015f8481526020019081526020015f20541415905092915050565b5f82825260208201905092915050565b5f5f82015250565b5f612987600483612963565b915061299282612973565b602082019050919050565b5f6020820190508181035f8301526129b48161297b565b9050919050565b828183375f83830152505050565b5f601f19601f8301169050919050565b5f6129e48385612963565b93506129f18385846129bb565b6129fa836129c9565b840190509392505050565b5f6020820190508181035f830152612a1e8184866129d9565b90509392505050565b5f604051905090565b5f5ffd5b5f5ffd5b5f7fffffffff0000000000000000000000000000000000000000000000000000000082169050919050565b612a6c81612a38565b8114612a76575f5ffd5b50565b5f81359050612a8781612a63565b92915050565b5f60208284031215612aa257612aa1612a30565b5b5f612aaf84828501612a79565b91505092915050565b5f8115159050919050565b612acc81612ab8565b82525050565b5f602082019050612ae55f830184612ac3565b92915050565b5f819050919050565b612afd81612aeb565b82525050565b5f602082019050612b165f830184612af4565b92915050565b5f73ffffffffffffffffffffffffffffffffffffffff82169050919050565b5f612b4582612b1c565b9050919050565b612b5581612b3b565b8114612b5f575f5ffd5b50565b5f81359050612b7081612b4c565b92915050565b612b7f81612aeb565b8114612b89575f5ffd5b50565b5f81359050612b9a81612b76565b92915050565b5f5ffd5b5f5ffd5b7f4e487b71000000000000000000000000000000000000000000000000000000005f52604160045260245ffd5b612bde826129c9565b810181811067ffffffffffffffff82111715612bfd57612bfc612ba8565b5b80604052505050565b5f612c0f612a27565b9050612c1b8282612bd5565b919050565b5f67ffffffffffffffff821115612c3a57612c39612ba8565b5b612c43826129c9565b9050602081019050919050565b5f612c62612c5d84612c20565b612c06565b905082815260208101848484011115612c7e57612c7d612ba4565b5b612c898482856129bb565b509392505050565b5f82601f830112612ca557612ca4612ba0565b5b8135612cb5848260208601612c50565b91505092915050565b5f5f5f60608486031215612cd557612cd4612a30565b5b5f612ce286828701612b62565b9350506020612cf386828701612b8c565b925050604084013567ffffffffffffffff811115612d1457612d13612a34565b5b612d2086828701612c91565b9150509250925092565b5f67ffffffffffffffff821115612d4457612d43612ba8565b5b602082029050602081019050919050565b5f5ffd5b5f612d6b612d6684612d2a565b612c06565b90508083825260208201905060208402830185811115612d8e57612d8d612d55565b5b835b81811015612db75780612da38882612b62565b845260208401935050602081019050612d90565b5050509392505050565b5f82601f830112612dd557612dd4612ba0565b5b8135612de5848260208601612d59565b91505092915050565b5f67ffffffffffffffff821115612e0857612e07612ba8565b5b602082029050602081019050919050565b5f612e2b612e2684612dee565b612c06565b90508083825260208201905060208402830185811115612e4e57612e4d612d55565b5b835b81811015612e775780612e638882612b8c565b845260208401935050602081019050612e50565b5050509392505050565b5f82601f830112612e9557612e94612ba0565b5b8135612ea5848260208601612e19565b91505092915050565b5f67ffffffffffffffff821115612ec857612ec7612ba8565b5b602082029050602081019050919050565b612ee281612ab8565b8114612eec575f5ffd5b50565b5f81359050612efd81612ed9565b92915050565b5f612f15612f1084612eae565b612c06565b90508083825260208201905060208402830185811115612f3857612f37612d55565b5b835b81811015612f615780612f4d8882612eef565b845260208401935050602081019050612f3a565b5050509392505050565b5f82601f830112612f7f57612f7e612ba0565b5b8135612f8f848260208601612f03565b91505092915050565b5f67ffffffffffffffff821115612fb257612fb1612ba8565b5b602082029050602081019050919050565b5f612fd5612fd084612f98565b612c06565b90508083825260208201905060208402830185811115612ff857612ff7612d55565b5b835b8181101561303f57803567ffffffffffffffff81111561301d5761301c612ba0565b5b80860161302a8982612c91565b85526020850194505050602081019050612ffa565b5050509392505050565b5f82601f83011261305d5761305c612ba0565b5b813561306d848260208601612fc3565b91505092915050565b5f5f5f5f5f60a0868803121561308f5761308e612a30565b5b5f86013567ffffffffffffffff8111156130ac576130ab612a34565b5b6130b888828901612dc1565b955050602086013567ffffffffffffffff8111156130d9576130d8612a34565b5b6130e588828901612dc1565b945050604086013567ffffffffffffffff81111561310657613105612a34565b5b61311288828901612e81565b935050606086013567ffffffffffffffff81111561313357613132612a34565b5b61313f88828901612f6b565b925050608086013567ffffffffffffffff8111156131605761315f612a34565b5b61316c88828901613049565b9150509295509295909350565b5f5f5f5f6080858703121561319157613190612a30565b5b5f61319e87828801612b62565b94505060206131af87828801612b62565b93505060406131c087828801612eef565b925050606085013567ffffffffffffffff8111156131e1576131e0612a34565b5b6131ed87828801612c91565b91505092959194509250565b5f60ff82169050919050565b61320e816131f9565b82525050565b5f6020820190506132275f830184613205565b92915050565b5f819050919050565b61323f8161322d565b8114613249575f5ffd5b50565b5f8135905061325a81613236565b92915050565b5f6020828403121561327557613274612a30565b5b5f6132828482850161324c565b91505092915050565b5f81519050919050565b8281835e5f83830152505050565b5f6132ad8261328b565b6132b78185612963565b93506132c7818560208601613295565b6132d0816129c9565b840191505092915050565b5f6020820190508181035f8301526132f381846132a3565b905092915050565b5f5f6040838503121561331157613310612a30565b5b5f61331e85828601612b62565b925050602061332f85828601612b62565b9150509250929050565b5f5ffd5b5f5f83601f84011261335257613351612ba0565b5b8235905067ffffffffffffffff81111561336f5761336e613339565b5b60208301915083602082028301111561338b5761338a612d55565b5b9250929050565b5f5f602083850312156133a8576133a7612a30565b5b5f83013567ffffffffffffffff8111156133c5576133c4612a34565b5b6133d18582860161333d565b92509250509250929050565b5f81519050919050565b5f82825260208201905092915050565b5f819050602082019050919050565b5f82825260208201905092915050565b5f6134208261328b565b61342a8185613406565b935061343a818560208601613295565b613443816129c9565b840191505092915050565b5f6134598383613416565b905092915050565b5f602082019050919050565b5f613477826133dd565b61348181856133e7565b935083602082028501613493856133f7565b805f5b858110156134ce57848403895281516134af858261344e565b94506134ba83613461565b925060208a01995050600181019050613496565b50829750879550505050505092915050565b5f6020820190508181035f8301526134f8818461346d565b905092915050565b5f6020828403121561351557613514612a30565b5b5f61352284828501612b62565b91505092915050565b5f5f5f5f6080858703121561354357613542612a30565b5b5f61355087828801612b62565b945050602061356187828801612b8c565b935050604061357287828801612eef565b925050606085013567ffffffffffffffff81111561359357613592612a34565b5b61359f87828801612c91565b91505092959194509250565b5f5f5f5f5f60a086880312156135c4576135c3612a30565b5b5f6135d188828901612b62565b95505060206135e288828901612b62565b94505060406135f388828901612b8c565b935050606061360488828901612eef565b925050608086013567ffffffffffffffff81111561362557613624612a34565b5b61363188828901612c91565b9150509295509295909350565b5f5f5f5f6080858703121561365657613655612a30565b5b5f61366387828801612b62565b945050602061367487828801612b62565b935050604061368587828801612b8c565b925050606085013567ffffffffffffffff8111156136a6576136a5612a34565b5b6136b287828801612c91565b91505092959194509250565b5f5f604083850312156136d4576136d3612a30565b5b5f6136e18582860161324c565b925050602083013567ffffffffffffffff81111561370257613701612a34565b5b61370e85828601612c91565b9150509250929050565b61372181612b3b565b82525050565b5f60208201905061373a5f830184613718565b92915050565b5f67ffffffffffffffff82111561375a57613759612ba8565b5b602082029050602081019050919050565b5f61377d61377884613740565b612c06565b905080838252602082019050602084028301858111156137a05761379f612d55565b5b835b818110156137c957806137b5888261324c565b8452602084019350506020810190506137a2565b5050509392505050565b5f82601f8301126137e7576137e6612ba0565b5b81356137f784826020860161376b565b91505092915050565b5f5f6040838503121561381657613815612a30565b5b5f83013567ffffffffffffffff81111561383357613832612a34565b5b61383f858286016137d3565b925050602083013567ffffffffffffffff8111156138605761385f612a34565b5b61386c85828601613049565b9150509250929050565b5f81519050919050565b5f82825260208201905092915050565b5f819050602082019050919050565b6138a881612b3b565b82525050565b5f6138b9838361389f565b60208301905092915050565b5f602082019050919050565b5f6138db82613876565b6138e58185613880565b93506138f083613890565b805f5b8381101561392057815161390788826138ae565b9750613912836138c5565b9250506001810190506138f3565b5085935050505092915050565b5f6020820190508181035f83015261394581846138d1565b905092915050565b5f6020828403121561396257613961612a30565b5b5f82013567ffffffffffffffff81111561397f5761397e612a34565b5b61398b848285016137d3565b91505092915050565b61399d81612a38565b82525050565b5f6020820190506139b65f830184613994565b92915050565b5f81905092915050565b5f6139d183856139bc565b93506139de8385846129bb565b82840190509392505050565b5f8160601b9050919050565b5f613a00826139ea565b9050919050565b5f613a11826139f6565b9050919050565b613a29613a2482612b3b565b613a07565b82525050565b5f819050919050565b613a49613a4482612aeb565b613a2f565b82525050565b5f613a5b8286886139c6565b9150613a678285613a18565b601482019150613a778284613a38565b60208201915081905095945050505050565b5f613a938261328b565b613a9d81856139bc565b9350613aad818560208601613295565b80840191505092915050565b5f613ac48284613a89565b915081905092915050565b7f4e487b71000000000000000000000000000000000000000000000000000000005f52601160045260245ffd5b5f613b0682612aeb565b9150613b1183612aeb565b9250828201905080821115613b2957613b28613acf565b5b92915050565b5f606082019050613b425f830186613718565b613b4f6020830185612af4565b8181036040830152613b6181846132a3565b9050949350505050565b7f4e487b71000000000000000000000000000000000000000000000000000000005f52603260045260245ffd5b5f606082019050613bab5f830186613718565b613bb86020830185613718565b613bc56040830184613718565b949350505050565b5f819050919050565b5f819050919050565b5f613bf9613bf4613bef84613bcd565b613bd6565b6131f9565b9050919050565b613c0981613bdf565b82525050565b5f606082019050613c225f830186613718565b613c2f6020830185613c00565b8181036040830152613c4181846132a3565b9050949350505050565b5f5ffd5b5f5ffd5b5f5ffd5b5f5f83356001602003843603038112613c7357613c72613c4b565b5b80840192508235915067ffffffffffffffff821115613c9557613c94613c4f565b5b602083019250600182023603831315613cb157613cb0613c53565b5b509250929050565b5f613cc58284866139c6565b91508190509392505050565b5f819050602082019050919050565b5f7fffffffffffffffffffffffffffffffffffffffff00000000000000000000000082169050919050565b5f613d168251613ce0565b80915050919050565b5f82821b905092915050565b5f613d358261328b565b82613d3f84613cd1565b9050613d4a81613d0b565b92506014821015613d8a57613d857fffffffffffffffffffffffffffffffffffffffff00000000000000000000000083601403600802613d1f565b831692505b5050919050565b5f608082019050613da45f830187613718565b613db16020830186612af4565b613dbe6040830185613718565b613dcb6060830184612af4565b95945050505050565b5f613dde82612aeb565b9150613de983612aeb565b9250828203905081811115613e0157613e00613acf565b5b92915050565b5f606082019050613e1a5f830186612af4565b613e276020830185613718565b613e346040830184612af4565b949350505050565b5f606082019050613e4f5f830186612af4565b613e5c6020830185612ac3565b8181036040830152613e6e81846132a3565b9050949350505050565b5f60a082019050613e8b5f830188613718565b613e986020830187613718565b613ea56040830186613718565b613eb26060830185612af4565b8181036080830152613ec481846132a3565b90509695505050505050565b7f4e487b71000000000000000000000000000000000000000000000000000000005f52602260045260245ffd5b5f6002820490506001821680613f1457607f821691505b602082108103613f2757613f26613ed0565b5b50919050565b5f604082019050613f405f830185612af4565b613f4d6020830184612af4565b9392505050565b5f7fffffffffffffffffffff0000000000000000000000000000000000000000000082169050919050565b5f819050919050565b613f99613f9482613f54565b613f7f565b82525050565b5f7fffff00000000000000000000000000000000000000000000000000000000000082169050919050565b5f819050919050565b613fe4613fdf82613f9f565b613fca565b82525050565b5f819050919050565b614004613fff82613ce0565b613fea565b82525050565b5f6140158286613f88565b600a820191506140258285613fd3565b6002820191506140358284613ff3565b601482019150819050949350505050565b5f614051825161322d565b80915050919050565b5f6140648261328b565b8261406e84613cd1565b905061407981614046565b925060208210156140b9576140b47fffffffffffffffffffffffffffffffffffffffffffffffffffffffffffffffff83602003600802613d1f565b831692505b5050919050565b6140c98161322d565b82525050565b5f6040820190506140e25f8301856140c0565b81810360208301526140f481846132a3565b90509392505050565b5f61410f61410a84612c20565b612c06565b90508281526020810184848401111561412b5761412a612ba4565b5b614136848285613295565b509392505050565b5f82601f83011261415257614151612ba0565b5b81516141628482602086016140fd565b91505092915050565b5f602082840312156141805761417f612a30565b5b5f82015167ffffffffffffffff81111561419d5761419c612a34565b5b6141a98482850161413e565b91505092915050565b5f819050815f5260205f209050919050565b5f6020601f8301049050919050565b5f600883026142027fffffffffffffffffffffffffffffffffffffffffffffffffffffffffffffffff82613d1f565b61420c8683613d1f565b95508019841693508086168417925050509392505050565b5f61423e61423961423484612aeb565b613bd6565b612aeb565b9050919050565b5f819050919050565b61425783614224565b61426b61426382614245565b8484546141d3565b825550505050565b5f5f905090565b614282614273565b61428d81848461424e565b505050565b5b818110156142b0576142a55f8261427a565b600181019050614293565b5050565b601f8211156142f5576142c6816141b2565b6142cf846141c4565b810160208510156142de578190505b6142f26142ea856141c4565b830182614292565b50505b505050565b5f82821c905092915050565b5f6143155f19846008026142fa565b1980831691505092915050565b5f61432d8383614306565b9150826002028217905092915050565b6143468261328b565b67ffffffffffffffff81111561435f5761435e612ba8565b5b6143698254613efd565b6143748282856142b4565b5f60209050601f8311600181146143a5575f8415614393578287015190505b61439d8582614322565b865550614404565b601f1984166143b3866141b2565b5f5b828110156143da578489015182556001820191506020850194506020810190506143b5565b868310156143f757848901516143f3601f891682614306565b8355505b6001600288020188555050505b505050505050565b7f4e487b71000000000000000000000000000000000000000000000000000000005f52603160045260245ffdfea264697066735822122023d48ef277a74b198489622462d56842ecf82848fc88c1fb4d02e04c2e28292164736f6c634300081d0033",
			"opcodes": "PUSH1 0x80 PUSH1 0x40 MSTORE CALLVALUE DUP1 ISZERO PUSH2 0xF JUMPI PUSH0 PUSH0 REVERT JUMPDEST POP PUSH1 0x40 MLOAD PUSH2 0x57E3 CODESIZE SUB DUP1 PUSH2 0x57E3 DUP4 CODECOPY DUP2 DUP2 ADD PUSH1 0x40 MSTORE DUP2 ADD SWAP1 PUSH2 0x31 SWAP2 SWAP1 PUSH2 0xAA8 JUMP JUMPDEST DUP3 DUP3 CALLER PUSH0 PUSH0 DUP5 DUP5 DUP5 DUP5 DUP5 DUP5 DUP5 DUP5 DUP5 DUP2 PUSH0 PUSH20 0xFFFFFFFFFFFFFFFFFFFFFFFFFFFFFFFFFFFFFFFF AND DUP2 PUSH20 0xFFFFFFFFFFFFFFFFFFFFFFFFFFFFFFFFFFFFFFFF AND SUB PUSH2 0xA5 JUMPI PUSH1 0x40 MLOAD PUSH32 0x1AD8836C00000000000000000000000000000000000000000000000000000000 DUP2 MSTORE PUSH1 0x4 ADD PUSH1 0x40 MLOAD DUP1 SWAP2 SUB SWAP1 REVERT JUMPDEST PUSH2 0xB4 DUP2 PUSH2 0x270 PUSH1 0x20 SHL PUSH1 0x20 SHR JUMP JUMPDEST POP PUSH2 0x11C PUSH32 0xEAFEC4D89FA9619884B60000A4D96624A38F7AC2D8D9A604ECF07C12C77E480C PUSH0 SHL PUSH1 0x40 MLOAD DUP1 PUSH1 0x40 ADD PUSH1 0x40 MSTORE DUP1 PUSH1 0x4 DUP2 MSTORE PUSH1 0x20 ADD PUSH32 0xA4D9662400000000000000000000000000000000000000000000000000000000 DUP2 MSTORE POP PUSH2 0x36D PUSH1 0x20 SHL PUSH1 0x20 SHR JUMP JUMPDEST PUSH2 0x14E PUSH32 0xDEBA1E292F8BA88238E10AB3C7F88BD4BE4FAC56CAD5194B6ECCEAF653468AF1 PUSH0 SHL DUP6 PUSH2 0x36D PUSH1 0x20 SHL PUSH1 0x20 SHR JUMP JUMPDEST PUSH2 0x180 PUSH32 0x2F0A68AB07768E01943A599E73362A0E17A63A72E94DD2E384D2C1D4DB932756 PUSH0 SHL DUP5 PUSH2 0x36D PUSH1 0x20 SHL PUSH1 0x20 SHR JUMP JUMPDEST PUSH2 0x1D1 PUSH32 0xE0261FA95DB2EB3B5439BD033CDA66D56B96F92F243A8228FD87550ED7BDFDB3 PUSH0 SHL DUP3 PUSH1 0x40 MLOAD PUSH1 0x20 ADD PUSH2 0x1B7 SWAP2 SWAP1 PUSH2 0xB3F JUMP JUMPDEST PUSH1 0x40 MLOAD PUSH1 0x20 DUP2 DUP4 SUB SUB DUP2 MSTORE SWAP1 PUSH1 0x40 MSTORE PUSH2 0x36D PUSH1 0x20 SHL PUSH1 0x20 SHR JUMP JUMPDEST POP POP POP POP DUP1 PUSH1 0x2 PUSH0 PUSH2 0x100 EXP DUP2 SLOAD DUP2 PUSH1 0xFF MUL NOT AND SWAP1 DUP4 ISZERO ISZERO MUL OR SWAP1 SSTORE POP POP POP POP POP POP POP POP POP POP POP PUSH2 0x206 PUSH2 0x3C8 PUSH1 0x20 SHL PUSH1 0x20 SHR JUMP JUMPDEST PUSH1 0xA PUSH2 0x212 SWAP2 SWAP1 PUSH2 0xCC0 JUMP JUMPDEST DUP2 PUSH2 0x21D SWAP2 SWAP1 PUSH2 0xD0A JUMP JUMPDEST PUSH1 0x7 DUP2 SWAP1 SSTORE POP PUSH2 0x268 CALLER PUSH2 0x235 PUSH2 0x3C8 PUSH1 0x20 SHL PUSH1 0x20 SHR JUMP JUMPDEST PUSH1 0xA PUSH2 0x241 SWAP2 SWAP1 PUSH2 0xCC0 JUMP JUMPDEST DUP4 PUSH2 0x24C SWAP2 SWAP1 PUSH2 0xD0A JUMP JUMPDEST PUSH1 0x1 PUSH1 0x40 MLOAD DUP1 PUSH1 0x20 ADD PUSH1 0x40 MSTORE DUP1 PUSH0 DUP2 MSTORE POP PUSH2 0x3EA PUSH1 0x20 SHL PUSH1 0x20 SHR JUMP JUMPDEST POP POP POP PUSH2 0x1367 JUMP JUMPDEST PUSH2 0x27E PUSH2 0x410 PUSH1 0x20 SHL PUSH1 0x20 SHR JUMP JUMPDEST PUSH20 0xFFFFFFFFFFFFFFFFFFFFFFFFFFFFFFFFFFFFFFFF AND DUP2 PUSH20 0xFFFFFFFFFFFFFFFFFFFFFFFFFFFFFFFFFFFFFFFF AND EQ PUSH2 0x36A JUMPI DUP1 PUSH20 0xFFFFFFFFFFFFFFFFFFFFFFFFFFFFFFFFFFFFFFFF AND PUSH0 PUSH0 SWAP1 SLOAD SWAP1 PUSH2 0x100 EXP SWAP1 DIV PUSH20 0xFFFFFFFFFFFFFFFFFFFFFFFFFFFFFFFFFFFFFFFF AND PUSH20 0xFFFFFFFFFFFFFFFFFFFFFFFFFFFFFFFFFFFFFFFF AND PUSH32 0x8BE0079C531659141344CD1FD0A4F28419497F9722A3DAAFE3B4186F6B6457E0 PUSH1 0x40 MLOAD PUSH1 0x40 MLOAD DUP1 SWAP2 SUB SWAP1 LOG3 DUP1 PUSH0 PUSH0 PUSH2 0x100 EXP DUP2 SLOAD DUP2 PUSH20 0xFFFFFFFFFFFFFFFFFFFFFFFFFFFFFFFFFFFFFFFF MUL NOT AND SWAP1 DUP4 PUSH20 0xFFFFFFFFFFFFFFFFFFFFFFFFFFFFFFFFFFFFFFFF AND MUL OR SWAP1 SSTORE POP JUMPDEST POP JUMP JUMPDEST DUP1 PUSH1 0x1 PUSH0 DUP5 DUP2 MSTORE PUSH1 0x20 ADD SWAP1 DUP2 MSTORE PUSH1 0x20 ADD PUSH0 KECCAK256 SWAP1 DUP2 PUSH2 0x38B SWAP2 SWAP1 PUSH2 0xF52 JUMP JUMPDEST POP DUP2 PUSH32 0xECE574603820D07BC9B91F2A932BAADF4628AABCB8AFBA49776529C14A6104B2 DUP3 PUSH1 0x40 MLOAD PUSH2 0x3BC SWAP2 SWAP1 PUSH2 0x1069 JUMP JUMPDEST PUSH1 0x40 MLOAD DUP1 SWAP2 SUB SWAP1 LOG2 POP POP JUMP JUMPDEST PUSH0 PUSH1 0x2 PUSH0 SWAP1 SLOAD SWAP1 PUSH2 0x100 EXP SWAP1 DIV PUSH1 0xFF AND PUSH2 0x3E3 JUMPI PUSH1 0x12 PUSH2 0x3E5 JUMP JUMPDEST PUSH0 JUMPDEST SWAP1 POP SWAP1 JUMP JUMPDEST PUSH2 0x3F8 PUSH2 0x437 PUSH1 0x20 SHL PUSH1 0x20 SHR JUMP JUMPDEST PUSH2 0x40A DUP5 DUP5 DUP5 DUP5 PUSH2 0x4B6 PUSH1 0x20 SHL PUSH1 0x20 SHR JUMP JUMPDEST POP POP POP POP JUMP JUMPDEST PUSH0 PUSH0 PUSH0 SWAP1 SLOAD SWAP1 PUSH2 0x100 EXP SWAP1 DIV PUSH20 0xFFFFFFFFFFFFFFFFFFFFFFFFFFFFFFFFFFFFFFFF AND SWAP1 POP SWAP1 JUMP JUMPDEST CALLER PUSH20 0xFFFFFFFFFFFFFFFFFFFFFFFFFFFFFFFFFFFFFFFF AND PUSH2 0x45C PUSH2 0x410 PUSH1 0x20 SHL PUSH1 0x20 SHR JUMP JUMPDEST PUSH20 0xFFFFFFFFFFFFFFFFFFFFFFFFFFFFFFFFFFFFFFFF AND EQ PUSH2 0x4B4 JUMPI CALLER PUSH1 0x40 MLOAD PUSH32 0xBF1169C500000000000000000000000000000000000000000000000000000000 DUP2 MSTORE PUSH1 0x4 ADD PUSH2 0x4AB SWAP2 SWAP1 PUSH2 0x10C8 JUMP JUMPDEST PUSH1 0x40 MLOAD DUP1 SWAP2 SUB SWAP1 REVERT JUMPDEST JUMP JUMPDEST PUSH1 0x7 SLOAD DUP4 PUSH2 0x4C8 PUSH2 0x53E PUSH1 0x20 SHL PUSH1 0x20 SHR JUMP JUMPDEST PUSH2 0x4D2 SWAP2 SWAP1 PUSH2 0x10E1 JUMP JUMPDEST GT ISZERO PUSH2 0x526 JUMPI PUSH2 0x4E6 PUSH2 0x53E PUSH1 0x20 SHL PUSH1 0x20 SHR JUMP JUMPDEST PUSH1 0x7 SLOAD PUSH1 0x40 MLOAD PUSH32 0x3DC729A700000000000000000000000000000000000000000000000000000000 DUP2 MSTORE PUSH1 0x4 ADD PUSH2 0x51D SWAP3 SWAP2 SWAP1 PUSH2 0x1114 JUMP JUMPDEST PUSH1 0x40 MLOAD DUP1 SWAP2 SUB SWAP1 REVERT JUMPDEST PUSH2 0x538 DUP5 DUP5 DUP5 DUP5 PUSH2 0x547 PUSH1 0x20 SHL PUSH1 0x20 SHR JUMP JUMPDEST POP POP POP POP JUMP JUMPDEST PUSH0 PUSH1 0x3 SLOAD SWAP1 POP SWAP1 JUMP JUMPDEST PUSH0 PUSH20 0xFFFFFFFFFFFFFFFFFFFFFFFFFFFFFFFFFFFFFFFF AND DUP5 PUSH20 0xFFFFFFFFFFFFFFFFFFFFFFFFFFFFFFFFFFFFFFFF AND SUB PUSH2 0x5AC JUMPI PUSH1 0x40 MLOAD PUSH32 0xD2D5EC3000000000000000000000000000000000000000000000000000000000 DUP2 MSTORE PUSH1 0x4 ADD PUSH1 0x40 MLOAD DUP1 SWAP2 SUB SWAP1 REVERT JUMPDEST PUSH2 0x5BE PUSH0 DUP6 DUP6 DUP5 PUSH2 0x6FE PUSH1 0x20 SHL PUSH1 0x20 SHR JUMP JUMPDEST DUP3 PUSH1 0x3 PUSH0 DUP3 DUP3 SLOAD PUSH2 0x5CF SWAP2 SWAP1 PUSH2 0x10E1 JUMP JUMPDEST SWAP3 POP POP DUP2 SWAP1 SSTORE POP DUP3 PUSH1 0x4 PUSH0 DUP7 PUSH20 0xFFFFFFFFFFFFFFFFFFFFFFFFFFFFFFFFFFFFFFFF AND PUSH20 0xFFFFFFFFFFFFFFFFFFFFFFFFFFFFFFFFFFFFFFFF AND DUP2 MSTORE PUSH1 0x20 ADD SWAP1 DUP2 MSTORE PUSH1 0x20 ADD PUSH0 KECCAK256 PUSH0 DUP3 DUP3 SLOAD PUSH2 0x622 SWAP2 SWAP1 PUSH2 0x10E1 JUMP JUMPDEST SWAP3 POP POP DUP2 SWAP1 SSTORE POP DUP4 PUSH20 0xFFFFFFFFFFFFFFFFFFFFFFFFFFFFFFFFFFFFFFFF AND PUSH0 PUSH20 0xFFFFFFFFFFFFFFFFFFFFFFFFFFFFFFFFFFFFFFFF AND CALLER PUSH20 0xFFFFFFFFFFFFFFFFFFFFFFFFFFFFFFFFFFFFFFFF AND PUSH32 0x3997E418D2CEF0B3B0E907B1E39605C3F7D32DBD061E82EA5B4A770D46A160A6 DUP7 DUP7 DUP7 PUSH1 0x40 MLOAD PUSH2 0x6A1 SWAP4 SWAP3 SWAP2 SWAP1 PUSH2 0x1155 JUMP JUMPDEST PUSH1 0x40 MLOAD DUP1 SWAP2 SUB SWAP1 LOG4 PUSH2 0x6BB PUSH0 DUP6 DUP6 DUP5 PUSH2 0x704 PUSH1 0x20 SHL PUSH1 0x20 SHR JUMP JUMPDEST PUSH0 CALLER PUSH0 DUP7 DUP7 DUP6 PUSH1 0x40 MLOAD PUSH1 0x20 ADD PUSH2 0x6D5 SWAP6 SWAP5 SWAP4 SWAP3 SWAP2 SWAP1 PUSH2 0x1191 JUMP JUMPDEST PUSH1 0x40 MLOAD PUSH1 0x20 DUP2 DUP4 SUB SUB DUP2 MSTORE SWAP1 PUSH1 0x40 MSTORE SWAP1 POP PUSH2 0x6F7 DUP6 DUP5 DUP4 PUSH2 0x70A PUSH1 0x20 SHL PUSH1 0x20 SHR JUMP JUMPDEST POP POP POP POP POP JUMP JUMPDEST POP POP POP POP JUMP JUMPDEST POP POP POP POP JUMP JUMPDEST PUSH2 0x721 DUP4 PUSH4 0x6BB56A14 PUSH1 0xE0 SHL PUSH2 0x86F PUSH1 0x20 SHL PUSH1 0x20 SHR JUMP JUMPDEST ISZERO PUSH2 0x7CC JUMPI DUP3 PUSH20 0xFFFFFFFFFFFFFFFFFFFFFFFFFFFFFFFFFFFFFFFF AND PUSH4 0x6BB56A14 PUSH32 0x20804611B3E2EA21C480DC465142210ACF4A2485947541770EC1FB87DEE4A55C PUSH0 SHL DUP4 PUSH1 0x40 MLOAD DUP4 PUSH4 0xFFFFFFFF AND PUSH1 0xE0 SHL DUP2 MSTORE PUSH1 0x4 ADD PUSH2 0x783 SWAP3 SWAP2 SWAP1 PUSH2 0x1201 JUMP JUMPDEST PUSH0 PUSH1 0x40 MLOAD DUP1 DUP4 SUB DUP2 PUSH0 DUP8 GAS CALL ISZERO DUP1 ISZERO PUSH2 0x79E JUMPI RETURNDATASIZE PUSH0 PUSH0 RETURNDATACOPY RETURNDATASIZE PUSH0 REVERT JUMPDEST POP POP POP POP PUSH1 0x40 MLOAD RETURNDATASIZE PUSH0 DUP3 RETURNDATACOPY RETURNDATASIZE PUSH1 0x1F NOT PUSH1 0x1F DUP3 ADD AND DUP3 ADD DUP1 PUSH1 0x40 MSTORE POP DUP2 ADD SWAP1 PUSH2 0x7C6 SWAP2 SWAP1 PUSH2 0x12CD JUMP JUMPDEST POP PUSH2 0x86A JUMP JUMPDEST DUP2 PUSH2 0x869 JUMPI PUSH0 DUP4 PUSH20 0xFFFFFFFFFFFFFFFFFFFFFFFFFFFFFFFFFFFFFFFF AND EXTCODESIZE EQ PUSH2 0x82C JUMPI DUP3 PUSH1 0x40 MLOAD PUSH32 0xA608FBB600000000000000000000000000000000000000000000000000000000 DUP2 MSTORE PUSH1 0x4 ADD PUSH2 0x823 SWAP2 SWAP1 PUSH2 0x10C8 JUMP JUMPDEST PUSH1 0x40 MLOAD DUP1 SWAP2 SUB SWAP1 REVERT JUMPDEST DUP3 PUSH1 0x40 MLOAD PUSH32 0x26C247F400000000000000000000000000000000000000000000000000000000 DUP2 MSTORE PUSH1 0x4 ADD PUSH2 0x860 SWAP2 SWAP1 PUSH2 0x10C8 JUMP JUMPDEST PUSH1 0x40 MLOAD DUP1 SWAP2 SUB SWAP1 REVERT JUMPDEST JUMPDEST POP POP POP JUMP JUMPDEST PUSH0 PUSH0 PUSH4 0x1FFC9A7 PUSH1 0xE0 SHL DUP4 PUSH1 0x40 MLOAD PUSH1 0x24 ADD PUSH2 0x88A SWAP2 SWAP1 PUSH2 0x134E JUMP JUMPDEST PUSH1 0x40 MLOAD PUSH1 0x20 DUP2 DUP4 SUB SUB DUP2 MSTORE SWAP1 PUSH1 0x40 MSTORE SWAP1 PUSH28 0xFFFFFFFFFFFFFFFFFFFFFFFFFFFFFFFFFFFFFFFFFFFFFFFFFFFFFFFF NOT AND PUSH1 0x20 DUP3 ADD DUP1 MLOAD PUSH28 0xFFFFFFFFFFFFFFFFFFFFFFFFFFFFFFFFFFFFFFFFFFFFFFFFFFFFFFFF DUP4 DUP2 DUP4 AND OR DUP4 MSTORE POP POP POP POP SWAP1 POP PUSH0 PUSH0 PUSH0 PUSH1 0x20 PUSH0 DUP6 MLOAD PUSH1 0x20 DUP8 ADD DUP11 PUSH2 0x7530 STATICCALL SWAP3 POP RETURNDATASIZE SWAP2 POP PUSH0 MLOAD SWAP1 POP DUP3 DUP1 ISZERO PUSH2 0x911 JUMPI POP PUSH1 0x20 DUP3 LT ISZERO JUMPDEST DUP1 ISZERO PUSH2 0x91C JUMPI POP PUSH0 DUP2 GT JUMPDEST SWAP5 POP POP POP POP POP SWAP3 SWAP2 POP POP JUMP JUMPDEST PUSH0 PUSH1 0x40 MLOAD SWAP1 POP SWAP1 JUMP JUMPDEST PUSH0 PUSH0 REVERT JUMPDEST PUSH0 PUSH0 REVERT JUMPDEST PUSH0 PUSH0 REVERT JUMPDEST PUSH0 PUSH0 REVERT JUMPDEST PUSH0 PUSH1 0x1F NOT PUSH1 0x1F DUP4 ADD AND SWAP1 POP SWAP2 SWAP1 POP JUMP JUMPDEST PUSH32 0x4E487B7100000000000000000000000000000000000000000000000000000000 PUSH0 MSTORE PUSH1 0x41 PUSH1 0x4 MSTORE PUSH1 0x24 PUSH0 REVERT JUMPDEST PUSH2 0x987 DUP3 PUSH2 0x941 JUMP JUMPDEST DUP2 ADD DUP2 DUP2 LT PUSH8 0xFFFFFFFFFFFFFFFF DUP3 GT OR ISZERO PUSH2 0x9A6 JUMPI PUSH2 0x9A5 PUSH2 0x951 JUMP JUMPDEST JUMPDEST DUP1 PUSH1 0x40 MSTORE POP POP POP JUMP JUMPDEST PUSH0 PUSH2 0x9B8 PUSH2 0x928 JUMP JUMPDEST SWAP1 POP PUSH2 0x9C4 DUP3 DUP3 PUSH2 0x97E JUMP JUMPDEST SWAP2 SWAP1 POP JUMP JUMPDEST PUSH0 PUSH8 0xFFFFFFFFFFFFFFFF DUP3 GT ISZERO PUSH2 0x9E3 JUMPI PUSH2 0x9E2 PUSH2 0x951 JUMP JUMPDEST JUMPDEST PUSH2 0x9EC DUP3 PUSH2 0x941 JUMP JUMPDEST SWAP1 POP PUSH1 0x20 DUP2 ADD SWAP1 POP SWAP2 SWAP1 POP JUMP JUMPDEST DUP3 DUP2 DUP4 MCOPY PUSH0 DUP4 DUP4 ADD MSTORE POP POP POP JUMP JUMPDEST PUSH0 PUSH2 0xA19 PUSH2 0xA14 DUP5 PUSH2 0x9C9 JUMP JUMPDEST PUSH2 0x9AF JUMP JUMPDEST SWAP1 POP DUP3 DUP2 MSTORE PUSH1 0x20 DUP2 ADD DUP5 DUP5 DUP5 ADD GT ISZERO PUSH2 0xA35 JUMPI PUSH2 0xA34 PUSH2 0x93D JUMP JUMPDEST JUMPDEST PUSH2 0xA40 DUP5 DUP3 DUP6 PUSH2 0x9F9 JUMP JUMPDEST POP SWAP4 SWAP3 POP POP POP JUMP JUMPDEST PUSH0 DUP3 PUSH1 0x1F DUP4 ADD SLT PUSH2 0xA5C JUMPI PUSH2 0xA5B PUSH2 0x939 JUMP JUMPDEST JUMPDEST DUP2 MLOAD PUSH2 0xA6C DUP5 DUP3 PUSH1 0x20 DUP7 ADD PUSH2 0xA07 JUMP JUMPDEST SWAP2 POP POP SWAP3 SWAP2 POP POP JUMP JUMPDEST PUSH0 DUP2 SWAP1 POP SWAP2 SWAP1 POP JUMP JUMPDEST PUSH2 0xA87 DUP2 PUSH2 0xA75 JUMP JUMPDEST DUP2 EQ PUSH2 0xA91 JUMPI PUSH0 PUSH0 REVERT JUMPDEST POP JUMP JUMPDEST PUSH0 DUP2 MLOAD SWAP1 POP PUSH2 0xAA2 DUP2 PUSH2 0xA7E JUMP JUMPDEST SWAP3 SWAP2 POP POP JUMP JUMPDEST PUSH0 PUSH0 PUSH0 PUSH1 0x60 DUP5 DUP7 SUB SLT ISZERO PUSH2 0xABF JUMPI PUSH2 0xABE PUSH2 0x931 JUMP JUMPDEST JUMPDEST PUSH0 DUP5 ADD MLOAD PUSH8 0xFFFFFFFFFFFFFFFF DUP2 GT ISZERO PUSH2 0xADC JUMPI PUSH2 0xADB PUSH2 0x935 JUMP JUMPDEST JUMPDEST PUSH2 0xAE8 DUP7 DUP3 DUP8 ADD PUSH2 0xA48 JUMP JUMPDEST SWAP4 POP POP PUSH1 0x20 DUP5 ADD MLOAD PUSH8 0xFFFFFFFFFFFFFFFF DUP2 GT ISZERO PUSH2 0xB09 JUMPI PUSH2 0xB08 PUSH2 0x935 JUMP JUMPDEST JUMPDEST PUSH2 0xB15 DUP7 DUP3 DUP8 ADD PUSH2 0xA48 JUMP JUMPDEST SWAP3 POP POP PUSH1 0x40 PUSH2 0xB26 DUP7 DUP3 DUP8 ADD PUSH2 0xA94 JUMP JUMPDEST SWAP2 POP POP SWAP3 POP SWAP3 POP SWAP3 JUMP JUMPDEST PUSH2 0xB39 DUP2 PUSH2 0xA75 JUMP JUMPDEST DUP3 MSTORE POP POP JUMP JUMPDEST PUSH0 PUSH1 0x20 DUP3 ADD SWAP1 POP PUSH2 0xB52 PUSH0 DUP4 ADD DUP5 PUSH2 0xB30 JUMP JUMPDEST SWAP3 SWAP2 POP POP JUMP JUMPDEST PUSH32 0x4E487B7100000000000000000000000000000000000000000000000000000000 PUSH0 MSTORE PUSH1 0x11 PUSH1 0x4 MSTORE PUSH1 0x24 PUSH0 REVERT JUMPDEST PUSH0 DUP2 PUSH1 0x1 SHR SWAP1 POP SWAP2 SWAP1 POP JUMP JUMPDEST PUSH0 PUSH0 DUP3 SWAP2 POP DUP4 SWAP1 POP JUMPDEST PUSH1 0x1 DUP6 GT ISZERO PUSH2 0xBDA JUMPI DUP1 DUP7 DIV DUP2 GT ISZERO PUSH2 0xBB6 JUMPI PUSH2 0xBB5 PUSH2 0xB58 JUMP JUMPDEST JUMPDEST PUSH1 0x1 DUP6 AND ISZERO PUSH2 0xBC5 JUMPI DUP1 DUP3 MUL SWAP2 POP JUMPDEST DUP1 DUP2 MUL SWAP1 POP PUSH2 0xBD3 DUP6 PUSH2 0xB85 JUMP JUMPDEST SWAP5 POP PUSH2 0xB9A JUMP JUMPDEST SWAP5 POP SWAP5 SWAP3 POP POP POP JUMP JUMPDEST PUSH0 DUP3 PUSH2 0xBF2 JUMPI PUSH1 0x1 SWAP1 POP PUSH2 0xCAD JUMP JUMPDEST DUP2 PUSH2 0xBFF JUMPI PUSH0 SWAP1 POP PUSH2 0xCAD JUMP JUMPDEST DUP2 PUSH1 0x1 DUP2 EQ PUSH2 0xC15 JUMPI PUSH1 0x2 DUP2 EQ PUSH2 0xC1F JUMPI PUSH2 0xC4E JUMP JUMPDEST PUSH1 0x1 SWAP2 POP POP PUSH2 0xCAD JUMP JUMPDEST PUSH1 0xFF DUP5 GT ISZERO PUSH2 0xC31 JUMPI PUSH2 0xC30 PUSH2 0xB58 JUMP JUMPDEST JUMPDEST DUP4 PUSH1 0x2 EXP SWAP2 POP DUP5 DUP3 GT ISZERO PUSH2 0xC48 JUMPI PUSH2 0xC47 PUSH2 0xB58 JUMP JUMPDEST JUMPDEST POP PUSH2 0xCAD JUMP JUMPDEST POP PUSH1 0x20 DUP4 LT PUSH2 0x133 DUP4 LT AND PUSH1 0x4E DUP5 LT PUSH1 0xB DUP5 LT AND OR ISZERO PUSH2 0xC83 JUMPI DUP3 DUP3 EXP SWAP1 POP DUP4 DUP2 GT ISZERO PUSH2 0xC7E JUMPI PUSH2 0xC7D PUSH2 0xB58 JUMP JUMPDEST JUMPDEST PUSH2 0xCAD JUMP JUMPDEST PUSH2 0xC90 DUP5 DUP5 DUP5 PUSH1 0x1 PUSH2 0xB91 JUMP JUMPDEST SWAP3 POP SWAP1 POP DUP2 DUP5 DIV DUP2 GT ISZERO PUSH2 0xCA7 JUMPI PUSH2 0xCA6 PUSH2 0xB58 JUMP JUMPDEST JUMPDEST DUP2 DUP2 MUL SWAP1 POP JUMPDEST SWAP4 SWAP3 POP POP POP JUMP JUMPDEST PUSH0 PUSH1 0xFF DUP3 AND SWAP1 POP SWAP2 SWAP1 POP JUMP JUMPDEST PUSH0 PUSH2 0xCCA DUP3 PUSH2 0xA75 JUMP JUMPDEST SWAP2 POP PUSH2 0xCD5 DUP4 PUSH2 0xCB4 JUMP JUMPDEST SWAP3 POP PUSH2 0xD02 PUSH32 0xFFFFFFFFFFFFFFFFFFFFFFFFFFFFFFFFFFFFFFFFFFFFFFFFFFFFFFFFFFFFFFFF DUP5 DUP5 PUSH2 0xBE3 JUMP JUMPDEST SWAP1 POP SWAP3 SWAP2 POP POP JUMP JUMPDEST PUSH0 PUSH2 0xD14 DUP3 PUSH2 0xA75 JUMP JUMPDEST SWAP2 POP PUSH2 0xD1F DUP4 PUSH2 0xA75 JUMP JUMPDEST SWAP3 POP DUP3 DUP3 MUL PUSH2 0xD2D DUP2 PUSH2 0xA75 JUMP JUMPDEST SWAP2 POP DUP3 DUP3 DIV DUP5 EQ DUP4 ISZERO OR PUSH2 0xD44 JUMPI PUSH2 0xD43 PUSH2 0xB58 JUMP JUMPDEST JUMPDEST POP SWAP3 SWAP2 POP POP JUMP JUMPDEST PUSH0 DUP2 MLOAD SWAP1 POP SWAP2 SWAP1 POP JUMP JUMPDEST PUSH32 0x4E487B7100000000000000000000000000000000000000000000000000000000 PUSH0 MSTORE PUSH1 0x22 PUSH1 0x4 MSTORE PUSH1 0x24 PUSH0 REVERT JUMPDEST PUSH0 PUSH1 0x2 DUP3 DIV SWAP1 POP PUSH1 0x1 DUP3 AND DUP1 PUSH2 0xD99 JUMPI PUSH1 0x7F DUP3 AND SWAP2 POP JUMPDEST PUSH1 0x20 DUP3 LT DUP2 SUB PUSH2 0xDAC JUMPI PUSH2 0xDAB PUSH2 0xD55 JUMP JUMPDEST JUMPDEST POP SWAP2 SWAP1 POP JUMP JUMPDEST PUSH0 DUP2 SWAP1 POP DUP2 PUSH0 MSTORE PUSH1 0x20 PUSH0 KECCAK256 SWAP1 POP SWAP2 SWAP1 POP JUMP JUMPDEST PUSH0 PUSH1 0x20 PUSH1 0x1F DUP4 ADD DIV SWAP1 POP SWAP2 SWAP1 POP JUMP JUMPDEST PUSH0 DUP3 DUP3 SHL SWAP1 POP SWAP3 SWAP2 POP POP JUMP JUMPDEST PUSH0 PUSH1 0x8 DUP4 MUL PUSH2 0xE0E PUSH32 0xFFFFFFFFFFFFFFFFFFFFFFFFFFFFFFFFFFFFFFFFFFFFFFFFFFFFFFFFFFFFFFFF DUP3 PUSH2 0xDD3 JUMP JUMPDEST PUSH2 0xE18 DUP7 DUP4 PUSH2 0xDD3 JUMP JUMPDEST SWAP6 POP DUP1 NOT DUP5 AND SWAP4 POP DUP1 DUP7 AND DUP5 OR SWAP3 POP POP POP SWAP4 SWAP3 POP POP POP JUMP JUMPDEST PUSH0 DUP2 SWAP1 POP SWAP2 SWAP1 POP JUMP JUMPDEST PUSH0 PUSH2 0xE53 PUSH2 0xE4E PUSH2 0xE49 DUP5 PUSH2 0xA75 JUMP JUMPDEST PUSH2 0xE30 JUMP JUMPDEST PUSH2 0xA75 JUMP JUMPDEST SWAP1 POP SWAP2 SWAP1 POP JUMP JUMPDEST PUSH0 DUP2 SWAP1 POP SWAP2 SWAP1 POP JUMP JUMPDEST PUSH2 0xE6C DUP4 PUSH2 0xE39 JUMP JUMPDEST PUSH2 0xE80 PUSH2 0xE78 DUP3 PUSH2 0xE5A JUMP JUMPDEST DUP5 DUP5 SLOAD PUSH2 0xDDF JUMP JUMPDEST DUP3 SSTORE POP POP POP POP JUMP JUMPDEST PUSH0 PUSH0 SWAP1 POP SWAP1 JUMP JUMPDEST PUSH2 0xE97 PUSH2 0xE88 JUMP JUMPDEST PUSH2 0xEA2 DUP2 DUP5 DUP5 PUSH2 0xE63 JUMP JUMPDEST POP POP POP JUMP JUMPDEST JUMPDEST DUP2 DUP2 LT ISZERO PUSH2 0xEC5 JUMPI PUSH2 0xEBA PUSH0 DUP3 PUSH2 0xE8F JUMP JUMPDEST PUSH1 0x1 DUP2 ADD SWAP1 POP PUSH2 0xEA8 JUMP JUMPDEST POP POP JUMP JUMPDEST PUSH1 0x1F DUP3 GT ISZERO PUSH2 0xF0A JUMPI PUSH2 0xEDB DUP2 PUSH2 0xDB2 JUMP JUMPDEST PUSH2 0xEE4 DUP5 PUSH2 0xDC4 JUMP JUMPDEST DUP2 ADD PUSH1 0x20 DUP6 LT ISZERO PUSH2 0xEF3 JUMPI DUP2 SWAP1 POP JUMPDEST PUSH2 0xF07 PUSH2 0xEFF DUP6 PUSH2 0xDC4 JUMP JUMPDEST DUP4 ADD DUP3 PUSH2 0xEA7 JUMP JUMPDEST POP POP JUMPDEST POP POP POP JUMP JUMPDEST PUSH0 DUP3 DUP3 SHR SWAP1 POP SWAP3 SWAP2 POP POP JUMP JUMPDEST PUSH0 PUSH2 0xF2A PUSH0 NOT DUP5 PUSH1 0x8 MUL PUSH2 0xF0F JUMP JUMPDEST NOT DUP1 DUP4 AND SWAP2 POP POP SWAP3 SWAP2 POP POP JUMP JUMPDEST PUSH0 PUSH2 0xF42 DUP4 DUP4 PUSH2 0xF1B JUMP JUMPDEST SWAP2 POP DUP3 PUSH1 0x2 MUL DUP3 OR SWAP1 POP SWAP3 SWAP2 POP POP JUMP JUMPDEST PUSH2 0xF5B DUP3 PUSH2 0xD4B JUMP JUMPDEST PUSH8 0xFFFFFFFFFFFFFFFF DUP2 GT ISZERO PUSH2 0xF74 JUMPI PUSH2 0xF73 PUSH2 0x951 JUMP JUMPDEST JUMPDEST PUSH2 0xF7E DUP3 SLOAD PUSH2 0xD82 JUMP JUMPDEST PUSH2 0xF89 DUP3 DUP3 DUP6 PUSH2 0xEC9 JUMP JUMPDEST PUSH0 PUSH1 0x20 SWAP1 POP PUSH1 0x1F DUP4 GT PUSH1 0x1 DUP2 EQ PUSH2 0xFBA JUMPI PUSH0 DUP5 ISZERO PUSH2 0xFA8 JUMPI DUP3 DUP8 ADD MLOAD SWAP1 POP JUMPDEST PUSH2 0xFB2 DUP6 DUP3 PUSH2 0xF37 JUMP JUMPDEST DUP7 SSTORE POP PUSH2 0x1019 JUMP JUMPDEST PUSH1 0x1F NOT DUP5 AND PUSH2 0xFC8 DUP7 PUSH2 0xDB2 JUMP JUMPDEST PUSH0 JUMPDEST DUP3 DUP2 LT ISZERO PUSH2 0xFEF JUMPI DUP5 DUP10 ADD MLOAD DUP3 SSTORE PUSH1 0x1 DUP3 ADD SWAP2 POP PUSH1 0x20 DUP6 ADD SWAP5 POP PUSH1 0x20 DUP2 ADD SWAP1 POP PUSH2 0xFCA JUMP JUMPDEST DUP7 DUP4 LT ISZERO PUSH2 0x100C JUMPI DUP5 DUP10 ADD MLOAD PUSH2 0x1008 PUSH1 0x1F DUP10 AND DUP3 PUSH2 0xF1B JUMP JUMPDEST DUP4 SSTORE POP JUMPDEST PUSH1 0x1 PUSH1 0x2 DUP9 MUL ADD DUP9 SSTORE POP POP POP JUMPDEST POP POP POP POP POP POP JUMP JUMPDEST PUSH0 DUP3 DUP3 MSTORE PUSH1 0x20 DUP3 ADD SWAP1 POP SWAP3 SWAP2 POP POP JUMP JUMPDEST PUSH0 PUSH2 0x103B DUP3 PUSH2 0xD4B JUMP JUMPDEST PUSH2 0x1045 DUP2 DUP6 PUSH2 0x1021 JUMP JUMPDEST SWAP4 POP PUSH2 0x1055 DUP2 DUP6 PUSH1 0x20 DUP7 ADD PUSH2 0x9F9 JUMP JUMPDEST PUSH2 0x105E DUP2 PUSH2 0x941 JUMP JUMPDEST DUP5 ADD SWAP2 POP POP SWAP3 SWAP2 POP POP JUMP JUMPDEST PUSH0 PUSH1 0x20 DUP3 ADD SWAP1 POP DUP2 DUP2 SUB PUSH0 DUP4 ADD MSTORE PUSH2 0x1081 DUP2 DUP5 PUSH2 0x1031 JUMP JUMPDEST SWAP1 POP SWAP3 SWAP2 POP POP JUMP JUMPDEST PUSH0 PUSH20 0xFFFFFFFFFFFFFFFFFFFFFFFFFFFFFFFFFFFFFFFF DUP3 AND SWAP1 POP SWAP2 SWAP1 POP JUMP JUMPDEST PUSH0 PUSH2 0x10B2 DUP3 PUSH2 0x1089 JUMP JUMPDEST SWAP1 POP SWAP2 SWAP1 POP JUMP JUMPDEST PUSH2 0x10C2 DUP2 PUSH2 0x10A8 JUMP JUMPDEST DUP3 MSTORE POP POP JUMP JUMPDEST PUSH0 PUSH1 0x20 DUP3 ADD SWAP1 POP PUSH2 0x10DB PUSH0 DUP4 ADD DUP5 PUSH2 0x10B9 JUMP JUMPDEST SWAP3 SWAP2 POP POP JUMP JUMPDEST PUSH0 PUSH2 0x10EB DUP3 PUSH2 0xA75 JUMP JUMPDEST SWAP2 POP PUSH2 0x10F6 DUP4 PUSH2 0xA75 JUMP JUMPDEST SWAP3 POP DUP3 DUP3 ADD SWAP1 POP DUP1 DUP3 GT ISZERO PUSH2 0x110E JUMPI PUSH2 0x110D PUSH2 0xB58 JUMP JUMPDEST JUMPDEST SWAP3 SWAP2 POP POP JUMP JUMPDEST PUSH0 PUSH1 0x40 DUP3 ADD SWAP1 POP PUSH2 0x1127 PUSH0 DUP4 ADD DUP6 PUSH2 0xB30 JUMP JUMPDEST PUSH2 0x1134 PUSH1 0x20 DUP4 ADD DUP5 PUSH2 0xB30 JUMP JUMPDEST SWAP4 SWAP3 POP POP POP JUMP JUMPDEST PUSH0 DUP2 ISZERO ISZERO SWAP1 POP SWAP2 SWAP1 POP JUMP JUMPDEST PUSH2 0x114F DUP2 PUSH2 0x113B JUMP JUMPDEST DUP3 MSTORE POP POP JUMP JUMPDEST PUSH0 PUSH1 0x60 DUP3 ADD SWAP1 POP PUSH2 0x1168 PUSH0 DUP4 ADD DUP7 PUSH2 0xB30 JUMP JUMPDEST PUSH2 0x1175 PUSH1 0x20 DUP4 ADD DUP6 PUSH2 0x1146 JUMP JUMPDEST DUP2 DUP2 SUB PUSH1 0x40 DUP4 ADD MSTORE PUSH2 0x1187 DUP2 DUP5 PUSH2 0x1031 JUMP JUMPDEST SWAP1 POP SWAP5 SWAP4 POP POP POP POP JUMP JUMPDEST PUSH0 PUSH1 0xA0 DUP3 ADD SWAP1 POP PUSH2 0x11A4 PUSH0 DUP4 ADD DUP9 PUSH2 0x10B9 JUMP JUMPDEST PUSH2 0x11B1 PUSH1 0x20 DUP4 ADD DUP8 PUSH2 0x10B9 JUMP JUMPDEST PUSH2 0x11BE PUSH1 0x40 DUP4 ADD DUP7 PUSH2 0x10B9 JUMP JUMPDEST PUSH2 0x11CB PUSH1 0x60 DUP4 ADD DUP6 PUSH2 0xB30 JUMP JUMPDEST DUP2 DUP2 SUB PUSH1 0x80 DUP4 ADD MSTORE PUSH2 0x11DD DUP2 DUP5 PUSH2 0x1031 JUMP JUMPDEST SWAP1 POP SWAP7 SWAP6 POP POP POP POP POP POP JUMP JUMPDEST PUSH0 DUP2 SWAP1 POP SWAP2 SWAP1 POP JUMP JUMPDEST PUSH2 0x11FB DUP2 PUSH2 0x11E9 JUMP JUMPDEST DUP3 MSTORE POP POP JUMP JUMPDEST PUSH0 PUSH1 0x40 DUP3 ADD SWAP1 POP PUSH2 0x1214 PUSH0 DUP4 ADD DUP6 PUSH2 0x11F2 JUMP JUMPDEST DUP2 DUP2 SUB PUSH1 0x20 DUP4 ADD MSTORE PUSH2 0x1226 DUP2 DUP5 PUSH2 0x1031 JUMP JUMPDEST SWAP1 POP SWAP4 SWAP3 POP POP POP JUMP JUMPDEST PUSH0 PUSH8 0xFFFFFFFFFFFFFFFF DUP3 GT ISZERO PUSH2 0x1249 JUMPI PUSH2 0x1248 PUSH2 0x951 JUMP JUMPDEST JUMPDEST PUSH2 0x1252 DUP3 PUSH2 0x941 JUMP JUMPDEST SWAP1 POP PUSH1 0x20 DUP2 ADD SWAP1 POP SWAP2 SWAP1 POP JUMP JUMPDEST PUSH0 PUSH2 0x1271 PUSH2 0x126C DUP5 PUSH2 0x122F JUMP JUMPDEST PUSH2 0x9AF JUMP JUMPDEST SWAP1 POP DUP3 DUP2 MSTORE PUSH1 0x20 DUP2 ADD DUP5 DUP5 DUP5 ADD GT ISZERO PUSH2 0x128D JUMPI PUSH2 0x128C PUSH2 0x93D JUMP JUMPDEST JUMPDEST PUSH2 0x1298 DUP5 DUP3 DUP6 PUSH2 0x9F9 JUMP JUMPDEST POP SWAP4 SWAP3 POP POP POP JUMP JUMPDEST PUSH0 DUP3 PUSH1 0x1F DUP4 ADD SLT PUSH2 0x12B4 JUMPI PUSH2 0x12B3 PUSH2 0x939 JUMP JUMPDEST JUMPDEST DUP2 MLOAD PUSH2 0x12C4 DUP5 DUP3 PUSH1 0x20 DUP7 ADD PUSH2 0x125F JUMP JUMPDEST SWAP2 POP POP SWAP3 SWAP2 POP POP JUMP JUMPDEST PUSH0 PUSH1 0x20 DUP3 DUP5 SUB SLT ISZERO PUSH2 0x12E2 JUMPI PUSH2 0x12E1 PUSH2 0x931 JUMP JUMPDEST JUMPDEST PUSH0 DUP3 ADD MLOAD PUSH8 0xFFFFFFFFFFFFFFFF DUP2 GT ISZERO PUSH2 0x12FF JUMPI PUSH2 0x12FE PUSH2 0x935 JUMP JUMPDEST JUMPDEST PUSH2 0x130B DUP5 DUP3 DUP6 ADD PUSH2 0x12A0 JUMP JUMPDEST SWAP2 POP POP SWAP3 SWAP2 POP POP JUMP JUMPDEST PUSH0 PUSH32 0xFFFFFFFF00000000000000000000000000000000000000000000000000000000 DUP3 AND SWAP1 POP SWAP2 SWAP1 POP JUMP JUMPDEST PUSH2 0x1348 DUP2 PUSH2 0x1314 JUMP JUMPDEST DUP3 MSTORE POP POP JUMP JUMPDEST PUSH0 PUSH1 0x20 DUP3 ADD SWAP1 POP PUSH2 0x1361 PUSH0 DUP4 ADD DUP5 PUSH2 0x133F JUMP JUMPDEST SWAP3 SWAP2 POP POP JUMP JUMPDEST PUSH2 0x446F DUP1 PUSH2 0x1374 PUSH0 CODECOPY PUSH0 RETURN INVALID PUSH1 0x80 PUSH1 0x40 MSTORE PUSH1 0x4 CALLDATASIZE LT PUSH2 0x143 JUMPI PUSH0 CALLDATALOAD PUSH1 0xE0 SHR DUP1 PUSH4 0x70A08231 GT PUSH2 0xB5 JUMPI DUP1 PUSH4 0x8DA5CB5B GT PUSH2 0x6E JUMPI DUP1 PUSH4 0x8DA5CB5B EQ PUSH2 0x516 JUMPI DUP1 PUSH4 0x97902421 EQ PUSH2 0x540 JUMPI DUP1 PUSH4 0xB49506FD EQ PUSH2 0x55C JUMPI DUP1 PUSH4 0xD72FC29A EQ PUSH2 0x584 JUMPI DUP1 PUSH4 0xDEDFF9C6 EQ PUSH2 0x5C0 JUMPI DUP1 PUSH4 0xF2FDE38B EQ PUSH2 0x5FC JUMPI PUSH2 0x1BC JUMP JUMPDEST DUP1 PUSH4 0x70A08231 EQ PUSH2 0x430 JUMPI DUP1 PUSH4 0x715018A6 EQ PUSH2 0x46C JUMPI DUP1 PUSH4 0x7580D920 EQ PUSH2 0x482 JUMPI DUP1 PUSH4 0x760D9BBA EQ PUSH2 0x4AA JUMPI DUP1 PUSH4 0x78381670 EQ PUSH2 0x4D2 JUMPI DUP1 PUSH4 0x7F23690C EQ PUSH2 0x4FA JUMPI PUSH2 0x1BC JUMP JUMPDEST DUP1 PUSH4 0x313CE567 GT PUSH2 0x107 JUMPI DUP1 PUSH4 0x313CE567 EQ PUSH2 0x300 JUMPI DUP1 PUSH4 0x44D17187 EQ PUSH2 0x32A JUMPI DUP1 PUSH4 0x52058D8A EQ PUSH2 0x352 JUMPI DUP1 PUSH4 0x54F6127F EQ PUSH2 0x37C JUMPI DUP1 PUSH4 0x65AEAA95 EQ PUSH2 0x3B8 JUMPI DUP1 PUSH4 0x6963D438 EQ PUSH2 0x3F4 JUMPI PUSH2 0x1BC JUMP JUMPDEST DUP1 PUSH4 0x1FFC9A7 EQ PUSH2 0x222 JUMPI DUP1 PUSH4 0x18160DDD EQ PUSH2 0x25E JUMPI DUP1 PUSH4 0x2BC1DA82 EQ PUSH2 0x288 JUMPI DUP1 PUSH4 0x2D7667C9 EQ PUSH2 0x2B0 JUMPI DUP1 PUSH4 0x30D0DC37 EQ PUSH2 0x2D8 JUMPI PUSH2 0x1BC JUMP JUMPDEST CALLDATASIZE PUSH2 0x1BC JUMPI PUSH0 CALLVALUE SUB PUSH2 0x18A JUMPI PUSH1 0x40 MLOAD PUSH32 0xE5099EE300000000000000000000000000000000000000000000000000000000 DUP2 MSTORE PUSH1 0x4 ADD PUSH2 0x181 SWAP1 PUSH2 0x299D JUMP JUMPDEST PUSH1 0x40 MLOAD DUP1 SWAP2 SUB SWAP1 REVERT JUMPDEST PUSH1 0x40 MLOAD PUSH32 0x388F5ADC00000000000000000000000000000000000000000000000000000000 DUP2 MSTORE PUSH1 0x4 ADD PUSH1 0x40 MLOAD DUP1 SWAP2 SUB SWAP1 REVERT JUMPDEST PUSH0 CALLDATASIZE PUSH1 0x60 PUSH1 0x4 PUSH0 CALLDATASIZE SWAP1 POP LT ISZERO PUSH2 0x20B JUMPI DUP3 DUP3 PUSH1 0x40 MLOAD PUSH32 0xE5099EE300000000000000000000000000000000000000000000000000000000 DUP2 MSTORE PUSH1 0x4 ADD PUSH2 0x202 SWAP3 SWAP2 SWAP1 PUSH2 0x2A05 JUMP JUMPDEST PUSH1 0x40 MLOAD DUP1 SWAP2 SUB SWAP1 REVERT JUMPDEST PUSH2 0x215 DUP4 DUP4 PUSH2 0x624 JUMP JUMPDEST SWAP1 POP SWAP2 POP POP DUP1 MLOAD SWAP1 PUSH1 0x20 ADD RETURN JUMPDEST CALLVALUE DUP1 ISZERO PUSH2 0x22D JUMPI PUSH0 PUSH0 REVERT JUMPDEST POP PUSH2 0x248 PUSH1 0x4 DUP1 CALLDATASIZE SUB DUP2 ADD SWAP1 PUSH2 0x243 SWAP2 SWAP1 PUSH2 0x2A8D JUMP JUMPDEST PUSH2 0x79A JUMP JUMPDEST PUSH1 0x40 MLOAD PUSH2 0x255 SWAP2 SWAP1 PUSH2 0x2AD2 JUMP JUMPDEST PUSH1 0x40 MLOAD DUP1 SWAP2 SUB SWAP1 RETURN JUMPDEST CALLVALUE DUP1 ISZERO PUSH2 0x269 JUMPI PUSH0 PUSH0 REVERT JUMPDEST POP PUSH2 0x272 PUSH2 0x80A JUMP JUMPDEST PUSH1 0x40 MLOAD PUSH2 0x27F SWAP2 SWAP1 PUSH2 0x2B03 JUMP JUMPDEST PUSH1 0x40 MLOAD DUP1 SWAP2 SUB SWAP1 RETURN JUMPDEST CALLVALUE DUP1 ISZERO PUSH2 0x293 JUMPI PUSH0 PUSH0 REVERT JUMPDEST POP PUSH2 0x2AE PUSH1 0x4 DUP1 CALLDATASIZE SUB DUP2 ADD SWAP1 PUSH2 0x2A9 SWAP2 SWAP1 PUSH2 0x2CBE JUMP JUMPDEST PUSH2 0x813 JUMP JUMPDEST STOP JUMPDEST CALLVALUE DUP1 ISZERO PUSH2 0x2BB JUMPI PUSH0 PUSH0 REVERT JUMPDEST POP PUSH2 0x2D6 PUSH1 0x4 DUP1 CALLDATASIZE SUB DUP2 ADD SWAP1 PUSH2 0x2D1 SWAP2 SWAP1 PUSH2 0x3076 JUMP JUMPDEST PUSH2 0x8BA JUMP JUMPDEST STOP JUMPDEST CALLVALUE DUP1 ISZERO PUSH2 0x2E3 JUMPI PUSH0 PUSH0 REVERT JUMPDEST POP PUSH2 0x2FE PUSH1 0x4 DUP1 CALLDATASIZE SUB DUP2 ADD SWAP1 PUSH2 0x2F9 SWAP2 SWAP1 PUSH2 0x3179 JUMP JUMPDEST PUSH2 0x9CC JUMP JUMPDEST STOP JUMPDEST CALLVALUE DUP1 ISZERO PUSH2 0x30B JUMPI PUSH0 PUSH0 REVERT JUMPDEST POP PUSH2 0x314 PUSH2 0xAC6 JUMP JUMPDEST PUSH1 0x40 MLOAD PUSH2 0x321 SWAP2 SWAP1 PUSH2 0x3214 JUMP JUMPDEST PUSH1 0x40 MLOAD DUP1 SWAP2 SUB SWAP1 RETURN JUMPDEST CALLVALUE DUP1 ISZERO PUSH2 0x335 JUMPI PUSH0 PUSH0 REVERT JUMPDEST POP PUSH2 0x350 PUSH1 0x4 DUP1 CALLDATASIZE SUB DUP2 ADD SWAP1 PUSH2 0x34B SWAP2 SWAP1 PUSH2 0x2CBE JUMP JUMPDEST PUSH2 0xAE8 JUMP JUMPDEST STOP JUMPDEST CALLVALUE DUP1 ISZERO PUSH2 0x35D JUMPI PUSH0 PUSH0 REVERT JUMPDEST POP PUSH2 0x366 PUSH2 0xB37 JUMP JUMPDEST PUSH1 0x40 MLOAD PUSH2 0x373 SWAP2 SWAP1 PUSH2 0x2B03 JUMP JUMPDEST PUSH1 0x40 MLOAD DUP1 SWAP2 SUB SWAP1 RETURN JUMPDEST CALLVALUE DUP1 ISZERO PUSH2 0x387 JUMPI PUSH0 PUSH0 REVERT JUMPDEST POP PUSH2 0x3A2 PUSH1 0x4 DUP1 CALLDATASIZE SUB DUP2 ADD SWAP1 PUSH2 0x39D SWAP2 SWAP1 PUSH2 0x3260 JUMP JUMPDEST PUSH2 0xB3D JUMP JUMPDEST PUSH1 0x40 MLOAD PUSH2 0x3AF SWAP2 SWAP1 PUSH2 0x32DB JUMP JUMPDEST PUSH1 0x40 MLOAD DUP1 SWAP2 SUB SWAP1 RETURN JUMPDEST CALLVALUE DUP1 ISZERO PUSH2 0x3C3 JUMPI PUSH0 PUSH0 REVERT JUMPDEST POP PUSH2 0x3DE PUSH1 0x4 DUP1 CALLDATASIZE SUB DUP2 ADD SWAP1 PUSH2 0x3D9 SWAP2 SWAP1 PUSH2 0x32FB JUMP JUMPDEST PUSH2 0xB4F JUMP JUMPDEST PUSH1 0x40 MLOAD PUSH2 0x3EB SWAP2 SWAP1 PUSH2 0x2B03 JUMP JUMPDEST PUSH1 0x40 MLOAD DUP1 SWAP2 SUB SWAP1 RETURN JUMPDEST CALLVALUE DUP1 ISZERO PUSH2 0x3FF JUMPI PUSH0 PUSH0 REVERT JUMPDEST POP PUSH2 0x41A PUSH1 0x4 DUP1 CALLDATASIZE SUB DUP2 ADD SWAP1 PUSH2 0x415 SWAP2 SWAP1 PUSH2 0x3392 JUMP JUMPDEST PUSH2 0xC4A JUMP JUMPDEST PUSH1 0x40 MLOAD PUSH2 0x427 SWAP2 SWAP1 PUSH2 0x34E0 JUMP JUMPDEST PUSH1 0x40 MLOAD DUP1 SWAP2 SUB SWAP1 RETURN JUMPDEST CALLVALUE DUP1 ISZERO PUSH2 0x43B JUMPI PUSH0 PUSH0 REVERT JUMPDEST POP PUSH2 0x456 PUSH1 0x4 DUP1 CALLDATASIZE SUB DUP2 ADD SWAP1 PUSH2 0x451 SWAP2 SWAP1 PUSH2 0x3500 JUMP JUMPDEST PUSH2 0xDC0 JUMP JUMPDEST PUSH1 0x40 MLOAD PUSH2 0x463 SWAP2 SWAP1 PUSH2 0x2B03 JUMP JUMPDEST PUSH1 0x40 MLOAD DUP1 SWAP2 SUB SWAP1 RETURN JUMPDEST CALLVALUE DUP1 ISZERO PUSH2 0x477 JUMPI PUSH0 PUSH0 REVERT JUMPDEST POP PUSH2 0x480 PUSH2 0xE06 JUMP JUMPDEST STOP JUMPDEST CALLVALUE DUP1 ISZERO PUSH2 0x48D JUMPI PUSH0 PUSH0 REVERT JUMPDEST POP PUSH2 0x4A8 PUSH1 0x4 DUP1 CALLDATASIZE SUB DUP2 ADD SWAP1 PUSH2 0x4A3 SWAP2 SWAP1 PUSH2 0x352B JUMP JUMPDEST PUSH2 0xE19 JUMP JUMPDEST STOP JUMPDEST CALLVALUE DUP1 ISZERO PUSH2 0x4B5 JUMPI PUSH0 PUSH0 REVERT JUMPDEST POP PUSH2 0x4D0 PUSH1 0x4 DUP1 CALLDATASIZE SUB DUP2 ADD SWAP1 PUSH2 0x4CB SWAP2 SWAP1 PUSH2 0x35AB JUMP JUMPDEST PUSH2 0xE33 JUMP JUMPDEST STOP JUMPDEST CALLVALUE DUP1 ISZERO PUSH2 0x4DD JUMPI PUSH0 PUSH0 REVERT JUMPDEST POP PUSH2 0x4F8 PUSH1 0x4 DUP1 CALLDATASIZE SUB DUP2 ADD SWAP1 PUSH2 0x4F3 SWAP2 SWAP1 PUSH2 0x363E JUMP JUMPDEST PUSH2 0xE86 JUMP JUMPDEST STOP JUMPDEST PUSH2 0x514 PUSH1 0x4 DUP1 CALLDATASIZE SUB DUP2 ADD SWAP1 PUSH2 0x50F SWAP2 SWAP1 PUSH2 0x36BE JUMP JUMPDEST PUSH2 0xFC9 JUMP JUMPDEST STOP JUMPDEST CALLVALUE DUP1 ISZERO PUSH2 0x521 JUMPI PUSH0 PUSH0 REVERT JUMPDEST POP PUSH2 0x52A PUSH2 0x1018 JUMP JUMPDEST PUSH1 0x40 MLOAD PUSH2 0x537 SWAP2 SWAP1 PUSH2 0x3727 JUMP JUMPDEST PUSH1 0x40 MLOAD DUP1 SWAP2 SUB SWAP1 RETURN JUMPDEST PUSH2 0x55A PUSH1 0x4 DUP1 CALLDATASIZE SUB DUP2 ADD SWAP1 PUSH2 0x555 SWAP2 SWAP1 PUSH2 0x3800 JUMP JUMPDEST PUSH2 0x103F JUMP JUMPDEST STOP JUMPDEST CALLVALUE DUP1 ISZERO PUSH2 0x567 JUMPI PUSH0 PUSH0 REVERT JUMPDEST POP PUSH2 0x582 PUSH1 0x4 DUP1 CALLDATASIZE SUB DUP2 ADD SWAP1 PUSH2 0x57D SWAP2 SWAP1 PUSH2 0x2CBE JUMP JUMPDEST PUSH2 0x1151 JUMP JUMPDEST STOP JUMPDEST CALLVALUE DUP1 ISZERO PUSH2 0x58F JUMPI PUSH0 PUSH0 REVERT JUMPDEST POP PUSH2 0x5AA PUSH1 0x4 DUP1 CALLDATASIZE SUB DUP2 ADD SWAP1 PUSH2 0x5A5 SWAP2 SWAP1 PUSH2 0x3500 JUMP JUMPDEST PUSH2 0x1196 JUMP JUMPDEST PUSH1 0x40 MLOAD PUSH2 0x5B7 SWAP2 SWAP1 PUSH2 0x392D JUMP JUMPDEST PUSH1 0x40 MLOAD DUP1 SWAP2 SUB SWAP1 RETURN JUMPDEST CALLVALUE DUP1 ISZERO PUSH2 0x5CB JUMPI PUSH0 PUSH0 REVERT JUMPDEST POP PUSH2 0x5E6 PUSH1 0x4 DUP1 CALLDATASIZE SUB DUP2 ADD SWAP1 PUSH2 0x5E1 SWAP2 SWAP1 PUSH2 0x394D JUMP JUMPDEST PUSH2 0x11E4 JUMP JUMPDEST PUSH1 0x40 MLOAD PUSH2 0x5F3 SWAP2 SWAP1 PUSH2 0x34E0 JUMP JUMPDEST PUSH1 0x40 MLOAD DUP1 SWAP2 SUB SWAP1 RETURN JUMPDEST CALLVALUE DUP1 ISZERO PUSH2 0x607 JUMPI PUSH0 PUSH0 REVERT JUMPDEST POP PUSH2 0x622 PUSH1 0x4 DUP1 CALLDATASIZE SUB DUP2 ADD SWAP1 PUSH2 0x61D SWAP2 SWAP1 PUSH2 0x3500 JUMP JUMPDEST PUSH2 0x1297 JUMP JUMPDEST STOP JUMPDEST PUSH1 0x60 PUSH0 PUSH2 0x653 PUSH0 CALLDATALOAD PUSH32 0xFFFFFFFF00000000000000000000000000000000000000000000000000000000 AND PUSH2 0x1310 JUMP JUMPDEST POP SWAP1 POP PUSH0 PUSH20 0xFFFFFFFFFFFFFFFFFFFFFFFFFFFFFFFFFFFFFFFF AND DUP2 PUSH20 0xFFFFFFFFFFFFFFFFFFFFFFFFFFFFFFFFFFFFFFFF AND SUB PUSH2 0x6E9 JUMPI PUSH0 CALLDATALOAD PUSH32 0xFFFFFFFF00000000000000000000000000000000000000000000000000000000 AND PUSH1 0x40 MLOAD PUSH32 0xBB370B2B00000000000000000000000000000000000000000000000000000000 DUP2 MSTORE PUSH1 0x4 ADD PUSH2 0x6E0 SWAP2 SWAP1 PUSH2 0x39A3 JUMP JUMPDEST PUSH1 0x40 MLOAD DUP1 SWAP2 SUB SWAP1 REVERT JUMPDEST PUSH0 PUSH0 DUP3 PUSH20 0xFFFFFFFFFFFFFFFFFFFFFFFFFFFFFFFFFFFFFFFF AND CALLVALUE DUP8 DUP8 CALLER CALLVALUE PUSH1 0x40 MLOAD PUSH1 0x20 ADD PUSH2 0x71A SWAP5 SWAP4 SWAP3 SWAP2 SWAP1 PUSH2 0x3A4F JUMP JUMPDEST PUSH1 0x40 MLOAD PUSH1 0x20 DUP2 DUP4 SUB SUB DUP2 MSTORE SWAP1 PUSH1 0x40 MSTORE PUSH1 0x40 MLOAD PUSH2 0x736 SWAP2 SWAP1 PUSH2 0x3AB9 JUMP JUMPDEST PUSH0 PUSH1 0x40 MLOAD DUP1 DUP4 SUB DUP2 DUP6 DUP8 GAS CALL SWAP3 POP POP POP RETURNDATASIZE DUP1 PUSH0 DUP2 EQ PUSH2 0x770 JUMPI PUSH1 0x40 MLOAD SWAP2 POP PUSH1 0x1F NOT PUSH1 0x3F RETURNDATASIZE ADD AND DUP3 ADD PUSH1 0x40 MSTORE RETURNDATASIZE DUP3 MSTORE RETURNDATASIZE PUSH0 PUSH1 0x20 DUP5 ADD RETURNDATACOPY PUSH2 0x775 JUMP JUMPDEST PUSH1 0x60 SWAP2 POP JUMPDEST POP SWAP2 POP SWAP2 POP DUP2 ISZERO PUSH2 0x78B JUMPI DUP1 SWAP4 POP POP POP POP PUSH2 0x794 JUMP JUMPDEST DUP1 MLOAD DUP1 PUSH1 0x20 DUP4 ADD REVERT JUMPDEST SWAP3 SWAP2 POP POP JUMP JUMPDEST PUSH0 PUSH4 0xC52D6008 PUSH1 0xE0 SHL PUSH28 0xFFFFFFFFFFFFFFFFFFFFFFFFFFFFFFFFFFFFFFFFFFFFFFFFFFFFFFFF NOT AND DUP3 PUSH28 0xFFFFFFFFFFFFFFFFFFFFFFFFFFFFFFFFFFFFFFFFFFFFFFFFFFFFFFFF NOT AND EQ DUP1 PUSH2 0x7F3 JUMPI POP PUSH2 0x7F2 DUP3 PUSH2 0x13C6 JUMP JUMPDEST JUMPDEST DUP1 PUSH2 0x803 JUMPI POP PUSH2 0x802 DUP3 PUSH2 0x1426 JUMP JUMPDEST JUMPDEST SWAP1 POP SWAP2 SWAP1 POP JUMP JUMPDEST PUSH0 PUSH1 0x3 SLOAD SWAP1 POP SWAP1 JUMP JUMPDEST PUSH0 PUSH2 0x81E DUP5 CALLER PUSH2 0xB4F JUMP JUMPDEST SWAP1 POP PUSH0 DUP2 SUB PUSH2 0x864 JUMPI DUP4 PUSH1 0x40 MLOAD PUSH32 0xCBA6E97700000000000000000000000000000000000000000000000000000000 DUP2 MSTORE PUSH1 0x4 ADD PUSH2 0x85B SWAP2 SWAP1 PUSH2 0x3727 JUMP JUMPDEST PUSH1 0x40 MLOAD DUP1 SWAP2 SUB SWAP1 REVERT JUMPDEST PUSH0 DUP4 DUP3 PUSH2 0x871 SWAP2 SWAP1 PUSH2 0x3AFC JUMP JUMPDEST SWAP1 POP PUSH2 0x881 CALLER DUP7 DUP4 PUSH1 0x1 DUP8 PUSH2 0x148A JUMP JUMPDEST PUSH0 CALLER DUP3 DUP6 PUSH1 0x40 MLOAD PUSH1 0x20 ADD PUSH2 0x897 SWAP4 SWAP3 SWAP2 SWAP1 PUSH2 0x3B2F JUMP JUMPDEST PUSH1 0x40 MLOAD PUSH1 0x20 DUP2 DUP4 SUB SUB DUP2 MSTORE SWAP1 PUSH1 0x40 MSTORE SWAP1 POP PUSH2 0x8B2 DUP7 DUP3 PUSH2 0x1753 JUMP JUMPDEST POP POP POP POP POP POP JUMP JUMPDEST PUSH0 DUP6 MLOAD SWAP1 POP DUP5 MLOAD DUP2 EQ ISZERO DUP1 PUSH2 0x8D0 JUMPI POP DUP4 MLOAD DUP2 EQ ISZERO JUMPDEST DUP1 PUSH2 0x8DC JUMPI POP DUP3 MLOAD DUP2 EQ ISZERO JUMPDEST DUP1 PUSH2 0x8E8 JUMPI POP DUP2 MLOAD DUP2 EQ ISZERO JUMPDEST ISZERO PUSH2 0x91F JUMPI PUSH1 0x40 MLOAD PUSH32 0x263EEE8D00000000000000000000000000000000000000000000000000000000 DUP2 MSTORE PUSH1 0x4 ADD PUSH1 0x40 MLOAD DUP1 SWAP2 SUB SWAP1 REVERT JUMPDEST PUSH0 JUMPDEST DUP2 DUP2 LT ISZERO PUSH2 0x9C3 JUMPI PUSH2 0x9B8 DUP8 DUP3 DUP2 MLOAD DUP2 LT PUSH2 0x93F JUMPI PUSH2 0x93E PUSH2 0x3B6B JUMP JUMPDEST JUMPDEST PUSH1 0x20 MUL PUSH1 0x20 ADD ADD MLOAD DUP8 DUP4 DUP2 MLOAD DUP2 LT PUSH2 0x95A JUMPI PUSH2 0x959 PUSH2 0x3B6B JUMP JUMPDEST JUMPDEST PUSH1 0x20 MUL PUSH1 0x20 ADD ADD MLOAD DUP8 DUP5 DUP2 MLOAD DUP2 LT PUSH2 0x975 JUMPI PUSH2 0x974 PUSH2 0x3B6B JUMP JUMPDEST JUMPDEST PUSH1 0x20 MUL PUSH1 0x20 ADD ADD MLOAD DUP8 DUP6 DUP2 MLOAD DUP2 LT PUSH2 0x990 JUMPI PUSH2 0x98F PUSH2 0x3B6B JUMP JUMPDEST JUMPDEST PUSH1 0x20 MUL PUSH1 0x20 ADD ADD MLOAD DUP8 DUP7 DUP2 MLOAD DUP2 LT PUSH2 0x9AB JUMPI PUSH2 0x9AA PUSH2 0x3B6B JUMP JUMPDEST JUMPDEST PUSH1 0x20 MUL PUSH1 0x20 ADD ADD MLOAD PUSH2 0xE33 JUMP JUMPDEST DUP1 PUSH1 0x1 ADD SWAP1 POP PUSH2 0x921 JUMP JUMPDEST POP POP POP POP POP POP POP JUMP JUMPDEST DUP3 PUSH20 0xFFFFFFFFFFFFFFFFFFFFFFFFFFFFFFFFFFFFFFFF AND CALLER PUSH20 0xFFFFFFFFFFFFFFFFFFFFFFFFFFFFFFFFFFFFFFFF AND EQ ISZERO DUP1 ISZERO PUSH2 0xA34 JUMPI POP DUP4 PUSH20 0xFFFFFFFFFFFFFFFFFFFFFFFFFFFFFFFFFFFFFFFF AND CALLER PUSH20 0xFFFFFFFFFFFFFFFFFFFFFFFFFFFFFFFFFFFFFFFF AND EQ ISZERO JUMPDEST ISZERO PUSH2 0xA7A JUMPI CALLER DUP4 DUP6 PUSH1 0x40 MLOAD PUSH32 0x1A525B3200000000000000000000000000000000000000000000000000000000 DUP2 MSTORE PUSH1 0x4 ADD PUSH2 0xA71 SWAP4 SWAP3 SWAP2 SWAP1 PUSH2 0x3B98 JUMP JUMPDEST PUSH1 0x40 MLOAD DUP1 SWAP2 SUB SWAP1 REVERT JUMPDEST PUSH2 0xA87 DUP4 DUP6 PUSH0 DUP6 DUP6 PUSH2 0x148A JUMP JUMPDEST DUP2 ISZERO PUSH2 0xAC0 JUMPI PUSH0 DUP4 PUSH0 DUP4 PUSH1 0x40 MLOAD PUSH1 0x20 ADD PUSH2 0xAA3 SWAP4 SWAP3 SWAP2 SWAP1 PUSH2 0x3C0F JUMP JUMPDEST PUSH1 0x40 MLOAD PUSH1 0x20 DUP2 DUP4 SUB SUB DUP2 MSTORE SWAP1 PUSH1 0x40 MSTORE SWAP1 POP PUSH2 0xABE DUP6 DUP3 PUSH2 0x1753 JUMP JUMPDEST POP JUMPDEST POP POP POP POP JUMP JUMPDEST PUSH0 PUSH1 0x2 PUSH0 SWAP1 SLOAD SWAP1 PUSH2 0x100 EXP SWAP1 DIV PUSH1 0xFF AND PUSH2 0xAE1 JUMPI PUSH1 0x12 PUSH2 0xAE3 JUMP JUMPDEST PUSH0 JUMPDEST SWAP1 POP SWAP1 JUMP JUMPDEST DUP3 PUSH20 0xFFFFFFFFFFFFFFFFFFFFFFFFFFFFFFFFFFFFFFFF AND CALLER PUSH20 0xFFFFFFFFFFFFFFFFFFFFFFFFFFFFFFFFFFFFFFFF AND EQ PUSH2 0xB27 JUMPI PUSH2 0xB26 CALLER DUP5 DUP5 PUSH2 0x1784 JUMP JUMPDEST JUMPDEST PUSH2 0xB32 DUP4 DUP4 DUP4 PUSH2 0x1877 JUMP JUMPDEST POP POP POP JUMP JUMPDEST PUSH1 0x7 SLOAD DUP2 JUMP JUMPDEST PUSH1 0x60 PUSH2 0xB48 DUP3 PUSH2 0x1AA5 JUMP JUMPDEST SWAP1 POP SWAP2 SWAP1 POP JUMP JUMPDEST PUSH0 DUP3 PUSH20 0xFFFFFFFFFFFFFFFFFFFFFFFFFFFFFFFFFFFFFFFF AND DUP3 PUSH20 0xFFFFFFFFFFFFFFFFFFFFFFFFFFFFFFFFFFFFFFFF AND SUB PUSH2 0xBC8 JUMPI PUSH1 0x4 PUSH0 DUP4 PUSH20 0xFFFFFFFFFFFFFFFFFFFFFFFFFFFFFFFFFFFFFFFF AND PUSH20 0xFFFFFFFFFFFFFFFFFFFFFFFFFFFFFFFFFFFFFFFF AND DUP2 MSTORE PUSH1 0x20 ADD SWAP1 DUP2 MSTORE PUSH1 0x20 ADD PUSH0 KECCAK256 SLOAD SWAP1 POP PUSH2 0xC44 JUMP JUMPDEST PUSH1 0x6 PUSH0 DUP4 PUSH20 0xFFFFFFFFFFFFFFFFFFFFFFFFFFFFFFFFFFFFFFFF AND PUSH20 0xFFFFFFFFFFFFFFFFFFFFFFFFFFFFFFFFFFFFFFFF AND DUP2 MSTORE PUSH1 0x20 ADD SWAP1 DUP2 MSTORE PUSH1 0x20 ADD PUSH0 KECCAK256 PUSH0 DUP5 PUSH20 0xFFFFFFFFFFFFFFFFFFFFFFFFFFFFFFFFFFFFFFFF AND PUSH20 0xFFFFFFFFFFFFFFFFFFFFFFFFFFFFFFFFFFFFFFFF AND DUP2 MSTORE PUSH1 0x20 ADD SWAP1 DUP2 MSTORE PUSH1 0x20 ADD PUSH0 KECCAK256 SLOAD SWAP1 POP JUMPDEST SWAP3 SWAP2 POP POP JUMP JUMPDEST PUSH1 0x60 DUP3 DUP3 SWAP1 POP PUSH8 0xFFFFFFFFFFFFFFFF DUP2 GT ISZERO PUSH2 0xC69 JUMPI PUSH2 0xC68 PUSH2 0x2BA8 JUMP JUMPDEST JUMPDEST PUSH1 0x40 MLOAD SWAP1 DUP1 DUP3 MSTORE DUP1 PUSH1 0x20 MUL PUSH1 0x20 ADD DUP3 ADD PUSH1 0x40 MSTORE DUP1 ISZERO PUSH2 0xC9C JUMPI DUP2 PUSH1 0x20 ADD JUMPDEST PUSH1 0x60 DUP2 MSTORE PUSH1 0x20 ADD SWAP1 PUSH1 0x1 SWAP1 SUB SWAP1 DUP2 PUSH2 0xC87 JUMPI SWAP1 POP JUMPDEST POP SWAP1 POP PUSH0 JUMPDEST DUP4 DUP4 SWAP1 POP DUP2 LT ISZERO PUSH2 0xDB9 JUMPI PUSH0 PUSH0 ADDRESS PUSH20 0xFFFFFFFFFFFFFFFFFFFFFFFFFFFFFFFFFFFFFFFF AND DUP7 DUP7 DUP6 DUP2 DUP2 LT PUSH2 0xCD8 JUMPI PUSH2 0xCD7 PUSH2 0x3B6B JUMP JUMPDEST JUMPDEST SWAP1 POP PUSH1 0x20 MUL DUP2 ADD SWAP1 PUSH2 0xCEA SWAP2 SWAP1 PUSH2 0x3C57 JUMP JUMPDEST PUSH1 0x40 MLOAD PUSH2 0xCF8 SWAP3 SWAP2 SWAP1 PUSH2 0x3CB9 JUMP JUMPDEST PUSH0 PUSH1 0x40 MLOAD DUP1 DUP4 SUB DUP2 DUP6 GAS DELEGATECALL SWAP2 POP POP RETURNDATASIZE DUP1 PUSH0 DUP2 EQ PUSH2 0xD30 JUMPI PUSH1 0x40 MLOAD SWAP2 POP PUSH1 0x1F NOT PUSH1 0x3F RETURNDATASIZE ADD AND DUP3 ADD PUSH1 0x40 MSTORE RETURNDATASIZE DUP3 MSTORE RETURNDATASIZE PUSH0 PUSH1 0x20 DUP5 ADD RETURNDATACOPY PUSH2 0xD35 JUMP JUMPDEST PUSH1 0x60 SWAP2 POP JUMPDEST POP SWAP2 POP SWAP2 POP DUP2 PUSH2 0xD8D JUMPI PUSH0 DUP2 MLOAD EQ PUSH2 0xD50 JUMPI DUP1 MLOAD DUP1 DUP3 PUSH1 0x20 ADD REVERT JUMPDEST DUP3 PUSH1 0x40 MLOAD PUSH32 0xB774C28400000000000000000000000000000000000000000000000000000000 DUP2 MSTORE PUSH1 0x4 ADD PUSH2 0xD84 SWAP2 SWAP1 PUSH2 0x2B03 JUMP JUMPDEST PUSH1 0x40 MLOAD DUP1 SWAP2 SUB SWAP1 REVERT JUMPDEST DUP1 DUP5 DUP5 DUP2 MLOAD DUP2 LT PUSH2 0xDA1 JUMPI PUSH2 0xDA0 PUSH2 0x3B6B JUMP JUMPDEST JUMPDEST PUSH1 0x20 MUL PUSH1 0x20 ADD ADD DUP2 SWAP1 MSTORE POP DUP3 PUSH1 0x1 ADD SWAP3 POP POP POP PUSH2 0xCA1 JUMP JUMPDEST POP SWAP3 SWAP2 POP POP JUMP JUMPDEST PUSH0 PUSH1 0x4 PUSH0 DUP4 PUSH20 0xFFFFFFFFFFFFFFFFFFFFFFFFFFFFFFFFFFFFFFFF AND PUSH20 0xFFFFFFFFFFFFFFFFFFFFFFFFFFFFFFFFFFFFFFFF AND DUP2 MSTORE PUSH1 0x20 ADD SWAP1 DUP2 MSTORE PUSH1 0x20 ADD PUSH0 KECCAK256 SLOAD SWAP1 POP SWAP2 SWAP1 POP JUMP JUMPDEST PUSH2 0xE0E PUSH2 0x1B46 JUMP JUMPDEST PUSH2 0xE17 PUSH0 PUSH2 0x1BBF JUMP JUMPDEST JUMP JUMPDEST PUSH2 0xE21 PUSH2 0x1B46 JUMP JUMPDEST PUSH2 0xE2D DUP5 DUP5 DUP5 DUP5 PUSH2 0x1CB6 JUMP JUMPDEST POP POP POP POP JUMP JUMPDEST DUP5 PUSH20 0xFFFFFFFFFFFFFFFFFFFFFFFFFFFFFFFFFFFFFFFF AND CALLER PUSH20 0xFFFFFFFFFFFFFFFFFFFFFFFFFFFFFFFFFFFFFFFF AND EQ PUSH2 0xE72 JUMPI PUSH2 0xE71 CALLER DUP7 DUP6 PUSH2 0x1784 JUMP JUMPDEST JUMPDEST PUSH2 0xE7F DUP6 DUP6 DUP6 DUP6 DUP6 PUSH2 0x1D2C JUMP JUMPDEST POP POP POP POP POP JUMP JUMPDEST DUP3 PUSH20 0xFFFFFFFFFFFFFFFFFFFFFFFFFFFFFFFFFFFFFFFF AND CALLER PUSH20 0xFFFFFFFFFFFFFFFFFFFFFFFFFFFFFFFFFFFFFFFF AND EQ ISZERO DUP1 ISZERO PUSH2 0xEEE JUMPI POP DUP4 PUSH20 0xFFFFFFFFFFFFFFFFFFFFFFFFFFFFFFFFFFFFFFFF AND CALLER PUSH20 0xFFFFFFFFFFFFFFFFFFFFFFFFFFFFFFFFFFFFFFFF AND EQ ISZERO JUMPDEST ISZERO PUSH2 0xF34 JUMPI CALLER DUP4 DUP6 PUSH1 0x40 MLOAD PUSH32 0x98CE294500000000000000000000000000000000000000000000000000000000 DUP2 MSTORE PUSH1 0x4 ADD PUSH2 0xF2B SWAP4 SWAP3 SWAP2 SWAP1 PUSH2 0x3B98 JUMP JUMPDEST PUSH1 0x40 MLOAD DUP1 SWAP2 SUB SWAP1 REVERT JUMPDEST PUSH0 PUSH2 0xF3F DUP6 DUP6 PUSH2 0xB4F JUMP JUMPDEST SWAP1 POP DUP3 DUP2 LT ISZERO PUSH2 0xF7B JUMPI PUSH1 0x40 MLOAD PUSH32 0xEF76C3500000000000000000000000000000000000000000000000000000000 DUP2 MSTORE PUSH1 0x4 ADD PUSH1 0x40 MLOAD DUP1 SWAP2 SUB SWAP1 REVERT JUMPDEST PUSH0 DUP4 DUP3 SUB SWAP1 POP PUSH2 0xF8F DUP6 DUP8 DUP4 PUSH1 0x1 DUP8 PUSH2 0x148A JUMP JUMPDEST PUSH0 DUP6 DUP3 DUP6 PUSH1 0x40 MLOAD PUSH1 0x20 ADD PUSH2 0xFA5 SWAP4 SWAP3 SWAP2 SWAP1 PUSH2 0x3B2F JUMP JUMPDEST PUSH1 0x40 MLOAD PUSH1 0x20 DUP2 DUP4 SUB SUB DUP2 MSTORE SWAP1 PUSH1 0x40 MSTORE SWAP1 POP PUSH2 0xFC0 DUP8 DUP3 PUSH2 0x1753 JUMP JUMPDEST POP POP POP POP POP POP POP JUMP JUMPDEST PUSH2 0xFD1 PUSH2 0x1B46 JUMP JUMPDEST PUSH0 CALLVALUE EQ PUSH2 0x100A JUMPI PUSH1 0x40 MLOAD PUSH32 0xF36BA73700000000000000000000000000000000000000000000000000000000 DUP2 MSTORE PUSH1 0x4 ADD PUSH1 0x40 MLOAD DUP1 SWAP2 SUB SWAP1 REVERT JUMPDEST PUSH2 0x1014 DUP3 DUP3 PUSH2 0x1FD9 JUMP JUMPDEST POP POP JUMP JUMPDEST PUSH0 PUSH0 PUSH0 SWAP1 SLOAD SWAP1 PUSH2 0x100 EXP SWAP1 DIV PUSH20 0xFFFFFFFFFFFFFFFFFFFFFFFFFFFFFFFFFFFFFFFF AND SWAP1 POP SWAP1 JUMP JUMPDEST PUSH2 0x1047 PUSH2 0x1B46 JUMP JUMPDEST PUSH0 CALLVALUE EQ PUSH2 0x1080 JUMPI PUSH1 0x40 MLOAD PUSH32 0xF36BA73700000000000000000000000000000000000000000000000000000000 DUP2 MSTORE PUSH1 0x4 ADD PUSH1 0x40 MLOAD DUP1 SWAP2 SUB SWAP1 REVERT JUMPDEST DUP1 MLOAD DUP3 MLOAD EQ PUSH2 0x10BB JUMPI PUSH1 0x40 MLOAD PUSH32 0x3BCC897900000000000000000000000000000000000000000000000000000000 DUP2 MSTORE PUSH1 0x4 ADD PUSH1 0x40 MLOAD DUP1 SWAP2 SUB SWAP1 REVERT JUMPDEST PUSH0 DUP3 MLOAD SUB PUSH2 0x10F5 JUMPI PUSH1 0x40 MLOAD PUSH32 0x97DA5F9500000000000000000000000000000000000000000000000000000000 DUP2 MSTORE PUSH1 0x4 ADD PUSH1 0x40 MLOAD DUP1 SWAP2 SUB SWAP1 REVERT JUMPDEST PUSH0 PUSH0 SWAP1 POP JUMPDEST DUP3 MLOAD DUP2 LT ISZERO PUSH2 0x114C JUMPI PUSH2 0x1141 DUP4 DUP3 DUP2 MLOAD DUP2 LT PUSH2 0x1119 JUMPI PUSH2 0x1118 PUSH2 0x3B6B JUMP JUMPDEST JUMPDEST PUSH1 0x20 MUL PUSH1 0x20 ADD ADD MLOAD DUP4 DUP4 DUP2 MLOAD DUP2 LT PUSH2 0x1134 JUMPI PUSH2 0x1133 PUSH2 0x3B6B JUMP JUMPDEST JUMPDEST PUSH1 0x20 MUL PUSH1 0x20 ADD ADD MLOAD PUSH2 0x1FD9 JUMP JUMPDEST DUP1 PUSH1 0x1 ADD SWAP1 POP PUSH2 0x10FA JUMP JUMPDEST POP POP POP JUMP JUMPDEST PUSH2 0x115F CALLER DUP5 DUP5 PUSH1 0x1 DUP6 PUSH2 0x148A JUMP JUMPDEST PUSH0 CALLER DUP4 DUP4 PUSH1 0x40 MLOAD PUSH1 0x20 ADD PUSH2 0x1175 SWAP4 SWAP3 SWAP2 SWAP1 PUSH2 0x3B2F JUMP JUMPDEST PUSH1 0x40 MLOAD PUSH1 0x20 DUP2 DUP4 SUB SUB DUP2 MSTORE SWAP1 PUSH1 0x40 MSTORE SWAP1 POP PUSH2 0x1190 DUP5 DUP3 PUSH2 0x1753 JUMP JUMPDEST POP POP POP POP JUMP JUMPDEST PUSH1 0x60 PUSH2 0x11DD PUSH1 0x5 PUSH0 DUP5 PUSH20 0xFFFFFFFFFFFFFFFFFFFFFFFFFFFFFFFFFFFFFFFF AND PUSH20 0xFFFFFFFFFFFFFFFFFFFFFFFFFFFFFFFFFFFFFFFF AND DUP2 MSTORE PUSH1 0x20 ADD SWAP1 DUP2 MSTORE PUSH1 0x20 ADD PUSH0 KECCAK256 PUSH2 0x1FE7 JUMP JUMPDEST SWAP1 POP SWAP2 SWAP1 POP JUMP JUMPDEST PUSH1 0x60 DUP2 MLOAD PUSH8 0xFFFFFFFFFFFFFFFF DUP2 GT ISZERO PUSH2 0x1201 JUMPI PUSH2 0x1200 PUSH2 0x2BA8 JUMP JUMPDEST JUMPDEST PUSH1 0x40 MLOAD SWAP1 DUP1 DUP3 MSTORE DUP1 PUSH1 0x20 MUL PUSH1 0x20 ADD DUP3 ADD PUSH1 0x40 MSTORE DUP1 ISZERO PUSH2 0x1234 JUMPI DUP2 PUSH1 0x20 ADD JUMPDEST PUSH1 0x60 DUP2 MSTORE PUSH1 0x20 ADD SWAP1 PUSH1 0x1 SWAP1 SUB SWAP1 DUP2 PUSH2 0x121F JUMPI SWAP1 POP JUMPDEST POP SWAP1 POP PUSH0 PUSH0 SWAP1 POP JUMPDEST DUP3 MLOAD DUP2 LT ISZERO PUSH2 0x1291 JUMPI PUSH2 0x1268 DUP4 DUP3 DUP2 MLOAD DUP2 LT PUSH2 0x125B JUMPI PUSH2 0x125A PUSH2 0x3B6B JUMP JUMPDEST JUMPDEST PUSH1 0x20 MUL PUSH1 0x20 ADD ADD MLOAD PUSH2 0x1AA5 JUMP JUMPDEST DUP3 DUP3 DUP2 MLOAD DUP2 LT PUSH2 0x127B JUMPI PUSH2 0x127A PUSH2 0x3B6B JUMP JUMPDEST JUMPDEST PUSH1 0x20 MUL PUSH1 0x20 ADD ADD DUP2 SWAP1 MSTORE POP DUP1 PUSH1 0x1 ADD SWAP1 POP PUSH2 0x123C JUMP JUMPDEST POP SWAP2 SWAP1 POP JUMP JUMPDEST PUSH2 0x129F PUSH2 0x1B46 JUMP JUMPDEST PUSH0 PUSH20 0xFFFFFFFFFFFFFFFFFFFFFFFFFFFFFFFFFFFFFFFF AND DUP2 PUSH20 0xFFFFFFFFFFFFFFFFFFFFFFFFFFFFFFFFFFFFFFFF AND SUB PUSH2 0x1304 JUMPI PUSH1 0x40 MLOAD PUSH32 0x1AD8836C00000000000000000000000000000000000000000000000000000000 DUP2 MSTORE PUSH1 0x4 ADD PUSH1 0x40 MLOAD DUP1 SWAP2 SUB SWAP1 REVERT JUMPDEST PUSH2 0x130D DUP2 PUSH2 0x1BBF JUMP JUMPDEST POP JUMP JUMPDEST PUSH0 PUSH0 PUSH0 PUSH2 0x1349 PUSH10 0xCEE78B4094DA86011096 PUSH1 0xB0 SHL DUP6 PUSH28 0xFFFFFFFFFFFFFFFFFFFFFFFFFFFFFFFFFFFFFFFFFFFFFFFFFFFFFFFF NOT AND PUSH2 0x2006 JUMP JUMPDEST SWAP1 POP PUSH0 PUSH2 0x1355 DUP3 PUSH2 0x1AA5 JUMP JUMPDEST SWAP1 POP PUSH1 0x14 DUP2 MLOAD EQ ISZERO DUP1 ISZERO PUSH2 0x136A JUMPI POP PUSH0 DUP2 MLOAD EQ ISZERO JUMPDEST ISZERO PUSH2 0x13AC JUMPI DUP1 PUSH1 0x40 MLOAD PUSH32 0x42BFE79F00000000000000000000000000000000000000000000000000000000 DUP2 MSTORE PUSH1 0x4 ADD PUSH2 0x13A3 SWAP2 SWAP1 PUSH2 0x32DB JUMP JUMPDEST PUSH1 0x40 MLOAD DUP1 SWAP2 SUB SWAP1 REVERT JUMPDEST DUP1 PUSH2 0x13B6 SWAP1 PUSH2 0x3D2B JUMP JUMPDEST PUSH1 0x60 SHR PUSH1 0x1 SWAP4 POP SWAP4 POP POP POP SWAP2 POP SWAP2 JUMP JUMPDEST PUSH0 PUSH4 0xA918FA6B PUSH1 0xE0 SHL PUSH28 0xFFFFFFFFFFFFFFFFFFFFFFFFFFFFFFFFFFFFFFFFFFFFFFFFFFFFFFFF NOT AND DUP3 PUSH28 0xFFFFFFFFFFFFFFFFFFFFFFFFFFFFFFFFFFFFFFFFFFFFFFFFFFFFFFFF NOT AND EQ DUP1 PUSH2 0x141F JUMPI POP PUSH2 0x141E DUP3 PUSH2 0x2044 JUMP JUMPDEST JUMPDEST SWAP1 POP SWAP2 SWAP1 POP JUMP JUMPDEST PUSH0 PUSH0 PUSH2 0x1438 PUSH4 0x1FFC9A7 PUSH1 0xE0 SHL PUSH2 0x1310 JUMP JUMPDEST POP SWAP1 POP PUSH0 PUSH20 0xFFFFFFFFFFFFFFFFFFFFFFFFFFFFFFFFFFFFFFFF AND DUP2 PUSH20 0xFFFFFFFFFFFFFFFFFFFFFFFFFFFFFFFFFFFFFFFF AND SUB PUSH2 0x1477 JUMPI PUSH0 SWAP2 POP POP PUSH2 0x1485 JUMP JUMPDEST PUSH2 0x1481 DUP2 DUP5 PUSH2 0x210D JUMP JUMPDEST SWAP2 POP POP JUMPDEST SWAP2 SWAP1 POP JUMP JUMPDEST PUSH0 PUSH20 0xFFFFFFFFFFFFFFFFFFFFFFFFFFFFFFFFFFFFFFFF AND DUP5 PUSH20 0xFFFFFFFFFFFFFFFFFFFFFFFFFFFFFFFFFFFFFFFF AND SUB PUSH2 0x14EF JUMPI PUSH1 0x40 MLOAD PUSH32 0x6355E76600000000000000000000000000000000000000000000000000000000 DUP2 MSTORE PUSH1 0x4 ADD PUSH1 0x40 MLOAD DUP1 SWAP2 SUB SWAP1 REVERT JUMPDEST DUP5 PUSH20 0xFFFFFFFFFFFFFFFFFFFFFFFFFFFFFFFFFFFFFFFF AND DUP5 PUSH20 0xFFFFFFFFFFFFFFFFFFFFFFFFFFFFFFFFFFFFFFFF AND SUB PUSH2 0x1554 JUMPI PUSH1 0x40 MLOAD PUSH32 0xDAB7504700000000000000000000000000000000000000000000000000000000 DUP2 MSTORE PUSH1 0x4 ADD PUSH1 0x40 MLOAD DUP1 SWAP2 SUB SWAP1 REVERT JUMPDEST DUP3 PUSH1 0x6 PUSH0 DUP8 PUSH20 0xFFFFFFFFFFFFFFFFFFFFFFFFFFFFFFFFFFFFFFFF AND PUSH20 0xFFFFFFFFFFFFFFFFFFFFFFFFFFFFFFFFFFFFFFFF AND DUP2 MSTORE PUSH1 0x20 ADD SWAP1 DUP2 MSTORE PUSH1 0x20 ADD PUSH0 KECCAK256 PUSH0 DUP7 PUSH20 0xFFFFFFFFFFFFFFFFFFFFFFFFFFFFFFFFFFFFFFFF AND PUSH20 0xFFFFFFFFFFFFFFFFFFFFFFFFFFFFFFFFFFFFFFFF AND DUP2 MSTORE PUSH1 0x20 ADD SWAP1 DUP2 MSTORE PUSH1 0x20 ADD PUSH0 KECCAK256 DUP2 SWAP1 SSTORE POP PUSH0 DUP4 EQ PUSH2 0x1693 JUMPI PUSH2 0x1627 DUP5 PUSH1 0x5 PUSH0 DUP9 PUSH20 0xFFFFFFFFFFFFFFFFFFFFFFFFFFFFFFFFFFFFFFFF AND PUSH20 0xFFFFFFFFFFFFFFFFFFFFFFFFFFFFFFFFFFFFFFFF AND DUP2 MSTORE PUSH1 0x20 ADD SWAP1 DUP2 MSTORE PUSH1 0x20 ADD PUSH0 KECCAK256 PUSH2 0x21C6 SWAP1 SWAP2 SWAP1 PUSH4 0xFFFFFFFF AND JUMP JUMPDEST POP DUP3 DUP6 PUSH20 0xFFFFFFFFFFFFFFFFFFFFFFFFFFFFFFFFFFFFFFFF AND DUP6 PUSH20 0xFFFFFFFFFFFFFFFFFFFFFFFFFFFFFFFFFFFFFFFF AND PUSH32 0xF772A43BFDF4729B196E3FB54A818B91A2CA6C49D10B2E16278752F9F515C25D DUP5 PUSH1 0x40 MLOAD PUSH2 0x1686 SWAP2 SWAP1 PUSH2 0x32DB JUMP JUMPDEST PUSH1 0x40 MLOAD DUP1 SWAP2 SUB SWAP1 LOG4 PUSH2 0x174C JUMP JUMPDEST PUSH2 0x16E2 DUP5 PUSH1 0x5 PUSH0 DUP9 PUSH20 0xFFFFFFFFFFFFFFFFFFFFFFFFFFFFFFFFFFFFFFFF AND PUSH20 0xFFFFFFFFFFFFFFFFFFFFFFFFFFFFFFFFFFFFFFFF AND DUP2 MSTORE PUSH1 0x20 ADD SWAP1 DUP2 MSTORE PUSH1 0x20 ADD PUSH0 KECCAK256 PUSH2 0x21F3 SWAP1 SWAP2 SWAP1 PUSH4 0xFFFFFFFF AND JUMP JUMPDEST POP DUP2 ISZERO ISZERO DUP6 PUSH20 0xFFFFFFFFFFFFFFFFFFFFFFFFFFFFFFFFFFFFFFFF AND DUP6 PUSH20 0xFFFFFFFFFFFFFFFFFFFFFFFFFFFFFFFFFFFFFFFF AND PUSH32 0xEBF5762D8855CBE012D2CA42FB33A81175E17C8A8751F8859931BA453BD4167 DUP5 PUSH1 0x40 MLOAD PUSH2 0x1743 SWAP2 SWAP1 PUSH2 0x32DB JUMP JUMPDEST PUSH1 0x40 MLOAD DUP1 SWAP2 SUB SWAP1 LOG4 JUMPDEST POP POP POP POP POP JUMP JUMPDEST PUSH2 0x1780 DUP3 PUSH32 0x386072CC5A58E61263B434C722725F21031CD06E7C552CFAA06DB5DE8A320DBC PUSH0 SHL DUP4 PUSH2 0x2220 JUMP JUMPDEST POP POP JUMP JUMPDEST PUSH0 PUSH1 0x6 PUSH0 DUP5 PUSH20 0xFFFFFFFFFFFFFFFFFFFFFFFFFFFFFFFFFFFFFFFF AND PUSH20 0xFFFFFFFFFFFFFFFFFFFFFFFFFFFFFFFFFFFFFFFF AND DUP2 MSTORE PUSH1 0x20 ADD SWAP1 DUP2 MSTORE PUSH1 0x20 ADD PUSH0 KECCAK256 PUSH0 DUP6 PUSH20 0xFFFFFFFFFFFFFFFFFFFFFFFFFFFFFFFFFFFFFFFF AND PUSH20 0xFFFFFFFFFFFFFFFFFFFFFFFFFFFFFFFFFFFFFFFF AND DUP2 MSTORE PUSH1 0x20 ADD SWAP1 DUP2 MSTORE PUSH1 0x20 ADD PUSH0 KECCAK256 SLOAD SWAP1 POP DUP1 DUP3 GT ISZERO PUSH2 0x184B JUMPI DUP3 DUP2 DUP6 DUP5 PUSH1 0x40 MLOAD PUSH32 0xF3A6B69100000000000000000000000000000000000000000000000000000000 DUP2 MSTORE PUSH1 0x4 ADD PUSH2 0x1842 SWAP5 SWAP4 SWAP3 SWAP2 SWAP1 PUSH2 0x3D91 JUMP JUMPDEST PUSH1 0x40 MLOAD DUP1 SWAP2 SUB SWAP1 REVERT JUMPDEST PUSH2 0x1871 DUP4 DUP6 DUP5 DUP5 PUSH2 0x185C SWAP2 SWAP1 PUSH2 0x3DD4 JUMP JUMPDEST PUSH0 PUSH1 0x40 MLOAD DUP1 PUSH1 0x20 ADD PUSH1 0x40 MSTORE DUP1 PUSH0 DUP2 MSTORE POP PUSH2 0x148A JUMP JUMPDEST POP POP POP POP JUMP JUMPDEST PUSH0 PUSH20 0xFFFFFFFFFFFFFFFFFFFFFFFFFFFFFFFFFFFFFFFF AND DUP4 PUSH20 0xFFFFFFFFFFFFFFFFFFFFFFFFFFFFFFFFFFFFFFFF AND SUB PUSH2 0x18DC JUMPI PUSH1 0x40 MLOAD PUSH32 0xD2D5EC3000000000000000000000000000000000000000000000000000000000 DUP2 MSTORE PUSH1 0x4 ADD PUSH1 0x40 MLOAD DUP1 SWAP2 SUB SWAP1 REVERT JUMPDEST PUSH2 0x18E8 DUP4 PUSH0 DUP5 DUP5 PUSH2 0x22DA JUMP JUMPDEST PUSH0 PUSH1 0x4 PUSH0 DUP6 PUSH20 0xFFFFFFFFFFFFFFFFFFFFFFFFFFFFFFFFFFFFFFFF AND PUSH20 0xFFFFFFFFFFFFFFFFFFFFFFFFFFFFFFFFFFFFFFFF AND DUP2 MSTORE PUSH1 0x20 ADD SWAP1 DUP2 MSTORE PUSH1 0x20 ADD PUSH0 KECCAK256 SLOAD SWAP1 POP DUP1 DUP4 GT ISZERO PUSH2 0x1972 JUMPI DUP1 DUP5 DUP5 PUSH1 0x40 MLOAD PUSH32 0x8D4794900000000000000000000000000000000000000000000000000000000 DUP2 MSTORE PUSH1 0x4 ADD PUSH2 0x1969 SWAP4 SWAP3 SWAP2 SWAP1 PUSH2 0x3E07 JUMP JUMPDEST PUSH1 0x40 MLOAD DUP1 SWAP2 SUB SWAP1 REVERT JUMPDEST DUP3 PUSH1 0x3 PUSH0 DUP3 DUP3 SLOAD PUSH2 0x1983 SWAP2 SWAP1 PUSH2 0x3DD4 JUMP JUMPDEST SWAP3 POP POP DUP2 SWAP1 SSTORE POP DUP3 PUSH1 0x4 PUSH0 DUP7 PUSH20 0xFFFFFFFFFFFFFFFFFFFFFFFFFFFFFFFFFFFFFFFF AND PUSH20 0xFFFFFFFFFFFFFFFFFFFFFFFFFFFFFFFFFFFFFFFF AND DUP2 MSTORE PUSH1 0x20 ADD SWAP1 DUP2 MSTORE PUSH1 0x20 ADD PUSH0 KECCAK256 PUSH0 DUP3 DUP3 SLOAD PUSH2 0x19D6 SWAP2 SWAP1 PUSH2 0x3DD4 JUMP JUMPDEST SWAP3 POP POP DUP2 SWAP1 SSTORE POP PUSH0 PUSH20 0xFFFFFFFFFFFFFFFFFFFFFFFFFFFFFFFFFFFFFFFF AND DUP5 PUSH20 0xFFFFFFFFFFFFFFFFFFFFFFFFFFFFFFFFFFFFFFFF AND CALLER PUSH20 0xFFFFFFFFFFFFFFFFFFFFFFFFFFFFFFFFFFFFFFFF AND PUSH32 0x3997E418D2CEF0B3B0E907B1E39605C3F7D32DBD061E82EA5B4A770D46A160A6 DUP7 PUSH0 DUP8 PUSH1 0x40 MLOAD PUSH2 0x1A55 SWAP4 SWAP3 SWAP2 SWAP1 PUSH2 0x3E3C JUMP JUMPDEST PUSH1 0x40 MLOAD DUP1 SWAP2 SUB SWAP1 LOG4 PUSH2 0x1A69 DUP5 PUSH0 DUP6 DUP6 PUSH2 0x22E0 JUMP JUMPDEST PUSH0 CALLER DUP6 PUSH0 DUP7 DUP7 PUSH1 0x40 MLOAD PUSH1 0x20 ADD PUSH2 0x1A83 SWAP6 SWAP5 SWAP4 SWAP3 SWAP2 SWAP1 PUSH2 0x3E78 JUMP JUMPDEST PUSH1 0x40 MLOAD PUSH1 0x20 DUP2 DUP4 SUB SUB DUP2 MSTORE SWAP1 PUSH1 0x40 MSTORE SWAP1 POP PUSH2 0x1A9E DUP6 DUP3 PUSH2 0x22E6 JUMP JUMPDEST POP POP POP POP POP JUMP JUMPDEST PUSH1 0x60 PUSH1 0x1 PUSH0 DUP4 DUP2 MSTORE PUSH1 0x20 ADD SWAP1 DUP2 MSTORE PUSH1 0x20 ADD PUSH0 KECCAK256 DUP1 SLOAD PUSH2 0x1AC3 SWAP1 PUSH2 0x3EFD JUMP JUMPDEST DUP1 PUSH1 0x1F ADD PUSH1 0x20 DUP1 SWAP2 DIV MUL PUSH1 0x20 ADD PUSH1 0x40 MLOAD SWAP1 DUP2 ADD PUSH1 0x40 MSTORE DUP1 SWAP3 SWAP2 SWAP1 DUP2 DUP2 MSTORE PUSH1 0x20 ADD DUP3 DUP1 SLOAD PUSH2 0x1AEF SWAP1 PUSH2 0x3EFD JUMP JUMPDEST DUP1 ISZERO PUSH2 0x1B3A JUMPI DUP1 PUSH1 0x1F LT PUSH2 0x1B11 JUMPI PUSH2 0x100 DUP1 DUP4 SLOAD DIV MUL DUP4 MSTORE SWAP2 PUSH1 0x20 ADD SWAP2 PUSH2 0x1B3A JUMP JUMPDEST DUP3 ADD SWAP2 SWAP1 PUSH0 MSTORE PUSH1 0x20 PUSH0 KECCAK256 SWAP1 JUMPDEST DUP2 SLOAD DUP2 MSTORE SWAP1 PUSH1 0x1 ADD SWAP1 PUSH1 0x20 ADD DUP1 DUP4 GT PUSH2 0x1B1D JUMPI DUP3 SWAP1 SUB PUSH1 0x1F AND DUP3 ADD SWAP2 JUMPDEST POP POP POP POP POP SWAP1 POP SWAP2 SWAP1 POP JUMP JUMPDEST CALLER PUSH20 0xFFFFFFFFFFFFFFFFFFFFFFFFFFFFFFFFFFFFFFFF AND PUSH2 0x1B65 PUSH2 0x1018 JUMP JUMPDEST PUSH20 0xFFFFFFFFFFFFFFFFFFFFFFFFFFFFFFFFFFFFFFFF AND EQ PUSH2 0x1BBD JUMPI CALLER PUSH1 0x40 MLOAD PUSH32 0xBF1169C500000000000000000000000000000000000000000000000000000000 DUP2 MSTORE PUSH1 0x4 ADD PUSH2 0x1BB4 SWAP2 SWAP1 PUSH2 0x3727 JUMP JUMPDEST PUSH1 0x40 MLOAD DUP1 SWAP2 SUB SWAP1 REVERT JUMPDEST JUMP JUMPDEST PUSH2 0x1BC7 PUSH2 0x1018 JUMP JUMPDEST PUSH20 0xFFFFFFFFFFFFFFFFFFFFFFFFFFFFFFFFFFFFFFFF AND DUP2 PUSH20 0xFFFFFFFFFFFFFFFFFFFFFFFFFFFFFFFFFFFFFFFF AND EQ PUSH2 0x1CB3 JUMPI DUP1 PUSH20 0xFFFFFFFFFFFFFFFFFFFFFFFFFFFFFFFFFFFFFFFF AND PUSH0 PUSH0 SWAP1 SLOAD SWAP1 PUSH2 0x100 EXP SWAP1 DIV PUSH20 0xFFFFFFFFFFFFFFFFFFFFFFFFFFFFFFFFFFFFFFFF AND PUSH20 0xFFFFFFFFFFFFFFFFFFFFFFFFFFFFFFFFFFFFFFFF AND PUSH32 0x8BE0079C531659141344CD1FD0A4F28419497F9722A3DAAFE3B4186F6B6457E0 PUSH1 0x40 MLOAD PUSH1 0x40 MLOAD DUP1 SWAP2 SUB SWAP1 LOG3 DUP1 PUSH0 PUSH0 PUSH2 0x100 EXP DUP2 SLOAD DUP2 PUSH20 0xFFFFFFFFFFFFFFFFFFFFFFFFFFFFFFFFFFFFFFFF MUL NOT AND SWAP1 DUP4 PUSH20 0xFFFFFFFFFFFFFFFFFFFFFFFFFFFFFFFFFFFFFFFF AND MUL OR SWAP1 SSTORE POP JUMPDEST POP JUMP JUMPDEST PUSH1 0x7 SLOAD DUP4 PUSH2 0x1CC2 PUSH2 0x80A JUMP JUMPDEST PUSH2 0x1CCC SWAP2 SWAP1 PUSH2 0x3AFC JUMP JUMPDEST GT ISZERO PUSH2 0x1D1A JUMPI PUSH2 0x1CDA PUSH2 0x80A JUMP JUMPDEST PUSH1 0x7 SLOAD PUSH1 0x40 MLOAD PUSH32 0x3DC729A700000000000000000000000000000000000000000000000000000000 DUP2 MSTORE PUSH1 0x4 ADD PUSH2 0x1D11 SWAP3 SWAP2 SWAP1 PUSH2 0x3F2D JUMP JUMPDEST PUSH1 0x40 MLOAD DUP1 SWAP2 SUB SWAP1 REVERT JUMPDEST PUSH2 0x1D26 DUP5 DUP5 DUP5 DUP5 PUSH2 0x2317 JUMP JUMPDEST POP POP POP POP JUMP JUMPDEST PUSH0 PUSH20 0xFFFFFFFFFFFFFFFFFFFFFFFFFFFFFFFFFFFFFFFF AND DUP6 PUSH20 0xFFFFFFFFFFFFFFFFFFFFFFFFFFFFFFFFFFFFFFFF AND EQ DUP1 PUSH2 0x1D91 JUMPI POP PUSH0 PUSH20 0xFFFFFFFFFFFFFFFFFFFFFFFFFFFFFFFFFFFFFFFF AND DUP5 PUSH20 0xFFFFFFFFFFFFFFFFFFFFFFFFFFFFFFFFFFFFFFFF AND EQ JUMPDEST ISZERO PUSH2 0x1DC8 JUMPI PUSH1 0x40 MLOAD PUSH32 0xD2D5EC3000000000000000000000000000000000000000000000000000000000 DUP2 MSTORE PUSH1 0x4 ADD PUSH1 0x40 MLOAD DUP1 SWAP2 SUB SWAP1 REVERT JUMPDEST PUSH2 0x1DD4 DUP6 DUP6 DUP6 DUP5 PUSH2 0x22DA JUMP JUMPDEST PUSH0 PUSH1 0x4 PUSH0 DUP8 PUSH20 0xFFFFFFFFFFFFFFFFFFFFFFFFFFFFFFFFFFFFFFFF AND PUSH20 0xFFFFFFFFFFFFFFFFFFFFFFFFFFFFFFFFFFFFFFFF AND DUP2 MSTORE PUSH1 0x20 ADD SWAP1 DUP2 MSTORE PUSH1 0x20 ADD PUSH0 KECCAK256 SLOAD SWAP1 POP DUP1 DUP5 GT ISZERO PUSH2 0x1E5E JUMPI DUP1 DUP7 DUP6 PUSH1 0x40 MLOAD PUSH32 0x8D4794900000000000000000000000000000000000000000000000000000000 DUP2 MSTORE PUSH1 0x4 ADD PUSH2 0x1E55 SWAP4 SWAP3 SWAP2 SWAP1 PUSH2 0x3E07 JUMP JUMPDEST PUSH1 0x40 MLOAD DUP1 SWAP2 SUB SWAP1 REVERT JUMPDEST DUP4 PUSH1 0x4 PUSH0 DUP9 PUSH20 0xFFFFFFFFFFFFFFFFFFFFFFFFFFFFFFFFFFFFFFFF AND PUSH20 0xFFFFFFFFFFFFFFFFFFFFFFFFFFFFFFFFFFFFFFFF AND DUP2 MSTORE PUSH1 0x20 ADD SWAP1 DUP2 MSTORE PUSH1 0x20 ADD PUSH0 KECCAK256 PUSH0 DUP3 DUP3 SLOAD PUSH2 0x1EAA SWAP2 SWAP1 PUSH2 0x3DD4 JUMP JUMPDEST SWAP3 POP POP DUP2 SWAP1 SSTORE POP DUP4 PUSH1 0x4 PUSH0 DUP8 PUSH20 0xFFFFFFFFFFFFFFFFFFFFFFFFFFFFFFFFFFFFFFFF AND PUSH20 0xFFFFFFFFFFFFFFFFFFFFFFFFFFFFFFFFFFFFFFFF AND DUP2 MSTORE PUSH1 0x20 ADD SWAP1 DUP2 MSTORE PUSH1 0x20 ADD PUSH0 KECCAK256 PUSH0 DUP3 DUP3 SLOAD PUSH2 0x1EFD SWAP2 SWAP1 PUSH2 0x3AFC JUMP JUMPDEST SWAP3 POP POP DUP2 SWAP1 SSTORE POP DUP5 PUSH20 0xFFFFFFFFFFFFFFFFFFFFFFFFFFFFFFFFFFFFFFFF AND DUP7 PUSH20 0xFFFFFFFFFFFFFFFFFFFFFFFFFFFFFFFFFFFFFFFF AND CALLER PUSH20 0xFFFFFFFFFFFFFFFFFFFFFFFFFFFFFFFFFFFFFFFF AND PUSH32 0x3997E418D2CEF0B3B0E907B1E39605C3F7D32DBD061E82EA5B4A770D46A160A6 DUP8 DUP8 DUP8 PUSH1 0x40 MLOAD PUSH2 0x1F7C SWAP4 SWAP3 SWAP2 SWAP1 PUSH2 0x3E3C JUMP JUMPDEST PUSH1 0x40 MLOAD DUP1 SWAP2 SUB SWAP1 LOG4 PUSH2 0x1F90 DUP7 DUP7 DUP7 DUP6 PUSH2 0x22E0 JUMP JUMPDEST PUSH0 CALLER DUP8 DUP8 DUP8 DUP7 PUSH1 0x40 MLOAD PUSH1 0x20 ADD PUSH2 0x1FAA SWAP6 SWAP5 SWAP4 SWAP3 SWAP2 SWAP1 PUSH2 0x3E78 JUMP JUMPDEST PUSH1 0x40 MLOAD PUSH1 0x20 DUP2 DUP4 SUB SUB DUP2 MSTORE SWAP1 PUSH1 0x40 MSTORE SWAP1 POP PUSH2 0x1FC5 DUP8 DUP3 PUSH2 0x22E6 JUMP JUMPDEST PUSH2 0x1FD0 DUP7 DUP6 DUP4 PUSH2 0x24BC JUMP JUMPDEST POP POP POP POP POP POP POP JUMP JUMPDEST PUSH2 0x1FE3 DUP3 DUP3 PUSH2 0x261B JUMP JUMPDEST POP POP JUMP JUMPDEST PUSH1 0x60 PUSH0 PUSH2 0x1FF5 DUP4 PUSH0 ADD PUSH2 0x2787 JUMP JUMPDEST SWAP1 POP PUSH1 0x60 DUP2 SWAP1 POP DUP1 SWAP3 POP POP POP SWAP2 SWAP1 POP JUMP JUMPDEST PUSH0 PUSH0 DUP4 PUSH0 PUSH1 0xF0 SHL DUP5 PUSH1 0x40 MLOAD PUSH1 0x20 ADD PUSH2 0x2020 SWAP4 SWAP3 SWAP2 SWAP1 PUSH2 0x400A JUMP JUMPDEST PUSH1 0x40 MLOAD PUSH1 0x20 DUP2 DUP4 SUB SUB DUP2 MSTORE SWAP1 PUSH1 0x40 MSTORE SWAP1 POP DUP1 PUSH2 0x203B SWAP1 PUSH2 0x405A JUMP JUMPDEST SWAP2 POP POP SWAP3 SWAP2 POP POP JUMP JUMPDEST PUSH0 PUSH4 0x629AA694 PUSH1 0xE0 SHL PUSH28 0xFFFFFFFFFFFFFFFFFFFFFFFFFFFFFFFFFFFFFFFFFFFFFFFFFFFFFFFF NOT AND DUP3 PUSH28 0xFFFFFFFFFFFFFFFFFFFFFFFFFFFFFFFFFFFFFFFFFFFFFFFFFFFFFFFF NOT AND EQ DUP1 PUSH2 0x209D JUMPI POP PUSH2 0x209C DUP3 PUSH2 0x20A4 JUMP JUMPDEST JUMPDEST SWAP1 POP SWAP2 SWAP1 POP JUMP JUMPDEST PUSH0 PUSH32 0x1FFC9A700000000000000000000000000000000000000000000000000000000 PUSH28 0xFFFFFFFFFFFFFFFFFFFFFFFFFFFFFFFFFFFFFFFFFFFFFFFFFFFFFFFF NOT AND DUP3 PUSH28 0xFFFFFFFFFFFFFFFFFFFFFFFFFFFFFFFFFFFFFFFFFFFFFFFFFFFFFFFF NOT AND EQ SWAP1 POP SWAP2 SWAP1 POP JUMP JUMPDEST PUSH0 PUSH0 PUSH4 0x1FFC9A7 PUSH1 0xE0 SHL DUP4 PUSH1 0x40 MLOAD PUSH1 0x24 ADD PUSH2 0x2128 SWAP2 SWAP1 PUSH2 0x39A3 JUMP JUMPDEST PUSH1 0x40 MLOAD PUSH1 0x20 DUP2 DUP4 SUB SUB DUP2 MSTORE SWAP1 PUSH1 0x40 MSTORE SWAP1 PUSH28 0xFFFFFFFFFFFFFFFFFFFFFFFFFFFFFFFFFFFFFFFFFFFFFFFFFFFFFFFF NOT AND PUSH1 0x20 DUP3 ADD DUP1 MLOAD PUSH28 0xFFFFFFFFFFFFFFFFFFFFFFFFFFFFFFFFFFFFFFFFFFFFFFFFFFFFFFFF DUP4 DUP2 DUP4 AND OR DUP4 MSTORE POP POP POP POP SWAP1 POP PUSH0 PUSH0 PUSH0 PUSH1 0x20 PUSH0 DUP6 MLOAD PUSH1 0x20 DUP8 ADD DUP11 PUSH2 0x7530 STATICCALL SWAP3 POP RETURNDATASIZE SWAP2 POP PUSH0 MLOAD SWAP1 POP DUP3 DUP1 ISZERO PUSH2 0x21AF JUMPI POP PUSH1 0x20 DUP3 LT ISZERO JUMPDEST DUP1 ISZERO PUSH2 0x21BA JUMPI POP PUSH0 DUP2 GT JUMPDEST SWAP5 POP POP POP POP POP SWAP3 SWAP2 POP POP JUMP JUMPDEST PUSH0 PUSH2 0x21EB DUP4 PUSH0 ADD DUP4 PUSH20 0xFFFFFFFFFFFFFFFFFFFFFFFFFFFFFFFFFFFFFFFF AND PUSH0 SHL PUSH2 0x27E0 JUMP JUMPDEST SWAP1 POP SWAP3 SWAP2 POP POP JUMP JUMPDEST PUSH0 PUSH2 0x2218 DUP4 PUSH0 ADD DUP4 PUSH20 0xFFFFFFFFFFFFFFFFFFFFFFFFFFFFFFFFFFFFFFFF AND PUSH0 SHL PUSH2 0x2847 JUMP JUMPDEST SWAP1 POP SWAP3 SWAP2 POP POP JUMP JUMPDEST PUSH2 0x2250 PUSH4 0x6BB56A14 PUSH1 0xE0 SHL DUP5 PUSH20 0xFFFFFFFFFFFFFFFFFFFFFFFFFFFFFFFFFFFFFFFF AND PUSH2 0x210D SWAP1 SWAP2 SWAP1 PUSH4 0xFFFFFFFF AND JUMP JUMPDEST ISZERO PUSH2 0x22D5 JUMPI DUP3 PUSH20 0xFFFFFFFFFFFFFFFFFFFFFFFFFFFFFFFFFFFFFFFF AND PUSH4 0x6BB56A14 DUP4 DUP4 PUSH1 0x40 MLOAD DUP4 PUSH4 0xFFFFFFFF AND PUSH1 0xE0 SHL DUP2 MSTORE PUSH1 0x4 ADD PUSH2 0x2290 SWAP3 SWAP2 SWAP1 PUSH2 0x40CF JUMP JUMPDEST PUSH0 PUSH1 0x40 MLOAD DUP1 DUP4 SUB DUP2 PUSH0 DUP8 GAS CALL ISZERO DUP1 ISZERO PUSH2 0x22AB JUMPI RETURNDATASIZE PUSH0 PUSH0 RETURNDATACOPY RETURNDATASIZE PUSH0 REVERT JUMPDEST POP POP POP POP PUSH1 0x40 MLOAD RETURNDATASIZE PUSH0 DUP3 RETURNDATACOPY RETURNDATASIZE PUSH1 0x1F NOT PUSH1 0x1F DUP3 ADD AND DUP3 ADD DUP1 PUSH1 0x40 MSTORE POP DUP2 ADD SWAP1 PUSH2 0x22D3 SWAP2 SWAP1 PUSH2 0x416B JUMP JUMPDEST POP JUMPDEST POP POP POP JUMP JUMPDEST POP POP POP POP JUMP JUMPDEST POP POP POP POP JUMP JUMPDEST PUSH2 0x2313 DUP3 PUSH32 0x429AC7A06903DBC9C13DFCB3C9D11DF8194581FA047C96D7A4171FC7402958EA PUSH0 SHL DUP4 PUSH2 0x2220 JUMP JUMPDEST POP POP JUMP JUMPDEST PUSH0 PUSH20 0xFFFFFFFFFFFFFFFFFFFFFFFFFFFFFFFFFFFFFFFF AND DUP5 PUSH20 0xFFFFFFFFFFFFFFFFFFFFFFFFFFFFFFFFFFFFFFFF AND SUB PUSH2 0x237C JUMPI PUSH1 0x40 MLOAD PUSH32 0xD2D5EC3000000000000000000000000000000000000000000000000000000000 DUP2 MSTORE PUSH1 0x4 ADD PUSH1 0x40 MLOAD DUP1 SWAP2 SUB SWAP1 REVERT JUMPDEST PUSH2 0x2388 PUSH0 DUP6 DUP6 DUP5 PUSH2 0x22DA JUMP JUMPDEST DUP3 PUSH1 0x3 PUSH0 DUP3 DUP3 SLOAD PUSH2 0x2399 SWAP2 SWAP1 PUSH2 0x3AFC JUMP JUMPDEST SWAP3 POP POP DUP2 SWAP1 SSTORE POP DUP3 PUSH1 0x4 PUSH0 DUP7 PUSH20 0xFFFFFFFFFFFFFFFFFFFFFFFFFFFFFFFFFFFFFFFF AND PUSH20 0xFFFFFFFFFFFFFFFFFFFFFFFFFFFFFFFFFFFFFFFF AND DUP2 MSTORE PUSH1 0x20 ADD SWAP1 DUP2 MSTORE PUSH1 0x20 ADD PUSH0 KECCAK256 PUSH0 DUP3 DUP3 SLOAD PUSH2 0x23EC SWAP2 SWAP1 PUSH2 0x3AFC JUMP JUMPDEST SWAP3 POP POP DUP2 SWAP1 SSTORE POP DUP4 PUSH20 0xFFFFFFFFFFFFFFFFFFFFFFFFFFFFFFFFFFFFFFFF AND PUSH0 PUSH20 0xFFFFFFFFFFFFFFFFFFFFFFFFFFFFFFFFFFFFFFFF AND CALLER PUSH20 0xFFFFFFFFFFFFFFFFFFFFFFFFFFFFFFFFFFFFFFFF AND PUSH32 0x3997E418D2CEF0B3B0E907B1E39605C3F7D32DBD061E82EA5B4A770D46A160A6 DUP7 DUP7 DUP7 PUSH1 0x40 MLOAD PUSH2 0x246B SWAP4 SWAP3 SWAP2 SWAP1 PUSH2 0x3E3C JUMP JUMPDEST PUSH1 0x40 MLOAD DUP1 SWAP2 SUB SWAP1 LOG4 PUSH2 0x247F PUSH0 DUP6 DUP6 DUP5 PUSH2 0x22E0 JUMP JUMPDEST PUSH0 CALLER PUSH0 DUP7 DUP7 DUP6 PUSH1 0x40 MLOAD PUSH1 0x20 ADD PUSH2 0x2499 SWAP6 SWAP5 SWAP4 SWAP3 SWAP2 SWAP1 PUSH2 0x3E78 JUMP JUMPDEST PUSH1 0x40 MLOAD PUSH1 0x20 DUP2 DUP4 SUB SUB DUP2 MSTORE SWAP1 PUSH1 0x40 MSTORE SWAP1 POP PUSH2 0x24B5 DUP6 DUP5 DUP4 PUSH2 0x24BC JUMP JUMPDEST POP POP POP POP POP JUMP JUMPDEST PUSH2 0x24CD DUP4 PUSH4 0x6BB56A14 PUSH1 0xE0 SHL PUSH2 0x210D JUMP JUMPDEST ISZERO PUSH2 0x2578 JUMPI DUP3 PUSH20 0xFFFFFFFFFFFFFFFFFFFFFFFFFFFFFFFFFFFFFFFF AND PUSH4 0x6BB56A14 PUSH32 0x20804611B3E2EA21C480DC465142210ACF4A2485947541770EC1FB87DEE4A55C PUSH0 SHL DUP4 PUSH1 0x40 MLOAD DUP4 PUSH4 0xFFFFFFFF AND PUSH1 0xE0 SHL DUP2 MSTORE PUSH1 0x4 ADD PUSH2 0x252F SWAP3 SWAP2 SWAP1 PUSH2 0x40CF JUMP JUMPDEST PUSH0 PUSH1 0x40 MLOAD DUP1 DUP4 SUB DUP2 PUSH0 DUP8 GAS CALL ISZERO DUP1 ISZERO PUSH2 0x254A JUMPI RETURNDATASIZE PUSH0 PUSH0 RETURNDATACOPY RETURNDATASIZE PUSH0 REVERT JUMPDEST POP POP POP POP PUSH1 0x40 MLOAD RETURNDATASIZE PUSH0 DUP3 RETURNDATACOPY RETURNDATASIZE PUSH1 0x1F NOT PUSH1 0x1F DUP3 ADD AND DUP3 ADD DUP1 PUSH1 0x40 MSTORE POP DUP2 ADD SWAP1 PUSH2 0x2572 SWAP2 SWAP1 PUSH2 0x416B JUMP JUMPDEST POP PUSH2 0x2616 JUMP JUMPDEST DUP2 PUSH2 0x2615 JUMPI PUSH0 DUP4 PUSH20 0xFFFFFFFFFFFFFFFFFFFFFFFFFFFFFFFFFFFFFFFF AND EXTCODESIZE EQ PUSH2 0x25D8 JUMPI DUP3 PUSH1 0x40 MLOAD PUSH32 0xA608FBB600000000000000000000000000000000000000000000000000000000 DUP2 MSTORE PUSH1 0x4 ADD PUSH2 0x25CF SWAP2 SWAP1 PUSH2 0x3727 JUMP JUMPDEST PUSH1 0x40 MLOAD DUP1 SWAP2 SUB SWAP1 REVERT JUMPDEST DUP3 PUSH1 0x40 MLOAD PUSH32 0x26C247F400000000000000000000000000000000000000000000000000000000 DUP2 MSTORE PUSH1 0x4 ADD PUSH2 0x260C SWAP2 SWAP1 PUSH2 0x3727 JUMP JUMPDEST PUSH1 0x40 MLOAD DUP1 SWAP2 SUB SWAP1 REVERT JUMPDEST JUMPDEST POP POP POP JUMP JUMPDEST PUSH32 0xDEBA1E292F8BA88238E10AB3C7F88BD4BE4FAC56CAD5194B6ECCEAF653468AF1 PUSH0 SHL DUP3 SUB PUSH2 0x2676 JUMPI PUSH1 0x40 MLOAD PUSH32 0x85C169BD00000000000000000000000000000000000000000000000000000000 DUP2 MSTORE PUSH1 0x4 ADD PUSH1 0x40 MLOAD DUP1 SWAP2 SUB SWAP1 REVERT JUMPDEST PUSH32 0x2F0A68AB07768E01943A599E73362A0E17A63A72E94DD2E384D2C1D4DB932756 PUSH0 SHL DUP3 SUB PUSH2 0x26D1 JUMPI PUSH1 0x40 MLOAD PUSH32 0x76755B3800000000000000000000000000000000000000000000000000000000 DUP2 MSTORE PUSH1 0x4 ADD PUSH1 0x40 MLOAD DUP1 SWAP2 SUB SWAP1 REVERT JUMPDEST PUSH32 0xE0261FA95DB2EB3B5439BD033CDA66D56B96F92F243A8228FD87550ED7BDFDB3 PUSH0 SHL DUP3 SUB PUSH2 0x272C JUMPI PUSH1 0x40 MLOAD PUSH32 0x4EF6D7FB00000000000000000000000000000000000000000000000000000000 DUP2 MSTORE PUSH1 0x4 ADD PUSH1 0x40 MLOAD DUP1 SWAP2 SUB SWAP1 REVERT JUMPDEST DUP1 PUSH1 0x1 PUSH0 DUP5 DUP2 MSTORE PUSH1 0x20 ADD SWAP1 DUP2 MSTORE PUSH1 0x20 ADD PUSH0 KECCAK256 SWAP1 DUP2 PUSH2 0x274A SWAP2 SWAP1 PUSH2 0x433D JUMP JUMPDEST POP DUP2 PUSH32 0xECE574603820D07BC9B91F2A932BAADF4628AABCB8AFBA49776529C14A6104B2 DUP3 PUSH1 0x40 MLOAD PUSH2 0x277B SWAP2 SWAP1 PUSH2 0x32DB JUMP JUMPDEST PUSH1 0x40 MLOAD DUP1 SWAP2 SUB SWAP1 LOG2 POP POP JUMP JUMPDEST PUSH1 0x60 DUP2 PUSH0 ADD DUP1 SLOAD DUP1 PUSH1 0x20 MUL PUSH1 0x20 ADD PUSH1 0x40 MLOAD SWAP1 DUP2 ADD PUSH1 0x40 MSTORE DUP1 SWAP3 SWAP2 SWAP1 DUP2 DUP2 MSTORE PUSH1 0x20 ADD DUP3 DUP1 SLOAD DUP1 ISZERO PUSH2 0x27D4 JUMPI PUSH1 0x20 MUL DUP3 ADD SWAP2 SWAP1 PUSH0 MSTORE PUSH1 0x20 PUSH0 KECCAK256 SWAP1 JUMPDEST DUP2 SLOAD DUP2 MSTORE PUSH1 0x20 ADD SWAP1 PUSH1 0x1 ADD SWAP1 DUP1 DUP4 GT PUSH2 0x27C0 JUMPI JUMPDEST POP POP POP POP POP SWAP1 POP SWAP2 SWAP1 POP JUMP JUMPDEST PUSH0 PUSH2 0x27EB DUP4 DUP4 PUSH2 0x2943 JUMP JUMPDEST PUSH2 0x283D JUMPI DUP3 PUSH0 ADD DUP3 SWAP1 DUP1 PUSH1 0x1 DUP2 SLOAD ADD DUP1 DUP3 SSTORE DUP1 SWAP2 POP POP PUSH1 0x1 SWAP1 SUB SWAP1 PUSH0 MSTORE PUSH1 0x20 PUSH0 KECCAK256 ADD PUSH0 SWAP1 SWAP2 SWAP1 SWAP2 SWAP1 SWAP2 POP SSTORE DUP3 PUSH0 ADD DUP1 SLOAD SWAP1 POP DUP4 PUSH1 0x1 ADD PUSH0 DUP5 DUP2 MSTORE PUSH1 0x20 ADD SWAP1 DUP2 MSTORE PUSH1 0x20 ADD PUSH0 KECCAK256 DUP2 SWAP1 SSTORE POP PUSH1 0x1 SWAP1 POP PUSH2 0x2841 JUMP JUMPDEST PUSH0 SWAP1 POP JUMPDEST SWAP3 SWAP2 POP POP JUMP JUMPDEST PUSH0 PUSH0 DUP4 PUSH1 0x1 ADD PUSH0 DUP5 DUP2 MSTORE PUSH1 0x20 ADD SWAP1 DUP2 MSTORE PUSH1 0x20 ADD PUSH0 KECCAK256 SLOAD SWAP1 POP PUSH0 DUP2 EQ PUSH2 0x2938 JUMPI PUSH0 PUSH1 0x1 DUP3 PUSH2 0x2874 SWAP2 SWAP1 PUSH2 0x3DD4 JUMP JUMPDEST SWAP1 POP PUSH0 PUSH1 0x1 DUP7 PUSH0 ADD DUP1 SLOAD SWAP1 POP PUSH2 0x288A SWAP2 SWAP1 PUSH2 0x3DD4 JUMP JUMPDEST SWAP1 POP DUP2 DUP2 EQ PUSH2 0x28F0 JUMPI PUSH0 DUP7 PUSH0 ADD DUP3 DUP2 SLOAD DUP2 LT PUSH2 0x28A9 JUMPI PUSH2 0x28A8 PUSH2 0x3B6B JUMP JUMPDEST JUMPDEST SWAP1 PUSH0 MSTORE PUSH1 0x20 PUSH0 KECCAK256 ADD SLOAD SWAP1 POP DUP1 DUP8 PUSH0 ADD DUP5 DUP2 SLOAD DUP2 LT PUSH2 0x28CA JUMPI PUSH2 0x28C9 PUSH2 0x3B6B JUMP JUMPDEST JUMPDEST SWAP1 PUSH0 MSTORE PUSH1 0x20 PUSH0 KECCAK256 ADD DUP2 SWAP1 SSTORE POP DUP4 DUP8 PUSH1 0x1 ADD PUSH0 DUP4 DUP2 MSTORE PUSH1 0x20 ADD SWAP1 DUP2 MSTORE PUSH1 0x20 ADD PUSH0 KECCAK256 DUP2 SWAP1 SSTORE POP POP JUMPDEST DUP6 PUSH0 ADD DUP1 SLOAD DUP1 PUSH2 0x2903 JUMPI PUSH2 0x2902 PUSH2 0x440C JUMP JUMPDEST JUMPDEST PUSH1 0x1 SWAP1 SUB DUP2 DUP2 SWAP1 PUSH0 MSTORE PUSH1 0x20 PUSH0 KECCAK256 ADD PUSH0 SWAP1 SSTORE SWAP1 SSTORE DUP6 PUSH1 0x1 ADD PUSH0 DUP7 DUP2 MSTORE PUSH1 0x20 ADD SWAP1 DUP2 MSTORE PUSH1 0x20 ADD PUSH0 KECCAK256 PUSH0 SWAP1 SSTORE PUSH1 0x1 SWAP4 POP POP POP POP PUSH2 0x293D JUMP JUMPDEST PUSH0 SWAP2 POP POP JUMPDEST SWAP3 SWAP2 POP POP JUMP JUMPDEST PUSH0 PUSH0 DUP4 PUSH1 0x1 ADD PUSH0 DUP5 DUP2 MSTORE PUSH1 0x20 ADD SWAP1 DUP2 MSTORE PUSH1 0x20 ADD PUSH0 KECCAK256 SLOAD EQ ISZERO SWAP1 POP SWAP3 SWAP2 POP POP JUMP JUMPDEST PUSH0 DUP3 DUP3 MSTORE PUSH1 0x20 DUP3 ADD SWAP1 POP SWAP3 SWAP2 POP POP JUMP JUMPDEST PUSH0 PUSH0 DUP3 ADD MSTORE POP JUMP JUMPDEST PUSH0 PUSH2 0x2987 PUSH1 0x4 DUP4 PUSH2 0x2963 JUMP JUMPDEST SWAP2 POP PUSH2 0x2992 DUP3 PUSH2 0x2973 JUMP JUMPDEST PUSH1 0x20 DUP3 ADD SWAP1 POP SWAP2 SWAP1 POP JUMP JUMPDEST PUSH0 PUSH1 0x20 DUP3 ADD SWAP1 POP DUP2 DUP2 SUB PUSH0 DUP4 ADD MSTORE PUSH2 0x29B4 DUP2 PUSH2 0x297B JUMP JUMPDEST SWAP1 POP SWAP2 SWAP1 POP JUMP JUMPDEST DUP3 DUP2 DUP4 CALLDATACOPY PUSH0 DUP4 DUP4 ADD MSTORE POP POP POP JUMP JUMPDEST PUSH0 PUSH1 0x1F NOT PUSH1 0x1F DUP4 ADD AND SWAP1 POP SWAP2 SWAP1 POP JUMP JUMPDEST PUSH0 PUSH2 0x29E4 DUP4 DUP6 PUSH2 0x2963 JUMP JUMPDEST SWAP4 POP PUSH2 0x29F1 DUP4 DUP6 DUP5 PUSH2 0x29BB JUMP JUMPDEST PUSH2 0x29FA DUP4 PUSH2 0x29C9 JUMP JUMPDEST DUP5 ADD SWAP1 POP SWAP4 SWAP3 POP POP POP JUMP JUMPDEST PUSH0 PUSH1 0x20 DUP3 ADD SWAP1 POP DUP2 DUP2 SUB PUSH0 DUP4 ADD MSTORE PUSH2 0x2A1E DUP2 DUP5 DUP7 PUSH2 0x29D9 JUMP JUMPDEST SWAP1 POP SWAP4 SWAP3 POP POP POP JUMP JUMPDEST PUSH0 PUSH1 0x40 MLOAD SWAP1 POP SWAP1 JUMP JUMPDEST PUSH0 PUSH0 REVERT JUMPDEST PUSH0 PUSH0 REVERT JUMPDEST PUSH0 PUSH32 0xFFFFFFFF00000000000000000000000000000000000000000000000000000000 DUP3 AND SWAP1 POP SWAP2 SWAP1 POP JUMP JUMPDEST PUSH2 0x2A6C DUP2 PUSH2 0x2A38 JUMP JUMPDEST DUP2 EQ PUSH2 0x2A76 JUMPI PUSH0 PUSH0 REVERT JUMPDEST POP JUMP JUMPDEST PUSH0 DUP2 CALLDATALOAD SWAP1 POP PUSH2 0x2A87 DUP2 PUSH2 0x2A63 JUMP JUMPDEST SWAP3 SWAP2 POP POP JUMP JUMPDEST PUSH0 PUSH1 0x20 DUP3 DUP5 SUB SLT ISZERO PUSH2 0x2AA2 JUMPI PUSH2 0x2AA1 PUSH2 0x2A30 JUMP JUMPDEST JUMPDEST PUSH0 PUSH2 0x2AAF DUP5 DUP3 DUP6 ADD PUSH2 0x2A79 JUMP JUMPDEST SWAP2 POP POP SWAP3 SWAP2 POP POP JUMP JUMPDEST PUSH0 DUP2 ISZERO ISZERO SWAP1 POP SWAP2 SWAP1 POP JUMP JUMPDEST PUSH2 0x2ACC DUP2 PUSH2 0x2AB8 JUMP JUMPDEST DUP3 MSTORE POP POP JUMP JUMPDEST PUSH0 PUSH1 0x20 DUP3 ADD SWAP1 POP PUSH2 0x2AE5 PUSH0 DUP4 ADD DUP5 PUSH2 0x2AC3 JUMP JUMPDEST SWAP3 SWAP2 POP POP JUMP JUMPDEST PUSH0 DUP2 SWAP1 POP SWAP2 SWAP1 POP JUMP JUMPDEST PUSH2 0x2AFD DUP2 PUSH2 0x2AEB JUMP JUMPDEST DUP3 MSTORE POP POP JUMP JUMPDEST PUSH0 PUSH1 0x20 DUP3 ADD SWAP1 POP PUSH2 0x2B16 PUSH0 DUP4 ADD DUP5 PUSH2 0x2AF4 JUMP JUMPDEST SWAP3 SWAP2 POP POP JUMP JUMPDEST PUSH0 PUSH20 0xFFFFFFFFFFFFFFFFFFFFFFFFFFFFFFFFFFFFFFFF DUP3 AND SWAP1 POP SWAP2 SWAP1 POP JUMP JUMPDEST PUSH0 PUSH2 0x2B45 DUP3 PUSH2 0x2B1C JUMP JUMPDEST SWAP1 POP SWAP2 SWAP1 POP JUMP JUMPDEST PUSH2 0x2B55 DUP2 PUSH2 0x2B3B JUMP JUMPDEST DUP2 EQ PUSH2 0x2B5F JUMPI PUSH0 PUSH0 REVERT JUMPDEST POP JUMP JUMPDEST PUSH0 DUP2 CALLDATALOAD SWAP1 POP PUSH2 0x2B70 DUP2 PUSH2 0x2B4C JUMP JUMPDEST SWAP3 SWAP2 POP POP JUMP JUMPDEST PUSH2 0x2B7F DUP2 PUSH2 0x2AEB JUMP JUMPDEST DUP2 EQ PUSH2 0x2B89 JUMPI PUSH0 PUSH0 REVERT JUMPDEST POP JUMP JUMPDEST PUSH0 DUP2 CALLDATALOAD SWAP1 POP PUSH2 0x2B9A DUP2 PUSH2 0x2B76 JUMP JUMPDEST SWAP3 SWAP2 POP POP JUMP JUMPDEST PUSH0 PUSH0 REVERT JUMPDEST PUSH0 PUSH0 REVERT JUMPDEST PUSH32 0x4E487B7100000000000000000000000000000000000000000000000000000000 PUSH0 MSTORE PUSH1 0x41 PUSH1 0x4 MSTORE PUSH1 0x24 PUSH0 REVERT JUMPDEST PUSH2 0x2BDE DUP3 PUSH2 0x29C9 JUMP JUMPDEST DUP2 ADD DUP2 DUP2 LT PUSH8 0xFFFFFFFFFFFFFFFF DUP3 GT OR ISZERO PUSH2 0x2BFD JUMPI PUSH2 0x2BFC PUSH2 0x2BA8 JUMP JUMPDEST JUMPDEST DUP1 PUSH1 0x40 MSTORE POP POP POP JUMP JUMPDEST PUSH0 PUSH2 0x2C0F PUSH2 0x2A27 JUMP JUMPDEST SWAP1 POP PUSH2 0x2C1B DUP3 DUP3 PUSH2 0x2BD5 JUMP JUMPDEST SWAP2 SWAP1 POP JUMP JUMPDEST PUSH0 PUSH8 0xFFFFFFFFFFFFFFFF DUP3 GT ISZERO PUSH2 0x2C3A JUMPI PUSH2 0x2C39 PUSH2 0x2BA8 JUMP JUMPDEST JUMPDEST PUSH2 0x2C43 DUP3 PUSH2 0x29C9 JUMP JUMPDEST SWAP1 POP PUSH1 0x20 DUP2 ADD SWAP1 POP SWAP2 SWAP1 POP JUMP JUMPDEST PUSH0 PUSH2 0x2C62 PUSH2 0x2C5D DUP5 PUSH2 0x2C20 JUMP JUMPDEST PUSH2 0x2C06 JUMP JUMPDEST SWAP1 POP DUP3 DUP2 MSTORE PUSH1 0x20 DUP2 ADD DUP5 DUP5 DUP5 ADD GT ISZERO PUSH2 0x2C7E JUMPI PUSH2 0x2C7D PUSH2 0x2BA4 JUMP JUMPDEST JUMPDEST PUSH2 0x2C89 DUP5 DUP3 DUP6 PUSH2 0x29BB JUMP JUMPDEST POP SWAP4 SWAP3 POP POP POP JUMP JUMPDEST PUSH0 DUP3 PUSH1 0x1F DUP4 ADD SLT PUSH2 0x2CA5 JUMPI PUSH2 0x2CA4 PUSH2 0x2BA0 JUMP JUMPDEST JUMPDEST DUP2 CALLDATALOAD PUSH2 0x2CB5 DUP5 DUP3 PUSH1 0x20 DUP7 ADD PUSH2 0x2C50 JUMP JUMPDEST SWAP2 POP POP SWAP3 SWAP2 POP POP JUMP JUMPDEST PUSH0 PUSH0 PUSH0 PUSH1 0x60 DUP5 DUP7 SUB SLT ISZERO PUSH2 0x2CD5 JUMPI PUSH2 0x2CD4 PUSH2 0x2A30 JUMP JUMPDEST JUMPDEST PUSH0 PUSH2 0x2CE2 DUP7 DUP3 DUP8 ADD PUSH2 0x2B62 JUMP JUMPDEST SWAP4 POP POP PUSH1 0x20 PUSH2 0x2CF3 DUP7 DUP3 DUP8 ADD PUSH2 0x2B8C JUMP JUMPDEST SWAP3 POP POP PUSH1 0x40 DUP5 ADD CALLDATALOAD PUSH8 0xFFFFFFFFFFFFFFFF DUP2 GT ISZERO PUSH2 0x2D14 JUMPI PUSH2 0x2D13 PUSH2 0x2A34 JUMP JUMPDEST JUMPDEST PUSH2 0x2D20 DUP7 DUP3 DUP8 ADD PUSH2 0x2C91 JUMP JUMPDEST SWAP2 POP POP SWAP3 POP SWAP3 POP SWAP3 JUMP JUMPDEST PUSH0 PUSH8 0xFFFFFFFFFFFFFFFF DUP3 GT ISZERO PUSH2 0x2D44 JUMPI PUSH2 0x2D43 PUSH2 0x2BA8 JUMP JUMPDEST JUMPDEST PUSH1 0x20 DUP3 MUL SWAP1 POP PUSH1 0x20 DUP2 ADD SWAP1 POP SWAP2 SWAP1 POP JUMP JUMPDEST PUSH0 PUSH0 REVERT JUMPDEST PUSH0 PUSH2 0x2D6B PUSH2 0x2D66 DUP5 PUSH2 0x2D2A JUMP JUMPDEST PUSH2 0x2C06 JUMP JUMPDEST SWAP1 POP DUP1 DUP4 DUP3 MSTORE PUSH1 0x20 DUP3 ADD SWAP1 POP PUSH1 0x20 DUP5 MUL DUP4 ADD DUP6 DUP2 GT ISZERO PUSH2 0x2D8E JUMPI PUSH2 0x2D8D PUSH2 0x2D55 JUMP JUMPDEST JUMPDEST DUP4 JUMPDEST DUP2 DUP2 LT ISZERO PUSH2 0x2DB7 JUMPI DUP1 PUSH2 0x2DA3 DUP9 DUP3 PUSH2 0x2B62 JUMP JUMPDEST DUP5 MSTORE PUSH1 0x20 DUP5 ADD SWAP4 POP POP PUSH1 0x20 DUP2 ADD SWAP1 POP PUSH2 0x2D90 JUMP JUMPDEST POP POP POP SWAP4 SWAP3 POP POP POP JUMP JUMPDEST PUSH0 DUP3 PUSH1 0x1F DUP4 ADD SLT PUSH2 0x2DD5 JUMPI PUSH2 0x2DD4 PUSH2 0x2BA0 JUMP JUMPDEST JUMPDEST DUP2 CALLDATALOAD PUSH2 0x2DE5 DUP5 DUP3 PUSH1 0x20 DUP7 ADD PUSH2 0x2D59 JUMP JUMPDEST SWAP2 POP POP SWAP3 SWAP2 POP POP JUMP JUMPDEST PUSH0 PUSH8 0xFFFFFFFFFFFFFFFF DUP3 GT ISZERO PUSH2 0x2E08 JUMPI PUSH2 0x2E07 PUSH2 0x2BA8 JUMP JUMPDEST JUMPDEST PUSH1 0x20 DUP3 MUL SWAP1 POP PUSH1 0x20 DUP2 ADD SWAP1 POP SWAP2 SWAP1 POP JUMP JUMPDEST PUSH0 PUSH2 0x2E2B PUSH2 0x2E26 DUP5 PUSH2 0x2DEE JUMP JUMPDEST PUSH2 0x2C06 JUMP JUMPDEST SWAP1 POP DUP1 DUP4 DUP3 MSTORE PUSH1 0x20 DUP3 ADD SWAP1 POP PUSH1 0x20 DUP5 MUL DUP4 ADD DUP6 DUP2 GT ISZERO PUSH2 0x2E4E JUMPI PUSH2 0x2E4D PUSH2 0x2D55 JUMP JUMPDEST JUMPDEST DUP4 JUMPDEST DUP2 DUP2 LT ISZERO PUSH2 0x2E77 JUMPI DUP1 PUSH2 0x2E63 DUP9 DUP3 PUSH2 0x2B8C JUMP JUMPDEST DUP5 MSTORE PUSH1 0x20 DUP5 ADD SWAP4 POP POP PUSH1 0x20 DUP2 ADD SWAP1 POP PUSH2 0x2E50 JUMP JUMPDEST POP POP POP SWAP4 SWAP3 POP POP POP JUMP JUMPDEST PUSH0 DUP3 PUSH1 0x1F DUP4 ADD SLT PUSH2 0x2E95 JUMPI PUSH2 0x2E94 PUSH2 0x2BA0 JUMP JUMPDEST JUMPDEST DUP2 CALLDATALOAD PUSH2 0x2EA5 DUP5 DUP3 PUSH1 0x20 DUP7 ADD PUSH2 0x2E19 JUMP JUMPDEST SWAP2 POP POP SWAP3 SWAP2 POP POP JUMP JUMPDEST PUSH0 PUSH8 0xFFFFFFFFFFFFFFFF DUP3 GT ISZERO PUSH2 0x2EC8 JUMPI PUSH2 0x2EC7 PUSH2 0x2BA8 JUMP JUMPDEST JUMPDEST PUSH1 0x20 DUP3 MUL SWAP1 POP PUSH1 0x20 DUP2 ADD SWAP1 POP SWAP2 SWAP1 POP JUMP JUMPDEST PUSH2 0x2EE2 DUP2 PUSH2 0x2AB8 JUMP JUMPDEST DUP2 EQ PUSH2 0x2EEC JUMPI PUSH0 PUSH0 REVERT JUMPDEST POP JUMP JUMPDEST PUSH0 DUP2 CALLDATALOAD SWAP1 POP PUSH2 0x2EFD DUP2 PUSH2 0x2ED9 JUMP JUMPDEST SWAP3 SWAP2 POP POP JUMP JUMPDEST PUSH0 PUSH2 0x2F15 PUSH2 0x2F10 DUP5 PUSH2 0x2EAE JUMP JUMPDEST PUSH2 0x2C06 JUMP JUMPDEST SWAP1 POP DUP1 DUP4 DUP3 MSTORE PUSH1 0x20 DUP3 ADD SWAP1 POP PUSH1 0x20 DUP5 MUL DUP4 ADD DUP6 DUP2 GT ISZERO PUSH2 0x2F38 JUMPI PUSH2 0x2F37 PUSH2 0x2D55 JUMP JUMPDEST JUMPDEST DUP4 JUMPDEST DUP2 DUP2 LT ISZERO PUSH2 0x2F61 JUMPI DUP1 PUSH2 0x2F4D DUP9 DUP3 PUSH2 0x2EEF JUMP JUMPDEST DUP5 MSTORE PUSH1 0x20 DUP5 ADD SWAP4 POP POP PUSH1 0x20 DUP2 ADD SWAP1 POP PUSH2 0x2F3A JUMP JUMPDEST POP POP POP SWAP4 SWAP3 POP POP POP JUMP JUMPDEST PUSH0 DUP3 PUSH1 0x1F DUP4 ADD SLT PUSH2 0x2F7F JUMPI PUSH2 0x2F7E PUSH2 0x2BA0 JUMP JUMPDEST JUMPDEST DUP2 CALLDATALOAD PUSH2 0x2F8F DUP5 DUP3 PUSH1 0x20 DUP7 ADD PUSH2 0x2F03 JUMP JUMPDEST SWAP2 POP POP SWAP3 SWAP2 POP POP JUMP JUMPDEST PUSH0 PUSH8 0xFFFFFFFFFFFFFFFF DUP3 GT ISZERO PUSH2 0x2FB2 JUMPI PUSH2 0x2FB1 PUSH2 0x2BA8 JUMP JUMPDEST JUMPDEST PUSH1 0x20 DUP3 MUL SWAP1 POP PUSH1 0x20 DUP2 ADD SWAP1 POP SWAP2 SWAP1 POP JUMP JUMPDEST PUSH0 PUSH2 0x2FD5 PUSH2 0x2FD0 DUP5 PUSH2 0x2F98 JUMP JUMPDEST PUSH2 0x2C06 JUMP JUMPDEST SWAP1 POP DUP1 DUP4 DUP3 MSTORE PUSH1 0x20 DUP3 ADD SWAP1 POP PUSH1 0x20 DUP5 MUL DUP4 ADD DUP6 DUP2 GT ISZERO PUSH2 0x2FF8 JUMPI PUSH2 0x2FF7 PUSH2 0x2D55 JUMP JUMPDEST JUMPDEST DUP4 JUMPDEST DUP2 DUP2 LT ISZERO PUSH2 0x303F JUMPI DUP1 CALLDATALOAD PUSH8 0xFFFFFFFFFFFFFFFF DUP2 GT ISZERO PUSH2 0x301D JUMPI PUSH2 0x301C PUSH2 0x2BA0 JUMP JUMPDEST JUMPDEST DUP1 DUP7 ADD PUSH2 0x302A DUP10 DUP3 PUSH2 0x2C91 JUMP JUMPDEST DUP6 MSTORE PUSH1 0x20 DUP6 ADD SWAP5 POP POP POP PUSH1 0x20 DUP2 ADD SWAP1 POP PUSH2 0x2FFA JUMP JUMPDEST POP POP POP SWAP4 SWAP3 POP POP POP JUMP JUMPDEST PUSH0 DUP3 PUSH1 0x1F DUP4 ADD SLT PUSH2 0x305D JUMPI PUSH2 0x305C PUSH2 0x2BA0 JUMP JUMPDEST JUMPDEST DUP2 CALLDATALOAD PUSH2 0x306D DUP5 DUP3 PUSH1 0x20 DUP7 ADD PUSH2 0x2FC3 JUMP JUMPDEST SWAP2 POP POP SWAP3 SWAP2 POP POP JUMP JUMPDEST PUSH0 PUSH0 PUSH0 PUSH0 PUSH0 PUSH1 0xA0 DUP7 DUP9 SUB SLT ISZERO PUSH2 0x308F JUMPI PUSH2 0x308E PUSH2 0x2A30 JUMP JUMPDEST JUMPDEST PUSH0 DUP7 ADD CALLDATALOAD PUSH8 0xFFFFFFFFFFFFFFFF DUP2 GT ISZERO PUSH2 0x30AC JUMPI PUSH2 0x30AB PUSH2 0x2A34 JUMP JUMPDEST JUMPDEST PUSH2 0x30B8 DUP9 DUP3 DUP10 ADD PUSH2 0x2DC1 JUMP JUMPDEST SWAP6 POP POP PUSH1 0x20 DUP7 ADD CALLDATALOAD PUSH8 0xFFFFFFFFFFFFFFFF DUP2 GT ISZERO PUSH2 0x30D9 JUMPI PUSH2 0x30D8 PUSH2 0x2A34 JUMP JUMPDEST JUMPDEST PUSH2 0x30E5 DUP9 DUP3 DUP10 ADD PUSH2 0x2DC1 JUMP JUMPDEST SWAP5 POP POP PUSH1 0x40 DUP7 ADD CALLDATALOAD PUSH8 0xFFFFFFFFFFFFFFFF DUP2 GT ISZERO PUSH2 0x3106 JUMPI PUSH2 0x3105 PUSH2 0x2A34 JUMP JUMPDEST JUMPDEST PUSH2 0x3112 DUP9 DUP3 DUP10 ADD PUSH2 0x2E81 JUMP JUMPDEST SWAP4 POP POP PUSH1 0x60 DUP7 ADD CALLDATALOAD PUSH8 0xFFFFFFFFFFFFFFFF DUP2 GT ISZERO PUSH2 0x3133 JUMPI PUSH2 0x3132 PUSH2 0x2A34 JUMP JUMPDEST JUMPDEST PUSH2 0x313F DUP9 DUP3 DUP10 ADD PUSH2 0x2F6B JUMP JUMPDEST SWAP3 POP POP PUSH1 0x80 DUP7 ADD CALLDATALOAD PUSH8 0xFFFFFFFFFFFFFFFF DUP2 GT ISZERO PUSH2 0x3160 JUMPI PUSH2 0x315F PUSH2 0x2A34 JUMP JUMPDEST JUMPDEST PUSH2 0x316C DUP9 DUP3 DUP10 ADD PUSH2 0x3049 JUMP JUMPDEST SWAP2 POP POP SWAP3 SWAP6 POP SWAP3 SWAP6 SWAP1 SWAP4 POP JUMP JUMPDEST PUSH0 PUSH0 PUSH0 PUSH0 PUSH1 0x80 DUP6 DUP8 SUB SLT ISZERO PUSH2 0x3191 JUMPI PUSH2 0x3190 PUSH2 0x2A30 JUMP JUMPDEST JUMPDEST PUSH0 PUSH2 0x319E DUP8 DUP3 DUP9 ADD PUSH2 0x2B62 JUMP JUMPDEST SWAP5 POP POP PUSH1 0x20 PUSH2 0x31AF DUP8 DUP3 DUP9 ADD PUSH2 0x2B62 JUMP JUMPDEST SWAP4 POP POP PUSH1 0x40 PUSH2 0x31C0 DUP8 DUP3 DUP9 ADD PUSH2 0x2EEF JUMP JUMPDEST SWAP3 POP POP PUSH1 0x60 DUP6 ADD CALLDATALOAD PUSH8 0xFFFFFFFFFFFFFFFF DUP2 GT ISZERO PUSH2 0x31E1 JUMPI PUSH2 0x31E0 PUSH2 0x2A34 JUMP JUMPDEST JUMPDEST PUSH2 0x31ED DUP8 DUP3 DUP9 ADD PUSH2 0x2C91 JUMP JUMPDEST SWAP2 POP POP SWAP3 SWAP6 SWAP2 SWAP5 POP SWAP3 POP JUMP JUMPDEST PUSH0 PUSH1 0xFF DUP3 AND SWAP1 POP SWAP2 SWAP1 POP JUMP JUMPDEST PUSH2 0x320E DUP2 PUSH2 0x31F9 JUMP JUMPDEST DUP3 MSTORE POP POP JUMP JUMPDEST PUSH0 PUSH1 0x20 DUP3 ADD SWAP1 POP PUSH2 0x3227 PUSH0 DUP4 ADD DUP5 PUSH2 0x3205 JUMP JUMPDEST SWAP3 SWAP2 POP POP JUMP JUMPDEST PUSH0 DUP2 SWAP1 POP SWAP2 SWAP1 POP JUMP JUMPDEST PUSH2 0x323F DUP2 PUSH2 0x322D JUMP JUMPDEST DUP2 EQ PUSH2 0x3249 JUMPI PUSH0 PUSH0 REVERT JUMPDEST POP JUMP JUMPDEST PUSH0 DUP2 CALLDATALOAD SWAP1 POP PUSH2 0x325A DUP2 PUSH2 0x3236 JUMP JUMPDEST SWAP3 SWAP2 POP POP JUMP JUMPDEST PUSH0 PUSH1 0x20 DUP3 DUP5 SUB SLT ISZERO PUSH2 0x3275 JUMPI PUSH2 0x3274 PUSH2 0x2A30 JUMP JUMPDEST JUMPDEST PUSH0 PUSH2 0x3282 DUP5 DUP3 DUP6 ADD PUSH2 0x324C JUMP JUMPDEST SWAP2 POP POP SWAP3 SWAP2 POP POP JUMP JUMPDEST PUSH0 DUP2 MLOAD SWAP1 POP SWAP2 SWAP1 POP JUMP JUMPDEST DUP3 DUP2 DUP4 MCOPY PUSH0 DUP4 DUP4 ADD MSTORE POP POP POP JUMP JUMPDEST PUSH0 PUSH2 0x32AD DUP3 PUSH2 0x328B JUMP JUMPDEST PUSH2 0x32B7 DUP2 DUP6 PUSH2 0x2963 JUMP JUMPDEST SWAP4 POP PUSH2 0x32C7 DUP2 DUP6 PUSH1 0x20 DUP7 ADD PUSH2 0x3295 JUMP JUMPDEST PUSH2 0x32D0 DUP2 PUSH2 0x29C9 JUMP JUMPDEST DUP5 ADD SWAP2 POP POP SWAP3 SWAP2 POP POP JUMP JUMPDEST PUSH0 PUSH1 0x20 DUP3 ADD SWAP1 POP DUP2 DUP2 SUB PUSH0 DUP4 ADD MSTORE PUSH2 0x32F3 DUP2 DUP5 PUSH2 0x32A3 JUMP JUMPDEST SWAP1 POP SWAP3 SWAP2 POP POP JUMP JUMPDEST PUSH0 PUSH0 PUSH1 0x40 DUP4 DUP6 SUB SLT ISZERO PUSH2 0x3311 JUMPI PUSH2 0x3310 PUSH2 0x2A30 JUMP JUMPDEST JUMPDEST PUSH0 PUSH2 0x331E DUP6 DUP3 DUP7 ADD PUSH2 0x2B62 JUMP JUMPDEST SWAP3 POP POP PUSH1 0x20 PUSH2 0x332F DUP6 DUP3 DUP7 ADD PUSH2 0x2B62 JUMP JUMPDEST SWAP2 POP POP SWAP3 POP SWAP3 SWAP1 POP JUMP JUMPDEST PUSH0 PUSH0 REVERT JUMPDEST PUSH0 PUSH0 DUP4 PUSH1 0x1F DUP5 ADD SLT PUSH2 0x3352 JUMPI PUSH2 0x3351 PUSH2 0x2BA0 JUMP JUMPDEST JUMPDEST DUP3 CALLDATALOAD SWAP1 POP PUSH8 0xFFFFFFFFFFFFFFFF DUP2 GT ISZERO PUSH2 0x336F JUMPI PUSH2 0x336E PUSH2 0x3339 JUMP JUMPDEST JUMPDEST PUSH1 0x20 DUP4 ADD SWAP2 POP DUP4 PUSH1 0x20 DUP3 MUL DUP4 ADD GT ISZERO PUSH2 0x338B JUMPI PUSH2 0x338A PUSH2 0x2D55 JUMP JUMPDEST JUMPDEST SWAP3 POP SWAP3 SWAP1 POP JUMP JUMPDEST PUSH0 PUSH0 PUSH1 0x20 DUP4 DUP6 SUB SLT ISZERO PUSH2 0x33A8 JUMPI PUSH2 0x33A7 PUSH2 0x2A30 JUMP JUMPDEST JUMPDEST PUSH0 DUP4 ADD CALLDATALOAD PUSH8 0xFFFFFFFFFFFFFFFF DUP2 GT ISZERO PUSH2 0x33C5 JUMPI PUSH2 0x33C4 PUSH2 0x2A34 JUMP JUMPDEST JUMPDEST PUSH2 0x33D1 DUP6 DUP3 DUP7 ADD PUSH2 0x333D JUMP JUMPDEST SWAP3 POP SWAP3 POP POP SWAP3 POP SWAP3 SWAP1 POP JUMP JUMPDEST PUSH0 DUP2 MLOAD SWAP1 POP SWAP2 SWAP1 POP JUMP JUMPDEST PUSH0 DUP3 DUP3 MSTORE PUSH1 0x20 DUP3 ADD SWAP1 POP SWAP3 SWAP2 POP POP JUMP JUMPDEST PUSH0 DUP2 SWAP1 POP PUSH1 0x20 DUP3 ADD SWAP1 POP SWAP2 SWAP1 POP JUMP JUMPDEST PUSH0 DUP3 DUP3 MSTORE PUSH1 0x20 DUP3 ADD SWAP1 POP SWAP3 SWAP2 POP POP JUMP JUMPDEST PUSH0 PUSH2 0x3420 DUP3 PUSH2 0x328B JUMP JUMPDEST PUSH2 0x342A DUP2 DUP6 PUSH2 0x3406 JUMP JUMPDEST SWAP4 POP PUSH2 0x343A DUP2 DUP6 PUSH1 0x20 DUP7 ADD PUSH2 0x3295 JUMP JUMPDEST PUSH2 0x3443 DUP2 PUSH2 0x29C9 JUMP JUMPDEST DUP5 ADD SWAP2 POP POP SWAP3 SWAP2 POP POP JUMP JUMPDEST PUSH0 PUSH2 0x3459 DUP4 DUP4 PUSH2 0x3416 JUMP JUMPDEST SWAP1 POP SWAP3 SWAP2 POP POP JUMP JUMPDEST PUSH0 PUSH1 0x20 DUP3 ADD SWAP1 POP SWAP2 SWAP1 POP JUMP JUMPDEST PUSH0 PUSH2 0x3477 DUP3 PUSH2 0x33DD JUMP JUMPDEST PUSH2 0x3481 DUP2 DUP6 PUSH2 0x33E7 JUMP JUMPDEST SWAP4 POP DUP4 PUSH1 0x20 DUP3 MUL DUP6 ADD PUSH2 0x3493 DUP6 PUSH2 0x33F7 JUMP JUMPDEST DUP1 PUSH0 JUMPDEST DUP6 DUP2 LT ISZERO PUSH2 0x34CE JUMPI DUP5 DUP5 SUB DUP10 MSTORE DUP2 MLOAD PUSH2 0x34AF DUP6 DUP3 PUSH2 0x344E JUMP JUMPDEST SWAP5 POP PUSH2 0x34BA DUP4 PUSH2 0x3461 JUMP JUMPDEST SWAP3 POP PUSH1 0x20 DUP11 ADD SWAP10 POP POP PUSH1 0x1 DUP2 ADD SWAP1 POP PUSH2 0x3496 JUMP JUMPDEST POP DUP3 SWAP8 POP DUP8 SWAP6 POP POP POP POP POP POP SWAP3 SWAP2 POP POP JUMP JUMPDEST PUSH0 PUSH1 0x20 DUP3 ADD SWAP1 POP DUP2 DUP2 SUB PUSH0 DUP4 ADD MSTORE PUSH2 0x34F8 DUP2 DUP5 PUSH2 0x346D JUMP JUMPDEST SWAP1 POP SWAP3 SWAP2 POP POP JUMP JUMPDEST PUSH0 PUSH1 0x20 DUP3 DUP5 SUB SLT ISZERO PUSH2 0x3515 JUMPI PUSH2 0x3514 PUSH2 0x2A30 JUMP JUMPDEST JUMPDEST PUSH0 PUSH2 0x3522 DUP5 DUP3 DUP6 ADD PUSH2 0x2B62 JUMP JUMPDEST SWAP2 POP POP SWAP3 SWAP2 POP POP JUMP JUMPDEST PUSH0 PUSH0 PUSH0 PUSH0 PUSH1 0x80 DUP6 DUP8 SUB SLT ISZERO PUSH2 0x3543 JUMPI PUSH2 0x3542 PUSH2 0x2A30 JUMP JUMPDEST JUMPDEST PUSH0 PUSH2 0x3550 DUP8 DUP3 DUP9 ADD PUSH2 0x2B62 JUMP JUMPDEST SWAP5 POP POP PUSH1 0x20 PUSH2 0x3561 DUP8 DUP3 DUP9 ADD PUSH2 0x2B8C JUMP JUMPDEST SWAP4 POP POP PUSH1 0x40 PUSH2 0x3572 DUP8 DUP3 DUP9 ADD PUSH2 0x2EEF JUMP JUMPDEST SWAP3 POP POP PUSH1 0x60 DUP6 ADD CALLDATALOAD PUSH8 0xFFFFFFFFFFFFFFFF DUP2 GT ISZERO PUSH2 0x3593 JUMPI PUSH2 0x3592 PUSH2 0x2A34 JUMP JUMPDEST JUMPDEST PUSH2 0x359F DUP8 DUP3 DUP9 ADD PUSH2 0x2C91 JUMP JUMPDEST SWAP2 POP POP SWAP3 SWAP6 SWAP2 SWAP5 POP SWAP3 POP JUMP JUMPDEST PUSH0 PUSH0 PUSH0 PUSH0 PUSH0 PUSH1 0xA0 DUP7 DUP9 SUB SLT ISZERO PUSH2 0x35C4 JUMPI PUSH2 0x35C3 PUSH2 0x2A30 JUMP JUMPDEST JUMPDEST PUSH0 PUSH2 0x35D1 DUP9 DUP3 DUP10 ADD PUSH2 0x2B62 JUMP JUMPDEST SWAP6 POP POP PUSH1 0x20 PUSH2 0x35E2 DUP9 DUP3 DUP10 ADD PUSH2 0x2B62 JUMP JUMPDEST SWAP5 POP POP PUSH1 0x40 PUSH2 0x35F3 DUP9 DUP3 DUP10 ADD PUSH2 0x2B8C JUMP JUMPDEST SWAP4 POP POP PUSH1 0x60 PUSH2 0x3604 DUP9 DUP3 DUP10 ADD PUSH2 0x2EEF JUMP JUMPDEST SWAP3 POP POP PUSH1 0x80 DUP7 ADD CALLDATALOAD PUSH8 0xFFFFFFFFFFFFFFFF DUP2 GT ISZERO PUSH2 0x3625 JUMPI PUSH2 0x3624 PUSH2 0x2A34 JUMP JUMPDEST JUMPDEST PUSH2 0x3631 DUP9 DUP3 DUP10 ADD PUSH2 0x2C91 JUMP JUMPDEST SWAP2 POP POP SWAP3 SWAP6 POP SWAP3 SWAP6 SWAP1 SWAP4 POP JUMP JUMPDEST PUSH0 PUSH0 PUSH0 PUSH0 PUSH1 0x80 DUP6 DUP8 SUB SLT ISZERO PUSH2 0x3656 JUMPI PUSH2 0x3655 PUSH2 0x2A30 JUMP JUMPDEST JUMPDEST PUSH0 PUSH2 0x3663 DUP8 DUP3 DUP9 ADD PUSH2 0x2B62 JUMP JUMPDEST SWAP5 POP POP PUSH1 0x20 PUSH2 0x3674 DUP8 DUP3 DUP9 ADD PUSH2 0x2B62 JUMP JUMPDEST SWAP4 POP POP PUSH1 0x40 PUSH2 0x3685 DUP8 DUP3 DUP9 ADD PUSH2 0x2B8C JUMP JUMPDEST SWAP3 POP POP PUSH1 0x60 DUP6 ADD CALLDATALOAD PUSH8 0xFFFFFFFFFFFFFFFF DUP2 GT ISZERO PUSH2 0x36A6 JUMPI PUSH2 0x36A5 PUSH2 0x2A34 JUMP JUMPDEST JUMPDEST PUSH2 0x36B2 DUP8 DUP3 DUP9 ADD PUSH2 0x2C91 JUMP JUMPDEST SWAP2 POP POP SWAP3 SWAP6 SWAP2 SWAP5 POP SWAP3 POP JUMP JUMPDEST PUSH0 PUSH0 PUSH1 0x40 DUP4 DUP6 SUB SLT ISZERO PUSH2 0x36D4 JUMPI PUSH2 0x36D3 PUSH2 0x2A30 JUMP JUMPDEST JUMPDEST PUSH0 PUSH2 0x36E1 DUP6 DUP3 DUP7 ADD PUSH2 0x324C JUMP JUMPDEST SWAP3 POP POP PUSH1 0x20 DUP4 ADD CALLDATALOAD PUSH8 0xFFFFFFFFFFFFFFFF DUP2 GT ISZERO PUSH2 0x3702 JUMPI PUSH2 0x3701 PUSH2 0x2A34 JUMP JUMPDEST JUMPDEST PUSH2 0x370E DUP6 DUP3 DUP7 ADD PUSH2 0x2C91 JUMP JUMPDEST SWAP2 POP POP SWAP3 POP SWAP3 SWAP1 POP JUMP JUMPDEST PUSH2 0x3721 DUP2 PUSH2 0x2B3B JUMP JUMPDEST DUP3 MSTORE POP POP JUMP JUMPDEST PUSH0 PUSH1 0x20 DUP3 ADD SWAP1 POP PUSH2 0x373A PUSH0 DUP4 ADD DUP5 PUSH2 0x3718 JUMP JUMPDEST SWAP3 SWAP2 POP POP JUMP JUMPDEST PUSH0 PUSH8 0xFFFFFFFFFFFFFFFF DUP3 GT ISZERO PUSH2 0x375A JUMPI PUSH2 0x3759 PUSH2 0x2BA8 JUMP JUMPDEST JUMPDEST PUSH1 0x20 DUP3 MUL SWAP1 POP PUSH1 0x20 DUP2 ADD SWAP1 POP SWAP2 SWAP1 POP JUMP JUMPDEST PUSH0 PUSH2 0x377D PUSH2 0x3778 DUP5 PUSH2 0x3740 JUMP JUMPDEST PUSH2 0x2C06 JUMP JUMPDEST SWAP1 POP DUP1 DUP4 DUP3 MSTORE PUSH1 0x20 DUP3 ADD SWAP1 POP PUSH1 0x20 DUP5 MUL DUP4 ADD DUP6 DUP2 GT ISZERO PUSH2 0x37A0 JUMPI PUSH2 0x379F PUSH2 0x2D55 JUMP JUMPDEST JUMPDEST DUP4 JUMPDEST DUP2 DUP2 LT ISZERO PUSH2 0x37C9 JUMPI DUP1 PUSH2 0x37B5 DUP9 DUP3 PUSH2 0x324C JUMP JUMPDEST DUP5 MSTORE PUSH1 0x20 DUP5 ADD SWAP4 POP POP PUSH1 0x20 DUP2 ADD SWAP1 POP PUSH2 0x37A2 JUMP JUMPDEST POP POP POP SWAP4 SWAP3 POP POP POP JUMP JUMPDEST PUSH0 DUP3 PUSH1 0x1F DUP4 ADD SLT PUSH2 0x37E7 JUMPI PUSH2 0x37E6 PUSH2 0x2BA0 JUMP JUMPDEST JUMPDEST DUP2 CALLDATALOAD PUSH2 0x37F7 DUP5 DUP3 PUSH1 0x20 DUP7 ADD PUSH2 0x376B JUMP JUMPDEST SWAP2 POP POP SWAP3 SWAP2 POP POP JUMP JUMPDEST PUSH0 PUSH0 PUSH1 0x40 DUP4 DUP6 SUB SLT ISZERO PUSH2 0x3816 JUMPI PUSH2 0x3815 PUSH2 0x2A30 JUMP JUMPDEST JUMPDEST PUSH0 DUP4 ADD CALLDATALOAD PUSH8 0xFFFFFFFFFFFFFFFF DUP2 GT ISZERO PUSH2 0x3833 JUMPI PUSH2 0x3832 PUSH2 0x2A34 JUMP JUMPDEST JUMPDEST PUSH2 0x383F DUP6 DUP3 DUP7 ADD PUSH2 0x37D3 JUMP JUMPDEST SWAP3 POP POP PUSH1 0x20 DUP4 ADD CALLDATALOAD PUSH8 0xFFFFFFFFFFFFFFFF DUP2 GT ISZERO PUSH2 0x3860 JUMPI PUSH2 0x385F PUSH2 0x2A34 JUMP JUMPDEST JUMPDEST PUSH2 0x386C DUP6 DUP3 DUP7 ADD PUSH2 0x3049 JUMP JUMPDEST SWAP2 POP POP SWAP3 POP SWAP3 SWAP1 POP JUMP JUMPDEST PUSH0 DUP2 MLOAD SWAP1 POP SWAP2 SWAP1 POP JUMP JUMPDEST PUSH0 DUP3 DUP3 MSTORE PUSH1 0x20 DUP3 ADD SWAP1 POP SWAP3 SWAP2 POP POP JUMP JUMPDEST PUSH0 DUP2 SWAP1 POP PUSH1 0x20 DUP3 ADD SWAP1 POP SWAP2 SWAP1 POP JUMP JUMPDEST PUSH2 0x38A8 DUP2 PUSH2 0x2B3B JUMP JUMPDEST DUP3 MSTORE POP POP JUMP JUMPDEST PUSH0 PUSH2 0x38B9 DUP4 DUP4 PUSH2 0x389F JUMP JUMPDEST PUSH1 0x20 DUP4 ADD SWAP1 POP SWAP3 SWAP2 POP POP JUMP JUMPDEST PUSH0 PUSH1 0x20 DUP3 ADD SWAP1 POP SWAP2 SWAP1 POP JUMP JUMPDEST PUSH0 PUSH2 0x38DB DUP3 PUSH2 0x3876 JUMP JUMPDEST PUSH2 0x38E5 DUP2 DUP6 PUSH2 0x3880 JUMP JUMPDEST SWAP4 POP PUSH2 0x38F0 DUP4 PUSH2 0x3890 JUMP JUMPDEST DUP1 PUSH0 JUMPDEST DUP4 DUP2 LT ISZERO PUSH2 0x3920 JUMPI DUP2 MLOAD PUSH2 0x3907 DUP9 DUP3 PUSH2 0x38AE JUMP JUMPDEST SWAP8 POP PUSH2 0x3912 DUP4 PUSH2 0x38C5 JUMP JUMPDEST SWAP3 POP POP PUSH1 0x1 DUP2 ADD SWAP1 POP PUSH2 0x38F3 JUMP JUMPDEST POP DUP6 SWAP4 POP POP POP POP SWAP3 SWAP2 POP POP JUMP JUMPDEST PUSH0 PUSH1 0x20 DUP3 ADD SWAP1 POP DUP2 DUP2 SUB PUSH0 DUP4 ADD MSTORE PUSH2 0x3945 DUP2 DUP5 PUSH2 0x38D1 JUMP JUMPDEST SWAP1 POP SWAP3 SWAP2 POP POP JUMP JUMPDEST PUSH0 PUSH1 0x20 DUP3 DUP5 SUB SLT ISZERO PUSH2 0x3962 JUMPI PUSH2 0x3961 PUSH2 0x2A30 JUMP JUMPDEST JUMPDEST PUSH0 DUP3 ADD CALLDATALOAD PUSH8 0xFFFFFFFFFFFFFFFF DUP2 GT ISZERO PUSH2 0x397F JUMPI PUSH2 0x397E PUSH2 0x2A34 JUMP JUMPDEST JUMPDEST PUSH2 0x398B DUP5 DUP3 DUP6 ADD PUSH2 0x37D3 JUMP JUMPDEST SWAP2 POP POP SWAP3 SWAP2 POP POP JUMP JUMPDEST PUSH2 0x399D DUP2 PUSH2 0x2A38 JUMP JUMPDEST DUP3 MSTORE POP POP JUMP JUMPDEST PUSH0 PUSH1 0x20 DUP3 ADD SWAP1 POP PUSH2 0x39B6 PUSH0 DUP4 ADD DUP5 PUSH2 0x3994 JUMP JUMPDEST SWAP3 SWAP2 POP POP JUMP JUMPDEST PUSH0 DUP2 SWAP1 POP SWAP3 SWAP2 POP POP JUMP JUMPDEST PUSH0 PUSH2 0x39D1 DUP4 DUP6 PUSH2 0x39BC JUMP JUMPDEST SWAP4 POP PUSH2 0x39DE DUP4 DUP6 DUP5 PUSH2 0x29BB JUMP JUMPDEST DUP3 DUP5 ADD SWAP1 POP SWAP4 SWAP3 POP POP POP JUMP JUMPDEST PUSH0 DUP2 PUSH1 0x60 SHL SWAP1 POP SWAP2 SWAP1 POP JUMP JUMPDEST PUSH0 PUSH2 0x3A00 DUP3 PUSH2 0x39EA JUMP JUMPDEST SWAP1 POP SWAP2 SWAP1 POP JUMP JUMPDEST PUSH0 PUSH2 0x3A11 DUP3 PUSH2 0x39F6 JUMP JUMPDEST SWAP1 POP SWAP2 SWAP1 POP JUMP JUMPDEST PUSH2 0x3A29 PUSH2 0x3A24 DUP3 PUSH2 0x2B3B JUMP JUMPDEST PUSH2 0x3A07 JUMP JUMPDEST DUP3 MSTORE POP POP JUMP JUMPDEST PUSH0 DUP2 SWAP1 POP SWAP2 SWAP1 POP JUMP JUMPDEST PUSH2 0x3A49 PUSH2 0x3A44 DUP3 PUSH2 0x2AEB JUMP JUMPDEST PUSH2 0x3A2F JUMP JUMPDEST DUP3 MSTORE POP POP JUMP JUMPDEST PUSH0 PUSH2 0x3A5B DUP3 DUP7 DUP9 PUSH2 0x39C6 JUMP JUMPDEST SWAP2 POP PUSH2 0x3A67 DUP3 DUP6 PUSH2 0x3A18 JUMP JUMPDEST PUSH1 0x14 DUP3 ADD SWAP2 POP PUSH2 0x3A77 DUP3 DUP5 PUSH2 0x3A38 JUMP JUMPDEST PUSH1 0x20 DUP3 ADD SWAP2 POP DUP2 SWAP1 POP SWAP6 SWAP5 POP POP POP POP POP JUMP JUMPDEST PUSH0 PUSH2 0x3A93 DUP3 PUSH2 0x328B JUMP JUMPDEST PUSH2 0x3A9D DUP2 DUP6 PUSH2 0x39BC JUMP JUMPDEST SWAP4 POP PUSH2 0x3AAD DUP2 DUP6 PUSH1 0x20 DUP7 ADD PUSH2 0x3295 JUMP JUMPDEST DUP1 DUP5 ADD SWAP2 POP POP SWAP3 SWAP2 POP POP JUMP JUMPDEST PUSH0 PUSH2 0x3AC4 DUP3 DUP5 PUSH2 0x3A89 JUMP JUMPDEST SWAP2 POP DUP2 SWAP1 POP SWAP3 SWAP2 POP POP JUMP JUMPDEST PUSH32 0x4E487B7100000000000000000000000000000000000000000000000000000000 PUSH0 MSTORE PUSH1 0x11 PUSH1 0x4 MSTORE PUSH1 0x24 PUSH0 REVERT JUMPDEST PUSH0 PUSH2 0x3B06 DUP3 PUSH2 0x2AEB JUMP JUMPDEST SWAP2 POP PUSH2 0x3B11 DUP4 PUSH2 0x2AEB JUMP JUMPDEST SWAP3 POP DUP3 DUP3 ADD SWAP1 POP DUP1 DUP3 GT ISZERO PUSH2 0x3B29 JUMPI PUSH2 0x3B28 PUSH2 0x3ACF JUMP JUMPDEST JUMPDEST SWAP3 SWAP2 POP POP JUMP JUMPDEST PUSH0 PUSH1 0x60 DUP3 ADD SWAP1 POP PUSH2 0x3B42 PUSH0 DUP4 ADD DUP7 PUSH2 0x3718 JUMP JUMPDEST PUSH2 0x3B4F PUSH1 0x20 DUP4 ADD DUP6 PUSH2 0x2AF4 JUMP JUMPDEST DUP2 DUP2 SUB PUSH1 0x40 DUP4 ADD MSTORE PUSH2 0x3B61 DUP2 DUP5 PUSH2 0x32A3 JUMP JUMPDEST SWAP1 POP SWAP5 SWAP4 POP POP POP POP JUMP JUMPDEST PUSH32 0x4E487B7100000000000000000000000000000000000000000000000000000000 PUSH0 MSTORE PUSH1 0x32 PUSH1 0x4 MSTORE PUSH1 0x24 PUSH0 REVERT JUMPDEST PUSH0 PUSH1 0x60 DUP3 ADD SWAP1 POP PUSH2 0x3BAB PUSH0 DUP4 ADD DUP7 PUSH2 0x3718 JUMP JUMPDEST PUSH2 0x3BB8 PUSH1 0x20 DUP4 ADD DUP6 PUSH2 0x3718 JUMP JUMPDEST PUSH2 0x3BC5 PUSH1 0x40 DUP4 ADD DUP5 PUSH2 0x3718 JUMP JUMPDEST SWAP5 SWAP4 POP POP POP POP JUMP JUMPDEST PUSH0 DUP2 SWAP1 POP SWAP2 SWAP1 POP JUMP JUMPDEST PUSH0 DUP2 SWAP1 POP SWAP2 SWAP1 POP JUMP JUMPDEST PUSH0 PUSH2 0x3BF9 PUSH2 0x3BF4 PUSH2 0x3BEF DUP5 PUSH2 0x3BCD JUMP JUMPDEST PUSH2 0x3BD6 JUMP JUMPDEST PUSH2 0x31F9 JUMP JUMPDEST SWAP1 POP SWAP2 SWAP1 POP JUMP JUMPDEST PUSH2 0x3C09 DUP2 PUSH2 0x3BDF JUMP JUMPDEST DUP3 MSTORE POP POP JUMP JUMPDEST PUSH0 PUSH1 0x60 DUP3 ADD SWAP1 POP PUSH2 0x3C22 PUSH0 DUP4 ADD DUP7 PUSH2 0x3718 JUMP JUMPDEST PUSH2 0x3C2F PUSH1 0x20 DUP4 ADD DUP6 PUSH2 0x3C00 JUMP JUMPDEST DUP2 DUP2 SUB PUSH1 0x40 DUP4 ADD MSTORE PUSH2 0x3C41 DUP2 DUP5 PUSH2 0x32A3 JUMP JUMPDEST SWAP1 POP SWAP5 SWAP4 POP POP POP POP JUMP JUMPDEST PUSH0 PUSH0 REVERT JUMPDEST PUSH0 PUSH0 REVERT JUMPDEST PUSH0 PUSH0 REVERT JUMPDEST PUSH0 PUSH0 DUP4 CALLDATALOAD PUSH1 0x1 PUSH1 0x20 SUB DUP5 CALLDATASIZE SUB SUB DUP2 SLT PUSH2 0x3C73 JUMPI PUSH2 0x3C72 PUSH2 0x3C4B JUMP JUMPDEST JUMPDEST DUP1 DUP5 ADD SWAP3 POP DUP3 CALLDATALOAD SWAP2 POP PUSH8 0xFFFFFFFFFFFFFFFF DUP3 GT ISZERO PUSH2 0x3C95 JUMPI PUSH2 0x3C94 PUSH2 0x3C4F JUMP JUMPDEST JUMPDEST PUSH1 0x20 DUP4 ADD SWAP3 POP PUSH1 0x1 DUP3 MUL CALLDATASIZE SUB DUP4 SGT ISZERO PUSH2 0x3CB1 JUMPI PUSH2 0x3CB0 PUSH2 0x3C53 JUMP JUMPDEST JUMPDEST POP SWAP3 POP SWAP3 SWAP1 POP JUMP JUMPDEST PUSH0 PUSH2 0x3CC5 DUP3 DUP5 DUP7 PUSH2 0x39C6 JUMP JUMPDEST SWAP2 POP DUP2 SWAP1 POP SWAP4 SWAP3 POP POP POP JUMP JUMPDEST PUSH0 DUP2 SWAP1 POP PUSH1 0x20 DUP3 ADD SWAP1 POP SWAP2 SWAP1 POP JUMP JUMPDEST PUSH0 PUSH32 0xFFFFFFFFFFFFFFFFFFFFFFFFFFFFFFFFFFFFFFFF000000000000000000000000 DUP3 AND SWAP1 POP SWAP2 SWAP1 POP JUMP JUMPDEST PUSH0 PUSH2 0x3D16 DUP3 MLOAD PUSH2 0x3CE0 JUMP JUMPDEST DUP1 SWAP2 POP POP SWAP2 SWAP1 POP JUMP JUMPDEST PUSH0 DUP3 DUP3 SHL SWAP1 POP SWAP3 SWAP2 POP POP JUMP JUMPDEST PUSH0 PUSH2 0x3D35 DUP3 PUSH2 0x328B JUMP JUMPDEST DUP3 PUSH2 0x3D3F DUP5 PUSH2 0x3CD1 JUMP JUMPDEST SWAP1 POP PUSH2 0x3D4A DUP2 PUSH2 0x3D0B JUMP JUMPDEST SWAP3 POP PUSH1 0x14 DUP3 LT ISZERO PUSH2 0x3D8A JUMPI PUSH2 0x3D85 PUSH32 0xFFFFFFFFFFFFFFFFFFFFFFFFFFFFFFFFFFFFFFFF000000000000000000000000 DUP4 PUSH1 0x14 SUB PUSH1 0x8 MUL PUSH2 0x3D1F JUMP JUMPDEST DUP4 AND SWAP3 POP JUMPDEST POP POP SWAP2 SWAP1 POP JUMP JUMPDEST PUSH0 PUSH1 0x80 DUP3 ADD SWAP1 POP PUSH2 0x3DA4 PUSH0 DUP4 ADD DUP8 PUSH2 0x3718 JUMP JUMPDEST PUSH2 0x3DB1 PUSH1 0x20 DUP4 ADD DUP7 PUSH2 0x2AF4 JUMP JUMPDEST PUSH2 0x3DBE PUSH1 0x40 DUP4 ADD DUP6 PUSH2 0x3718 JUMP JUMPDEST PUSH2 0x3DCB PUSH1 0x60 DUP4 ADD DUP5 PUSH2 0x2AF4 JUMP JUMPDEST SWAP6 SWAP5 POP POP POP POP POP JUMP JUMPDEST PUSH0 PUSH2 0x3DDE DUP3 PUSH2 0x2AEB JUMP JUMPDEST SWAP2 POP PUSH2 0x3DE9 DUP4 PUSH2 0x2AEB JUMP JUMPDEST SWAP3 POP DUP3 DUP3 SUB SWAP1 POP DUP2 DUP2 GT ISZERO PUSH2 0x3E01 JUMPI PUSH2 0x3E00 PUSH2 0x3ACF JUMP JUMPDEST JUMPDEST SWAP3 SWAP2 POP POP JUMP JUMPDEST PUSH0 PUSH1 0x60 DUP3 ADD SWAP1 POP PUSH2 0x3E1A PUSH0 DUP4 ADD DUP7 PUSH2 0x2AF4 JUMP JUMPDEST PUSH2 0x3E27 PUSH1 0x20 DUP4 ADD DUP6 PUSH2 0x3718 JUMP JUMPDEST PUSH2 0x3E34 PUSH1 0x40 DUP4 ADD DUP5 PUSH2 0x2AF4 JUMP JUMPDEST SWAP5 SWAP4 POP POP POP POP JUMP JUMPDEST PUSH0 PUSH1 0x60 DUP3 ADD SWAP1 POP PUSH2 0x3E4F PUSH0 DUP4 ADD DUP7 PUSH2 0x2AF4 JUMP JUMPDEST PUSH2 0x3E5C PUSH1 0x20 DUP4 ADD DUP6 PUSH2 0x2AC3 JUMP JUMPDEST DUP2 DUP2 SUB PUSH1 0x40 DUP4 ADD MSTORE PUSH2 0x3E6E DUP2 DUP5 PUSH2 0x32A3 JUMP JUMPDEST SWAP1 POP SWAP5 SWAP4 POP POP POP POP JUMP JUMPDEST PUSH0 PUSH1 0xA0 DUP3 ADD SWAP1 POP PUSH2 0x3E8B PUSH0 DUP4 ADD DUP9 PUSH2 0x3718 JUMP JUMPDEST PUSH2 0x3E98 PUSH1 0x20 DUP4 ADD DUP8 PUSH2 0x3718 JUMP JUMPDEST PUSH2 0x3EA5 PUSH1 0x40 DUP4 ADD DUP7 PUSH2 0x3718 JUMP JUMPDEST PUSH2 0x3EB2 PUSH1 0x60 DUP4 ADD DUP6 PUSH2 0x2AF4 JUMP JUMPDEST DUP2 DUP2 SUB PUSH1 0x80 DUP4 ADD MSTORE PUSH2 0x3EC4 DUP2 DUP5 PUSH2 0x32A3 JUMP JUMPDEST SWAP1 POP SWAP7 SWAP6 POP POP POP POP POP POP JUMP JUMPDEST PUSH32 0x4E487B7100000000000000000000000000000000000000000000000000000000 PUSH0 MSTORE PUSH1 0x22 PUSH1 0x4 MSTORE PUSH1 0x24 PUSH0 REVERT JUMPDEST PUSH0 PUSH1 0x2 DUP3 DIV SWAP1 POP PUSH1 0x1 DUP3 AND DUP1 PUSH2 0x3F14 JUMPI PUSH1 0x7F DUP3 AND SWAP2 POP JUMPDEST PUSH1 0x20 DUP3 LT DUP2 SUB PUSH2 0x3F27 JUMPI PUSH2 0x3F26 PUSH2 0x3ED0 JUMP JUMPDEST JUMPDEST POP SWAP2 SWAP1 POP JUMP JUMPDEST PUSH0 PUSH1 0x40 DUP3 ADD SWAP1 POP PUSH2 0x3F40 PUSH0 DUP4 ADD DUP6 PUSH2 0x2AF4 JUMP JUMPDEST PUSH2 0x3F4D PUSH1 0x20 DUP4 ADD DUP5 PUSH2 0x2AF4 JUMP JUMPDEST SWAP4 SWAP3 POP POP POP JUMP JUMPDEST PUSH0 PUSH32 0xFFFFFFFFFFFFFFFFFFFF00000000000000000000000000000000000000000000 DUP3 AND SWAP1 POP SWAP2 SWAP1 POP JUMP JUMPDEST PUSH0 DUP2 SWAP1 POP SWAP2 SWAP1 POP JUMP JUMPDEST PUSH2 0x3F99 PUSH2 0x3F94 DUP3 PUSH2 0x3F54 JUMP JUMPDEST PUSH2 0x3F7F JUMP JUMPDEST DUP3 MSTORE POP POP JUMP JUMPDEST PUSH0 PUSH32 0xFFFF000000000000000000000000000000000000000000000000000000000000 DUP3 AND SWAP1 POP SWAP2 SWAP1 POP JUMP JUMPDEST PUSH0 DUP2 SWAP1 POP SWAP2 SWAP1 POP JUMP JUMPDEST PUSH2 0x3FE4 PUSH2 0x3FDF DUP3 PUSH2 0x3F9F JUMP JUMPDEST PUSH2 0x3FCA JUMP JUMPDEST DUP3 MSTORE POP POP JUMP JUMPDEST PUSH0 DUP2 SWAP1 POP SWAP2 SWAP1 POP JUMP JUMPDEST PUSH2 0x4004 PUSH2 0x3FFF DUP3 PUSH2 0x3CE0 JUMP JUMPDEST PUSH2 0x3FEA JUMP JUMPDEST DUP3 MSTORE POP POP JUMP JUMPDEST PUSH0 PUSH2 0x4015 DUP3 DUP7 PUSH2 0x3F88 JUMP JUMPDEST PUSH1 0xA DUP3 ADD SWAP2 POP PUSH2 0x4025 DUP3 DUP6 PUSH2 0x3FD3 JUMP JUMPDEST PUSH1 0x2 DUP3 ADD SWAP2 POP PUSH2 0x4035 DUP3 DUP5 PUSH2 0x3FF3 JUMP JUMPDEST PUSH1 0x14 DUP3 ADD SWAP2 POP DUP2 SWAP1 POP SWAP5 SWAP4 POP POP POP POP JUMP JUMPDEST PUSH0 PUSH2 0x4051 DUP3 MLOAD PUSH2 0x322D JUMP JUMPDEST DUP1 SWAP2 POP POP SWAP2 SWAP1 POP JUMP JUMPDEST PUSH0 PUSH2 0x4064 DUP3 PUSH2 0x328B JUMP JUMPDEST DUP3 PUSH2 0x406E DUP5 PUSH2 0x3CD1 JUMP JUMPDEST SWAP1 POP PUSH2 0x4079 DUP2 PUSH2 0x4046 JUMP JUMPDEST SWAP3 POP PUSH1 0x20 DUP3 LT ISZERO PUSH2 0x40B9 JUMPI PUSH2 0x40B4 PUSH32 0xFFFFFFFFFFFFFFFFFFFFFFFFFFFFFFFFFFFFFFFFFFFFFFFFFFFFFFFFFFFFFFFF DUP4 PUSH1 0x20 SUB PUSH1 0x8 MUL PUSH2 0x3D1F JUMP JUMPDEST DUP4 AND SWAP3 POP JUMPDEST POP POP SWAP2 SWAP1 POP JUMP JUMPDEST PUSH2 0x40C9 DUP2 PUSH2 0x322D JUMP JUMPDEST DUP3 MSTORE POP POP JUMP JUMPDEST PUSH0 PUSH1 0x40 DUP3 ADD SWAP1 POP PUSH2 0x40E2 PUSH0 DUP4 ADD DUP6 PUSH2 0x40C0 JUMP JUMPDEST DUP2 DUP2 SUB PUSH1 0x20 DUP4 ADD MSTORE PUSH2 0x40F4 DUP2 DUP5 PUSH2 0x32A3 JUMP JUMPDEST SWAP1 POP SWAP4 SWAP3 POP POP POP JUMP JUMPDEST PUSH0 PUSH2 0x410F PUSH2 0x410A DUP5 PUSH2 0x2C20 JUMP JUMPDEST PUSH2 0x2C06 JUMP JUMPDEST SWAP1 POP DUP3 DUP2 MSTORE PUSH1 0x20 DUP2 ADD DUP5 DUP5 DUP5 ADD GT ISZERO PUSH2 0x412B JUMPI PUSH2 0x412A PUSH2 0x2BA4 JUMP JUMPDEST JUMPDEST PUSH2 0x4136 DUP5 DUP3 DUP6 PUSH2 0x3295 JUMP JUMPDEST POP SWAP4 SWAP3 POP POP POP JUMP JUMPDEST PUSH0 DUP3 PUSH1 0x1F DUP4 ADD SLT PUSH2 0x4152 JUMPI PUSH2 0x4151 PUSH2 0x2BA0 JUMP JUMPDEST JUMPDEST DUP2 MLOAD PUSH2 0x4162 DUP5 DUP3 PUSH1 0x20 DUP7 ADD PUSH2 0x40FD JUMP JUMPDEST SWAP2 POP POP SWAP3 SWAP2 POP POP JUMP JUMPDEST PUSH0 PUSH1 0x20 DUP3 DUP5 SUB SLT ISZERO PUSH2 0x4180 JUMPI PUSH2 0x417F PUSH2 0x2A30 JUMP JUMPDEST JUMPDEST PUSH0 DUP3 ADD MLOAD PUSH8 0xFFFFFFFFFFFFFFFF DUP2 GT ISZERO PUSH2 0x419D JUMPI PUSH2 0x419C PUSH2 0x2A34 JUMP JUMPDEST JUMPDEST PUSH2 0x41A9 DUP5 DUP3 DUP6 ADD PUSH2 0x413E JUMP JUMPDEST SWAP2 POP POP SWAP3 SWAP2 POP POP JUMP JUMPDEST PUSH0 DUP2 SWAP1 POP DUP2 PUSH0 MSTORE PUSH1 0x20 PUSH0 KECCAK256 SWAP1 POP SWAP2 SWAP1 POP JUMP JUMPDEST PUSH0 PUSH1 0x20 PUSH1 0x1F DUP4 ADD DIV SWAP1 POP SWAP2 SWAP1 POP JUMP JUMPDEST PUSH0 PUSH1 0x8 DUP4 MUL PUSH2 0x4202 PUSH32 0xFFFFFFFFFFFFFFFFFFFFFFFFFFFFFFFFFFFFFFFFFFFFFFFFFFFFFFFFFFFFFFFF DUP3 PUSH2 0x3D1F JUMP JUMPDEST PUSH2 0x420C DUP7 DUP4 PUSH2 0x3D1F JUMP JUMPDEST SWAP6 POP DUP1 NOT DUP5 AND SWAP4 POP DUP1 DUP7 AND DUP5 OR SWAP3 POP POP POP SWAP4 SWAP3 POP POP POP JUMP JUMPDEST PUSH0 PUSH2 0x423E PUSH2 0x4239 PUSH2 0x4234 DUP5 PUSH2 0x2AEB JUMP JUMPDEST PUSH2 0x3BD6 JUMP JUMPDEST PUSH2 0x2AEB JUMP JUMPDEST SWAP1 POP SWAP2 SWAP1 POP JUMP JUMPDEST PUSH0 DUP2 SWAP1 POP SWAP2 SWAP1 POP JUMP JUMPDEST PUSH2 0x4257 DUP4 PUSH2 0x4224 JUMP JUMPDEST PUSH2 0x426B PUSH2 0x4263 DUP3 PUSH2 0x4245 JUMP JUMPDEST DUP5 DUP5 SLOAD PUSH2 0x41D3 JUMP JUMPDEST DUP3 SSTORE POP POP POP POP JUMP JUMPDEST PUSH0 PUSH0 SWAP1 POP SWAP1 JUMP JUMPDEST PUSH2 0x4282 PUSH2 0x4273 JUMP JUMPDEST PUSH2 0x428D DUP2 DUP5 DUP5 PUSH2 0x424E JUMP JUMPDEST POP POP POP JUMP JUMPDEST JUMPDEST DUP2 DUP2 LT ISZERO PUSH2 0x42B0 JUMPI PUSH2 0x42A5 PUSH0 DUP3 PUSH2 0x427A JUMP JUMPDEST PUSH1 0x1 DUP2 ADD SWAP1 POP PUSH2 0x4293 JUMP JUMPDEST POP POP JUMP JUMPDEST PUSH1 0x1F DUP3 GT ISZERO PUSH2 0x42F5 JUMPI PUSH2 0x42C6 DUP2 PUSH2 0x41B2 JUMP JUMPDEST PUSH2 0x42CF DUP5 PUSH2 0x41C4 JUMP JUMPDEST DUP2 ADD PUSH1 0x20 DUP6 LT ISZERO PUSH2 0x42DE JUMPI DUP2 SWAP1 POP JUMPDEST PUSH2 0x42F2 PUSH2 0x42EA DUP6 PUSH2 0x41C4 JUMP JUMPDEST DUP4 ADD DUP3 PUSH2 0x4292 JUMP JUMPDEST POP POP JUMPDEST POP POP POP JUMP JUMPDEST PUSH0 DUP3 DUP3 SHR SWAP1 POP SWAP3 SWAP2 POP POP JUMP JUMPDEST PUSH0 PUSH2 0x4315 PUSH0 NOT DUP5 PUSH1 0x8 MUL PUSH2 0x42FA JUMP JUMPDEST NOT DUP1 DUP4 AND SWAP2 POP POP SWAP3 SWAP2 POP POP JUMP JUMPDEST PUSH0 PUSH2 0x432D DUP4 DUP4 PUSH2 0x4306 JUMP JUMPDEST SWAP2 POP DUP3 PUSH1 0x2 MUL DUP3 OR SWAP1 POP SWAP3 SWAP2 POP POP JUMP JUMPDEST PUSH2 0x4346 DUP3 PUSH2 0x328B JUMP JUMPDEST PUSH8 0xFFFFFFFFFFFFFFFF DUP2 GT ISZERO PUSH2 0x435F JUMPI PUSH2 0x435E PUSH2 0x2BA8 JUMP JUMPDEST JUMPDEST PUSH2 0x4369 DUP3 SLOAD PUSH2 0x3EFD JUMP JUMPDEST PUSH2 0x4374 DUP3 DUP3 DUP6 PUSH2 0x42B4 JUMP JUMPDEST PUSH0 PUSH1 0x20 SWAP1 POP PUSH1 0x1F DUP4 GT PUSH1 0x1 DUP2 EQ PUSH2 0x43A5 JUMPI PUSH0 DUP5 ISZERO PUSH2 0x4393 JUMPI DUP3 DUP8 ADD MLOAD SWAP1 POP JUMPDEST PUSH2 0x439D DUP6 DUP3 PUSH2 0x4322 JUMP JUMPDEST DUP7 SSTORE POP PUSH2 0x4404 JUMP JUMPDEST PUSH1 0x1F NOT DUP5 AND PUSH2 0x43B3 DUP7 PUSH2 0x41B2 JUMP JUMPDEST PUSH0 JUMPDEST DUP3 DUP2 LT ISZERO PUSH2 0x43DA JUMPI DUP5 DUP10 ADD MLOAD DUP3 SSTORE PUSH1 0x1 DUP3 ADD SWAP2 POP PUSH1 0x20 DUP6 ADD SWAP5 POP PUSH1 0x20 DUP2 ADD SWAP1 POP PUSH2 0x43B5 JUMP JUMPDEST DUP7 DUP4 LT ISZERO PUSH2 0x43F7 JUMPI DUP5 DUP10 ADD MLOAD PUSH2 0x43F3 PUSH1 0x1F DUP10 AND DUP3 PUSH2 0x4306 JUMP JUMPDEST DUP4 SSTORE POP JUMPDEST PUSH1 0x1 PUSH1 0x2 DUP9 MUL ADD DUP9 SSTORE POP POP POP JUMPDEST POP POP POP POP POP POP JUMP JUMPDEST PUSH32 0x4E487B7100000000000000000000000000000000000000000000000000000000 PUSH0 MSTORE PUSH1 0x31 PUSH1 0x4 MSTORE PUSH1 0x24 PUSH0 REVERT INVALID LOG2 PUSH5 0x6970667358 0x22 SLT KECCAK256 0x23 0xD4 DUP15 CALLCODE PUSH24 0xA74B198489622462D56842ECF82848FC88C1FB4D02E04C2E 0x28 0x29 0x21 PUSH5 0x736F6C6343 STOP ADDMOD SAR STOP CALLER "
		},
		"gasEstimates": {
			"creation": {
				"codeDepositCost": "3503800",
				"executionCost": "infinite",
				"totalCost": "infinite"
			},
			"external": {
				"": "infinite",
				"authorizeOperator(address,uint256,bytes)": "infinite",
				"authorizedAmountFor(address,address)": "infinite",
				"balanceOf(address)": "2852",
				"batchCalls(bytes[])": "infinite",
				"burn(address,uint256,bytes)": "infinite",
				"decimals()": "2524",
				"decreaseAllowance(address,address,uint256,bytes)": "infinite",
				"getData(bytes32)": "infinite",
				"getDataBatch(bytes32[])": "infinite",
				"getOperatorsOf(address)": "infinite",
				"increaseAllowance(address,uint256,bytes)": "infinite",
				"mint(address,uint256,bool,bytes)": "infinite",
				"owner()": "2536",
				"renounceOwnership()": "infinite",
				"revokeOperator(address,address,bool,bytes)": "infinite",
				"setData(bytes32,bytes)": "infinite",
				"setDataBatch(bytes32[],bytes[])": "infinite",
				"supportsInterface(bytes4)": "infinite",
				"tokenSupplyCap()": "2492",
				"totalSupply()": "2478",
				"transfer(address,address,uint256,bool,bytes)": "infinite",
				"transferBatch(address[],address[],uint256[],bool[],bytes[])": "infinite",
				"transferOwnership(address)": "infinite"
			},
			"internal": {
				"_mint(address,uint256,bool,bytes memory)": "infinite"
			}
		},
		"methodIdentifiers": {
			"authorizeOperator(address,uint256,bytes)": "b49506fd",
			"authorizedAmountFor(address,address)": "65aeaa95",
			"balanceOf(address)": "70a08231",
			"batchCalls(bytes[])": "6963d438",
			"burn(address,uint256,bytes)": "44d17187",
			"decimals()": "313ce567",
			"decreaseAllowance(address,address,uint256,bytes)": "78381670",
			"getData(bytes32)": "54f6127f",
			"getDataBatch(bytes32[])": "dedff9c6",
			"getOperatorsOf(address)": "d72fc29a",
			"increaseAllowance(address,uint256,bytes)": "2bc1da82",
			"mint(address,uint256,bool,bytes)": "7580d920",
			"owner()": "8da5cb5b",
			"renounceOwnership()": "715018a6",
			"revokeOperator(address,address,bool,bytes)": "30d0dc37",
			"setData(bytes32,bytes)": "7f23690c",
			"setDataBatch(bytes32[],bytes[])": "97902421",
			"supportsInterface(bytes4)": "01ffc9a7",
			"tokenSupplyCap()": "52058d8a",
			"totalSupply()": "18160ddd",
			"transfer(address,address,uint256,bool,bytes)": "760d9bba",
			"transferBatch(address[],address[],uint256[],bool[],bytes[])": "2d7667c9",
			"transferOwnership(address)": "f2fde38b"
		}
	},
	"abi": [
		{
			"inputs": [
				{
					"internalType": "string",
					"name": "_name",
					"type": "string"
				},
				{
					"internalType": "string",
					"name": "_symbol",
					"type": "string"
				},
				{
					"internalType": "uint256",
					"name": "_tokenSupplyCap",
					"type": "uint256"
				}
			],
			"stateMutability": "nonpayable",
			"type": "constructor"
		},
		{
			"inputs": [],
			"name": "ERC725Y_DataKeysValuesEmptyArray",
			"type": "error"
		},
		{
			"inputs": [],
			"name": "ERC725Y_DataKeysValuesLengthMismatch",
			"type": "error"
		},
		{
			"inputs": [],
			"name": "ERC725Y_MsgValueDisallowed",
			"type": "error"
		},
		{
			"inputs": [
				{
					"internalType": "bytes",
					"name": "storedData",
					"type": "bytes"
				}
			],
			"name": "InvalidExtensionAddress",
			"type": "error"
		},
		{
			"inputs": [
				{
					"internalType": "bytes",
					"name": "data",
					"type": "bytes"
				}
			],
			"name": "InvalidFunctionSelector",
			"type": "error"
		},
		{
			"inputs": [],
			"name": "LSP4TokenNameNotEditable",
			"type": "error"
		},
		{
			"inputs": [],
			"name": "LSP4TokenSymbolNotEditable",
			"type": "error"
		},
		{
			"inputs": [],
			"name": "LSP4TokenTypeNotEditable",
			"type": "error"
		},
		{
			"inputs": [
				{
					"internalType": "address",
					"name": "tokenOwner",
					"type": "address"
				},
				{
					"internalType": "uint256",
					"name": "authorizedAmount",
					"type": "uint256"
				},
				{
					"internalType": "address",
					"name": "operator",
					"type": "address"
				},
				{
					"internalType": "uint256",
					"name": "amount",
					"type": "uint256"
				}
			],
			"name": "LSP7AmountExceedsAuthorizedAmount",
			"type": "error"
		},
		{
			"inputs": [
				{
					"internalType": "uint256",
					"name": "balance",
					"type": "uint256"
				},
				{
					"internalType": "address",
					"name": "tokenOwner",
					"type": "address"
				},
				{
					"internalType": "uint256",
					"name": "amount",
					"type": "uint256"
				}
			],
			"name": "LSP7AmountExceedsBalance",
			"type": "error"
		},
		{
			"inputs": [
				{
					"internalType": "uint256",
					"name": "callIndex",
					"type": "uint256"
				}
			],
			"name": "LSP7BatchCallFailed",
			"type": "error"
		},
		{
			"inputs": [],
			"name": "LSP7CannotSendWithAddressZero",
			"type": "error"
		},
		{
			"inputs": [],
			"name": "LSP7CannotUseAddressZeroAsOperator",
			"type": "error"
		},
		{
			"inputs": [
				{
					"internalType": "address",
					"name": "caller",
					"type": "address"
				},
				{
					"internalType": "address",
					"name": "tokenOwner",
					"type": "address"
				},
				{
					"internalType": "address",
					"name": "operator",
					"type": "address"
				}
			],
			"name": "LSP7DecreaseAllowanceNotAuthorized",
			"type": "error"
		},
		{
			"inputs": [],
			"name": "LSP7DecreasedAllowanceBelowZero",
			"type": "error"
		},
		{
			"inputs": [],
			"name": "LSP7InvalidTransferBatch",
			"type": "error"
		},
		{
			"inputs": [
				{
					"internalType": "address",
					"name": "tokenReceiver",
					"type": "address"
				}
			],
			"name": "LSP7NotifyTokenReceiverContractMissingLSP1Interface",
			"type": "error"
		},
		{
			"inputs": [
				{
					"internalType": "address",
					"name": "tokenReceiver",
					"type": "address"
				}
			],
			"name": "LSP7NotifyTokenReceiverIsEOA",
			"type": "error"
		},
		{
			"inputs": [
				{
					"internalType": "address",
					"name": "caller",
					"type": "address"
				},
				{
					"internalType": "address",
					"name": "tokenOwner",
					"type": "address"
				},
				{
					"internalType": "address",
					"name": "operator",
					"type": "address"
				}
			],
			"name": "LSP7RevokeOperatorNotAuthorized",
			"type": "error"
		},
		{
			"inputs": [],
			"name": "LSP7TokenContractCannotHoldValue",
			"type": "error"
		},
		{
			"inputs": [],
			"name": "LSP7TokenOwnerCannotBeOperator",
			"type": "error"
		},
		{
			"inputs": [
				{
					"internalType": "bytes4",
					"name": "functionSelector",
					"type": "bytes4"
				}
			],
			"name": "NoExtensionFoundForFunctionSelector",
			"type": "error"
		},
		{
			"inputs": [
				{
					"internalType": "address",
					"name": "operator",
					"type": "address"
				}
			],
			"name": "OperatorAllowanceCannotBeIncreasedFromZero",
			"type": "error"
		},
		{
			"inputs": [
				{
					"internalType": "address",
					"name": "callerAddress",
					"type": "address"
				}
			],
			"name": "OwnableCallerNotTheOwner",
			"type": "error"
		},
		{
			"inputs": [],
			"name": "OwnableCannotSetZeroAddressAsOwner",
			"type": "error"
		},
		{
			"inputs": [
				{
					"internalType": "uint256",
					"name": "totalSupply",
					"type": "uint256"
				},
				{
					"internalType": "uint256",
					"name": "tokenSupplyCap",
					"type": "uint256"
				}
			],
			"name": "SupplyLimitExceeded",
			"type": "error"
		},
		{
			"anonymous": false,
			"inputs": [
				{
					"indexed": true,
					"internalType": "bytes32",
					"name": "dataKey",
					"type": "bytes32"
				},
				{
					"indexed": false,
					"internalType": "bytes",
					"name": "dataValue",
					"type": "bytes"
				}
			],
			"name": "DataChanged",
			"type": "event"
		},
		{
			"anonymous": false,
			"inputs": [
				{
					"indexed": true,
					"internalType": "address",
					"name": "operator",
					"type": "address"
				},
				{
					"indexed": true,
					"internalType": "address",
					"name": "tokenOwner",
					"type": "address"
				},
				{
					"indexed": true,
					"internalType": "uint256",
					"name": "amount",
					"type": "uint256"
				},
				{
					"indexed": false,
					"internalType": "bytes",
					"name": "operatorNotificationData",
					"type": "bytes"
				}
			],
			"name": "OperatorAuthorizationChanged",
			"type": "event"
		},
		{
			"anonymous": false,
			"inputs": [
				{
					"indexed": true,
					"internalType": "address",
					"name": "operator",
					"type": "address"
				},
				{
					"indexed": true,
					"internalType": "address",
					"name": "tokenOwner",
					"type": "address"
				},
				{
					"indexed": true,
					"internalType": "bool",
					"name": "notified",
					"type": "bool"
				},
				{
					"indexed": false,
					"internalType": "bytes",
					"name": "operatorNotificationData",
					"type": "bytes"
				}
			],
			"name": "OperatorRevoked",
			"type": "event"
		},
		{
			"anonymous": false,
			"inputs": [
				{
					"indexed": true,
					"internalType": "address",
					"name": "previousOwner",
					"type": "address"
				},
				{
					"indexed": true,
					"internalType": "address",
					"name": "newOwner",
					"type": "address"
				}
			],
			"name": "OwnershipTransferred",
			"type": "event"
		},
		{
			"anonymous": false,
			"inputs": [
				{
					"indexed": true,
					"internalType": "address",
					"name": "operator",
					"type": "address"
				},
				{
					"indexed": true,
					"internalType": "address",
					"name": "from",
					"type": "address"
				},
				{
					"indexed": true,
					"internalType": "address",
					"name": "to",
					"type": "address"
				},
				{
					"indexed": false,
					"internalType": "uint256",
					"name": "amount",
					"type": "uint256"
				},
				{
					"indexed": false,
					"internalType": "bool",
					"name": "force",
					"type": "bool"
				},
				{
					"indexed": false,
					"internalType": "bytes",
					"name": "data",
					"type": "bytes"
				}
			],
			"name": "Transfer",
			"type": "event"
		},
		{
			"stateMutability": "payable",
			"type": "fallback"
		},
		{
			"inputs": [
				{
					"internalType": "address",
					"name": "operator",
					"type": "address"
				},
				{
					"internalType": "uint256",
					"name": "amount",
					"type": "uint256"
				},
				{
					"internalType": "bytes",
					"name": "operatorNotificationData",
					"type": "bytes"
				}
			],
			"name": "authorizeOperator",
			"outputs": [],
			"stateMutability": "nonpayable",
			"type": "function"
		},
		{
			"inputs": [
				{
					"internalType": "address",
					"name": "operator",
					"type": "address"
				},
				{
					"internalType": "address",
					"name": "tokenOwner",
					"type": "address"
				}
			],
			"name": "authorizedAmountFor",
			"outputs": [
				{
					"internalType": "uint256",
					"name": "",
					"type": "uint256"
				}
			],
			"stateMutability": "view",
			"type": "function"
		},
		{
			"inputs": [
				{
					"internalType": "address",
					"name": "tokenOwner",
					"type": "address"
				}
			],
			"name": "balanceOf",
			"outputs": [
				{
					"internalType": "uint256",
					"name": "",
					"type": "uint256"
				}
			],
			"stateMutability": "view",
			"type": "function"
		},
		{
			"inputs": [
				{
					"internalType": "bytes[]",
					"name": "data",
					"type": "bytes[]"
				}
			],
			"name": "batchCalls",
			"outputs": [
				{
					"internalType": "bytes[]",
					"name": "results",
					"type": "bytes[]"
				}
			],
			"stateMutability": "nonpayable",
			"type": "function"
		},
		{
			"inputs": [
				{
					"internalType": "address",
					"name": "from",
					"type": "address"
				},
				{
					"internalType": "uint256",
					"name": "amount",
					"type": "uint256"
				},
				{
					"internalType": "bytes",
					"name": "data",
					"type": "bytes"
				}
			],
			"name": "burn",
			"outputs": [],
			"stateMutability": "nonpayable",
			"type": "function"
		},
		{
			"inputs": [],
			"name": "decimals",
			"outputs": [
				{
					"internalType": "uint8",
					"name": "",
					"type": "uint8"
				}
			],
			"stateMutability": "view",
			"type": "function"
		},
		{
			"inputs": [
				{
					"internalType": "address",
					"name": "operator",
					"type": "address"
				},
				{
					"internalType": "address",
					"name": "tokenOwner",
					"type": "address"
				},
				{
					"internalType": "uint256",
					"name": "subtractedAmount",
					"type": "uint256"
				},
				{
					"internalType": "bytes",
					"name": "operatorNotificationData",
					"type": "bytes"
				}
			],
			"name": "decreaseAllowance",
			"outputs": [],
			"stateMutability": "nonpayable",
			"type": "function"
		},
		{
			"inputs": [
				{
					"internalType": "bytes32",
					"name": "dataKey",
					"type": "bytes32"
				}
			],
			"name": "getData",
			"outputs": [
				{
					"internalType": "bytes",
					"name": "dataValue",
					"type": "bytes"
				}
			],
			"stateMutability": "view",
			"type": "function"
		},
		{
			"inputs": [
				{
					"internalType": "bytes32[]",
					"name": "dataKeys",
					"type": "bytes32[]"
				}
			],
			"name": "getDataBatch",
			"outputs": [
				{
					"internalType": "bytes[]",
					"name": "dataValues",
					"type": "bytes[]"
				}
			],
			"stateMutability": "view",
			"type": "function"
		},
		{
			"inputs": [
				{
					"internalType": "address",
					"name": "tokenOwner",
					"type": "address"
				}
			],
			"name": "getOperatorsOf",
			"outputs": [
				{
					"internalType": "address[]",
					"name": "",
					"type": "address[]"
				}
			],
			"stateMutability": "view",
			"type": "function"
		},
		{
			"inputs": [
				{
					"internalType": "address",
					"name": "operator",
					"type": "address"
				},
				{
					"internalType": "uint256",
					"name": "addedAmount",
					"type": "uint256"
				},
				{
					"internalType": "bytes",
					"name": "operatorNotificationData",
					"type": "bytes"
				}
			],
			"name": "increaseAllowance",
			"outputs": [],
			"stateMutability": "nonpayable",
			"type": "function"
		},
		{
			"inputs": [
				{
					"internalType": "address",
					"name": "to",
					"type": "address"
				},
				{
					"internalType": "uint256",
					"name": "amount",
					"type": "uint256"
				},
				{
					"internalType": "bool",
					"name": "force",
					"type": "bool"
				},
				{
					"internalType": "bytes",
					"name": "data",
					"type": "bytes"
				}
			],
			"name": "mint",
			"outputs": [],
			"stateMutability": "nonpayable",
			"type": "function"
		},
		{
			"inputs": [],
			"name": "owner",
			"outputs": [
				{
					"internalType": "address",
					"name": "",
					"type": "address"
				}
			],
			"stateMutability": "view",
			"type": "function"
		},
		{
			"inputs": [],
			"name": "renounceOwnership",
			"outputs": [],
			"stateMutability": "nonpayable",
			"type": "function"
		},
		{
			"inputs": [
				{
					"internalType": "address",
					"name": "operator",
					"type": "address"
				},
				{
					"internalType": "address",
					"name": "tokenOwner",
					"type": "address"
				},
				{
					"internalType": "bool",
					"name": "notify",
					"type": "bool"
				},
				{
					"internalType": "bytes",
					"name": "operatorNotificationData",
					"type": "bytes"
				}
			],
			"name": "revokeOperator",
			"outputs": [],
			"stateMutability": "nonpayable",
			"type": "function"
		},
		{
			"inputs": [
				{
					"internalType": "bytes32",
					"name": "dataKey",
					"type": "bytes32"
				},
				{
					"internalType": "bytes",
					"name": "dataValue",
					"type": "bytes"
				}
			],
			"name": "setData",
			"outputs": [],
			"stateMutability": "payable",
			"type": "function"
		},
		{
			"inputs": [
				{
					"internalType": "bytes32[]",
					"name": "dataKeys",
					"type": "bytes32[]"
				},
				{
					"internalType": "bytes[]",
					"name": "dataValues",
					"type": "bytes[]"
				}
			],
			"name": "setDataBatch",
			"outputs": [],
			"stateMutability": "payable",
			"type": "function"
		},
		{
			"inputs": [
				{
					"internalType": "bytes4",
					"name": "interfaceId",
					"type": "bytes4"
				}
			],
			"name": "supportsInterface",
			"outputs": [
				{
					"internalType": "bool",
					"name": "",
					"type": "bool"
				}
			],
			"stateMutability": "view",
			"type": "function"
		},
		{
			"inputs": [],
			"name": "tokenSupplyCap",
			"outputs": [
				{
					"internalType": "uint256",
					"name": "",
					"type": "uint256"
				}
			],
			"stateMutability": "view",
			"type": "function"
		},
		{
			"inputs": [],
			"name": "totalSupply",
			"outputs": [
				{
					"internalType": "uint256",
					"name": "",
					"type": "uint256"
				}
			],
			"stateMutability": "view",
			"type": "function"
		},
		{
			"inputs": [
				{
					"internalType": "address",
					"name": "from",
					"type": "address"
				},
				{
					"internalType": "address",
					"name": "to",
					"type": "address"
				},
				{
					"internalType": "uint256",
					"name": "amount",
					"type": "uint256"
				},
				{
					"internalType": "bool",
					"name": "force",
					"type": "bool"
				},
				{
					"internalType": "bytes",
					"name": "data",
					"type": "bytes"
				}
			],
			"name": "transfer",
			"outputs": [],
			"stateMutability": "nonpayable",
			"type": "function"
		},
		{
			"inputs": [
				{
					"internalType": "address[]",
					"name": "from",
					"type": "address[]"
				},
				{
					"internalType": "address[]",
					"name": "to",
					"type": "address[]"
				},
				{
					"internalType": "uint256[]",
					"name": "amount",
					"type": "uint256[]"
				},
				{
					"internalType": "bool[]",
					"name": "force",
					"type": "bool[]"
				},
				{
					"internalType": "bytes[]",
					"name": "data",
					"type": "bytes[]"
				}
			],
			"name": "transferBatch",
			"outputs": [],
			"stateMutability": "nonpayable",
			"type": "function"
		},
		{
			"inputs": [
				{
					"internalType": "address",
					"name": "newOwner",
					"type": "address"
				}
			],
			"name": "transferOwnership",
			"outputs": [],
			"stateMutability": "nonpayable",
			"type": "function"
		},
		{
			"stateMutability": "payable",
			"type": "receive"
		}
	]
}