{
	"followingSystem.sol": {
		"LSP7": {
			"abi": [
				{
					"inputs": [
						{
							"internalType": "address",
							"name": "addr",
							"type": "address"
						}
					],
					"name": "LSP26AlreadyFollowing",
					"type": "error"
				},
				{
					"inputs": [],
					"name": "LSP26CannotSelfFollow",
					"type": "error"
				},
				{
					"inputs": [
						{
							"internalType": "address",
							"name": "addr",
							"type": "address"
						}
					],
					"name": "LSP26NotFollowing",
					"type": "error"
				},
				{
					"anonymous": false,
					"inputs": [
						{
							"indexed": false,
							"internalType": "address",
							"name": "follower",
							"type": "address"
						},
						{
							"indexed": false,
							"internalType": "address",
							"name": "addr",
							"type": "address"
						}
					],
					"name": "Follow",
					"type": "event"
				},
				{
					"anonymous": false,
					"inputs": [
						{
							"indexed": false,
							"internalType": "address",
							"name": "unfollower",
							"type": "address"
						},
						{
							"indexed": false,
							"internalType": "address",
							"name": "addr",
							"type": "address"
						}
					],
					"name": "Unfollow",
					"type": "event"
				},
				{
					"inputs": [
						{
							"internalType": "address",
							"name": "addr",
							"type": "address"
						}
					],
					"name": "follow",
					"outputs": [],
					"stateMutability": "nonpayable",
					"type": "function"
				},
				{
					"inputs": [
						{
							"internalType": "address[]",
							"name": "addresses",
							"type": "address[]"
						}
					],
					"name": "followBatch",
					"outputs": [],
					"stateMutability": "nonpayable",
					"type": "function"
				},
				{
					"inputs": [
						{
							"internalType": "address",
							"name": "addr",
							"type": "address"
						}
					],
					"name": "followerCount",
					"outputs": [
						{
							"internalType": "uint256",
							"name": "",
							"type": "uint256"
						}
					],
					"stateMutability": "view",
					"type": "function"
				},
				{
					"inputs": [
						{
							"internalType": "address",
							"name": "addr",
							"type": "address"
						}
					],
					"name": "followingCount",
					"outputs": [
						{
							"internalType": "uint256",
							"name": "",
							"type": "uint256"
						}
					],
					"stateMutability": "view",
					"type": "function"
				},
				{
					"inputs": [
						{
							"internalType": "address",
							"name": "addr",
							"type": "address"
						},
						{
							"internalType": "uint256",
							"name": "startIndex",
							"type": "uint256"
						},
						{
							"internalType": "uint256",
							"name": "endIndex",
							"type": "uint256"
						}
					],
					"name": "getFollowersByIndex",
					"outputs": [
						{
							"internalType": "address[]",
							"name": "",
							"type": "address[]"
						}
					],
					"stateMutability": "view",
					"type": "function"
				},
				{
					"inputs": [
						{
							"internalType": "address",
							"name": "addr",
							"type": "address"
						},
						{
							"internalType": "uint256",
							"name": "startIndex",
							"type": "uint256"
						},
						{
							"internalType": "uint256",
							"name": "endIndex",
							"type": "uint256"
						}
					],
					"name": "getFollowsByIndex",
					"outputs": [
						{
							"internalType": "address[]",
							"name": "",
							"type": "address[]"
						}
					],
					"stateMutability": "view",
					"type": "function"
				},
				{
					"inputs": [
						{
							"internalType": "address",
							"name": "follower",
							"type": "address"
						},
						{
							"internalType": "address",
							"name": "addr",
							"type": "address"
						}
					],
					"name": "isFollowing",
					"outputs": [
						{
							"internalType": "bool",
							"name": "",
							"type": "bool"
						}
					],
					"stateMutability": "view",
					"type": "function"
				},
				{
					"inputs": [
						{
							"internalType": "address",
							"name": "addr",
							"type": "address"
						}
					],
					"name": "unfollow",
					"outputs": [],
					"stateMutability": "nonpayable",
					"type": "function"
				},
				{
					"inputs": [
						{
							"internalType": "address[]",
							"name": "addresses",
							"type": "address[]"
						}
					],
					"name": "unfollowBatch",
					"outputs": [],
					"stateMutability": "nonpayable",
					"type": "function"
				}
			],
			"devdoc": {
				"author": "Aratta Labs(PumpRoom)",
				"custom:emoji": "🤖",
				"custom:security-contact": "atenyun@gmail.com",
				"details": "You will find the deployed contract addresses on the repo",
				"events": {
					"Follow(address,address)": {
						"params": {
							"addr": "The address that is followed by `follower`",
							"follower": "The address that follows `addr`"
						}
					},
					"Unfollow(address,address)": {
						"params": {
							"addr": "The address that is unfollowed by `follower`",
							"unfollower": "The address that unfollows `addr`"
						}
					}
				},
				"kind": "dev",
				"methods": {
					"follow(address)": {
						"params": {
							"addr": "The address to start following."
						}
					},
					"followBatch(address[])": {
						"params": {
							"addresses": "The list of addresses to follow."
						}
					},
					"followerCount(address)": {
						"params": {
							"addr": "The address whose followers count is requested."
						},
						"returns": {
							"_0": "The number of followers of `addr`."
						}
					},
					"followingCount(address)": {
						"params": {
							"addr": "The address of the follower whose following count is requested."
						},
						"returns": {
							"_0": "The number of addresses that `addr` is following."
						}
					},
					"getFollowersByIndex(address,uint256,uint256)": {
						"params": {
							"addr": "The address whose followers are requested.",
							"endIndex": "The end index of the range (exclusive).",
							"startIndex": "The start index of the range (inclusive)."
						},
						"returns": {
							"_0": "An array of addresses that are following an addresses."
						}
					},
					"getFollowsByIndex(address,uint256,uint256)": {
						"params": {
							"addr": "The address whose followed addresses are requested.",
							"endIndex": "The end index of the range (exclusive).",
							"startIndex": "The start index of the range (inclusive)."
						},
						"returns": {
							"_0": "An array of addresses followed by the given address."
						}
					},
					"isFollowing(address,address)": {
						"params": {
							"addr": "The address being followed.",
							"follower": "The address of the follower to check."
						},
						"returns": {
							"_0": "True if `follower` is following `addr`, false otherwise."
						}
					},
					"unfollow(address)": {
						"params": {
							"addr": "The address to stop following."
						}
					},
					"unfollowBatch(address[])": {
						"params": {
							"addresses": "The list of addresses to unfollow."
						}
					}
				},
				"title": "LSP7",
				"version": 1
			},
			"evm": {
				"assembly": "    /* \"followingSystem.sol\":350:393  contract LSP7 is LSP26FollowerSystem {... */\n  mstore(0x40, 0x80)\n  callvalue\n  dup1\n  iszero\n  tag_1\n  jumpi\n  revert(0x00, 0x00)\ntag_1:\n  pop\n  dataSize(sub_0)\n  dup1\n  dataOffset(sub_0)\n  0x00\n  codecopy\n  0x00\n  return\nstop\n\nsub_0: assembly {\n        /* \"followingSystem.sol\":350:393  contract LSP7 is LSP26FollowerSystem {... */\n      mstore(0x40, 0x80)\n      callvalue\n      dup1\n      iszero\n      tag_1\n      jumpi\n      revert(0x00, 0x00)\n    tag_1:\n      pop\n      jumpi(tag_2, lt(calldatasize, 0x04))\n      shr(0xe0, calldataload(0x00))\n      dup1\n      0x64548707\n      gt\n      tag_12\n      jumpi\n      dup1\n      0x64548707\n      eq\n      tag_7\n      jumpi\n      dup1\n      0x8dd1e47e\n      eq\n      tag_8\n      jumpi\n      dup1\n      0x99ec3a42\n      eq\n      tag_9\n      jumpi\n      dup1\n      0xb2a8d069\n      eq\n      tag_10\n      jumpi\n      dup1\n      0xcf8711c8\n      eq\n      tag_11\n      jumpi\n      jump(tag_2)\n    tag_12:\n      dup1\n      0x015a4ead\n      eq\n      tag_3\n      jumpi\n      dup1\n      0x30b3a890\n      eq\n      tag_4\n      jumpi\n      dup1\n      0x4dbf27cc\n      eq\n      tag_5\n      jumpi\n      dup1\n      0x5a39c581\n      eq\n      tag_6\n      jumpi\n    tag_2:\n      revert(0x00, 0x00)\n        /* \"@lukso/lsp26-contracts/contracts/LSP26FollowerSystem.sol\":1453:1524  function unfollow(address addr) public {... */\n    tag_3:\n      tag_13\n      0x04\n      dup1\n      calldatasize\n      sub\n      dup2\n      add\n      swap1\n      tag_14\n      swap2\n      swap1\n      tag_15\n      jump\t// in\n    tag_14:\n      tag_16\n      jump\t// in\n    tag_13:\n      stop\n        /* \"@lukso/lsp26-contracts/contracts/LSP26FollowerSystem.sol\":2011:2129  function followerCount(address addr) public view returns (uint256) {... */\n    tag_4:\n      tag_17\n      0x04\n      dup1\n      calldatasize\n      sub\n      dup2\n      add\n      swap1\n      tag_18\n      swap2\n      swap1\n      tag_15\n      jump\t// in\n    tag_18:\n      tag_19\n      jump\t// in\n    tag_17:\n      mload(0x40)\n      tag_20\n      swap2\n      swap1\n      tag_21\n      jump\t// in\n    tag_20:\n      mload(0x40)\n      dup1\n      swap2\n      sub\n      swap1\n      return\n        /* \"@lukso/lsp26-contracts/contracts/LSP26FollowerSystem.sol\":1113:1180  function follow(address addr) public {... */\n    tag_5:\n      tag_22\n      0x04\n      dup1\n      calldatasize\n      sub\n      dup2\n      add\n      swap1\n      tag_23\n      swap2\n      swap1\n      tag_15\n      jump\t// in\n    tag_23:\n      tag_24\n      jump\t// in\n    tag_22:\n      stop\n        /* \"@lukso/lsp26-contracts/contracts/LSP26FollowerSystem.sol\":2341:2795  function getFollowsByIndex(... */\n    tag_6:\n      tag_25\n      0x04\n      dup1\n      calldatasize\n      sub\n      dup2\n      add\n      swap1\n      tag_26\n      swap2\n      swap1\n      tag_27\n      jump\t// in\n    tag_26:\n      tag_28\n      jump\t// in\n    tag_25:\n      mload(0x40)\n      tag_29\n      swap2\n      swap1\n      tag_30\n      jump\t// in\n    tag_29:\n      mload(0x40)\n      dup1\n      swap2\n      sub\n      swap1\n      return\n        /* \"@lukso/lsp26-contracts/contracts/LSP26FollowerSystem.sol\":2175:2295  function followingCount(address addr) public view returns (uint256) {... */\n    tag_7:\n      tag_31\n      0x04\n      dup1\n      calldatasize\n      sub\n      dup2\n      add\n      swap1\n      tag_32\n      swap2\n      swap1\n      tag_15\n      jump\t// in\n    tag_32:\n      tag_33\n      jump\t// in\n    tag_31:\n      mload(0x40)\n      tag_34\n      swap2\n      swap1\n      tag_21\n      jump\t// in\n    tag_34:\n      mload(0x40)\n      dup1\n      swap2\n      sub\n      swap1\n      return\n        /* \"@lukso/lsp26-contracts/contracts/LSP26FollowerSystem.sol\":1570:1755  function unfollowBatch(address[] memory addresses) public {... */\n    tag_8:\n      tag_35\n      0x04\n      dup1\n      calldatasize\n      sub\n      dup2\n      add\n      swap1\n      tag_36\n      swap2\n      swap1\n      tag_37\n      jump\t// in\n    tag_36:\n      tag_38\n      jump\t// in\n    tag_35:\n      stop\n        /* \"@lukso/lsp26-contracts/contracts/LSP26FollowerSystem.sol\":1801:1965  function isFollowing(... */\n    tag_9:\n      tag_39\n      0x04\n      dup1\n      calldatasize\n      sub\n      dup2\n      add\n      swap1\n      tag_40\n      swap2\n      swap1\n      tag_41\n      jump\t// in\n    tag_40:\n      tag_42\n      jump\t// in\n    tag_39:\n      mload(0x40)\n      tag_43\n      swap2\n      swap1\n      tag_44\n      jump\t// in\n    tag_43:\n      mload(0x40)\n      dup1\n      swap2\n      sub\n      swap1\n      return\n        /* \"@lukso/lsp26-contracts/contracts/LSP26FollowerSystem.sol\":2841:3293  function getFollowersByIndex(... */\n    tag_10:\n      tag_45\n      0x04\n      dup1\n      calldatasize\n      sub\n      dup2\n      add\n      swap1\n      tag_46\n      swap2\n      swap1\n      tag_27\n      jump\t// in\n    tag_46:\n      tag_47\n      jump\t// in\n    tag_45:\n      mload(0x40)\n      tag_48\n      swap2\n      swap1\n      tag_30\n      jump\t// in\n    tag_48:\n      mload(0x40)\n      dup1\n      swap2\n      sub\n      swap1\n      return\n        /* \"@lukso/lsp26-contracts/contracts/LSP26FollowerSystem.sol\":1226:1407  function followBatch(address[] memory addresses) public {... */\n    tag_11:\n      tag_49\n      0x04\n      dup1\n      calldatasize\n      sub\n      dup2\n      add\n      swap1\n      tag_50\n      swap2\n      swap1\n      tag_37\n      jump\t// in\n    tag_50:\n      tag_51\n      jump\t// in\n    tag_49:\n      stop\n        /* \"@lukso/lsp26-contracts/contracts/LSP26FollowerSystem.sol\":1453:1524  function unfollow(address addr) public {... */\n    tag_16:\n        /* \"@lukso/lsp26-contracts/contracts/LSP26FollowerSystem.sol\":1502:1517  _unfollow(addr) */\n      tag_53\n        /* \"@lukso/lsp26-contracts/contracts/LSP26FollowerSystem.sol\":1512:1516  addr */\n      dup2\n        /* \"@lukso/lsp26-contracts/contracts/LSP26FollowerSystem.sol\":1502:1511  _unfollow */\n      tag_54\n        /* \"@lukso/lsp26-contracts/contracts/LSP26FollowerSystem.sol\":1502:1517  _unfollow(addr) */\n      jump\t// in\n    tag_53:\n        /* \"@lukso/lsp26-contracts/contracts/LSP26FollowerSystem.sol\":1453:1524  function unfollow(address addr) public {... */\n      pop\n      jump\t// out\n        /* \"@lukso/lsp26-contracts/contracts/LSP26FollowerSystem.sol\":2011:2129  function followerCount(address addr) public view returns (uint256) {... */\n    tag_19:\n        /* \"@lukso/lsp26-contracts/contracts/LSP26FollowerSystem.sol\":2069:2076  uint256 */\n      0x00\n        /* \"@lukso/lsp26-contracts/contracts/LSP26FollowerSystem.sol\":2095:2122  _followersOf[addr].length() */\n      tag_56\n        /* \"@lukso/lsp26-contracts/contracts/LSP26FollowerSystem.sol\":2095:2107  _followersOf */\n      0x00\n        /* \"@lukso/lsp26-contracts/contracts/LSP26FollowerSystem.sol\":2095:2113  _followersOf[addr] */\n      0x00\n        /* \"@lukso/lsp26-contracts/contracts/LSP26FollowerSystem.sol\":2108:2112  addr */\n      dup5\n        /* \"@lukso/lsp26-contracts/contracts/LSP26FollowerSystem.sol\":2095:2113  _followersOf[addr] */\n      0xffffffffffffffffffffffffffffffffffffffff\n      and\n      0xffffffffffffffffffffffffffffffffffffffff\n      and\n      dup2\n      mstore\n      0x20\n      add\n      swap1\n      dup2\n      mstore\n      0x20\n      add\n      0x00\n      keccak256\n        /* \"@lukso/lsp26-contracts/contracts/LSP26FollowerSystem.sol\":2095:2120  _followersOf[addr].length */\n      tag_57\n        /* \"@lukso/lsp26-contracts/contracts/LSP26FollowerSystem.sol\":2095:2122  _followersOf[addr].length() */\n      jump\t// in\n    tag_56:\n        /* \"@lukso/lsp26-contracts/contracts/LSP26FollowerSystem.sol\":2088:2122  return _followersOf[addr].length() */\n      swap1\n      pop\n        /* \"@lukso/lsp26-contracts/contracts/LSP26FollowerSystem.sol\":2011:2129  function followerCount(address addr) public view returns (uint256) {... */\n      swap2\n      swap1\n      pop\n      jump\t// out\n        /* \"@lukso/lsp26-contracts/contracts/LSP26FollowerSystem.sol\":1113:1180  function follow(address addr) public {... */\n    tag_24:\n        /* \"@lukso/lsp26-contracts/contracts/LSP26FollowerSystem.sol\":1160:1173  _follow(addr) */\n      tag_59\n        /* \"@lukso/lsp26-contracts/contracts/LSP26FollowerSystem.sol\":1168:1172  addr */\n      dup2\n        /* \"@lukso/lsp26-contracts/contracts/LSP26FollowerSystem.sol\":1160:1167  _follow */\n      tag_60\n        /* \"@lukso/lsp26-contracts/contracts/LSP26FollowerSystem.sol\":1160:1173  _follow(addr) */\n      jump\t// in\n    tag_59:\n        /* \"@lukso/lsp26-contracts/contracts/LSP26FollowerSystem.sol\":1113:1180  function follow(address addr) public {... */\n      pop\n      jump\t// out\n        /* \"@lukso/lsp26-contracts/contracts/LSP26FollowerSystem.sol\":2341:2795  function getFollowsByIndex(... */\n    tag_28:\n        /* \"@lukso/lsp26-contracts/contracts/LSP26FollowerSystem.sol\":2471:2487  address[] memory */\n      0x60\n        /* \"@lukso/lsp26-contracts/contracts/LSP26FollowerSystem.sol\":2499:2518  uint256 sliceLength */\n      0x00\n        /* \"@lukso/lsp26-contracts/contracts/LSP26FollowerSystem.sol\":2532:2542  startIndex */\n      dup4\n        /* \"@lukso/lsp26-contracts/contracts/LSP26FollowerSystem.sol\":2521:2529  endIndex */\n      dup4\n        /* \"@lukso/lsp26-contracts/contracts/LSP26FollowerSystem.sol\":2521:2542  endIndex - startIndex */\n      tag_62\n      swap2\n      swap1\n      tag_63\n      jump\t// in\n    tag_62:\n        /* \"@lukso/lsp26-contracts/contracts/LSP26FollowerSystem.sol\":2499:2542  uint256 sliceLength = endIndex - startIndex */\n      swap1\n      pop\n        /* \"@lukso/lsp26-contracts/contracts/LSP26FollowerSystem.sol\":2553:2580  address[] memory followings */\n      0x00\n        /* \"@lukso/lsp26-contracts/contracts/LSP26FollowerSystem.sol\":2597:2608  sliceLength */\n      dup2\n        /* \"@lukso/lsp26-contracts/contracts/LSP26FollowerSystem.sol\":2583:2609  new address[](sliceLength) */\n      0xffffffffffffffff\n      dup2\n      gt\n      iszero\n      tag_64\n      jumpi\n      tag_65\n      tag_66\n      jump\t// in\n    tag_65:\n    tag_64:\n      mload(0x40)\n      swap1\n      dup1\n      dup3\n      mstore\n      dup1\n      0x20\n      mul\n      0x20\n      add\n      dup3\n      add\n      0x40\n      mstore\n      dup1\n      iszero\n      tag_67\n      jumpi\n      dup2\n      0x20\n      add\n      0x20\n      dup3\n      mul\n      dup1\n      calldatasize\n      dup4\n      calldatacopy\n      dup1\n      dup3\n      add\n      swap2\n      pop\n      pop\n      swap1\n      pop\n    tag_67:\n      pop\n        /* \"@lukso/lsp26-contracts/contracts/LSP26FollowerSystem.sol\":2553:2609  address[] memory followings = new address[](sliceLength) */\n      swap1\n      pop\n        /* \"@lukso/lsp26-contracts/contracts/LSP26FollowerSystem.sol\":2625:2638  uint256 index */\n      0x00\n        /* \"@lukso/lsp26-contracts/contracts/LSP26FollowerSystem.sol\":2641:2642  0 */\n      0x00\n        /* \"@lukso/lsp26-contracts/contracts/LSP26FollowerSystem.sol\":2625:2642  uint256 index = 0 */\n      swap1\n      pop\n        /* \"@lukso/lsp26-contracts/contracts/LSP26FollowerSystem.sol\":2620:2761  for (uint256 index = 0; index < sliceLength; ++index) {... */\n    tag_68:\n        /* \"@lukso/lsp26-contracts/contracts/LSP26FollowerSystem.sol\":2652:2663  sliceLength */\n      dup3\n        /* \"@lukso/lsp26-contracts/contracts/LSP26FollowerSystem.sol\":2644:2649  index */\n      dup2\n        /* \"@lukso/lsp26-contracts/contracts/LSP26FollowerSystem.sol\":2644:2663  index < sliceLength */\n      lt\n        /* \"@lukso/lsp26-contracts/contracts/LSP26FollowerSystem.sol\":2620:2761  for (uint256 index = 0; index < sliceLength; ++index) {... */\n      iszero\n      tag_69\n      jumpi\n        /* \"@lukso/lsp26-contracts/contracts/LSP26FollowerSystem.sol\":2708:2750  _followingsOf[addr].at(startIndex + index) */\n      tag_71\n        /* \"@lukso/lsp26-contracts/contracts/LSP26FollowerSystem.sol\":2744:2749  index */\n      dup2\n        /* \"@lukso/lsp26-contracts/contracts/LSP26FollowerSystem.sol\":2731:2741  startIndex */\n      dup8\n        /* \"@lukso/lsp26-contracts/contracts/LSP26FollowerSystem.sol\":2731:2749  startIndex + index */\n      tag_72\n      swap2\n      swap1\n      tag_73\n      jump\t// in\n    tag_72:\n        /* \"@lukso/lsp26-contracts/contracts/LSP26FollowerSystem.sol\":2708:2721  _followingsOf */\n      0x01\n        /* \"@lukso/lsp26-contracts/contracts/LSP26FollowerSystem.sol\":2708:2727  _followingsOf[addr] */\n      0x00\n        /* \"@lukso/lsp26-contracts/contracts/LSP26FollowerSystem.sol\":2722:2726  addr */\n      dup11\n        /* \"@lukso/lsp26-contracts/contracts/LSP26FollowerSystem.sol\":2708:2727  _followingsOf[addr] */\n      0xffffffffffffffffffffffffffffffffffffffff\n      and\n      0xffffffffffffffffffffffffffffffffffffffff\n      and\n      dup2\n      mstore\n      0x20\n      add\n      swap1\n      dup2\n      mstore\n      0x20\n      add\n      0x00\n      keccak256\n        /* \"@lukso/lsp26-contracts/contracts/LSP26FollowerSystem.sol\":2708:2730  _followingsOf[addr].at */\n      tag_74\n      swap1\n        /* \"@lukso/lsp26-contracts/contracts/LSP26FollowerSystem.sol\":2708:2750  _followingsOf[addr].at(startIndex + index) */\n      swap2\n      swap1\n      0xffffffff\n      and\n      jump\t// in\n    tag_71:\n        /* \"@lukso/lsp26-contracts/contracts/LSP26FollowerSystem.sol\":2688:2698  followings */\n      dup3\n        /* \"@lukso/lsp26-contracts/contracts/LSP26FollowerSystem.sol\":2699:2704  index */\n      dup3\n        /* \"@lukso/lsp26-contracts/contracts/LSP26FollowerSystem.sol\":2688:2705  followings[index] */\n      dup2\n      mload\n      dup2\n      lt\n      tag_75\n      jumpi\n      tag_76\n      tag_77\n      jump\t// in\n    tag_76:\n    tag_75:\n      0x20\n      mul\n      0x20\n      add\n      add\n        /* \"@lukso/lsp26-contracts/contracts/LSP26FollowerSystem.sol\":2688:2750  followings[index] = _followingsOf[addr].at(startIndex + index) */\n      swap1\n      0xffffffffffffffffffffffffffffffffffffffff\n      and\n      swap1\n      dup2\n      0xffffffffffffffffffffffffffffffffffffffff\n      and\n      dup2\n      mstore\n      pop\n      pop\n        /* \"@lukso/lsp26-contracts/contracts/LSP26FollowerSystem.sol\":2665:2672  ++index */\n      dup1\n      0x01\n      add\n      swap1\n      pop\n        /* \"@lukso/lsp26-contracts/contracts/LSP26FollowerSystem.sol\":2620:2761  for (uint256 index = 0; index < sliceLength; ++index) {... */\n      jump(tag_68)\n    tag_69:\n      pop\n        /* \"@lukso/lsp26-contracts/contracts/LSP26FollowerSystem.sol\":2778:2788  followings */\n      dup1\n        /* \"@lukso/lsp26-contracts/contracts/LSP26FollowerSystem.sol\":2771:2788  return followings */\n      swap3\n      pop\n      pop\n      pop\n        /* \"@lukso/lsp26-contracts/contracts/LSP26FollowerSystem.sol\":2341:2795  function getFollowsByIndex(... */\n      swap4\n      swap3\n      pop\n      pop\n      pop\n      jump\t// out\n        /* \"@lukso/lsp26-contracts/contracts/LSP26FollowerSystem.sol\":2175:2295  function followingCount(address addr) public view returns (uint256) {... */\n    tag_33:\n        /* \"@lukso/lsp26-contracts/contracts/LSP26FollowerSystem.sol\":2234:2241  uint256 */\n      0x00\n        /* \"@lukso/lsp26-contracts/contracts/LSP26FollowerSystem.sol\":2260:2288  _followingsOf[addr].length() */\n      tag_79\n        /* \"@lukso/lsp26-contracts/contracts/LSP26FollowerSystem.sol\":2260:2273  _followingsOf */\n      0x01\n        /* \"@lukso/lsp26-contracts/contracts/LSP26FollowerSystem.sol\":2260:2279  _followingsOf[addr] */\n      0x00\n        /* \"@lukso/lsp26-contracts/contracts/LSP26FollowerSystem.sol\":2274:2278  addr */\n      dup5\n        /* \"@lukso/lsp26-contracts/contracts/LSP26FollowerSystem.sol\":2260:2279  _followingsOf[addr] */\n      0xffffffffffffffffffffffffffffffffffffffff\n      and\n      0xffffffffffffffffffffffffffffffffffffffff\n      and\n      dup2\n      mstore\n      0x20\n      add\n      swap1\n      dup2\n      mstore\n      0x20\n      add\n      0x00\n      keccak256\n        /* \"@lukso/lsp26-contracts/contracts/LSP26FollowerSystem.sol\":2260:2286  _followingsOf[addr].length */\n      tag_57\n        /* \"@lukso/lsp26-contracts/contracts/LSP26FollowerSystem.sol\":2260:2288  _followingsOf[addr].length() */\n      jump\t// in\n    tag_79:\n        /* \"@lukso/lsp26-contracts/contracts/LSP26FollowerSystem.sol\":2253:2288  return _followingsOf[addr].length() */\n      swap1\n      pop\n        /* \"@lukso/lsp26-contracts/contracts/LSP26FollowerSystem.sol\":2175:2295  function followingCount(address addr) public view returns (uint256) {... */\n      swap2\n      swap1\n      pop\n      jump\t// out\n        /* \"@lukso/lsp26-contracts/contracts/LSP26FollowerSystem.sol\":1570:1755  function unfollowBatch(address[] memory addresses) public {... */\n    tag_38:\n        /* \"@lukso/lsp26-contracts/contracts/LSP26FollowerSystem.sol\":1643:1656  uint256 index */\n      0x00\n        /* \"@lukso/lsp26-contracts/contracts/LSP26FollowerSystem.sol\":1659:1660  0 */\n      0x00\n        /* \"@lukso/lsp26-contracts/contracts/LSP26FollowerSystem.sol\":1643:1660  uint256 index = 0 */\n      swap1\n      pop\n        /* \"@lukso/lsp26-contracts/contracts/LSP26FollowerSystem.sol\":1638:1749  for (uint256 index = 0; index < addresses.length; ++index) {... */\n    tag_81:\n        /* \"@lukso/lsp26-contracts/contracts/LSP26FollowerSystem.sol\":1670:1679  addresses */\n      dup2\n        /* \"@lukso/lsp26-contracts/contracts/LSP26FollowerSystem.sol\":1670:1686  addresses.length */\n      mload\n        /* \"@lukso/lsp26-contracts/contracts/LSP26FollowerSystem.sol\":1662:1667  index */\n      dup2\n        /* \"@lukso/lsp26-contracts/contracts/LSP26FollowerSystem.sol\":1662:1686  index < addresses.length */\n      lt\n        /* \"@lukso/lsp26-contracts/contracts/LSP26FollowerSystem.sol\":1638:1749  for (uint256 index = 0; index < addresses.length; ++index) {... */\n      iszero\n      tag_82\n      jumpi\n        /* \"@lukso/lsp26-contracts/contracts/LSP26FollowerSystem.sol\":1711:1738  _unfollow(addresses[index]) */\n      tag_84\n        /* \"@lukso/lsp26-contracts/contracts/LSP26FollowerSystem.sol\":1721:1730  addresses */\n      dup3\n        /* \"@lukso/lsp26-contracts/contracts/LSP26FollowerSystem.sol\":1731:1736  index */\n      dup3\n        /* \"@lukso/lsp26-contracts/contracts/LSP26FollowerSystem.sol\":1721:1737  addresses[index] */\n      dup2\n      mload\n      dup2\n      lt\n      tag_85\n      jumpi\n      tag_86\n      tag_77\n      jump\t// in\n    tag_86:\n    tag_85:\n      0x20\n      mul\n      0x20\n      add\n      add\n      mload\n        /* \"@lukso/lsp26-contracts/contracts/LSP26FollowerSystem.sol\":1711:1720  _unfollow */\n      tag_54\n        /* \"@lukso/lsp26-contracts/contracts/LSP26FollowerSystem.sol\":1711:1738  _unfollow(addresses[index]) */\n      jump\t// in\n    tag_84:\n        /* \"@lukso/lsp26-contracts/contracts/LSP26FollowerSystem.sol\":1688:1695  ++index */\n      dup1\n      0x01\n      add\n      swap1\n      pop\n        /* \"@lukso/lsp26-contracts/contracts/LSP26FollowerSystem.sol\":1638:1749  for (uint256 index = 0; index < addresses.length; ++index) {... */\n      jump(tag_81)\n    tag_82:\n      pop\n        /* \"@lukso/lsp26-contracts/contracts/LSP26FollowerSystem.sol\":1570:1755  function unfollowBatch(address[] memory addresses) public {... */\n      pop\n      jump\t// out\n        /* \"@lukso/lsp26-contracts/contracts/LSP26FollowerSystem.sol\":1801:1965  function isFollowing(... */\n    tag_42:\n        /* \"@lukso/lsp26-contracts/contracts/LSP26FollowerSystem.sol\":1897:1901  bool */\n      0x00\n        /* \"@lukso/lsp26-contracts/contracts/LSP26FollowerSystem.sol\":1920:1958  _followingsOf[follower].contains(addr) */\n      tag_88\n        /* \"@lukso/lsp26-contracts/contracts/LSP26FollowerSystem.sol\":1953:1957  addr */\n      dup3\n        /* \"@lukso/lsp26-contracts/contracts/LSP26FollowerSystem.sol\":1920:1933  _followingsOf */\n      0x01\n        /* \"@lukso/lsp26-contracts/contracts/LSP26FollowerSystem.sol\":1920:1943  _followingsOf[follower] */\n      0x00\n        /* \"@lukso/lsp26-contracts/contracts/LSP26FollowerSystem.sol\":1934:1942  follower */\n      dup7\n        /* \"@lukso/lsp26-contracts/contracts/LSP26FollowerSystem.sol\":1920:1943  _followingsOf[follower] */\n      0xffffffffffffffffffffffffffffffffffffffff\n      and\n      0xffffffffffffffffffffffffffffffffffffffff\n      and\n      dup2\n      mstore\n      0x20\n      add\n      swap1\n      dup2\n      mstore\n      0x20\n      add\n      0x00\n      keccak256\n        /* \"@lukso/lsp26-contracts/contracts/LSP26FollowerSystem.sol\":1920:1952  _followingsOf[follower].contains */\n      tag_89\n      swap1\n        /* \"@lukso/lsp26-contracts/contracts/LSP26FollowerSystem.sol\":1920:1958  _followingsOf[follower].contains(addr) */\n      swap2\n      swap1\n      0xffffffff\n      and\n      jump\t// in\n    tag_88:\n        /* \"@lukso/lsp26-contracts/contracts/LSP26FollowerSystem.sol\":1913:1958  return _followingsOf[follower].contains(addr) */\n      swap1\n      pop\n        /* \"@lukso/lsp26-contracts/contracts/LSP26FollowerSystem.sol\":1801:1965  function isFollowing(... */\n      swap3\n      swap2\n      pop\n      pop\n      jump\t// out\n        /* \"@lukso/lsp26-contracts/contracts/LSP26FollowerSystem.sol\":2841:3293  function getFollowersByIndex(... */\n    tag_47:\n        /* \"@lukso/lsp26-contracts/contracts/LSP26FollowerSystem.sol\":2973:2989  address[] memory */\n      0x60\n        /* \"@lukso/lsp26-contracts/contracts/LSP26FollowerSystem.sol\":3001:3020  uint256 sliceLength */\n      0x00\n        /* \"@lukso/lsp26-contracts/contracts/LSP26FollowerSystem.sol\":3034:3044  startIndex */\n      dup4\n        /* \"@lukso/lsp26-contracts/contracts/LSP26FollowerSystem.sol\":3023:3031  endIndex */\n      dup4\n        /* \"@lukso/lsp26-contracts/contracts/LSP26FollowerSystem.sol\":3023:3044  endIndex - startIndex */\n      tag_91\n      swap2\n      swap1\n      tag_63\n      jump\t// in\n    tag_91:\n        /* \"@lukso/lsp26-contracts/contracts/LSP26FollowerSystem.sol\":3001:3044  uint256 sliceLength = endIndex - startIndex */\n      swap1\n      pop\n        /* \"@lukso/lsp26-contracts/contracts/LSP26FollowerSystem.sol\":3055:3081  address[] memory followers */\n      0x00\n        /* \"@lukso/lsp26-contracts/contracts/LSP26FollowerSystem.sol\":3098:3109  sliceLength */\n      dup2\n        /* \"@lukso/lsp26-contracts/contracts/LSP26FollowerSystem.sol\":3084:3110  new address[](sliceLength) */\n      0xffffffffffffffff\n      dup2\n      gt\n      iszero\n      tag_92\n      jumpi\n      tag_93\n      tag_66\n      jump\t// in\n    tag_93:\n    tag_92:\n      mload(0x40)\n      swap1\n      dup1\n      dup3\n      mstore\n      dup1\n      0x20\n      mul\n      0x20\n      add\n      dup3\n      add\n      0x40\n      mstore\n      dup1\n      iszero\n      tag_94\n      jumpi\n      dup2\n      0x20\n      add\n      0x20\n      dup3\n      mul\n      dup1\n      calldatasize\n      dup4\n      calldatacopy\n      dup1\n      dup3\n      add\n      swap2\n      pop\n      pop\n      swap1\n      pop\n    tag_94:\n      pop\n        /* \"@lukso/lsp26-contracts/contracts/LSP26FollowerSystem.sol\":3055:3110  address[] memory followers = new address[](sliceLength) */\n      swap1\n      pop\n        /* \"@lukso/lsp26-contracts/contracts/LSP26FollowerSystem.sol\":3126:3139  uint256 index */\n      0x00\n        /* \"@lukso/lsp26-contracts/contracts/LSP26FollowerSystem.sol\":3142:3143  0 */\n      0x00\n        /* \"@lukso/lsp26-contracts/contracts/LSP26FollowerSystem.sol\":3126:3143  uint256 index = 0 */\n      swap1\n      pop\n        /* \"@lukso/lsp26-contracts/contracts/LSP26FollowerSystem.sol\":3121:3260  for (uint256 index = 0; index < sliceLength; ++index) {... */\n    tag_95:\n        /* \"@lukso/lsp26-contracts/contracts/LSP26FollowerSystem.sol\":3153:3164  sliceLength */\n      dup3\n        /* \"@lukso/lsp26-contracts/contracts/LSP26FollowerSystem.sol\":3145:3150  index */\n      dup2\n        /* \"@lukso/lsp26-contracts/contracts/LSP26FollowerSystem.sol\":3145:3164  index < sliceLength */\n      lt\n        /* \"@lukso/lsp26-contracts/contracts/LSP26FollowerSystem.sol\":3121:3260  for (uint256 index = 0; index < sliceLength; ++index) {... */\n      iszero\n      tag_96\n      jumpi\n        /* \"@lukso/lsp26-contracts/contracts/LSP26FollowerSystem.sol\":3208:3249  _followersOf[addr].at(startIndex + index) */\n      tag_98\n        /* \"@lukso/lsp26-contracts/contracts/LSP26FollowerSystem.sol\":3243:3248  index */\n      dup2\n        /* \"@lukso/lsp26-contracts/contracts/LSP26FollowerSystem.sol\":3230:3240  startIndex */\n      dup8\n        /* \"@lukso/lsp26-contracts/contracts/LSP26FollowerSystem.sol\":3230:3248  startIndex + index */\n      tag_99\n      swap2\n      swap1\n      tag_73\n      jump\t// in\n    tag_99:\n        /* \"@lukso/lsp26-contracts/contracts/LSP26FollowerSystem.sol\":3208:3220  _followersOf */\n      0x00\n        /* \"@lukso/lsp26-contracts/contracts/LSP26FollowerSystem.sol\":3208:3226  _followersOf[addr] */\n      0x00\n        /* \"@lukso/lsp26-contracts/contracts/LSP26FollowerSystem.sol\":3221:3225  addr */\n      dup11\n        /* \"@lukso/lsp26-contracts/contracts/LSP26FollowerSystem.sol\":3208:3226  _followersOf[addr] */\n      0xffffffffffffffffffffffffffffffffffffffff\n      and\n      0xffffffffffffffffffffffffffffffffffffffff\n      and\n      dup2\n      mstore\n      0x20\n      add\n      swap1\n      dup2\n      mstore\n      0x20\n      add\n      0x00\n      keccak256\n        /* \"@lukso/lsp26-contracts/contracts/LSP26FollowerSystem.sol\":3208:3229  _followersOf[addr].at */\n      tag_74\n      swap1\n        /* \"@lukso/lsp26-contracts/contracts/LSP26FollowerSystem.sol\":3208:3249  _followersOf[addr].at(startIndex + index) */\n      swap2\n      swap1\n      0xffffffff\n      and\n      jump\t// in\n    tag_98:\n        /* \"@lukso/lsp26-contracts/contracts/LSP26FollowerSystem.sol\":3189:3198  followers */\n      dup3\n        /* \"@lukso/lsp26-contracts/contracts/LSP26FollowerSystem.sol\":3199:3204  index */\n      dup3\n        /* \"@lukso/lsp26-contracts/contracts/LSP26FollowerSystem.sol\":3189:3205  followers[index] */\n      dup2\n      mload\n      dup2\n      lt\n      tag_100\n      jumpi\n      tag_101\n      tag_77\n      jump\t// in\n    tag_101:\n    tag_100:\n      0x20\n      mul\n      0x20\n      add\n      add\n        /* \"@lukso/lsp26-contracts/contracts/LSP26FollowerSystem.sol\":3189:3249  followers[index] = _followersOf[addr].at(startIndex + index) */\n      swap1\n      0xffffffffffffffffffffffffffffffffffffffff\n      and\n      swap1\n      dup2\n      0xffffffffffffffffffffffffffffffffffffffff\n      and\n      dup2\n      mstore\n      pop\n      pop\n        /* \"@lukso/lsp26-contracts/contracts/LSP26FollowerSystem.sol\":3166:3173  ++index */\n      dup1\n      0x01\n      add\n      swap1\n      pop\n        /* \"@lukso/lsp26-contracts/contracts/LSP26FollowerSystem.sol\":3121:3260  for (uint256 index = 0; index < sliceLength; ++index) {... */\n      jump(tag_95)\n    tag_96:\n      pop\n        /* \"@lukso/lsp26-contracts/contracts/LSP26FollowerSystem.sol\":3277:3286  followers */\n      dup1\n        /* \"@lukso/lsp26-contracts/contracts/LSP26FollowerSystem.sol\":3270:3286  return followers */\n      swap3\n      pop\n      pop\n      pop\n        /* \"@lukso/lsp26-contracts/contracts/LSP26FollowerSystem.sol\":2841:3293  function getFollowersByIndex(... */\n      swap4\n      swap3\n      pop\n      pop\n      pop\n      jump\t// out\n        /* \"@lukso/lsp26-contracts/contracts/LSP26FollowerSystem.sol\":1226:1407  function followBatch(address[] memory addresses) public {... */\n    tag_51:\n        /* \"@lukso/lsp26-contracts/contracts/LSP26FollowerSystem.sol\":1297:1310  uint256 index */\n      0x00\n        /* \"@lukso/lsp26-contracts/contracts/LSP26FollowerSystem.sol\":1313:1314  0 */\n      0x00\n        /* \"@lukso/lsp26-contracts/contracts/LSP26FollowerSystem.sol\":1297:1314  uint256 index = 0 */\n      swap1\n      pop\n        /* \"@lukso/lsp26-contracts/contracts/LSP26FollowerSystem.sol\":1292:1401  for (uint256 index = 0; index < addresses.length; ++index) {... */\n    tag_103:\n        /* \"@lukso/lsp26-contracts/contracts/LSP26FollowerSystem.sol\":1324:1333  addresses */\n      dup2\n        /* \"@lukso/lsp26-contracts/contracts/LSP26FollowerSystem.sol\":1324:1340  addresses.length */\n      mload\n        /* \"@lukso/lsp26-contracts/contracts/LSP26FollowerSystem.sol\":1316:1321  index */\n      dup2\n        /* \"@lukso/lsp26-contracts/contracts/LSP26FollowerSystem.sol\":1316:1340  index < addresses.length */\n      lt\n        /* \"@lukso/lsp26-contracts/contracts/LSP26FollowerSystem.sol\":1292:1401  for (uint256 index = 0; index < addresses.length; ++index) {... */\n      iszero\n      tag_104\n      jumpi\n        /* \"@lukso/lsp26-contracts/contracts/LSP26FollowerSystem.sol\":1365:1390  _follow(addresses[index]) */\n      tag_106\n        /* \"@lukso/lsp26-contracts/contracts/LSP26FollowerSystem.sol\":1373:1382  addresses */\n      dup3\n        /* \"@lukso/lsp26-contracts/contracts/LSP26FollowerSystem.sol\":1383:1388  index */\n      dup3\n        /* \"@lukso/lsp26-contracts/contracts/LSP26FollowerSystem.sol\":1373:1389  addresses[index] */\n      dup2\n      mload\n      dup2\n      lt\n      tag_107\n      jumpi\n      tag_108\n      tag_77\n      jump\t// in\n    tag_108:\n    tag_107:\n      0x20\n      mul\n      0x20\n      add\n      add\n      mload\n        /* \"@lukso/lsp26-contracts/contracts/LSP26FollowerSystem.sol\":1365:1372  _follow */\n      tag_60\n        /* \"@lukso/lsp26-contracts/contracts/LSP26FollowerSystem.sol\":1365:1390  _follow(addresses[index]) */\n      jump\t// in\n    tag_106:\n        /* \"@lukso/lsp26-contracts/contracts/LSP26FollowerSystem.sol\":1342:1349  ++index */\n      dup1\n      0x01\n      add\n      swap1\n      pop\n        /* \"@lukso/lsp26-contracts/contracts/LSP26FollowerSystem.sol\":1292:1401  for (uint256 index = 0; index < addresses.length; ++index) {... */\n      jump(tag_103)\n    tag_104:\n      pop\n        /* \"@lukso/lsp26-contracts/contracts/LSP26FollowerSystem.sol\":1226:1407  function followBatch(address[] memory addresses) public {... */\n      pop\n      jump\t// out\n        /* \"@lukso/lsp26-contracts/contracts/LSP26FollowerSystem.sol\":4012:4642  function _unfollow(address addr) internal {... */\n    tag_54:\n        /* \"@lukso/lsp26-contracts/contracts/LSP26FollowerSystem.sol\":4064:4078  bool isRemoved */\n      0x00\n        /* \"@lukso/lsp26-contracts/contracts/LSP26FollowerSystem.sol\":4081:4119  _followingsOf[msg.sender].remove(addr) */\n      tag_110\n        /* \"@lukso/lsp26-contracts/contracts/LSP26FollowerSystem.sol\":4114:4118  addr */\n      dup3\n        /* \"@lukso/lsp26-contracts/contracts/LSP26FollowerSystem.sol\":4081:4094  _followingsOf */\n      0x01\n        /* \"@lukso/lsp26-contracts/contracts/LSP26FollowerSystem.sol\":4081:4106  _followingsOf[msg.sender] */\n      0x00\n        /* \"@lukso/lsp26-contracts/contracts/LSP26FollowerSystem.sol\":4095:4105  msg.sender */\n      caller\n        /* \"@lukso/lsp26-contracts/contracts/LSP26FollowerSystem.sol\":4081:4106  _followingsOf[msg.sender] */\n      0xffffffffffffffffffffffffffffffffffffffff\n      and\n      0xffffffffffffffffffffffffffffffffffffffff\n      and\n      dup2\n      mstore\n      0x20\n      add\n      swap1\n      dup2\n      mstore\n      0x20\n      add\n      0x00\n      keccak256\n        /* \"@lukso/lsp26-contracts/contracts/LSP26FollowerSystem.sol\":4081:4113  _followingsOf[msg.sender].remove */\n      tag_111\n      swap1\n        /* \"@lukso/lsp26-contracts/contracts/LSP26FollowerSystem.sol\":4081:4119  _followingsOf[msg.sender].remove(addr) */\n      swap2\n      swap1\n      0xffffffff\n      and\n      jump\t// in\n    tag_110:\n        /* \"@lukso/lsp26-contracts/contracts/LSP26FollowerSystem.sol\":4064:4119  bool isRemoved = _followingsOf[msg.sender].remove(addr) */\n      swap1\n      pop\n        /* \"@lukso/lsp26-contracts/contracts/LSP26FollowerSystem.sol\":4135:4144  isRemoved */\n      dup1\n        /* \"@lukso/lsp26-contracts/contracts/LSP26FollowerSystem.sol\":4130:4201  if (!isRemoved) {... */\n      tag_112\n      jumpi\n        /* \"@lukso/lsp26-contracts/contracts/LSP26FollowerSystem.sol\":4185:4189  addr */\n      dup2\n        /* \"@lukso/lsp26-contracts/contracts/LSP26FollowerSystem.sol\":4167:4190  LSP26NotFollowing(addr) */\n      mload(0x40)\n      0xc70bad4e00000000000000000000000000000000000000000000000000000000\n      dup2\n      mstore\n      0x04\n      add\n      tag_113\n      swap2\n      swap1\n      tag_114\n      jump\t// in\n    tag_113:\n      mload(0x40)\n      dup1\n      swap2\n      sub\n      swap1\n      revert\n        /* \"@lukso/lsp26-contracts/contracts/LSP26FollowerSystem.sol\":4130:4201  if (!isRemoved) {... */\n    tag_112:\n        /* \"@lukso/lsp26-contracts/contracts/LSP26FollowerSystem.sol\":4211:4248  _followersOf[addr].remove(msg.sender) */\n      tag_115\n        /* \"@lukso/lsp26-contracts/contracts/LSP26FollowerSystem.sol\":4237:4247  msg.sender */\n      caller\n        /* \"@lukso/lsp26-contracts/contracts/LSP26FollowerSystem.sol\":4211:4223  _followersOf */\n      0x00\n        /* \"@lukso/lsp26-contracts/contracts/LSP26FollowerSystem.sol\":4211:4229  _followersOf[addr] */\n      0x00\n        /* \"@lukso/lsp26-contracts/contracts/LSP26FollowerSystem.sol\":4224:4228  addr */\n      dup6\n        /* \"@lukso/lsp26-contracts/contracts/LSP26FollowerSystem.sol\":4211:4229  _followersOf[addr] */\n      0xffffffffffffffffffffffffffffffffffffffff\n      and\n      0xffffffffffffffffffffffffffffffffffffffff\n      and\n      dup2\n      mstore\n      0x20\n      add\n      swap1\n      dup2\n      mstore\n      0x20\n      add\n      0x00\n      keccak256\n        /* \"@lukso/lsp26-contracts/contracts/LSP26FollowerSystem.sol\":4211:4236  _followersOf[addr].remove */\n      tag_111\n      swap1\n        /* \"@lukso/lsp26-contracts/contracts/LSP26FollowerSystem.sol\":4211:4248  _followersOf[addr].remove(msg.sender) */\n      swap2\n      swap1\n      0xffffffff\n      and\n      jump\t// in\n    tag_115:\n      pop\n        /* \"@lukso/lsp26-contracts/contracts/LSP26FollowerSystem.sol\":4264:4290  Unfollow(msg.sender, addr) */\n      0x083700fd0d85112c9d8c5823585c7542e8fadb693c9902e5bc590ab367f7a15e\n        /* \"@lukso/lsp26-contracts/contracts/LSP26FollowerSystem.sol\":4273:4283  msg.sender */\n      caller\n        /* \"@lukso/lsp26-contracts/contracts/LSP26FollowerSystem.sol\":4285:4289  addr */\n      dup4\n        /* \"@lukso/lsp26-contracts/contracts/LSP26FollowerSystem.sol\":4264:4290  Unfollow(msg.sender, addr) */\n      mload(0x40)\n      tag_116\n      swap3\n      swap2\n      swap1\n      tag_117\n      jump\t// in\n    tag_116:\n      mload(0x40)\n      dup1\n      swap2\n      sub\n      swap1\n      log1\n        /* \"@lukso/lsp26-contracts/contracts/LSP26FollowerSystem.sol\":4305:4361  addr.supportsERC165InterfaceUnchecked(_INTERFACEID_LSP1) */\n      tag_118\n        /* \"@lukso/lsp1-contracts/contracts/LSP1Constants.sol\":128:138  0x6bb56a14 */\n      0x6bb56a14\n        /* \"@lukso/lsp26-contracts/contracts/LSP26FollowerSystem.sol\":4343:4360  _INTERFACEID_LSP1 */\n      0xe0\n      shl\n        /* \"@lukso/lsp26-contracts/contracts/LSP26FollowerSystem.sol\":4305:4309  addr */\n      dup4\n        /* \"@lukso/lsp26-contracts/contracts/LSP26FollowerSystem.sol\":4305:4342  addr.supportsERC165InterfaceUnchecked */\n      0xffffffffffffffffffffffffffffffffffffffff\n      and\n      tag_119\n      swap1\n        /* \"@lukso/lsp26-contracts/contracts/LSP26FollowerSystem.sol\":4305:4361  addr.supportsERC165InterfaceUnchecked(_INTERFACEID_LSP1) */\n      swap2\n      swap1\n      0xffffffff\n      and\n      jump\t// in\n    tag_118:\n        /* \"@lukso/lsp26-contracts/contracts/LSP26FollowerSystem.sol\":4301:4636  if (addr.supportsERC165InterfaceUnchecked(_INTERFACEID_LSP1)) {... */\n      iszero\n      tag_120\n      jumpi\n        /* \"@lukso/lsp26-contracts/contracts/LSP26FollowerSystem.sol\":4467:4471  addr */\n      dup2\n        /* \"@lukso/lsp26-contracts/contracts/LSP26FollowerSystem.sol\":4444:4490  ILSP1UniversalReceiver(addr).universalReceiver */\n      0xffffffffffffffffffffffffffffffffffffffff\n      and\n      0x6bb56a14\n        /* \"@lukso/lsp26-contracts/contracts/LSP26Constants.sol\":378:444  0x9d3c0b4012b69658977b099bdaa51eff0f0460f421fba96d15669506c00d1c4f */\n      0x9d3c0b4012b69658977b099bdaa51eff0f0460f421fba96d15669506c00d1c4f\n        /* \"@lukso/lsp26-contracts/contracts/LSP26FollowerSystem.sol\":4512:4534  _TYPEID_LSP26_UNFOLLOW */\n      0x00\n      shl\n        /* \"@lukso/lsp26-contracts/contracts/LSP26FollowerSystem.sol\":4573:4583  msg.sender */\n      caller\n        /* \"@lukso/lsp26-contracts/contracts/LSP26FollowerSystem.sol\":4556:4584  abi.encodePacked(msg.sender) */\n      add(0x20, mload(0x40))\n      tag_121\n      swap2\n      swap1\n      tag_122\n      jump\t// in\n    tag_121:\n      mload(0x40)\n      0x20\n      dup2\n      dup4\n      sub\n      sub\n      dup2\n      mstore\n      swap1\n      0x40\n      mstore\n        /* \"@lukso/lsp26-contracts/contracts/LSP26FollowerSystem.sol\":4444:4602  ILSP1UniversalReceiver(addr).universalReceiver(... */\n      mload(0x40)\n      dup4\n      0xffffffff\n      and\n      0xe0\n      shl\n      dup2\n      mstore\n      0x04\n      add\n      tag_123\n      swap3\n      swap2\n      swap1\n      tag_124\n      jump\t// in\n    tag_123:\n      0x00\n      mload(0x40)\n      dup1\n      dup4\n      sub\n      dup2\n      0x00\n      dup8\n      gas\n      call\n      swap3\n      pop\n      pop\n      pop\n      dup1\n      iszero\n      tag_125\n      jumpi\n      pop\n      mload(0x40)\n      returndatasize\n      0x00\n      dup3\n      returndatacopy\n      returndatasize\n      not(0x1f)\n      0x1f\n      dup3\n      add\n      and\n      dup3\n      add\n      dup1\n      0x40\n      mstore\n      pop\n      dup2\n      add\n      swap1\n      tag_126\n      swap2\n      swap1\n      tag_127\n      jump\t// in\n    tag_126:\n      0x01\n    tag_125:\n        /* \"@lukso/lsp26-contracts/contracts/LSP26FollowerSystem.sol\":4424:4626  try... */\n      iszero\n      tag_132\n      jumpi\n      pop\n    tag_132:\n        /* \"@lukso/lsp26-contracts/contracts/LSP26FollowerSystem.sol\":4301:4636  if (addr.supportsERC165InterfaceUnchecked(_INTERFACEID_LSP1)) {... */\n    tag_120:\n        /* \"@lukso/lsp26-contracts/contracts/LSP26FollowerSystem.sol\":4054:4642  {... */\n      pop\n        /* \"@lukso/lsp26-contracts/contracts/LSP26FollowerSystem.sol\":4012:4642  function _unfollow(address addr) internal {... */\n      pop\n      jump\t// out\n        /* \"@openzeppelin/contracts/utils/structs/EnumerableSet.sol\":9106:9221  function length(AddressSet storage set) internal view returns (uint256) {... */\n    tag_57:\n        /* \"@openzeppelin/contracts/utils/structs/EnumerableSet.sol\":9169:9176  uint256 */\n      0x00\n        /* \"@openzeppelin/contracts/utils/structs/EnumerableSet.sol\":9195:9214  _length(set._inner) */\n      tag_134\n        /* \"@openzeppelin/contracts/utils/structs/EnumerableSet.sol\":9203:9206  set */\n      dup3\n        /* \"@openzeppelin/contracts/utils/structs/EnumerableSet.sol\":9203:9213  set._inner */\n      0x00\n      add\n        /* \"@openzeppelin/contracts/utils/structs/EnumerableSet.sol\":9195:9202  _length */\n      tag_135\n        /* \"@openzeppelin/contracts/utils/structs/EnumerableSet.sol\":9195:9214  _length(set._inner) */\n      jump\t// in\n    tag_134:\n        /* \"@openzeppelin/contracts/utils/structs/EnumerableSet.sol\":9188:9214  return _length(set._inner) */\n      swap1\n      pop\n        /* \"@openzeppelin/contracts/utils/structs/EnumerableSet.sol\":9106:9221  function length(AddressSet storage set) internal view returns (uint256) {... */\n      swap2\n      swap1\n      pop\n      jump\t// out\n        /* \"@lukso/lsp26-contracts/contracts/LSP26FollowerSystem.sol\":3299:4006  function _follow(address addr) internal {... */\n    tag_60:\n        /* \"@lukso/lsp26-contracts/contracts/LSP26FollowerSystem.sol\":3367:3371  addr */\n      dup1\n        /* \"@lukso/lsp26-contracts/contracts/LSP26FollowerSystem.sol\":3353:3371  msg.sender == addr */\n      0xffffffffffffffffffffffffffffffffffffffff\n      and\n        /* \"@lukso/lsp26-contracts/contracts/LSP26FollowerSystem.sol\":3353:3363  msg.sender */\n      caller\n        /* \"@lukso/lsp26-contracts/contracts/LSP26FollowerSystem.sol\":3353:3371  msg.sender == addr */\n      0xffffffffffffffffffffffffffffffffffffffff\n      and\n      sub\n        /* \"@lukso/lsp26-contracts/contracts/LSP26FollowerSystem.sol\":3349:3428  if (msg.sender == addr) {... */\n      tag_137\n      jumpi\n        /* \"@lukso/lsp26-contracts/contracts/LSP26FollowerSystem.sol\":3394:3417  LSP26CannotSelfFollow() */\n      mload(0x40)\n      0xea61954200000000000000000000000000000000000000000000000000000000\n      dup2\n      mstore\n      0x04\n      add\n      mload(0x40)\n      dup1\n      swap2\n      sub\n      swap1\n      revert\n        /* \"@lukso/lsp26-contracts/contracts/LSP26FollowerSystem.sol\":3349:3428  if (msg.sender == addr) {... */\n    tag_137:\n        /* \"@lukso/lsp26-contracts/contracts/LSP26FollowerSystem.sol\":3438:3450  bool isAdded */\n      0x00\n        /* \"@lukso/lsp26-contracts/contracts/LSP26FollowerSystem.sol\":3453:3488  _followingsOf[msg.sender].add(addr) */\n      tag_138\n        /* \"@lukso/lsp26-contracts/contracts/LSP26FollowerSystem.sol\":3483:3487  addr */\n      dup3\n        /* \"@lukso/lsp26-contracts/contracts/LSP26FollowerSystem.sol\":3453:3466  _followingsOf */\n      0x01\n        /* \"@lukso/lsp26-contracts/contracts/LSP26FollowerSystem.sol\":3453:3478  _followingsOf[msg.sender] */\n      0x00\n        /* \"@lukso/lsp26-contracts/contracts/LSP26FollowerSystem.sol\":3467:3477  msg.sender */\n      caller\n        /* \"@lukso/lsp26-contracts/contracts/LSP26FollowerSystem.sol\":3453:3478  _followingsOf[msg.sender] */\n      0xffffffffffffffffffffffffffffffffffffffff\n      and\n      0xffffffffffffffffffffffffffffffffffffffff\n      and\n      dup2\n      mstore\n      0x20\n      add\n      swap1\n      dup2\n      mstore\n      0x20\n      add\n      0x00\n      keccak256\n        /* \"@lukso/lsp26-contracts/contracts/LSP26FollowerSystem.sol\":3453:3482  _followingsOf[msg.sender].add */\n      tag_139\n      swap1\n        /* \"@lukso/lsp26-contracts/contracts/LSP26FollowerSystem.sol\":3453:3488  _followingsOf[msg.sender].add(addr) */\n      swap2\n      swap1\n      0xffffffff\n      and\n      jump\t// in\n    tag_138:\n        /* \"@lukso/lsp26-contracts/contracts/LSP26FollowerSystem.sol\":3438:3488  bool isAdded = _followingsOf[msg.sender].add(addr) */\n      swap1\n      pop\n        /* \"@lukso/lsp26-contracts/contracts/LSP26FollowerSystem.sol\":3504:3511  isAdded */\n      dup1\n        /* \"@lukso/lsp26-contracts/contracts/LSP26FollowerSystem.sol\":3499:3572  if (!isAdded) {... */\n      tag_140\n      jumpi\n        /* \"@lukso/lsp26-contracts/contracts/LSP26FollowerSystem.sol\":3556:3560  addr */\n      dup2\n        /* \"@lukso/lsp26-contracts/contracts/LSP26FollowerSystem.sol\":3534:3561  LSP26AlreadyFollowing(addr) */\n      mload(0x40)\n      0x6feacbf600000000000000000000000000000000000000000000000000000000\n      dup2\n      mstore\n      0x04\n      add\n      tag_141\n      swap2\n      swap1\n      tag_114\n      jump\t// in\n    tag_141:\n      mload(0x40)\n      dup1\n      swap2\n      sub\n      swap1\n      revert\n        /* \"@lukso/lsp26-contracts/contracts/LSP26FollowerSystem.sol\":3499:3572  if (!isAdded) {... */\n    tag_140:\n        /* \"@lukso/lsp26-contracts/contracts/LSP26FollowerSystem.sol\":3582:3616  _followersOf[addr].add(msg.sender) */\n      tag_142\n        /* \"@lukso/lsp26-contracts/contracts/LSP26FollowerSystem.sol\":3605:3615  msg.sender */\n      caller\n        /* \"@lukso/lsp26-contracts/contracts/LSP26FollowerSystem.sol\":3582:3594  _followersOf */\n      0x00\n        /* \"@lukso/lsp26-contracts/contracts/LSP26FollowerSystem.sol\":3582:3600  _followersOf[addr] */\n      0x00\n        /* \"@lukso/lsp26-contracts/contracts/LSP26FollowerSystem.sol\":3595:3599  addr */\n      dup6\n        /* \"@lukso/lsp26-contracts/contracts/LSP26FollowerSystem.sol\":3582:3600  _followersOf[addr] */\n      0xffffffffffffffffffffffffffffffffffffffff\n      and\n      0xffffffffffffffffffffffffffffffffffffffff\n      and\n      dup2\n      mstore\n      0x20\n      add\n      swap1\n      dup2\n      mstore\n      0x20\n      add\n      0x00\n      keccak256\n        /* \"@lukso/lsp26-contracts/contracts/LSP26FollowerSystem.sol\":3582:3604  _followersOf[addr].add */\n      tag_139\n      swap1\n        /* \"@lukso/lsp26-contracts/contracts/LSP26FollowerSystem.sol\":3582:3616  _followersOf[addr].add(msg.sender) */\n      swap2\n      swap1\n      0xffffffff\n      and\n      jump\t// in\n    tag_142:\n      pop\n        /* \"@lukso/lsp26-contracts/contracts/LSP26FollowerSystem.sol\":3632:3656  Follow(msg.sender, addr) */\n      0xbccc71dc7842b86291138666aa18e133ee6d41aa71e6d7c650debad1a0576635\n        /* \"@lukso/lsp26-contracts/contracts/LSP26FollowerSystem.sol\":3639:3649  msg.sender */\n      caller\n        /* \"@lukso/lsp26-contracts/contracts/LSP26FollowerSystem.sol\":3651:3655  addr */\n      dup4\n        /* \"@lukso/lsp26-contracts/contracts/LSP26FollowerSystem.sol\":3632:3656  Follow(msg.sender, addr) */\n      mload(0x40)\n      tag_143\n      swap3\n      swap2\n      swap1\n      tag_117\n      jump\t// in\n    tag_143:\n      mload(0x40)\n      dup1\n      swap2\n      sub\n      swap1\n      log1\n        /* \"@lukso/lsp26-contracts/contracts/LSP26FollowerSystem.sol\":3671:3727  addr.supportsERC165InterfaceUnchecked(_INTERFACEID_LSP1) */\n      tag_144\n        /* \"@lukso/lsp1-contracts/contracts/LSP1Constants.sol\":128:138  0x6bb56a14 */\n      0x6bb56a14\n        /* \"@lukso/lsp26-contracts/contracts/LSP26FollowerSystem.sol\":3709:3726  _INTERFACEID_LSP1 */\n      0xe0\n      shl\n        /* \"@lukso/lsp26-contracts/contracts/LSP26FollowerSystem.sol\":3671:3675  addr */\n      dup4\n        /* \"@lukso/lsp26-contracts/contracts/LSP26FollowerSystem.sol\":3671:3708  addr.supportsERC165InterfaceUnchecked */\n      0xffffffffffffffffffffffffffffffffffffffff\n      and\n      tag_119\n      swap1\n        /* \"@lukso/lsp26-contracts/contracts/LSP26FollowerSystem.sol\":3671:3727  addr.supportsERC165InterfaceUnchecked(_INTERFACEID_LSP1) */\n      swap2\n      swap1\n      0xffffffff\n      and\n      jump\t// in\n    tag_144:\n        /* \"@lukso/lsp26-contracts/contracts/LSP26FollowerSystem.sol\":3667:4000  if (addr.supportsERC165InterfaceUnchecked(_INTERFACEID_LSP1)) {... */\n      iszero\n      tag_145\n      jumpi\n        /* \"@lukso/lsp26-contracts/contracts/LSP26FollowerSystem.sol\":3833:3837  addr */\n      dup2\n        /* \"@lukso/lsp26-contracts/contracts/LSP26FollowerSystem.sol\":3810:3856  ILSP1UniversalReceiver(addr).universalReceiver */\n      0xffffffffffffffffffffffffffffffffffffffff\n      and\n      0x6bb56a14\n        /* \"@lukso/lsp26-contracts/contracts/LSP26Constants.sol\":210:276  0x71e02f9f05bcd5816ec4f3134aa2e5a916669537ec6c77fe66ea595fabc2d51a */\n      0x71e02f9f05bcd5816ec4f3134aa2e5a916669537ec6c77fe66ea595fabc2d51a\n        /* \"@lukso/lsp26-contracts/contracts/LSP26FollowerSystem.sol\":3878:3898  _TYPEID_LSP26_FOLLOW */\n      0x00\n      shl\n        /* \"@lukso/lsp26-contracts/contracts/LSP26FollowerSystem.sol\":3937:3947  msg.sender */\n      caller\n        /* \"@lukso/lsp26-contracts/contracts/LSP26FollowerSystem.sol\":3920:3948  abi.encodePacked(msg.sender) */\n      add(0x20, mload(0x40))\n      tag_146\n      swap2\n      swap1\n      tag_122\n      jump\t// in\n    tag_146:\n      mload(0x40)\n      0x20\n      dup2\n      dup4\n      sub\n      sub\n      dup2\n      mstore\n      swap1\n      0x40\n      mstore\n        /* \"@lukso/lsp26-contracts/contracts/LSP26FollowerSystem.sol\":3810:3966  ILSP1UniversalReceiver(addr).universalReceiver(... */\n      mload(0x40)\n      dup4\n      0xffffffff\n      and\n      0xe0\n      shl\n      dup2\n      mstore\n      0x04\n      add\n      tag_147\n      swap3\n      swap2\n      swap1\n      tag_124\n      jump\t// in\n    tag_147:\n      0x00\n      mload(0x40)\n      dup1\n      dup4\n      sub\n      dup2\n      0x00\n      dup8\n      gas\n      call\n      swap3\n      pop\n      pop\n      pop\n      dup1\n      iszero\n      tag_148\n      jumpi\n      pop\n      mload(0x40)\n      returndatasize\n      0x00\n      dup3\n      returndatacopy\n      returndatasize\n      not(0x1f)\n      0x1f\n      dup3\n      add\n      and\n      dup3\n      add\n      dup1\n      0x40\n      mstore\n      pop\n      dup2\n      add\n      swap1\n      tag_149\n      swap2\n      swap1\n      tag_127\n      jump\t// in\n    tag_149:\n      0x01\n    tag_148:\n        /* \"@lukso/lsp26-contracts/contracts/LSP26FollowerSystem.sol\":3790:3990  try... */\n      iszero\n      tag_154\n      jumpi\n      pop\n    tag_154:\n        /* \"@lukso/lsp26-contracts/contracts/LSP26FollowerSystem.sol\":3667:4000  if (addr.supportsERC165InterfaceUnchecked(_INTERFACEID_LSP1)) {... */\n    tag_145:\n        /* \"@lukso/lsp26-contracts/contracts/LSP26FollowerSystem.sol\":3339:4006  {... */\n      pop\n        /* \"@lukso/lsp26-contracts/contracts/LSP26FollowerSystem.sol\":3299:4006  function _follow(address addr) internal {... */\n      pop\n      jump\t// out\n        /* \"@openzeppelin/contracts/utils/structs/EnumerableSet.sol\":9563:9719  function at(AddressSet storage set, uint256 index) internal view returns (address) {... */\n    tag_74:\n        /* \"@openzeppelin/contracts/utils/structs/EnumerableSet.sol\":9637:9644  address */\n      0x00\n        /* \"@openzeppelin/contracts/utils/structs/EnumerableSet.sol\":9687:9709  _at(set._inner, index) */\n      tag_156\n        /* \"@openzeppelin/contracts/utils/structs/EnumerableSet.sol\":9691:9694  set */\n      dup4\n        /* \"@openzeppelin/contracts/utils/structs/EnumerableSet.sol\":9691:9701  set._inner */\n      0x00\n      add\n        /* \"@openzeppelin/contracts/utils/structs/EnumerableSet.sol\":9703:9708  index */\n      dup4\n        /* \"@openzeppelin/contracts/utils/structs/EnumerableSet.sol\":9687:9690  _at */\n      tag_157\n        /* \"@openzeppelin/contracts/utils/structs/EnumerableSet.sol\":9687:9709  _at(set._inner, index) */\n      jump\t// in\n    tag_156:\n        /* \"@openzeppelin/contracts/utils/structs/EnumerableSet.sol\":9679:9710  uint256(_at(set._inner, index)) */\n      0x00\n      shr\n        /* \"@openzeppelin/contracts/utils/structs/EnumerableSet.sol\":9656:9712  return address(uint160(uint256(_at(set._inner, index)))) */\n      swap1\n      pop\n        /* \"@openzeppelin/contracts/utils/structs/EnumerableSet.sol\":9563:9719  function at(AddressSet storage set, uint256 index) internal view returns (address) {... */\n      swap3\n      swap2\n      pop\n      pop\n      jump\t// out\n        /* \"@openzeppelin/contracts/utils/structs/EnumerableSet.sol\":8860:9025  function contains(AddressSet storage set, address value) internal view returns (bool) {... */\n    tag_89:\n        /* \"@openzeppelin/contracts/utils/structs/EnumerableSet.sol\":8940:8944  bool */\n      0x00\n        /* \"@openzeppelin/contracts/utils/structs/EnumerableSet.sol\":8963:9018  _contains(set._inner, bytes32(uint256(uint160(value)))) */\n      tag_159\n        /* \"@openzeppelin/contracts/utils/structs/EnumerableSet.sol\":8973:8976  set */\n      dup4\n        /* \"@openzeppelin/contracts/utils/structs/EnumerableSet.sol\":8973:8983  set._inner */\n      0x00\n      add\n        /* \"@openzeppelin/contracts/utils/structs/EnumerableSet.sol\":9009:9014  value */\n      dup4\n        /* \"@openzeppelin/contracts/utils/structs/EnumerableSet.sol\":8993:9016  uint256(uint160(value)) */\n      0xffffffffffffffffffffffffffffffffffffffff\n      and\n        /* \"@openzeppelin/contracts/utils/structs/EnumerableSet.sol\":8985:9017  bytes32(uint256(uint160(value))) */\n      0x00\n      shl\n        /* \"@openzeppelin/contracts/utils/structs/EnumerableSet.sol\":8963:8972  _contains */\n      tag_160\n        /* \"@openzeppelin/contracts/utils/structs/EnumerableSet.sol\":8963:9018  _contains(set._inner, bytes32(uint256(uint160(value)))) */\n      jump\t// in\n    tag_159:\n        /* \"@openzeppelin/contracts/utils/structs/EnumerableSet.sol\":8956:9018  return _contains(set._inner, bytes32(uint256(uint160(value)))) */\n      swap1\n      pop\n        /* \"@openzeppelin/contracts/utils/structs/EnumerableSet.sol\":8860:9025  function contains(AddressSet storage set, address value) internal view returns (bool) {... */\n      swap3\n      swap2\n      pop\n      pop\n      jump\t// out\n        /* \"@openzeppelin/contracts/utils/structs/EnumerableSet.sol\":8623:8779  function remove(AddressSet storage set, address value) internal returns (bool) {... */\n    tag_111:\n        /* \"@openzeppelin/contracts/utils/structs/EnumerableSet.sol\":8696:8700  bool */\n      0x00\n        /* \"@openzeppelin/contracts/utils/structs/EnumerableSet.sol\":8719:8772  _remove(set._inner, bytes32(uint256(uint160(value)))) */\n      tag_162\n        /* \"@openzeppelin/contracts/utils/structs/EnumerableSet.sol\":8727:8730  set */\n      dup4\n        /* \"@openzeppelin/contracts/utils/structs/EnumerableSet.sol\":8727:8737  set._inner */\n      0x00\n      add\n        /* \"@openzeppelin/contracts/utils/structs/EnumerableSet.sol\":8763:8768  value */\n      dup4\n        /* \"@openzeppelin/contracts/utils/structs/EnumerableSet.sol\":8747:8770  uint256(uint160(value)) */\n      0xffffffffffffffffffffffffffffffffffffffff\n      and\n        /* \"@openzeppelin/contracts/utils/structs/EnumerableSet.sol\":8739:8771  bytes32(uint256(uint160(value))) */\n      0x00\n      shl\n        /* \"@openzeppelin/contracts/utils/structs/EnumerableSet.sol\":8719:8726  _remove */\n      tag_163\n        /* \"@openzeppelin/contracts/utils/structs/EnumerableSet.sol\":8719:8772  _remove(set._inner, bytes32(uint256(uint160(value)))) */\n      jump\t// in\n    tag_162:\n        /* \"@openzeppelin/contracts/utils/structs/EnumerableSet.sol\":8712:8772  return _remove(set._inner, bytes32(uint256(uint160(value)))) */\n      swap1\n      pop\n        /* \"@openzeppelin/contracts/utils/structs/EnumerableSet.sol\":8623:8779  function remove(AddressSet storage set, address value) internal returns (bool) {... */\n      swap3\n      swap2\n      pop\n      pop\n      jump\t// out\n        /* \"@openzeppelin/contracts/utils/introspection/ERC165Checker.sol\":4421:5068  function supportsERC165InterfaceUnchecked(address account, bytes4 interfaceId) internal view returns (bool) {... */\n    tag_119:\n        /* \"@openzeppelin/contracts/utils/introspection/ERC165Checker.sol\":4523:4527  bool */\n      0x00\n        /* \"@openzeppelin/contracts/utils/introspection/ERC165Checker.sol\":4563:4589  bytes memory encodedParams */\n      0x00\n        /* \"@openzeppelin/contracts/utils/introspection/ERC165Checker.sol\":4615:4649  IERC165.supportsInterface.selector */\n      shl(0xe0, 0x01ffc9a7)\n        /* \"@openzeppelin/contracts/utils/introspection/ERC165Checker.sol\":4651:4662  interfaceId */\n      dup4\n        /* \"@openzeppelin/contracts/utils/introspection/ERC165Checker.sol\":4592:4663  abi.encodeWithSelector(IERC165.supportsInterface.selector, interfaceId) */\n      add(0x24, mload(0x40))\n      tag_165\n      swap2\n      swap1\n      tag_166\n      jump\t// in\n    tag_165:\n      mload(0x40)\n      0x20\n      dup2\n      dup4\n      sub\n      sub\n      dup2\n      mstore\n      swap1\n      0x40\n      mstore\n      swap1\n      not(0xffffffffffffffffffffffffffffffffffffffffffffffffffffffff)\n      and\n      0x20\n      dup3\n      add\n      dup1\n      mload\n      0xffffffffffffffffffffffffffffffffffffffffffffffffffffffff\n      dup4\n      dup2\n      dup4\n      and\n      or\n      dup4\n      mstore\n      pop\n      pop\n      pop\n      pop\n        /* \"@openzeppelin/contracts/utils/introspection/ERC165Checker.sol\":4563:4663  bytes memory encodedParams = abi.encodeWithSelector(IERC165.supportsInterface.selector, interfaceId) */\n      swap1\n      pop\n        /* \"@openzeppelin/contracts/utils/introspection/ERC165Checker.sol\":4705:4717  bool success */\n      0x00\n        /* \"@openzeppelin/contracts/utils/introspection/ERC165Checker.sol\":4727:4745  uint256 returnSize */\n      0x00\n        /* \"@openzeppelin/contracts/utils/introspection/ERC165Checker.sol\":4755:4774  uint256 returnValue */\n      0x00\n        /* \"@openzeppelin/contracts/utils/introspection/ERC165Checker.sol\":4899:4903  0x20 */\n      0x20\n        /* \"@openzeppelin/contracts/utils/introspection/ERC165Checker.sol\":4893:4897  0x00 */\n      0x00\n        /* \"@openzeppelin/contracts/utils/introspection/ERC165Checker.sol\":4877:4890  encodedParams */\n      dup6\n        /* \"@openzeppelin/contracts/utils/introspection/ERC165Checker.sol\":4871:4891  mload(encodedParams) */\n      mload\n        /* \"@openzeppelin/contracts/utils/introspection/ERC165Checker.sol\":4864:4868  0x20 */\n      0x20\n        /* \"@openzeppelin/contracts/utils/introspection/ERC165Checker.sol\":4849:4862  encodedParams */\n      dup8\n        /* \"@openzeppelin/contracts/utils/introspection/ERC165Checker.sol\":4845:4869  add(encodedParams, 0x20) */\n      add\n        /* \"@openzeppelin/contracts/utils/introspection/ERC165Checker.sol\":4836:4843  account */\n      dup11\n        /* \"@openzeppelin/contracts/utils/introspection/ERC165Checker.sol\":4829:4834  30000 */\n      0x7530\n        /* \"@openzeppelin/contracts/utils/introspection/ERC165Checker.sol\":4818:4904  staticcall(30000, account, add(encodedParams, 0x20), mload(encodedParams), 0x00, 0x20) */\n      staticcall\n        /* \"@openzeppelin/contracts/utils/introspection/ERC165Checker.sol\":4807:4904  success := staticcall(30000, account, add(encodedParams, 0x20), mload(encodedParams), 0x00, 0x20) */\n      swap3\n      pop\n        /* \"@openzeppelin/contracts/utils/introspection/ERC165Checker.sol\":4931:4947  returndatasize() */\n      returndatasize\n        /* \"@openzeppelin/contracts/utils/introspection/ERC165Checker.sol\":4917:4947  returnSize := returndatasize() */\n      swap2\n      pop\n        /* \"@openzeppelin/contracts/utils/introspection/ERC165Checker.sol\":4981:4985  0x00 */\n      0x00\n        /* \"@openzeppelin/contracts/utils/introspection/ERC165Checker.sol\":4975:4986  mload(0x00) */\n      mload\n        /* \"@openzeppelin/contracts/utils/introspection/ERC165Checker.sol\":4960:4986  returnValue := mload(0x00) */\n      swap1\n      pop\n        /* \"@openzeppelin/contracts/utils/introspection/ERC165Checker.sol\":5013:5020  success */\n      dup3\n        /* \"@openzeppelin/contracts/utils/introspection/ERC165Checker.sol\":5013:5042  success && returnSize >= 0x20 */\n      dup1\n      iszero\n      tag_167\n      jumpi\n      pop\n        /* \"@openzeppelin/contracts/utils/introspection/ERC165Checker.sol\":5038:5042  0x20 */\n      0x20\n        /* \"@openzeppelin/contracts/utils/introspection/ERC165Checker.sol\":5024:5034  returnSize */\n      dup3\n        /* \"@openzeppelin/contracts/utils/introspection/ERC165Checker.sol\":5024:5042  returnSize >= 0x20 */\n      lt\n      iszero\n        /* \"@openzeppelin/contracts/utils/introspection/ERC165Checker.sol\":5013:5042  success && returnSize >= 0x20 */\n    tag_167:\n        /* \"@openzeppelin/contracts/utils/introspection/ERC165Checker.sol\":5013:5061  success && returnSize >= 0x20 && returnValue > 0 */\n      dup1\n      iszero\n      tag_168\n      jumpi\n      pop\n        /* \"@openzeppelin/contracts/utils/introspection/ERC165Checker.sol\":5060:5061  0 */\n      0x00\n        /* \"@openzeppelin/contracts/utils/introspection/ERC165Checker.sol\":5046:5057  returnValue */\n      dup2\n        /* \"@openzeppelin/contracts/utils/introspection/ERC165Checker.sol\":5046:5061  returnValue > 0 */\n      gt\n        /* \"@openzeppelin/contracts/utils/introspection/ERC165Checker.sol\":5013:5061  success && returnSize >= 0x20 && returnValue > 0 */\n    tag_168:\n        /* \"@openzeppelin/contracts/utils/introspection/ERC165Checker.sol\":5006:5061  return success && returnSize >= 0x20 && returnValue > 0 */\n      swap5\n      pop\n      pop\n      pop\n      pop\n      pop\n        /* \"@openzeppelin/contracts/utils/introspection/ERC165Checker.sol\":4421:5068  function supportsERC165InterfaceUnchecked(address account, bytes4 interfaceId) internal view returns (bool) {... */\n      swap3\n      swap2\n      pop\n      pop\n      jump\t// out\n        /* \"@openzeppelin/contracts/utils/structs/EnumerableSet.sol\":4463:4570  function _length(Set storage set) private view returns (uint256) {... */\n    tag_135:\n        /* \"@openzeppelin/contracts/utils/structs/EnumerableSet.sol\":4519:4526  uint256 */\n      0x00\n        /* \"@openzeppelin/contracts/utils/structs/EnumerableSet.sol\":4545:4548  set */\n      dup2\n        /* \"@openzeppelin/contracts/utils/structs/EnumerableSet.sol\":4545:4556  set._values */\n      0x00\n      add\n        /* \"@openzeppelin/contracts/utils/structs/EnumerableSet.sol\":4545:4563  set._values.length */\n      dup1\n      sload\n      swap1\n      pop\n        /* \"@openzeppelin/contracts/utils/structs/EnumerableSet.sol\":4538:4563  return set._values.length */\n      swap1\n      pop\n        /* \"@openzeppelin/contracts/utils/structs/EnumerableSet.sol\":4463:4570  function _length(Set storage set) private view returns (uint256) {... */\n      swap2\n      swap1\n      pop\n      jump\t// out\n        /* \"@openzeppelin/contracts/utils/structs/EnumerableSet.sol\":8305:8455  function add(AddressSet storage set, address value) internal returns (bool) {... */\n    tag_139:\n        /* \"@openzeppelin/contracts/utils/structs/EnumerableSet.sol\":8375:8379  bool */\n      0x00\n        /* \"@openzeppelin/contracts/utils/structs/EnumerableSet.sol\":8398:8448  _add(set._inner, bytes32(uint256(uint160(value)))) */\n      tag_171\n        /* \"@openzeppelin/contracts/utils/structs/EnumerableSet.sol\":8403:8406  set */\n      dup4\n        /* \"@openzeppelin/contracts/utils/structs/EnumerableSet.sol\":8403:8413  set._inner */\n      0x00\n      add\n        /* \"@openzeppelin/contracts/utils/structs/EnumerableSet.sol\":8439:8444  value */\n      dup4\n        /* \"@openzeppelin/contracts/utils/structs/EnumerableSet.sol\":8423:8446  uint256(uint160(value)) */\n      0xffffffffffffffffffffffffffffffffffffffff\n      and\n        /* \"@openzeppelin/contracts/utils/structs/EnumerableSet.sol\":8415:8447  bytes32(uint256(uint160(value))) */\n      0x00\n      shl\n        /* \"@openzeppelin/contracts/utils/structs/EnumerableSet.sol\":8398:8402  _add */\n      tag_172\n        /* \"@openzeppelin/contracts/utils/structs/EnumerableSet.sol\":8398:8448  _add(set._inner, bytes32(uint256(uint160(value)))) */\n      jump\t// in\n    tag_171:\n        /* \"@openzeppelin/contracts/utils/structs/EnumerableSet.sol\":8391:8448  return _add(set._inner, bytes32(uint256(uint160(value)))) */\n      swap1\n      pop\n        /* \"@openzeppelin/contracts/utils/structs/EnumerableSet.sol\":8305:8455  function add(AddressSet storage set, address value) internal returns (bool) {... */\n      swap3\n      swap2\n      pop\n      pop\n      jump\t// out\n        /* \"@openzeppelin/contracts/utils/structs/EnumerableSet.sol\":4912:5030  function _at(Set storage set, uint256 index) private view returns (bytes32) {... */\n    tag_157:\n        /* \"@openzeppelin/contracts/utils/structs/EnumerableSet.sol\":4979:4986  bytes32 */\n      0x00\n        /* \"@openzeppelin/contracts/utils/structs/EnumerableSet.sol\":5005:5008  set */\n      dup3\n        /* \"@openzeppelin/contracts/utils/structs/EnumerableSet.sol\":5005:5016  set._values */\n      0x00\n      add\n        /* \"@openzeppelin/contracts/utils/structs/EnumerableSet.sol\":5017:5022  index */\n      dup3\n        /* \"@openzeppelin/contracts/utils/structs/EnumerableSet.sol\":5005:5023  set._values[index] */\n      dup2\n      sload\n      dup2\n      lt\n      tag_174\n      jumpi\n      tag_175\n      tag_77\n      jump\t// in\n    tag_175:\n    tag_174:\n      swap1\n      0x00\n      mstore\n      keccak256(0x00, 0x20)\n      add\n      sload\n        /* \"@openzeppelin/contracts/utils/structs/EnumerableSet.sol\":4998:5023  return set._values[index] */\n      swap1\n      pop\n        /* \"@openzeppelin/contracts/utils/structs/EnumerableSet.sol\":4912:5030  function _at(Set storage set, uint256 index) private view returns (bytes32) {... */\n      swap3\n      swap2\n      pop\n      pop\n      jump\t// out\n        /* \"@openzeppelin/contracts/utils/structs/EnumerableSet.sol\":4255:4382  function _contains(Set storage set, bytes32 value) private view returns (bool) {... */\n    tag_160:\n        /* \"@openzeppelin/contracts/utils/structs/EnumerableSet.sol\":4328:4332  bool */\n      0x00\n        /* \"@openzeppelin/contracts/utils/structs/EnumerableSet.sol\":4374:4375  0 */\n      0x00\n        /* \"@openzeppelin/contracts/utils/structs/EnumerableSet.sol\":4351:4354  set */\n      dup4\n        /* \"@openzeppelin/contracts/utils/structs/EnumerableSet.sol\":4351:4363  set._indexes */\n      0x01\n      add\n        /* \"@openzeppelin/contracts/utils/structs/EnumerableSet.sol\":4351:4370  set._indexes[value] */\n      0x00\n        /* \"@openzeppelin/contracts/utils/structs/EnumerableSet.sol\":4364:4369  value */\n      dup5\n        /* \"@openzeppelin/contracts/utils/structs/EnumerableSet.sol\":4351:4370  set._indexes[value] */\n      dup2\n      mstore\n      0x20\n      add\n      swap1\n      dup2\n      mstore\n      0x20\n      add\n      0x00\n      keccak256\n      sload\n        /* \"@openzeppelin/contracts/utils/structs/EnumerableSet.sol\":4351:4375  set._indexes[value] != 0 */\n      eq\n      iszero\n        /* \"@openzeppelin/contracts/utils/structs/EnumerableSet.sol\":4344:4375  return set._indexes[value] != 0 */\n      swap1\n      pop\n        /* \"@openzeppelin/contracts/utils/structs/EnumerableSet.sol\":4255:4382  function _contains(Set storage set, bytes32 value) private view returns (bool) {... */\n      swap3\n      swap2\n      pop\n      pop\n      jump\t// out\n        /* \"@openzeppelin/contracts/utils/structs/EnumerableSet.sol\":2786:4174  function _remove(Set storage set, bytes32 value) private returns (bool) {... */\n    tag_163:\n        /* \"@openzeppelin/contracts/utils/structs/EnumerableSet.sol\":2852:2856  bool */\n      0x00\n        /* \"@openzeppelin/contracts/utils/structs/EnumerableSet.sol\":2968:2986  uint256 valueIndex */\n      0x00\n        /* \"@openzeppelin/contracts/utils/structs/EnumerableSet.sol\":2989:2992  set */\n      dup4\n        /* \"@openzeppelin/contracts/utils/structs/EnumerableSet.sol\":2989:3001  set._indexes */\n      0x01\n      add\n        /* \"@openzeppelin/contracts/utils/structs/EnumerableSet.sol\":2989:3008  set._indexes[value] */\n      0x00\n        /* \"@openzeppelin/contracts/utils/structs/EnumerableSet.sol\":3002:3007  value */\n      dup5\n        /* \"@openzeppelin/contracts/utils/structs/EnumerableSet.sol\":2989:3008  set._indexes[value] */\n      dup2\n      mstore\n      0x20\n      add\n      swap1\n      dup2\n      mstore\n      0x20\n      add\n      0x00\n      keccak256\n      sload\n        /* \"@openzeppelin/contracts/utils/structs/EnumerableSet.sol\":2968:3008  uint256 valueIndex = set._indexes[value] */\n      swap1\n      pop\n        /* \"@openzeppelin/contracts/utils/structs/EnumerableSet.sol\":3037:3038  0 */\n      0x00\n        /* \"@openzeppelin/contracts/utils/structs/EnumerableSet.sol\":3023:3033  valueIndex */\n      dup2\n        /* \"@openzeppelin/contracts/utils/structs/EnumerableSet.sol\":3023:3038  valueIndex != 0 */\n      eq\n        /* \"@openzeppelin/contracts/utils/structs/EnumerableSet.sol\":3019:4168  if (valueIndex != 0) {... */\n      tag_179\n      jumpi\n        /* \"@openzeppelin/contracts/utils/structs/EnumerableSet.sol\":3392:3413  uint256 toDeleteIndex */\n      0x00\n        /* \"@openzeppelin/contracts/utils/structs/EnumerableSet.sol\":3429:3430  1 */\n      0x01\n        /* \"@openzeppelin/contracts/utils/structs/EnumerableSet.sol\":3416:3426  valueIndex */\n      dup3\n        /* \"@openzeppelin/contracts/utils/structs/EnumerableSet.sol\":3416:3430  valueIndex - 1 */\n      tag_180\n      swap2\n      swap1\n      tag_63\n      jump\t// in\n    tag_180:\n        /* \"@openzeppelin/contracts/utils/structs/EnumerableSet.sol\":3392:3430  uint256 toDeleteIndex = valueIndex - 1 */\n      swap1\n      pop\n        /* \"@openzeppelin/contracts/utils/structs/EnumerableSet.sol\":3444:3461  uint256 lastIndex */\n      0x00\n        /* \"@openzeppelin/contracts/utils/structs/EnumerableSet.sol\":3485:3486  1 */\n      0x01\n        /* \"@openzeppelin/contracts/utils/structs/EnumerableSet.sol\":3464:3467  set */\n      dup7\n        /* \"@openzeppelin/contracts/utils/structs/EnumerableSet.sol\":3464:3475  set._values */\n      0x00\n      add\n        /* \"@openzeppelin/contracts/utils/structs/EnumerableSet.sol\":3464:3482  set._values.length */\n      dup1\n      sload\n      swap1\n      pop\n        /* \"@openzeppelin/contracts/utils/structs/EnumerableSet.sol\":3464:3486  set._values.length - 1 */\n      tag_181\n      swap2\n      swap1\n      tag_63\n      jump\t// in\n    tag_181:\n        /* \"@openzeppelin/contracts/utils/structs/EnumerableSet.sol\":3444:3486  uint256 lastIndex = set._values.length - 1 */\n      swap1\n      pop\n        /* \"@openzeppelin/contracts/utils/structs/EnumerableSet.sol\":3518:3531  toDeleteIndex */\n      dup2\n        /* \"@openzeppelin/contracts/utils/structs/EnumerableSet.sol\":3505:3514  lastIndex */\n      dup2\n        /* \"@openzeppelin/contracts/utils/structs/EnumerableSet.sol\":3505:3531  lastIndex != toDeleteIndex */\n      eq\n        /* \"@openzeppelin/contracts/utils/structs/EnumerableSet.sol\":3501:3899  if (lastIndex != toDeleteIndex) {... */\n      tag_182\n      jumpi\n        /* \"@openzeppelin/contracts/utils/structs/EnumerableSet.sol\":3551:3568  bytes32 lastValue */\n      0x00\n        /* \"@openzeppelin/contracts/utils/structs/EnumerableSet.sol\":3571:3574  set */\n      dup7\n        /* \"@openzeppelin/contracts/utils/structs/EnumerableSet.sol\":3571:3582  set._values */\n      0x00\n      add\n        /* \"@openzeppelin/contracts/utils/structs/EnumerableSet.sol\":3583:3592  lastIndex */\n      dup3\n        /* \"@openzeppelin/contracts/utils/structs/EnumerableSet.sol\":3571:3593  set._values[lastIndex] */\n      dup2\n      sload\n      dup2\n      lt\n      tag_183\n      jumpi\n      tag_184\n      tag_77\n      jump\t// in\n    tag_184:\n    tag_183:\n      swap1\n      0x00\n      mstore\n      keccak256(0x00, 0x20)\n      add\n      sload\n        /* \"@openzeppelin/contracts/utils/structs/EnumerableSet.sol\":3551:3593  bytes32 lastValue = set._values[lastIndex] */\n      swap1\n      pop\n        /* \"@openzeppelin/contracts/utils/structs/EnumerableSet.sol\":3722:3731  lastValue */\n      dup1\n        /* \"@openzeppelin/contracts/utils/structs/EnumerableSet.sol\":3693:3696  set */\n      dup8\n        /* \"@openzeppelin/contracts/utils/structs/EnumerableSet.sol\":3693:3704  set._values */\n      0x00\n      add\n        /* \"@openzeppelin/contracts/utils/structs/EnumerableSet.sol\":3705:3718  toDeleteIndex */\n      dup5\n        /* \"@openzeppelin/contracts/utils/structs/EnumerableSet.sol\":3693:3719  set._values[toDeleteIndex] */\n      dup2\n      sload\n      dup2\n      lt\n      tag_186\n      jumpi\n      tag_187\n      tag_77\n      jump\t// in\n    tag_187:\n    tag_186:\n      swap1\n      0x00\n      mstore\n      keccak256(0x00, 0x20)\n      add\n        /* \"@openzeppelin/contracts/utils/structs/EnumerableSet.sol\":3693:3731  set._values[toDeleteIndex] = lastValue */\n      dup2\n      swap1\n      sstore\n      pop\n        /* \"@openzeppelin/contracts/utils/structs/EnumerableSet.sol\":3831:3841  valueIndex */\n      dup4\n        /* \"@openzeppelin/contracts/utils/structs/EnumerableSet.sol\":3805:3808  set */\n      dup8\n        /* \"@openzeppelin/contracts/utils/structs/EnumerableSet.sol\":3805:3817  set._indexes */\n      0x01\n      add\n        /* \"@openzeppelin/contracts/utils/structs/EnumerableSet.sol\":3805:3828  set._indexes[lastValue] */\n      0x00\n        /* \"@openzeppelin/contracts/utils/structs/EnumerableSet.sol\":3818:3827  lastValue */\n      dup4\n        /* \"@openzeppelin/contracts/utils/structs/EnumerableSet.sol\":3805:3828  set._indexes[lastValue] */\n      dup2\n      mstore\n      0x20\n      add\n      swap1\n      dup2\n      mstore\n      0x20\n      add\n      0x00\n      keccak256\n        /* \"@openzeppelin/contracts/utils/structs/EnumerableSet.sol\":3805:3841  set._indexes[lastValue] = valueIndex */\n      dup2\n      swap1\n      sstore\n      pop\n        /* \"@openzeppelin/contracts/utils/structs/EnumerableSet.sol\":3533:3899  {... */\n      pop\n        /* \"@openzeppelin/contracts/utils/structs/EnumerableSet.sol\":3501:3899  if (lastIndex != toDeleteIndex) {... */\n    tag_182:\n        /* \"@openzeppelin/contracts/utils/structs/EnumerableSet.sol\":3977:3980  set */\n      dup6\n        /* \"@openzeppelin/contracts/utils/structs/EnumerableSet.sol\":3977:3988  set._values */\n      0x00\n      add\n        /* \"@openzeppelin/contracts/utils/structs/EnumerableSet.sol\":3977:3994  set._values.pop() */\n      dup1\n      sload\n      dup1\n      tag_189\n      jumpi\n      tag_190\n      tag_191\n      jump\t// in\n    tag_190:\n    tag_189:\n      0x01\n      swap1\n      sub\n      dup2\n      dup2\n      swap1\n      0x00\n      mstore\n      keccak256(0x00, 0x20)\n      add\n      0x00\n      swap1\n      sstore\n      swap1\n      sstore\n        /* \"@openzeppelin/contracts/utils/structs/EnumerableSet.sol\":4069:4072  set */\n      dup6\n        /* \"@openzeppelin/contracts/utils/structs/EnumerableSet.sol\":4069:4081  set._indexes */\n      0x01\n      add\n        /* \"@openzeppelin/contracts/utils/structs/EnumerableSet.sol\":4069:4088  set._indexes[value] */\n      0x00\n        /* \"@openzeppelin/contracts/utils/structs/EnumerableSet.sol\":4082:4087  value */\n      dup7\n        /* \"@openzeppelin/contracts/utils/structs/EnumerableSet.sol\":4069:4088  set._indexes[value] */\n      dup2\n      mstore\n      0x20\n      add\n      swap1\n      dup2\n      mstore\n      0x20\n      add\n      0x00\n      keccak256\n        /* \"@openzeppelin/contracts/utils/structs/EnumerableSet.sol\":4062:4088  delete set._indexes[value] */\n      0x00\n      swap1\n      sstore\n        /* \"@openzeppelin/contracts/utils/structs/EnumerableSet.sol\":4110:4114  true */\n      0x01\n        /* \"@openzeppelin/contracts/utils/structs/EnumerableSet.sol\":4103:4114  return true */\n      swap4\n      pop\n      pop\n      pop\n      pop\n      jump(tag_178)\n        /* \"@openzeppelin/contracts/utils/structs/EnumerableSet.sol\":3019:4168  if (valueIndex != 0) {... */\n    tag_179:\n        /* \"@openzeppelin/contracts/utils/structs/EnumerableSet.sol\":4152:4157  false */\n      0x00\n        /* \"@openzeppelin/contracts/utils/structs/EnumerableSet.sol\":4145:4157  return false */\n      swap2\n      pop\n      pop\n        /* \"@openzeppelin/contracts/utils/structs/EnumerableSet.sol\":2786:4174  function _remove(Set storage set, bytes32 value) private returns (bool) {... */\n    tag_178:\n      swap3\n      swap2\n      pop\n      pop\n      jump\t// out\n        /* \"@openzeppelin/contracts/utils/structs/EnumerableSet.sol\":2214:2618  function _add(Set storage set, bytes32 value) private returns (bool) {... */\n    tag_172:\n        /* \"@openzeppelin/contracts/utils/structs/EnumerableSet.sol\":2277:2281  bool */\n      0x00\n        /* \"@openzeppelin/contracts/utils/structs/EnumerableSet.sol\":2298:2319  _contains(set, value) */\n      tag_195\n        /* \"@openzeppelin/contracts/utils/structs/EnumerableSet.sol\":2308:2311  set */\n      dup4\n        /* \"@openzeppelin/contracts/utils/structs/EnumerableSet.sol\":2313:2318  value */\n      dup4\n        /* \"@openzeppelin/contracts/utils/structs/EnumerableSet.sol\":2298:2307  _contains */\n      tag_160\n        /* \"@openzeppelin/contracts/utils/structs/EnumerableSet.sol\":2298:2319  _contains(set, value) */\n      jump\t// in\n    tag_195:\n        /* \"@openzeppelin/contracts/utils/structs/EnumerableSet.sol\":2293:2612  if (!_contains(set, value)) {... */\n      tag_196\n      jumpi\n        /* \"@openzeppelin/contracts/utils/structs/EnumerableSet.sol\":2335:2338  set */\n      dup3\n        /* \"@openzeppelin/contracts/utils/structs/EnumerableSet.sol\":2335:2346  set._values */\n      0x00\n      add\n        /* \"@openzeppelin/contracts/utils/structs/EnumerableSet.sol\":2352:2357  value */\n      dup3\n        /* \"@openzeppelin/contracts/utils/structs/EnumerableSet.sol\":2335:2358  set._values.push(value) */\n      swap1\n      dup1\n      0x01\n      dup2\n      sload\n      add\n      dup1\n      dup3\n      sstore\n      dup1\n      swap2\n      pop\n      pop\n      0x01\n      swap1\n      sub\n      swap1\n      0x00\n      mstore\n      keccak256(0x00, 0x20)\n      add\n      0x00\n      swap1\n      swap2\n      swap1\n      swap2\n      swap1\n      swap2\n      pop\n      sstore\n        /* \"@openzeppelin/contracts/utils/structs/EnumerableSet.sol\":2515:2518  set */\n      dup3\n        /* \"@openzeppelin/contracts/utils/structs/EnumerableSet.sol\":2515:2526  set._values */\n      0x00\n      add\n        /* \"@openzeppelin/contracts/utils/structs/EnumerableSet.sol\":2515:2533  set._values.length */\n      dup1\n      sload\n      swap1\n      pop\n        /* \"@openzeppelin/contracts/utils/structs/EnumerableSet.sol\":2493:2496  set */\n      dup4\n        /* \"@openzeppelin/contracts/utils/structs/EnumerableSet.sol\":2493:2505  set._indexes */\n      0x01\n      add\n        /* \"@openzeppelin/contracts/utils/structs/EnumerableSet.sol\":2493:2512  set._indexes[value] */\n      0x00\n        /* \"@openzeppelin/contracts/utils/structs/EnumerableSet.sol\":2506:2511  value */\n      dup5\n        /* \"@openzeppelin/contracts/utils/structs/EnumerableSet.sol\":2493:2512  set._indexes[value] */\n      dup2\n      mstore\n      0x20\n      add\n      swap1\n      dup2\n      mstore\n      0x20\n      add\n      0x00\n      keccak256\n        /* \"@openzeppelin/contracts/utils/structs/EnumerableSet.sol\":2493:2533  set._indexes[value] = set._values.length */\n      dup2\n      swap1\n      sstore\n      pop\n        /* \"@openzeppelin/contracts/utils/structs/EnumerableSet.sol\":2554:2558  true */\n      0x01\n        /* \"@openzeppelin/contracts/utils/structs/EnumerableSet.sol\":2547:2558  return true */\n      swap1\n      pop\n      jump(tag_194)\n        /* \"@openzeppelin/contracts/utils/structs/EnumerableSet.sol\":2293:2612  if (!_contains(set, value)) {... */\n    tag_196:\n        /* \"@openzeppelin/contracts/utils/structs/EnumerableSet.sol\":2596:2601  false */\n      0x00\n        /* \"@openzeppelin/contracts/utils/structs/EnumerableSet.sol\":2589:2601  return false */\n      swap1\n      pop\n        /* \"@openzeppelin/contracts/utils/structs/EnumerableSet.sol\":2214:2618  function _add(Set storage set, bytes32 value) private returns (bool) {... */\n    tag_194:\n      swap3\n      swap2\n      pop\n      pop\n      jump\t// out\n        /* \"#utility.yul\":7:82   */\n    tag_199:\n        /* \"#utility.yul\":40:46   */\n      0x00\n        /* \"#utility.yul\":73:75   */\n      0x40\n        /* \"#utility.yul\":67:76   */\n      mload\n        /* \"#utility.yul\":57:76   */\n      swap1\n      pop\n        /* \"#utility.yul\":7:82   */\n      swap1\n      jump\t// out\n        /* \"#utility.yul\":88:205   */\n    tag_200:\n        /* \"#utility.yul\":197:198   */\n      0x00\n        /* \"#utility.yul\":194:195   */\n      0x00\n        /* \"#utility.yul\":187:199   */\n      revert\n        /* \"#utility.yul\":211:328   */\n    tag_201:\n        /* \"#utility.yul\":320:321   */\n      0x00\n        /* \"#utility.yul\":317:318   */\n      0x00\n        /* \"#utility.yul\":310:322   */\n      revert\n        /* \"#utility.yul\":334:460   */\n    tag_202:\n        /* \"#utility.yul\":371:378   */\n      0x00\n        /* \"#utility.yul\":411:453   */\n      0xffffffffffffffffffffffffffffffffffffffff\n        /* \"#utility.yul\":404:409   */\n      dup3\n        /* \"#utility.yul\":400:454   */\n      and\n        /* \"#utility.yul\":389:454   */\n      swap1\n      pop\n        /* \"#utility.yul\":334:460   */\n      swap2\n      swap1\n      pop\n      jump\t// out\n        /* \"#utility.yul\":466:562   */\n    tag_203:\n        /* \"#utility.yul\":503:510   */\n      0x00\n        /* \"#utility.yul\":532:556   */\n      tag_251\n        /* \"#utility.yul\":550:555   */\n      dup3\n        /* \"#utility.yul\":532:556   */\n      tag_202\n      jump\t// in\n    tag_251:\n        /* \"#utility.yul\":521:556   */\n      swap1\n      pop\n        /* \"#utility.yul\":466:562   */\n      swap2\n      swap1\n      pop\n      jump\t// out\n        /* \"#utility.yul\":568:690   */\n    tag_204:\n        /* \"#utility.yul\":641:665   */\n      tag_253\n        /* \"#utility.yul\":659:664   */\n      dup2\n        /* \"#utility.yul\":641:665   */\n      tag_203\n      jump\t// in\n    tag_253:\n        /* \"#utility.yul\":634:639   */\n      dup2\n        /* \"#utility.yul\":631:666   */\n      eq\n        /* \"#utility.yul\":621:684   */\n      tag_254\n      jumpi\n        /* \"#utility.yul\":680:681   */\n      0x00\n        /* \"#utility.yul\":677:678   */\n      0x00\n        /* \"#utility.yul\":670:682   */\n      revert\n        /* \"#utility.yul\":621:684   */\n    tag_254:\n        /* \"#utility.yul\":568:690   */\n      pop\n      jump\t// out\n        /* \"#utility.yul\":696:835   */\n    tag_205:\n        /* \"#utility.yul\":742:747   */\n      0x00\n        /* \"#utility.yul\":780:786   */\n      dup2\n        /* \"#utility.yul\":767:787   */\n      calldataload\n        /* \"#utility.yul\":758:787   */\n      swap1\n      pop\n        /* \"#utility.yul\":796:829   */\n      tag_256\n        /* \"#utility.yul\":823:828   */\n      dup2\n        /* \"#utility.yul\":796:829   */\n      tag_204\n      jump\t// in\n    tag_256:\n        /* \"#utility.yul\":696:835   */\n      swap3\n      swap2\n      pop\n      pop\n      jump\t// out\n        /* \"#utility.yul\":841:1170   */\n    tag_15:\n        /* \"#utility.yul\":900:906   */\n      0x00\n        /* \"#utility.yul\":949:951   */\n      0x20\n        /* \"#utility.yul\":937:946   */\n      dup3\n        /* \"#utility.yul\":928:935   */\n      dup5\n        /* \"#utility.yul\":924:947   */\n      sub\n        /* \"#utility.yul\":920:952   */\n      slt\n        /* \"#utility.yul\":917:1036   */\n      iszero\n      tag_258\n      jumpi\n        /* \"#utility.yul\":955:1034   */\n      tag_259\n      tag_200\n      jump\t// in\n    tag_259:\n        /* \"#utility.yul\":917:1036   */\n    tag_258:\n        /* \"#utility.yul\":1075:1076   */\n      0x00\n        /* \"#utility.yul\":1100:1153   */\n      tag_260\n        /* \"#utility.yul\":1145:1152   */\n      dup5\n        /* \"#utility.yul\":1136:1142   */\n      dup3\n        /* \"#utility.yul\":1125:1134   */\n      dup6\n        /* \"#utility.yul\":1121:1143   */\n      add\n        /* \"#utility.yul\":1100:1153   */\n      tag_205\n      jump\t// in\n    tag_260:\n        /* \"#utility.yul\":1090:1153   */\n      swap2\n      pop\n        /* \"#utility.yul\":1046:1163   */\n      pop\n        /* \"#utility.yul\":841:1170   */\n      swap3\n      swap2\n      pop\n      pop\n      jump\t// out\n        /* \"#utility.yul\":1176:1253   */\n    tag_206:\n        /* \"#utility.yul\":1213:1220   */\n      0x00\n        /* \"#utility.yul\":1242:1247   */\n      dup2\n        /* \"#utility.yul\":1231:1247   */\n      swap1\n      pop\n        /* \"#utility.yul\":1176:1253   */\n      swap2\n      swap1\n      pop\n      jump\t// out\n        /* \"#utility.yul\":1259:1377   */\n    tag_207:\n        /* \"#utility.yul\":1346:1370   */\n      tag_263\n        /* \"#utility.yul\":1364:1369   */\n      dup2\n        /* \"#utility.yul\":1346:1370   */\n      tag_206\n      jump\t// in\n    tag_263:\n        /* \"#utility.yul\":1341:1344   */\n      dup3\n        /* \"#utility.yul\":1334:1371   */\n      mstore\n        /* \"#utility.yul\":1259:1377   */\n      pop\n      pop\n      jump\t// out\n        /* \"#utility.yul\":1383:1605   */\n    tag_21:\n        /* \"#utility.yul\":1476:1480   */\n      0x00\n        /* \"#utility.yul\":1514:1516   */\n      0x20\n        /* \"#utility.yul\":1503:1512   */\n      dup3\n        /* \"#utility.yul\":1499:1517   */\n      add\n        /* \"#utility.yul\":1491:1517   */\n      swap1\n      pop\n        /* \"#utility.yul\":1527:1598   */\n      tag_265\n        /* \"#utility.yul\":1595:1596   */\n      0x00\n        /* \"#utility.yul\":1584:1593   */\n      dup4\n        /* \"#utility.yul\":1580:1597   */\n      add\n        /* \"#utility.yul\":1571:1577   */\n      dup5\n        /* \"#utility.yul\":1527:1598   */\n      tag_207\n      jump\t// in\n    tag_265:\n        /* \"#utility.yul\":1383:1605   */\n      swap3\n      swap2\n      pop\n      pop\n      jump\t// out\n        /* \"#utility.yul\":1611:1733   */\n    tag_208:\n        /* \"#utility.yul\":1684:1708   */\n      tag_267\n        /* \"#utility.yul\":1702:1707   */\n      dup2\n        /* \"#utility.yul\":1684:1708   */\n      tag_206\n      jump\t// in\n    tag_267:\n        /* \"#utility.yul\":1677:1682   */\n      dup2\n        /* \"#utility.yul\":1674:1709   */\n      eq\n        /* \"#utility.yul\":1664:1727   */\n      tag_268\n      jumpi\n        /* \"#utility.yul\":1723:1724   */\n      0x00\n        /* \"#utility.yul\":1720:1721   */\n      0x00\n        /* \"#utility.yul\":1713:1725   */\n      revert\n        /* \"#utility.yul\":1664:1727   */\n    tag_268:\n        /* \"#utility.yul\":1611:1733   */\n      pop\n      jump\t// out\n        /* \"#utility.yul\":1739:1878   */\n    tag_209:\n        /* \"#utility.yul\":1785:1790   */\n      0x00\n        /* \"#utility.yul\":1823:1829   */\n      dup2\n        /* \"#utility.yul\":1810:1830   */\n      calldataload\n        /* \"#utility.yul\":1801:1830   */\n      swap1\n      pop\n        /* \"#utility.yul\":1839:1872   */\n      tag_270\n        /* \"#utility.yul\":1866:1871   */\n      dup2\n        /* \"#utility.yul\":1839:1872   */\n      tag_208\n      jump\t// in\n    tag_270:\n        /* \"#utility.yul\":1739:1878   */\n      swap3\n      swap2\n      pop\n      pop\n      jump\t// out\n        /* \"#utility.yul\":1884:2503   */\n    tag_27:\n        /* \"#utility.yul\":1961:1967   */\n      0x00\n        /* \"#utility.yul\":1969:1975   */\n      0x00\n        /* \"#utility.yul\":1977:1983   */\n      0x00\n        /* \"#utility.yul\":2026:2028   */\n      0x60\n        /* \"#utility.yul\":2014:2023   */\n      dup5\n        /* \"#utility.yul\":2005:2012   */\n      dup7\n        /* \"#utility.yul\":2001:2024   */\n      sub\n        /* \"#utility.yul\":1997:2029   */\n      slt\n        /* \"#utility.yul\":1994:2113   */\n      iszero\n      tag_272\n      jumpi\n        /* \"#utility.yul\":2032:2111   */\n      tag_273\n      tag_200\n      jump\t// in\n    tag_273:\n        /* \"#utility.yul\":1994:2113   */\n    tag_272:\n        /* \"#utility.yul\":2152:2153   */\n      0x00\n        /* \"#utility.yul\":2177:2230   */\n      tag_274\n        /* \"#utility.yul\":2222:2229   */\n      dup7\n        /* \"#utility.yul\":2213:2219   */\n      dup3\n        /* \"#utility.yul\":2202:2211   */\n      dup8\n        /* \"#utility.yul\":2198:2220   */\n      add\n        /* \"#utility.yul\":2177:2230   */\n      tag_205\n      jump\t// in\n    tag_274:\n        /* \"#utility.yul\":2167:2230   */\n      swap4\n      pop\n        /* \"#utility.yul\":2123:2240   */\n      pop\n        /* \"#utility.yul\":2279:2281   */\n      0x20\n        /* \"#utility.yul\":2305:2358   */\n      tag_275\n        /* \"#utility.yul\":2350:2357   */\n      dup7\n        /* \"#utility.yul\":2341:2347   */\n      dup3\n        /* \"#utility.yul\":2330:2339   */\n      dup8\n        /* \"#utility.yul\":2326:2348   */\n      add\n        /* \"#utility.yul\":2305:2358   */\n      tag_209\n      jump\t// in\n    tag_275:\n        /* \"#utility.yul\":2295:2358   */\n      swap3\n      pop\n        /* \"#utility.yul\":2250:2368   */\n      pop\n        /* \"#utility.yul\":2407:2409   */\n      0x40\n        /* \"#utility.yul\":2433:2486   */\n      tag_276\n        /* \"#utility.yul\":2478:2485   */\n      dup7\n        /* \"#utility.yul\":2469:2475   */\n      dup3\n        /* \"#utility.yul\":2458:2467   */\n      dup8\n        /* \"#utility.yul\":2454:2476   */\n      add\n        /* \"#utility.yul\":2433:2486   */\n      tag_209\n      jump\t// in\n    tag_276:\n        /* \"#utility.yul\":2423:2486   */\n      swap2\n      pop\n        /* \"#utility.yul\":2378:2496   */\n      pop\n        /* \"#utility.yul\":1884:2503   */\n      swap3\n      pop\n      swap3\n      pop\n      swap3\n      jump\t// out\n        /* \"#utility.yul\":2509:2623   */\n    tag_210:\n        /* \"#utility.yul\":2576:2582   */\n      0x00\n        /* \"#utility.yul\":2610:2615   */\n      dup2\n        /* \"#utility.yul\":2604:2616   */\n      mload\n        /* \"#utility.yul\":2594:2616   */\n      swap1\n      pop\n        /* \"#utility.yul\":2509:2623   */\n      swap2\n      swap1\n      pop\n      jump\t// out\n        /* \"#utility.yul\":2629:2813   */\n    tag_211:\n        /* \"#utility.yul\":2728:2739   */\n      0x00\n        /* \"#utility.yul\":2762:2768   */\n      dup3\n        /* \"#utility.yul\":2757:2760   */\n      dup3\n        /* \"#utility.yul\":2750:2769   */\n      mstore\n        /* \"#utility.yul\":2802:2806   */\n      0x20\n        /* \"#utility.yul\":2797:2800   */\n      dup3\n        /* \"#utility.yul\":2793:2807   */\n      add\n        /* \"#utility.yul\":2778:2807   */\n      swap1\n      pop\n        /* \"#utility.yul\":2629:2813   */\n      swap3\n      swap2\n      pop\n      pop\n      jump\t// out\n        /* \"#utility.yul\":2819:2951   */\n    tag_212:\n        /* \"#utility.yul\":2886:2890   */\n      0x00\n        /* \"#utility.yul\":2909:2912   */\n      dup2\n        /* \"#utility.yul\":2901:2912   */\n      swap1\n      pop\n        /* \"#utility.yul\":2939:2943   */\n      0x20\n        /* \"#utility.yul\":2934:2937   */\n      dup3\n        /* \"#utility.yul\":2930:2944   */\n      add\n        /* \"#utility.yul\":2922:2944   */\n      swap1\n      pop\n        /* \"#utility.yul\":2819:2951   */\n      swap2\n      swap1\n      pop\n      jump\t// out\n        /* \"#utility.yul\":2957:3065   */\n    tag_213:\n        /* \"#utility.yul\":3034:3058   */\n      tag_281\n        /* \"#utility.yul\":3052:3057   */\n      dup2\n        /* \"#utility.yul\":3034:3058   */\n      tag_203\n      jump\t// in\n    tag_281:\n        /* \"#utility.yul\":3029:3032   */\n      dup3\n        /* \"#utility.yul\":3022:3059   */\n      mstore\n        /* \"#utility.yul\":2957:3065   */\n      pop\n      pop\n      jump\t// out\n        /* \"#utility.yul\":3071:3250   */\n    tag_214:\n        /* \"#utility.yul\":3140:3150   */\n      0x00\n        /* \"#utility.yul\":3161:3207   */\n      tag_283\n        /* \"#utility.yul\":3203:3206   */\n      dup4\n        /* \"#utility.yul\":3195:3201   */\n      dup4\n        /* \"#utility.yul\":3161:3207   */\n      tag_213\n      jump\t// in\n    tag_283:\n        /* \"#utility.yul\":3239:3243   */\n      0x20\n        /* \"#utility.yul\":3234:3237   */\n      dup4\n        /* \"#utility.yul\":3230:3244   */\n      add\n        /* \"#utility.yul\":3216:3244   */\n      swap1\n      pop\n        /* \"#utility.yul\":3071:3250   */\n      swap3\n      swap2\n      pop\n      pop\n      jump\t// out\n        /* \"#utility.yul\":3256:3369   */\n    tag_215:\n        /* \"#utility.yul\":3326:3330   */\n      0x00\n        /* \"#utility.yul\":3358:3362   */\n      0x20\n        /* \"#utility.yul\":3353:3356   */\n      dup3\n        /* \"#utility.yul\":3349:3363   */\n      add\n        /* \"#utility.yul\":3341:3363   */\n      swap1\n      pop\n        /* \"#utility.yul\":3256:3369   */\n      swap2\n      swap1\n      pop\n      jump\t// out\n        /* \"#utility.yul\":3405:4137   */\n    tag_216:\n        /* \"#utility.yul\":3524:3527   */\n      0x00\n        /* \"#utility.yul\":3553:3607   */\n      tag_286\n        /* \"#utility.yul\":3601:3606   */\n      dup3\n        /* \"#utility.yul\":3553:3607   */\n      tag_210\n      jump\t// in\n    tag_286:\n        /* \"#utility.yul\":3623:3709   */\n      tag_287\n        /* \"#utility.yul\":3702:3708   */\n      dup2\n        /* \"#utility.yul\":3697:3700   */\n      dup6\n        /* \"#utility.yul\":3623:3709   */\n      tag_211\n      jump\t// in\n    tag_287:\n        /* \"#utility.yul\":3616:3709   */\n      swap4\n      pop\n        /* \"#utility.yul\":3733:3789   */\n      tag_288\n        /* \"#utility.yul\":3783:3788   */\n      dup4\n        /* \"#utility.yul\":3733:3789   */\n      tag_212\n      jump\t// in\n    tag_288:\n        /* \"#utility.yul\":3812:3819   */\n      dup1\n        /* \"#utility.yul\":3843:3844   */\n      0x00\n        /* \"#utility.yul\":3828:4112   */\n    tag_289:\n        /* \"#utility.yul\":3853:3859   */\n      dup4\n        /* \"#utility.yul\":3850:3851   */\n      dup2\n        /* \"#utility.yul\":3847:3860   */\n      lt\n        /* \"#utility.yul\":3828:4112   */\n      iszero\n      tag_291\n      jumpi\n        /* \"#utility.yul\":3929:3935   */\n      dup2\n        /* \"#utility.yul\":3923:3936   */\n      mload\n        /* \"#utility.yul\":3956:4019   */\n      tag_292\n        /* \"#utility.yul\":4015:4018   */\n      dup9\n        /* \"#utility.yul\":4000:4013   */\n      dup3\n        /* \"#utility.yul\":3956:4019   */\n      tag_214\n      jump\t// in\n    tag_292:\n        /* \"#utility.yul\":3949:4019   */\n      swap8\n      pop\n        /* \"#utility.yul\":4042:4102   */\n      tag_293\n        /* \"#utility.yul\":4095:4101   */\n      dup4\n        /* \"#utility.yul\":4042:4102   */\n      tag_215\n      jump\t// in\n    tag_293:\n        /* \"#utility.yul\":4032:4102   */\n      swap3\n      pop\n        /* \"#utility.yul\":3888:4112   */\n      pop\n        /* \"#utility.yul\":3875:3876   */\n      0x01\n        /* \"#utility.yul\":3872:3873   */\n      dup2\n        /* \"#utility.yul\":3868:3877   */\n      add\n        /* \"#utility.yul\":3863:3877   */\n      swap1\n      pop\n        /* \"#utility.yul\":3828:4112   */\n      jump(tag_289)\n    tag_291:\n        /* \"#utility.yul\":3832:3846   */\n      pop\n        /* \"#utility.yul\":4128:4131   */\n      dup6\n        /* \"#utility.yul\":4121:4131   */\n      swap4\n      pop\n        /* \"#utility.yul\":3529:4137   */\n      pop\n      pop\n      pop\n        /* \"#utility.yul\":3405:4137   */\n      swap3\n      swap2\n      pop\n      pop\n      jump\t// out\n        /* \"#utility.yul\":4143:4516   */\n    tag_30:\n        /* \"#utility.yul\":4286:4290   */\n      0x00\n        /* \"#utility.yul\":4324:4326   */\n      0x20\n        /* \"#utility.yul\":4313:4322   */\n      dup3\n        /* \"#utility.yul\":4309:4327   */\n      add\n        /* \"#utility.yul\":4301:4327   */\n      swap1\n      pop\n        /* \"#utility.yul\":4373:4382   */\n      dup2\n        /* \"#utility.yul\":4367:4371   */\n      dup2\n        /* \"#utility.yul\":4363:4383   */\n      sub\n        /* \"#utility.yul\":4359:4360   */\n      0x00\n        /* \"#utility.yul\":4348:4357   */\n      dup4\n        /* \"#utility.yul\":4344:4361   */\n      add\n        /* \"#utility.yul\":4337:4384   */\n      mstore\n        /* \"#utility.yul\":4401:4509   */\n      tag_295\n        /* \"#utility.yul\":4504:4508   */\n      dup2\n        /* \"#utility.yul\":4495:4501   */\n      dup5\n        /* \"#utility.yul\":4401:4509   */\n      tag_216\n      jump\t// in\n    tag_295:\n        /* \"#utility.yul\":4393:4509   */\n      swap1\n      pop\n        /* \"#utility.yul\":4143:4516   */\n      swap3\n      swap2\n      pop\n      pop\n      jump\t// out\n        /* \"#utility.yul\":4522:4639   */\n    tag_217:\n        /* \"#utility.yul\":4631:4632   */\n      0x00\n        /* \"#utility.yul\":4628:4629   */\n      0x00\n        /* \"#utility.yul\":4621:4633   */\n      revert\n        /* \"#utility.yul\":4645:4747   */\n    tag_218:\n        /* \"#utility.yul\":4686:4692   */\n      0x00\n        /* \"#utility.yul\":4737:4739   */\n      0x1f\n        /* \"#utility.yul\":4733:4740   */\n      not\n        /* \"#utility.yul\":4728:4730   */\n      0x1f\n        /* \"#utility.yul\":4721:4726   */\n      dup4\n        /* \"#utility.yul\":4717:4731   */\n      add\n        /* \"#utility.yul\":4713:4741   */\n      and\n        /* \"#utility.yul\":4703:4741   */\n      swap1\n      pop\n        /* \"#utility.yul\":4645:4747   */\n      swap2\n      swap1\n      pop\n      jump\t// out\n        /* \"#utility.yul\":4753:4933   */\n    tag_66:\n        /* \"#utility.yul\":4801:4878   */\n      0x4e487b7100000000000000000000000000000000000000000000000000000000\n        /* \"#utility.yul\":4798:4799   */\n      0x00\n        /* \"#utility.yul\":4791:4879   */\n      mstore\n        /* \"#utility.yul\":4898:4902   */\n      0x41\n        /* \"#utility.yul\":4895:4896   */\n      0x04\n        /* \"#utility.yul\":4888:4903   */\n      mstore\n        /* \"#utility.yul\":4922:4926   */\n      0x24\n        /* \"#utility.yul\":4919:4920   */\n      0x00\n        /* \"#utility.yul\":4912:4927   */\n      revert\n        /* \"#utility.yul\":4939:5220   */\n    tag_219:\n        /* \"#utility.yul\":5022:5049   */\n      tag_300\n        /* \"#utility.yul\":5044:5048   */\n      dup3\n        /* \"#utility.yul\":5022:5049   */\n      tag_218\n      jump\t// in\n    tag_300:\n        /* \"#utility.yul\":5014:5020   */\n      dup2\n        /* \"#utility.yul\":5010:5050   */\n      add\n        /* \"#utility.yul\":5152:5158   */\n      dup2\n        /* \"#utility.yul\":5140:5150   */\n      dup2\n        /* \"#utility.yul\":5137:5159   */\n      lt\n        /* \"#utility.yul\":5116:5134   */\n      0xffffffffffffffff\n        /* \"#utility.yul\":5104:5114   */\n      dup3\n        /* \"#utility.yul\":5101:5135   */\n      gt\n        /* \"#utility.yul\":5098:5160   */\n      or\n        /* \"#utility.yul\":5095:5183   */\n      iszero\n      tag_301\n      jumpi\n        /* \"#utility.yul\":5163:5181   */\n      tag_302\n      tag_66\n      jump\t// in\n    tag_302:\n        /* \"#utility.yul\":5095:5183   */\n    tag_301:\n        /* \"#utility.yul\":5203:5213   */\n      dup1\n        /* \"#utility.yul\":5199:5201   */\n      0x40\n        /* \"#utility.yul\":5192:5214   */\n      mstore\n        /* \"#utility.yul\":4982:5220   */\n      pop\n        /* \"#utility.yul\":4939:5220   */\n      pop\n      pop\n      jump\t// out\n        /* \"#utility.yul\":5226:5355   */\n    tag_220:\n        /* \"#utility.yul\":5260:5266   */\n      0x00\n        /* \"#utility.yul\":5287:5307   */\n      tag_304\n      tag_199\n      jump\t// in\n    tag_304:\n        /* \"#utility.yul\":5277:5307   */\n      swap1\n      pop\n        /* \"#utility.yul\":5316:5349   */\n      tag_305\n        /* \"#utility.yul\":5344:5348   */\n      dup3\n        /* \"#utility.yul\":5336:5342   */\n      dup3\n        /* \"#utility.yul\":5316:5349   */\n      tag_219\n      jump\t// in\n    tag_305:\n        /* \"#utility.yul\":5226:5355   */\n      swap2\n      swap1\n      pop\n      jump\t// out\n        /* \"#utility.yul\":5361:5672   */\n    tag_221:\n        /* \"#utility.yul\":5438:5442   */\n      0x00\n        /* \"#utility.yul\":5528:5546   */\n      0xffffffffffffffff\n        /* \"#utility.yul\":5520:5526   */\n      dup3\n        /* \"#utility.yul\":5517:5547   */\n      gt\n        /* \"#utility.yul\":5514:5570   */\n      iszero\n      tag_307\n      jumpi\n        /* \"#utility.yul\":5550:5568   */\n      tag_308\n      tag_66\n      jump\t// in\n    tag_308:\n        /* \"#utility.yul\":5514:5570   */\n    tag_307:\n        /* \"#utility.yul\":5600:5604   */\n      0x20\n        /* \"#utility.yul\":5592:5598   */\n      dup3\n        /* \"#utility.yul\":5588:5605   */\n      mul\n        /* \"#utility.yul\":5580:5605   */\n      swap1\n      pop\n        /* \"#utility.yul\":5660:5664   */\n      0x20\n        /* \"#utility.yul\":5654:5658   */\n      dup2\n        /* \"#utility.yul\":5650:5665   */\n      add\n        /* \"#utility.yul\":5642:5665   */\n      swap1\n      pop\n        /* \"#utility.yul\":5361:5672   */\n      swap2\n      swap1\n      pop\n      jump\t// out\n        /* \"#utility.yul\":5678:5795   */\n    tag_222:\n        /* \"#utility.yul\":5787:5788   */\n      0x00\n        /* \"#utility.yul\":5784:5785   */\n      0x00\n        /* \"#utility.yul\":5777:5789   */\n      revert\n        /* \"#utility.yul\":5818:6528   */\n    tag_223:\n        /* \"#utility.yul\":5914:5919   */\n      0x00\n        /* \"#utility.yul\":5939:6020   */\n      tag_311\n        /* \"#utility.yul\":5955:6019   */\n      tag_312\n        /* \"#utility.yul\":6012:6018   */\n      dup5\n        /* \"#utility.yul\":5955:6019   */\n      tag_221\n      jump\t// in\n    tag_312:\n        /* \"#utility.yul\":5939:6020   */\n      tag_220\n      jump\t// in\n    tag_311:\n        /* \"#utility.yul\":5930:6020   */\n      swap1\n      pop\n        /* \"#utility.yul\":6040:6045   */\n      dup1\n        /* \"#utility.yul\":6069:6075   */\n      dup4\n        /* \"#utility.yul\":6062:6067   */\n      dup3\n        /* \"#utility.yul\":6055:6076   */\n      mstore\n        /* \"#utility.yul\":6103:6107   */\n      0x20\n        /* \"#utility.yul\":6096:6101   */\n      dup3\n        /* \"#utility.yul\":6092:6108   */\n      add\n        /* \"#utility.yul\":6085:6108   */\n      swap1\n      pop\n        /* \"#utility.yul\":6156:6160   */\n      0x20\n        /* \"#utility.yul\":6148:6154   */\n      dup5\n        /* \"#utility.yul\":6144:6161   */\n      mul\n        /* \"#utility.yul\":6136:6142   */\n      dup4\n        /* \"#utility.yul\":6132:6162   */\n      add\n        /* \"#utility.yul\":6185:6188   */\n      dup6\n        /* \"#utility.yul\":6177:6183   */\n      dup2\n        /* \"#utility.yul\":6174:6189   */\n      gt\n        /* \"#utility.yul\":6171:6293   */\n      iszero\n      tag_313\n      jumpi\n        /* \"#utility.yul\":6204:6283   */\n      tag_314\n      tag_222\n      jump\t// in\n    tag_314:\n        /* \"#utility.yul\":6171:6293   */\n    tag_313:\n        /* \"#utility.yul\":6319:6325   */\n      dup4\n        /* \"#utility.yul\":6302:6522   */\n    tag_315:\n        /* \"#utility.yul\":6336:6342   */\n      dup2\n        /* \"#utility.yul\":6331:6334   */\n      dup2\n        /* \"#utility.yul\":6328:6343   */\n      lt\n        /* \"#utility.yul\":6302:6522   */\n      iszero\n      tag_317\n      jumpi\n        /* \"#utility.yul\":6411:6414   */\n      dup1\n        /* \"#utility.yul\":6440:6477   */\n      tag_318\n        /* \"#utility.yul\":6473:6476   */\n      dup9\n        /* \"#utility.yul\":6461:6471   */\n      dup3\n        /* \"#utility.yul\":6440:6477   */\n      tag_205\n      jump\t// in\n    tag_318:\n        /* \"#utility.yul\":6435:6438   */\n      dup5\n        /* \"#utility.yul\":6428:6478   */\n      mstore\n        /* \"#utility.yul\":6507:6511   */\n      0x20\n        /* \"#utility.yul\":6502:6505   */\n      dup5\n        /* \"#utility.yul\":6498:6512   */\n      add\n        /* \"#utility.yul\":6491:6512   */\n      swap4\n      pop\n        /* \"#utility.yul\":6378:6522   */\n      pop\n        /* \"#utility.yul\":6362:6366   */\n      0x20\n        /* \"#utility.yul\":6357:6360   */\n      dup2\n        /* \"#utility.yul\":6353:6367   */\n      add\n        /* \"#utility.yul\":6346:6367   */\n      swap1\n      pop\n        /* \"#utility.yul\":6302:6522   */\n      jump(tag_315)\n    tag_317:\n        /* \"#utility.yul\":6306:6327   */\n      pop\n        /* \"#utility.yul\":5920:6528   */\n      pop\n      pop\n        /* \"#utility.yul\":5818:6528   */\n      swap4\n      swap3\n      pop\n      pop\n      pop\n      jump\t// out\n        /* \"#utility.yul\":6551:6921   */\n    tag_224:\n        /* \"#utility.yul\":6622:6627   */\n      0x00\n        /* \"#utility.yul\":6671:6674   */\n      dup3\n        /* \"#utility.yul\":6664:6668   */\n      0x1f\n        /* \"#utility.yul\":6656:6662   */\n      dup4\n        /* \"#utility.yul\":6652:6669   */\n      add\n        /* \"#utility.yul\":6648:6675   */\n      slt\n        /* \"#utility.yul\":6638:6760   */\n      tag_320\n      jumpi\n        /* \"#utility.yul\":6679:6758   */\n      tag_321\n      tag_217\n      jump\t// in\n    tag_321:\n        /* \"#utility.yul\":6638:6760   */\n    tag_320:\n        /* \"#utility.yul\":6796:6802   */\n      dup2\n        /* \"#utility.yul\":6783:6803   */\n      calldataload\n        /* \"#utility.yul\":6821:6915   */\n      tag_322\n        /* \"#utility.yul\":6911:6914   */\n      dup5\n        /* \"#utility.yul\":6903:6909   */\n      dup3\n        /* \"#utility.yul\":6896:6900   */\n      0x20\n        /* \"#utility.yul\":6888:6894   */\n      dup7\n        /* \"#utility.yul\":6884:6901   */\n      add\n        /* \"#utility.yul\":6821:6915   */\n      tag_223\n      jump\t// in\n    tag_322:\n        /* \"#utility.yul\":6812:6915   */\n      swap2\n      pop\n        /* \"#utility.yul\":6628:6921   */\n      pop\n        /* \"#utility.yul\":6551:6921   */\n      swap3\n      swap2\n      pop\n      pop\n      jump\t// out\n        /* \"#utility.yul\":6927:7466   */\n    tag_37:\n        /* \"#utility.yul\":7011:7017   */\n      0x00\n        /* \"#utility.yul\":7060:7062   */\n      0x20\n        /* \"#utility.yul\":7048:7057   */\n      dup3\n        /* \"#utility.yul\":7039:7046   */\n      dup5\n        /* \"#utility.yul\":7035:7058   */\n      sub\n        /* \"#utility.yul\":7031:7063   */\n      slt\n        /* \"#utility.yul\":7028:7147   */\n      iszero\n      tag_324\n      jumpi\n        /* \"#utility.yul\":7066:7145   */\n      tag_325\n      tag_200\n      jump\t// in\n    tag_325:\n        /* \"#utility.yul\":7028:7147   */\n    tag_324:\n        /* \"#utility.yul\":7214:7215   */\n      0x00\n        /* \"#utility.yul\":7203:7212   */\n      dup3\n        /* \"#utility.yul\":7199:7216   */\n      add\n        /* \"#utility.yul\":7186:7217   */\n      calldataload\n        /* \"#utility.yul\":7244:7262   */\n      0xffffffffffffffff\n        /* \"#utility.yul\":7236:7242   */\n      dup2\n        /* \"#utility.yul\":7233:7263   */\n      gt\n        /* \"#utility.yul\":7230:7347   */\n      iszero\n      tag_326\n      jumpi\n        /* \"#utility.yul\":7266:7345   */\n      tag_327\n      tag_201\n      jump\t// in\n    tag_327:\n        /* \"#utility.yul\":7230:7347   */\n    tag_326:\n        /* \"#utility.yul\":7371:7449   */\n      tag_328\n        /* \"#utility.yul\":7441:7448   */\n      dup5\n        /* \"#utility.yul\":7432:7438   */\n      dup3\n        /* \"#utility.yul\":7421:7430   */\n      dup6\n        /* \"#utility.yul\":7417:7439   */\n      add\n        /* \"#utility.yul\":7371:7449   */\n      tag_224\n      jump\t// in\n    tag_328:\n        /* \"#utility.yul\":7361:7449   */\n      swap2\n      pop\n        /* \"#utility.yul\":7157:7459   */\n      pop\n        /* \"#utility.yul\":6927:7466   */\n      swap3\n      swap2\n      pop\n      pop\n      jump\t// out\n        /* \"#utility.yul\":7472:7946   */\n    tag_41:\n        /* \"#utility.yul\":7540:7546   */\n      0x00\n        /* \"#utility.yul\":7548:7554   */\n      0x00\n        /* \"#utility.yul\":7597:7599   */\n      0x40\n        /* \"#utility.yul\":7585:7594   */\n      dup4\n        /* \"#utility.yul\":7576:7583   */\n      dup6\n        /* \"#utility.yul\":7572:7595   */\n      sub\n        /* \"#utility.yul\":7568:7600   */\n      slt\n        /* \"#utility.yul\":7565:7684   */\n      iszero\n      tag_330\n      jumpi\n        /* \"#utility.yul\":7603:7682   */\n      tag_331\n      tag_200\n      jump\t// in\n    tag_331:\n        /* \"#utility.yul\":7565:7684   */\n    tag_330:\n        /* \"#utility.yul\":7723:7724   */\n      0x00\n        /* \"#utility.yul\":7748:7801   */\n      tag_332\n        /* \"#utility.yul\":7793:7800   */\n      dup6\n        /* \"#utility.yul\":7784:7790   */\n      dup3\n        /* \"#utility.yul\":7773:7782   */\n      dup7\n        /* \"#utility.yul\":7769:7791   */\n      add\n        /* \"#utility.yul\":7748:7801   */\n      tag_205\n      jump\t// in\n    tag_332:\n        /* \"#utility.yul\":7738:7801   */\n      swap3\n      pop\n        /* \"#utility.yul\":7694:7811   */\n      pop\n        /* \"#utility.yul\":7850:7852   */\n      0x20\n        /* \"#utility.yul\":7876:7929   */\n      tag_333\n        /* \"#utility.yul\":7921:7928   */\n      dup6\n        /* \"#utility.yul\":7912:7918   */\n      dup3\n        /* \"#utility.yul\":7901:7910   */\n      dup7\n        /* \"#utility.yul\":7897:7919   */\n      add\n        /* \"#utility.yul\":7876:7929   */\n      tag_205\n      jump\t// in\n    tag_333:\n        /* \"#utility.yul\":7866:7929   */\n      swap2\n      pop\n        /* \"#utility.yul\":7821:7939   */\n      pop\n        /* \"#utility.yul\":7472:7946   */\n      swap3\n      pop\n      swap3\n      swap1\n      pop\n      jump\t// out\n        /* \"#utility.yul\":7952:8042   */\n    tag_225:\n        /* \"#utility.yul\":7986:7993   */\n      0x00\n        /* \"#utility.yul\":8029:8034   */\n      dup2\n        /* \"#utility.yul\":8022:8035   */\n      iszero\n        /* \"#utility.yul\":8015:8036   */\n      iszero\n        /* \"#utility.yul\":8004:8036   */\n      swap1\n      pop\n        /* \"#utility.yul\":7952:8042   */\n      swap2\n      swap1\n      pop\n      jump\t// out\n        /* \"#utility.yul\":8048:8157   */\n    tag_226:\n        /* \"#utility.yul\":8129:8150   */\n      tag_336\n        /* \"#utility.yul\":8144:8149   */\n      dup2\n        /* \"#utility.yul\":8129:8150   */\n      tag_225\n      jump\t// in\n    tag_336:\n        /* \"#utility.yul\":8124:8127   */\n      dup3\n        /* \"#utility.yul\":8117:8151   */\n      mstore\n        /* \"#utility.yul\":8048:8157   */\n      pop\n      pop\n      jump\t// out\n        /* \"#utility.yul\":8163:8373   */\n    tag_44:\n        /* \"#utility.yul\":8250:8254   */\n      0x00\n        /* \"#utility.yul\":8288:8290   */\n      0x20\n        /* \"#utility.yul\":8277:8286   */\n      dup3\n        /* \"#utility.yul\":8273:8291   */\n      add\n        /* \"#utility.yul\":8265:8291   */\n      swap1\n      pop\n        /* \"#utility.yul\":8301:8366   */\n      tag_338\n        /* \"#utility.yul\":8363:8364   */\n      0x00\n        /* \"#utility.yul\":8352:8361   */\n      dup4\n        /* \"#utility.yul\":8348:8365   */\n      add\n        /* \"#utility.yul\":8339:8345   */\n      dup5\n        /* \"#utility.yul\":8301:8366   */\n      tag_226\n      jump\t// in\n    tag_338:\n        /* \"#utility.yul\":8163:8373   */\n      swap3\n      swap2\n      pop\n      pop\n      jump\t// out\n        /* \"#utility.yul\":8379:8559   */\n    tag_227:\n        /* \"#utility.yul\":8427:8504   */\n      0x4e487b7100000000000000000000000000000000000000000000000000000000\n        /* \"#utility.yul\":8424:8425   */\n      0x00\n        /* \"#utility.yul\":8417:8505   */\n      mstore\n        /* \"#utility.yul\":8524:8528   */\n      0x11\n        /* \"#utility.yul\":8521:8522   */\n      0x04\n        /* \"#utility.yul\":8514:8529   */\n      mstore\n        /* \"#utility.yul\":8548:8552   */\n      0x24\n        /* \"#utility.yul\":8545:8546   */\n      0x00\n        /* \"#utility.yul\":8538:8553   */\n      revert\n        /* \"#utility.yul\":8565:8759   */\n    tag_63:\n        /* \"#utility.yul\":8605:8609   */\n      0x00\n        /* \"#utility.yul\":8625:8645   */\n      tag_341\n        /* \"#utility.yul\":8643:8644   */\n      dup3\n        /* \"#utility.yul\":8625:8645   */\n      tag_206\n      jump\t// in\n    tag_341:\n        /* \"#utility.yul\":8620:8645   */\n      swap2\n      pop\n        /* \"#utility.yul\":8659:8679   */\n      tag_342\n        /* \"#utility.yul\":8677:8678   */\n      dup4\n        /* \"#utility.yul\":8659:8679   */\n      tag_206\n      jump\t// in\n    tag_342:\n        /* \"#utility.yul\":8654:8679   */\n      swap3\n      pop\n        /* \"#utility.yul\":8703:8704   */\n      dup3\n        /* \"#utility.yul\":8700:8701   */\n      dup3\n        /* \"#utility.yul\":8696:8705   */\n      sub\n        /* \"#utility.yul\":8688:8705   */\n      swap1\n      pop\n        /* \"#utility.yul\":8727:8728   */\n      dup2\n        /* \"#utility.yul\":8721:8725   */\n      dup2\n        /* \"#utility.yul\":8718:8729   */\n      gt\n        /* \"#utility.yul\":8715:8752   */\n      iszero\n      tag_343\n      jumpi\n        /* \"#utility.yul\":8732:8750   */\n      tag_344\n      tag_227\n      jump\t// in\n    tag_344:\n        /* \"#utility.yul\":8715:8752   */\n    tag_343:\n        /* \"#utility.yul\":8565:8759   */\n      swap3\n      swap2\n      pop\n      pop\n      jump\t// out\n        /* \"#utility.yul\":8765:8956   */\n    tag_73:\n        /* \"#utility.yul\":8805:8808   */\n      0x00\n        /* \"#utility.yul\":8824:8844   */\n      tag_346\n        /* \"#utility.yul\":8842:8843   */\n      dup3\n        /* \"#utility.yul\":8824:8844   */\n      tag_206\n      jump\t// in\n    tag_346:\n        /* \"#utility.yul\":8819:8844   */\n      swap2\n      pop\n        /* \"#utility.yul\":8858:8878   */\n      tag_347\n        /* \"#utility.yul\":8876:8877   */\n      dup4\n        /* \"#utility.yul\":8858:8878   */\n      tag_206\n      jump\t// in\n    tag_347:\n        /* \"#utility.yul\":8853:8878   */\n      swap3\n      pop\n        /* \"#utility.yul\":8901:8902   */\n      dup3\n        /* \"#utility.yul\":8898:8899   */\n      dup3\n        /* \"#utility.yul\":8894:8903   */\n      add\n        /* \"#utility.yul\":8887:8903   */\n      swap1\n      pop\n        /* \"#utility.yul\":8922:8925   */\n      dup1\n        /* \"#utility.yul\":8919:8920   */\n      dup3\n        /* \"#utility.yul\":8916:8926   */\n      gt\n        /* \"#utility.yul\":8913:8949   */\n      iszero\n      tag_348\n      jumpi\n        /* \"#utility.yul\":8929:8947   */\n      tag_349\n      tag_227\n      jump\t// in\n    tag_349:\n        /* \"#utility.yul\":8913:8949   */\n    tag_348:\n        /* \"#utility.yul\":8765:8956   */\n      swap3\n      swap2\n      pop\n      pop\n      jump\t// out\n        /* \"#utility.yul\":8962:9142   */\n    tag_77:\n        /* \"#utility.yul\":9010:9087   */\n      0x4e487b7100000000000000000000000000000000000000000000000000000000\n        /* \"#utility.yul\":9007:9008   */\n      0x00\n        /* \"#utility.yul\":9000:9088   */\n      mstore\n        /* \"#utility.yul\":9107:9111   */\n      0x32\n        /* \"#utility.yul\":9104:9105   */\n      0x04\n        /* \"#utility.yul\":9097:9112   */\n      mstore\n        /* \"#utility.yul\":9131:9135   */\n      0x24\n        /* \"#utility.yul\":9128:9129   */\n      0x00\n        /* \"#utility.yul\":9121:9136   */\n      revert\n        /* \"#utility.yul\":9148:9266   */\n    tag_228:\n        /* \"#utility.yul\":9235:9259   */\n      tag_352\n        /* \"#utility.yul\":9253:9258   */\n      dup2\n        /* \"#utility.yul\":9235:9259   */\n      tag_203\n      jump\t// in\n    tag_352:\n        /* \"#utility.yul\":9230:9233   */\n      dup3\n        /* \"#utility.yul\":9223:9260   */\n      mstore\n        /* \"#utility.yul\":9148:9266   */\n      pop\n      pop\n      jump\t// out\n        /* \"#utility.yul\":9272:9494   */\n    tag_114:\n        /* \"#utility.yul\":9365:9369   */\n      0x00\n        /* \"#utility.yul\":9403:9405   */\n      0x20\n        /* \"#utility.yul\":9392:9401   */\n      dup3\n        /* \"#utility.yul\":9388:9406   */\n      add\n        /* \"#utility.yul\":9380:9406   */\n      swap1\n      pop\n        /* \"#utility.yul\":9416:9487   */\n      tag_354\n        /* \"#utility.yul\":9484:9485   */\n      0x00\n        /* \"#utility.yul\":9473:9482   */\n      dup4\n        /* \"#utility.yul\":9469:9486   */\n      add\n        /* \"#utility.yul\":9460:9466   */\n      dup5\n        /* \"#utility.yul\":9416:9487   */\n      tag_228\n      jump\t// in\n    tag_354:\n        /* \"#utility.yul\":9272:9494   */\n      swap3\n      swap2\n      pop\n      pop\n      jump\t// out\n        /* \"#utility.yul\":9500:9832   */\n    tag_117:\n        /* \"#utility.yul\":9621:9625   */\n      0x00\n        /* \"#utility.yul\":9659:9661   */\n      0x40\n        /* \"#utility.yul\":9648:9657   */\n      dup3\n        /* \"#utility.yul\":9644:9662   */\n      add\n        /* \"#utility.yul\":9636:9662   */\n      swap1\n      pop\n        /* \"#utility.yul\":9672:9743   */\n      tag_356\n        /* \"#utility.yul\":9740:9741   */\n      0x00\n        /* \"#utility.yul\":9729:9738   */\n      dup4\n        /* \"#utility.yul\":9725:9742   */\n      add\n        /* \"#utility.yul\":9716:9722   */\n      dup6\n        /* \"#utility.yul\":9672:9743   */\n      tag_228\n      jump\t// in\n    tag_356:\n        /* \"#utility.yul\":9753:9825   */\n      tag_357\n        /* \"#utility.yul\":9821:9823   */\n      0x20\n        /* \"#utility.yul\":9810:9819   */\n      dup4\n        /* \"#utility.yul\":9806:9824   */\n      add\n        /* \"#utility.yul\":9797:9803   */\n      dup5\n        /* \"#utility.yul\":9753:9825   */\n      tag_228\n      jump\t// in\n    tag_357:\n        /* \"#utility.yul\":9500:9832   */\n      swap4\n      swap3\n      pop\n      pop\n      pop\n      jump\t// out\n        /* \"#utility.yul\":9838:9932   */\n    tag_229:\n        /* \"#utility.yul\":9871:9879   */\n      0x00\n        /* \"#utility.yul\":9919:9924   */\n      dup2\n        /* \"#utility.yul\":9915:9917   */\n      0x60\n        /* \"#utility.yul\":9911:9925   */\n      shl\n        /* \"#utility.yul\":9890:9925   */\n      swap1\n      pop\n        /* \"#utility.yul\":9838:9932   */\n      swap2\n      swap1\n      pop\n      jump\t// out\n        /* \"#utility.yul\":9938:10032   */\n    tag_230:\n        /* \"#utility.yul\":9977:9984   */\n      0x00\n        /* \"#utility.yul\":10006:10026   */\n      tag_360\n        /* \"#utility.yul\":10020:10025   */\n      dup3\n        /* \"#utility.yul\":10006:10026   */\n      tag_229\n      jump\t// in\n    tag_360:\n        /* \"#utility.yul\":9995:10026   */\n      swap1\n      pop\n        /* \"#utility.yul\":9938:10032   */\n      swap2\n      swap1\n      pop\n      jump\t// out\n        /* \"#utility.yul\":10038:10138   */\n    tag_231:\n        /* \"#utility.yul\":10077:10084   */\n      0x00\n        /* \"#utility.yul\":10106:10132   */\n      tag_362\n        /* \"#utility.yul\":10126:10131   */\n      dup3\n        /* \"#utility.yul\":10106:10132   */\n      tag_230\n      jump\t// in\n    tag_362:\n        /* \"#utility.yul\":10095:10132   */\n      swap1\n      pop\n        /* \"#utility.yul\":10038:10138   */\n      swap2\n      swap1\n      pop\n      jump\t// out\n        /* \"#utility.yul\":10144:10301   */\n    tag_232:\n        /* \"#utility.yul\":10249:10294   */\n      tag_364\n        /* \"#utility.yul\":10269:10293   */\n      tag_365\n        /* \"#utility.yul\":10287:10292   */\n      dup3\n        /* \"#utility.yul\":10269:10293   */\n      tag_203\n      jump\t// in\n    tag_365:\n        /* \"#utility.yul\":10249:10294   */\n      tag_231\n      jump\t// in\n    tag_364:\n        /* \"#utility.yul\":10244:10247   */\n      dup3\n        /* \"#utility.yul\":10237:10295   */\n      mstore\n        /* \"#utility.yul\":10144:10301   */\n      pop\n      pop\n      jump\t// out\n        /* \"#utility.yul\":10307:10563   */\n    tag_122:\n        /* \"#utility.yul\":10419:10422   */\n      0x00\n        /* \"#utility.yul\":10434:10509   */\n      tag_367\n        /* \"#utility.yul\":10505:10508   */\n      dup3\n        /* \"#utility.yul\":10496:10502   */\n      dup5\n        /* \"#utility.yul\":10434:10509   */\n      tag_232\n      jump\t// in\n    tag_367:\n        /* \"#utility.yul\":10534:10536   */\n      0x14\n        /* \"#utility.yul\":10529:10532   */\n      dup3\n        /* \"#utility.yul\":10525:10537   */\n      add\n        /* \"#utility.yul\":10518:10537   */\n      swap2\n      pop\n        /* \"#utility.yul\":10554:10557   */\n      dup2\n        /* \"#utility.yul\":10547:10557   */\n      swap1\n      pop\n        /* \"#utility.yul\":10307:10563   */\n      swap3\n      swap2\n      pop\n      pop\n      jump\t// out\n        /* \"#utility.yul\":10569:10646   */\n    tag_233:\n        /* \"#utility.yul\":10606:10613   */\n      0x00\n        /* \"#utility.yul\":10635:10640   */\n      dup2\n        /* \"#utility.yul\":10624:10640   */\n      swap1\n      pop\n        /* \"#utility.yul\":10569:10646   */\n      swap2\n      swap1\n      pop\n      jump\t// out\n        /* \"#utility.yul\":10652:10770   */\n    tag_234:\n        /* \"#utility.yul\":10739:10763   */\n      tag_370\n        /* \"#utility.yul\":10757:10762   */\n      dup2\n        /* \"#utility.yul\":10739:10763   */\n      tag_233\n      jump\t// in\n    tag_370:\n        /* \"#utility.yul\":10734:10737   */\n      dup3\n        /* \"#utility.yul\":10727:10764   */\n      mstore\n        /* \"#utility.yul\":10652:10770   */\n      pop\n      pop\n      jump\t// out\n        /* \"#utility.yul\":10776:10874   */\n    tag_235:\n        /* \"#utility.yul\":10827:10833   */\n      0x00\n        /* \"#utility.yul\":10861:10866   */\n      dup2\n        /* \"#utility.yul\":10855:10867   */\n      mload\n        /* \"#utility.yul\":10845:10867   */\n      swap1\n      pop\n        /* \"#utility.yul\":10776:10874   */\n      swap2\n      swap1\n      pop\n      jump\t// out\n        /* \"#utility.yul\":10880:11048   */\n    tag_236:\n        /* \"#utility.yul\":10963:10974   */\n      0x00\n        /* \"#utility.yul\":10997:11003   */\n      dup3\n        /* \"#utility.yul\":10992:10995   */\n      dup3\n        /* \"#utility.yul\":10985:11004   */\n      mstore\n        /* \"#utility.yul\":11037:11041   */\n      0x20\n        /* \"#utility.yul\":11032:11035   */\n      dup3\n        /* \"#utility.yul\":11028:11042   */\n      add\n        /* \"#utility.yul\":11013:11042   */\n      swap1\n      pop\n        /* \"#utility.yul\":10880:11048   */\n      swap3\n      swap2\n      pop\n      pop\n      jump\t// out\n        /* \"#utility.yul\":11054:11193   */\n    tag_237:\n        /* \"#utility.yul\":11143:11149   */\n      dup3\n        /* \"#utility.yul\":11138:11141   */\n      dup2\n        /* \"#utility.yul\":11133:11136   */\n      dup4\n        /* \"#utility.yul\":11127:11150   */\n      mcopy\n        /* \"#utility.yul\":11184:11185   */\n      0x00\n        /* \"#utility.yul\":11175:11181   */\n      dup4\n        /* \"#utility.yul\":11170:11173   */\n      dup4\n        /* \"#utility.yul\":11166:11182   */\n      add\n        /* \"#utility.yul\":11159:11186   */\n      mstore\n        /* \"#utility.yul\":11054:11193   */\n      pop\n      pop\n      pop\n      jump\t// out\n        /* \"#utility.yul\":11199:11572   */\n    tag_238:\n        /* \"#utility.yul\":11285:11288   */\n      0x00\n        /* \"#utility.yul\":11313:11351   */\n      tag_375\n        /* \"#utility.yul\":11345:11350   */\n      dup3\n        /* \"#utility.yul\":11313:11351   */\n      tag_235\n      jump\t// in\n    tag_375:\n        /* \"#utility.yul\":11367:11437   */\n      tag_376\n        /* \"#utility.yul\":11430:11436   */\n      dup2\n        /* \"#utility.yul\":11425:11428   */\n      dup6\n        /* \"#utility.yul\":11367:11437   */\n      tag_236\n      jump\t// in\n    tag_376:\n        /* \"#utility.yul\":11360:11437   */\n      swap4\n      pop\n        /* \"#utility.yul\":11446:11511   */\n      tag_377\n        /* \"#utility.yul\":11504:11510   */\n      dup2\n        /* \"#utility.yul\":11499:11502   */\n      dup6\n        /* \"#utility.yul\":11492:11496   */\n      0x20\n        /* \"#utility.yul\":11485:11490   */\n      dup7\n        /* \"#utility.yul\":11481:11497   */\n      add\n        /* \"#utility.yul\":11446:11511   */\n      tag_237\n      jump\t// in\n    tag_377:\n        /* \"#utility.yul\":11536:11565   */\n      tag_378\n        /* \"#utility.yul\":11558:11564   */\n      dup2\n        /* \"#utility.yul\":11536:11565   */\n      tag_218\n      jump\t// in\n    tag_378:\n        /* \"#utility.yul\":11531:11534   */\n      dup5\n        /* \"#utility.yul\":11527:11566   */\n      add\n        /* \"#utility.yul\":11520:11566   */\n      swap2\n      pop\n        /* \"#utility.yul\":11289:11572   */\n      pop\n        /* \"#utility.yul\":11199:11572   */\n      swap3\n      swap2\n      pop\n      pop\n      jump\t// out\n        /* \"#utility.yul\":11578:11997   */\n    tag_124:\n        /* \"#utility.yul\":11717:11721   */\n      0x00\n        /* \"#utility.yul\":11755:11757   */\n      0x40\n        /* \"#utility.yul\":11744:11753   */\n      dup3\n        /* \"#utility.yul\":11740:11758   */\n      add\n        /* \"#utility.yul\":11732:11758   */\n      swap1\n      pop\n        /* \"#utility.yul\":11768:11839   */\n      tag_380\n        /* \"#utility.yul\":11836:11837   */\n      0x00\n        /* \"#utility.yul\":11825:11834   */\n      dup4\n        /* \"#utility.yul\":11821:11838   */\n      add\n        /* \"#utility.yul\":11812:11818   */\n      dup6\n        /* \"#utility.yul\":11768:11839   */\n      tag_234\n      jump\t// in\n    tag_380:\n        /* \"#utility.yul\":11886:11895   */\n      dup2\n        /* \"#utility.yul\":11880:11884   */\n      dup2\n        /* \"#utility.yul\":11876:11896   */\n      sub\n        /* \"#utility.yul\":11871:11873   */\n      0x20\n        /* \"#utility.yul\":11860:11869   */\n      dup4\n        /* \"#utility.yul\":11856:11874   */\n      add\n        /* \"#utility.yul\":11849:11897   */\n      mstore\n        /* \"#utility.yul\":11914:11990   */\n      tag_381\n        /* \"#utility.yul\":11985:11989   */\n      dup2\n        /* \"#utility.yul\":11976:11982   */\n      dup5\n        /* \"#utility.yul\":11914:11990   */\n      tag_238\n      jump\t// in\n    tag_381:\n        /* \"#utility.yul\":11906:11990   */\n      swap1\n      pop\n        /* \"#utility.yul\":11578:11997   */\n      swap4\n      swap3\n      pop\n      pop\n      pop\n      jump\t// out\n        /* \"#utility.yul\":12003:12120   */\n    tag_239:\n        /* \"#utility.yul\":12112:12113   */\n      0x00\n        /* \"#utility.yul\":12109:12110   */\n      0x00\n        /* \"#utility.yul\":12102:12114   */\n      revert\n        /* \"#utility.yul\":12126:12433   */\n    tag_240:\n        /* \"#utility.yul\":12187:12191   */\n      0x00\n        /* \"#utility.yul\":12277:12295   */\n      0xffffffffffffffff\n        /* \"#utility.yul\":12269:12275   */\n      dup3\n        /* \"#utility.yul\":12266:12296   */\n      gt\n        /* \"#utility.yul\":12263:12319   */\n      iszero\n      tag_384\n      jumpi\n        /* \"#utility.yul\":12299:12317   */\n      tag_385\n      tag_66\n      jump\t// in\n    tag_385:\n        /* \"#utility.yul\":12263:12319   */\n    tag_384:\n        /* \"#utility.yul\":12337:12366   */\n      tag_386\n        /* \"#utility.yul\":12359:12365   */\n      dup3\n        /* \"#utility.yul\":12337:12366   */\n      tag_218\n      jump\t// in\n    tag_386:\n        /* \"#utility.yul\":12329:12366   */\n      swap1\n      pop\n        /* \"#utility.yul\":12421:12425   */\n      0x20\n        /* \"#utility.yul\":12415:12419   */\n      dup2\n        /* \"#utility.yul\":12411:12426   */\n      add\n        /* \"#utility.yul\":12403:12426   */\n      swap1\n      pop\n        /* \"#utility.yul\":12126:12433   */\n      swap2\n      swap1\n      pop\n      jump\t// out\n        /* \"#utility.yul\":12439:12871   */\n    tag_241:\n        /* \"#utility.yul\":12527:12532   */\n      0x00\n        /* \"#utility.yul\":12552:12617   */\n      tag_388\n        /* \"#utility.yul\":12568:12616   */\n      tag_389\n        /* \"#utility.yul\":12609:12615   */\n      dup5\n        /* \"#utility.yul\":12568:12616   */\n      tag_240\n      jump\t// in\n    tag_389:\n        /* \"#utility.yul\":12552:12617   */\n      tag_220\n      jump\t// in\n    tag_388:\n        /* \"#utility.yul\":12543:12617   */\n      swap1\n      pop\n        /* \"#utility.yul\":12640:12646   */\n      dup3\n        /* \"#utility.yul\":12633:12638   */\n      dup2\n        /* \"#utility.yul\":12626:12647   */\n      mstore\n        /* \"#utility.yul\":12678:12682   */\n      0x20\n        /* \"#utility.yul\":12671:12676   */\n      dup2\n        /* \"#utility.yul\":12667:12683   */\n      add\n        /* \"#utility.yul\":12716:12719   */\n      dup5\n        /* \"#utility.yul\":12707:12713   */\n      dup5\n        /* \"#utility.yul\":12702:12705   */\n      dup5\n        /* \"#utility.yul\":12698:12714   */\n      add\n        /* \"#utility.yul\":12695:12720   */\n      gt\n        /* \"#utility.yul\":12692:12804   */\n      iszero\n      tag_390\n      jumpi\n        /* \"#utility.yul\":12723:12802   */\n      tag_391\n      tag_239\n      jump\t// in\n    tag_391:\n        /* \"#utility.yul\":12692:12804   */\n    tag_390:\n        /* \"#utility.yul\":12813:12865   */\n      tag_392\n        /* \"#utility.yul\":12858:12864   */\n      dup5\n        /* \"#utility.yul\":12853:12856   */\n      dup3\n        /* \"#utility.yul\":12848:12851   */\n      dup6\n        /* \"#utility.yul\":12813:12865   */\n      tag_237\n      jump\t// in\n    tag_392:\n        /* \"#utility.yul\":12533:12871   */\n      pop\n        /* \"#utility.yul\":12439:12871   */\n      swap4\n      swap3\n      pop\n      pop\n      pop\n      jump\t// out\n        /* \"#utility.yul\":12890:13243   */\n    tag_242:\n        /* \"#utility.yul\":12956:12961   */\n      0x00\n        /* \"#utility.yul\":13005:13008   */\n      dup3\n        /* \"#utility.yul\":12998:13002   */\n      0x1f\n        /* \"#utility.yul\":12990:12996   */\n      dup4\n        /* \"#utility.yul\":12986:13003   */\n      add\n        /* \"#utility.yul\":12982:13009   */\n      slt\n        /* \"#utility.yul\":12972:13094   */\n      tag_394\n      jumpi\n        /* \"#utility.yul\":13013:13092   */\n      tag_395\n      tag_217\n      jump\t// in\n    tag_395:\n        /* \"#utility.yul\":12972:13094   */\n    tag_394:\n        /* \"#utility.yul\":13123:13129   */\n      dup2\n        /* \"#utility.yul\":13117:13130   */\n      mload\n        /* \"#utility.yul\":13148:13237   */\n      tag_396\n        /* \"#utility.yul\":13233:13236   */\n      dup5\n        /* \"#utility.yul\":13225:13231   */\n      dup3\n        /* \"#utility.yul\":13218:13222   */\n      0x20\n        /* \"#utility.yul\":13210:13216   */\n      dup7\n        /* \"#utility.yul\":13206:13223   */\n      add\n        /* \"#utility.yul\":13148:13237   */\n      tag_241\n      jump\t// in\n    tag_396:\n        /* \"#utility.yul\":13139:13237   */\n      swap2\n      pop\n        /* \"#utility.yul\":12962:13243   */\n      pop\n        /* \"#utility.yul\":12890:13243   */\n      swap3\n      swap2\n      pop\n      pop\n      jump\t// out\n        /* \"#utility.yul\":13249:13771   */\n    tag_127:\n        /* \"#utility.yul\":13328:13334   */\n      0x00\n        /* \"#utility.yul\":13377:13379   */\n      0x20\n        /* \"#utility.yul\":13365:13374   */\n      dup3\n        /* \"#utility.yul\":13356:13363   */\n      dup5\n        /* \"#utility.yul\":13352:13375   */\n      sub\n        /* \"#utility.yul\":13348:13380   */\n      slt\n        /* \"#utility.yul\":13345:13464   */\n      iszero\n      tag_398\n      jumpi\n        /* \"#utility.yul\":13383:13462   */\n      tag_399\n      tag_200\n      jump\t// in\n    tag_399:\n        /* \"#utility.yul\":13345:13464   */\n    tag_398:\n        /* \"#utility.yul\":13524:13525   */\n      0x00\n        /* \"#utility.yul\":13513:13522   */\n      dup3\n        /* \"#utility.yul\":13509:13526   */\n      add\n        /* \"#utility.yul\":13503:13527   */\n      mload\n        /* \"#utility.yul\":13554:13572   */\n      0xffffffffffffffff\n        /* \"#utility.yul\":13546:13552   */\n      dup2\n        /* \"#utility.yul\":13543:13573   */\n      gt\n        /* \"#utility.yul\":13540:13657   */\n      iszero\n      tag_400\n      jumpi\n        /* \"#utility.yul\":13576:13655   */\n      tag_401\n      tag_201\n      jump\t// in\n    tag_401:\n        /* \"#utility.yul\":13540:13657   */\n    tag_400:\n        /* \"#utility.yul\":13681:13754   */\n      tag_402\n        /* \"#utility.yul\":13746:13753   */\n      dup5\n        /* \"#utility.yul\":13737:13743   */\n      dup3\n        /* \"#utility.yul\":13726:13735   */\n      dup6\n        /* \"#utility.yul\":13722:13744   */\n      add\n        /* \"#utility.yul\":13681:13754   */\n      tag_242\n      jump\t// in\n    tag_402:\n        /* \"#utility.yul\":13671:13754   */\n      swap2\n      pop\n        /* \"#utility.yul\":13474:13764   */\n      pop\n        /* \"#utility.yul\":13249:13771   */\n      swap3\n      swap2\n      pop\n      pop\n      jump\t// out\n        /* \"#utility.yul\":13777:13926   */\n    tag_243:\n        /* \"#utility.yul\":13813:13820   */\n      0x00\n        /* \"#utility.yul\":13853:13919   */\n      0xffffffff00000000000000000000000000000000000000000000000000000000\n        /* \"#utility.yul\":13846:13851   */\n      dup3\n        /* \"#utility.yul\":13842:13920   */\n      and\n        /* \"#utility.yul\":13831:13920   */\n      swap1\n      pop\n        /* \"#utility.yul\":13777:13926   */\n      swap2\n      swap1\n      pop\n      jump\t// out\n        /* \"#utility.yul\":13932:14047   */\n    tag_244:\n        /* \"#utility.yul\":14017:14040   */\n      tag_405\n        /* \"#utility.yul\":14034:14039   */\n      dup2\n        /* \"#utility.yul\":14017:14040   */\n      tag_243\n      jump\t// in\n    tag_405:\n        /* \"#utility.yul\":14012:14015   */\n      dup3\n        /* \"#utility.yul\":14005:14041   */\n      mstore\n        /* \"#utility.yul\":13932:14047   */\n      pop\n      pop\n      jump\t// out\n        /* \"#utility.yul\":14053:14271   */\n    tag_166:\n        /* \"#utility.yul\":14144:14148   */\n      0x00\n        /* \"#utility.yul\":14182:14184   */\n      0x20\n        /* \"#utility.yul\":14171:14180   */\n      dup3\n        /* \"#utility.yul\":14167:14185   */\n      add\n        /* \"#utility.yul\":14159:14185   */\n      swap1\n      pop\n        /* \"#utility.yul\":14195:14264   */\n      tag_407\n        /* \"#utility.yul\":14261:14262   */\n      0x00\n        /* \"#utility.yul\":14250:14259   */\n      dup4\n        /* \"#utility.yul\":14246:14263   */\n      add\n        /* \"#utility.yul\":14237:14243   */\n      dup5\n        /* \"#utility.yul\":14195:14264   */\n      tag_244\n      jump\t// in\n    tag_407:\n        /* \"#utility.yul\":14053:14271   */\n      swap3\n      swap2\n      pop\n      pop\n      jump\t// out\n        /* \"#utility.yul\":14277:14457   */\n    tag_191:\n        /* \"#utility.yul\":14325:14402   */\n      0x4e487b7100000000000000000000000000000000000000000000000000000000\n        /* \"#utility.yul\":14322:14323   */\n      0x00\n        /* \"#utility.yul\":14315:14403   */\n      mstore\n        /* \"#utility.yul\":14422:14426   */\n      0x31\n        /* \"#utility.yul\":14419:14420   */\n      0x04\n        /* \"#utility.yul\":14412:14427   */\n      mstore\n        /* \"#utility.yul\":14446:14450   */\n      0x24\n        /* \"#utility.yul\":14443:14444   */\n      0x00\n        /* \"#utility.yul\":14436:14451   */\n      revert\n\n    auxdata: 0xa26469706673582212201f1afa9889d5d3419b82cbc4655b6ff987e9ab1fb6c71b29de0a218c7b3f69f164736f6c634300081d0033\n}\n",
				"bytecode": {
					"linkReferences": {},
					"object": "6080604052348015600e575f5ffd5b506115588061001c5f395ff3fe608060405234801561000f575f5ffd5b5060043610610091575f3560e01c80636454870711610064578063645487071461012d5780638dd1e47e1461015d57806399ec3a4214610179578063b2a8d069146101a9578063cf8711c8146101d957610091565b8063015a4ead1461009557806330b3a890146100b15780634dbf27cc146100e15780635a39c581146100fd575b5f5ffd5b6100af60048036038101906100aa9190610df0565b6101f5565b005b6100cb60048036038101906100c69190610df0565b610201565b6040516100d89190610e33565b60405180910390f35b6100fb60048036038101906100f69190610df0565b61024d565b005b61011760048036038101906101129190610e76565b610259565b6040516101249190610f7d565b60405180910390f35b61014760048036038101906101429190610df0565b610382565b6040516101549190610e33565b60405180910390f35b610177600480360381019061017291906110ed565b6103cf565b005b610193600480360381019061018e9190611134565b61040f565b6040516101a0919061118c565b60405180910390f35b6101c360048036038101906101be9190610e76565b610467565b6040516101d09190610f7d565b60405180910390f35b6101f360048036038101906101ee91906110ed565b61058f565b005b6101fe816105cf565b50565b5f6102465f5f8473ffffffffffffffffffffffffffffffffffffffff1673ffffffffffffffffffffffffffffffffffffffff1681526020019081526020015f206107e6565b9050919050565b610256816107f9565b50565b60605f838361026891906111d2565b90505f8167ffffffffffffffff81111561028557610284610fb1565b5b6040519080825280602002602001820160405280156102b35781602001602082028036833780820191505090505b5090505f5f90505b828110156103755761031d81876102d29190611205565b60015f8a73ffffffffffffffffffffffffffffffffffffffff1673ffffffffffffffffffffffffffffffffffffffff1681526020019081526020015f20610a7590919063ffffffff16565b8282815181106103305761032f611238565b5b602002602001019073ffffffffffffffffffffffffffffffffffffffff16908173ffffffffffffffffffffffffffffffffffffffff16815250508060010190506102bb565b5080925050509392505050565b5f6103c860015f8473ffffffffffffffffffffffffffffffffffffffff1673ffffffffffffffffffffffffffffffffffffffff1681526020019081526020015f206107e6565b9050919050565b5f5f90505b815181101561040b576104008282815181106103f3576103f2611238565b5b60200260200101516105cf565b8060010190506103d4565b5050565b5f61045f8260015f8673ffffffffffffffffffffffffffffffffffffffff1673ffffffffffffffffffffffffffffffffffffffff1681526020019081526020015f20610a8c90919063ffffffff16565b905092915050565b60605f838361047691906111d2565b90505f8167ffffffffffffffff81111561049357610492610fb1565b5b6040519080825280602002602001820160405280156104c15781602001602082028036833780820191505090505b5090505f5f90505b828110156105825761052a81876104e09190611205565b5f5f8a73ffffffffffffffffffffffffffffffffffffffff1673ffffffffffffffffffffffffffffffffffffffff1681526020019081526020015f20610a7590919063ffffffff16565b82828151811061053d5761053c611238565b5b602002602001019073ffffffffffffffffffffffffffffffffffffffff16908173ffffffffffffffffffffffffffffffffffffffff16815250508060010190506104c9565b5080925050509392505050565b5f5f90505b81518110156105cb576105c08282815181106105b3576105b2611238565b5b60200260200101516107f9565b806001019050610594565b5050565b5f61061f8260015f3373ffffffffffffffffffffffffffffffffffffffff1673ffffffffffffffffffffffffffffffffffffffff1681526020019081526020015f20610ab990919063ffffffff16565b90508061066357816040517fc70bad4e00000000000000000000000000000000000000000000000000000000815260040161065a9190611274565b60405180910390fd5b6106b1335f5f8573ffffffffffffffffffffffffffffffffffffffff1673ffffffffffffffffffffffffffffffffffffffff1681526020019081526020015f20610ab990919063ffffffff16565b507f083700fd0d85112c9d8c5823585c7542e8fadb693c9902e5bc590ab367f7a15e33836040516106e392919061128d565b60405180910390a161071b636bb56a1460e01b8373ffffffffffffffffffffffffffffffffffffffff16610ae690919063ffffffff16565b156107e2578173ffffffffffffffffffffffffffffffffffffffff16636bb56a147f9d3c0b4012b69658977b099bdaa51eff0f0460f421fba96d15669506c00d1c4f5f1b3360405160200161077091906112f9565b6040516020818303038152906040526040518363ffffffff1660e01b815260040161079c92919061138b565b5f604051808303815f875af19250505080156107da57506040513d5f823e3d601f19601f820116820180604052508101906107d7919061145b565b60015b156107e157505b5b5050565b5f6107f2825f01610b9f565b9050919050565b8073ffffffffffffffffffffffffffffffffffffffff163373ffffffffffffffffffffffffffffffffffffffff160361085e576040517fea61954200000000000000000000000000000000000000000000000000000000815260040160405180910390fd5b5f6108ae8260015f3373ffffffffffffffffffffffffffffffffffffffff1673ffffffffffffffffffffffffffffffffffffffff1681526020019081526020015f20610bae90919063ffffffff16565b9050806108f257816040517f6feacbf60000000000000000000000000000000000000000000000000000000081526004016108e99190611274565b60405180910390fd5b610940335f5f8573ffffffffffffffffffffffffffffffffffffffff1673ffffffffffffffffffffffffffffffffffffffff1681526020019081526020015f20610bae90919063ffffffff16565b507fbccc71dc7842b86291138666aa18e133ee6d41aa71e6d7c650debad1a0576635338360405161097292919061128d565b60405180910390a16109aa636bb56a1460e01b8373ffffffffffffffffffffffffffffffffffffffff16610ae690919063ffffffff16565b15610a71578173ffffffffffffffffffffffffffffffffffffffff16636bb56a147f71e02f9f05bcd5816ec4f3134aa2e5a916669537ec6c77fe66ea595fabc2d51a5f1b336040516020016109ff91906112f9565b6040516020818303038152906040526040518363ffffffff1660e01b8152600401610a2b92919061138b565b5f604051808303815f875af1925050508015610a6957506040513d5f823e3d601f19601f82011682018060405250810190610a66919061145b565b60015b15610a7057505b5b5050565b5f610a82835f0183610bdb565b5f1c905092915050565b5f610ab1835f018373ffffffffffffffffffffffffffffffffffffffff165f1b610c02565b905092915050565b5f610ade835f018373ffffffffffffffffffffffffffffffffffffffff165f1b610c22565b905092915050565b5f5f6301ffc9a760e01b83604051602401610b0191906114dc565b604051602081830303815290604052907bffffffffffffffffffffffffffffffffffffffffffffffffffffffff19166020820180517bffffffffffffffffffffffffffffffffffffffffffffffffffffffff838183161783525050505090505f5f5f60205f8551602087018a617530fa92503d91505f519050828015610b88575060208210155b8015610b9357505f81115b94505050505092915050565b5f815f01805490509050919050565b5f610bd3835f018373ffffffffffffffffffffffffffffffffffffffff165f1b610d1e565b905092915050565b5f825f018281548110610bf157610bf0611238565b5b905f5260205f200154905092915050565b5f5f836001015f8481526020019081526020015f20541415905092915050565b5f5f836001015f8481526020019081526020015f205490505f8114610d13575f600182610c4f91906111d2565b90505f6001865f0180549050610c6591906111d2565b9050818114610ccb575f865f018281548110610c8457610c83611238565b5b905f5260205f200154905080875f018481548110610ca557610ca4611238565b5b905f5260205f20018190555083876001015f8381526020019081526020015f2081905550505b855f01805480610cde57610cdd6114f5565b5b600190038181905f5260205f20015f90559055856001015f8681526020019081526020015f205f905560019350505050610d18565b5f9150505b92915050565b5f610d298383610c02565b610d7b57825f0182908060018154018082558091505060019003905f5260205f20015f9091909190915055825f0180549050836001015f8481526020019081526020015f208190555060019050610d7f565b5f90505b92915050565b5f604051905090565b5f5ffd5b5f5ffd5b5f73ffffffffffffffffffffffffffffffffffffffff82169050919050565b5f610dbf82610d96565b9050919050565b610dcf81610db5565b8114610dd9575f5ffd5b50565b5f81359050610dea81610dc6565b92915050565b5f60208284031215610e0557610e04610d8e565b5b5f610e1284828501610ddc565b91505092915050565b5f819050919050565b610e2d81610e1b565b82525050565b5f602082019050610e465f830184610e24565b92915050565b610e5581610e1b565b8114610e5f575f5ffd5b50565b5f81359050610e7081610e4c565b92915050565b5f5f5f60608486031215610e8d57610e8c610d8e565b5b5f610e9a86828701610ddc565b9350506020610eab86828701610e62565b9250506040610ebc86828701610e62565b9150509250925092565b5f81519050919050565b5f82825260208201905092915050565b5f819050602082019050919050565b610ef881610db5565b82525050565b5f610f098383610eef565b60208301905092915050565b5f602082019050919050565b5f610f2b82610ec6565b610f358185610ed0565b9350610f4083610ee0565b805f5b83811015610f70578151610f578882610efe565b9750610f6283610f15565b925050600181019050610f43565b5085935050505092915050565b5f6020820190508181035f830152610f958184610f21565b905092915050565b5f5ffd5b5f601f19601f8301169050919050565b7f4e487b71000000000000000000000000000000000000000000000000000000005f52604160045260245ffd5b610fe782610fa1565b810181811067ffffffffffffffff8211171561100657611005610fb1565b5b80604052505050565b5f611018610d85565b90506110248282610fde565b919050565b5f67ffffffffffffffff82111561104357611042610fb1565b5b602082029050602081019050919050565b5f5ffd5b5f61106a61106584611029565b61100f565b9050808382526020820190506020840283018581111561108d5761108c611054565b5b835b818110156110b657806110a28882610ddc565b84526020840193505060208101905061108f565b5050509392505050565b5f82601f8301126110d4576110d3610f9d565b5b81356110e4848260208601611058565b91505092915050565b5f6020828403121561110257611101610d8e565b5b5f82013567ffffffffffffffff81111561111f5761111e610d92565b5b61112b848285016110c0565b91505092915050565b5f5f6040838503121561114a57611149610d8e565b5b5f61115785828601610ddc565b925050602061116885828601610ddc565b9150509250929050565b5f8115159050919050565b61118681611172565b82525050565b5f60208201905061119f5f83018461117d565b92915050565b7f4e487b71000000000000000000000000000000000000000000000000000000005f52601160045260245ffd5b5f6111dc82610e1b565b91506111e783610e1b565b92508282039050818111156111ff576111fe6111a5565b5b92915050565b5f61120f82610e1b565b915061121a83610e1b565b9250828201905080821115611232576112316111a5565b5b92915050565b7f4e487b71000000000000000000000000000000000000000000000000000000005f52603260045260245ffd5b61126e81610db5565b82525050565b5f6020820190506112875f830184611265565b92915050565b5f6040820190506112a05f830185611265565b6112ad6020830184611265565b9392505050565b5f8160601b9050919050565b5f6112ca826112b4565b9050919050565b5f6112db826112c0565b9050919050565b6112f36112ee82610db5565b6112d1565b82525050565b5f61130482846112e2565b60148201915081905092915050565b5f819050919050565b61132581611313565b82525050565b5f81519050919050565b5f82825260208201905092915050565b8281835e5f83830152505050565b5f61135d8261132b565b6113678185611335565b9350611377818560208601611345565b61138081610fa1565b840191505092915050565b5f60408201905061139e5f83018561131c565b81810360208301526113b08184611353565b90509392505050565b5f5ffd5b5f67ffffffffffffffff8211156113d7576113d6610fb1565b5b6113e082610fa1565b9050602081019050919050565b5f6113ff6113fa846113bd565b61100f565b90508281526020810184848401111561141b5761141a6113b9565b5b611426848285611345565b509392505050565b5f82601f83011261144257611441610f9d565b5b81516114528482602086016113ed565b91505092915050565b5f602082840312156114705761146f610d8e565b5b5f82015167ffffffffffffffff81111561148d5761148c610d92565b5b6114998482850161142e565b91505092915050565b5f7fffffffff0000000000000000000000000000000000000000000000000000000082169050919050565b6114d6816114a2565b82525050565b5f6020820190506114ef5f8301846114cd565b92915050565b7f4e487b71000000000000000000000000000000000000000000000000000000005f52603160045260245ffdfea26469706673582212201f1afa9889d5d3419b82cbc4655b6ff987e9ab1fb6c71b29de0a218c7b3f69f164736f6c634300081d0033",
					"opcodes": "PUSH1 0x80 PUSH1 0x40 MSTORE CALLVALUE DUP1 ISZERO PUSH1 0xE JUMPI PUSH0 PUSH0 REVERT JUMPDEST POP PUSH2 0x1558 DUP1 PUSH2 0x1C PUSH0 CODECOPY PUSH0 RETURN INVALID PUSH1 0x80 PUSH1 0x40 MSTORE CALLVALUE DUP1 ISZERO PUSH2 0xF JUMPI PUSH0 PUSH0 REVERT JUMPDEST POP PUSH1 0x4 CALLDATASIZE LT PUSH2 0x91 JUMPI PUSH0 CALLDATALOAD PUSH1 0xE0 SHR DUP1 PUSH4 0x64548707 GT PUSH2 0x64 JUMPI DUP1 PUSH4 0x64548707 EQ PUSH2 0x12D JUMPI DUP1 PUSH4 0x8DD1E47E EQ PUSH2 0x15D JUMPI DUP1 PUSH4 0x99EC3A42 EQ PUSH2 0x179 JUMPI DUP1 PUSH4 0xB2A8D069 EQ PUSH2 0x1A9 JUMPI DUP1 PUSH4 0xCF8711C8 EQ PUSH2 0x1D9 JUMPI PUSH2 0x91 JUMP JUMPDEST DUP1 PUSH4 0x15A4EAD EQ PUSH2 0x95 JUMPI DUP1 PUSH4 0x30B3A890 EQ PUSH2 0xB1 JUMPI DUP1 PUSH4 0x4DBF27CC EQ PUSH2 0xE1 JUMPI DUP1 PUSH4 0x5A39C581 EQ PUSH2 0xFD JUMPI JUMPDEST PUSH0 PUSH0 REVERT JUMPDEST PUSH2 0xAF PUSH1 0x4 DUP1 CALLDATASIZE SUB DUP2 ADD SWAP1 PUSH2 0xAA SWAP2 SWAP1 PUSH2 0xDF0 JUMP JUMPDEST PUSH2 0x1F5 JUMP JUMPDEST STOP JUMPDEST PUSH2 0xCB PUSH1 0x4 DUP1 CALLDATASIZE SUB DUP2 ADD SWAP1 PUSH2 0xC6 SWAP2 SWAP1 PUSH2 0xDF0 JUMP JUMPDEST PUSH2 0x201 JUMP JUMPDEST PUSH1 0x40 MLOAD PUSH2 0xD8 SWAP2 SWAP1 PUSH2 0xE33 JUMP JUMPDEST PUSH1 0x40 MLOAD DUP1 SWAP2 SUB SWAP1 RETURN JUMPDEST PUSH2 0xFB PUSH1 0x4 DUP1 CALLDATASIZE SUB DUP2 ADD SWAP1 PUSH2 0xF6 SWAP2 SWAP1 PUSH2 0xDF0 JUMP JUMPDEST PUSH2 0x24D JUMP JUMPDEST STOP JUMPDEST PUSH2 0x117 PUSH1 0x4 DUP1 CALLDATASIZE SUB DUP2 ADD SWAP1 PUSH2 0x112 SWAP2 SWAP1 PUSH2 0xE76 JUMP JUMPDEST PUSH2 0x259 JUMP JUMPDEST PUSH1 0x40 MLOAD PUSH2 0x124 SWAP2 SWAP1 PUSH2 0xF7D JUMP JUMPDEST PUSH1 0x40 MLOAD DUP1 SWAP2 SUB SWAP1 RETURN JUMPDEST PUSH2 0x147 PUSH1 0x4 DUP1 CALLDATASIZE SUB DUP2 ADD SWAP1 PUSH2 0x142 SWAP2 SWAP1 PUSH2 0xDF0 JUMP JUMPDEST PUSH2 0x382 JUMP JUMPDEST PUSH1 0x40 MLOAD PUSH2 0x154 SWAP2 SWAP1 PUSH2 0xE33 JUMP JUMPDEST PUSH1 0x40 MLOAD DUP1 SWAP2 SUB SWAP1 RETURN JUMPDEST PUSH2 0x177 PUSH1 0x4 DUP1 CALLDATASIZE SUB DUP2 ADD SWAP1 PUSH2 0x172 SWAP2 SWAP1 PUSH2 0x10ED JUMP JUMPDEST PUSH2 0x3CF JUMP JUMPDEST STOP JUMPDEST PUSH2 0x193 PUSH1 0x4 DUP1 CALLDATASIZE SUB DUP2 ADD SWAP1 PUSH2 0x18E SWAP2 SWAP1 PUSH2 0x1134 JUMP JUMPDEST PUSH2 0x40F JUMP JUMPDEST PUSH1 0x40 MLOAD PUSH2 0x1A0 SWAP2 SWAP1 PUSH2 0x118C JUMP JUMPDEST PUSH1 0x40 MLOAD DUP1 SWAP2 SUB SWAP1 RETURN JUMPDEST PUSH2 0x1C3 PUSH1 0x4 DUP1 CALLDATASIZE SUB DUP2 ADD SWAP1 PUSH2 0x1BE SWAP2 SWAP1 PUSH2 0xE76 JUMP JUMPDEST PUSH2 0x467 JUMP JUMPDEST PUSH1 0x40 MLOAD PUSH2 0x1D0 SWAP2 SWAP1 PUSH2 0xF7D JUMP JUMPDEST PUSH1 0x40 MLOAD DUP1 SWAP2 SUB SWAP1 RETURN JUMPDEST PUSH2 0x1F3 PUSH1 0x4 DUP1 CALLDATASIZE SUB DUP2 ADD SWAP1 PUSH2 0x1EE SWAP2 SWAP1 PUSH2 0x10ED JUMP JUMPDEST PUSH2 0x58F JUMP JUMPDEST STOP JUMPDEST PUSH2 0x1FE DUP2 PUSH2 0x5CF JUMP JUMPDEST POP JUMP JUMPDEST PUSH0 PUSH2 0x246 PUSH0 PUSH0 DUP5 PUSH20 0xFFFFFFFFFFFFFFFFFFFFFFFFFFFFFFFFFFFFFFFF AND PUSH20 0xFFFFFFFFFFFFFFFFFFFFFFFFFFFFFFFFFFFFFFFF AND DUP2 MSTORE PUSH1 0x20 ADD SWAP1 DUP2 MSTORE PUSH1 0x20 ADD PUSH0 KECCAK256 PUSH2 0x7E6 JUMP JUMPDEST SWAP1 POP SWAP2 SWAP1 POP JUMP JUMPDEST PUSH2 0x256 DUP2 PUSH2 0x7F9 JUMP JUMPDEST POP JUMP JUMPDEST PUSH1 0x60 PUSH0 DUP4 DUP4 PUSH2 0x268 SWAP2 SWAP1 PUSH2 0x11D2 JUMP JUMPDEST SWAP1 POP PUSH0 DUP2 PUSH8 0xFFFFFFFFFFFFFFFF DUP2 GT ISZERO PUSH2 0x285 JUMPI PUSH2 0x284 PUSH2 0xFB1 JUMP JUMPDEST JUMPDEST PUSH1 0x40 MLOAD SWAP1 DUP1 DUP3 MSTORE DUP1 PUSH1 0x20 MUL PUSH1 0x20 ADD DUP3 ADD PUSH1 0x40 MSTORE DUP1 ISZERO PUSH2 0x2B3 JUMPI DUP2 PUSH1 0x20 ADD PUSH1 0x20 DUP3 MUL DUP1 CALLDATASIZE DUP4 CALLDATACOPY DUP1 DUP3 ADD SWAP2 POP POP SWAP1 POP JUMPDEST POP SWAP1 POP PUSH0 PUSH0 SWAP1 POP JUMPDEST DUP3 DUP2 LT ISZERO PUSH2 0x375 JUMPI PUSH2 0x31D DUP2 DUP8 PUSH2 0x2D2 SWAP2 SWAP1 PUSH2 0x1205 JUMP JUMPDEST PUSH1 0x1 PUSH0 DUP11 PUSH20 0xFFFFFFFFFFFFFFFFFFFFFFFFFFFFFFFFFFFFFFFF AND PUSH20 0xFFFFFFFFFFFFFFFFFFFFFFFFFFFFFFFFFFFFFFFF AND DUP2 MSTORE PUSH1 0x20 ADD SWAP1 DUP2 MSTORE PUSH1 0x20 ADD PUSH0 KECCAK256 PUSH2 0xA75 SWAP1 SWAP2 SWAP1 PUSH4 0xFFFFFFFF AND JUMP JUMPDEST DUP3 DUP3 DUP2 MLOAD DUP2 LT PUSH2 0x330 JUMPI PUSH2 0x32F PUSH2 0x1238 JUMP JUMPDEST JUMPDEST PUSH1 0x20 MUL PUSH1 0x20 ADD ADD SWAP1 PUSH20 0xFFFFFFFFFFFFFFFFFFFFFFFFFFFFFFFFFFFFFFFF AND SWAP1 DUP2 PUSH20 0xFFFFFFFFFFFFFFFFFFFFFFFFFFFFFFFFFFFFFFFF AND DUP2 MSTORE POP POP DUP1 PUSH1 0x1 ADD SWAP1 POP PUSH2 0x2BB JUMP JUMPDEST POP DUP1 SWAP3 POP POP POP SWAP4 SWAP3 POP POP POP JUMP JUMPDEST PUSH0 PUSH2 0x3C8 PUSH1 0x1 PUSH0 DUP5 PUSH20 0xFFFFFFFFFFFFFFFFFFFFFFFFFFFFFFFFFFFFFFFF AND PUSH20 0xFFFFFFFFFFFFFFFFFFFFFFFFFFFFFFFFFFFFFFFF AND DUP2 MSTORE PUSH1 0x20 ADD SWAP1 DUP2 MSTORE PUSH1 0x20 ADD PUSH0 KECCAK256 PUSH2 0x7E6 JUMP JUMPDEST SWAP1 POP SWAP2 SWAP1 POP JUMP JUMPDEST PUSH0 PUSH0 SWAP1 POP JUMPDEST DUP2 MLOAD DUP2 LT ISZERO PUSH2 0x40B JUMPI PUSH2 0x400 DUP3 DUP3 DUP2 MLOAD DUP2 LT PUSH2 0x3F3 JUMPI PUSH2 0x3F2 PUSH2 0x1238 JUMP JUMPDEST JUMPDEST PUSH1 0x20 MUL PUSH1 0x20 ADD ADD MLOAD PUSH2 0x5CF JUMP JUMPDEST DUP1 PUSH1 0x1 ADD SWAP1 POP PUSH2 0x3D4 JUMP JUMPDEST POP POP JUMP JUMPDEST PUSH0 PUSH2 0x45F DUP3 PUSH1 0x1 PUSH0 DUP7 PUSH20 0xFFFFFFFFFFFFFFFFFFFFFFFFFFFFFFFFFFFFFFFF AND PUSH20 0xFFFFFFFFFFFFFFFFFFFFFFFFFFFFFFFFFFFFFFFF AND DUP2 MSTORE PUSH1 0x20 ADD SWAP1 DUP2 MSTORE PUSH1 0x20 ADD PUSH0 KECCAK256 PUSH2 0xA8C SWAP1 SWAP2 SWAP1 PUSH4 0xFFFFFFFF AND JUMP JUMPDEST SWAP1 POP SWAP3 SWAP2 POP POP JUMP JUMPDEST PUSH1 0x60 PUSH0 DUP4 DUP4 PUSH2 0x476 SWAP2 SWAP1 PUSH2 0x11D2 JUMP JUMPDEST SWAP1 POP PUSH0 DUP2 PUSH8 0xFFFFFFFFFFFFFFFF DUP2 GT ISZERO PUSH2 0x493 JUMPI PUSH2 0x492 PUSH2 0xFB1 JUMP JUMPDEST JUMPDEST PUSH1 0x40 MLOAD SWAP1 DUP1 DUP3 MSTORE DUP1 PUSH1 0x20 MUL PUSH1 0x20 ADD DUP3 ADD PUSH1 0x40 MSTORE DUP1 ISZERO PUSH2 0x4C1 JUMPI DUP2 PUSH1 0x20 ADD PUSH1 0x20 DUP3 MUL DUP1 CALLDATASIZE DUP4 CALLDATACOPY DUP1 DUP3 ADD SWAP2 POP POP SWAP1 POP JUMPDEST POP SWAP1 POP PUSH0 PUSH0 SWAP1 POP JUMPDEST DUP3 DUP2 LT ISZERO PUSH2 0x582 JUMPI PUSH2 0x52A DUP2 DUP8 PUSH2 0x4E0 SWAP2 SWAP1 PUSH2 0x1205 JUMP JUMPDEST PUSH0 PUSH0 DUP11 PUSH20 0xFFFFFFFFFFFFFFFFFFFFFFFFFFFFFFFFFFFFFFFF AND PUSH20 0xFFFFFFFFFFFFFFFFFFFFFFFFFFFFFFFFFFFFFFFF AND DUP2 MSTORE PUSH1 0x20 ADD SWAP1 DUP2 MSTORE PUSH1 0x20 ADD PUSH0 KECCAK256 PUSH2 0xA75 SWAP1 SWAP2 SWAP1 PUSH4 0xFFFFFFFF AND JUMP JUMPDEST DUP3 DUP3 DUP2 MLOAD DUP2 LT PUSH2 0x53D JUMPI PUSH2 0x53C PUSH2 0x1238 JUMP JUMPDEST JUMPDEST PUSH1 0x20 MUL PUSH1 0x20 ADD ADD SWAP1 PUSH20 0xFFFFFFFFFFFFFFFFFFFFFFFFFFFFFFFFFFFFFFFF AND SWAP1 DUP2 PUSH20 0xFFFFFFFFFFFFFFFFFFFFFFFFFFFFFFFFFFFFFFFF AND DUP2 MSTORE POP POP DUP1 PUSH1 0x1 ADD SWAP1 POP PUSH2 0x4C9 JUMP JUMPDEST POP DUP1 SWAP3 POP POP POP SWAP4 SWAP3 POP POP POP JUMP JUMPDEST PUSH0 PUSH0 SWAP1 POP JUMPDEST DUP2 MLOAD DUP2 LT ISZERO PUSH2 0x5CB JUMPI PUSH2 0x5C0 DUP3 DUP3 DUP2 MLOAD DUP2 LT PUSH2 0x5B3 JUMPI PUSH2 0x5B2 PUSH2 0x1238 JUMP JUMPDEST JUMPDEST PUSH1 0x20 MUL PUSH1 0x20 ADD ADD MLOAD PUSH2 0x7F9 JUMP JUMPDEST DUP1 PUSH1 0x1 ADD SWAP1 POP PUSH2 0x594 JUMP JUMPDEST POP POP JUMP JUMPDEST PUSH0 PUSH2 0x61F DUP3 PUSH1 0x1 PUSH0 CALLER PUSH20 0xFFFFFFFFFFFFFFFFFFFFFFFFFFFFFFFFFFFFFFFF AND PUSH20 0xFFFFFFFFFFFFFFFFFFFFFFFFFFFFFFFFFFFFFFFF AND DUP2 MSTORE PUSH1 0x20 ADD SWAP1 DUP2 MSTORE PUSH1 0x20 ADD PUSH0 KECCAK256 PUSH2 0xAB9 SWAP1 SWAP2 SWAP1 PUSH4 0xFFFFFFFF AND JUMP JUMPDEST SWAP1 POP DUP1 PUSH2 0x663 JUMPI DUP2 PUSH1 0x40 MLOAD PUSH32 0xC70BAD4E00000000000000000000000000000000000000000000000000000000 DUP2 MSTORE PUSH1 0x4 ADD PUSH2 0x65A SWAP2 SWAP1 PUSH2 0x1274 JUMP JUMPDEST PUSH1 0x40 MLOAD DUP1 SWAP2 SUB SWAP1 REVERT JUMPDEST PUSH2 0x6B1 CALLER PUSH0 PUSH0 DUP6 PUSH20 0xFFFFFFFFFFFFFFFFFFFFFFFFFFFFFFFFFFFFFFFF AND PUSH20 0xFFFFFFFFFFFFFFFFFFFFFFFFFFFFFFFFFFFFFFFF AND DUP2 MSTORE PUSH1 0x20 ADD SWAP1 DUP2 MSTORE PUSH1 0x20 ADD PUSH0 KECCAK256 PUSH2 0xAB9 SWAP1 SWAP2 SWAP1 PUSH4 0xFFFFFFFF AND JUMP JUMPDEST POP PUSH32 0x83700FD0D85112C9D8C5823585C7542E8FADB693C9902E5BC590AB367F7A15E CALLER DUP4 PUSH1 0x40 MLOAD PUSH2 0x6E3 SWAP3 SWAP2 SWAP1 PUSH2 0x128D JUMP JUMPDEST PUSH1 0x40 MLOAD DUP1 SWAP2 SUB SWAP1 LOG1 PUSH2 0x71B PUSH4 0x6BB56A14 PUSH1 0xE0 SHL DUP4 PUSH20 0xFFFFFFFFFFFFFFFFFFFFFFFFFFFFFFFFFFFFFFFF AND PUSH2 0xAE6 SWAP1 SWAP2 SWAP1 PUSH4 0xFFFFFFFF AND JUMP JUMPDEST ISZERO PUSH2 0x7E2 JUMPI DUP2 PUSH20 0xFFFFFFFFFFFFFFFFFFFFFFFFFFFFFFFFFFFFFFFF AND PUSH4 0x6BB56A14 PUSH32 0x9D3C0B4012B69658977B099BDAA51EFF0F0460F421FBA96D15669506C00D1C4F PUSH0 SHL CALLER PUSH1 0x40 MLOAD PUSH1 0x20 ADD PUSH2 0x770 SWAP2 SWAP1 PUSH2 0x12F9 JUMP JUMPDEST PUSH1 0x40 MLOAD PUSH1 0x20 DUP2 DUP4 SUB SUB DUP2 MSTORE SWAP1 PUSH1 0x40 MSTORE PUSH1 0x40 MLOAD DUP4 PUSH4 0xFFFFFFFF AND PUSH1 0xE0 SHL DUP2 MSTORE PUSH1 0x4 ADD PUSH2 0x79C SWAP3 SWAP2 SWAP1 PUSH2 0x138B JUMP JUMPDEST PUSH0 PUSH1 0x40 MLOAD DUP1 DUP4 SUB DUP2 PUSH0 DUP8 GAS CALL SWAP3 POP POP POP DUP1 ISZERO PUSH2 0x7DA JUMPI POP PUSH1 0x40 MLOAD RETURNDATASIZE PUSH0 DUP3 RETURNDATACOPY RETURNDATASIZE PUSH1 0x1F NOT PUSH1 0x1F DUP3 ADD AND DUP3 ADD DUP1 PUSH1 0x40 MSTORE POP DUP2 ADD SWAP1 PUSH2 0x7D7 SWAP2 SWAP1 PUSH2 0x145B JUMP JUMPDEST PUSH1 0x1 JUMPDEST ISZERO PUSH2 0x7E1 JUMPI POP JUMPDEST JUMPDEST POP POP JUMP JUMPDEST PUSH0 PUSH2 0x7F2 DUP3 PUSH0 ADD PUSH2 0xB9F JUMP JUMPDEST SWAP1 POP SWAP2 SWAP1 POP JUMP JUMPDEST DUP1 PUSH20 0xFFFFFFFFFFFFFFFFFFFFFFFFFFFFFFFFFFFFFFFF AND CALLER PUSH20 0xFFFFFFFFFFFFFFFFFFFFFFFFFFFFFFFFFFFFFFFF AND SUB PUSH2 0x85E JUMPI PUSH1 0x40 MLOAD PUSH32 0xEA61954200000000000000000000000000000000000000000000000000000000 DUP2 MSTORE PUSH1 0x4 ADD PUSH1 0x40 MLOAD DUP1 SWAP2 SUB SWAP1 REVERT JUMPDEST PUSH0 PUSH2 0x8AE DUP3 PUSH1 0x1 PUSH0 CALLER PUSH20 0xFFFFFFFFFFFFFFFFFFFFFFFFFFFFFFFFFFFFFFFF AND PUSH20 0xFFFFFFFFFFFFFFFFFFFFFFFFFFFFFFFFFFFFFFFF AND DUP2 MSTORE PUSH1 0x20 ADD SWAP1 DUP2 MSTORE PUSH1 0x20 ADD PUSH0 KECCAK256 PUSH2 0xBAE SWAP1 SWAP2 SWAP1 PUSH4 0xFFFFFFFF AND JUMP JUMPDEST SWAP1 POP DUP1 PUSH2 0x8F2 JUMPI DUP2 PUSH1 0x40 MLOAD PUSH32 0x6FEACBF600000000000000000000000000000000000000000000000000000000 DUP2 MSTORE PUSH1 0x4 ADD PUSH2 0x8E9 SWAP2 SWAP1 PUSH2 0x1274 JUMP JUMPDEST PUSH1 0x40 MLOAD DUP1 SWAP2 SUB SWAP1 REVERT JUMPDEST PUSH2 0x940 CALLER PUSH0 PUSH0 DUP6 PUSH20 0xFFFFFFFFFFFFFFFFFFFFFFFFFFFFFFFFFFFFFFFF AND PUSH20 0xFFFFFFFFFFFFFFFFFFFFFFFFFFFFFFFFFFFFFFFF AND DUP2 MSTORE PUSH1 0x20 ADD SWAP1 DUP2 MSTORE PUSH1 0x20 ADD PUSH0 KECCAK256 PUSH2 0xBAE SWAP1 SWAP2 SWAP1 PUSH4 0xFFFFFFFF AND JUMP JUMPDEST POP PUSH32 0xBCCC71DC7842B86291138666AA18E133EE6D41AA71E6D7C650DEBAD1A0576635 CALLER DUP4 PUSH1 0x40 MLOAD PUSH2 0x972 SWAP3 SWAP2 SWAP1 PUSH2 0x128D JUMP JUMPDEST PUSH1 0x40 MLOAD DUP1 SWAP2 SUB SWAP1 LOG1 PUSH2 0x9AA PUSH4 0x6BB56A14 PUSH1 0xE0 SHL DUP4 PUSH20 0xFFFFFFFFFFFFFFFFFFFFFFFFFFFFFFFFFFFFFFFF AND PUSH2 0xAE6 SWAP1 SWAP2 SWAP1 PUSH4 0xFFFFFFFF AND JUMP JUMPDEST ISZERO PUSH2 0xA71 JUMPI DUP2 PUSH20 0xFFFFFFFFFFFFFFFFFFFFFFFFFFFFFFFFFFFFFFFF AND PUSH4 0x6BB56A14 PUSH32 0x71E02F9F05BCD5816EC4F3134AA2E5A916669537EC6C77FE66EA595FABC2D51A PUSH0 SHL CALLER PUSH1 0x40 MLOAD PUSH1 0x20 ADD PUSH2 0x9FF SWAP2 SWAP1 PUSH2 0x12F9 JUMP JUMPDEST PUSH1 0x40 MLOAD PUSH1 0x20 DUP2 DUP4 SUB SUB DUP2 MSTORE SWAP1 PUSH1 0x40 MSTORE PUSH1 0x40 MLOAD DUP4 PUSH4 0xFFFFFFFF AND PUSH1 0xE0 SHL DUP2 MSTORE PUSH1 0x4 ADD PUSH2 0xA2B SWAP3 SWAP2 SWAP1 PUSH2 0x138B JUMP JUMPDEST PUSH0 PUSH1 0x40 MLOAD DUP1 DUP4 SUB DUP2 PUSH0 DUP8 GAS CALL SWAP3 POP POP POP DUP1 ISZERO PUSH2 0xA69 JUMPI POP PUSH1 0x40 MLOAD RETURNDATASIZE PUSH0 DUP3 RETURNDATACOPY RETURNDATASIZE PUSH1 0x1F NOT PUSH1 0x1F DUP3 ADD AND DUP3 ADD DUP1 PUSH1 0x40 MSTORE POP DUP2 ADD SWAP1 PUSH2 0xA66 SWAP2 SWAP1 PUSH2 0x145B JUMP JUMPDEST PUSH1 0x1 JUMPDEST ISZERO PUSH2 0xA70 JUMPI POP JUMPDEST JUMPDEST POP POP JUMP JUMPDEST PUSH0 PUSH2 0xA82 DUP4 PUSH0 ADD DUP4 PUSH2 0xBDB JUMP JUMPDEST PUSH0 SHR SWAP1 POP SWAP3 SWAP2 POP POP JUMP JUMPDEST PUSH0 PUSH2 0xAB1 DUP4 PUSH0 ADD DUP4 PUSH20 0xFFFFFFFFFFFFFFFFFFFFFFFFFFFFFFFFFFFFFFFF AND PUSH0 SHL PUSH2 0xC02 JUMP JUMPDEST SWAP1 POP SWAP3 SWAP2 POP POP JUMP JUMPDEST PUSH0 PUSH2 0xADE DUP4 PUSH0 ADD DUP4 PUSH20 0xFFFFFFFFFFFFFFFFFFFFFFFFFFFFFFFFFFFFFFFF AND PUSH0 SHL PUSH2 0xC22 JUMP JUMPDEST SWAP1 POP SWAP3 SWAP2 POP POP JUMP JUMPDEST PUSH0 PUSH0 PUSH4 0x1FFC9A7 PUSH1 0xE0 SHL DUP4 PUSH1 0x40 MLOAD PUSH1 0x24 ADD PUSH2 0xB01 SWAP2 SWAP1 PUSH2 0x14DC JUMP JUMPDEST PUSH1 0x40 MLOAD PUSH1 0x20 DUP2 DUP4 SUB SUB DUP2 MSTORE SWAP1 PUSH1 0x40 MSTORE SWAP1 PUSH28 0xFFFFFFFFFFFFFFFFFFFFFFFFFFFFFFFFFFFFFFFFFFFFFFFFFFFFFFFF NOT AND PUSH1 0x20 DUP3 ADD DUP1 MLOAD PUSH28 0xFFFFFFFFFFFFFFFFFFFFFFFFFFFFFFFFFFFFFFFFFFFFFFFFFFFFFFFF DUP4 DUP2 DUP4 AND OR DUP4 MSTORE POP POP POP POP SWAP1 POP PUSH0 PUSH0 PUSH0 PUSH1 0x20 PUSH0 DUP6 MLOAD PUSH1 0x20 DUP8 ADD DUP11 PUSH2 0x7530 STATICCALL SWAP3 POP RETURNDATASIZE SWAP2 POP PUSH0 MLOAD SWAP1 POP DUP3 DUP1 ISZERO PUSH2 0xB88 JUMPI POP PUSH1 0x20 DUP3 LT ISZERO JUMPDEST DUP1 ISZERO PUSH2 0xB93 JUMPI POP PUSH0 DUP2 GT JUMPDEST SWAP5 POP POP POP POP POP SWAP3 SWAP2 POP POP JUMP JUMPDEST PUSH0 DUP2 PUSH0 ADD DUP1 SLOAD SWAP1 POP SWAP1 POP SWAP2 SWAP1 POP JUMP JUMPDEST PUSH0 PUSH2 0xBD3 DUP4 PUSH0 ADD DUP4 PUSH20 0xFFFFFFFFFFFFFFFFFFFFFFFFFFFFFFFFFFFFFFFF AND PUSH0 SHL PUSH2 0xD1E JUMP JUMPDEST SWAP1 POP SWAP3 SWAP2 POP POP JUMP JUMPDEST PUSH0 DUP3 PUSH0 ADD DUP3 DUP2 SLOAD DUP2 LT PUSH2 0xBF1 JUMPI PUSH2 0xBF0 PUSH2 0x1238 JUMP JUMPDEST JUMPDEST SWAP1 PUSH0 MSTORE PUSH1 0x20 PUSH0 KECCAK256 ADD SLOAD SWAP1 POP SWAP3 SWAP2 POP POP JUMP JUMPDEST PUSH0 PUSH0 DUP4 PUSH1 0x1 ADD PUSH0 DUP5 DUP2 MSTORE PUSH1 0x20 ADD SWAP1 DUP2 MSTORE PUSH1 0x20 ADD PUSH0 KECCAK256 SLOAD EQ ISZERO SWAP1 POP SWAP3 SWAP2 POP POP JUMP JUMPDEST PUSH0 PUSH0 DUP4 PUSH1 0x1 ADD PUSH0 DUP5 DUP2 MSTORE PUSH1 0x20 ADD SWAP1 DUP2 MSTORE PUSH1 0x20 ADD PUSH0 KECCAK256 SLOAD SWAP1 POP PUSH0 DUP2 EQ PUSH2 0xD13 JUMPI PUSH0 PUSH1 0x1 DUP3 PUSH2 0xC4F SWAP2 SWAP1 PUSH2 0x11D2 JUMP JUMPDEST SWAP1 POP PUSH0 PUSH1 0x1 DUP7 PUSH0 ADD DUP1 SLOAD SWAP1 POP PUSH2 0xC65 SWAP2 SWAP1 PUSH2 0x11D2 JUMP JUMPDEST SWAP1 POP DUP2 DUP2 EQ PUSH2 0xCCB JUMPI PUSH0 DUP7 PUSH0 ADD DUP3 DUP2 SLOAD DUP2 LT PUSH2 0xC84 JUMPI PUSH2 0xC83 PUSH2 0x1238 JUMP JUMPDEST JUMPDEST SWAP1 PUSH0 MSTORE PUSH1 0x20 PUSH0 KECCAK256 ADD SLOAD SWAP1 POP DUP1 DUP8 PUSH0 ADD DUP5 DUP2 SLOAD DUP2 LT PUSH2 0xCA5 JUMPI PUSH2 0xCA4 PUSH2 0x1238 JUMP JUMPDEST JUMPDEST SWAP1 PUSH0 MSTORE PUSH1 0x20 PUSH0 KECCAK256 ADD DUP2 SWAP1 SSTORE POP DUP4 DUP8 PUSH1 0x1 ADD PUSH0 DUP4 DUP2 MSTORE PUSH1 0x20 ADD SWAP1 DUP2 MSTORE PUSH1 0x20 ADD PUSH0 KECCAK256 DUP2 SWAP1 SSTORE POP POP JUMPDEST DUP6 PUSH0 ADD DUP1 SLOAD DUP1 PUSH2 0xCDE JUMPI PUSH2 0xCDD PUSH2 0x14F5 JUMP JUMPDEST JUMPDEST PUSH1 0x1 SWAP1 SUB DUP2 DUP2 SWAP1 PUSH0 MSTORE PUSH1 0x20 PUSH0 KECCAK256 ADD PUSH0 SWAP1 SSTORE SWAP1 SSTORE DUP6 PUSH1 0x1 ADD PUSH0 DUP7 DUP2 MSTORE PUSH1 0x20 ADD SWAP1 DUP2 MSTORE PUSH1 0x20 ADD PUSH0 KECCAK256 PUSH0 SWAP1 SSTORE PUSH1 0x1 SWAP4 POP POP POP POP PUSH2 0xD18 JUMP JUMPDEST PUSH0 SWAP2 POP POP JUMPDEST SWAP3 SWAP2 POP POP JUMP JUMPDEST PUSH0 PUSH2 0xD29 DUP4 DUP4 PUSH2 0xC02 JUMP JUMPDEST PUSH2 0xD7B JUMPI DUP3 PUSH0 ADD DUP3 SWAP1 DUP1 PUSH1 0x1 DUP2 SLOAD ADD DUP1 DUP3 SSTORE DUP1 SWAP2 POP POP PUSH1 0x1 SWAP1 SUB SWAP1 PUSH0 MSTORE PUSH1 0x20 PUSH0 KECCAK256 ADD PUSH0 SWAP1 SWAP2 SWAP1 SWAP2 SWAP1 SWAP2 POP SSTORE DUP3 PUSH0 ADD DUP1 SLOAD SWAP1 POP DUP4 PUSH1 0x1 ADD PUSH0 DUP5 DUP2 MSTORE PUSH1 0x20 ADD SWAP1 DUP2 MSTORE PUSH1 0x20 ADD PUSH0 KECCAK256 DUP2 SWAP1 SSTORE POP PUSH1 0x1 SWAP1 POP PUSH2 0xD7F JUMP JUMPDEST PUSH0 SWAP1 POP JUMPDEST SWAP3 SWAP2 POP POP JUMP JUMPDEST PUSH0 PUSH1 0x40 MLOAD SWAP1 POP SWAP1 JUMP JUMPDEST PUSH0 PUSH0 REVERT JUMPDEST PUSH0 PUSH0 REVERT JUMPDEST PUSH0 PUSH20 0xFFFFFFFFFFFFFFFFFFFFFFFFFFFFFFFFFFFFFFFF DUP3 AND SWAP1 POP SWAP2 SWAP1 POP JUMP JUMPDEST PUSH0 PUSH2 0xDBF DUP3 PUSH2 0xD96 JUMP JUMPDEST SWAP1 POP SWAP2 SWAP1 POP JUMP JUMPDEST PUSH2 0xDCF DUP2 PUSH2 0xDB5 JUMP JUMPDEST DUP2 EQ PUSH2 0xDD9 JUMPI PUSH0 PUSH0 REVERT JUMPDEST POP JUMP JUMPDEST PUSH0 DUP2 CALLDATALOAD SWAP1 POP PUSH2 0xDEA DUP2 PUSH2 0xDC6 JUMP JUMPDEST SWAP3 SWAP2 POP POP JUMP JUMPDEST PUSH0 PUSH1 0x20 DUP3 DUP5 SUB SLT ISZERO PUSH2 0xE05 JUMPI PUSH2 0xE04 PUSH2 0xD8E JUMP JUMPDEST JUMPDEST PUSH0 PUSH2 0xE12 DUP5 DUP3 DUP6 ADD PUSH2 0xDDC JUMP JUMPDEST SWAP2 POP POP SWAP3 SWAP2 POP POP JUMP JUMPDEST PUSH0 DUP2 SWAP1 POP SWAP2 SWAP1 POP JUMP JUMPDEST PUSH2 0xE2D DUP2 PUSH2 0xE1B JUMP JUMPDEST DUP3 MSTORE POP POP JUMP JUMPDEST PUSH0 PUSH1 0x20 DUP3 ADD SWAP1 POP PUSH2 0xE46 PUSH0 DUP4 ADD DUP5 PUSH2 0xE24 JUMP JUMPDEST SWAP3 SWAP2 POP POP JUMP JUMPDEST PUSH2 0xE55 DUP2 PUSH2 0xE1B JUMP JUMPDEST DUP2 EQ PUSH2 0xE5F JUMPI PUSH0 PUSH0 REVERT JUMPDEST POP JUMP JUMPDEST PUSH0 DUP2 CALLDATALOAD SWAP1 POP PUSH2 0xE70 DUP2 PUSH2 0xE4C JUMP JUMPDEST SWAP3 SWAP2 POP POP JUMP JUMPDEST PUSH0 PUSH0 PUSH0 PUSH1 0x60 DUP5 DUP7 SUB SLT ISZERO PUSH2 0xE8D JUMPI PUSH2 0xE8C PUSH2 0xD8E JUMP JUMPDEST JUMPDEST PUSH0 PUSH2 0xE9A DUP7 DUP3 DUP8 ADD PUSH2 0xDDC JUMP JUMPDEST SWAP4 POP POP PUSH1 0x20 PUSH2 0xEAB DUP7 DUP3 DUP8 ADD PUSH2 0xE62 JUMP JUMPDEST SWAP3 POP POP PUSH1 0x40 PUSH2 0xEBC DUP7 DUP3 DUP8 ADD PUSH2 0xE62 JUMP JUMPDEST SWAP2 POP POP SWAP3 POP SWAP3 POP SWAP3 JUMP JUMPDEST PUSH0 DUP2 MLOAD SWAP1 POP SWAP2 SWAP1 POP JUMP JUMPDEST PUSH0 DUP3 DUP3 MSTORE PUSH1 0x20 DUP3 ADD SWAP1 POP SWAP3 SWAP2 POP POP JUMP JUMPDEST PUSH0 DUP2 SWAP1 POP PUSH1 0x20 DUP3 ADD SWAP1 POP SWAP2 SWAP1 POP JUMP JUMPDEST PUSH2 0xEF8 DUP2 PUSH2 0xDB5 JUMP JUMPDEST DUP3 MSTORE POP POP JUMP JUMPDEST PUSH0 PUSH2 0xF09 DUP4 DUP4 PUSH2 0xEEF JUMP JUMPDEST PUSH1 0x20 DUP4 ADD SWAP1 POP SWAP3 SWAP2 POP POP JUMP JUMPDEST PUSH0 PUSH1 0x20 DUP3 ADD SWAP1 POP SWAP2 SWAP1 POP JUMP JUMPDEST PUSH0 PUSH2 0xF2B DUP3 PUSH2 0xEC6 JUMP JUMPDEST PUSH2 0xF35 DUP2 DUP6 PUSH2 0xED0 JUMP JUMPDEST SWAP4 POP PUSH2 0xF40 DUP4 PUSH2 0xEE0 JUMP JUMPDEST DUP1 PUSH0 JUMPDEST DUP4 DUP2 LT ISZERO PUSH2 0xF70 JUMPI DUP2 MLOAD PUSH2 0xF57 DUP9 DUP3 PUSH2 0xEFE JUMP JUMPDEST SWAP8 POP PUSH2 0xF62 DUP4 PUSH2 0xF15 JUMP JUMPDEST SWAP3 POP POP PUSH1 0x1 DUP2 ADD SWAP1 POP PUSH2 0xF43 JUMP JUMPDEST POP DUP6 SWAP4 POP POP POP POP SWAP3 SWAP2 POP POP JUMP JUMPDEST PUSH0 PUSH1 0x20 DUP3 ADD SWAP1 POP DUP2 DUP2 SUB PUSH0 DUP4 ADD MSTORE PUSH2 0xF95 DUP2 DUP5 PUSH2 0xF21 JUMP JUMPDEST SWAP1 POP SWAP3 SWAP2 POP POP JUMP JUMPDEST PUSH0 PUSH0 REVERT JUMPDEST PUSH0 PUSH1 0x1F NOT PUSH1 0x1F DUP4 ADD AND SWAP1 POP SWAP2 SWAP1 POP JUMP JUMPDEST PUSH32 0x4E487B7100000000000000000000000000000000000000000000000000000000 PUSH0 MSTORE PUSH1 0x41 PUSH1 0x4 MSTORE PUSH1 0x24 PUSH0 REVERT JUMPDEST PUSH2 0xFE7 DUP3 PUSH2 0xFA1 JUMP JUMPDEST DUP2 ADD DUP2 DUP2 LT PUSH8 0xFFFFFFFFFFFFFFFF DUP3 GT OR ISZERO PUSH2 0x1006 JUMPI PUSH2 0x1005 PUSH2 0xFB1 JUMP JUMPDEST JUMPDEST DUP1 PUSH1 0x40 MSTORE POP POP POP JUMP JUMPDEST PUSH0 PUSH2 0x1018 PUSH2 0xD85 JUMP JUMPDEST SWAP1 POP PUSH2 0x1024 DUP3 DUP3 PUSH2 0xFDE JUMP JUMPDEST SWAP2 SWAP1 POP JUMP JUMPDEST PUSH0 PUSH8 0xFFFFFFFFFFFFFFFF DUP3 GT ISZERO PUSH2 0x1043 JUMPI PUSH2 0x1042 PUSH2 0xFB1 JUMP JUMPDEST JUMPDEST PUSH1 0x20 DUP3 MUL SWAP1 POP PUSH1 0x20 DUP2 ADD SWAP1 POP SWAP2 SWAP1 POP JUMP JUMPDEST PUSH0 PUSH0 REVERT JUMPDEST PUSH0 PUSH2 0x106A PUSH2 0x1065 DUP5 PUSH2 0x1029 JUMP JUMPDEST PUSH2 0x100F JUMP JUMPDEST SWAP1 POP DUP1 DUP4 DUP3 MSTORE PUSH1 0x20 DUP3 ADD SWAP1 POP PUSH1 0x20 DUP5 MUL DUP4 ADD DUP6 DUP2 GT ISZERO PUSH2 0x108D JUMPI PUSH2 0x108C PUSH2 0x1054 JUMP JUMPDEST JUMPDEST DUP4 JUMPDEST DUP2 DUP2 LT ISZERO PUSH2 0x10B6 JUMPI DUP1 PUSH2 0x10A2 DUP9 DUP3 PUSH2 0xDDC JUMP JUMPDEST DUP5 MSTORE PUSH1 0x20 DUP5 ADD SWAP4 POP POP PUSH1 0x20 DUP2 ADD SWAP1 POP PUSH2 0x108F JUMP JUMPDEST POP POP POP SWAP4 SWAP3 POP POP POP JUMP JUMPDEST PUSH0 DUP3 PUSH1 0x1F DUP4 ADD SLT PUSH2 0x10D4 JUMPI PUSH2 0x10D3 PUSH2 0xF9D JUMP JUMPDEST JUMPDEST DUP2 CALLDATALOAD PUSH2 0x10E4 DUP5 DUP3 PUSH1 0x20 DUP7 ADD PUSH2 0x1058 JUMP JUMPDEST SWAP2 POP POP SWAP3 SWAP2 POP POP JUMP JUMPDEST PUSH0 PUSH1 0x20 DUP3 DUP5 SUB SLT ISZERO PUSH2 0x1102 JUMPI PUSH2 0x1101 PUSH2 0xD8E JUMP JUMPDEST JUMPDEST PUSH0 DUP3 ADD CALLDATALOAD PUSH8 0xFFFFFFFFFFFFFFFF DUP2 GT ISZERO PUSH2 0x111F JUMPI PUSH2 0x111E PUSH2 0xD92 JUMP JUMPDEST JUMPDEST PUSH2 0x112B DUP5 DUP3 DUP6 ADD PUSH2 0x10C0 JUMP JUMPDEST SWAP2 POP POP SWAP3 SWAP2 POP POP JUMP JUMPDEST PUSH0 PUSH0 PUSH1 0x40 DUP4 DUP6 SUB SLT ISZERO PUSH2 0x114A JUMPI PUSH2 0x1149 PUSH2 0xD8E JUMP JUMPDEST JUMPDEST PUSH0 PUSH2 0x1157 DUP6 DUP3 DUP7 ADD PUSH2 0xDDC JUMP JUMPDEST SWAP3 POP POP PUSH1 0x20 PUSH2 0x1168 DUP6 DUP3 DUP7 ADD PUSH2 0xDDC JUMP JUMPDEST SWAP2 POP POP SWAP3 POP SWAP3 SWAP1 POP JUMP JUMPDEST PUSH0 DUP2 ISZERO ISZERO SWAP1 POP SWAP2 SWAP1 POP JUMP JUMPDEST PUSH2 0x1186 DUP2 PUSH2 0x1172 JUMP JUMPDEST DUP3 MSTORE POP POP JUMP JUMPDEST PUSH0 PUSH1 0x20 DUP3 ADD SWAP1 POP PUSH2 0x119F PUSH0 DUP4 ADD DUP5 PUSH2 0x117D JUMP JUMPDEST SWAP3 SWAP2 POP POP JUMP JUMPDEST PUSH32 0x4E487B7100000000000000000000000000000000000000000000000000000000 PUSH0 MSTORE PUSH1 0x11 PUSH1 0x4 MSTORE PUSH1 0x24 PUSH0 REVERT JUMPDEST PUSH0 PUSH2 0x11DC DUP3 PUSH2 0xE1B JUMP JUMPDEST SWAP2 POP PUSH2 0x11E7 DUP4 PUSH2 0xE1B JUMP JUMPDEST SWAP3 POP DUP3 DUP3 SUB SWAP1 POP DUP2 DUP2 GT ISZERO PUSH2 0x11FF JUMPI PUSH2 0x11FE PUSH2 0x11A5 JUMP JUMPDEST JUMPDEST SWAP3 SWAP2 POP POP JUMP JUMPDEST PUSH0 PUSH2 0x120F DUP3 PUSH2 0xE1B JUMP JUMPDEST SWAP2 POP PUSH2 0x121A DUP4 PUSH2 0xE1B JUMP JUMPDEST SWAP3 POP DUP3 DUP3 ADD SWAP1 POP DUP1 DUP3 GT ISZERO PUSH2 0x1232 JUMPI PUSH2 0x1231 PUSH2 0x11A5 JUMP JUMPDEST JUMPDEST SWAP3 SWAP2 POP POP JUMP JUMPDEST PUSH32 0x4E487B7100000000000000000000000000000000000000000000000000000000 PUSH0 MSTORE PUSH1 0x32 PUSH1 0x4 MSTORE PUSH1 0x24 PUSH0 REVERT JUMPDEST PUSH2 0x126E DUP2 PUSH2 0xDB5 JUMP JUMPDEST DUP3 MSTORE POP POP JUMP JUMPDEST PUSH0 PUSH1 0x20 DUP3 ADD SWAP1 POP PUSH2 0x1287 PUSH0 DUP4 ADD DUP5 PUSH2 0x1265 JUMP JUMPDEST SWAP3 SWAP2 POP POP JUMP JUMPDEST PUSH0 PUSH1 0x40 DUP3 ADD SWAP1 POP PUSH2 0x12A0 PUSH0 DUP4 ADD DUP6 PUSH2 0x1265 JUMP JUMPDEST PUSH2 0x12AD PUSH1 0x20 DUP4 ADD DUP5 PUSH2 0x1265 JUMP JUMPDEST SWAP4 SWAP3 POP POP POP JUMP JUMPDEST PUSH0 DUP2 PUSH1 0x60 SHL SWAP1 POP SWAP2 SWAP1 POP JUMP JUMPDEST PUSH0 PUSH2 0x12CA DUP3 PUSH2 0x12B4 JUMP JUMPDEST SWAP1 POP SWAP2 SWAP1 POP JUMP JUMPDEST PUSH0 PUSH2 0x12DB DUP3 PUSH2 0x12C0 JUMP JUMPDEST SWAP1 POP SWAP2 SWAP1 POP JUMP JUMPDEST PUSH2 0x12F3 PUSH2 0x12EE DUP3 PUSH2 0xDB5 JUMP JUMPDEST PUSH2 0x12D1 JUMP JUMPDEST DUP3 MSTORE POP POP JUMP JUMPDEST PUSH0 PUSH2 0x1304 DUP3 DUP5 PUSH2 0x12E2 JUMP JUMPDEST PUSH1 0x14 DUP3 ADD SWAP2 POP DUP2 SWAP1 POP SWAP3 SWAP2 POP POP JUMP JUMPDEST PUSH0 DUP2 SWAP1 POP SWAP2 SWAP1 POP JUMP JUMPDEST PUSH2 0x1325 DUP2 PUSH2 0x1313 JUMP JUMPDEST DUP3 MSTORE POP POP JUMP JUMPDEST PUSH0 DUP2 MLOAD SWAP1 POP SWAP2 SWAP1 POP JUMP JUMPDEST PUSH0 DUP3 DUP3 MSTORE PUSH1 0x20 DUP3 ADD SWAP1 POP SWAP3 SWAP2 POP POP JUMP JUMPDEST DUP3 DUP2 DUP4 MCOPY PUSH0 DUP4 DUP4 ADD MSTORE POP POP POP JUMP JUMPDEST PUSH0 PUSH2 0x135D DUP3 PUSH2 0x132B JUMP JUMPDEST PUSH2 0x1367 DUP2 DUP6 PUSH2 0x1335 JUMP JUMPDEST SWAP4 POP PUSH2 0x1377 DUP2 DUP6 PUSH1 0x20 DUP7 ADD PUSH2 0x1345 JUMP JUMPDEST PUSH2 0x1380 DUP2 PUSH2 0xFA1 JUMP JUMPDEST DUP5 ADD SWAP2 POP POP SWAP3 SWAP2 POP POP JUMP JUMPDEST PUSH0 PUSH1 0x40 DUP3 ADD SWAP1 POP PUSH2 0x139E PUSH0 DUP4 ADD DUP6 PUSH2 0x131C JUMP JUMPDEST DUP2 DUP2 SUB PUSH1 0x20 DUP4 ADD MSTORE PUSH2 0x13B0 DUP2 DUP5 PUSH2 0x1353 JUMP JUMPDEST SWAP1 POP SWAP4 SWAP3 POP POP POP JUMP JUMPDEST PUSH0 PUSH0 REVERT JUMPDEST PUSH0 PUSH8 0xFFFFFFFFFFFFFFFF DUP3 GT ISZERO PUSH2 0x13D7 JUMPI PUSH2 0x13D6 PUSH2 0xFB1 JUMP JUMPDEST JUMPDEST PUSH2 0x13E0 DUP3 PUSH2 0xFA1 JUMP JUMPDEST SWAP1 POP PUSH1 0x20 DUP2 ADD SWAP1 POP SWAP2 SWAP1 POP JUMP JUMPDEST PUSH0 PUSH2 0x13FF PUSH2 0x13FA DUP5 PUSH2 0x13BD JUMP JUMPDEST PUSH2 0x100F JUMP JUMPDEST SWAP1 POP DUP3 DUP2 MSTORE PUSH1 0x20 DUP2 ADD DUP5 DUP5 DUP5 ADD GT ISZERO PUSH2 0x141B JUMPI PUSH2 0x141A PUSH2 0x13B9 JUMP JUMPDEST JUMPDEST PUSH2 0x1426 DUP5 DUP3 DUP6 PUSH2 0x1345 JUMP JUMPDEST POP SWAP4 SWAP3 POP POP POP JUMP JUMPDEST PUSH0 DUP3 PUSH1 0x1F DUP4 ADD SLT PUSH2 0x1442 JUMPI PUSH2 0x1441 PUSH2 0xF9D JUMP JUMPDEST JUMPDEST DUP2 MLOAD PUSH2 0x1452 DUP5 DUP3 PUSH1 0x20 DUP7 ADD PUSH2 0x13ED JUMP JUMPDEST SWAP2 POP POP SWAP3 SWAP2 POP POP JUMP JUMPDEST PUSH0 PUSH1 0x20 DUP3 DUP5 SUB SLT ISZERO PUSH2 0x1470 JUMPI PUSH2 0x146F PUSH2 0xD8E JUMP JUMPDEST JUMPDEST PUSH0 DUP3 ADD MLOAD PUSH8 0xFFFFFFFFFFFFFFFF DUP2 GT ISZERO PUSH2 0x148D JUMPI PUSH2 0x148C PUSH2 0xD92 JUMP JUMPDEST JUMPDEST PUSH2 0x1499 DUP5 DUP3 DUP6 ADD PUSH2 0x142E JUMP JUMPDEST SWAP2 POP POP SWAP3 SWAP2 POP POP JUMP JUMPDEST PUSH0 PUSH32 0xFFFFFFFF00000000000000000000000000000000000000000000000000000000 DUP3 AND SWAP1 POP SWAP2 SWAP1 POP JUMP JUMPDEST PUSH2 0x14D6 DUP2 PUSH2 0x14A2 JUMP JUMPDEST DUP3 MSTORE POP POP JUMP JUMPDEST PUSH0 PUSH1 0x20 DUP3 ADD SWAP1 POP PUSH2 0x14EF PUSH0 DUP4 ADD DUP5 PUSH2 0x14CD JUMP JUMPDEST SWAP3 SWAP2 POP POP JUMP JUMPDEST PUSH32 0x4E487B7100000000000000000000000000000000000000000000000000000000 PUSH0 MSTORE PUSH1 0x31 PUSH1 0x4 MSTORE PUSH1 0x24 PUSH0 REVERT INVALID LOG2 PUSH5 0x6970667358 0x22 SLT KECCAK256 0x1F BYTE STATICCALL SWAP9 DUP10 0xD5 0xD3 COINBASE SWAP12 DUP3 0xCB 0xC4 PUSH6 0x5B6FF987E9AB 0x1F 0xB6 0xC7 SHL 0x29 0xDE EXP 0x21 DUP13 PUSH28 0x3F69F164736F6C634300081D00330000000000000000000000000000 "
				},
				"gasEstimates": {
					"creation": {
						"codeDepositCost": "1092800",
						"executionCost": "1132",
						"totalCost": "1093932"
					},
					"external": {
						"follow(address)": "infinite",
						"followBatch(address[])": "infinite",
						"followerCount(address)": "2953",
						"followingCount(address)": "2931",
						"getFollowersByIndex(address,uint256,uint256)": "infinite",
						"getFollowsByIndex(address,uint256,uint256)": "infinite",
						"isFollowing(address,address)": "infinite",
						"unfollow(address)": "infinite",
						"unfollowBatch(address[])": "infinite"
					}
				},
				"methodIdentifiers": {
					"follow(address)": "4dbf27cc",
					"followBatch(address[])": "cf8711c8",
					"followerCount(address)": "30b3a890",
					"followingCount(address)": "64548707",
					"getFollowersByIndex(address,uint256,uint256)": "b2a8d069",
					"getFollowsByIndex(address,uint256,uint256)": "5a39c581",
					"isFollowing(address,address)": "99ec3a42",
					"unfollow(address)": "015a4ead",
					"unfollowBatch(address[])": "8dd1e47e"
				}
			},
			"storageLayout": {
				"storage": [
					{
						"astId": 191,
						"contract": "followingSystem.sol:LSP7",
						"label": "_followersOf",
						"offset": 0,
						"slot": "0",
						"type": "t_mapping(t_address,t_struct(AddressSet)1089_storage)"
					},
					{
						"astId": 196,
						"contract": "followingSystem.sol:LSP7",
						"label": "_followingsOf",
						"offset": 0,
						"slot": "1",
						"type": "t_mapping(t_address,t_struct(AddressSet)1089_storage)"
					}
				],
				"types": {
					"t_address": {
						"encoding": "inplace",
						"label": "address",
						"numberOfBytes": "20"
					},
					"t_array(t_bytes32)dyn_storage": {
						"base": "t_bytes32",
						"encoding": "dynamic_array",
						"label": "bytes32[]",
						"numberOfBytes": "32"
					},
					"t_bytes32": {
						"encoding": "inplace",
						"label": "bytes32",
						"numberOfBytes": "32"
					},
					"t_mapping(t_address,t_struct(AddressSet)1089_storage)": {
						"encoding": "mapping",
						"key": "t_address",
						"label": "mapping(address => struct EnumerableSet.AddressSet)",
						"numberOfBytes": "32",
						"value": "t_struct(AddressSet)1089_storage"
					},
					"t_mapping(t_bytes32,t_uint256)": {
						"encoding": "mapping",
						"key": "t_bytes32",
						"label": "mapping(bytes32 => uint256)",
						"numberOfBytes": "32",
						"value": "t_uint256"
					},
					"t_struct(AddressSet)1089_storage": {
						"encoding": "inplace",
						"label": "struct EnumerableSet.AddressSet",
						"members": [
							{
								"astId": 1088,
								"contract": "followingSystem.sol:LSP7",
								"label": "_inner",
								"offset": 0,
								"slot": "0",
								"type": "t_struct(Set)774_storage"
							}
						],
						"numberOfBytes": "64"
					},
					"t_struct(Set)774_storage": {
						"encoding": "inplace",
						"label": "struct EnumerableSet.Set",
						"members": [
							{
								"astId": 769,
								"contract": "followingSystem.sol:LSP7",
								"label": "_values",
								"offset": 0,
								"slot": "0",
								"type": "t_array(t_bytes32)dyn_storage"
							},
							{
								"astId": 773,
								"contract": "followingSystem.sol:LSP7",
								"label": "_indexes",
								"offset": 0,
								"slot": "1",
								"type": "t_mapping(t_bytes32,t_uint256)"
							}
						],
						"numberOfBytes": "64"
					},
					"t_uint256": {
						"encoding": "inplace",
						"label": "uint256",
						"numberOfBytes": "32"
					}
				}
			},
			"userdoc": {
				"events": {
					"Follow(address,address)": {
						"notice": "Emitted when following an address."
					},
					"Unfollow(address,address)": {
						"notice": "Emitted when unfollowing an address."
					}
				},
				"kind": "user",
				"methods": {
					"follow(address)": {
						"notice": "Follow an specific address."
					},
					"followBatch(address[])": {
						"notice": "Follow a list of addresses."
					},
					"followerCount(address)": {
						"notice": "Get the number of followers for an address."
					},
					"followingCount(address)": {
						"notice": "Get the number of addresses an address is following."
					},
					"getFollowersByIndex(address,uint256,uint256)": {
						"notice": "Get the list of addresses that follow an address within a specified range."
					},
					"getFollowsByIndex(address,uint256,uint256)": {
						"notice": "Get the list of addresses the given address is following within a specified range."
					},
					"isFollowing(address,address)": {
						"notice": "Check if an address is following a specific address."
					},
					"unfollow(address)": {
						"notice": "Unfollow a specific address."
					},
					"unfollowBatch(address[])": {
						"notice": "Unfollow a list of addresses."
					}
				},
				"notice": "LSP7",
				"version": 1
			}
		}
	}
}