{
	"RateUp.sol": {
		"RateUp": {
			"abi": [
				{
					"inputs": [],
					"stateMutability": "nonpayable",
					"type": "constructor"
				},
				{
					"inputs": [],
					"name": "EnforcedPause",
					"type": "error"
				},
				{
					"inputs": [],
					"name": "ExpectedPause",
					"type": "error"
				},
				{
					"inputs": [
						{
							"internalType": "uint256",
							"name": "",
							"type": "uint256"
						}
					],
					"name": "InsufficientBalance",
					"type": "error"
				},
				{
					"anonymous": false,
					"inputs": [
						{
							"indexed": true,
							"internalType": "address",
							"name": "target",
							"type": "address"
						},
						{
							"indexed": true,
							"internalType": "address",
							"name": "endorser",
							"type": "address"
						},
						{
							"indexed": true,
							"internalType": "string",
							"name": "option",
							"type": "string"
						},
						{
							"indexed": false,
							"internalType": "string",
							"name": "message",
							"type": "string"
						},
						{
							"indexed": false,
							"internalType": "uint256",
							"name": "fee",
							"type": "uint256"
						},
						{
							"indexed": false,
							"internalType": "uint256",
							"name": "timestamp",
							"type": "uint256"
						}
					],
					"name": "EndorsementGiven",
					"type": "event"
				},
				{
					"anonymous": false,
					"inputs": [
						{
							"indexed": false,
							"internalType": "string",
							"name": "option",
							"type": "string"
						}
					],
					"name": "EndorsementOptionAdded",
					"type": "event"
				},
				{
					"anonymous": false,
					"inputs": [
						{
							"indexed": false,
							"internalType": "uint256",
							"name": "fee",
							"type": "uint256"
						}
					],
					"name": "FeeUpdated",
					"type": "event"
				},
				{
					"anonymous": false,
					"inputs": [
						{
							"indexed": true,
							"internalType": "address",
							"name": "previousOwner",
							"type": "address"
						},
						{
							"indexed": true,
							"internalType": "address",
							"name": "newOwner",
							"type": "address"
						}
					],
					"name": "OwnershipTransferred",
					"type": "event"
				},
				{
					"anonymous": false,
					"inputs": [
						{
							"indexed": false,
							"internalType": "address",
							"name": "account",
							"type": "address"
						}
					],
					"name": "Paused",
					"type": "event"
				},
				{
					"anonymous": false,
					"inputs": [
						{
							"indexed": false,
							"internalType": "address",
							"name": "account",
							"type": "address"
						}
					],
					"name": "Unpaused",
					"type": "event"
				},
				{
					"inputs": [],
					"name": "VERSION",
					"outputs": [
						{
							"internalType": "string",
							"name": "",
							"type": "string"
						}
					],
					"stateMutability": "view",
					"type": "function"
				},
				{
					"inputs": [
						{
							"internalType": "string",
							"name": "option",
							"type": "string"
						}
					],
					"name": "addEndorsementOption",
					"outputs": [],
					"stateMutability": "nonpayable",
					"type": "function"
				},
				{
					"inputs": [
						{
							"internalType": "uint256",
							"name": "",
							"type": "uint256"
						}
					],
					"name": "endorsementOptions",
					"outputs": [
						{
							"internalType": "string",
							"name": "",
							"type": "string"
						}
					],
					"stateMutability": "view",
					"type": "function"
				},
				{
					"inputs": [
						{
							"internalType": "address",
							"name": "",
							"type": "address"
						},
						{
							"internalType": "uint256",
							"name": "",
							"type": "uint256"
						}
					],
					"name": "endorsements",
					"outputs": [
						{
							"internalType": "address",
							"name": "endorser",
							"type": "address"
						},
						{
							"internalType": "string",
							"name": "option",
							"type": "string"
						},
						{
							"internalType": "string",
							"name": "message",
							"type": "string"
						},
						{
							"internalType": "uint8",
							"name": "score",
							"type": "uint8"
						},
						{
							"internalType": "uint256",
							"name": "timestamp",
							"type": "uint256"
						}
					],
					"stateMutability": "view",
					"type": "function"
				},
				{
					"inputs": [],
					"name": "fee",
					"outputs": [
						{
							"internalType": "uint256",
							"name": "",
							"type": "uint256"
						}
					],
					"stateMutability": "view",
					"type": "function"
				},
				{
					"inputs": [],
					"name": "getBalance",
					"outputs": [
						{
							"internalType": "uint256",
							"name": "",
							"type": "uint256"
						}
					],
					"stateMutability": "view",
					"type": "function"
				},
				{
					"inputs": [],
					"name": "getEndorsementOptions",
					"outputs": [
						{
							"internalType": "string[]",
							"name": "",
							"type": "string[]"
						}
					],
					"stateMutability": "view",
					"type": "function"
				},
				{
					"inputs": [
						{
							"internalType": "address",
							"name": "target",
							"type": "address"
						}
					],
					"name": "getEndorsements",
					"outputs": [
						{
							"components": [
								{
									"internalType": "address",
									"name": "endorser",
									"type": "address"
								},
								{
									"internalType": "string",
									"name": "option",
									"type": "string"
								},
								{
									"internalType": "string",
									"name": "message",
									"type": "string"
								},
								{
									"internalType": "uint8",
									"name": "score",
									"type": "uint8"
								},
								{
									"internalType": "uint256",
									"name": "timestamp",
									"type": "uint256"
								}
							],
							"internalType": "struct RateUp.EndorsementStruct[]",
							"name": "",
							"type": "tuple[]"
						}
					],
					"stateMutability": "view",
					"type": "function"
				},
				{
					"inputs": [
						{
							"internalType": "address",
							"name": "target",
							"type": "address"
						},
						{
							"internalType": "string",
							"name": "option",
							"type": "string"
						},
						{
							"internalType": "string",
							"name": "message",
							"type": "string"
						},
						{
							"internalType": "uint8",
							"name": "score",
							"type": "uint8"
						}
					],
					"name": "giveEndorsement",
					"outputs": [],
					"stateMutability": "payable",
					"type": "function"
				},
				{
					"inputs": [],
					"name": "owner",
					"outputs": [
						{
							"internalType": "address",
							"name": "",
							"type": "address"
						}
					],
					"stateMutability": "view",
					"type": "function"
				},
				{
					"inputs": [],
					"name": "pause",
					"outputs": [],
					"stateMutability": "nonpayable",
					"type": "function"
				},
				{
					"inputs": [],
					"name": "paused",
					"outputs": [
						{
							"internalType": "bool",
							"name": "",
							"type": "bool"
						}
					],
					"stateMutability": "view",
					"type": "function"
				},
				{
					"inputs": [],
					"name": "renounceOwnership",
					"outputs": [],
					"stateMutability": "nonpayable",
					"type": "function"
				},
				{
					"inputs": [
						{
							"internalType": "address payable",
							"name": "_to",
							"type": "address"
						},
						{
							"internalType": "uint256",
							"name": "_amount",
							"type": "uint256"
						}
					],
					"name": "transferBalance",
					"outputs": [],
					"stateMutability": "nonpayable",
					"type": "function"
				},
				{
					"inputs": [
						{
							"internalType": "address",
							"name": "newOwner",
							"type": "address"
						}
					],
					"name": "transferOwnership",
					"outputs": [],
					"stateMutability": "nonpayable",
					"type": "function"
				},
				{
					"inputs": [],
					"name": "unpause",
					"outputs": [],
					"stateMutability": "nonpayable",
					"type": "function"
				},
				{
					"inputs": [
						{
							"internalType": "uint256",
							"name": "index",
							"type": "uint256"
						},
						{
							"internalType": "string",
							"name": "option",
							"type": "string"
						}
					],
					"name": "updateEndorsementOption",
					"outputs": [],
					"stateMutability": "nonpayable",
					"type": "function"
				},
				{
					"inputs": [
						{
							"internalType": "uint256",
							"name": "_fee",
							"type": "uint256"
						}
					],
					"name": "updateFee",
					"outputs": [],
					"stateMutability": "nonpayable",
					"type": "function"
				},
				{
					"inputs": [],
					"name": "withdraw",
					"outputs": [],
					"stateMutability": "nonpayable",
					"type": "function"
				}
			],
			"devdoc": {
				"author": "Aratta Labs",
				"custom:emoji": "♦️",
				"custom:security-contact": "atenyun@gmail.com",
				"details": "Deployed contract addresses are available in the project repository.",
				"errors": {
					"EnforcedPause()": [
						{
							"details": "The operation failed because the contract is paused."
						}
					],
					"ExpectedPause()": [
						{
							"details": "The operation failed because the contract is not paused."
						}
					]
				},
				"events": {
					"Paused(address)": {
						"details": "Emitted when the pause is triggered by `account`."
					},
					"Unpaused(address)": {
						"details": "Emitted when the pause is lifted by `account`."
					}
				},
				"kind": "dev",
				"methods": {
					"owner()": {
						"details": "Returns the address of the current owner."
					},
					"paused()": {
						"details": "Returns true if the contract is paused, and false otherwise."
					},
					"renounceOwnership()": {
						"details": "Leaves the contract without owner. It will not be possible to call `onlyOwner` functions. Can only be called by the current owner. NOTE: Renouncing ownership will leave the contract without an owner, thereby disabling any functionality that is only available to the owner."
					},
					"transferOwnership(address)": {
						"details": "Transfers ownership of the contract to a new account (`newOwner`). Can only be called by the current owner."
					}
				},
				"title": "RateUp",
				"version": 1
			},
			"evm": {
				"assembly": "    /* \"RateUp.sol\":572:4129  contract RateUp is Ownable, Pausable {... */\n  mstore(0x40, 0x80)\n    /* \"RateUp.sol\":661:707  string failedMessage = \"Failed to send Ether!\" */\n  mload(0x40)\n  dup1\n  0x40\n  add\n  0x40\n  mstore\n  dup1\n  0x15\n  dup2\n  mstore\n  0x20\n  add\n  0x4661696c656420746f2073656e64204574686572210000000000000000000000\n  dup2\n  mstore\n  pop\n  0x01\n  swap1\n  dup2\n  tag_1\n  swap2\n  swap1\n  tag_2\n  jump\t// in\ntag_1:\n  pop\n    /* \"RateUp.sol\":1010:1048  constructor() {... */\n  callvalue\n  dup1\n  iszero\n  tag_3\n  jumpi\n  revert(0x00, 0x00)\ntag_3:\n  pop\n    /* \"@openzeppelin/contracts/access/Ownable.sol\":936:968  _transferOwnership(_msgSender()) */\n  tag_7\n    /* \"@openzeppelin/contracts/access/Ownable.sol\":955:967  _msgSender() */\n  tag_8\n    /* \"@openzeppelin/contracts/access/Ownable.sol\":955:965  _msgSender */\n  shl(0x20, tag_9)\n    /* \"@openzeppelin/contracts/access/Ownable.sol\":955:967  _msgSender() */\n  0x20\n  shr\n  jump\t// in\ntag_8:\n    /* \"@openzeppelin/contracts/access/Ownable.sol\":936:954  _transferOwnership */\n  shl(0x20, tag_10)\n    /* \"@openzeppelin/contracts/access/Ownable.sol\":936:968  _transferOwnership(_msgSender()) */\n  0x20\n  shr\n  jump\t// in\ntag_7:\n    /* \"RateUp.sol\":1040:1041  0 */\n  0x00\n    /* \"RateUp.sol\":1034:1037  fee */\n  0x02\n    /* \"RateUp.sol\":1034:1041  fee = 0 */\n  dup2\n  swap1\n  sstore\n  pop\n    /* \"RateUp.sol\":572:4129  contract RateUp is Ownable, Pausable {... */\n  jump(tag_12)\n    /* \"@openzeppelin/contracts/utils/Context.sol\":655:751  function _msgSender() internal view virtual returns (address) {... */\ntag_9:\n    /* \"@openzeppelin/contracts/utils/Context.sol\":708:715  address */\n  0x00\n    /* \"@openzeppelin/contracts/utils/Context.sol\":734:744  msg.sender */\n  caller\n    /* \"@openzeppelin/contracts/utils/Context.sol\":727:744  return msg.sender */\n  swap1\n  pop\n    /* \"@openzeppelin/contracts/utils/Context.sol\":655:751  function _msgSender() internal view virtual returns (address) {... */\n  swap1\n  jump\t// out\n    /* \"@openzeppelin/contracts/access/Ownable.sol\":2426:2613  function _transferOwnership(address newOwner) internal virtual {... */\ntag_10:\n    /* \"@openzeppelin/contracts/access/Ownable.sol\":2499:2515  address oldOwner */\n  0x00\n    /* \"@openzeppelin/contracts/access/Ownable.sol\":2518:2524  _owner */\n  0x00\n  0x00\n  swap1\n  sload\n  swap1\n  0x0100\n  exp\n  swap1\n  div\n  0xffffffffffffffffffffffffffffffffffffffff\n  and\n    /* \"@openzeppelin/contracts/access/Ownable.sol\":2499:2524  address oldOwner = _owner */\n  swap1\n  pop\n    /* \"@openzeppelin/contracts/access/Ownable.sol\":2543:2551  newOwner */\n  dup2\n    /* \"@openzeppelin/contracts/access/Ownable.sol\":2534:2540  _owner */\n  0x00\n  0x00\n    /* \"@openzeppelin/contracts/access/Ownable.sol\":2534:2551  _owner = newOwner */\n  0x0100\n  exp\n  dup2\n  sload\n  dup2\n  0xffffffffffffffffffffffffffffffffffffffff\n  mul\n  not\n  and\n  swap1\n  dup4\n  0xffffffffffffffffffffffffffffffffffffffff\n  and\n  mul\n  or\n  swap1\n  sstore\n  pop\n    /* \"@openzeppelin/contracts/access/Ownable.sol\":2597:2605  newOwner */\n  dup2\n    /* \"@openzeppelin/contracts/access/Ownable.sol\":2566:2606  OwnershipTransferred(oldOwner, newOwner) */\n  0xffffffffffffffffffffffffffffffffffffffff\n  and\n    /* \"@openzeppelin/contracts/access/Ownable.sol\":2587:2595  oldOwner */\n  dup2\n    /* \"@openzeppelin/contracts/access/Ownable.sol\":2566:2606  OwnershipTransferred(oldOwner, newOwner) */\n  0xffffffffffffffffffffffffffffffffffffffff\n  and\n  0x8be0079c531659141344cd1fd0a4f28419497f9722a3daafe3b4186f6b6457e0\n  mload(0x40)\n  mload(0x40)\n  dup1\n  swap2\n  sub\n  swap1\n  log3\n    /* \"@openzeppelin/contracts/access/Ownable.sol\":2489:2613  {... */\n  pop\n    /* \"@openzeppelin/contracts/access/Ownable.sol\":2426:2613  function _transferOwnership(address newOwner) internal virtual {... */\n  pop\n  jump\t// out\n    /* \"#utility.yul\":7:106   */\ntag_15:\n    /* \"#utility.yul\":59:65   */\n  0x00\n    /* \"#utility.yul\":93:98   */\n  dup2\n    /* \"#utility.yul\":87:99   */\n  mload\n    /* \"#utility.yul\":77:99   */\n  swap1\n  pop\n    /* \"#utility.yul\":7:106   */\n  swap2\n  swap1\n  pop\n  jump\t// out\n    /* \"#utility.yul\":112:292   */\ntag_16:\n    /* \"#utility.yul\":160:237   */\n  0x4e487b7100000000000000000000000000000000000000000000000000000000\n    /* \"#utility.yul\":157:158   */\n  0x00\n    /* \"#utility.yul\":150:238   */\n  mstore\n    /* \"#utility.yul\":257:261   */\n  0x41\n    /* \"#utility.yul\":254:255   */\n  0x04\n    /* \"#utility.yul\":247:262   */\n  mstore\n    /* \"#utility.yul\":281:285   */\n  0x24\n    /* \"#utility.yul\":278:279   */\n  0x00\n    /* \"#utility.yul\":271:286   */\n  revert\n    /* \"#utility.yul\":298:478   */\ntag_17:\n    /* \"#utility.yul\":346:423   */\n  0x4e487b7100000000000000000000000000000000000000000000000000000000\n    /* \"#utility.yul\":343:344   */\n  0x00\n    /* \"#utility.yul\":336:424   */\n  mstore\n    /* \"#utility.yul\":443:447   */\n  0x22\n    /* \"#utility.yul\":440:441   */\n  0x04\n    /* \"#utility.yul\":433:448   */\n  mstore\n    /* \"#utility.yul\":467:471   */\n  0x24\n    /* \"#utility.yul\":464:465   */\n  0x00\n    /* \"#utility.yul\":457:472   */\n  revert\n    /* \"#utility.yul\":484:804   */\ntag_18:\n    /* \"#utility.yul\":528:534   */\n  0x00\n    /* \"#utility.yul\":565:566   */\n  0x02\n    /* \"#utility.yul\":559:563   */\n  dup3\n    /* \"#utility.yul\":555:567   */\n  div\n    /* \"#utility.yul\":545:567   */\n  swap1\n  pop\n    /* \"#utility.yul\":612:613   */\n  0x01\n    /* \"#utility.yul\":606:610   */\n  dup3\n    /* \"#utility.yul\":602:614   */\n  and\n    /* \"#utility.yul\":633:651   */\n  dup1\n    /* \"#utility.yul\":623:704   */\n  tag_40\n  jumpi\n    /* \"#utility.yul\":689:693   */\n  0x7f\n    /* \"#utility.yul\":681:687   */\n  dup3\n    /* \"#utility.yul\":677:694   */\n  and\n    /* \"#utility.yul\":667:694   */\n  swap2\n  pop\n    /* \"#utility.yul\":623:704   */\ntag_40:\n    /* \"#utility.yul\":751:753   */\n  0x20\n    /* \"#utility.yul\":743:749   */\n  dup3\n    /* \"#utility.yul\":740:754   */\n  lt\n    /* \"#utility.yul\":720:738   */\n  dup2\n    /* \"#utility.yul\":717:755   */\n  sub\n    /* \"#utility.yul\":714:798   */\n  tag_41\n  jumpi\n    /* \"#utility.yul\":770:788   */\n  tag_42\n  tag_17\n  jump\t// in\ntag_42:\n    /* \"#utility.yul\":714:798   */\ntag_41:\n    /* \"#utility.yul\":535:804   */\n  pop\n    /* \"#utility.yul\":484:804   */\n  swap2\n  swap1\n  pop\n  jump\t// out\n    /* \"#utility.yul\":810:951   */\ntag_19:\n    /* \"#utility.yul\":859:863   */\n  0x00\n    /* \"#utility.yul\":882:885   */\n  dup2\n    /* \"#utility.yul\":874:885   */\n  swap1\n  pop\n    /* \"#utility.yul\":905:908   */\n  dup2\n    /* \"#utility.yul\":902:903   */\n  0x00\n    /* \"#utility.yul\":895:909   */\n  mstore\n    /* \"#utility.yul\":939:943   */\n  0x20\n    /* \"#utility.yul\":936:937   */\n  0x00\n    /* \"#utility.yul\":926:944   */\n  keccak256\n    /* \"#utility.yul\":918:944   */\n  swap1\n  pop\n    /* \"#utility.yul\":810:951   */\n  swap2\n  swap1\n  pop\n  jump\t// out\n    /* \"#utility.yul\":957:1050   */\ntag_20:\n    /* \"#utility.yul\":994:1000   */\n  0x00\n    /* \"#utility.yul\":1041:1043   */\n  0x20\n    /* \"#utility.yul\":1036:1038   */\n  0x1f\n    /* \"#utility.yul\":1029:1034   */\n  dup4\n    /* \"#utility.yul\":1025:1039   */\n  add\n    /* \"#utility.yul\":1021:1044   */\n  div\n    /* \"#utility.yul\":1011:1044   */\n  swap1\n  pop\n    /* \"#utility.yul\":957:1050   */\n  swap2\n  swap1\n  pop\n  jump\t// out\n    /* \"#utility.yul\":1056:1163   */\ntag_21:\n    /* \"#utility.yul\":1100:1108   */\n  0x00\n    /* \"#utility.yul\":1150:1155   */\n  dup3\n    /* \"#utility.yul\":1144:1148   */\n  dup3\n    /* \"#utility.yul\":1140:1156   */\n  shl\n    /* \"#utility.yul\":1119:1156   */\n  swap1\n  pop\n    /* \"#utility.yul\":1056:1163   */\n  swap3\n  swap2\n  pop\n  pop\n  jump\t// out\n    /* \"#utility.yul\":1169:1562   */\ntag_22:\n    /* \"#utility.yul\":1238:1244   */\n  0x00\n    /* \"#utility.yul\":1288:1289   */\n  0x08\n    /* \"#utility.yul\":1276:1286   */\n  dup4\n    /* \"#utility.yul\":1272:1290   */\n  mul\n    /* \"#utility.yul\":1311:1408   */\n  tag_47\n    /* \"#utility.yul\":1341:1407   */\n  0xffffffffffffffffffffffffffffffffffffffffffffffffffffffffffffffff\n    /* \"#utility.yul\":1330:1339   */\n  dup3\n    /* \"#utility.yul\":1311:1408   */\n  tag_21\n  jump\t// in\ntag_47:\n    /* \"#utility.yul\":1429:1468   */\n  tag_48\n    /* \"#utility.yul\":1459:1467   */\n  dup7\n    /* \"#utility.yul\":1448:1457   */\n  dup4\n    /* \"#utility.yul\":1429:1468   */\n  tag_21\n  jump\t// in\ntag_48:\n    /* \"#utility.yul\":1417:1468   */\n  swap6\n  pop\n    /* \"#utility.yul\":1501:1505   */\n  dup1\n    /* \"#utility.yul\":1497:1506   */\n  not\n    /* \"#utility.yul\":1490:1495   */\n  dup5\n    /* \"#utility.yul\":1486:1507   */\n  and\n    /* \"#utility.yul\":1477:1507   */\n  swap4\n  pop\n    /* \"#utility.yul\":1550:1554   */\n  dup1\n    /* \"#utility.yul\":1540:1548   */\n  dup7\n    /* \"#utility.yul\":1536:1555   */\n  and\n    /* \"#utility.yul\":1529:1534   */\n  dup5\n    /* \"#utility.yul\":1526:1556   */\n  or\n    /* \"#utility.yul\":1516:1556   */\n  swap3\n  pop\n    /* \"#utility.yul\":1245:1562   */\n  pop\n  pop\n    /* \"#utility.yul\":1169:1562   */\n  swap4\n  swap3\n  pop\n  pop\n  pop\n  jump\t// out\n    /* \"#utility.yul\":1568:1645   */\ntag_23:\n    /* \"#utility.yul\":1605:1612   */\n  0x00\n    /* \"#utility.yul\":1634:1639   */\n  dup2\n    /* \"#utility.yul\":1623:1639   */\n  swap1\n  pop\n    /* \"#utility.yul\":1568:1645   */\n  swap2\n  swap1\n  pop\n  jump\t// out\n    /* \"#utility.yul\":1651:1711   */\ntag_24:\n    /* \"#utility.yul\":1679:1682   */\n  0x00\n    /* \"#utility.yul\":1700:1705   */\n  dup2\n    /* \"#utility.yul\":1693:1705   */\n  swap1\n  pop\n    /* \"#utility.yul\":1651:1711   */\n  swap2\n  swap1\n  pop\n  jump\t// out\n    /* \"#utility.yul\":1717:1859   */\ntag_25:\n    /* \"#utility.yul\":1767:1776   */\n  0x00\n    /* \"#utility.yul\":1800:1853   */\n  tag_52\n    /* \"#utility.yul\":1818:1852   */\n  tag_53\n    /* \"#utility.yul\":1827:1851   */\n  tag_54\n    /* \"#utility.yul\":1845:1850   */\n  dup5\n    /* \"#utility.yul\":1827:1851   */\n  tag_23\n  jump\t// in\ntag_54:\n    /* \"#utility.yul\":1818:1852   */\n  tag_24\n  jump\t// in\ntag_53:\n    /* \"#utility.yul\":1800:1853   */\n  tag_23\n  jump\t// in\ntag_52:\n    /* \"#utility.yul\":1787:1853   */\n  swap1\n  pop\n    /* \"#utility.yul\":1717:1859   */\n  swap2\n  swap1\n  pop\n  jump\t// out\n    /* \"#utility.yul\":1865:1940   */\ntag_26:\n    /* \"#utility.yul\":1908:1911   */\n  0x00\n    /* \"#utility.yul\":1929:1934   */\n  dup2\n    /* \"#utility.yul\":1922:1934   */\n  swap1\n  pop\n    /* \"#utility.yul\":1865:1940   */\n  swap2\n  swap1\n  pop\n  jump\t// out\n    /* \"#utility.yul\":1946:2215   */\ntag_27:\n    /* \"#utility.yul\":2056:2095   */\n  tag_57\n    /* \"#utility.yul\":2087:2094   */\n  dup4\n    /* \"#utility.yul\":2056:2095   */\n  tag_25\n  jump\t// in\ntag_57:\n    /* \"#utility.yul\":2117:2208   */\n  tag_58\n    /* \"#utility.yul\":2166:2207   */\n  tag_59\n    /* \"#utility.yul\":2190:2206   */\n  dup3\n    /* \"#utility.yul\":2166:2207   */\n  tag_26\n  jump\t// in\ntag_59:\n    /* \"#utility.yul\":2158:2164   */\n  dup5\n    /* \"#utility.yul\":2151:2155   */\n  dup5\n    /* \"#utility.yul\":2145:2156   */\n  sload\n    /* \"#utility.yul\":2117:2208   */\n  tag_22\n  jump\t// in\ntag_58:\n    /* \"#utility.yul\":2111:2115   */\n  dup3\n    /* \"#utility.yul\":2104:2209   */\n  sstore\n    /* \"#utility.yul\":2022:2215   */\n  pop\n    /* \"#utility.yul\":1946:2215   */\n  pop\n  pop\n  pop\n  jump\t// out\n    /* \"#utility.yul\":2221:2294   */\ntag_28:\n    /* \"#utility.yul\":2266:2269   */\n  0x00\n    /* \"#utility.yul\":2287:2288   */\n  0x00\n    /* \"#utility.yul\":2280:2288   */\n  swap1\n  pop\n    /* \"#utility.yul\":2221:2294   */\n  swap1\n  jump\t// out\n    /* \"#utility.yul\":2300:2489   */\ntag_29:\n    /* \"#utility.yul\":2377:2409   */\n  tag_62\n  tag_28\n  jump\t// in\ntag_62:\n    /* \"#utility.yul\":2418:2483   */\n  tag_63\n    /* \"#utility.yul\":2476:2482   */\n  dup2\n    /* \"#utility.yul\":2468:2474   */\n  dup5\n    /* \"#utility.yul\":2462:2466   */\n  dup5\n    /* \"#utility.yul\":2418:2483   */\n  tag_27\n  jump\t// in\ntag_63:\n    /* \"#utility.yul\":2353:2489   */\n  pop\n    /* \"#utility.yul\":2300:2489   */\n  pop\n  pop\n  jump\t// out\n    /* \"#utility.yul\":2495:2681   */\ntag_30:\n    /* \"#utility.yul\":2555:2675   */\ntag_65:\n    /* \"#utility.yul\":2572:2575   */\n  dup2\n    /* \"#utility.yul\":2565:2570   */\n  dup2\n    /* \"#utility.yul\":2562:2576   */\n  lt\n    /* \"#utility.yul\":2555:2675   */\n  iszero\n  tag_67\n  jumpi\n    /* \"#utility.yul\":2626:2665   */\n  tag_68\n    /* \"#utility.yul\":2663:2664   */\n  0x00\n    /* \"#utility.yul\":2656:2661   */\n  dup3\n    /* \"#utility.yul\":2626:2665   */\n  tag_29\n  jump\t// in\ntag_68:\n    /* \"#utility.yul\":2599:2600   */\n  0x01\n    /* \"#utility.yul\":2592:2597   */\n  dup2\n    /* \"#utility.yul\":2588:2601   */\n  add\n    /* \"#utility.yul\":2579:2601   */\n  swap1\n  pop\n    /* \"#utility.yul\":2555:2675   */\n  jump(tag_65)\ntag_67:\n    /* \"#utility.yul\":2495:2681   */\n  pop\n  pop\n  jump\t// out\n    /* \"#utility.yul\":2687:3230   */\ntag_31:\n    /* \"#utility.yul\":2788:2790   */\n  0x1f\n    /* \"#utility.yul\":2783:2786   */\n  dup3\n    /* \"#utility.yul\":2780:2791   */\n  gt\n    /* \"#utility.yul\":2777:3223   */\n  iszero\n  tag_70\n  jumpi\n    /* \"#utility.yul\":2822:2860   */\n  tag_71\n    /* \"#utility.yul\":2854:2859   */\n  dup2\n    /* \"#utility.yul\":2822:2860   */\n  tag_19\n  jump\t// in\ntag_71:\n    /* \"#utility.yul\":2906:2935   */\n  tag_72\n    /* \"#utility.yul\":2924:2934   */\n  dup5\n    /* \"#utility.yul\":2906:2935   */\n  tag_20\n  jump\t// in\ntag_72:\n    /* \"#utility.yul\":2896:2904   */\n  dup2\n    /* \"#utility.yul\":2892:2936   */\n  add\n    /* \"#utility.yul\":3089:3091   */\n  0x20\n    /* \"#utility.yul\":3077:3087   */\n  dup6\n    /* \"#utility.yul\":3074:3092   */\n  lt\n    /* \"#utility.yul\":3071:3120   */\n  iszero\n  tag_73\n  jumpi\n    /* \"#utility.yul\":3110:3118   */\n  dup2\n    /* \"#utility.yul\":3095:3118   */\n  swap1\n  pop\n    /* \"#utility.yul\":3071:3120   */\ntag_73:\n    /* \"#utility.yul\":3133:3213   */\n  tag_74\n    /* \"#utility.yul\":3189:3211   */\n  tag_75\n    /* \"#utility.yul\":3207:3210   */\n  dup6\n    /* \"#utility.yul\":3189:3211   */\n  tag_20\n  jump\t// in\ntag_75:\n    /* \"#utility.yul\":3179:3187   */\n  dup4\n    /* \"#utility.yul\":3175:3212   */\n  add\n    /* \"#utility.yul\":3162:3173   */\n  dup3\n    /* \"#utility.yul\":3133:3213   */\n  tag_30\n  jump\t// in\ntag_74:\n    /* \"#utility.yul\":2792:3223   */\n  pop\n  pop\n    /* \"#utility.yul\":2777:3223   */\ntag_70:\n    /* \"#utility.yul\":2687:3230   */\n  pop\n  pop\n  pop\n  jump\t// out\n    /* \"#utility.yul\":3236:3353   */\ntag_32:\n    /* \"#utility.yul\":3290:3298   */\n  0x00\n    /* \"#utility.yul\":3340:3345   */\n  dup3\n    /* \"#utility.yul\":3334:3338   */\n  dup3\n    /* \"#utility.yul\":3330:3346   */\n  shr\n    /* \"#utility.yul\":3309:3346   */\n  swap1\n  pop\n    /* \"#utility.yul\":3236:3353   */\n  swap3\n  swap2\n  pop\n  pop\n  jump\t// out\n    /* \"#utility.yul\":3359:3528   */\ntag_33:\n    /* \"#utility.yul\":3403:3409   */\n  0x00\n    /* \"#utility.yul\":3436:3487   */\n  tag_78\n    /* \"#utility.yul\":3484:3485   */\n  0x00\n    /* \"#utility.yul\":3480:3486   */\n  not\n    /* \"#utility.yul\":3472:3477   */\n  dup5\n    /* \"#utility.yul\":3469:3470   */\n  0x08\n    /* \"#utility.yul\":3465:3478   */\n  mul\n    /* \"#utility.yul\":3436:3487   */\n  tag_32\n  jump\t// in\ntag_78:\n    /* \"#utility.yul\":3432:3488   */\n  not\n    /* \"#utility.yul\":3517:3521   */\n  dup1\n    /* \"#utility.yul\":3511:3515   */\n  dup4\n    /* \"#utility.yul\":3507:3522   */\n  and\n    /* \"#utility.yul\":3497:3522   */\n  swap2\n  pop\n    /* \"#utility.yul\":3410:3528   */\n  pop\n    /* \"#utility.yul\":3359:3528   */\n  swap3\n  swap2\n  pop\n  pop\n  jump\t// out\n    /* \"#utility.yul\":3533:3828   */\ntag_34:\n    /* \"#utility.yul\":3609:3613   */\n  0x00\n    /* \"#utility.yul\":3755:3784   */\n  tag_80\n    /* \"#utility.yul\":3780:3783   */\n  dup4\n    /* \"#utility.yul\":3774:3778   */\n  dup4\n    /* \"#utility.yul\":3755:3784   */\n  tag_33\n  jump\t// in\ntag_80:\n    /* \"#utility.yul\":3747:3784   */\n  swap2\n  pop\n    /* \"#utility.yul\":3817:3820   */\n  dup3\n    /* \"#utility.yul\":3814:3815   */\n  0x02\n    /* \"#utility.yul\":3810:3821   */\n  mul\n    /* \"#utility.yul\":3804:3808   */\n  dup3\n    /* \"#utility.yul\":3801:3822   */\n  or\n    /* \"#utility.yul\":3793:3822   */\n  swap1\n  pop\n    /* \"#utility.yul\":3533:3828   */\n  swap3\n  swap2\n  pop\n  pop\n  jump\t// out\n    /* \"#utility.yul\":3833:5228   */\ntag_2:\n    /* \"#utility.yul\":3950:3987   */\n  tag_82\n    /* \"#utility.yul\":3983:3986   */\n  dup3\n    /* \"#utility.yul\":3950:3987   */\n  tag_15\n  jump\t// in\ntag_82:\n    /* \"#utility.yul\":4052:4070   */\n  0xffffffffffffffff\n    /* \"#utility.yul\":4044:4050   */\n  dup2\n    /* \"#utility.yul\":4041:4071   */\n  gt\n    /* \"#utility.yul\":4038:4094   */\n  iszero\n  tag_83\n  jumpi\n    /* \"#utility.yul\":4074:4092   */\n  tag_84\n  tag_16\n  jump\t// in\ntag_84:\n    /* \"#utility.yul\":4038:4094   */\ntag_83:\n    /* \"#utility.yul\":4118:4156   */\n  tag_85\n    /* \"#utility.yul\":4150:4154   */\n  dup3\n    /* \"#utility.yul\":4144:4155   */\n  sload\n    /* \"#utility.yul\":4118:4156   */\n  tag_18\n  jump\t// in\ntag_85:\n    /* \"#utility.yul\":4203:4270   */\n  tag_86\n    /* \"#utility.yul\":4263:4269   */\n  dup3\n    /* \"#utility.yul\":4255:4261   */\n  dup3\n    /* \"#utility.yul\":4249:4253   */\n  dup6\n    /* \"#utility.yul\":4203:4270   */\n  tag_31\n  jump\t// in\ntag_86:\n    /* \"#utility.yul\":4297:4298   */\n  0x00\n    /* \"#utility.yul\":4321:4325   */\n  0x20\n    /* \"#utility.yul\":4308:4325   */\n  swap1\n  pop\n    /* \"#utility.yul\":4353:4355   */\n  0x1f\n    /* \"#utility.yul\":4345:4351   */\n  dup4\n    /* \"#utility.yul\":4342:4356   */\n  gt\n    /* \"#utility.yul\":4370:4371   */\n  0x01\n    /* \"#utility.yul\":4365:4983   */\n  dup2\n  eq\n  tag_88\n  jumpi\n    /* \"#utility.yul\":5027:5028   */\n  0x00\n    /* \"#utility.yul\":5044:5050   */\n  dup5\n    /* \"#utility.yul\":5041:5118   */\n  iszero\n  tag_89\n  jumpi\n    /* \"#utility.yul\":5093:5102   */\n  dup3\n    /* \"#utility.yul\":5088:5091   */\n  dup8\n    /* \"#utility.yul\":5084:5103   */\n  add\n    /* \"#utility.yul\":5078:5104   */\n  mload\n    /* \"#utility.yul\":5069:5104   */\n  swap1\n  pop\n    /* \"#utility.yul\":5041:5118   */\ntag_89:\n    /* \"#utility.yul\":5144:5211   */\n  tag_90\n    /* \"#utility.yul\":5204:5210   */\n  dup6\n    /* \"#utility.yul\":5197:5202   */\n  dup3\n    /* \"#utility.yul\":5144:5211   */\n  tag_34\n  jump\t// in\ntag_90:\n    /* \"#utility.yul\":5138:5142   */\n  dup7\n    /* \"#utility.yul\":5131:5212   */\n  sstore\n    /* \"#utility.yul\":5000:5222   */\n  pop\n    /* \"#utility.yul\":4335:5222   */\n  jump(tag_87)\n    /* \"#utility.yul\":4365:4983   */\ntag_88:\n    /* \"#utility.yul\":4417:4421   */\n  0x1f\n    /* \"#utility.yul\":4413:4422   */\n  not\n    /* \"#utility.yul\":4405:4411   */\n  dup5\n    /* \"#utility.yul\":4401:4423   */\n  and\n    /* \"#utility.yul\":4451:4488   */\n  tag_91\n    /* \"#utility.yul\":4483:4487   */\n  dup7\n    /* \"#utility.yul\":4451:4488   */\n  tag_19\n  jump\t// in\ntag_91:\n    /* \"#utility.yul\":4510:4511   */\n  0x00\n    /* \"#utility.yul\":4524:4732   */\ntag_92:\n    /* \"#utility.yul\":4538:4545   */\n  dup3\n    /* \"#utility.yul\":4535:4536   */\n  dup2\n    /* \"#utility.yul\":4532:4546   */\n  lt\n    /* \"#utility.yul\":4524:4732   */\n  iszero\n  tag_94\n  jumpi\n    /* \"#utility.yul\":4617:4626   */\n  dup5\n    /* \"#utility.yul\":4612:4615   */\n  dup10\n    /* \"#utility.yul\":4608:4627   */\n  add\n    /* \"#utility.yul\":4602:4628   */\n  mload\n    /* \"#utility.yul\":4594:4600   */\n  dup3\n    /* \"#utility.yul\":4587:4629   */\n  sstore\n    /* \"#utility.yul\":4668:4669   */\n  0x01\n    /* \"#utility.yul\":4660:4666   */\n  dup3\n    /* \"#utility.yul\":4656:4670   */\n  add\n    /* \"#utility.yul\":4646:4670   */\n  swap2\n  pop\n    /* \"#utility.yul\":4715:4717   */\n  0x20\n    /* \"#utility.yul\":4704:4713   */\n  dup6\n    /* \"#utility.yul\":4700:4718   */\n  add\n    /* \"#utility.yul\":4687:4718   */\n  swap5\n  pop\n    /* \"#utility.yul\":4561:4565   */\n  0x20\n    /* \"#utility.yul\":4558:4559   */\n  dup2\n    /* \"#utility.yul\":4554:4566   */\n  add\n    /* \"#utility.yul\":4549:4566   */\n  swap1\n  pop\n    /* \"#utility.yul\":4524:4732   */\n  jump(tag_92)\ntag_94:\n    /* \"#utility.yul\":4760:4766   */\n  dup7\n    /* \"#utility.yul\":4751:4758   */\n  dup4\n    /* \"#utility.yul\":4748:4767   */\n  lt\n    /* \"#utility.yul\":4745:4924   */\n  iszero\n  tag_95\n  jumpi\n    /* \"#utility.yul\":4818:4827   */\n  dup5\n    /* \"#utility.yul\":4813:4816   */\n  dup10\n    /* \"#utility.yul\":4809:4828   */\n  add\n    /* \"#utility.yul\":4803:4829   */\n  mload\n    /* \"#utility.yul\":4861:4909   */\n  tag_96\n    /* \"#utility.yul\":4903:4907   */\n  0x1f\n    /* \"#utility.yul\":4895:4901   */\n  dup10\n    /* \"#utility.yul\":4891:4908   */\n  and\n    /* \"#utility.yul\":4880:4889   */\n  dup3\n    /* \"#utility.yul\":4861:4909   */\n  tag_33\n  jump\t// in\ntag_96:\n    /* \"#utility.yul\":4853:4859   */\n  dup4\n    /* \"#utility.yul\":4846:4910   */\n  sstore\n    /* \"#utility.yul\":4768:4924   */\n  pop\n    /* \"#utility.yul\":4745:4924   */\ntag_95:\n    /* \"#utility.yul\":4970:4971   */\n  0x01\n    /* \"#utility.yul\":4966:4967   */\n  0x02\n    /* \"#utility.yul\":4958:4964   */\n  dup9\n    /* \"#utility.yul\":4954:4968   */\n  mul\n    /* \"#utility.yul\":4950:4972   */\n  add\n    /* \"#utility.yul\":4944:4948   */\n  dup9\n    /* \"#utility.yul\":4937:4973   */\n  sstore\n    /* \"#utility.yul\":4372:4983   */\n  pop\n  pop\n  pop\n    /* \"#utility.yul\":4335:5222   */\ntag_87:\n  pop\n    /* \"#utility.yul\":3925:5228   */\n  pop\n  pop\n  pop\n    /* \"#utility.yul\":3833:5228   */\n  pop\n  pop\n  jump\t// out\n    /* \"RateUp.sol\":572:4129  contract RateUp is Ownable, Pausable {... */\ntag_12:\n  dataSize(sub_0)\n  dup1\n  dataOffset(sub_0)\n  0x00\n  codecopy\n  0x00\n  return\nstop\n\nsub_0: assembly {\n        /* \"RateUp.sol\":572:4129  contract RateUp is Ownable, Pausable {... */\n      mstore(0x40, 0x80)\n      jumpi(tag_1, lt(calldatasize, 0x04))\n      shr(0xe0, calldataload(0x00))\n      dup1\n      0x715018a6\n      gt\n      tag_21\n      jumpi\n      dup1\n      0xd2f6ab9b\n      gt\n      tag_22\n      jumpi\n      dup1\n      0xd2f6ab9b\n      eq\n      tag_16\n      jumpi\n      dup1\n      0xddca3f43\n      eq\n      tag_17\n      jumpi\n      dup1\n      0xf2fde38b\n      eq\n      tag_18\n      jumpi\n      dup1\n      0xf31f2f80\n      eq\n      tag_19\n      jumpi\n      dup1\n      0xffa1ad74\n      eq\n      tag_20\n      jumpi\n      jump(tag_1)\n    tag_22:\n      dup1\n      0x715018a6\n      eq\n      tag_11\n      jumpi\n      dup1\n      0x8456cb59\n      eq\n      tag_12\n      jumpi\n      dup1\n      0x8da5cb5b\n      eq\n      tag_13\n      jumpi\n      dup1\n      0x9012c4a8\n      eq\n      tag_14\n      jumpi\n      dup1\n      0xb666ca9d\n      eq\n      tag_15\n      jumpi\n      jump(tag_1)\n    tag_21:\n      dup1\n      0x3f4ba83a\n      gt\n      tag_23\n      jumpi\n      dup1\n      0x3f4ba83a\n      eq\n      tag_6\n      jumpi\n      dup1\n      0x5675049e\n      eq\n      tag_7\n      jumpi\n      dup1\n      0x56a6d9ef\n      eq\n      tag_8\n      jumpi\n      dup1\n      0x5c975abb\n      eq\n      tag_9\n      jumpi\n      dup1\n      0x63414343\n      eq\n      tag_10\n      jumpi\n      jump(tag_1)\n    tag_23:\n      dup1\n      0x12065fe0\n      eq\n      tag_2\n      jumpi\n      dup1\n      0x2cdc9efb\n      eq\n      tag_3\n      jumpi\n      dup1\n      0x368df2a3\n      eq\n      tag_4\n      jumpi\n      dup1\n      0x3ccfd60b\n      eq\n      tag_5\n      jumpi\n    tag_1:\n      revert(0x00, 0x00)\n        /* \"RateUp.sol\":3896:3993  function getBalance() public view returns (uint256) {... */\n    tag_2:\n      callvalue\n      dup1\n      iszero\n      tag_24\n      jumpi\n      revert(0x00, 0x00)\n    tag_24:\n      pop\n      tag_25\n      tag_26\n      jump\t// in\n    tag_25:\n      mload(0x40)\n      tag_27\n      swap2\n      swap1\n      tag_28\n      jump\t// in\n    tag_27:\n      mload(0x40)\n      dup1\n      swap2\n      sub\n      swap1\n      return\n        /* \"RateUp.sol\":904:963  mapping(address => EndorsementStruct[]) public endorsements */\n    tag_3:\n      callvalue\n      dup1\n      iszero\n      tag_29\n      jumpi\n      revert(0x00, 0x00)\n    tag_29:\n      pop\n      tag_30\n      0x04\n      dup1\n      calldatasize\n      sub\n      dup2\n      add\n      swap1\n      tag_31\n      swap2\n      swap1\n      tag_32\n      jump\t// in\n    tag_31:\n      tag_33\n      jump\t// in\n    tag_30:\n      mload(0x40)\n      tag_34\n      swap6\n      swap5\n      swap4\n      swap3\n      swap2\n      swap1\n      tag_35\n      jump\t// in\n    tag_34:\n      mload(0x40)\n      dup1\n      swap2\n      sub\n      swap1\n      return\n        /* \"RateUp.sol\":2948:3391  function updateEndorsementOption(uint256 index, string memory option) public onlyOwner {... */\n    tag_4:\n      callvalue\n      dup1\n      iszero\n      tag_36\n      jumpi\n      revert(0x00, 0x00)\n    tag_36:\n      pop\n      tag_37\n      0x04\n      dup1\n      calldatasize\n      sub\n      dup2\n      add\n      swap1\n      tag_38\n      swap2\n      swap1\n      tag_39\n      jump\t// in\n    tag_38:\n      tag_40\n      jump\t// in\n    tag_37:\n      stop\n        /* \"RateUp.sol\":3516:3704  function withdraw() public onlyOwner {... */\n    tag_5:\n      callvalue\n      dup1\n      iszero\n      tag_41\n      jumpi\n      revert(0x00, 0x00)\n    tag_41:\n      pop\n      tag_42\n      tag_43\n      jump\t// in\n    tag_42:\n      stop\n        /* \"RateUp.sol\":4064:4127  function unpause() public onlyOwner {... */\n    tag_6:\n      callvalue\n      dup1\n      iszero\n      tag_44\n      jumpi\n      revert(0x00, 0x00)\n    tag_44:\n      pop\n      tag_45\n      tag_46\n      jump\t// in\n    tag_45:\n      stop\n        /* \"RateUp.sol\":3397:3510  function getEndorsementOptions() public view returns (string[] memory) {... */\n    tag_7:\n      callvalue\n      dup1\n      iszero\n      tag_47\n      jumpi\n      revert(0x00, 0x00)\n    tag_47:\n      pop\n      tag_48\n      tag_49\n      jump\t// in\n    tag_48:\n      mload(0x40)\n      tag_50\n      swap2\n      swap1\n      tag_51\n      jump\t// in\n    tag_50:\n      mload(0x40)\n      dup1\n      swap2\n      sub\n      swap1\n      return\n        /* \"RateUp.sol\":3710:3890  function transferBalance(address payable _to, uint256 _amount) public onlyOwner {... */\n    tag_8:\n      callvalue\n      dup1\n      iszero\n      tag_52\n      jumpi\n      revert(0x00, 0x00)\n    tag_52:\n      pop\n      tag_53\n      0x04\n      dup1\n      calldatasize\n      sub\n      dup2\n      add\n      swap1\n      tag_54\n      swap2\n      swap1\n      tag_55\n      jump\t// in\n    tag_54:\n      tag_56\n      jump\t// in\n    tag_53:\n      stop\n        /* \"@openzeppelin/contracts/utils/Pausable.sol\":1726:1810  function paused() public view virtual returns (bool) {... */\n    tag_9:\n      callvalue\n      dup1\n      iszero\n      tag_57\n      jumpi\n      revert(0x00, 0x00)\n    tag_57:\n      pop\n      tag_58\n      tag_59\n      jump\t// in\n    tag_58:\n      mload(0x40)\n      tag_60\n      swap2\n      swap1\n      tag_61\n      jump\t// in\n    tag_60:\n      mload(0x40)\n      dup1\n      swap2\n      sub\n      swap1\n      return\n        /* \"RateUp.sol\":2520:2942  function addEndorsementOption(string memory option) public onlyOwner {... */\n    tag_10:\n      callvalue\n      dup1\n      iszero\n      tag_62\n      jumpi\n      revert(0x00, 0x00)\n    tag_62:\n      pop\n      tag_63\n      0x04\n      dup1\n      calldatasize\n      sub\n      dup2\n      add\n      swap1\n      tag_64\n      swap2\n      swap1\n      tag_65\n      jump\t// in\n    tag_64:\n      tag_66\n      jump\t// in\n    tag_63:\n      stop\n        /* \"@openzeppelin/contracts/access/Ownable.sol\":1824:1925  function renounceOwnership() public virtual onlyOwner {... */\n    tag_11:\n      callvalue\n      dup1\n      iszero\n      tag_67\n      jumpi\n      revert(0x00, 0x00)\n    tag_67:\n      pop\n      tag_68\n      tag_69\n      jump\t// in\n    tag_68:\n      stop\n        /* \"RateUp.sol\":3999:4058  function pause() public onlyOwner {... */\n    tag_12:\n      callvalue\n      dup1\n      iszero\n      tag_70\n      jumpi\n      revert(0x00, 0x00)\n    tag_70:\n      pop\n      tag_71\n      tag_72\n      jump\t// in\n    tag_71:\n      stop\n        /* \"@openzeppelin/contracts/access/Ownable.sol\":1201:1286  function owner() public view virtual returns (address) {... */\n    tag_13:\n      callvalue\n      dup1\n      iszero\n      tag_73\n      jumpi\n      revert(0x00, 0x00)\n    tag_73:\n      pop\n      tag_74\n      tag_75\n      jump\t// in\n    tag_74:\n      mload(0x40)\n      tag_76\n      swap2\n      swap1\n      tag_77\n      jump\t// in\n    tag_76:\n      mload(0x40)\n      dup1\n      swap2\n      sub\n      swap1\n      return\n        /* \"RateUp.sol\":1054:1162  function updateFee(uint256 _fee) public onlyOwner {... */\n    tag_14:\n      callvalue\n      dup1\n      iszero\n      tag_78\n      jumpi\n      revert(0x00, 0x00)\n    tag_78:\n      pop\n      tag_79\n      0x04\n      dup1\n      calldatasize\n      sub\n      dup2\n      add\n      swap1\n      tag_80\n      swap2\n      swap1\n      tag_81\n      jump\t// in\n    tag_80:\n      tag_82\n      jump\t// in\n    tag_79:\n      stop\n        /* \"RateUp.sol\":1168:1302  function getEndorsements(address target) public view returns (EndorsementStruct[] memory) {... */\n    tag_15:\n      callvalue\n      dup1\n      iszero\n      tag_83\n      jumpi\n      revert(0x00, 0x00)\n    tag_83:\n      pop\n      tag_84\n      0x04\n      dup1\n      calldatasize\n      sub\n      dup2\n      add\n      swap1\n      tag_85\n      swap2\n      swap1\n      tag_86\n      jump\t// in\n    tag_85:\n      tag_87\n      jump\t// in\n    tag_84:\n      mload(0x40)\n      tag_88\n      swap2\n      swap1\n      tag_89\n      jump\t// in\n    tag_88:\n      mload(0x40)\n      dup1\n      swap2\n      sub\n      swap1\n      return\n        /* \"RateUp.sol\":969:1003  string[] public endorsementOptions */\n    tag_16:\n      callvalue\n      dup1\n      iszero\n      tag_90\n      jumpi\n      revert(0x00, 0x00)\n    tag_90:\n      pop\n      tag_91\n      0x04\n      dup1\n      calldatasize\n      sub\n      dup2\n      add\n      swap1\n      tag_92\n      swap2\n      swap1\n      tag_81\n      jump\t// in\n    tag_92:\n      tag_93\n      jump\t// in\n    tag_91:\n      mload(0x40)\n      tag_94\n      swap2\n      swap1\n      tag_95\n      jump\t// in\n    tag_94:\n      mload(0x40)\n      dup1\n      swap2\n      sub\n      swap1\n      return\n        /* \"RateUp.sol\":713:731  uint256 public fee */\n    tag_17:\n      callvalue\n      dup1\n      iszero\n      tag_96\n      jumpi\n      revert(0x00, 0x00)\n    tag_96:\n      pop\n      tag_97\n      tag_98\n      jump\t// in\n    tag_97:\n      mload(0x40)\n      tag_99\n      swap2\n      swap1\n      tag_28\n      jump\t// in\n    tag_99:\n      mload(0x40)\n      dup1\n      swap2\n      sub\n      swap1\n      return\n        /* \"@openzeppelin/contracts/access/Ownable.sol\":2074:2272  function transferOwnership(address newOwner) public virtual onlyOwner {... */\n    tag_18:\n      callvalue\n      dup1\n      iszero\n      tag_100\n      jumpi\n      revert(0x00, 0x00)\n    tag_100:\n      pop\n      tag_101\n      0x04\n      dup1\n      calldatasize\n      sub\n      dup2\n      add\n      swap1\n      tag_102\n      swap2\n      swap1\n      tag_86\n      jump\t// in\n    tag_102:\n      tag_103\n      jump\t// in\n    tag_101:\n      stop\n        /* \"RateUp.sol\":1308:2514  function giveEndorsement(... */\n    tag_19:\n      tag_104\n      0x04\n      dup1\n      calldatasize\n      sub\n      dup2\n      add\n      swap1\n      tag_105\n      swap2\n      swap1\n      tag_106\n      jump\t// in\n    tag_105:\n      tag_107\n      jump\t// in\n    tag_104:\n      stop\n        /* \"RateUp.sol\":615:655  string public constant VERSION = \"1.0.0\" */\n    tag_20:\n      callvalue\n      dup1\n      iszero\n      tag_108\n      jumpi\n      revert(0x00, 0x00)\n    tag_108:\n      pop\n      tag_109\n      tag_110\n      jump\t// in\n    tag_109:\n      mload(0x40)\n      tag_111\n      swap2\n      swap1\n      tag_95\n      jump\t// in\n    tag_111:\n      mload(0x40)\n      dup1\n      swap2\n      sub\n      swap1\n      return\n        /* \"RateUp.sol\":3896:3993  function getBalance() public view returns (uint256) {... */\n    tag_26:\n        /* \"RateUp.sol\":3939:3946  uint256 */\n      0x00\n        /* \"RateUp.sol\":3965:3986  address(this).balance */\n      selfbalance\n        /* \"RateUp.sol\":3958:3986  return address(this).balance */\n      swap1\n      pop\n        /* \"RateUp.sol\":3896:3993  function getBalance() public view returns (uint256) {... */\n      swap1\n      jump\t// out\n        /* \"RateUp.sol\":904:963  mapping(address => EndorsementStruct[]) public endorsements */\n    tag_33:\n      mstore(0x20, 0x03)\n      dup2\n      0x00\n      mstore\n      keccak256(0x00, 0x40)\n      dup2\n      dup2\n      sload\n      dup2\n      lt\n      tag_113\n      jumpi\n      0x00\n      dup1\n      revert\n    tag_113:\n      swap1\n      0x00\n      mstore\n      keccak256(0x00, 0x20)\n      swap1\n      0x05\n      mul\n      add\n      0x00\n      swap2\n      pop\n      swap2\n      pop\n      pop\n      dup1\n      0x00\n      add\n      0x00\n      swap1\n      sload\n      swap1\n      0x0100\n      exp\n      swap1\n      div\n      0xffffffffffffffffffffffffffffffffffffffff\n      and\n      swap1\n      dup1\n      0x01\n      add\n      dup1\n      sload\n      tag_115\n      swap1\n      tag_116\n      jump\t// in\n    tag_115:\n      dup1\n      0x1f\n      add\n      0x20\n      dup1\n      swap2\n      div\n      mul\n      0x20\n      add\n      mload(0x40)\n      swap1\n      dup2\n      add\n      0x40\n      mstore\n      dup1\n      swap3\n      swap2\n      swap1\n      dup2\n      dup2\n      mstore\n      0x20\n      add\n      dup3\n      dup1\n      sload\n      tag_117\n      swap1\n      tag_116\n      jump\t// in\n    tag_117:\n      dup1\n      iszero\n      tag_118\n      jumpi\n      dup1\n      0x1f\n      lt\n      tag_119\n      jumpi\n      0x0100\n      dup1\n      dup4\n      sload\n      div\n      mul\n      dup4\n      mstore\n      swap2\n      0x20\n      add\n      swap2\n      jump(tag_118)\n    tag_119:\n      dup3\n      add\n      swap2\n      swap1\n      0x00\n      mstore\n      keccak256(0x00, 0x20)\n      swap1\n    tag_120:\n      dup2\n      sload\n      dup2\n      mstore\n      swap1\n      0x01\n      add\n      swap1\n      0x20\n      add\n      dup1\n      dup4\n      gt\n      tag_120\n      jumpi\n      dup3\n      swap1\n      sub\n      0x1f\n      and\n      dup3\n      add\n      swap2\n    tag_118:\n      pop\n      pop\n      pop\n      pop\n      pop\n      swap1\n      dup1\n      0x02\n      add\n      dup1\n      sload\n      tag_121\n      swap1\n      tag_116\n      jump\t// in\n    tag_121:\n      dup1\n      0x1f\n      add\n      0x20\n      dup1\n      swap2\n      div\n      mul\n      0x20\n      add\n      mload(0x40)\n      swap1\n      dup2\n      add\n      0x40\n      mstore\n      dup1\n      swap3\n      swap2\n      swap1\n      dup2\n      dup2\n      mstore\n      0x20\n      add\n      dup3\n      dup1\n      sload\n      tag_122\n      swap1\n      tag_116\n      jump\t// in\n    tag_122:\n      dup1\n      iszero\n      tag_123\n      jumpi\n      dup1\n      0x1f\n      lt\n      tag_124\n      jumpi\n      0x0100\n      dup1\n      dup4\n      sload\n      div\n      mul\n      dup4\n      mstore\n      swap2\n      0x20\n      add\n      swap2\n      jump(tag_123)\n    tag_124:\n      dup3\n      add\n      swap2\n      swap1\n      0x00\n      mstore\n      keccak256(0x00, 0x20)\n      swap1\n    tag_125:\n      dup2\n      sload\n      dup2\n      mstore\n      swap1\n      0x01\n      add\n      swap1\n      0x20\n      add\n      dup1\n      dup4\n      gt\n      tag_125\n      jumpi\n      dup3\n      swap1\n      sub\n      0x1f\n      and\n      dup3\n      add\n      swap2\n    tag_123:\n      pop\n      pop\n      pop\n      pop\n      pop\n      swap1\n      dup1\n      0x03\n      add\n      0x00\n      swap1\n      sload\n      swap1\n      0x0100\n      exp\n      swap1\n      div\n      0xff\n      and\n      swap1\n      dup1\n      0x04\n      add\n      sload\n      swap1\n      pop\n      dup6\n      jump\t// out\n        /* \"RateUp.sol\":2948:3391  function updateEndorsementOption(uint256 index, string memory option) public onlyOwner {... */\n    tag_40:\n        /* \"@openzeppelin/contracts/access/Ownable.sol\":1094:1107  _checkOwner() */\n      tag_127\n        /* \"@openzeppelin/contracts/access/Ownable.sol\":1094:1105  _checkOwner */\n      tag_128\n        /* \"@openzeppelin/contracts/access/Ownable.sol\":1094:1107  _checkOwner() */\n      jump\t// in\n    tag_127:\n        /* \"RateUp.sol\":3076:3077  0 */\n      0x00\n        /* \"RateUp.sol\":3059:3065  option */\n      dup2\n        /* \"RateUp.sol\":3053:3073  bytes(option).length */\n      mload\n        /* \"RateUp.sol\":3053:3077  bytes(option).length > 0 */\n      gt\n        /* \"RateUp.sol\":3045:3104  require(bytes(option).length > 0, \"Option cannot be empty\") */\n      tag_130\n      jumpi\n      mload(0x40)\n      0x08c379a000000000000000000000000000000000000000000000000000000000\n      dup2\n      mstore\n      0x04\n      add\n      tag_131\n      swap1\n      tag_132\n      jump\t// in\n    tag_131:\n      mload(0x40)\n      dup1\n      swap2\n      sub\n      swap1\n      revert\n    tag_130:\n        /* \"RateUp.sol\":3119:3128  uint256 i */\n      0x00\n        /* \"RateUp.sol\":3131:3132  0 */\n      0x00\n        /* \"RateUp.sol\":3119:3132  uint256 i = 0 */\n      swap1\n      pop\n        /* \"RateUp.sol\":3114:3296  for (uint256 i = 0; i < endorsementOptions.length; i++) {... */\n    tag_133:\n        /* \"RateUp.sol\":3138:3156  endorsementOptions */\n      0x04\n        /* \"RateUp.sol\":3138:3163  endorsementOptions.length */\n      dup1\n      sload\n      swap1\n      pop\n        /* \"RateUp.sol\":3134:3135  i */\n      dup2\n        /* \"RateUp.sol\":3134:3163  i < endorsementOptions.length */\n      lt\n        /* \"RateUp.sol\":3114:3296  for (uint256 i = 0; i < endorsementOptions.length; i++) {... */\n      iszero\n      tag_134\n      jumpi\n        /* \"RateUp.sol\":3251:3257  option */\n      dup2\n        /* \"RateUp.sol\":3235:3259  keccak256(bytes(option)) */\n      dup1\n      mload\n      swap1\n      0x20\n      add\n      keccak256\n        /* \"RateUp.sol\":3208:3226  endorsementOptions */\n      0x04\n        /* \"RateUp.sol\":3227:3228  i */\n      dup3\n        /* \"RateUp.sol\":3208:3229  endorsementOptions[i] */\n      dup2\n      sload\n      dup2\n      lt\n      tag_136\n      jumpi\n      tag_137\n      tag_138\n      jump\t// in\n    tag_137:\n    tag_136:\n      swap1\n      0x00\n      mstore\n      keccak256(0x00, 0x20)\n      add\n        /* \"RateUp.sol\":3192:3231  keccak256(bytes(endorsementOptions[i])) */\n      mload(0x40)\n      tag_140\n      swap2\n      swap1\n      tag_141\n      jump\t// in\n    tag_140:\n      mload(0x40)\n      dup1\n      swap2\n      sub\n      swap1\n      keccak256\n        /* \"RateUp.sol\":3192:3259  keccak256(bytes(endorsementOptions[i])) != keccak256(bytes(option)) */\n      sub\n        /* \"RateUp.sol\":3184:3285  require(keccak256(bytes(endorsementOptions[i])) != keccak256(bytes(option)), \"Option already exists\") */\n      tag_142\n      jumpi\n      mload(0x40)\n      0x08c379a000000000000000000000000000000000000000000000000000000000\n      dup2\n      mstore\n      0x04\n      add\n      tag_143\n      swap1\n      tag_144\n      jump\t// in\n    tag_143:\n      mload(0x40)\n      dup1\n      swap2\n      sub\n      swap1\n      revert\n    tag_142:\n        /* \"RateUp.sol\":3165:3168  i++ */\n      dup1\n      dup1\n      0x01\n      add\n      swap2\n      pop\n      pop\n        /* \"RateUp.sol\":3114:3296  for (uint256 i = 0; i < endorsementOptions.length; i++) {... */\n      jump(tag_133)\n    tag_134:\n      pop\n        /* \"RateUp.sol\":3333:3339  option */\n      dup1\n        /* \"RateUp.sol\":3305:3323  endorsementOptions */\n      0x04\n        /* \"RateUp.sol\":3324:3329  index */\n      dup4\n        /* \"RateUp.sol\":3305:3330  endorsementOptions[index] */\n      dup2\n      sload\n      dup2\n      lt\n      tag_145\n      jumpi\n      tag_146\n      tag_138\n      jump\t// in\n    tag_146:\n    tag_145:\n      swap1\n      0x00\n      mstore\n      keccak256(0x00, 0x20)\n      add\n        /* \"RateUp.sol\":3305:3339  endorsementOptions[index] = option */\n      swap1\n      dup2\n      tag_148\n      swap2\n      swap1\n      tag_149\n      jump\t// in\n    tag_148:\n      pop\n        /* \"RateUp.sol\":3354:3384  EndorsementOptionAdded(option) */\n      0x8329f95e4544f4e52f94f1889c321525f3ab368f971c4ad352ba31b4ea8fed56\n        /* \"RateUp.sol\":3377:3383  option */\n      dup2\n        /* \"RateUp.sol\":3354:3384  EndorsementOptionAdded(option) */\n      mload(0x40)\n      tag_150\n      swap2\n      swap1\n      tag_95\n      jump\t// in\n    tag_150:\n      mload(0x40)\n      dup1\n      swap2\n      sub\n      swap1\n      log1\n        /* \"RateUp.sol\":2948:3391  function updateEndorsementOption(uint256 index, string memory option) public onlyOwner {... */\n      pop\n      pop\n      jump\t// out\n        /* \"RateUp.sol\":3516:3704  function withdraw() public onlyOwner {... */\n    tag_43:\n        /* \"@openzeppelin/contracts/access/Ownable.sol\":1094:1107  _checkOwner() */\n      tag_152\n        /* \"@openzeppelin/contracts/access/Ownable.sol\":1094:1105  _checkOwner */\n      tag_128\n        /* \"@openzeppelin/contracts/access/Ownable.sol\":1094:1107  _checkOwner() */\n      jump\t// in\n    tag_152:\n        /* \"RateUp.sol\":3563:3577  uint256 amount */\n      0x00\n        /* \"RateUp.sol\":3580:3601  address(this).balance */\n      selfbalance\n        /* \"RateUp.sol\":3563:3601  uint256 amount = address(this).balance */\n      swap1\n      pop\n        /* \"RateUp.sol\":3612:3624  bool success */\n      0x00\n        /* \"RateUp.sol\":3630:3637  owner() */\n      tag_154\n        /* \"RateUp.sol\":3630:3635  owner */\n      tag_75\n        /* \"RateUp.sol\":3630:3637  owner() */\n      jump\t// in\n    tag_154:\n        /* \"RateUp.sol\":3630:3642  owner().call */\n      0xffffffffffffffffffffffffffffffffffffffff\n      and\n        /* \"RateUp.sol\":3650:3656  amount */\n      dup3\n        /* \"RateUp.sol\":3630:3661  owner().call{value: amount}(\"\") */\n      mload(0x40)\n      tag_155\n      swap1\n      tag_156\n      jump\t// in\n    tag_155:\n      0x00\n      mload(0x40)\n      dup1\n      dup4\n      sub\n      dup2\n      dup6\n      dup8\n      gas\n      call\n      swap3\n      pop\n      pop\n      pop\n      returndatasize\n      dup1\n      0x00\n      dup2\n      eq\n      tag_159\n      jumpi\n      mload(0x40)\n      swap2\n      pop\n      and(add(returndatasize, 0x3f), not(0x1f))\n      dup3\n      add\n      0x40\n      mstore\n      returndatasize\n      dup3\n      mstore\n      returndatasize\n      0x00\n      0x20\n      dup5\n      add\n      returndatacopy\n      jump(tag_158)\n    tag_159:\n      0x60\n      swap2\n      pop\n    tag_158:\n      pop\n        /* \"RateUp.sol\":3611:3661  (bool success, ) = owner().call{value: amount}(\"\") */\n      pop\n      swap1\n      pop\n        /* \"RateUp.sol\":3679:3686  success */\n      dup1\n        /* \"RateUp.sol\":3671:3697  require(success, \"Failed\") */\n      tag_160\n      jumpi\n      mload(0x40)\n      0x08c379a000000000000000000000000000000000000000000000000000000000\n      dup2\n      mstore\n      0x04\n      add\n      tag_161\n      swap1\n      tag_162\n      jump\t// in\n    tag_161:\n      mload(0x40)\n      dup1\n      swap2\n      sub\n      swap1\n      revert\n    tag_160:\n        /* \"RateUp.sol\":3553:3704  {... */\n      pop\n      pop\n        /* \"RateUp.sol\":3516:3704  function withdraw() public onlyOwner {... */\n      jump\t// out\n        /* \"RateUp.sol\":4064:4127  function unpause() public onlyOwner {... */\n    tag_46:\n        /* \"@openzeppelin/contracts/access/Ownable.sol\":1094:1107  _checkOwner() */\n      tag_164\n        /* \"@openzeppelin/contracts/access/Ownable.sol\":1094:1105  _checkOwner */\n      tag_128\n        /* \"@openzeppelin/contracts/access/Ownable.sol\":1094:1107  _checkOwner() */\n      jump\t// in\n    tag_164:\n        /* \"RateUp.sol\":4110:4120  _unpause() */\n      tag_166\n        /* \"RateUp.sol\":4110:4118  _unpause */\n      tag_167\n        /* \"RateUp.sol\":4110:4120  _unpause() */\n      jump\t// in\n    tag_166:\n        /* \"RateUp.sol\":4064:4127  function unpause() public onlyOwner {... */\n      jump\t// out\n        /* \"RateUp.sol\":3397:3510  function getEndorsementOptions() public view returns (string[] memory) {... */\n    tag_49:\n        /* \"RateUp.sol\":3451:3466  string[] memory */\n      0x60\n        /* \"RateUp.sol\":3485:3503  endorsementOptions */\n      0x04\n        /* \"RateUp.sol\":3478:3503  return endorsementOptions */\n      dup1\n      sload\n      dup1\n      0x20\n      mul\n      0x20\n      add\n      mload(0x40)\n      swap1\n      dup2\n      add\n      0x40\n      mstore\n      dup1\n      swap3\n      swap2\n      swap1\n      dup2\n      dup2\n      mstore\n      0x20\n      add\n      0x00\n      swap1\n    tag_169:\n      dup3\n      dup3\n      lt\n      iszero\n      tag_170\n      jumpi\n      dup4\n      dup3\n      swap1\n      0x00\n      mstore\n      keccak256(0x00, 0x20)\n      add\n      dup1\n      sload\n      tag_172\n      swap1\n      tag_116\n      jump\t// in\n    tag_172:\n      dup1\n      0x1f\n      add\n      0x20\n      dup1\n      swap2\n      div\n      mul\n      0x20\n      add\n      mload(0x40)\n      swap1\n      dup2\n      add\n      0x40\n      mstore\n      dup1\n      swap3\n      swap2\n      swap1\n      dup2\n      dup2\n      mstore\n      0x20\n      add\n      dup3\n      dup1\n      sload\n      tag_173\n      swap1\n      tag_116\n      jump\t// in\n    tag_173:\n      dup1\n      iszero\n      tag_174\n      jumpi\n      dup1\n      0x1f\n      lt\n      tag_175\n      jumpi\n      0x0100\n      dup1\n      dup4\n      sload\n      div\n      mul\n      dup4\n      mstore\n      swap2\n      0x20\n      add\n      swap2\n      jump(tag_174)\n    tag_175:\n      dup3\n      add\n      swap2\n      swap1\n      0x00\n      mstore\n      keccak256(0x00, 0x20)\n      swap1\n    tag_176:\n      dup2\n      sload\n      dup2\n      mstore\n      swap1\n      0x01\n      add\n      swap1\n      0x20\n      add\n      dup1\n      dup4\n      gt\n      tag_176\n      jumpi\n      dup3\n      swap1\n      sub\n      0x1f\n      and\n      dup3\n      add\n      swap2\n    tag_174:\n      pop\n      pop\n      pop\n      pop\n      pop\n      dup2\n      mstore\n      0x20\n      add\n      swap1\n      0x01\n      add\n      swap1\n      jump(tag_169)\n    tag_170:\n      pop\n      pop\n      pop\n      pop\n      swap1\n      pop\n        /* \"RateUp.sol\":3397:3510  function getEndorsementOptions() public view returns (string[] memory) {... */\n      swap1\n      jump\t// out\n        /* \"RateUp.sol\":3710:3890  function transferBalance(address payable _to, uint256 _amount) public onlyOwner {... */\n    tag_56:\n        /* \"@openzeppelin/contracts/access/Ownable.sol\":1094:1107  _checkOwner() */\n      tag_178\n        /* \"@openzeppelin/contracts/access/Ownable.sol\":1094:1105  _checkOwner */\n      tag_128\n        /* \"@openzeppelin/contracts/access/Ownable.sol\":1094:1107  _checkOwner() */\n      jump\t// in\n    tag_178:\n        /* \"RateUp.sol\":3801:3813  bool success */\n      0x00\n        /* \"RateUp.sol\":3819:3822  _to */\n      dup3\n        /* \"RateUp.sol\":3819:3827  _to.call */\n      0xffffffffffffffffffffffffffffffffffffffff\n      and\n        /* \"RateUp.sol\":3835:3842  _amount */\n      dup3\n        /* \"RateUp.sol\":3819:3847  _to.call{value: _amount}(\"\") */\n      mload(0x40)\n      tag_180\n      swap1\n      tag_156\n      jump\t// in\n    tag_180:\n      0x00\n      mload(0x40)\n      dup1\n      dup4\n      sub\n      dup2\n      dup6\n      dup8\n      gas\n      call\n      swap3\n      pop\n      pop\n      pop\n      returndatasize\n      dup1\n      0x00\n      dup2\n      eq\n      tag_183\n      jumpi\n      mload(0x40)\n      swap2\n      pop\n      and(add(returndatasize, 0x3f), not(0x1f))\n      dup3\n      add\n      0x40\n      mstore\n      returndatasize\n      dup3\n      mstore\n      returndatasize\n      0x00\n      0x20\n      dup5\n      add\n      returndatacopy\n      jump(tag_182)\n    tag_183:\n      0x60\n      swap2\n      pop\n    tag_182:\n      pop\n        /* \"RateUp.sol\":3800:3847  (bool success, ) = _to.call{value: _amount}(\"\") */\n      pop\n      swap1\n      pop\n        /* \"RateUp.sol\":3865:3872  success */\n      dup1\n        /* \"RateUp.sol\":3857:3883  require(success, \"Failed\") */\n      tag_184\n      jumpi\n      mload(0x40)\n      0x08c379a000000000000000000000000000000000000000000000000000000000\n      dup2\n      mstore\n      0x04\n      add\n      tag_185\n      swap1\n      tag_162\n      jump\t// in\n    tag_185:\n      mload(0x40)\n      dup1\n      swap2\n      sub\n      swap1\n      revert\n    tag_184:\n        /* \"RateUp.sol\":3790:3890  {... */\n      pop\n        /* \"RateUp.sol\":3710:3890  function transferBalance(address payable _to, uint256 _amount) public onlyOwner {... */\n      pop\n      pop\n      jump\t// out\n        /* \"@openzeppelin/contracts/utils/Pausable.sol\":1726:1810  function paused() public view virtual returns (bool) {... */\n    tag_59:\n        /* \"@openzeppelin/contracts/utils/Pausable.sol\":1773:1777  bool */\n      0x00\n        /* \"@openzeppelin/contracts/utils/Pausable.sol\":1796:1803  _paused */\n      0x00\n      0x14\n      swap1\n      sload\n      swap1\n      0x0100\n      exp\n      swap1\n      div\n      0xff\n      and\n        /* \"@openzeppelin/contracts/utils/Pausable.sol\":1789:1803  return _paused */\n      swap1\n      pop\n        /* \"@openzeppelin/contracts/utils/Pausable.sol\":1726:1810  function paused() public view virtual returns (bool) {... */\n      swap1\n      jump\t// out\n        /* \"RateUp.sol\":2520:2942  function addEndorsementOption(string memory option) public onlyOwner {... */\n    tag_66:\n        /* \"@openzeppelin/contracts/access/Ownable.sol\":1094:1107  _checkOwner() */\n      tag_188\n        /* \"@openzeppelin/contracts/access/Ownable.sol\":1094:1105  _checkOwner */\n      tag_128\n        /* \"@openzeppelin/contracts/access/Ownable.sol\":1094:1107  _checkOwner() */\n      jump\t// in\n    tag_188:\n        /* \"RateUp.sol\":2630:2631  0 */\n      0x00\n        /* \"RateUp.sol\":2613:2619  option */\n      dup2\n        /* \"RateUp.sol\":2607:2627  bytes(option).length */\n      mload\n        /* \"RateUp.sol\":2607:2631  bytes(option).length > 0 */\n      gt\n        /* \"RateUp.sol\":2599:2658  require(bytes(option).length > 0, \"Option cannot be empty\") */\n      tag_190\n      jumpi\n      mload(0x40)\n      0x08c379a000000000000000000000000000000000000000000000000000000000\n      dup2\n      mstore\n      0x04\n      add\n      tag_191\n      swap1\n      tag_132\n      jump\t// in\n    tag_191:\n      mload(0x40)\n      dup1\n      swap2\n      sub\n      swap1\n      revert\n    tag_190:\n        /* \"RateUp.sol\":2673:2682  uint256 i */\n      0x00\n        /* \"RateUp.sol\":2685:2686  0 */\n      0x00\n        /* \"RateUp.sol\":2673:2686  uint256 i = 0 */\n      swap1\n      pop\n        /* \"RateUp.sol\":2668:2850  for (uint256 i = 0; i < endorsementOptions.length; i++) {... */\n    tag_192:\n        /* \"RateUp.sol\":2692:2710  endorsementOptions */\n      0x04\n        /* \"RateUp.sol\":2692:2717  endorsementOptions.length */\n      dup1\n      sload\n      swap1\n      pop\n        /* \"RateUp.sol\":2688:2689  i */\n      dup2\n        /* \"RateUp.sol\":2688:2717  i < endorsementOptions.length */\n      lt\n        /* \"RateUp.sol\":2668:2850  for (uint256 i = 0; i < endorsementOptions.length; i++) {... */\n      iszero\n      tag_193\n      jumpi\n        /* \"RateUp.sol\":2805:2811  option */\n      dup2\n        /* \"RateUp.sol\":2789:2813  keccak256(bytes(option)) */\n      dup1\n      mload\n      swap1\n      0x20\n      add\n      keccak256\n        /* \"RateUp.sol\":2762:2780  endorsementOptions */\n      0x04\n        /* \"RateUp.sol\":2781:2782  i */\n      dup3\n        /* \"RateUp.sol\":2762:2783  endorsementOptions[i] */\n      dup2\n      sload\n      dup2\n      lt\n      tag_195\n      jumpi\n      tag_196\n      tag_138\n      jump\t// in\n    tag_196:\n    tag_195:\n      swap1\n      0x00\n      mstore\n      keccak256(0x00, 0x20)\n      add\n        /* \"RateUp.sol\":2746:2785  keccak256(bytes(endorsementOptions[i])) */\n      mload(0x40)\n      tag_198\n      swap2\n      swap1\n      tag_141\n      jump\t// in\n    tag_198:\n      mload(0x40)\n      dup1\n      swap2\n      sub\n      swap1\n      keccak256\n        /* \"RateUp.sol\":2746:2813  keccak256(bytes(endorsementOptions[i])) != keccak256(bytes(option)) */\n      sub\n        /* \"RateUp.sol\":2738:2839  require(keccak256(bytes(endorsementOptions[i])) != keccak256(bytes(option)), \"Option already exists\") */\n      tag_199\n      jumpi\n      mload(0x40)\n      0x08c379a000000000000000000000000000000000000000000000000000000000\n      dup2\n      mstore\n      0x04\n      add\n      tag_200\n      swap1\n      tag_144\n      jump\t// in\n    tag_200:\n      mload(0x40)\n      dup1\n      swap2\n      sub\n      swap1\n      revert\n    tag_199:\n        /* \"RateUp.sol\":2719:2722  i++ */\n      dup1\n      dup1\n      0x01\n      add\n      swap2\n      pop\n      pop\n        /* \"RateUp.sol\":2668:2850  for (uint256 i = 0; i < endorsementOptions.length; i++) {... */\n      jump(tag_192)\n    tag_193:\n      pop\n        /* \"RateUp.sol\":2859:2877  endorsementOptions */\n      0x04\n        /* \"RateUp.sol\":2883:2889  option */\n      dup2\n        /* \"RateUp.sol\":2859:2890  endorsementOptions.push(option) */\n      swap1\n      dup1\n      0x01\n      dup2\n      sload\n      add\n      dup1\n      dup3\n      sstore\n      dup1\n      swap2\n      pop\n      pop\n      0x01\n      swap1\n      sub\n      swap1\n      0x00\n      mstore\n      keccak256(0x00, 0x20)\n      add\n      0x00\n      swap1\n      swap2\n      swap1\n      swap2\n      swap1\n      swap2\n      pop\n      swap1\n      dup2\n      tag_202\n      swap2\n      swap1\n      tag_149\n      jump\t// in\n    tag_202:\n      pop\n        /* \"RateUp.sol\":2905:2935  EndorsementOptionAdded(option) */\n      0x8329f95e4544f4e52f94f1889c321525f3ab368f971c4ad352ba31b4ea8fed56\n        /* \"RateUp.sol\":2928:2934  option */\n      dup2\n        /* \"RateUp.sol\":2905:2935  EndorsementOptionAdded(option) */\n      mload(0x40)\n      tag_203\n      swap2\n      swap1\n      tag_95\n      jump\t// in\n    tag_203:\n      mload(0x40)\n      dup1\n      swap2\n      sub\n      swap1\n      log1\n        /* \"RateUp.sol\":2520:2942  function addEndorsementOption(string memory option) public onlyOwner {... */\n      pop\n      jump\t// out\n        /* \"@openzeppelin/contracts/access/Ownable.sol\":1824:1925  function renounceOwnership() public virtual onlyOwner {... */\n    tag_69:\n        /* \"@openzeppelin/contracts/access/Ownable.sol\":1094:1107  _checkOwner() */\n      tag_205\n        /* \"@openzeppelin/contracts/access/Ownable.sol\":1094:1105  _checkOwner */\n      tag_128\n        /* \"@openzeppelin/contracts/access/Ownable.sol\":1094:1107  _checkOwner() */\n      jump\t// in\n    tag_205:\n        /* \"@openzeppelin/contracts/access/Ownable.sol\":1888:1918  _transferOwnership(address(0)) */\n      tag_207\n        /* \"@openzeppelin/contracts/access/Ownable.sol\":1915:1916  0 */\n      0x00\n        /* \"@openzeppelin/contracts/access/Ownable.sol\":1888:1906  _transferOwnership */\n      tag_208\n        /* \"@openzeppelin/contracts/access/Ownable.sol\":1888:1918  _transferOwnership(address(0)) */\n      jump\t// in\n    tag_207:\n        /* \"@openzeppelin/contracts/access/Ownable.sol\":1824:1925  function renounceOwnership() public virtual onlyOwner {... */\n      jump\t// out\n        /* \"RateUp.sol\":3999:4058  function pause() public onlyOwner {... */\n    tag_72:\n        /* \"@openzeppelin/contracts/access/Ownable.sol\":1094:1107  _checkOwner() */\n      tag_210\n        /* \"@openzeppelin/contracts/access/Ownable.sol\":1094:1105  _checkOwner */\n      tag_128\n        /* \"@openzeppelin/contracts/access/Ownable.sol\":1094:1107  _checkOwner() */\n      jump\t// in\n    tag_210:\n        /* \"RateUp.sol\":4043:4051  _pause() */\n      tag_212\n        /* \"RateUp.sol\":4043:4049  _pause */\n      tag_213\n        /* \"RateUp.sol\":4043:4051  _pause() */\n      jump\t// in\n    tag_212:\n        /* \"RateUp.sol\":3999:4058  function pause() public onlyOwner {... */\n      jump\t// out\n        /* \"@openzeppelin/contracts/access/Ownable.sol\":1201:1286  function owner() public view virtual returns (address) {... */\n    tag_75:\n        /* \"@openzeppelin/contracts/access/Ownable.sol\":1247:1254  address */\n      0x00\n        /* \"@openzeppelin/contracts/access/Ownable.sol\":1273:1279  _owner */\n      0x00\n      0x00\n      swap1\n      sload\n      swap1\n      0x0100\n      exp\n      swap1\n      div\n      0xffffffffffffffffffffffffffffffffffffffff\n      and\n        /* \"@openzeppelin/contracts/access/Ownable.sol\":1266:1279  return _owner */\n      swap1\n      pop\n        /* \"@openzeppelin/contracts/access/Ownable.sol\":1201:1286  function owner() public view virtual returns (address) {... */\n      swap1\n      jump\t// out\n        /* \"RateUp.sol\":1054:1162  function updateFee(uint256 _fee) public onlyOwner {... */\n    tag_82:\n        /* \"@openzeppelin/contracts/access/Ownable.sol\":1094:1107  _checkOwner() */\n      tag_216\n        /* \"@openzeppelin/contracts/access/Ownable.sol\":1094:1105  _checkOwner */\n      tag_128\n        /* \"@openzeppelin/contracts/access/Ownable.sol\":1094:1107  _checkOwner() */\n      jump\t// in\n    tag_216:\n        /* \"RateUp.sol\":1120:1124  _fee */\n      dup1\n        /* \"RateUp.sol\":1114:1117  fee */\n      0x02\n        /* \"RateUp.sol\":1114:1124  fee = _fee */\n      dup2\n      swap1\n      sstore\n      pop\n        /* \"RateUp.sol\":1139:1155  FeeUpdated(_fee) */\n      0x8c4d35e54a3f2ef1134138fd8ea3daee6a3c89e10d2665996babdf70261e2c76\n        /* \"RateUp.sol\":1150:1154  _fee */\n      dup2\n        /* \"RateUp.sol\":1139:1155  FeeUpdated(_fee) */\n      mload(0x40)\n      tag_218\n      swap2\n      swap1\n      tag_28\n      jump\t// in\n    tag_218:\n      mload(0x40)\n      dup1\n      swap2\n      sub\n      swap1\n      log1\n        /* \"RateUp.sol\":1054:1162  function updateFee(uint256 _fee) public onlyOwner {... */\n      pop\n      jump\t// out\n        /* \"RateUp.sol\":1168:1302  function getEndorsements(address target) public view returns (EndorsementStruct[] memory) {... */\n    tag_87:\n        /* \"RateUp.sol\":1230:1256  EndorsementStruct[] memory */\n      0x60\n        /* \"RateUp.sol\":1275:1287  endorsements */\n      0x03\n        /* \"RateUp.sol\":1275:1295  endorsements[target] */\n      0x00\n        /* \"RateUp.sol\":1288:1294  target */\n      dup4\n        /* \"RateUp.sol\":1275:1295  endorsements[target] */\n      0xffffffffffffffffffffffffffffffffffffffff\n      and\n      0xffffffffffffffffffffffffffffffffffffffff\n      and\n      dup2\n      mstore\n      0x20\n      add\n      swap1\n      dup2\n      mstore\n      0x20\n      add\n      0x00\n      keccak256\n        /* \"RateUp.sol\":1268:1295  return endorsements[target] */\n      dup1\n      sload\n      dup1\n      0x20\n      mul\n      0x20\n      add\n      mload(0x40)\n      swap1\n      dup2\n      add\n      0x40\n      mstore\n      dup1\n      swap3\n      swap2\n      swap1\n      dup2\n      dup2\n      mstore\n      0x20\n      add\n      0x00\n      swap1\n    tag_220:\n      dup3\n      dup3\n      lt\n      iszero\n      tag_221\n      jumpi\n      dup4\n      dup3\n      swap1\n      0x00\n      mstore\n      keccak256(0x00, 0x20)\n      swap1\n      0x05\n      mul\n      add\n      mload(0x40)\n      dup1\n      0xa0\n      add\n      0x40\n      mstore\n      swap1\n      dup2\n      0x00\n      dup3\n      add\n      0x00\n      swap1\n      sload\n      swap1\n      0x0100\n      exp\n      swap1\n      div\n      0xffffffffffffffffffffffffffffffffffffffff\n      and\n      0xffffffffffffffffffffffffffffffffffffffff\n      and\n      0xffffffffffffffffffffffffffffffffffffffff\n      and\n      dup2\n      mstore\n      0x20\n      add\n      0x01\n      dup3\n      add\n      dup1\n      sload\n      tag_223\n      swap1\n      tag_116\n      jump\t// in\n    tag_223:\n      dup1\n      0x1f\n      add\n      0x20\n      dup1\n      swap2\n      div\n      mul\n      0x20\n      add\n      mload(0x40)\n      swap1\n      dup2\n      add\n      0x40\n      mstore\n      dup1\n      swap3\n      swap2\n      swap1\n      dup2\n      dup2\n      mstore\n      0x20\n      add\n      dup3\n      dup1\n      sload\n      tag_224\n      swap1\n      tag_116\n      jump\t// in\n    tag_224:\n      dup1\n      iszero\n      tag_225\n      jumpi\n      dup1\n      0x1f\n      lt\n      tag_226\n      jumpi\n      0x0100\n      dup1\n      dup4\n      sload\n      div\n      mul\n      dup4\n      mstore\n      swap2\n      0x20\n      add\n      swap2\n      jump(tag_225)\n    tag_226:\n      dup3\n      add\n      swap2\n      swap1\n      0x00\n      mstore\n      keccak256(0x00, 0x20)\n      swap1\n    tag_227:\n      dup2\n      sload\n      dup2\n      mstore\n      swap1\n      0x01\n      add\n      swap1\n      0x20\n      add\n      dup1\n      dup4\n      gt\n      tag_227\n      jumpi\n      dup3\n      swap1\n      sub\n      0x1f\n      and\n      dup3\n      add\n      swap2\n    tag_225:\n      pop\n      pop\n      pop\n      pop\n      pop\n      dup2\n      mstore\n      0x20\n      add\n      0x02\n      dup3\n      add\n      dup1\n      sload\n      tag_228\n      swap1\n      tag_116\n      jump\t// in\n    tag_228:\n      dup1\n      0x1f\n      add\n      0x20\n      dup1\n      swap2\n      div\n      mul\n      0x20\n      add\n      mload(0x40)\n      swap1\n      dup2\n      add\n      0x40\n      mstore\n      dup1\n      swap3\n      swap2\n      swap1\n      dup2\n      dup2\n      mstore\n      0x20\n      add\n      dup3\n      dup1\n      sload\n      tag_229\n      swap1\n      tag_116\n      jump\t// in\n    tag_229:\n      dup1\n      iszero\n      tag_230\n      jumpi\n      dup1\n      0x1f\n      lt\n      tag_231\n      jumpi\n      0x0100\n      dup1\n      dup4\n      sload\n      div\n      mul\n      dup4\n      mstore\n      swap2\n      0x20\n      add\n      swap2\n      jump(tag_230)\n    tag_231:\n      dup3\n      add\n      swap2\n      swap1\n      0x00\n      mstore\n      keccak256(0x00, 0x20)\n      swap1\n    tag_232:\n      dup2\n      sload\n      dup2\n      mstore\n      swap1\n      0x01\n      add\n      swap1\n      0x20\n      add\n      dup1\n      dup4\n      gt\n      tag_232\n      jumpi\n      dup3\n      swap1\n      sub\n      0x1f\n      and\n      dup3\n      add\n      swap2\n    tag_230:\n      pop\n      pop\n      pop\n      pop\n      pop\n      dup2\n      mstore\n      0x20\n      add\n      0x03\n      dup3\n      add\n      0x00\n      swap1\n      sload\n      swap1\n      0x0100\n      exp\n      swap1\n      div\n      0xff\n      and\n      0xff\n      and\n      0xff\n      and\n      dup2\n      mstore\n      0x20\n      add\n      0x04\n      dup3\n      add\n      sload\n      dup2\n      mstore\n      pop\n      pop\n      dup2\n      mstore\n      0x20\n      add\n      swap1\n      0x01\n      add\n      swap1\n      jump(tag_220)\n    tag_221:\n      pop\n      pop\n      pop\n      pop\n      swap1\n      pop\n        /* \"RateUp.sol\":1168:1302  function getEndorsements(address target) public view returns (EndorsementStruct[] memory) {... */\n      swap2\n      swap1\n      pop\n      jump\t// out\n        /* \"RateUp.sol\":969:1003  string[] public endorsementOptions */\n    tag_93:\n      0x04\n      dup2\n      dup2\n      sload\n      dup2\n      lt\n      tag_233\n      jumpi\n      0x00\n      dup1\n      revert\n    tag_233:\n      swap1\n      0x00\n      mstore\n      keccak256(0x00, 0x20)\n      add\n      0x00\n      swap2\n      pop\n      swap1\n      pop\n      dup1\n      sload\n      tag_235\n      swap1\n      tag_116\n      jump\t// in\n    tag_235:\n      dup1\n      0x1f\n      add\n      0x20\n      dup1\n      swap2\n      div\n      mul\n      0x20\n      add\n      mload(0x40)\n      swap1\n      dup2\n      add\n      0x40\n      mstore\n      dup1\n      swap3\n      swap2\n      swap1\n      dup2\n      dup2\n      mstore\n      0x20\n      add\n      dup3\n      dup1\n      sload\n      tag_236\n      swap1\n      tag_116\n      jump\t// in\n    tag_236:\n      dup1\n      iszero\n      tag_237\n      jumpi\n      dup1\n      0x1f\n      lt\n      tag_238\n      jumpi\n      0x0100\n      dup1\n      dup4\n      sload\n      div\n      mul\n      dup4\n      mstore\n      swap2\n      0x20\n      add\n      swap2\n      jump(tag_237)\n    tag_238:\n      dup3\n      add\n      swap2\n      swap1\n      0x00\n      mstore\n      keccak256(0x00, 0x20)\n      swap1\n    tag_239:\n      dup2\n      sload\n      dup2\n      mstore\n      swap1\n      0x01\n      add\n      swap1\n      0x20\n      add\n      dup1\n      dup4\n      gt\n      tag_239\n      jumpi\n      dup3\n      swap1\n      sub\n      0x1f\n      and\n      dup3\n      add\n      swap2\n    tag_237:\n      pop\n      pop\n      pop\n      pop\n      pop\n      dup2\n      jump\t// out\n        /* \"RateUp.sol\":713:731  uint256 public fee */\n    tag_98:\n      sload(0x02)\n      dup2\n      jump\t// out\n        /* \"@openzeppelin/contracts/access/Ownable.sol\":2074:2272  function transferOwnership(address newOwner) public virtual onlyOwner {... */\n    tag_103:\n        /* \"@openzeppelin/contracts/access/Ownable.sol\":1094:1107  _checkOwner() */\n      tag_241\n        /* \"@openzeppelin/contracts/access/Ownable.sol\":1094:1105  _checkOwner */\n      tag_128\n        /* \"@openzeppelin/contracts/access/Ownable.sol\":1094:1107  _checkOwner() */\n      jump\t// in\n    tag_241:\n        /* \"@openzeppelin/contracts/access/Ownable.sol\":2182:2183  0 */\n      0x00\n        /* \"@openzeppelin/contracts/access/Ownable.sol\":2162:2184  newOwner != address(0) */\n      0xffffffffffffffffffffffffffffffffffffffff\n      and\n        /* \"@openzeppelin/contracts/access/Ownable.sol\":2162:2170  newOwner */\n      dup2\n        /* \"@openzeppelin/contracts/access/Ownable.sol\":2162:2184  newOwner != address(0) */\n      0xffffffffffffffffffffffffffffffffffffffff\n      and\n      sub\n        /* \"@openzeppelin/contracts/access/Ownable.sol\":2154:2227  require(newOwner != address(0), \"Ownable: new owner is the zero address\") */\n      tag_243\n      jumpi\n      mload(0x40)\n      0x08c379a000000000000000000000000000000000000000000000000000000000\n      dup2\n      mstore\n      0x04\n      add\n      tag_244\n      swap1\n      tag_245\n      jump\t// in\n    tag_244:\n      mload(0x40)\n      dup1\n      swap2\n      sub\n      swap1\n      revert\n    tag_243:\n        /* \"@openzeppelin/contracts/access/Ownable.sol\":2237:2265  _transferOwnership(newOwner) */\n      tag_246\n        /* \"@openzeppelin/contracts/access/Ownable.sol\":2256:2264  newOwner */\n      dup2\n        /* \"@openzeppelin/contracts/access/Ownable.sol\":2237:2255  _transferOwnership */\n      tag_208\n        /* \"@openzeppelin/contracts/access/Ownable.sol\":2237:2265  _transferOwnership(newOwner) */\n      jump\t// in\n    tag_246:\n        /* \"@openzeppelin/contracts/access/Ownable.sol\":2074:2272  function transferOwnership(address newOwner) public virtual onlyOwner {... */\n      pop\n      jump\t// out\n        /* \"RateUp.sol\":1308:2514  function giveEndorsement(... */\n    tag_107:\n        /* \"RateUp.sol\":1496:1497  0 */\n      0x00\n        /* \"RateUp.sol\":1478:1498  target != address(0) */\n      0xffffffffffffffffffffffffffffffffffffffff\n      and\n        /* \"RateUp.sol\":1478:1484  target */\n      dup5\n        /* \"RateUp.sol\":1478:1498  target != address(0) */\n      0xffffffffffffffffffffffffffffffffffffffff\n      and\n      sub\n        /* \"RateUp.sol\":1470:1525  require(target != address(0), \"Invalid target address\") */\n      tag_248\n      jumpi\n      mload(0x40)\n      0x08c379a000000000000000000000000000000000000000000000000000000000\n      dup2\n      mstore\n      0x04\n      add\n      tag_249\n      swap1\n      tag_250\n      jump\t// in\n    tag_249:\n      mload(0x40)\n      dup1\n      swap2\n      sub\n      swap1\n      revert\n    tag_248:\n        /* \"RateUp.sol\":1553:1565  _msgSender() */\n      tag_251\n        /* \"RateUp.sol\":1553:1563  _msgSender */\n      tag_252\n        /* \"RateUp.sol\":1553:1565  _msgSender() */\n      jump\t// in\n    tag_251:\n        /* \"RateUp.sol\":1543:1565  target != _msgSender() */\n      0xffffffffffffffffffffffffffffffffffffffff\n      and\n        /* \"RateUp.sol\":1543:1549  target */\n      dup5\n        /* \"RateUp.sol\":1543:1565  target != _msgSender() */\n      0xffffffffffffffffffffffffffffffffffffffff\n      and\n      sub\n        /* \"RateUp.sol\":1535:1593  require(target != _msgSender(), \"Cannot endorse yourself\") */\n      tag_253\n      jumpi\n      mload(0x40)\n      0x08c379a000000000000000000000000000000000000000000000000000000000\n      dup2\n      mstore\n      0x04\n      add\n      tag_254\n      swap1\n      tag_255\n      jump\t// in\n    tag_254:\n      mload(0x40)\n      dup1\n      swap2\n      sub\n      swap1\n      revert\n    tag_253:\n        /* \"RateUp.sol\":1619:1620  0 */\n      0x00\n        /* \"RateUp.sol\":1611:1616  score */\n      dup2\n        /* \"RateUp.sol\":1611:1620  score > 0 */\n      0xff\n      and\n      gt\n        /* \"RateUp.sol\":1611:1634  score > 0 && score <= 5 */\n      dup1\n      iszero\n      tag_256\n      jumpi\n      pop\n        /* \"RateUp.sol\":1633:1634  5 */\n      0x05\n        /* \"RateUp.sol\":1624:1629  score */\n      dup2\n        /* \"RateUp.sol\":1624:1634  score <= 5 */\n      0xff\n      and\n      gt\n      iszero\n        /* \"RateUp.sol\":1611:1634  score > 0 && score <= 5 */\n    tag_256:\n        /* \"RateUp.sol\":1603:1668  require(score > 0 && score <= 5, \"Score must be between 1 and 5\") */\n      tag_257\n      jumpi\n      mload(0x40)\n      0x08c379a000000000000000000000000000000000000000000000000000000000\n      dup2\n      mstore\n      0x04\n      add\n      tag_258\n      swap1\n      tag_259\n      jump\t// in\n    tag_258:\n      mload(0x40)\n      dup1\n      swap2\n      sub\n      swap1\n      revert\n    tag_257:\n        /* \"RateUp.sol\":1679:1695  bool optionValid */\n      0x00\n        /* \"RateUp.sol\":1698:1703  false */\n      0x00\n        /* \"RateUp.sol\":1679:1703  bool optionValid = false */\n      swap1\n      pop\n        /* \"RateUp.sol\":1718:1727  uint256 i */\n      0x00\n        /* \"RateUp.sol\":1730:1731  0 */\n      0x00\n        /* \"RateUp.sol\":1718:1731  uint256 i = 0 */\n      swap1\n      pop\n        /* \"RateUp.sol\":1713:1940  for (uint256 i = 0; i < endorsementOptions.length; i++) {... */\n    tag_260:\n        /* \"RateUp.sol\":1737:1755  endorsementOptions */\n      0x04\n        /* \"RateUp.sol\":1737:1762  endorsementOptions.length */\n      dup1\n      sload\n      swap1\n      pop\n        /* \"RateUp.sol\":1733:1734  i */\n      dup2\n        /* \"RateUp.sol\":1733:1762  i < endorsementOptions.length */\n      lt\n        /* \"RateUp.sol\":1713:1940  for (uint256 i = 0; i < endorsementOptions.length; i++) {... */\n      iszero\n      tag_261\n      jumpi\n        /* \"RateUp.sol\":1846:1852  option */\n      dup5\n        /* \"RateUp.sol\":1830:1854  keccak256(bytes(option)) */\n      dup1\n      mload\n      swap1\n      0x20\n      add\n      keccak256\n        /* \"RateUp.sol\":1803:1821  endorsementOptions */\n      0x04\n        /* \"RateUp.sol\":1822:1823  i */\n      dup3\n        /* \"RateUp.sol\":1803:1824  endorsementOptions[i] */\n      dup2\n      sload\n      dup2\n      lt\n      tag_263\n      jumpi\n      tag_264\n      tag_138\n      jump\t// in\n    tag_264:\n    tag_263:\n      swap1\n      0x00\n      mstore\n      keccak256(0x00, 0x20)\n      add\n        /* \"RateUp.sol\":1787:1826  keccak256(bytes(endorsementOptions[i])) */\n      mload(0x40)\n      tag_266\n      swap2\n      swap1\n      tag_141\n      jump\t// in\n    tag_266:\n      mload(0x40)\n      dup1\n      swap2\n      sub\n      swap1\n      keccak256\n        /* \"RateUp.sol\":1787:1854  keccak256(bytes(endorsementOptions[i])) == keccak256(bytes(option)) */\n      sub\n        /* \"RateUp.sol\":1783:1930  if (keccak256(bytes(endorsementOptions[i])) == keccak256(bytes(option))) {... */\n      tag_267\n      jumpi\n        /* \"RateUp.sol\":1888:1892  true */\n      0x01\n        /* \"RateUp.sol\":1874:1892  optionValid = true */\n      swap2\n      pop\n        /* \"RateUp.sol\":1910:1915  break */\n      jump(tag_261)\n        /* \"RateUp.sol\":1783:1930  if (keccak256(bytes(endorsementOptions[i])) == keccak256(bytes(option))) {... */\n    tag_267:\n        /* \"RateUp.sol\":1764:1767  i++ */\n      dup1\n      dup1\n      0x01\n      add\n      swap2\n      pop\n      pop\n        /* \"RateUp.sol\":1713:1940  for (uint256 i = 0; i < endorsementOptions.length; i++) {... */\n      jump(tag_260)\n    tag_261:\n      pop\n        /* \"RateUp.sol\":1958:1969  optionValid */\n      dup1\n        /* \"RateUp.sol\":1950:2000  require(optionValid, \"Invalid endorsement option\") */\n      tag_268\n      jumpi\n      mload(0x40)\n      0x08c379a000000000000000000000000000000000000000000000000000000000\n      dup2\n      mstore\n      0x04\n      add\n      tag_269\n      swap1\n      tag_270\n      jump\t// in\n    tag_269:\n      mload(0x40)\n      dup1\n      swap2\n      sub\n      swap1\n      revert\n    tag_268:\n        /* \"RateUp.sol\":2040:2041  0 */\n      0x00\n        /* \"RateUp.sol\":2034:2037  fee */\n      sload(0x02)\n        /* \"RateUp.sol\":2034:2041  fee > 0 */\n      gt\n        /* \"RateUp.sol\":2030:2238  if (fee > 0) {... */\n      iszero\n      tag_271\n      jumpi\n        /* \"RateUp.sol\":2073:2076  fee */\n      sload(0x02)\n        /* \"RateUp.sol\":2061:2070  msg.value */\n      callvalue\n        /* \"RateUp.sol\":2061:2076  msg.value < fee */\n      lt\n        /* \"RateUp.sol\":2057:2115  if (msg.value < fee) revert InsufficientBalance(msg.value) */\n      iszero\n      tag_272\n      jumpi\n        /* \"RateUp.sol\":2105:2114  msg.value */\n      callvalue\n        /* \"RateUp.sol\":2085:2115  InsufficientBalance(msg.value) */\n      mload(0x40)\n      0x9266535100000000000000000000000000000000000000000000000000000000\n      dup2\n      mstore\n      0x04\n      add\n      tag_273\n      swap2\n      swap1\n      tag_28\n      jump\t// in\n    tag_273:\n      mload(0x40)\n      dup1\n      swap2\n      sub\n      swap1\n      revert\n        /* \"RateUp.sol\":2057:2115  if (msg.value < fee) revert InsufficientBalance(msg.value) */\n    tag_272:\n        /* \"RateUp.sol\":2130:2142  bool success */\n      0x00\n        /* \"RateUp.sol\":2148:2155  owner() */\n      tag_274\n        /* \"RateUp.sol\":2148:2153  owner */\n      tag_75\n        /* \"RateUp.sol\":2148:2155  owner() */\n      jump\t// in\n    tag_274:\n        /* \"RateUp.sol\":2148:2160  owner().call */\n      0xffffffffffffffffffffffffffffffffffffffff\n      and\n        /* \"RateUp.sol\":2168:2177  msg.value */\n      callvalue\n        /* \"RateUp.sol\":2148:2182  owner().call{value: msg.value}(\"\") */\n      mload(0x40)\n      tag_275\n      swap1\n      tag_156\n      jump\t// in\n    tag_275:\n      0x00\n      mload(0x40)\n      dup1\n      dup4\n      sub\n      dup2\n      dup6\n      dup8\n      gas\n      call\n      swap3\n      pop\n      pop\n      pop\n      returndatasize\n      dup1\n      0x00\n      dup2\n      eq\n      tag_278\n      jumpi\n      mload(0x40)\n      swap2\n      pop\n      and(add(returndatasize, 0x3f), not(0x1f))\n      dup3\n      add\n      0x40\n      mstore\n      returndatasize\n      dup3\n      mstore\n      returndatasize\n      0x00\n      0x20\n      dup5\n      add\n      returndatacopy\n      jump(tag_277)\n    tag_278:\n      0x60\n      swap2\n      pop\n    tag_277:\n      pop\n        /* \"RateUp.sol\":2129:2182  (bool success, ) = owner().call{value: msg.value}(\"\") */\n      pop\n      swap1\n      pop\n        /* \"RateUp.sol\":2204:2211  success */\n      dup1\n        /* \"RateUp.sol\":2213:2226  failedMessage */\n      0x01\n        /* \"RateUp.sol\":2196:2227  require(success, failedMessage) */\n      swap1\n      tag_279\n      jumpi\n      mload(0x40)\n      0x08c379a000000000000000000000000000000000000000000000000000000000\n      dup2\n      mstore\n      0x04\n      add\n      tag_280\n      swap2\n      swap1\n      tag_281\n      jump\t// in\n    tag_280:\n      mload(0x40)\n      dup1\n      swap2\n      sub\n      swap1\n      revert\n    tag_279:\n      pop\n        /* \"RateUp.sol\":2043:2238  {... */\n      pop\n        /* \"RateUp.sol\":2030:2238  if (fee > 0) {... */\n    tag_271:\n        /* \"RateUp.sol\":2248:2287  EndorsementStruct memory newEndorsement */\n      0x00\n        /* \"RateUp.sol\":2290:2362  EndorsementStruct(_msgSender(), option, message, score, block.timestamp) */\n      mload(0x40)\n      dup1\n      0xa0\n      add\n      0x40\n      mstore\n      dup1\n        /* \"RateUp.sol\":2308:2320  _msgSender() */\n      tag_282\n        /* \"RateUp.sol\":2308:2318  _msgSender */\n      tag_252\n        /* \"RateUp.sol\":2308:2320  _msgSender() */\n      jump\t// in\n    tag_282:\n        /* \"RateUp.sol\":2290:2362  EndorsementStruct(_msgSender(), option, message, score, block.timestamp) */\n      0xffffffffffffffffffffffffffffffffffffffff\n      and\n      dup2\n      mstore\n      0x20\n      add\n        /* \"RateUp.sol\":2322:2328  option */\n      dup7\n        /* \"RateUp.sol\":2290:2362  EndorsementStruct(_msgSender(), option, message, score, block.timestamp) */\n      dup2\n      mstore\n      0x20\n      add\n        /* \"RateUp.sol\":2330:2337  message */\n      dup6\n        /* \"RateUp.sol\":2290:2362  EndorsementStruct(_msgSender(), option, message, score, block.timestamp) */\n      dup2\n      mstore\n      0x20\n      add\n        /* \"RateUp.sol\":2339:2344  score */\n      dup5\n        /* \"RateUp.sol\":2290:2362  EndorsementStruct(_msgSender(), option, message, score, block.timestamp) */\n      0xff\n      and\n      dup2\n      mstore\n      0x20\n      add\n        /* \"RateUp.sol\":2346:2361  block.timestamp */\n      timestamp\n        /* \"RateUp.sol\":2290:2362  EndorsementStruct(_msgSender(), option, message, score, block.timestamp) */\n      dup2\n      mstore\n      pop\n        /* \"RateUp.sol\":2248:2362  EndorsementStruct memory newEndorsement = EndorsementStruct(_msgSender(), option, message, score, block.timestamp) */\n      swap1\n      pop\n        /* \"RateUp.sol\":2373:2385  endorsements */\n      0x03\n        /* \"RateUp.sol\":2373:2393  endorsements[target] */\n      0x00\n        /* \"RateUp.sol\":2386:2392  target */\n      dup8\n        /* \"RateUp.sol\":2373:2393  endorsements[target] */\n      0xffffffffffffffffffffffffffffffffffffffff\n      and\n      0xffffffffffffffffffffffffffffffffffffffff\n      and\n      dup2\n      mstore\n      0x20\n      add\n      swap1\n      dup2\n      mstore\n      0x20\n      add\n      0x00\n      keccak256\n        /* \"RateUp.sol\":2399:2413  newEndorsement */\n      dup2\n        /* \"RateUp.sol\":2373:2414  endorsements[target].push(newEndorsement) */\n      swap1\n      dup1\n      0x01\n      dup2\n      sload\n      add\n      dup1\n      dup3\n      sstore\n      dup1\n      swap2\n      pop\n      pop\n      0x01\n      swap1\n      sub\n      swap1\n      0x00\n      mstore\n      keccak256(0x00, 0x20)\n      swap1\n      0x05\n      mul\n      add\n      0x00\n      swap1\n      swap2\n      swap1\n      swap2\n      swap1\n      swap2\n      pop\n      0x00\n      dup3\n      add\n      mload\n      dup2\n      0x00\n      add\n      exp(0x0100, 0x00)\n      dup2\n      sload\n      dup2\n      0xffffffffffffffffffffffffffffffffffffffff\n      mul\n      not\n      and\n      swap1\n      dup4\n      0xffffffffffffffffffffffffffffffffffffffff\n      and\n      mul\n      or\n      swap1\n      sstore\n      pop\n      0x20\n      dup3\n      add\n      mload\n      dup2\n      0x01\n      add\n      swap1\n      dup2\n      tag_284\n      swap2\n      swap1\n      tag_149\n      jump\t// in\n    tag_284:\n      pop\n      0x40\n      dup3\n      add\n      mload\n      dup2\n      0x02\n      add\n      swap1\n      dup2\n      tag_285\n      swap2\n      swap1\n      tag_149\n      jump\t// in\n    tag_285:\n      pop\n      0x60\n      dup3\n      add\n      mload\n      dup2\n      0x03\n      add\n      exp(0x0100, 0x00)\n      dup2\n      sload\n      dup2\n      0xff\n      mul\n      not\n      and\n      swap1\n      dup4\n      0xff\n      and\n      mul\n      or\n      swap1\n      sstore\n      pop\n      0x80\n      dup3\n      add\n      mload\n      dup2\n      0x04\n      add\n      sstore\n      pop\n      pop\n        /* \"RateUp.sol\":2469:2475  option */\n      dup5\n        /* \"RateUp.sol\":2430:2507  EndorsementGiven(target, _msgSender(), option, message, fee, block.timestamp) */\n      mload(0x40)\n      tag_286\n      swap2\n      swap1\n      tag_287\n      jump\t// in\n    tag_286:\n      mload(0x40)\n      dup1\n      swap2\n      sub\n      swap1\n      keccak256\n        /* \"RateUp.sol\":2455:2467  _msgSender() */\n      tag_288\n        /* \"RateUp.sol\":2455:2465  _msgSender */\n      tag_252\n        /* \"RateUp.sol\":2455:2467  _msgSender() */\n      jump\t// in\n    tag_288:\n        /* \"RateUp.sol\":2430:2507  EndorsementGiven(target, _msgSender(), option, message, fee, block.timestamp) */\n      0xffffffffffffffffffffffffffffffffffffffff\n      and\n        /* \"RateUp.sol\":2447:2453  target */\n      dup8\n        /* \"RateUp.sol\":2430:2507  EndorsementGiven(target, _msgSender(), option, message, fee, block.timestamp) */\n      0xffffffffffffffffffffffffffffffffffffffff\n      and\n      0xcee636f0c13aaa861e26f59625e55d15ab4af806aef7de8ee49c13390256a0e8\n        /* \"RateUp.sol\":2477:2484  message */\n      dup8\n        /* \"RateUp.sol\":2486:2489  fee */\n      sload(0x02)\n        /* \"RateUp.sol\":2491:2506  block.timestamp */\n      timestamp\n        /* \"RateUp.sol\":2430:2507  EndorsementGiven(target, _msgSender(), option, message, fee, block.timestamp) */\n      mload(0x40)\n      tag_289\n      swap4\n      swap3\n      swap2\n      swap1\n      tag_290\n      jump\t// in\n    tag_289:\n      mload(0x40)\n      dup1\n      swap2\n      sub\n      swap1\n      log4\n        /* \"RateUp.sol\":1460:2514  {... */\n      pop\n      pop\n        /* \"RateUp.sol\":1308:2514  function giveEndorsement(... */\n      pop\n      pop\n      pop\n      pop\n      jump\t// out\n        /* \"RateUp.sol\":615:655  string public constant VERSION = \"1.0.0\" */\n    tag_110:\n      mload(0x40)\n      dup1\n      0x40\n      add\n      0x40\n      mstore\n      dup1\n      0x05\n      dup2\n      mstore\n      0x20\n      add\n      0x312e302e30000000000000000000000000000000000000000000000000000000\n      dup2\n      mstore\n      pop\n      dup2\n      jump\t// out\n        /* \"@openzeppelin/contracts/access/Ownable.sol\":1359:1489  function _checkOwner() internal view virtual {... */\n    tag_128:\n        /* \"@openzeppelin/contracts/access/Ownable.sol\":1433:1445  _msgSender() */\n      tag_292\n        /* \"@openzeppelin/contracts/access/Ownable.sol\":1433:1443  _msgSender */\n      tag_252\n        /* \"@openzeppelin/contracts/access/Ownable.sol\":1433:1445  _msgSender() */\n      jump\t// in\n    tag_292:\n        /* \"@openzeppelin/contracts/access/Ownable.sol\":1422:1445  owner() == _msgSender() */\n      0xffffffffffffffffffffffffffffffffffffffff\n      and\n        /* \"@openzeppelin/contracts/access/Ownable.sol\":1422:1429  owner() */\n      tag_293\n        /* \"@openzeppelin/contracts/access/Ownable.sol\":1422:1427  owner */\n      tag_75\n        /* \"@openzeppelin/contracts/access/Ownable.sol\":1422:1429  owner() */\n      jump\t// in\n    tag_293:\n        /* \"@openzeppelin/contracts/access/Ownable.sol\":1422:1445  owner() == _msgSender() */\n      0xffffffffffffffffffffffffffffffffffffffff\n      and\n      eq\n        /* \"@openzeppelin/contracts/access/Ownable.sol\":1414:1482  require(owner() == _msgSender(), \"Ownable: caller is not the owner\") */\n      tag_294\n      jumpi\n      mload(0x40)\n      0x08c379a000000000000000000000000000000000000000000000000000000000\n      dup2\n      mstore\n      0x04\n      add\n      tag_295\n      swap1\n      tag_296\n      jump\t// in\n    tag_295:\n      mload(0x40)\n      dup1\n      swap2\n      sub\n      swap1\n      revert\n    tag_294:\n        /* \"@openzeppelin/contracts/access/Ownable.sol\":1359:1489  function _checkOwner() internal view virtual {... */\n      jump\t// out\n        /* \"@openzeppelin/contracts/utils/Pausable.sol\":2586:2703  function _unpause() internal virtual whenPaused {... */\n    tag_167:\n        /* \"@openzeppelin/contracts/utils/Pausable.sol\":1597:1613  _requirePaused() */\n      tag_298\n        /* \"@openzeppelin/contracts/utils/Pausable.sol\":1597:1611  _requirePaused */\n      tag_299\n        /* \"@openzeppelin/contracts/utils/Pausable.sol\":1597:1613  _requirePaused() */\n      jump\t// in\n    tag_298:\n        /* \"@openzeppelin/contracts/utils/Pausable.sol\":2654:2659  false */\n      0x00\n        /* \"@openzeppelin/contracts/utils/Pausable.sol\":2644:2651  _paused */\n      0x00\n      0x14\n        /* \"@openzeppelin/contracts/utils/Pausable.sol\":2644:2659  _paused = false */\n      0x0100\n      exp\n      dup2\n      sload\n      dup2\n      0xff\n      mul\n      not\n      and\n      swap1\n      dup4\n      iszero\n      iszero\n      mul\n      or\n      swap1\n      sstore\n      pop\n        /* \"@openzeppelin/contracts/utils/Pausable.sol\":2674:2696  Unpaused(_msgSender()) */\n      0x5db9ee0a495bf2e6ff9c91a7834c1ba4fdd244a5e8aa4e537bd38aeae4b073aa\n        /* \"@openzeppelin/contracts/utils/Pausable.sol\":2683:2695  _msgSender() */\n      tag_301\n        /* \"@openzeppelin/contracts/utils/Pausable.sol\":2683:2693  _msgSender */\n      tag_252\n        /* \"@openzeppelin/contracts/utils/Pausable.sol\":2683:2695  _msgSender() */\n      jump\t// in\n    tag_301:\n        /* \"@openzeppelin/contracts/utils/Pausable.sol\":2674:2696  Unpaused(_msgSender()) */\n      mload(0x40)\n      tag_302\n      swap2\n      swap1\n      tag_77\n      jump\t// in\n    tag_302:\n      mload(0x40)\n      dup1\n      swap2\n      sub\n      swap1\n      log1\n        /* \"@openzeppelin/contracts/utils/Pausable.sol\":2586:2703  function _unpause() internal virtual whenPaused {... */\n      jump\t// out\n        /* \"@openzeppelin/contracts/access/Ownable.sol\":2426:2613  function _transferOwnership(address newOwner) internal virtual {... */\n    tag_208:\n        /* \"@openzeppelin/contracts/access/Ownable.sol\":2499:2515  address oldOwner */\n      0x00\n        /* \"@openzeppelin/contracts/access/Ownable.sol\":2518:2524  _owner */\n      0x00\n      0x00\n      swap1\n      sload\n      swap1\n      0x0100\n      exp\n      swap1\n      div\n      0xffffffffffffffffffffffffffffffffffffffff\n      and\n        /* \"@openzeppelin/contracts/access/Ownable.sol\":2499:2524  address oldOwner = _owner */\n      swap1\n      pop\n        /* \"@openzeppelin/contracts/access/Ownable.sol\":2543:2551  newOwner */\n      dup2\n        /* \"@openzeppelin/contracts/access/Ownable.sol\":2534:2540  _owner */\n      0x00\n      0x00\n        /* \"@openzeppelin/contracts/access/Ownable.sol\":2534:2551  _owner = newOwner */\n      0x0100\n      exp\n      dup2\n      sload\n      dup2\n      0xffffffffffffffffffffffffffffffffffffffff\n      mul\n      not\n      and\n      swap1\n      dup4\n      0xffffffffffffffffffffffffffffffffffffffff\n      and\n      mul\n      or\n      swap1\n      sstore\n      pop\n        /* \"@openzeppelin/contracts/access/Ownable.sol\":2597:2605  newOwner */\n      dup2\n        /* \"@openzeppelin/contracts/access/Ownable.sol\":2566:2606  OwnershipTransferred(oldOwner, newOwner) */\n      0xffffffffffffffffffffffffffffffffffffffff\n      and\n        /* \"@openzeppelin/contracts/access/Ownable.sol\":2587:2595  oldOwner */\n      dup2\n        /* \"@openzeppelin/contracts/access/Ownable.sol\":2566:2606  OwnershipTransferred(oldOwner, newOwner) */\n      0xffffffffffffffffffffffffffffffffffffffff\n      and\n      0x8be0079c531659141344cd1fd0a4f28419497f9722a3daafe3b4186f6b6457e0\n      mload(0x40)\n      mload(0x40)\n      dup1\n      swap2\n      sub\n      swap1\n      log3\n        /* \"@openzeppelin/contracts/access/Ownable.sol\":2489:2613  {... */\n      pop\n        /* \"@openzeppelin/contracts/access/Ownable.sol\":2426:2613  function _transferOwnership(address newOwner) internal virtual {... */\n      pop\n      jump\t// out\n        /* \"@openzeppelin/contracts/utils/Pausable.sol\":2339:2454  function _pause() internal virtual whenNotPaused {... */\n    tag_213:\n        /* \"@openzeppelin/contracts/utils/Pausable.sol\":1350:1369  _requireNotPaused() */\n      tag_305\n        /* \"@openzeppelin/contracts/utils/Pausable.sol\":1350:1367  _requireNotPaused */\n      tag_306\n        /* \"@openzeppelin/contracts/utils/Pausable.sol\":1350:1369  _requireNotPaused() */\n      jump\t// in\n    tag_305:\n        /* \"@openzeppelin/contracts/utils/Pausable.sol\":2408:2412  true */\n      0x01\n        /* \"@openzeppelin/contracts/utils/Pausable.sol\":2398:2405  _paused */\n      0x00\n      0x14\n        /* \"@openzeppelin/contracts/utils/Pausable.sol\":2398:2412  _paused = true */\n      0x0100\n      exp\n      dup2\n      sload\n      dup2\n      0xff\n      mul\n      not\n      and\n      swap1\n      dup4\n      iszero\n      iszero\n      mul\n      or\n      swap1\n      sstore\n      pop\n        /* \"@openzeppelin/contracts/utils/Pausable.sol\":2427:2447  Paused(_msgSender()) */\n      0x62e78cea01bee320cd4e420270b5ea74000d11b0c9f74754ebdbfc544b05a258\n        /* \"@openzeppelin/contracts/utils/Pausable.sol\":2434:2446  _msgSender() */\n      tag_308\n        /* \"@openzeppelin/contracts/utils/Pausable.sol\":2434:2444  _msgSender */\n      tag_252\n        /* \"@openzeppelin/contracts/utils/Pausable.sol\":2434:2446  _msgSender() */\n      jump\t// in\n    tag_308:\n        /* \"@openzeppelin/contracts/utils/Pausable.sol\":2427:2447  Paused(_msgSender()) */\n      mload(0x40)\n      tag_309\n      swap2\n      swap1\n      tag_77\n      jump\t// in\n    tag_309:\n      mload(0x40)\n      dup1\n      swap2\n      sub\n      swap1\n      log1\n        /* \"@openzeppelin/contracts/utils/Pausable.sol\":2339:2454  function _pause() internal virtual whenNotPaused {... */\n      jump\t// out\n        /* \"@openzeppelin/contracts/utils/Context.sol\":655:751  function _msgSender() internal view virtual returns (address) {... */\n    tag_252:\n        /* \"@openzeppelin/contracts/utils/Context.sol\":708:715  address */\n      0x00\n        /* \"@openzeppelin/contracts/utils/Context.sol\":734:744  msg.sender */\n      caller\n        /* \"@openzeppelin/contracts/utils/Context.sol\":727:744  return msg.sender */\n      swap1\n      pop\n        /* \"@openzeppelin/contracts/utils/Context.sol\":655:751  function _msgSender() internal view virtual returns (address) {... */\n      swap1\n      jump\t// out\n        /* \"@openzeppelin/contracts/utils/Pausable.sol\":2078:2204  function _requirePaused() internal view virtual {... */\n    tag_299:\n        /* \"@openzeppelin/contracts/utils/Pausable.sol\":2141:2149  paused() */\n      tag_312\n        /* \"@openzeppelin/contracts/utils/Pausable.sol\":2141:2147  paused */\n      tag_59\n        /* \"@openzeppelin/contracts/utils/Pausable.sol\":2141:2149  paused() */\n      jump\t// in\n    tag_312:\n        /* \"@openzeppelin/contracts/utils/Pausable.sol\":2136:2198  if (!paused()) {... */\n      tag_313\n      jumpi\n        /* \"@openzeppelin/contracts/utils/Pausable.sol\":2172:2187  ExpectedPause() */\n      mload(0x40)\n      0x8dfc202b00000000000000000000000000000000000000000000000000000000\n      dup2\n      mstore\n      0x04\n      add\n      mload(0x40)\n      dup1\n      swap2\n      sub\n      swap1\n      revert\n        /* \"@openzeppelin/contracts/utils/Pausable.sol\":2136:2198  if (!paused()) {... */\n    tag_313:\n        /* \"@openzeppelin/contracts/utils/Pausable.sol\":2078:2204  function _requirePaused() internal view virtual {... */\n      jump\t// out\n        /* \"@openzeppelin/contracts/utils/Pausable.sol\":1878:2006  function _requireNotPaused() internal view virtual {... */\n    tag_306:\n        /* \"@openzeppelin/contracts/utils/Pausable.sol\":1943:1951  paused() */\n      tag_315\n        /* \"@openzeppelin/contracts/utils/Pausable.sol\":1943:1949  paused */\n      tag_59\n        /* \"@openzeppelin/contracts/utils/Pausable.sol\":1943:1951  paused() */\n      jump\t// in\n    tag_315:\n        /* \"@openzeppelin/contracts/utils/Pausable.sol\":1939:2000  if (paused()) {... */\n      iszero\n      tag_316\n      jumpi\n        /* \"@openzeppelin/contracts/utils/Pausable.sol\":1974:1989  EnforcedPause() */\n      mload(0x40)\n      0xd93c066500000000000000000000000000000000000000000000000000000000\n      dup2\n      mstore\n      0x04\n      add\n      mload(0x40)\n      dup1\n      swap2\n      sub\n      swap1\n      revert\n        /* \"@openzeppelin/contracts/utils/Pausable.sol\":1939:2000  if (paused()) {... */\n    tag_316:\n        /* \"@openzeppelin/contracts/utils/Pausable.sol\":1878:2006  function _requireNotPaused() internal view virtual {... */\n      jump\t// out\n        /* \"#utility.yul\":7:84   */\n    tag_317:\n        /* \"#utility.yul\":44:51   */\n      0x00\n        /* \"#utility.yul\":73:78   */\n      dup2\n        /* \"#utility.yul\":62:78   */\n      swap1\n      pop\n        /* \"#utility.yul\":7:84   */\n      swap2\n      swap1\n      pop\n      jump\t// out\n        /* \"#utility.yul\":90:208   */\n    tag_318:\n        /* \"#utility.yul\":177:201   */\n      tag_415\n        /* \"#utility.yul\":195:200   */\n      dup2\n        /* \"#utility.yul\":177:201   */\n      tag_317\n      jump\t// in\n    tag_415:\n        /* \"#utility.yul\":172:175   */\n      dup3\n        /* \"#utility.yul\":165:202   */\n      mstore\n        /* \"#utility.yul\":90:208   */\n      pop\n      pop\n      jump\t// out\n        /* \"#utility.yul\":214:436   */\n    tag_28:\n        /* \"#utility.yul\":307:311   */\n      0x00\n        /* \"#utility.yul\":345:347   */\n      0x20\n        /* \"#utility.yul\":334:343   */\n      dup3\n        /* \"#utility.yul\":330:348   */\n      add\n        /* \"#utility.yul\":322:348   */\n      swap1\n      pop\n        /* \"#utility.yul\":358:429   */\n      tag_417\n        /* \"#utility.yul\":426:427   */\n      0x00\n        /* \"#utility.yul\":415:424   */\n      dup4\n        /* \"#utility.yul\":411:428   */\n      add\n        /* \"#utility.yul\":402:408   */\n      dup5\n        /* \"#utility.yul\":358:429   */\n      tag_318\n      jump\t// in\n    tag_417:\n        /* \"#utility.yul\":214:436   */\n      swap3\n      swap2\n      pop\n      pop\n      jump\t// out\n        /* \"#utility.yul\":442:517   */\n    tag_319:\n        /* \"#utility.yul\":475:481   */\n      0x00\n        /* \"#utility.yul\":508:510   */\n      0x40\n        /* \"#utility.yul\":502:511   */\n      mload\n        /* \"#utility.yul\":492:511   */\n      swap1\n      pop\n        /* \"#utility.yul\":442:517   */\n      swap1\n      jump\t// out\n        /* \"#utility.yul\":523:640   */\n    tag_320:\n        /* \"#utility.yul\":632:633   */\n      0x00\n        /* \"#utility.yul\":629:630   */\n      0x00\n        /* \"#utility.yul\":622:634   */\n      revert\n        /* \"#utility.yul\":646:763   */\n    tag_321:\n        /* \"#utility.yul\":755:756   */\n      0x00\n        /* \"#utility.yul\":752:753   */\n      0x00\n        /* \"#utility.yul\":745:757   */\n      revert\n        /* \"#utility.yul\":769:895   */\n    tag_322:\n        /* \"#utility.yul\":806:813   */\n      0x00\n        /* \"#utility.yul\":846:888   */\n      0xffffffffffffffffffffffffffffffffffffffff\n        /* \"#utility.yul\":839:844   */\n      dup3\n        /* \"#utility.yul\":835:889   */\n      and\n        /* \"#utility.yul\":824:889   */\n      swap1\n      pop\n        /* \"#utility.yul\":769:895   */\n      swap2\n      swap1\n      pop\n      jump\t// out\n        /* \"#utility.yul\":901:997   */\n    tag_323:\n        /* \"#utility.yul\":938:945   */\n      0x00\n        /* \"#utility.yul\":967:991   */\n      tag_423\n        /* \"#utility.yul\":985:990   */\n      dup3\n        /* \"#utility.yul\":967:991   */\n      tag_322\n      jump\t// in\n    tag_423:\n        /* \"#utility.yul\":956:991   */\n      swap1\n      pop\n        /* \"#utility.yul\":901:997   */\n      swap2\n      swap1\n      pop\n      jump\t// out\n        /* \"#utility.yul\":1003:1125   */\n    tag_324:\n        /* \"#utility.yul\":1076:1100   */\n      tag_425\n        /* \"#utility.yul\":1094:1099   */\n      dup2\n        /* \"#utility.yul\":1076:1100   */\n      tag_323\n      jump\t// in\n    tag_425:\n        /* \"#utility.yul\":1069:1074   */\n      dup2\n        /* \"#utility.yul\":1066:1101   */\n      eq\n        /* \"#utility.yul\":1056:1119   */\n      tag_426\n      jumpi\n        /* \"#utility.yul\":1115:1116   */\n      0x00\n        /* \"#utility.yul\":1112:1113   */\n      0x00\n        /* \"#utility.yul\":1105:1117   */\n      revert\n        /* \"#utility.yul\":1056:1119   */\n    tag_426:\n        /* \"#utility.yul\":1003:1125   */\n      pop\n      jump\t// out\n        /* \"#utility.yul\":1131:1270   */\n    tag_325:\n        /* \"#utility.yul\":1177:1182   */\n      0x00\n        /* \"#utility.yul\":1215:1221   */\n      dup2\n        /* \"#utility.yul\":1202:1222   */\n      calldataload\n        /* \"#utility.yul\":1193:1222   */\n      swap1\n      pop\n        /* \"#utility.yul\":1231:1264   */\n      tag_428\n        /* \"#utility.yul\":1258:1263   */\n      dup2\n        /* \"#utility.yul\":1231:1264   */\n      tag_324\n      jump\t// in\n    tag_428:\n        /* \"#utility.yul\":1131:1270   */\n      swap3\n      swap2\n      pop\n      pop\n      jump\t// out\n        /* \"#utility.yul\":1276:1398   */\n    tag_326:\n        /* \"#utility.yul\":1349:1373   */\n      tag_430\n        /* \"#utility.yul\":1367:1372   */\n      dup2\n        /* \"#utility.yul\":1349:1373   */\n      tag_317\n      jump\t// in\n    tag_430:\n        /* \"#utility.yul\":1342:1347   */\n      dup2\n        /* \"#utility.yul\":1339:1374   */\n      eq\n        /* \"#utility.yul\":1329:1392   */\n      tag_431\n      jumpi\n        /* \"#utility.yul\":1388:1389   */\n      0x00\n        /* \"#utility.yul\":1385:1386   */\n      0x00\n        /* \"#utility.yul\":1378:1390   */\n      revert\n        /* \"#utility.yul\":1329:1392   */\n    tag_431:\n        /* \"#utility.yul\":1276:1398   */\n      pop\n      jump\t// out\n        /* \"#utility.yul\":1404:1543   */\n    tag_327:\n        /* \"#utility.yul\":1450:1455   */\n      0x00\n        /* \"#utility.yul\":1488:1494   */\n      dup2\n        /* \"#utility.yul\":1475:1495   */\n      calldataload\n        /* \"#utility.yul\":1466:1495   */\n      swap1\n      pop\n        /* \"#utility.yul\":1504:1537   */\n      tag_433\n        /* \"#utility.yul\":1531:1536   */\n      dup2\n        /* \"#utility.yul\":1504:1537   */\n      tag_326\n      jump\t// in\n    tag_433:\n        /* \"#utility.yul\":1404:1543   */\n      swap3\n      swap2\n      pop\n      pop\n      jump\t// out\n        /* \"#utility.yul\":1549:2023   */\n    tag_32:\n        /* \"#utility.yul\":1617:1623   */\n      0x00\n        /* \"#utility.yul\":1625:1631   */\n      0x00\n        /* \"#utility.yul\":1674:1676   */\n      0x40\n        /* \"#utility.yul\":1662:1671   */\n      dup4\n        /* \"#utility.yul\":1653:1660   */\n      dup6\n        /* \"#utility.yul\":1649:1672   */\n      sub\n        /* \"#utility.yul\":1645:1677   */\n      slt\n        /* \"#utility.yul\":1642:1761   */\n      iszero\n      tag_435\n      jumpi\n        /* \"#utility.yul\":1680:1759   */\n      tag_436\n      tag_320\n      jump\t// in\n    tag_436:\n        /* \"#utility.yul\":1642:1761   */\n    tag_435:\n        /* \"#utility.yul\":1800:1801   */\n      0x00\n        /* \"#utility.yul\":1825:1878   */\n      tag_437\n        /* \"#utility.yul\":1870:1877   */\n      dup6\n        /* \"#utility.yul\":1861:1867   */\n      dup3\n        /* \"#utility.yul\":1850:1859   */\n      dup7\n        /* \"#utility.yul\":1846:1868   */\n      add\n        /* \"#utility.yul\":1825:1878   */\n      tag_325\n      jump\t// in\n    tag_437:\n        /* \"#utility.yul\":1815:1878   */\n      swap3\n      pop\n        /* \"#utility.yul\":1771:1888   */\n      pop\n        /* \"#utility.yul\":1927:1929   */\n      0x20\n        /* \"#utility.yul\":1953:2006   */\n      tag_438\n        /* \"#utility.yul\":1998:2005   */\n      dup6\n        /* \"#utility.yul\":1989:1995   */\n      dup3\n        /* \"#utility.yul\":1978:1987   */\n      dup7\n        /* \"#utility.yul\":1974:1996   */\n      add\n        /* \"#utility.yul\":1953:2006   */\n      tag_327\n      jump\t// in\n    tag_438:\n        /* \"#utility.yul\":1943:2006   */\n      swap2\n      pop\n        /* \"#utility.yul\":1898:2016   */\n      pop\n        /* \"#utility.yul\":1549:2023   */\n      swap3\n      pop\n      swap3\n      swap1\n      pop\n      jump\t// out\n        /* \"#utility.yul\":2029:2147   */\n    tag_328:\n        /* \"#utility.yul\":2116:2140   */\n      tag_440\n        /* \"#utility.yul\":2134:2139   */\n      dup2\n        /* \"#utility.yul\":2116:2140   */\n      tag_323\n      jump\t// in\n    tag_440:\n        /* \"#utility.yul\":2111:2114   */\n      dup3\n        /* \"#utility.yul\":2104:2141   */\n      mstore\n        /* \"#utility.yul\":2029:2147   */\n      pop\n      pop\n      jump\t// out\n        /* \"#utility.yul\":2153:2252   */\n    tag_329:\n        /* \"#utility.yul\":2205:2211   */\n      0x00\n        /* \"#utility.yul\":2239:2244   */\n      dup2\n        /* \"#utility.yul\":2233:2245   */\n      mload\n        /* \"#utility.yul\":2223:2245   */\n      swap1\n      pop\n        /* \"#utility.yul\":2153:2252   */\n      swap2\n      swap1\n      pop\n      jump\t// out\n        /* \"#utility.yul\":2258:2427   */\n    tag_330:\n        /* \"#utility.yul\":2342:2353   */\n      0x00\n        /* \"#utility.yul\":2376:2382   */\n      dup3\n        /* \"#utility.yul\":2371:2374   */\n      dup3\n        /* \"#utility.yul\":2364:2383   */\n      mstore\n        /* \"#utility.yul\":2416:2420   */\n      0x20\n        /* \"#utility.yul\":2411:2414   */\n      dup3\n        /* \"#utility.yul\":2407:2421   */\n      add\n        /* \"#utility.yul\":2392:2421   */\n      swap1\n      pop\n        /* \"#utility.yul\":2258:2427   */\n      swap3\n      swap2\n      pop\n      pop\n      jump\t// out\n        /* \"#utility.yul\":2433:2572   */\n    tag_331:\n        /* \"#utility.yul\":2522:2528   */\n      dup3\n        /* \"#utility.yul\":2517:2520   */\n      dup2\n        /* \"#utility.yul\":2512:2515   */\n      dup4\n        /* \"#utility.yul\":2506:2529   */\n      mcopy\n        /* \"#utility.yul\":2563:2564   */\n      0x00\n        /* \"#utility.yul\":2554:2560   */\n      dup4\n        /* \"#utility.yul\":2549:2552   */\n      dup4\n        /* \"#utility.yul\":2545:2561   */\n      add\n        /* \"#utility.yul\":2538:2565   */\n      mstore\n        /* \"#utility.yul\":2433:2572   */\n      pop\n      pop\n      pop\n      jump\t// out\n        /* \"#utility.yul\":2578:2680   */\n    tag_332:\n        /* \"#utility.yul\":2619:2625   */\n      0x00\n        /* \"#utility.yul\":2670:2672   */\n      0x1f\n        /* \"#utility.yul\":2666:2673   */\n      not\n        /* \"#utility.yul\":2661:2663   */\n      0x1f\n        /* \"#utility.yul\":2654:2659   */\n      dup4\n        /* \"#utility.yul\":2650:2664   */\n      add\n        /* \"#utility.yul\":2646:2674   */\n      and\n        /* \"#utility.yul\":2636:2674   */\n      swap1\n      pop\n        /* \"#utility.yul\":2578:2680   */\n      swap2\n      swap1\n      pop\n      jump\t// out\n        /* \"#utility.yul\":2686:3063   */\n    tag_333:\n        /* \"#utility.yul\":2774:2777   */\n      0x00\n        /* \"#utility.yul\":2802:2841   */\n      tag_446\n        /* \"#utility.yul\":2835:2840   */\n      dup3\n        /* \"#utility.yul\":2802:2841   */\n      tag_329\n      jump\t// in\n    tag_446:\n        /* \"#utility.yul\":2857:2928   */\n      tag_447\n        /* \"#utility.yul\":2921:2927   */\n      dup2\n        /* \"#utility.yul\":2916:2919   */\n      dup6\n        /* \"#utility.yul\":2857:2928   */\n      tag_330\n      jump\t// in\n    tag_447:\n        /* \"#utility.yul\":2850:2928   */\n      swap4\n      pop\n        /* \"#utility.yul\":2937:3002   */\n      tag_448\n        /* \"#utility.yul\":2995:3001   */\n      dup2\n        /* \"#utility.yul\":2990:2993   */\n      dup6\n        /* \"#utility.yul\":2983:2987   */\n      0x20\n        /* \"#utility.yul\":2976:2981   */\n      dup7\n        /* \"#utility.yul\":2972:2988   */\n      add\n        /* \"#utility.yul\":2937:3002   */\n      tag_331\n      jump\t// in\n    tag_448:\n        /* \"#utility.yul\":3027:3056   */\n      tag_449\n        /* \"#utility.yul\":3049:3055   */\n      dup2\n        /* \"#utility.yul\":3027:3056   */\n      tag_332\n      jump\t// in\n    tag_449:\n        /* \"#utility.yul\":3022:3025   */\n      dup5\n        /* \"#utility.yul\":3018:3057   */\n      add\n        /* \"#utility.yul\":3011:3057   */\n      swap2\n      pop\n        /* \"#utility.yul\":2778:3063   */\n      pop\n        /* \"#utility.yul\":2686:3063   */\n      swap3\n      swap2\n      pop\n      pop\n      jump\t// out\n        /* \"#utility.yul\":3069:3155   */\n    tag_334:\n        /* \"#utility.yul\":3104:3111   */\n      0x00\n        /* \"#utility.yul\":3144:3148   */\n      0xff\n        /* \"#utility.yul\":3137:3142   */\n      dup3\n        /* \"#utility.yul\":3133:3149   */\n      and\n        /* \"#utility.yul\":3122:3149   */\n      swap1\n      pop\n        /* \"#utility.yul\":3069:3155   */\n      swap2\n      swap1\n      pop\n      jump\t// out\n        /* \"#utility.yul\":3161:3273   */\n    tag_335:\n        /* \"#utility.yul\":3244:3266   */\n      tag_452\n        /* \"#utility.yul\":3260:3265   */\n      dup2\n        /* \"#utility.yul\":3244:3266   */\n      tag_334\n      jump\t// in\n    tag_452:\n        /* \"#utility.yul\":3239:3242   */\n      dup3\n        /* \"#utility.yul\":3232:3267   */\n      mstore\n        /* \"#utility.yul\":3161:3273   */\n      pop\n      pop\n      jump\t// out\n        /* \"#utility.yul\":3279:4117   */\n    tag_35:\n        /* \"#utility.yul\":3520:3524   */\n      0x00\n        /* \"#utility.yul\":3558:3561   */\n      0xa0\n        /* \"#utility.yul\":3547:3556   */\n      dup3\n        /* \"#utility.yul\":3543:3562   */\n      add\n        /* \"#utility.yul\":3535:3562   */\n      swap1\n      pop\n        /* \"#utility.yul\":3572:3643   */\n      tag_454\n        /* \"#utility.yul\":3640:3641   */\n      0x00\n        /* \"#utility.yul\":3629:3638   */\n      dup4\n        /* \"#utility.yul\":3625:3642   */\n      add\n        /* \"#utility.yul\":3616:3622   */\n      dup9\n        /* \"#utility.yul\":3572:3643   */\n      tag_328\n      jump\t// in\n    tag_454:\n        /* \"#utility.yul\":3690:3699   */\n      dup2\n        /* \"#utility.yul\":3684:3688   */\n      dup2\n        /* \"#utility.yul\":3680:3700   */\n      sub\n        /* \"#utility.yul\":3675:3677   */\n      0x20\n        /* \"#utility.yul\":3664:3673   */\n      dup4\n        /* \"#utility.yul\":3660:3678   */\n      add\n        /* \"#utility.yul\":3653:3701   */\n      mstore\n        /* \"#utility.yul\":3718:3796   */\n      tag_455\n        /* \"#utility.yul\":3791:3795   */\n      dup2\n        /* \"#utility.yul\":3782:3788   */\n      dup8\n        /* \"#utility.yul\":3718:3796   */\n      tag_333\n      jump\t// in\n    tag_455:\n        /* \"#utility.yul\":3710:3796   */\n      swap1\n      pop\n        /* \"#utility.yul\":3843:3852   */\n      dup2\n        /* \"#utility.yul\":3837:3841   */\n      dup2\n        /* \"#utility.yul\":3833:3853   */\n      sub\n        /* \"#utility.yul\":3828:3830   */\n      0x40\n        /* \"#utility.yul\":3817:3826   */\n      dup4\n        /* \"#utility.yul\":3813:3831   */\n      add\n        /* \"#utility.yul\":3806:3854   */\n      mstore\n        /* \"#utility.yul\":3871:3949   */\n      tag_456\n        /* \"#utility.yul\":3944:3948   */\n      dup2\n        /* \"#utility.yul\":3935:3941   */\n      dup7\n        /* \"#utility.yul\":3871:3949   */\n      tag_333\n      jump\t// in\n    tag_456:\n        /* \"#utility.yul\":3863:3949   */\n      swap1\n      pop\n        /* \"#utility.yul\":3959:4027   */\n      tag_457\n        /* \"#utility.yul\":4023:4025   */\n      0x60\n        /* \"#utility.yul\":4012:4021   */\n      dup4\n        /* \"#utility.yul\":4008:4026   */\n      add\n        /* \"#utility.yul\":3999:4005   */\n      dup6\n        /* \"#utility.yul\":3959:4027   */\n      tag_335\n      jump\t// in\n    tag_457:\n        /* \"#utility.yul\":4037:4110   */\n      tag_458\n        /* \"#utility.yul\":4105:4108   */\n      0x80\n        /* \"#utility.yul\":4094:4103   */\n      dup4\n        /* \"#utility.yul\":4090:4109   */\n      add\n        /* \"#utility.yul\":4081:4087   */\n      dup5\n        /* \"#utility.yul\":4037:4110   */\n      tag_318\n      jump\t// in\n    tag_458:\n        /* \"#utility.yul\":3279:4117   */\n      swap7\n      swap6\n      pop\n      pop\n      pop\n      pop\n      pop\n      pop\n      jump\t// out\n        /* \"#utility.yul\":4123:4240   */\n    tag_336:\n        /* \"#utility.yul\":4232:4233   */\n      0x00\n        /* \"#utility.yul\":4229:4230   */\n      0x00\n        /* \"#utility.yul\":4222:4234   */\n      revert\n        /* \"#utility.yul\":4246:4363   */\n    tag_337:\n        /* \"#utility.yul\":4355:4356   */\n      0x00\n        /* \"#utility.yul\":4352:4353   */\n      0x00\n        /* \"#utility.yul\":4345:4357   */\n      revert\n        /* \"#utility.yul\":4369:4549   */\n    tag_338:\n        /* \"#utility.yul\":4417:4494   */\n      0x4e487b7100000000000000000000000000000000000000000000000000000000\n        /* \"#utility.yul\":4414:4415   */\n      0x00\n        /* \"#utility.yul\":4407:4495   */\n      mstore\n        /* \"#utility.yul\":4514:4518   */\n      0x41\n        /* \"#utility.yul\":4511:4512   */\n      0x04\n        /* \"#utility.yul\":4504:4519   */\n      mstore\n        /* \"#utility.yul\":4538:4542   */\n      0x24\n        /* \"#utility.yul\":4535:4536   */\n      0x00\n        /* \"#utility.yul\":4528:4543   */\n      revert\n        /* \"#utility.yul\":4555:4836   */\n    tag_339:\n        /* \"#utility.yul\":4638:4665   */\n      tag_463\n        /* \"#utility.yul\":4660:4664   */\n      dup3\n        /* \"#utility.yul\":4638:4665   */\n      tag_332\n      jump\t// in\n    tag_463:\n        /* \"#utility.yul\":4630:4636   */\n      dup2\n        /* \"#utility.yul\":4626:4666   */\n      add\n        /* \"#utility.yul\":4768:4774   */\n      dup2\n        /* \"#utility.yul\":4756:4766   */\n      dup2\n        /* \"#utility.yul\":4753:4775   */\n      lt\n        /* \"#utility.yul\":4732:4750   */\n      0xffffffffffffffff\n        /* \"#utility.yul\":4720:4730   */\n      dup3\n        /* \"#utility.yul\":4717:4751   */\n      gt\n        /* \"#utility.yul\":4714:4776   */\n      or\n        /* \"#utility.yul\":4711:4799   */\n      iszero\n      tag_464\n      jumpi\n        /* \"#utility.yul\":4779:4797   */\n      tag_465\n      tag_338\n      jump\t// in\n    tag_465:\n        /* \"#utility.yul\":4711:4799   */\n    tag_464:\n        /* \"#utility.yul\":4819:4829   */\n      dup1\n        /* \"#utility.yul\":4815:4817   */\n      0x40\n        /* \"#utility.yul\":4808:4830   */\n      mstore\n        /* \"#utility.yul\":4598:4836   */\n      pop\n        /* \"#utility.yul\":4555:4836   */\n      pop\n      pop\n      jump\t// out\n        /* \"#utility.yul\":4842:4971   */\n    tag_340:\n        /* \"#utility.yul\":4876:4882   */\n      0x00\n        /* \"#utility.yul\":4903:4923   */\n      tag_467\n      tag_319\n      jump\t// in\n    tag_467:\n        /* \"#utility.yul\":4893:4923   */\n      swap1\n      pop\n        /* \"#utility.yul\":4932:4965   */\n      tag_468\n        /* \"#utility.yul\":4960:4964   */\n      dup3\n        /* \"#utility.yul\":4952:4958   */\n      dup3\n        /* \"#utility.yul\":4932:4965   */\n      tag_339\n      jump\t// in\n    tag_468:\n        /* \"#utility.yul\":4842:4971   */\n      swap2\n      swap1\n      pop\n      jump\t// out\n        /* \"#utility.yul\":4977:5285   */\n    tag_341:\n        /* \"#utility.yul\":5039:5043   */\n      0x00\n        /* \"#utility.yul\":5129:5147   */\n      0xffffffffffffffff\n        /* \"#utility.yul\":5121:5127   */\n      dup3\n        /* \"#utility.yul\":5118:5148   */\n      gt\n        /* \"#utility.yul\":5115:5171   */\n      iszero\n      tag_470\n      jumpi\n        /* \"#utility.yul\":5151:5169   */\n      tag_471\n      tag_338\n      jump\t// in\n    tag_471:\n        /* \"#utility.yul\":5115:5171   */\n    tag_470:\n        /* \"#utility.yul\":5189:5218   */\n      tag_472\n        /* \"#utility.yul\":5211:5217   */\n      dup3\n        /* \"#utility.yul\":5189:5218   */\n      tag_332\n      jump\t// in\n    tag_472:\n        /* \"#utility.yul\":5181:5218   */\n      swap1\n      pop\n        /* \"#utility.yul\":5273:5277   */\n      0x20\n        /* \"#utility.yul\":5267:5271   */\n      dup2\n        /* \"#utility.yul\":5263:5278   */\n      add\n        /* \"#utility.yul\":5255:5278   */\n      swap1\n      pop\n        /* \"#utility.yul\":4977:5285   */\n      swap2\n      swap1\n      pop\n      jump\t// out\n        /* \"#utility.yul\":5291:5439   */\n    tag_342:\n        /* \"#utility.yul\":5389:5395   */\n      dup3\n        /* \"#utility.yul\":5384:5387   */\n      dup2\n        /* \"#utility.yul\":5379:5382   */\n      dup4\n        /* \"#utility.yul\":5366:5396   */\n      calldatacopy\n        /* \"#utility.yul\":5430:5431   */\n      0x00\n        /* \"#utility.yul\":5421:5427   */\n      dup4\n        /* \"#utility.yul\":5416:5419   */\n      dup4\n        /* \"#utility.yul\":5412:5428   */\n      add\n        /* \"#utility.yul\":5405:5432   */\n      mstore\n        /* \"#utility.yul\":5291:5439   */\n      pop\n      pop\n      pop\n      jump\t// out\n        /* \"#utility.yul\":5445:5870   */\n    tag_343:\n        /* \"#utility.yul\":5523:5528   */\n      0x00\n        /* \"#utility.yul\":5548:5614   */\n      tag_475\n        /* \"#utility.yul\":5564:5613   */\n      tag_476\n        /* \"#utility.yul\":5606:5612   */\n      dup5\n        /* \"#utility.yul\":5564:5613   */\n      tag_341\n      jump\t// in\n    tag_476:\n        /* \"#utility.yul\":5548:5614   */\n      tag_340\n      jump\t// in\n    tag_475:\n        /* \"#utility.yul\":5539:5614   */\n      swap1\n      pop\n        /* \"#utility.yul\":5637:5643   */\n      dup3\n        /* \"#utility.yul\":5630:5635   */\n      dup2\n        /* \"#utility.yul\":5623:5644   */\n      mstore\n        /* \"#utility.yul\":5675:5679   */\n      0x20\n        /* \"#utility.yul\":5668:5673   */\n      dup2\n        /* \"#utility.yul\":5664:5680   */\n      add\n        /* \"#utility.yul\":5713:5716   */\n      dup5\n        /* \"#utility.yul\":5704:5710   */\n      dup5\n        /* \"#utility.yul\":5699:5702   */\n      dup5\n        /* \"#utility.yul\":5695:5711   */\n      add\n        /* \"#utility.yul\":5692:5717   */\n      gt\n        /* \"#utility.yul\":5689:5801   */\n      iszero\n      tag_477\n      jumpi\n        /* \"#utility.yul\":5720:5799   */\n      tag_478\n      tag_337\n      jump\t// in\n    tag_478:\n        /* \"#utility.yul\":5689:5801   */\n    tag_477:\n        /* \"#utility.yul\":5810:5864   */\n      tag_479\n        /* \"#utility.yul\":5857:5863   */\n      dup5\n        /* \"#utility.yul\":5852:5855   */\n      dup3\n        /* \"#utility.yul\":5847:5850   */\n      dup6\n        /* \"#utility.yul\":5810:5864   */\n      tag_342\n      jump\t// in\n    tag_479:\n        /* \"#utility.yul\":5529:5870   */\n      pop\n        /* \"#utility.yul\":5445:5870   */\n      swap4\n      swap3\n      pop\n      pop\n      pop\n      jump\t// out\n        /* \"#utility.yul\":5890:6230   */\n    tag_344:\n        /* \"#utility.yul\":5946:5951   */\n      0x00\n        /* \"#utility.yul\":5995:5998   */\n      dup3\n        /* \"#utility.yul\":5988:5992   */\n      0x1f\n        /* \"#utility.yul\":5980:5986   */\n      dup4\n        /* \"#utility.yul\":5976:5993   */\n      add\n        /* \"#utility.yul\":5972:5999   */\n      slt\n        /* \"#utility.yul\":5962:6084   */\n      tag_481\n      jumpi\n        /* \"#utility.yul\":6003:6082   */\n      tag_482\n      tag_336\n      jump\t// in\n    tag_482:\n        /* \"#utility.yul\":5962:6084   */\n    tag_481:\n        /* \"#utility.yul\":6120:6126   */\n      dup2\n        /* \"#utility.yul\":6107:6127   */\n      calldataload\n        /* \"#utility.yul\":6145:6224   */\n      tag_483\n        /* \"#utility.yul\":6220:6223   */\n      dup5\n        /* \"#utility.yul\":6212:6218   */\n      dup3\n        /* \"#utility.yul\":6205:6209   */\n      0x20\n        /* \"#utility.yul\":6197:6203   */\n      dup7\n        /* \"#utility.yul\":6193:6210   */\n      add\n        /* \"#utility.yul\":6145:6224   */\n      tag_343\n      jump\t// in\n    tag_483:\n        /* \"#utility.yul\":6136:6224   */\n      swap2\n      pop\n        /* \"#utility.yul\":5952:6230   */\n      pop\n        /* \"#utility.yul\":5890:6230   */\n      swap3\n      swap2\n      pop\n      pop\n      jump\t// out\n        /* \"#utility.yul\":6236:6890   */\n    tag_39:\n        /* \"#utility.yul\":6314:6320   */\n      0x00\n        /* \"#utility.yul\":6322:6328   */\n      0x00\n        /* \"#utility.yul\":6371:6373   */\n      0x40\n        /* \"#utility.yul\":6359:6368   */\n      dup4\n        /* \"#utility.yul\":6350:6357   */\n      dup6\n        /* \"#utility.yul\":6346:6369   */\n      sub\n        /* \"#utility.yul\":6342:6374   */\n      slt\n        /* \"#utility.yul\":6339:6458   */\n      iszero\n      tag_485\n      jumpi\n        /* \"#utility.yul\":6377:6456   */\n      tag_486\n      tag_320\n      jump\t// in\n    tag_486:\n        /* \"#utility.yul\":6339:6458   */\n    tag_485:\n        /* \"#utility.yul\":6497:6498   */\n      0x00\n        /* \"#utility.yul\":6522:6575   */\n      tag_487\n        /* \"#utility.yul\":6567:6574   */\n      dup6\n        /* \"#utility.yul\":6558:6564   */\n      dup3\n        /* \"#utility.yul\":6547:6556   */\n      dup7\n        /* \"#utility.yul\":6543:6565   */\n      add\n        /* \"#utility.yul\":6522:6575   */\n      tag_327\n      jump\t// in\n    tag_487:\n        /* \"#utility.yul\":6512:6575   */\n      swap3\n      pop\n        /* \"#utility.yul\":6468:6585   */\n      pop\n        /* \"#utility.yul\":6652:6654   */\n      0x20\n        /* \"#utility.yul\":6641:6650   */\n      dup4\n        /* \"#utility.yul\":6637:6655   */\n      add\n        /* \"#utility.yul\":6624:6656   */\n      calldataload\n        /* \"#utility.yul\":6683:6701   */\n      0xffffffffffffffff\n        /* \"#utility.yul\":6675:6681   */\n      dup2\n        /* \"#utility.yul\":6672:6702   */\n      gt\n        /* \"#utility.yul\":6669:6786   */\n      iszero\n      tag_488\n      jumpi\n        /* \"#utility.yul\":6705:6784   */\n      tag_489\n      tag_321\n      jump\t// in\n    tag_489:\n        /* \"#utility.yul\":6669:6786   */\n    tag_488:\n        /* \"#utility.yul\":6810:6873   */\n      tag_490\n        /* \"#utility.yul\":6865:6872   */\n      dup6\n        /* \"#utility.yul\":6856:6862   */\n      dup3\n        /* \"#utility.yul\":6845:6854   */\n      dup7\n        /* \"#utility.yul\":6841:6863   */\n      add\n        /* \"#utility.yul\":6810:6873   */\n      tag_344\n      jump\t// in\n    tag_490:\n        /* \"#utility.yul\":6800:6873   */\n      swap2\n      pop\n        /* \"#utility.yul\":6595:6883   */\n      pop\n        /* \"#utility.yul\":6236:6890   */\n      swap3\n      pop\n      swap3\n      swap1\n      pop\n      jump\t// out\n        /* \"#utility.yul\":6896:7020   */\n    tag_345:\n        /* \"#utility.yul\":6973:6979   */\n      0x00\n        /* \"#utility.yul\":7007:7012   */\n      dup2\n        /* \"#utility.yul\":7001:7013   */\n      mload\n        /* \"#utility.yul\":6991:7013   */\n      swap1\n      pop\n        /* \"#utility.yul\":6896:7020   */\n      swap2\n      swap1\n      pop\n      jump\t// out\n        /* \"#utility.yul\":7026:7220   */\n    tag_346:\n        /* \"#utility.yul\":7135:7146   */\n      0x00\n        /* \"#utility.yul\":7169:7175   */\n      dup3\n        /* \"#utility.yul\":7164:7167   */\n      dup3\n        /* \"#utility.yul\":7157:7176   */\n      mstore\n        /* \"#utility.yul\":7209:7213   */\n      0x20\n        /* \"#utility.yul\":7204:7207   */\n      dup3\n        /* \"#utility.yul\":7200:7214   */\n      add\n        /* \"#utility.yul\":7185:7214   */\n      swap1\n      pop\n        /* \"#utility.yul\":7026:7220   */\n      swap3\n      swap2\n      pop\n      pop\n      jump\t// out\n        /* \"#utility.yul\":7226:7368   */\n    tag_347:\n        /* \"#utility.yul\":7303:7307   */\n      0x00\n        /* \"#utility.yul\":7326:7329   */\n      dup2\n        /* \"#utility.yul\":7318:7329   */\n      swap1\n      pop\n        /* \"#utility.yul\":7356:7360   */\n      0x20\n        /* \"#utility.yul\":7351:7354   */\n      dup3\n        /* \"#utility.yul\":7347:7361   */\n      add\n        /* \"#utility.yul\":7339:7361   */\n      swap1\n      pop\n        /* \"#utility.yul\":7226:7368   */\n      swap2\n      swap1\n      pop\n      jump\t// out\n        /* \"#utility.yul\":7374:7533   */\n    tag_348:\n        /* \"#utility.yul\":7448:7459   */\n      0x00\n        /* \"#utility.yul\":7482:7488   */\n      dup3\n        /* \"#utility.yul\":7477:7480   */\n      dup3\n        /* \"#utility.yul\":7470:7489   */\n      mstore\n        /* \"#utility.yul\":7522:7526   */\n      0x20\n        /* \"#utility.yul\":7517:7520   */\n      dup3\n        /* \"#utility.yul\":7513:7527   */\n      add\n        /* \"#utility.yul\":7498:7527   */\n      swap1\n      pop\n        /* \"#utility.yul\":7374:7533   */\n      swap3\n      swap2\n      pop\n      pop\n      jump\t// out\n        /* \"#utility.yul\":7539:7896   */\n    tag_349:\n        /* \"#utility.yul\":7617:7620   */\n      0x00\n        /* \"#utility.yul\":7645:7684   */\n      tag_496\n        /* \"#utility.yul\":7678:7683   */\n      dup3\n        /* \"#utility.yul\":7645:7684   */\n      tag_329\n      jump\t// in\n    tag_496:\n        /* \"#utility.yul\":7700:7761   */\n      tag_497\n        /* \"#utility.yul\":7754:7760   */\n      dup2\n        /* \"#utility.yul\":7749:7752   */\n      dup6\n        /* \"#utility.yul\":7700:7761   */\n      tag_348\n      jump\t// in\n    tag_497:\n        /* \"#utility.yul\":7693:7761   */\n      swap4\n      pop\n        /* \"#utility.yul\":7770:7835   */\n      tag_498\n        /* \"#utility.yul\":7828:7834   */\n      dup2\n        /* \"#utility.yul\":7823:7826   */\n      dup6\n        /* \"#utility.yul\":7816:7820   */\n      0x20\n        /* \"#utility.yul\":7809:7814   */\n      dup7\n        /* \"#utility.yul\":7805:7821   */\n      add\n        /* \"#utility.yul\":7770:7835   */\n      tag_331\n      jump\t// in\n    tag_498:\n        /* \"#utility.yul\":7860:7889   */\n      tag_499\n        /* \"#utility.yul\":7882:7888   */\n      dup2\n        /* \"#utility.yul\":7860:7889   */\n      tag_332\n      jump\t// in\n    tag_499:\n        /* \"#utility.yul\":7855:7858   */\n      dup5\n        /* \"#utility.yul\":7851:7890   */\n      add\n        /* \"#utility.yul\":7844:7890   */\n      swap2\n      pop\n        /* \"#utility.yul\":7621:7896   */\n      pop\n        /* \"#utility.yul\":7539:7896   */\n      swap3\n      swap2\n      pop\n      pop\n      jump\t// out\n        /* \"#utility.yul\":7902:8098   */\n    tag_350:\n        /* \"#utility.yul\":7991:8001   */\n      0x00\n        /* \"#utility.yul\":8026:8092   */\n      tag_501\n        /* \"#utility.yul\":8088:8091   */\n      dup4\n        /* \"#utility.yul\":8080:8086   */\n      dup4\n        /* \"#utility.yul\":8026:8092   */\n      tag_349\n      jump\t// in\n    tag_501:\n        /* \"#utility.yul\":8012:8092   */\n      swap1\n      pop\n        /* \"#utility.yul\":7902:8098   */\n      swap3\n      swap2\n      pop\n      pop\n      jump\t// out\n        /* \"#utility.yul\":8104:8227   */\n    tag_351:\n        /* \"#utility.yul\":8184:8188   */\n      0x00\n        /* \"#utility.yul\":8216:8220   */\n      0x20\n        /* \"#utility.yul\":8211:8214   */\n      dup3\n        /* \"#utility.yul\":8207:8221   */\n      add\n        /* \"#utility.yul\":8199:8221   */\n      swap1\n      pop\n        /* \"#utility.yul\":8104:8227   */\n      swap2\n      swap1\n      pop\n      jump\t// out\n        /* \"#utility.yul\":8261:9252   */\n    tag_352:\n        /* \"#utility.yul\":8400:8403   */\n      0x00\n        /* \"#utility.yul\":8429:8493   */\n      tag_504\n        /* \"#utility.yul\":8487:8492   */\n      dup3\n        /* \"#utility.yul\":8429:8493   */\n      tag_345\n      jump\t// in\n    tag_504:\n        /* \"#utility.yul\":8509:8605   */\n      tag_505\n        /* \"#utility.yul\":8598:8604   */\n      dup2\n        /* \"#utility.yul\":8593:8596   */\n      dup6\n        /* \"#utility.yul\":8509:8605   */\n      tag_346\n      jump\t// in\n    tag_505:\n        /* \"#utility.yul\":8502:8605   */\n      swap4\n      pop\n        /* \"#utility.yul\":8631:8634   */\n      dup4\n        /* \"#utility.yul\":8676:8680   */\n      0x20\n        /* \"#utility.yul\":8668:8674   */\n      dup3\n        /* \"#utility.yul\":8664:8681   */\n      mul\n        /* \"#utility.yul\":8659:8662   */\n      dup6\n        /* \"#utility.yul\":8655:8682   */\n      add\n        /* \"#utility.yul\":8706:8772   */\n      tag_506\n        /* \"#utility.yul\":8766:8771   */\n      dup6\n        /* \"#utility.yul\":8706:8772   */\n      tag_347\n      jump\t// in\n    tag_506:\n        /* \"#utility.yul\":8795:8802   */\n      dup1\n        /* \"#utility.yul\":8826:8827   */\n      0x00\n        /* \"#utility.yul\":8811:9207   */\n    tag_507:\n        /* \"#utility.yul\":8836:8842   */\n      dup6\n        /* \"#utility.yul\":8833:8834   */\n      dup2\n        /* \"#utility.yul\":8830:8843   */\n      lt\n        /* \"#utility.yul\":8811:9207   */\n      iszero\n      tag_509\n      jumpi\n        /* \"#utility.yul\":8907:8916   */\n      dup5\n        /* \"#utility.yul\":8901:8905   */\n      dup5\n        /* \"#utility.yul\":8897:8917   */\n      sub\n        /* \"#utility.yul\":8892:8895   */\n      dup10\n        /* \"#utility.yul\":8885:8918   */\n      mstore\n        /* \"#utility.yul\":8958:8964   */\n      dup2\n        /* \"#utility.yul\":8952:8965   */\n      mload\n        /* \"#utility.yul\":8986:9070   */\n      tag_510\n        /* \"#utility.yul\":9065:9069   */\n      dup6\n        /* \"#utility.yul\":9050:9063   */\n      dup3\n        /* \"#utility.yul\":8986:9070   */\n      tag_350\n      jump\t// in\n    tag_510:\n        /* \"#utility.yul\":8978:9070   */\n      swap5\n      pop\n        /* \"#utility.yul\":9093:9163   */\n      tag_511\n        /* \"#utility.yul\":9156:9162   */\n      dup4\n        /* \"#utility.yul\":9093:9163   */\n      tag_351\n      jump\t// in\n    tag_511:\n        /* \"#utility.yul\":9083:9163   */\n      swap3\n      pop\n        /* \"#utility.yul\":9192:9196   */\n      0x20\n        /* \"#utility.yul\":9187:9190   */\n      dup11\n        /* \"#utility.yul\":9183:9197   */\n      add\n        /* \"#utility.yul\":9176:9197   */\n      swap10\n      pop\n        /* \"#utility.yul\":8871:9207   */\n      pop\n        /* \"#utility.yul\":8858:8859   */\n      0x01\n        /* \"#utility.yul\":8855:8856   */\n      dup2\n        /* \"#utility.yul\":8851:8860   */\n      add\n        /* \"#utility.yul\":8846:8860   */\n      swap1\n      pop\n        /* \"#utility.yul\":8811:9207   */\n      jump(tag_507)\n    tag_509:\n        /* \"#utility.yul\":8815:8829   */\n      pop\n        /* \"#utility.yul\":9223:9227   */\n      dup3\n        /* \"#utility.yul\":9216:9227   */\n      swap8\n      pop\n        /* \"#utility.yul\":9243:9246   */\n      dup8\n        /* \"#utility.yul\":9236:9246   */\n      swap6\n      pop\n        /* \"#utility.yul\":8405:9252   */\n      pop\n      pop\n      pop\n      pop\n      pop\n        /* \"#utility.yul\":8261:9252   */\n      swap3\n      swap2\n      pop\n      pop\n      jump\t// out\n        /* \"#utility.yul\":9258:9671   */\n    tag_51:\n        /* \"#utility.yul\":9421:9425   */\n      0x00\n        /* \"#utility.yul\":9459:9461   */\n      0x20\n        /* \"#utility.yul\":9448:9457   */\n      dup3\n        /* \"#utility.yul\":9444:9462   */\n      add\n        /* \"#utility.yul\":9436:9462   */\n      swap1\n      pop\n        /* \"#utility.yul\":9508:9517   */\n      dup2\n        /* \"#utility.yul\":9502:9506   */\n      dup2\n        /* \"#utility.yul\":9498:9518   */\n      sub\n        /* \"#utility.yul\":9494:9495   */\n      0x00\n        /* \"#utility.yul\":9483:9492   */\n      dup4\n        /* \"#utility.yul\":9479:9496   */\n      add\n        /* \"#utility.yul\":9472:9519   */\n      mstore\n        /* \"#utility.yul\":9536:9664   */\n      tag_513\n        /* \"#utility.yul\":9659:9663   */\n      dup2\n        /* \"#utility.yul\":9650:9656   */\n      dup5\n        /* \"#utility.yul\":9536:9664   */\n      tag_352\n      jump\t// in\n    tag_513:\n        /* \"#utility.yul\":9528:9664   */\n      swap1\n      pop\n        /* \"#utility.yul\":9258:9671   */\n      swap3\n      swap2\n      pop\n      pop\n      jump\t// out\n        /* \"#utility.yul\":9677:9781   */\n    tag_353:\n        /* \"#utility.yul\":9722:9729   */\n      0x00\n        /* \"#utility.yul\":9751:9775   */\n      tag_515\n        /* \"#utility.yul\":9769:9774   */\n      dup3\n        /* \"#utility.yul\":9751:9775   */\n      tag_322\n      jump\t// in\n    tag_515:\n        /* \"#utility.yul\":9740:9775   */\n      swap1\n      pop\n        /* \"#utility.yul\":9677:9781   */\n      swap2\n      swap1\n      pop\n      jump\t// out\n        /* \"#utility.yul\":9787:9925   */\n    tag_354:\n        /* \"#utility.yul\":9868:9900   */\n      tag_517\n        /* \"#utility.yul\":9894:9899   */\n      dup2\n        /* \"#utility.yul\":9868:9900   */\n      tag_353\n      jump\t// in\n    tag_517:\n        /* \"#utility.yul\":9861:9866   */\n      dup2\n        /* \"#utility.yul\":9858:9901   */\n      eq\n        /* \"#utility.yul\":9848:9919   */\n      tag_518\n      jumpi\n        /* \"#utility.yul\":9915:9916   */\n      0x00\n        /* \"#utility.yul\":9912:9913   */\n      0x00\n        /* \"#utility.yul\":9905:9917   */\n      revert\n        /* \"#utility.yul\":9848:9919   */\n    tag_518:\n        /* \"#utility.yul\":9787:9925   */\n      pop\n      jump\t// out\n        /* \"#utility.yul\":9931:10086   */\n    tag_355:\n        /* \"#utility.yul\":9985:9990   */\n      0x00\n        /* \"#utility.yul\":10023:10029   */\n      dup2\n        /* \"#utility.yul\":10010:10030   */\n      calldataload\n        /* \"#utility.yul\":10001:10030   */\n      swap1\n      pop\n        /* \"#utility.yul\":10039:10080   */\n      tag_520\n        /* \"#utility.yul\":10074:10079   */\n      dup2\n        /* \"#utility.yul\":10039:10080   */\n      tag_354\n      jump\t// in\n    tag_520:\n        /* \"#utility.yul\":9931:10086   */\n      swap3\n      swap2\n      pop\n      pop\n      jump\t// out\n        /* \"#utility.yul\":10092:10582   */\n    tag_55:\n        /* \"#utility.yul\":10168:10174   */\n      0x00\n        /* \"#utility.yul\":10176:10182   */\n      0x00\n        /* \"#utility.yul\":10225:10227   */\n      0x40\n        /* \"#utility.yul\":10213:10222   */\n      dup4\n        /* \"#utility.yul\":10204:10211   */\n      dup6\n        /* \"#utility.yul\":10200:10223   */\n      sub\n        /* \"#utility.yul\":10196:10228   */\n      slt\n        /* \"#utility.yul\":10193:10312   */\n      iszero\n      tag_522\n      jumpi\n        /* \"#utility.yul\":10231:10310   */\n      tag_523\n      tag_320\n      jump\t// in\n    tag_523:\n        /* \"#utility.yul\":10193:10312   */\n    tag_522:\n        /* \"#utility.yul\":10351:10352   */\n      0x00\n        /* \"#utility.yul\":10376:10437   */\n      tag_524\n        /* \"#utility.yul\":10429:10436   */\n      dup6\n        /* \"#utility.yul\":10420:10426   */\n      dup3\n        /* \"#utility.yul\":10409:10418   */\n      dup7\n        /* \"#utility.yul\":10405:10427   */\n      add\n        /* \"#utility.yul\":10376:10437   */\n      tag_355\n      jump\t// in\n    tag_524:\n        /* \"#utility.yul\":10366:10437   */\n      swap3\n      pop\n        /* \"#utility.yul\":10322:10447   */\n      pop\n        /* \"#utility.yul\":10486:10488   */\n      0x20\n        /* \"#utility.yul\":10512:10565   */\n      tag_525\n        /* \"#utility.yul\":10557:10564   */\n      dup6\n        /* \"#utility.yul\":10548:10554   */\n      dup3\n        /* \"#utility.yul\":10537:10546   */\n      dup7\n        /* \"#utility.yul\":10533:10555   */\n      add\n        /* \"#utility.yul\":10512:10565   */\n      tag_327\n      jump\t// in\n    tag_525:\n        /* \"#utility.yul\":10502:10565   */\n      swap2\n      pop\n        /* \"#utility.yul\":10457:10575   */\n      pop\n        /* \"#utility.yul\":10092:10582   */\n      swap3\n      pop\n      swap3\n      swap1\n      pop\n      jump\t// out\n        /* \"#utility.yul\":10588:10678   */\n    tag_356:\n        /* \"#utility.yul\":10622:10629   */\n      0x00\n        /* \"#utility.yul\":10665:10670   */\n      dup2\n        /* \"#utility.yul\":10658:10671   */\n      iszero\n        /* \"#utility.yul\":10651:10672   */\n      iszero\n        /* \"#utility.yul\":10640:10672   */\n      swap1\n      pop\n        /* \"#utility.yul\":10588:10678   */\n      swap2\n      swap1\n      pop\n      jump\t// out\n        /* \"#utility.yul\":10684:10793   */\n    tag_357:\n        /* \"#utility.yul\":10765:10786   */\n      tag_528\n        /* \"#utility.yul\":10780:10785   */\n      dup2\n        /* \"#utility.yul\":10765:10786   */\n      tag_356\n      jump\t// in\n    tag_528:\n        /* \"#utility.yul\":10760:10763   */\n      dup3\n        /* \"#utility.yul\":10753:10787   */\n      mstore\n        /* \"#utility.yul\":10684:10793   */\n      pop\n      pop\n      jump\t// out\n        /* \"#utility.yul\":10799:11009   */\n    tag_61:\n        /* \"#utility.yul\":10886:10890   */\n      0x00\n        /* \"#utility.yul\":10924:10926   */\n      0x20\n        /* \"#utility.yul\":10913:10922   */\n      dup3\n        /* \"#utility.yul\":10909:10927   */\n      add\n        /* \"#utility.yul\":10901:10927   */\n      swap1\n      pop\n        /* \"#utility.yul\":10937:11002   */\n      tag_530\n        /* \"#utility.yul\":10999:11000   */\n      0x00\n        /* \"#utility.yul\":10988:10997   */\n      dup4\n        /* \"#utility.yul\":10984:11001   */\n      add\n        /* \"#utility.yul\":10975:10981   */\n      dup5\n        /* \"#utility.yul\":10937:11002   */\n      tag_357\n      jump\t// in\n    tag_530:\n        /* \"#utility.yul\":10799:11009   */\n      swap3\n      swap2\n      pop\n      pop\n      jump\t// out\n        /* \"#utility.yul\":11015:11524   */\n    tag_65:\n        /* \"#utility.yul\":11084:11090   */\n      0x00\n        /* \"#utility.yul\":11133:11135   */\n      0x20\n        /* \"#utility.yul\":11121:11130   */\n      dup3\n        /* \"#utility.yul\":11112:11119   */\n      dup5\n        /* \"#utility.yul\":11108:11131   */\n      sub\n        /* \"#utility.yul\":11104:11136   */\n      slt\n        /* \"#utility.yul\":11101:11220   */\n      iszero\n      tag_532\n      jumpi\n        /* \"#utility.yul\":11139:11218   */\n      tag_533\n      tag_320\n      jump\t// in\n    tag_533:\n        /* \"#utility.yul\":11101:11220   */\n    tag_532:\n        /* \"#utility.yul\":11287:11288   */\n      0x00\n        /* \"#utility.yul\":11276:11285   */\n      dup3\n        /* \"#utility.yul\":11272:11289   */\n      add\n        /* \"#utility.yul\":11259:11290   */\n      calldataload\n        /* \"#utility.yul\":11317:11335   */\n      0xffffffffffffffff\n        /* \"#utility.yul\":11309:11315   */\n      dup2\n        /* \"#utility.yul\":11306:11336   */\n      gt\n        /* \"#utility.yul\":11303:11420   */\n      iszero\n      tag_534\n      jumpi\n        /* \"#utility.yul\":11339:11418   */\n      tag_535\n      tag_321\n      jump\t// in\n    tag_535:\n        /* \"#utility.yul\":11303:11420   */\n    tag_534:\n        /* \"#utility.yul\":11444:11507   */\n      tag_536\n        /* \"#utility.yul\":11499:11506   */\n      dup5\n        /* \"#utility.yul\":11490:11496   */\n      dup3\n        /* \"#utility.yul\":11479:11488   */\n      dup6\n        /* \"#utility.yul\":11475:11497   */\n      add\n        /* \"#utility.yul\":11444:11507   */\n      tag_344\n      jump\t// in\n    tag_536:\n        /* \"#utility.yul\":11434:11507   */\n      swap2\n      pop\n        /* \"#utility.yul\":11230:11517   */\n      pop\n        /* \"#utility.yul\":11015:11524   */\n      swap3\n      swap2\n      pop\n      pop\n      jump\t// out\n        /* \"#utility.yul\":11530:11752   */\n    tag_77:\n        /* \"#utility.yul\":11623:11627   */\n      0x00\n        /* \"#utility.yul\":11661:11663   */\n      0x20\n        /* \"#utility.yul\":11650:11659   */\n      dup3\n        /* \"#utility.yul\":11646:11664   */\n      add\n        /* \"#utility.yul\":11638:11664   */\n      swap1\n      pop\n        /* \"#utility.yul\":11674:11745   */\n      tag_538\n        /* \"#utility.yul\":11742:11743   */\n      0x00\n        /* \"#utility.yul\":11731:11740   */\n      dup4\n        /* \"#utility.yul\":11727:11744   */\n      add\n        /* \"#utility.yul\":11718:11724   */\n      dup5\n        /* \"#utility.yul\":11674:11745   */\n      tag_328\n      jump\t// in\n    tag_538:\n        /* \"#utility.yul\":11530:11752   */\n      swap3\n      swap2\n      pop\n      pop\n      jump\t// out\n        /* \"#utility.yul\":11758:12087   */\n    tag_81:\n        /* \"#utility.yul\":11817:11823   */\n      0x00\n        /* \"#utility.yul\":11866:11868   */\n      0x20\n        /* \"#utility.yul\":11854:11863   */\n      dup3\n        /* \"#utility.yul\":11845:11852   */\n      dup5\n        /* \"#utility.yul\":11841:11864   */\n      sub\n        /* \"#utility.yul\":11837:11869   */\n      slt\n        /* \"#utility.yul\":11834:11953   */\n      iszero\n      tag_540\n      jumpi\n        /* \"#utility.yul\":11872:11951   */\n      tag_541\n      tag_320\n      jump\t// in\n    tag_541:\n        /* \"#utility.yul\":11834:11953   */\n    tag_540:\n        /* \"#utility.yul\":11992:11993   */\n      0x00\n        /* \"#utility.yul\":12017:12070   */\n      tag_542\n        /* \"#utility.yul\":12062:12069   */\n      dup5\n        /* \"#utility.yul\":12053:12059   */\n      dup3\n        /* \"#utility.yul\":12042:12051   */\n      dup6\n        /* \"#utility.yul\":12038:12060   */\n      add\n        /* \"#utility.yul\":12017:12070   */\n      tag_327\n      jump\t// in\n    tag_542:\n        /* \"#utility.yul\":12007:12070   */\n      swap2\n      pop\n        /* \"#utility.yul\":11963:12080   */\n      pop\n        /* \"#utility.yul\":11758:12087   */\n      swap3\n      swap2\n      pop\n      pop\n      jump\t// out\n        /* \"#utility.yul\":12093:12422   */\n    tag_86:\n        /* \"#utility.yul\":12152:12158   */\n      0x00\n        /* \"#utility.yul\":12201:12203   */\n      0x20\n        /* \"#utility.yul\":12189:12198   */\n      dup3\n        /* \"#utility.yul\":12180:12187   */\n      dup5\n        /* \"#utility.yul\":12176:12199   */\n      sub\n        /* \"#utility.yul\":12172:12204   */\n      slt\n        /* \"#utility.yul\":12169:12288   */\n      iszero\n      tag_544\n      jumpi\n        /* \"#utility.yul\":12207:12286   */\n      tag_545\n      tag_320\n      jump\t// in\n    tag_545:\n        /* \"#utility.yul\":12169:12288   */\n    tag_544:\n        /* \"#utility.yul\":12327:12328   */\n      0x00\n        /* \"#utility.yul\":12352:12405   */\n      tag_546\n        /* \"#utility.yul\":12397:12404   */\n      dup5\n        /* \"#utility.yul\":12388:12394   */\n      dup3\n        /* \"#utility.yul\":12377:12386   */\n      dup6\n        /* \"#utility.yul\":12373:12395   */\n      add\n        /* \"#utility.yul\":12352:12405   */\n      tag_325\n      jump\t// in\n    tag_546:\n        /* \"#utility.yul\":12342:12405   */\n      swap2\n      pop\n        /* \"#utility.yul\":12298:12415   */\n      pop\n        /* \"#utility.yul\":12093:12422   */\n      swap3\n      swap2\n      pop\n      pop\n      jump\t// out\n        /* \"#utility.yul\":12428:12576   */\n    tag_358:\n        /* \"#utility.yul\":12529:12535   */\n      0x00\n        /* \"#utility.yul\":12563:12568   */\n      dup2\n        /* \"#utility.yul\":12557:12569   */\n      mload\n        /* \"#utility.yul\":12547:12569   */\n      swap1\n      pop\n        /* \"#utility.yul\":12428:12576   */\n      swap2\n      swap1\n      pop\n      jump\t// out\n        /* \"#utility.yul\":12582:12800   */\n    tag_359:\n        /* \"#utility.yul\":12715:12726   */\n      0x00\n        /* \"#utility.yul\":12749:12755   */\n      dup3\n        /* \"#utility.yul\":12744:12747   */\n      dup3\n        /* \"#utility.yul\":12737:12756   */\n      mstore\n        /* \"#utility.yul\":12789:12793   */\n      0x20\n        /* \"#utility.yul\":12784:12787   */\n      dup3\n        /* \"#utility.yul\":12780:12794   */\n      add\n        /* \"#utility.yul\":12765:12794   */\n      swap1\n      pop\n        /* \"#utility.yul\":12582:12800   */\n      swap3\n      swap2\n      pop\n      pop\n      jump\t// out\n        /* \"#utility.yul\":12806:12972   */\n    tag_360:\n        /* \"#utility.yul\":12907:12911   */\n      0x00\n        /* \"#utility.yul\":12930:12933   */\n      dup2\n        /* \"#utility.yul\":12922:12933   */\n      swap1\n      pop\n        /* \"#utility.yul\":12960:12964   */\n      0x20\n        /* \"#utility.yul\":12955:12958   */\n      dup3\n        /* \"#utility.yul\":12951:12965   */\n      add\n        /* \"#utility.yul\":12943:12965   */\n      swap1\n      pop\n        /* \"#utility.yul\":12806:12972   */\n      swap2\n      swap1\n      pop\n      jump\t// out\n        /* \"#utility.yul\":12978:13086   */\n    tag_361:\n        /* \"#utility.yul\":13055:13079   */\n      tag_551\n        /* \"#utility.yul\":13073:13078   */\n      dup2\n        /* \"#utility.yul\":13055:13079   */\n      tag_323\n      jump\t// in\n    tag_551:\n        /* \"#utility.yul\":13050:13053   */\n      dup3\n        /* \"#utility.yul\":13043:13080   */\n      mstore\n        /* \"#utility.yul\":12978:13086   */\n      pop\n      pop\n      jump\t// out\n        /* \"#utility.yul\":13092:13194   */\n    tag_362:\n        /* \"#utility.yul\":13165:13187   */\n      tag_553\n        /* \"#utility.yul\":13181:13186   */\n      dup2\n        /* \"#utility.yul\":13165:13187   */\n      tag_334\n      jump\t// in\n    tag_553:\n        /* \"#utility.yul\":13160:13163   */\n      dup3\n        /* \"#utility.yul\":13153:13188   */\n      mstore\n        /* \"#utility.yul\":13092:13194   */\n      pop\n      pop\n      jump\t// out\n        /* \"#utility.yul\":13200:13308   */\n    tag_363:\n        /* \"#utility.yul\":13277:13301   */\n      tag_555\n        /* \"#utility.yul\":13295:13300   */\n      dup2\n        /* \"#utility.yul\":13277:13301   */\n      tag_317\n      jump\t// in\n    tag_555:\n        /* \"#utility.yul\":13272:13275   */\n      dup3\n        /* \"#utility.yul\":13265:13302   */\n      mstore\n        /* \"#utility.yul\":13200:13308   */\n      pop\n      pop\n      jump\t// out\n        /* \"#utility.yul\":13388:14606   */\n    tag_364:\n        /* \"#utility.yul\":13515:13518   */\n      0x00\n        /* \"#utility.yul\":13551:13555   */\n      0xa0\n        /* \"#utility.yul\":13546:13549   */\n      dup4\n        /* \"#utility.yul\":13542:13556   */\n      add\n        /* \"#utility.yul\":13642:13646   */\n      0x00\n        /* \"#utility.yul\":13635:13640   */\n      dup4\n        /* \"#utility.yul\":13631:13647   */\n      add\n        /* \"#utility.yul\":13625:13648   */\n      mload\n        /* \"#utility.yul\":13661:13724   */\n      tag_557\n        /* \"#utility.yul\":13718:13722   */\n      0x00\n        /* \"#utility.yul\":13713:13716   */\n      dup7\n        /* \"#utility.yul\":13709:13723   */\n      add\n        /* \"#utility.yul\":13695:13707   */\n      dup3\n        /* \"#utility.yul\":13661:13724   */\n      tag_361\n      jump\t// in\n    tag_557:\n        /* \"#utility.yul\":13566:13734   */\n      pop\n        /* \"#utility.yul\":13818:13822   */\n      0x20\n        /* \"#utility.yul\":13811:13816   */\n      dup4\n        /* \"#utility.yul\":13807:13823   */\n      add\n        /* \"#utility.yul\":13801:13824   */\n      mload\n        /* \"#utility.yul\":13871:13874   */\n      dup5\n        /* \"#utility.yul\":13865:13869   */\n      dup3\n        /* \"#utility.yul\":13861:13875   */\n      sub\n        /* \"#utility.yul\":13854:13858   */\n      0x20\n        /* \"#utility.yul\":13849:13852   */\n      dup7\n        /* \"#utility.yul\":13845:13859   */\n      add\n        /* \"#utility.yul\":13838:13876   */\n      mstore\n        /* \"#utility.yul\":13897:13970   */\n      tag_558\n        /* \"#utility.yul\":13965:13969   */\n      dup3\n        /* \"#utility.yul\":13951:13963   */\n      dup3\n        /* \"#utility.yul\":13897:13970   */\n      tag_349\n      jump\t// in\n    tag_558:\n        /* \"#utility.yul\":13889:13970   */\n      swap2\n      pop\n        /* \"#utility.yul\":13744:13981   */\n      pop\n        /* \"#utility.yul\":14066:14070   */\n      0x40\n        /* \"#utility.yul\":14059:14064   */\n      dup4\n        /* \"#utility.yul\":14055:14071   */\n      add\n        /* \"#utility.yul\":14049:14072   */\n      mload\n        /* \"#utility.yul\":14119:14122   */\n      dup5\n        /* \"#utility.yul\":14113:14117   */\n      dup3\n        /* \"#utility.yul\":14109:14123   */\n      sub\n        /* \"#utility.yul\":14102:14106   */\n      0x40\n        /* \"#utility.yul\":14097:14100   */\n      dup7\n        /* \"#utility.yul\":14093:14107   */\n      add\n        /* \"#utility.yul\":14086:14124   */\n      mstore\n        /* \"#utility.yul\":14145:14218   */\n      tag_559\n        /* \"#utility.yul\":14213:14217   */\n      dup3\n        /* \"#utility.yul\":14199:14211   */\n      dup3\n        /* \"#utility.yul\":14145:14218   */\n      tag_349\n      jump\t// in\n    tag_559:\n        /* \"#utility.yul\":14137:14218   */\n      swap2\n      pop\n        /* \"#utility.yul\":13991:14229   */\n      pop\n        /* \"#utility.yul\":14312:14316   */\n      0x60\n        /* \"#utility.yul\":14305:14310   */\n      dup4\n        /* \"#utility.yul\":14301:14317   */\n      add\n        /* \"#utility.yul\":14295:14318   */\n      mload\n        /* \"#utility.yul\":14331:14390   */\n      tag_560\n        /* \"#utility.yul\":14384:14388   */\n      0x60\n        /* \"#utility.yul\":14379:14382   */\n      dup7\n        /* \"#utility.yul\":14375:14389   */\n      add\n        /* \"#utility.yul\":14361:14373   */\n      dup3\n        /* \"#utility.yul\":14331:14390   */\n      tag_362\n      jump\t// in\n    tag_560:\n        /* \"#utility.yul\":14239:14400   */\n      pop\n        /* \"#utility.yul\":14487:14491   */\n      0x80\n        /* \"#utility.yul\":14480:14485   */\n      dup4\n        /* \"#utility.yul\":14476:14492   */\n      add\n        /* \"#utility.yul\":14470:14493   */\n      mload\n        /* \"#utility.yul\":14506:14569   */\n      tag_561\n        /* \"#utility.yul\":14563:14567   */\n      0x80\n        /* \"#utility.yul\":14558:14561   */\n      dup7\n        /* \"#utility.yul\":14554:14568   */\n      add\n        /* \"#utility.yul\":14540:14552   */\n      dup3\n        /* \"#utility.yul\":14506:14569   */\n      tag_363\n      jump\t// in\n    tag_561:\n        /* \"#utility.yul\":14410:14579   */\n      pop\n        /* \"#utility.yul\":14596:14600   */\n      dup1\n        /* \"#utility.yul\":14589:14600   */\n      swap2\n      pop\n        /* \"#utility.yul\":13520:14606   */\n      pop\n        /* \"#utility.yul\":13388:14606   */\n      swap3\n      swap2\n      pop\n      pop\n      jump\t// out\n        /* \"#utility.yul\":14612:14904   */\n    tag_365:\n        /* \"#utility.yul\":14749:14759   */\n      0x00\n        /* \"#utility.yul\":14784:14898   */\n      tag_563\n        /* \"#utility.yul\":14894:14897   */\n      dup4\n        /* \"#utility.yul\":14886:14892   */\n      dup4\n        /* \"#utility.yul\":14784:14898   */\n      tag_364\n      jump\t// in\n    tag_563:\n        /* \"#utility.yul\":14770:14898   */\n      swap1\n      pop\n        /* \"#utility.yul\":14612:14904   */\n      swap3\n      swap2\n      pop\n      pop\n      jump\t// out\n        /* \"#utility.yul\":14910:15057   */\n    tag_366:\n        /* \"#utility.yul\":15014:15018   */\n      0x00\n        /* \"#utility.yul\":15046:15050   */\n      0x20\n        /* \"#utility.yul\":15041:15044   */\n      dup3\n        /* \"#utility.yul\":15037:15051   */\n      add\n        /* \"#utility.yul\":15029:15051   */\n      swap1\n      pop\n        /* \"#utility.yul\":14910:15057   */\n      swap2\n      swap1\n      pop\n      jump\t// out\n        /* \"#utility.yul\":15141:16324   */\n    tag_367:\n        /* \"#utility.yul\":15328:15331   */\n      0x00\n        /* \"#utility.yul\":15357:15445   */\n      tag_566\n        /* \"#utility.yul\":15439:15444   */\n      dup3\n        /* \"#utility.yul\":15357:15445   */\n      tag_358\n      jump\t// in\n    tag_566:\n        /* \"#utility.yul\":15461:15581   */\n      tag_567\n        /* \"#utility.yul\":15574:15580   */\n      dup2\n        /* \"#utility.yul\":15569:15572   */\n      dup6\n        /* \"#utility.yul\":15461:15581   */\n      tag_359\n      jump\t// in\n    tag_567:\n        /* \"#utility.yul\":15454:15581   */\n      swap4\n      pop\n        /* \"#utility.yul\":15607:15610   */\n      dup4\n        /* \"#utility.yul\":15652:15656   */\n      0x20\n        /* \"#utility.yul\":15644:15650   */\n      dup3\n        /* \"#utility.yul\":15640:15657   */\n      mul\n        /* \"#utility.yul\":15635:15638   */\n      dup6\n        /* \"#utility.yul\":15631:15658   */\n      add\n        /* \"#utility.yul\":15682:15772   */\n      tag_568\n        /* \"#utility.yul\":15766:15771   */\n      dup6\n        /* \"#utility.yul\":15682:15772   */\n      tag_360\n      jump\t// in\n    tag_568:\n        /* \"#utility.yul\":15795:15802   */\n      dup1\n        /* \"#utility.yul\":15826:15827   */\n      0x00\n        /* \"#utility.yul\":15811:16279   */\n    tag_569:\n        /* \"#utility.yul\":15836:15842   */\n      dup6\n        /* \"#utility.yul\":15833:15834   */\n      dup2\n        /* \"#utility.yul\":15830:15843   */\n      lt\n        /* \"#utility.yul\":15811:16279   */\n      iszero\n      tag_571\n      jumpi\n        /* \"#utility.yul\":15907:15916   */\n      dup5\n        /* \"#utility.yul\":15901:15905   */\n      dup5\n        /* \"#utility.yul\":15897:15917   */\n      sub\n        /* \"#utility.yul\":15892:15895   */\n      dup10\n        /* \"#utility.yul\":15885:15918   */\n      mstore\n        /* \"#utility.yul\":15958:15964   */\n      dup2\n        /* \"#utility.yul\":15952:15965   */\n      mload\n        /* \"#utility.yul\":15986:16118   */\n      tag_572\n        /* \"#utility.yul\":16113:16117   */\n      dup6\n        /* \"#utility.yul\":16098:16111   */\n      dup3\n        /* \"#utility.yul\":15986:16118   */\n      tag_365\n      jump\t// in\n    tag_572:\n        /* \"#utility.yul\":15978:16118   */\n      swap5\n      pop\n        /* \"#utility.yul\":16141:16235   */\n      tag_573\n        /* \"#utility.yul\":16228:16234   */\n      dup4\n        /* \"#utility.yul\":16141:16235   */\n      tag_366\n      jump\t// in\n    tag_573:\n        /* \"#utility.yul\":16131:16235   */\n      swap3\n      pop\n        /* \"#utility.yul\":16264:16268   */\n      0x20\n        /* \"#utility.yul\":16259:16262   */\n      dup11\n        /* \"#utility.yul\":16255:16269   */\n      add\n        /* \"#utility.yul\":16248:16269   */\n      swap10\n      pop\n        /* \"#utility.yul\":15871:16279   */\n      pop\n        /* \"#utility.yul\":15858:15859   */\n      0x01\n        /* \"#utility.yul\":15855:15856   */\n      dup2\n        /* \"#utility.yul\":15851:15860   */\n      add\n        /* \"#utility.yul\":15846:15860   */\n      swap1\n      pop\n        /* \"#utility.yul\":15811:16279   */\n      jump(tag_569)\n    tag_571:\n        /* \"#utility.yul\":15815:15829   */\n      pop\n        /* \"#utility.yul\":16295:16299   */\n      dup3\n        /* \"#utility.yul\":16288:16299   */\n      swap8\n      pop\n        /* \"#utility.yul\":16315:16318   */\n      dup8\n        /* \"#utility.yul\":16308:16318   */\n      swap6\n      pop\n        /* \"#utility.yul\":15333:16324   */\n      pop\n      pop\n      pop\n      pop\n      pop\n        /* \"#utility.yul\":15141:16324   */\n      swap3\n      swap2\n      pop\n      pop\n      jump\t// out\n        /* \"#utility.yul\":16330:16839   */\n    tag_89:\n        /* \"#utility.yul\":16541:16545   */\n      0x00\n        /* \"#utility.yul\":16579:16581   */\n      0x20\n        /* \"#utility.yul\":16568:16577   */\n      dup3\n        /* \"#utility.yul\":16564:16582   */\n      add\n        /* \"#utility.yul\":16556:16582   */\n      swap1\n      pop\n        /* \"#utility.yul\":16628:16637   */\n      dup2\n        /* \"#utility.yul\":16622:16626   */\n      dup2\n        /* \"#utility.yul\":16618:16638   */\n      sub\n        /* \"#utility.yul\":16614:16615   */\n      0x00\n        /* \"#utility.yul\":16603:16612   */\n      dup4\n        /* \"#utility.yul\":16599:16616   */\n      add\n        /* \"#utility.yul\":16592:16639   */\n      mstore\n        /* \"#utility.yul\":16656:16832   */\n      tag_575\n        /* \"#utility.yul\":16827:16831   */\n      dup2\n        /* \"#utility.yul\":16818:16824   */\n      dup5\n        /* \"#utility.yul\":16656:16832   */\n      tag_367\n      jump\t// in\n    tag_575:\n        /* \"#utility.yul\":16648:16832   */\n      swap1\n      pop\n        /* \"#utility.yul\":16330:16839   */\n      swap3\n      swap2\n      pop\n      pop\n      jump\t// out\n        /* \"#utility.yul\":16845:17158   */\n    tag_95:\n        /* \"#utility.yul\":16958:16962   */\n      0x00\n        /* \"#utility.yul\":16996:16998   */\n      0x20\n        /* \"#utility.yul\":16985:16994   */\n      dup3\n        /* \"#utility.yul\":16981:16999   */\n      add\n        /* \"#utility.yul\":16973:16999   */\n      swap1\n      pop\n        /* \"#utility.yul\":17045:17054   */\n      dup2\n        /* \"#utility.yul\":17039:17043   */\n      dup2\n        /* \"#utility.yul\":17035:17055   */\n      sub\n        /* \"#utility.yul\":17031:17032   */\n      0x00\n        /* \"#utility.yul\":17020:17029   */\n      dup4\n        /* \"#utility.yul\":17016:17033   */\n      add\n        /* \"#utility.yul\":17009:17056   */\n      mstore\n        /* \"#utility.yul\":17073:17151   */\n      tag_577\n        /* \"#utility.yul\":17146:17150   */\n      dup2\n        /* \"#utility.yul\":17137:17143   */\n      dup5\n        /* \"#utility.yul\":17073:17151   */\n      tag_333\n      jump\t// in\n    tag_577:\n        /* \"#utility.yul\":17065:17151   */\n      swap1\n      pop\n        /* \"#utility.yul\":16845:17158   */\n      swap3\n      swap2\n      pop\n      pop\n      jump\t// out\n        /* \"#utility.yul\":17164:17282   */\n    tag_368:\n        /* \"#utility.yul\":17235:17257   */\n      tag_579\n        /* \"#utility.yul\":17251:17256   */\n      dup2\n        /* \"#utility.yul\":17235:17257   */\n      tag_334\n      jump\t// in\n    tag_579:\n        /* \"#utility.yul\":17228:17233   */\n      dup2\n        /* \"#utility.yul\":17225:17258   */\n      eq\n        /* \"#utility.yul\":17215:17276   */\n      tag_580\n      jumpi\n        /* \"#utility.yul\":17272:17273   */\n      0x00\n        /* \"#utility.yul\":17269:17270   */\n      0x00\n        /* \"#utility.yul\":17262:17274   */\n      revert\n        /* \"#utility.yul\":17215:17276   */\n    tag_580:\n        /* \"#utility.yul\":17164:17282   */\n      pop\n      jump\t// out\n        /* \"#utility.yul\":17288:17423   */\n    tag_369:\n        /* \"#utility.yul\":17332:17337   */\n      0x00\n        /* \"#utility.yul\":17370:17376   */\n      dup2\n        /* \"#utility.yul\":17357:17377   */\n      calldataload\n        /* \"#utility.yul\":17348:17377   */\n      swap1\n      pop\n        /* \"#utility.yul\":17386:17417   */\n      tag_582\n        /* \"#utility.yul\":17411:17416   */\n      dup2\n        /* \"#utility.yul\":17386:17417   */\n      tag_368\n      jump\t// in\n    tag_582:\n        /* \"#utility.yul\":17288:17423   */\n      swap3\n      swap2\n      pop\n      pop\n      jump\t// out\n        /* \"#utility.yul\":17429:18550   */\n    tag_106:\n        /* \"#utility.yul\":17533:17539   */\n      0x00\n        /* \"#utility.yul\":17541:17547   */\n      0x00\n        /* \"#utility.yul\":17549:17555   */\n      0x00\n        /* \"#utility.yul\":17557:17563   */\n      0x00\n        /* \"#utility.yul\":17606:17609   */\n      0x80\n        /* \"#utility.yul\":17594:17603   */\n      dup6\n        /* \"#utility.yul\":17585:17592   */\n      dup8\n        /* \"#utility.yul\":17581:17604   */\n      sub\n        /* \"#utility.yul\":17577:17610   */\n      slt\n        /* \"#utility.yul\":17574:17694   */\n      iszero\n      tag_584\n      jumpi\n        /* \"#utility.yul\":17613:17692   */\n      tag_585\n      tag_320\n      jump\t// in\n    tag_585:\n        /* \"#utility.yul\":17574:17694   */\n    tag_584:\n        /* \"#utility.yul\":17733:17734   */\n      0x00\n        /* \"#utility.yul\":17758:17811   */\n      tag_586\n        /* \"#utility.yul\":17803:17810   */\n      dup8\n        /* \"#utility.yul\":17794:17800   */\n      dup3\n        /* \"#utility.yul\":17783:17792   */\n      dup9\n        /* \"#utility.yul\":17779:17801   */\n      add\n        /* \"#utility.yul\":17758:17811   */\n      tag_325\n      jump\t// in\n    tag_586:\n        /* \"#utility.yul\":17748:17811   */\n      swap5\n      pop\n        /* \"#utility.yul\":17704:17821   */\n      pop\n        /* \"#utility.yul\":17888:17890   */\n      0x20\n        /* \"#utility.yul\":17877:17886   */\n      dup6\n        /* \"#utility.yul\":17873:17891   */\n      add\n        /* \"#utility.yul\":17860:17892   */\n      calldataload\n        /* \"#utility.yul\":17919:17937   */\n      0xffffffffffffffff\n        /* \"#utility.yul\":17911:17917   */\n      dup2\n        /* \"#utility.yul\":17908:17938   */\n      gt\n        /* \"#utility.yul\":17905:18022   */\n      iszero\n      tag_587\n      jumpi\n        /* \"#utility.yul\":17941:18020   */\n      tag_588\n      tag_321\n      jump\t// in\n    tag_588:\n        /* \"#utility.yul\":17905:18022   */\n    tag_587:\n        /* \"#utility.yul\":18046:18109   */\n      tag_589\n        /* \"#utility.yul\":18101:18108   */\n      dup8\n        /* \"#utility.yul\":18092:18098   */\n      dup3\n        /* \"#utility.yul\":18081:18090   */\n      dup9\n        /* \"#utility.yul\":18077:18099   */\n      add\n        /* \"#utility.yul\":18046:18109   */\n      tag_344\n      jump\t// in\n    tag_589:\n        /* \"#utility.yul\":18036:18109   */\n      swap4\n      pop\n        /* \"#utility.yul\":17831:18119   */\n      pop\n        /* \"#utility.yul\":18186:18188   */\n      0x40\n        /* \"#utility.yul\":18175:18184   */\n      dup6\n        /* \"#utility.yul\":18171:18189   */\n      add\n        /* \"#utility.yul\":18158:18190   */\n      calldataload\n        /* \"#utility.yul\":18217:18235   */\n      0xffffffffffffffff\n        /* \"#utility.yul\":18209:18215   */\n      dup2\n        /* \"#utility.yul\":18206:18236   */\n      gt\n        /* \"#utility.yul\":18203:18320   */\n      iszero\n      tag_590\n      jumpi\n        /* \"#utility.yul\":18239:18318   */\n      tag_591\n      tag_321\n      jump\t// in\n    tag_591:\n        /* \"#utility.yul\":18203:18320   */\n    tag_590:\n        /* \"#utility.yul\":18344:18407   */\n      tag_592\n        /* \"#utility.yul\":18399:18406   */\n      dup8\n        /* \"#utility.yul\":18390:18396   */\n      dup3\n        /* \"#utility.yul\":18379:18388   */\n      dup9\n        /* \"#utility.yul\":18375:18397   */\n      add\n        /* \"#utility.yul\":18344:18407   */\n      tag_344\n      jump\t// in\n    tag_592:\n        /* \"#utility.yul\":18334:18407   */\n      swap3\n      pop\n        /* \"#utility.yul\":18129:18417   */\n      pop\n        /* \"#utility.yul\":18456:18458   */\n      0x60\n        /* \"#utility.yul\":18482:18533   */\n      tag_593\n        /* \"#utility.yul\":18525:18532   */\n      dup8\n        /* \"#utility.yul\":18516:18522   */\n      dup3\n        /* \"#utility.yul\":18505:18514   */\n      dup9\n        /* \"#utility.yul\":18501:18523   */\n      add\n        /* \"#utility.yul\":18482:18533   */\n      tag_369\n      jump\t// in\n    tag_593:\n        /* \"#utility.yul\":18472:18533   */\n      swap2\n      pop\n        /* \"#utility.yul\":18427:18543   */\n      pop\n        /* \"#utility.yul\":17429:18550   */\n      swap3\n      swap6\n      swap2\n      swap5\n      pop\n      swap3\n      pop\n      jump\t// out\n        /* \"#utility.yul\":18556:18736   */\n    tag_370:\n        /* \"#utility.yul\":18604:18681   */\n      0x4e487b7100000000000000000000000000000000000000000000000000000000\n        /* \"#utility.yul\":18601:18602   */\n      0x00\n        /* \"#utility.yul\":18594:18682   */\n      mstore\n        /* \"#utility.yul\":18701:18705   */\n      0x22\n        /* \"#utility.yul\":18698:18699   */\n      0x04\n        /* \"#utility.yul\":18691:18706   */\n      mstore\n        /* \"#utility.yul\":18725:18729   */\n      0x24\n        /* \"#utility.yul\":18722:18723   */\n      0x00\n        /* \"#utility.yul\":18715:18730   */\n      revert\n        /* \"#utility.yul\":18742:19062   */\n    tag_116:\n        /* \"#utility.yul\":18786:18792   */\n      0x00\n        /* \"#utility.yul\":18823:18824   */\n      0x02\n        /* \"#utility.yul\":18817:18821   */\n      dup3\n        /* \"#utility.yul\":18813:18825   */\n      div\n        /* \"#utility.yul\":18803:18825   */\n      swap1\n      pop\n        /* \"#utility.yul\":18870:18871   */\n      0x01\n        /* \"#utility.yul\":18864:18868   */\n      dup3\n        /* \"#utility.yul\":18860:18872   */\n      and\n        /* \"#utility.yul\":18891:18909   */\n      dup1\n        /* \"#utility.yul\":18881:18962   */\n      tag_596\n      jumpi\n        /* \"#utility.yul\":18947:18951   */\n      0x7f\n        /* \"#utility.yul\":18939:18945   */\n      dup3\n        /* \"#utility.yul\":18935:18952   */\n      and\n        /* \"#utility.yul\":18925:18952   */\n      swap2\n      pop\n        /* \"#utility.yul\":18881:18962   */\n    tag_596:\n        /* \"#utility.yul\":19009:19011   */\n      0x20\n        /* \"#utility.yul\":19001:19007   */\n      dup3\n        /* \"#utility.yul\":18998:19012   */\n      lt\n        /* \"#utility.yul\":18978:18996   */\n      dup2\n        /* \"#utility.yul\":18975:19013   */\n      sub\n        /* \"#utility.yul\":18972:19056   */\n      tag_597\n      jumpi\n        /* \"#utility.yul\":19028:19046   */\n      tag_598\n      tag_370\n      jump\t// in\n    tag_598:\n        /* \"#utility.yul\":18972:19056   */\n    tag_597:\n        /* \"#utility.yul\":18793:19062   */\n      pop\n        /* \"#utility.yul\":18742:19062   */\n      swap2\n      swap1\n      pop\n      jump\t// out\n        /* \"#utility.yul\":19068:19240   */\n    tag_371:\n        /* \"#utility.yul\":19208:19232   */\n      0x4f7074696f6e2063616e6e6f7420626520656d70747900000000000000000000\n        /* \"#utility.yul\":19204:19205   */\n      0x00\n        /* \"#utility.yul\":19196:19202   */\n      dup3\n        /* \"#utility.yul\":19192:19206   */\n      add\n        /* \"#utility.yul\":19185:19233   */\n      mstore\n        /* \"#utility.yul\":19068:19240   */\n      pop\n      jump\t// out\n        /* \"#utility.yul\":19246:19612   */\n    tag_372:\n        /* \"#utility.yul\":19388:19391   */\n      0x00\n        /* \"#utility.yul\":19409:19476   */\n      tag_601\n        /* \"#utility.yul\":19473:19475   */\n      0x16\n        /* \"#utility.yul\":19468:19471   */\n      dup4\n        /* \"#utility.yul\":19409:19476   */\n      tag_330\n      jump\t// in\n    tag_601:\n        /* \"#utility.yul\":19402:19476   */\n      swap2\n      pop\n        /* \"#utility.yul\":19485:19578   */\n      tag_602\n        /* \"#utility.yul\":19574:19577   */\n      dup3\n        /* \"#utility.yul\":19485:19578   */\n      tag_371\n      jump\t// in\n    tag_602:\n        /* \"#utility.yul\":19603:19605   */\n      0x20\n        /* \"#utility.yul\":19598:19601   */\n      dup3\n        /* \"#utility.yul\":19594:19606   */\n      add\n        /* \"#utility.yul\":19587:19606   */\n      swap1\n      pop\n        /* \"#utility.yul\":19246:19612   */\n      swap2\n      swap1\n      pop\n      jump\t// out\n        /* \"#utility.yul\":19618:20037   */\n    tag_132:\n        /* \"#utility.yul\":19784:19788   */\n      0x00\n        /* \"#utility.yul\":19822:19824   */\n      0x20\n        /* \"#utility.yul\":19811:19820   */\n      dup3\n        /* \"#utility.yul\":19807:19825   */\n      add\n        /* \"#utility.yul\":19799:19825   */\n      swap1\n      pop\n        /* \"#utility.yul\":19871:19880   */\n      dup2\n        /* \"#utility.yul\":19865:19869   */\n      dup2\n        /* \"#utility.yul\":19861:19881   */\n      sub\n        /* \"#utility.yul\":19857:19858   */\n      0x00\n        /* \"#utility.yul\":19846:19855   */\n      dup4\n        /* \"#utility.yul\":19842:19859   */\n      add\n        /* \"#utility.yul\":19835:19882   */\n      mstore\n        /* \"#utility.yul\":19899:20030   */\n      tag_604\n        /* \"#utility.yul\":20025:20029   */\n      dup2\n        /* \"#utility.yul\":19899:20030   */\n      tag_372\n      jump\t// in\n    tag_604:\n        /* \"#utility.yul\":19891:20030   */\n      swap1\n      pop\n        /* \"#utility.yul\":19618:20037   */\n      swap2\n      swap1\n      pop\n      jump\t// out\n        /* \"#utility.yul\":20043:20223   */\n    tag_138:\n        /* \"#utility.yul\":20091:20168   */\n      0x4e487b7100000000000000000000000000000000000000000000000000000000\n        /* \"#utility.yul\":20088:20089   */\n      0x00\n        /* \"#utility.yul\":20081:20169   */\n      mstore\n        /* \"#utility.yul\":20188:20192   */\n      0x32\n        /* \"#utility.yul\":20185:20186   */\n      0x04\n        /* \"#utility.yul\":20178:20193   */\n      mstore\n        /* \"#utility.yul\":20212:20216   */\n      0x24\n        /* \"#utility.yul\":20209:20210   */\n      0x00\n        /* \"#utility.yul\":20202:20217   */\n      revert\n        /* \"#utility.yul\":20229:20376   */\n    tag_373:\n        /* \"#utility.yul\":20330:20341   */\n      0x00\n        /* \"#utility.yul\":20367:20370   */\n      dup2\n        /* \"#utility.yul\":20352:20370   */\n      swap1\n      pop\n        /* \"#utility.yul\":20229:20376   */\n      swap3\n      swap2\n      pop\n      pop\n      jump\t// out\n        /* \"#utility.yul\":20382:20526   */\n    tag_374:\n        /* \"#utility.yul\":20434:20438   */\n      0x00\n        /* \"#utility.yul\":20457:20460   */\n      dup2\n        /* \"#utility.yul\":20449:20460   */\n      swap1\n      pop\n        /* \"#utility.yul\":20480:20483   */\n      dup2\n        /* \"#utility.yul\":20477:20478   */\n      0x00\n        /* \"#utility.yul\":20470:20484   */\n      mstore\n        /* \"#utility.yul\":20514:20518   */\n      0x20\n        /* \"#utility.yul\":20511:20512   */\n      0x00\n        /* \"#utility.yul\":20501:20519   */\n      keccak256\n        /* \"#utility.yul\":20493:20519   */\n      swap1\n      pop\n        /* \"#utility.yul\":20382:20526   */\n      swap2\n      swap1\n      pop\n      jump\t// out\n        /* \"#utility.yul\":20554:21432   */\n    tag_375:\n        /* \"#utility.yul\":20659:20662   */\n      0x00\n        /* \"#utility.yul\":20696:20701   */\n      dup2\n        /* \"#utility.yul\":20690:20702   */\n      sload\n        /* \"#utility.yul\":20725:20761   */\n      tag_609\n        /* \"#utility.yul\":20751:20760   */\n      dup2\n        /* \"#utility.yul\":20725:20761   */\n      tag_116\n      jump\t// in\n    tag_609:\n        /* \"#utility.yul\":20777:20865   */\n      tag_610\n        /* \"#utility.yul\":20858:20864   */\n      dup2\n        /* \"#utility.yul\":20853:20856   */\n      dup7\n        /* \"#utility.yul\":20777:20865   */\n      tag_373\n      jump\t// in\n    tag_610:\n        /* \"#utility.yul\":20770:20865   */\n      swap5\n      pop\n        /* \"#utility.yul\":20896:20897   */\n      0x01\n        /* \"#utility.yul\":20885:20894   */\n      dup3\n        /* \"#utility.yul\":20881:20898   */\n      and\n        /* \"#utility.yul\":20912:20913   */\n      0x00\n        /* \"#utility.yul\":20907:21073   */\n      dup2\n      eq\n      tag_612\n      jumpi\n        /* \"#utility.yul\":21087:21088   */\n      0x01\n        /* \"#utility.yul\":21082:21426   */\n      dup2\n      eq\n      tag_613\n      jumpi\n        /* \"#utility.yul\":20874:21426   */\n      jump(tag_611)\n        /* \"#utility.yul\":20907:21073   */\n    tag_612:\n        /* \"#utility.yul\":20991:20995   */\n      0xff\n        /* \"#utility.yul\":20987:20996   */\n      not\n        /* \"#utility.yul\":20976:20985   */\n      dup4\n        /* \"#utility.yul\":20972:20997   */\n      and\n        /* \"#utility.yul\":20967:20970   */\n      dup7\n        /* \"#utility.yul\":20960:20998   */\n      mstore\n        /* \"#utility.yul\":21053:21059   */\n      dup2\n        /* \"#utility.yul\":21046:21060   */\n      iszero\n        /* \"#utility.yul\":21039:21061   */\n      iszero\n        /* \"#utility.yul\":21031:21037   */\n      dup3\n        /* \"#utility.yul\":21027:21062   */\n      mul\n        /* \"#utility.yul\":21022:21025   */\n      dup7\n        /* \"#utility.yul\":21018:21063   */\n      add\n        /* \"#utility.yul\":21011:21063   */\n      swap4\n      pop\n        /* \"#utility.yul\":20907:21073   */\n      jump(tag_611)\n        /* \"#utility.yul\":21082:21426   */\n    tag_613:\n        /* \"#utility.yul\":21149:21190   */\n      tag_614\n        /* \"#utility.yul\":21184:21189   */\n      dup6\n        /* \"#utility.yul\":21149:21190   */\n      tag_374\n      jump\t// in\n    tag_614:\n        /* \"#utility.yul\":21212:21213   */\n      0x00\n        /* \"#utility.yul\":21226:21380   */\n    tag_615:\n        /* \"#utility.yul\":21240:21246   */\n      dup4\n        /* \"#utility.yul\":21237:21238   */\n      dup2\n        /* \"#utility.yul\":21234:21247   */\n      lt\n        /* \"#utility.yul\":21226:21380   */\n      iszero\n      tag_617\n      jumpi\n        /* \"#utility.yul\":21314:21321   */\n      dup2\n        /* \"#utility.yul\":21308:21322   */\n      sload\n        /* \"#utility.yul\":21304:21305   */\n      dup2\n        /* \"#utility.yul\":21299:21302   */\n      dup10\n        /* \"#utility.yul\":21295:21306   */\n      add\n        /* \"#utility.yul\":21288:21323   */\n      mstore\n        /* \"#utility.yul\":21364:21365   */\n      0x01\n        /* \"#utility.yul\":21355:21362   */\n      dup3\n        /* \"#utility.yul\":21351:21366   */\n      add\n        /* \"#utility.yul\":21340:21366   */\n      swap2\n      pop\n        /* \"#utility.yul\":21262:21266   */\n      0x20\n        /* \"#utility.yul\":21259:21260   */\n      dup2\n        /* \"#utility.yul\":21255:21267   */\n      add\n        /* \"#utility.yul\":21250:21267   */\n      swap1\n      pop\n        /* \"#utility.yul\":21226:21380   */\n      jump(tag_615)\n    tag_617:\n        /* \"#utility.yul\":21409:21415   */\n      dup4\n        /* \"#utility.yul\":21404:21407   */\n      dup9\n        /* \"#utility.yul\":21400:21416   */\n      add\n        /* \"#utility.yul\":21393:21416   */\n      swap6\n      pop\n        /* \"#utility.yul\":21089:21426   */\n      pop\n      pop\n        /* \"#utility.yul\":20874:21426   */\n    tag_611:\n      pop\n        /* \"#utility.yul\":20663:21432   */\n      pop\n      pop\n        /* \"#utility.yul\":20554:21432   */\n      swap3\n      swap2\n      pop\n      pop\n      jump\t// out\n        /* \"#utility.yul\":21438:21711   */\n    tag_141:\n        /* \"#utility.yul\":21569:21572   */\n      0x00\n        /* \"#utility.yul\":21591:21685   */\n      tag_619\n        /* \"#utility.yul\":21681:21684   */\n      dup3\n        /* \"#utility.yul\":21672:21678   */\n      dup5\n        /* \"#utility.yul\":21591:21685   */\n      tag_375\n      jump\t// in\n    tag_619:\n        /* \"#utility.yul\":21584:21685   */\n      swap2\n      pop\n        /* \"#utility.yul\":21702:21705   */\n      dup2\n        /* \"#utility.yul\":21695:21705   */\n      swap1\n      pop\n        /* \"#utility.yul\":21438:21711   */\n      swap3\n      swap2\n      pop\n      pop\n      jump\t// out\n        /* \"#utility.yul\":21717:21888   */\n    tag_376:\n        /* \"#utility.yul\":21857:21880   */\n      0x4f7074696f6e20616c7265616479206578697374730000000000000000000000\n        /* \"#utility.yul\":21853:21854   */\n      0x00\n        /* \"#utility.yul\":21845:21851   */\n      dup3\n        /* \"#utility.yul\":21841:21855   */\n      add\n        /* \"#utility.yul\":21834:21881   */\n      mstore\n        /* \"#utility.yul\":21717:21888   */\n      pop\n      jump\t// out\n        /* \"#utility.yul\":21894:22260   */\n    tag_377:\n        /* \"#utility.yul\":22036:22039   */\n      0x00\n        /* \"#utility.yul\":22057:22124   */\n      tag_622\n        /* \"#utility.yul\":22121:22123   */\n      0x15\n        /* \"#utility.yul\":22116:22119   */\n      dup4\n        /* \"#utility.yul\":22057:22124   */\n      tag_330\n      jump\t// in\n    tag_622:\n        /* \"#utility.yul\":22050:22124   */\n      swap2\n      pop\n        /* \"#utility.yul\":22133:22226   */\n      tag_623\n        /* \"#utility.yul\":22222:22225   */\n      dup3\n        /* \"#utility.yul\":22133:22226   */\n      tag_376\n      jump\t// in\n    tag_623:\n        /* \"#utility.yul\":22251:22253   */\n      0x20\n        /* \"#utility.yul\":22246:22249   */\n      dup3\n        /* \"#utility.yul\":22242:22254   */\n      add\n        /* \"#utility.yul\":22235:22254   */\n      swap1\n      pop\n        /* \"#utility.yul\":21894:22260   */\n      swap2\n      swap1\n      pop\n      jump\t// out\n        /* \"#utility.yul\":22266:22685   */\n    tag_144:\n        /* \"#utility.yul\":22432:22436   */\n      0x00\n        /* \"#utility.yul\":22470:22472   */\n      0x20\n        /* \"#utility.yul\":22459:22468   */\n      dup3\n        /* \"#utility.yul\":22455:22473   */\n      add\n        /* \"#utility.yul\":22447:22473   */\n      swap1\n      pop\n        /* \"#utility.yul\":22519:22528   */\n      dup2\n        /* \"#utility.yul\":22513:22517   */\n      dup2\n        /* \"#utility.yul\":22509:22529   */\n      sub\n        /* \"#utility.yul\":22505:22506   */\n      0x00\n        /* \"#utility.yul\":22494:22503   */\n      dup4\n        /* \"#utility.yul\":22490:22507   */\n      add\n        /* \"#utility.yul\":22483:22530   */\n      mstore\n        /* \"#utility.yul\":22547:22678   */\n      tag_625\n        /* \"#utility.yul\":22673:22677   */\n      dup2\n        /* \"#utility.yul\":22547:22678   */\n      tag_377\n      jump\t// in\n    tag_625:\n        /* \"#utility.yul\":22539:22678   */\n      swap1\n      pop\n        /* \"#utility.yul\":22266:22685   */\n      swap2\n      swap1\n      pop\n      jump\t// out\n        /* \"#utility.yul\":22691:22832   */\n    tag_378:\n        /* \"#utility.yul\":22740:22744   */\n      0x00\n        /* \"#utility.yul\":22763:22766   */\n      dup2\n        /* \"#utility.yul\":22755:22766   */\n      swap1\n      pop\n        /* \"#utility.yul\":22786:22789   */\n      dup2\n        /* \"#utility.yul\":22783:22784   */\n      0x00\n        /* \"#utility.yul\":22776:22790   */\n      mstore\n        /* \"#utility.yul\":22820:22824   */\n      0x20\n        /* \"#utility.yul\":22817:22818   */\n      0x00\n        /* \"#utility.yul\":22807:22825   */\n      keccak256\n        /* \"#utility.yul\":22799:22825   */\n      swap1\n      pop\n        /* \"#utility.yul\":22691:22832   */\n      swap2\n      swap1\n      pop\n      jump\t// out\n        /* \"#utility.yul\":22838:22931   */\n    tag_379:\n        /* \"#utility.yul\":22875:22881   */\n      0x00\n        /* \"#utility.yul\":22922:22924   */\n      0x20\n        /* \"#utility.yul\":22917:22919   */\n      0x1f\n        /* \"#utility.yul\":22910:22915   */\n      dup4\n        /* \"#utility.yul\":22906:22920   */\n      add\n        /* \"#utility.yul\":22902:22925   */\n      div\n        /* \"#utility.yul\":22892:22925   */\n      swap1\n      pop\n        /* \"#utility.yul\":22838:22931   */\n      swap2\n      swap1\n      pop\n      jump\t// out\n        /* \"#utility.yul\":22937:23044   */\n    tag_380:\n        /* \"#utility.yul\":22981:22989   */\n      0x00\n        /* \"#utility.yul\":23031:23036   */\n      dup3\n        /* \"#utility.yul\":23025:23029   */\n      dup3\n        /* \"#utility.yul\":23021:23037   */\n      shl\n        /* \"#utility.yul\":23000:23037   */\n      swap1\n      pop\n        /* \"#utility.yul\":22937:23044   */\n      swap3\n      swap2\n      pop\n      pop\n      jump\t// out\n        /* \"#utility.yul\":23050:23443   */\n    tag_381:\n        /* \"#utility.yul\":23119:23125   */\n      0x00\n        /* \"#utility.yul\":23169:23170   */\n      0x08\n        /* \"#utility.yul\":23157:23167   */\n      dup4\n        /* \"#utility.yul\":23153:23171   */\n      mul\n        /* \"#utility.yul\":23192:23289   */\n      tag_630\n        /* \"#utility.yul\":23222:23288   */\n      0xffffffffffffffffffffffffffffffffffffffffffffffffffffffffffffffff\n        /* \"#utility.yul\":23211:23220   */\n      dup3\n        /* \"#utility.yul\":23192:23289   */\n      tag_380\n      jump\t// in\n    tag_630:\n        /* \"#utility.yul\":23310:23349   */\n      tag_631\n        /* \"#utility.yul\":23340:23348   */\n      dup7\n        /* \"#utility.yul\":23329:23338   */\n      dup4\n        /* \"#utility.yul\":23310:23349   */\n      tag_380\n      jump\t// in\n    tag_631:\n        /* \"#utility.yul\":23298:23349   */\n      swap6\n      pop\n        /* \"#utility.yul\":23382:23386   */\n      dup1\n        /* \"#utility.yul\":23378:23387   */\n      not\n        /* \"#utility.yul\":23371:23376   */\n      dup5\n        /* \"#utility.yul\":23367:23388   */\n      and\n        /* \"#utility.yul\":23358:23388   */\n      swap4\n      pop\n        /* \"#utility.yul\":23431:23435   */\n      dup1\n        /* \"#utility.yul\":23421:23429   */\n      dup7\n        /* \"#utility.yul\":23417:23436   */\n      and\n        /* \"#utility.yul\":23410:23415   */\n      dup5\n        /* \"#utility.yul\":23407:23437   */\n      or\n        /* \"#utility.yul\":23397:23437   */\n      swap3\n      pop\n        /* \"#utility.yul\":23126:23443   */\n      pop\n      pop\n        /* \"#utility.yul\":23050:23443   */\n      swap4\n      swap3\n      pop\n      pop\n      pop\n      jump\t// out\n        /* \"#utility.yul\":23449:23509   */\n    tag_382:\n        /* \"#utility.yul\":23477:23480   */\n      0x00\n        /* \"#utility.yul\":23498:23503   */\n      dup2\n        /* \"#utility.yul\":23491:23503   */\n      swap1\n      pop\n        /* \"#utility.yul\":23449:23509   */\n      swap2\n      swap1\n      pop\n      jump\t// out\n        /* \"#utility.yul\":23515:23657   */\n    tag_383:\n        /* \"#utility.yul\":23565:23574   */\n      0x00\n        /* \"#utility.yul\":23598:23651   */\n      tag_634\n        /* \"#utility.yul\":23616:23650   */\n      tag_635\n        /* \"#utility.yul\":23625:23649   */\n      tag_636\n        /* \"#utility.yul\":23643:23648   */\n      dup5\n        /* \"#utility.yul\":23625:23649   */\n      tag_317\n      jump\t// in\n    tag_636:\n        /* \"#utility.yul\":23616:23650   */\n      tag_382\n      jump\t// in\n    tag_635:\n        /* \"#utility.yul\":23598:23651   */\n      tag_317\n      jump\t// in\n    tag_634:\n        /* \"#utility.yul\":23585:23651   */\n      swap1\n      pop\n        /* \"#utility.yul\":23515:23657   */\n      swap2\n      swap1\n      pop\n      jump\t// out\n        /* \"#utility.yul\":23663:23738   */\n    tag_384:\n        /* \"#utility.yul\":23706:23709   */\n      0x00\n        /* \"#utility.yul\":23727:23732   */\n      dup2\n        /* \"#utility.yul\":23720:23732   */\n      swap1\n      pop\n        /* \"#utility.yul\":23663:23738   */\n      swap2\n      swap1\n      pop\n      jump\t// out\n        /* \"#utility.yul\":23744:24013   */\n    tag_385:\n        /* \"#utility.yul\":23854:23893   */\n      tag_639\n        /* \"#utility.yul\":23885:23892   */\n      dup4\n        /* \"#utility.yul\":23854:23893   */\n      tag_383\n      jump\t// in\n    tag_639:\n        /* \"#utility.yul\":23915:24006   */\n      tag_640\n        /* \"#utility.yul\":23964:24005   */\n      tag_641\n        /* \"#utility.yul\":23988:24004   */\n      dup3\n        /* \"#utility.yul\":23964:24005   */\n      tag_384\n      jump\t// in\n    tag_641:\n        /* \"#utility.yul\":23956:23962   */\n      dup5\n        /* \"#utility.yul\":23949:23953   */\n      dup5\n        /* \"#utility.yul\":23943:23954   */\n      sload\n        /* \"#utility.yul\":23915:24006   */\n      tag_381\n      jump\t// in\n    tag_640:\n        /* \"#utility.yul\":23909:23913   */\n      dup3\n        /* \"#utility.yul\":23902:24007   */\n      sstore\n        /* \"#utility.yul\":23820:24013   */\n      pop\n        /* \"#utility.yul\":23744:24013   */\n      pop\n      pop\n      pop\n      jump\t// out\n        /* \"#utility.yul\":24019:24092   */\n    tag_386:\n        /* \"#utility.yul\":24064:24067   */\n      0x00\n        /* \"#utility.yul\":24085:24086   */\n      0x00\n        /* \"#utility.yul\":24078:24086   */\n      swap1\n      pop\n        /* \"#utility.yul\":24019:24092   */\n      swap1\n      jump\t// out\n        /* \"#utility.yul\":24098:24287   */\n    tag_387:\n        /* \"#utility.yul\":24175:24207   */\n      tag_644\n      tag_386\n      jump\t// in\n    tag_644:\n        /* \"#utility.yul\":24216:24281   */\n      tag_645\n        /* \"#utility.yul\":24274:24280   */\n      dup2\n        /* \"#utility.yul\":24266:24272   */\n      dup5\n        /* \"#utility.yul\":24260:24264   */\n      dup5\n        /* \"#utility.yul\":24216:24281   */\n      tag_385\n      jump\t// in\n    tag_645:\n        /* \"#utility.yul\":24151:24287   */\n      pop\n        /* \"#utility.yul\":24098:24287   */\n      pop\n      pop\n      jump\t// out\n        /* \"#utility.yul\":24293:24479   */\n    tag_388:\n        /* \"#utility.yul\":24353:24473   */\n    tag_647:\n        /* \"#utility.yul\":24370:24373   */\n      dup2\n        /* \"#utility.yul\":24363:24368   */\n      dup2\n        /* \"#utility.yul\":24360:24374   */\n      lt\n        /* \"#utility.yul\":24353:24473   */\n      iszero\n      tag_649\n      jumpi\n        /* \"#utility.yul\":24424:24463   */\n      tag_650\n        /* \"#utility.yul\":24461:24462   */\n      0x00\n        /* \"#utility.yul\":24454:24459   */\n      dup3\n        /* \"#utility.yul\":24424:24463   */\n      tag_387\n      jump\t// in\n    tag_650:\n        /* \"#utility.yul\":24397:24398   */\n      0x01\n        /* \"#utility.yul\":24390:24395   */\n      dup2\n        /* \"#utility.yul\":24386:24399   */\n      add\n        /* \"#utility.yul\":24377:24399   */\n      swap1\n      pop\n        /* \"#utility.yul\":24353:24473   */\n      jump(tag_647)\n    tag_649:\n        /* \"#utility.yul\":24293:24479   */\n      pop\n      pop\n      jump\t// out\n        /* \"#utility.yul\":24485:25028   */\n    tag_389:\n        /* \"#utility.yul\":24586:24588   */\n      0x1f\n        /* \"#utility.yul\":24581:24584   */\n      dup3\n        /* \"#utility.yul\":24578:24589   */\n      gt\n        /* \"#utility.yul\":24575:25021   */\n      iszero\n      tag_652\n      jumpi\n        /* \"#utility.yul\":24620:24658   */\n      tag_653\n        /* \"#utility.yul\":24652:24657   */\n      dup2\n        /* \"#utility.yul\":24620:24658   */\n      tag_378\n      jump\t// in\n    tag_653:\n        /* \"#utility.yul\":24704:24733   */\n      tag_654\n        /* \"#utility.yul\":24722:24732   */\n      dup5\n        /* \"#utility.yul\":24704:24733   */\n      tag_379\n      jump\t// in\n    tag_654:\n        /* \"#utility.yul\":24694:24702   */\n      dup2\n        /* \"#utility.yul\":24690:24734   */\n      add\n        /* \"#utility.yul\":24887:24889   */\n      0x20\n        /* \"#utility.yul\":24875:24885   */\n      dup6\n        /* \"#utility.yul\":24872:24890   */\n      lt\n        /* \"#utility.yul\":24869:24918   */\n      iszero\n      tag_655\n      jumpi\n        /* \"#utility.yul\":24908:24916   */\n      dup2\n        /* \"#utility.yul\":24893:24916   */\n      swap1\n      pop\n        /* \"#utility.yul\":24869:24918   */\n    tag_655:\n        /* \"#utility.yul\":24931:25011   */\n      tag_656\n        /* \"#utility.yul\":24987:25009   */\n      tag_657\n        /* \"#utility.yul\":25005:25008   */\n      dup6\n        /* \"#utility.yul\":24987:25009   */\n      tag_379\n      jump\t// in\n    tag_657:\n        /* \"#utility.yul\":24977:24985   */\n      dup4\n        /* \"#utility.yul\":24973:25010   */\n      add\n        /* \"#utility.yul\":24960:24971   */\n      dup3\n        /* \"#utility.yul\":24931:25011   */\n      tag_388\n      jump\t// in\n    tag_656:\n        /* \"#utility.yul\":24590:25021   */\n      pop\n      pop\n        /* \"#utility.yul\":24575:25021   */\n    tag_652:\n        /* \"#utility.yul\":24485:25028   */\n      pop\n      pop\n      pop\n      jump\t// out\n        /* \"#utility.yul\":25034:25151   */\n    tag_390:\n        /* \"#utility.yul\":25088:25096   */\n      0x00\n        /* \"#utility.yul\":25138:25143   */\n      dup3\n        /* \"#utility.yul\":25132:25136   */\n      dup3\n        /* \"#utility.yul\":25128:25144   */\n      shr\n        /* \"#utility.yul\":25107:25144   */\n      swap1\n      pop\n        /* \"#utility.yul\":25034:25151   */\n      swap3\n      swap2\n      pop\n      pop\n      jump\t// out\n        /* \"#utility.yul\":25157:25326   */\n    tag_391:\n        /* \"#utility.yul\":25201:25207   */\n      0x00\n        /* \"#utility.yul\":25234:25285   */\n      tag_660\n        /* \"#utility.yul\":25282:25283   */\n      0x00\n        /* \"#utility.yul\":25278:25284   */\n      not\n        /* \"#utility.yul\":25270:25275   */\n      dup5\n        /* \"#utility.yul\":25267:25268   */\n      0x08\n        /* \"#utility.yul\":25263:25276   */\n      mul\n        /* \"#utility.yul\":25234:25285   */\n      tag_390\n      jump\t// in\n    tag_660:\n        /* \"#utility.yul\":25230:25286   */\n      not\n        /* \"#utility.yul\":25315:25319   */\n      dup1\n        /* \"#utility.yul\":25309:25313   */\n      dup4\n        /* \"#utility.yul\":25305:25320   */\n      and\n        /* \"#utility.yul\":25295:25320   */\n      swap2\n      pop\n        /* \"#utility.yul\":25208:25326   */\n      pop\n        /* \"#utility.yul\":25157:25326   */\n      swap3\n      swap2\n      pop\n      pop\n      jump\t// out\n        /* \"#utility.yul\":25331:25626   */\n    tag_392:\n        /* \"#utility.yul\":25407:25411   */\n      0x00\n        /* \"#utility.yul\":25553:25582   */\n      tag_662\n        /* \"#utility.yul\":25578:25581   */\n      dup4\n        /* \"#utility.yul\":25572:25576   */\n      dup4\n        /* \"#utility.yul\":25553:25582   */\n      tag_391\n      jump\t// in\n    tag_662:\n        /* \"#utility.yul\":25545:25582   */\n      swap2\n      pop\n        /* \"#utility.yul\":25615:25618   */\n      dup3\n        /* \"#utility.yul\":25612:25613   */\n      0x02\n        /* \"#utility.yul\":25608:25619   */\n      mul\n        /* \"#utility.yul\":25602:25606   */\n      dup3\n        /* \"#utility.yul\":25599:25620   */\n      or\n        /* \"#utility.yul\":25591:25620   */\n      swap1\n      pop\n        /* \"#utility.yul\":25331:25626   */\n      swap3\n      swap2\n      pop\n      pop\n      jump\t// out\n        /* \"#utility.yul\":25631:27026   */\n    tag_149:\n        /* \"#utility.yul\":25748:25785   */\n      tag_664\n        /* \"#utility.yul\":25781:25784   */\n      dup3\n        /* \"#utility.yul\":25748:25785   */\n      tag_329\n      jump\t// in\n    tag_664:\n        /* \"#utility.yul\":25850:25868   */\n      0xffffffffffffffff\n        /* \"#utility.yul\":25842:25848   */\n      dup2\n        /* \"#utility.yul\":25839:25869   */\n      gt\n        /* \"#utility.yul\":25836:25892   */\n      iszero\n      tag_665\n      jumpi\n        /* \"#utility.yul\":25872:25890   */\n      tag_666\n      tag_338\n      jump\t// in\n    tag_666:\n        /* \"#utility.yul\":25836:25892   */\n    tag_665:\n        /* \"#utility.yul\":25916:25954   */\n      tag_667\n        /* \"#utility.yul\":25948:25952   */\n      dup3\n        /* \"#utility.yul\":25942:25953   */\n      sload\n        /* \"#utility.yul\":25916:25954   */\n      tag_116\n      jump\t// in\n    tag_667:\n        /* \"#utility.yul\":26001:26068   */\n      tag_668\n        /* \"#utility.yul\":26061:26067   */\n      dup3\n        /* \"#utility.yul\":26053:26059   */\n      dup3\n        /* \"#utility.yul\":26047:26051   */\n      dup6\n        /* \"#utility.yul\":26001:26068   */\n      tag_389\n      jump\t// in\n    tag_668:\n        /* \"#utility.yul\":26095:26096   */\n      0x00\n        /* \"#utility.yul\":26119:26123   */\n      0x20\n        /* \"#utility.yul\":26106:26123   */\n      swap1\n      pop\n        /* \"#utility.yul\":26151:26153   */\n      0x1f\n        /* \"#utility.yul\":26143:26149   */\n      dup4\n        /* \"#utility.yul\":26140:26154   */\n      gt\n        /* \"#utility.yul\":26168:26169   */\n      0x01\n        /* \"#utility.yul\":26163:26781   */\n      dup2\n      eq\n      tag_670\n      jumpi\n        /* \"#utility.yul\":26825:26826   */\n      0x00\n        /* \"#utility.yul\":26842:26848   */\n      dup5\n        /* \"#utility.yul\":26839:26916   */\n      iszero\n      tag_671\n      jumpi\n        /* \"#utility.yul\":26891:26900   */\n      dup3\n        /* \"#utility.yul\":26886:26889   */\n      dup8\n        /* \"#utility.yul\":26882:26901   */\n      add\n        /* \"#utility.yul\":26876:26902   */\n      mload\n        /* \"#utility.yul\":26867:26902   */\n      swap1\n      pop\n        /* \"#utility.yul\":26839:26916   */\n    tag_671:\n        /* \"#utility.yul\":26942:27009   */\n      tag_672\n        /* \"#utility.yul\":27002:27008   */\n      dup6\n        /* \"#utility.yul\":26995:27000   */\n      dup3\n        /* \"#utility.yul\":26942:27009   */\n      tag_392\n      jump\t// in\n    tag_672:\n        /* \"#utility.yul\":26936:26940   */\n      dup7\n        /* \"#utility.yul\":26929:27010   */\n      sstore\n        /* \"#utility.yul\":26798:27020   */\n      pop\n        /* \"#utility.yul\":26133:27020   */\n      jump(tag_669)\n        /* \"#utility.yul\":26163:26781   */\n    tag_670:\n        /* \"#utility.yul\":26215:26219   */\n      0x1f\n        /* \"#utility.yul\":26211:26220   */\n      not\n        /* \"#utility.yul\":26203:26209   */\n      dup5\n        /* \"#utility.yul\":26199:26221   */\n      and\n        /* \"#utility.yul\":26249:26286   */\n      tag_673\n        /* \"#utility.yul\":26281:26285   */\n      dup7\n        /* \"#utility.yul\":26249:26286   */\n      tag_378\n      jump\t// in\n    tag_673:\n        /* \"#utility.yul\":26308:26309   */\n      0x00\n        /* \"#utility.yul\":26322:26530   */\n    tag_674:\n        /* \"#utility.yul\":26336:26343   */\n      dup3\n        /* \"#utility.yul\":26333:26334   */\n      dup2\n        /* \"#utility.yul\":26330:26344   */\n      lt\n        /* \"#utility.yul\":26322:26530   */\n      iszero\n      tag_676\n      jumpi\n        /* \"#utility.yul\":26415:26424   */\n      dup5\n        /* \"#utility.yul\":26410:26413   */\n      dup10\n        /* \"#utility.yul\":26406:26425   */\n      add\n        /* \"#utility.yul\":26400:26426   */\n      mload\n        /* \"#utility.yul\":26392:26398   */\n      dup3\n        /* \"#utility.yul\":26385:26427   */\n      sstore\n        /* \"#utility.yul\":26466:26467   */\n      0x01\n        /* \"#utility.yul\":26458:26464   */\n      dup3\n        /* \"#utility.yul\":26454:26468   */\n      add\n        /* \"#utility.yul\":26444:26468   */\n      swap2\n      pop\n        /* \"#utility.yul\":26513:26515   */\n      0x20\n        /* \"#utility.yul\":26502:26511   */\n      dup6\n        /* \"#utility.yul\":26498:26516   */\n      add\n        /* \"#utility.yul\":26485:26516   */\n      swap5\n      pop\n        /* \"#utility.yul\":26359:26363   */\n      0x20\n        /* \"#utility.yul\":26356:26357   */\n      dup2\n        /* \"#utility.yul\":26352:26364   */\n      add\n        /* \"#utility.yul\":26347:26364   */\n      swap1\n      pop\n        /* \"#utility.yul\":26322:26530   */\n      jump(tag_674)\n    tag_676:\n        /* \"#utility.yul\":26558:26564   */\n      dup7\n        /* \"#utility.yul\":26549:26556   */\n      dup4\n        /* \"#utility.yul\":26546:26565   */\n      lt\n        /* \"#utility.yul\":26543:26722   */\n      iszero\n      tag_677\n      jumpi\n        /* \"#utility.yul\":26616:26625   */\n      dup5\n        /* \"#utility.yul\":26611:26614   */\n      dup10\n        /* \"#utility.yul\":26607:26626   */\n      add\n        /* \"#utility.yul\":26601:26627   */\n      mload\n        /* \"#utility.yul\":26659:26707   */\n      tag_678\n        /* \"#utility.yul\":26701:26705   */\n      0x1f\n        /* \"#utility.yul\":26693:26699   */\n      dup10\n        /* \"#utility.yul\":26689:26706   */\n      and\n        /* \"#utility.yul\":26678:26687   */\n      dup3\n        /* \"#utility.yul\":26659:26707   */\n      tag_391\n      jump\t// in\n    tag_678:\n        /* \"#utility.yul\":26651:26657   */\n      dup4\n        /* \"#utility.yul\":26644:26708   */\n      sstore\n        /* \"#utility.yul\":26566:26722   */\n      pop\n        /* \"#utility.yul\":26543:26722   */\n    tag_677:\n        /* \"#utility.yul\":26768:26769   */\n      0x01\n        /* \"#utility.yul\":26764:26765   */\n      0x02\n        /* \"#utility.yul\":26756:26762   */\n      dup9\n        /* \"#utility.yul\":26752:26766   */\n      mul\n        /* \"#utility.yul\":26748:26770   */\n      add\n        /* \"#utility.yul\":26742:26746   */\n      dup9\n        /* \"#utility.yul\":26735:26771   */\n      sstore\n        /* \"#utility.yul\":26170:26781   */\n      pop\n      pop\n      pop\n        /* \"#utility.yul\":26133:27020   */\n    tag_669:\n      pop\n        /* \"#utility.yul\":25723:27026   */\n      pop\n      pop\n      pop\n        /* \"#utility.yul\":25631:27026   */\n      pop\n      pop\n      jump\t// out\n        /* \"#utility.yul\":27032:27146   */\n    tag_393:\n      pop\n      jump\t// out\n        /* \"#utility.yul\":27152:27550   */\n    tag_394:\n        /* \"#utility.yul\":27311:27314   */\n      0x00\n        /* \"#utility.yul\":27332:27415   */\n      tag_681\n        /* \"#utility.yul\":27413:27414   */\n      0x00\n        /* \"#utility.yul\":27408:27411   */\n      dup4\n        /* \"#utility.yul\":27332:27415   */\n      tag_373\n      jump\t// in\n    tag_681:\n        /* \"#utility.yul\":27325:27415   */\n      swap2\n      pop\n        /* \"#utility.yul\":27424:27517   */\n      tag_682\n        /* \"#utility.yul\":27513:27516   */\n      dup3\n        /* \"#utility.yul\":27424:27517   */\n      tag_393\n      jump\t// in\n    tag_682:\n        /* \"#utility.yul\":27542:27543   */\n      0x00\n        /* \"#utility.yul\":27537:27540   */\n      dup3\n        /* \"#utility.yul\":27533:27544   */\n      add\n        /* \"#utility.yul\":27526:27544   */\n      swap1\n      pop\n        /* \"#utility.yul\":27152:27550   */\n      swap2\n      swap1\n      pop\n      jump\t// out\n        /* \"#utility.yul\":27556:27935   */\n    tag_156:\n        /* \"#utility.yul\":27740:27743   */\n      0x00\n        /* \"#utility.yul\":27762:27909   */\n      tag_684\n        /* \"#utility.yul\":27905:27908   */\n      dup3\n        /* \"#utility.yul\":27762:27909   */\n      tag_394\n      jump\t// in\n    tag_684:\n        /* \"#utility.yul\":27755:27909   */\n      swap2\n      pop\n        /* \"#utility.yul\":27926:27929   */\n      dup2\n        /* \"#utility.yul\":27919:27929   */\n      swap1\n      pop\n        /* \"#utility.yul\":27556:27935   */\n      swap2\n      swap1\n      pop\n      jump\t// out\n        /* \"#utility.yul\":27941:28097   */\n    tag_395:\n        /* \"#utility.yul\":28081:28089   */\n      0x4661696c65640000000000000000000000000000000000000000000000000000\n        /* \"#utility.yul\":28077:28078   */\n      0x00\n        /* \"#utility.yul\":28069:28075   */\n      dup3\n        /* \"#utility.yul\":28065:28079   */\n      add\n        /* \"#utility.yul\":28058:28090   */\n      mstore\n        /* \"#utility.yul\":27941:28097   */\n      pop\n      jump\t// out\n        /* \"#utility.yul\":28103:28468   */\n    tag_396:\n        /* \"#utility.yul\":28245:28248   */\n      0x00\n        /* \"#utility.yul\":28266:28332   */\n      tag_687\n        /* \"#utility.yul\":28330:28331   */\n      0x06\n        /* \"#utility.yul\":28325:28328   */\n      dup4\n        /* \"#utility.yul\":28266:28332   */\n      tag_330\n      jump\t// in\n    tag_687:\n        /* \"#utility.yul\":28259:28332   */\n      swap2\n      pop\n        /* \"#utility.yul\":28341:28434   */\n      tag_688\n        /* \"#utility.yul\":28430:28433   */\n      dup3\n        /* \"#utility.yul\":28341:28434   */\n      tag_395\n      jump\t// in\n    tag_688:\n        /* \"#utility.yul\":28459:28461   */\n      0x20\n        /* \"#utility.yul\":28454:28457   */\n      dup3\n        /* \"#utility.yul\":28450:28462   */\n      add\n        /* \"#utility.yul\":28443:28462   */\n      swap1\n      pop\n        /* \"#utility.yul\":28103:28468   */\n      swap2\n      swap1\n      pop\n      jump\t// out\n        /* \"#utility.yul\":28474:28893   */\n    tag_162:\n        /* \"#utility.yul\":28640:28644   */\n      0x00\n        /* \"#utility.yul\":28678:28680   */\n      0x20\n        /* \"#utility.yul\":28667:28676   */\n      dup3\n        /* \"#utility.yul\":28663:28681   */\n      add\n        /* \"#utility.yul\":28655:28681   */\n      swap1\n      pop\n        /* \"#utility.yul\":28727:28736   */\n      dup2\n        /* \"#utility.yul\":28721:28725   */\n      dup2\n        /* \"#utility.yul\":28717:28737   */\n      sub\n        /* \"#utility.yul\":28713:28714   */\n      0x00\n        /* \"#utility.yul\":28702:28711   */\n      dup4\n        /* \"#utility.yul\":28698:28715   */\n      add\n        /* \"#utility.yul\":28691:28738   */\n      mstore\n        /* \"#utility.yul\":28755:28886   */\n      tag_690\n        /* \"#utility.yul\":28881:28885   */\n      dup2\n        /* \"#utility.yul\":28755:28886   */\n      tag_396\n      jump\t// in\n    tag_690:\n        /* \"#utility.yul\":28747:28886   */\n      swap1\n      pop\n        /* \"#utility.yul\":28474:28893   */\n      swap2\n      swap1\n      pop\n      jump\t// out\n        /* \"#utility.yul\":28899:29124   */\n    tag_397:\n        /* \"#utility.yul\":29039:29073   */\n      0x4f776e61626c653a206e6577206f776e657220697320746865207a65726f2061\n        /* \"#utility.yul\":29035:29036   */\n      0x00\n        /* \"#utility.yul\":29027:29033   */\n      dup3\n        /* \"#utility.yul\":29023:29037   */\n      add\n        /* \"#utility.yul\":29016:29074   */\n      mstore\n        /* \"#utility.yul\":29108:29116   */\n      0x6464726573730000000000000000000000000000000000000000000000000000\n        /* \"#utility.yul\":29103:29105   */\n      0x20\n        /* \"#utility.yul\":29095:29101   */\n      dup3\n        /* \"#utility.yul\":29091:29106   */\n      add\n        /* \"#utility.yul\":29084:29117   */\n      mstore\n        /* \"#utility.yul\":28899:29124   */\n      pop\n      jump\t// out\n        /* \"#utility.yul\":29130:29496   */\n    tag_398:\n        /* \"#utility.yul\":29272:29275   */\n      0x00\n        /* \"#utility.yul\":29293:29360   */\n      tag_693\n        /* \"#utility.yul\":29357:29359   */\n      0x26\n        /* \"#utility.yul\":29352:29355   */\n      dup4\n        /* \"#utility.yul\":29293:29360   */\n      tag_330\n      jump\t// in\n    tag_693:\n        /* \"#utility.yul\":29286:29360   */\n      swap2\n      pop\n        /* \"#utility.yul\":29369:29462   */\n      tag_694\n        /* \"#utility.yul\":29458:29461   */\n      dup3\n        /* \"#utility.yul\":29369:29462   */\n      tag_397\n      jump\t// in\n    tag_694:\n        /* \"#utility.yul\":29487:29489   */\n      0x40\n        /* \"#utility.yul\":29482:29485   */\n      dup3\n        /* \"#utility.yul\":29478:29490   */\n      add\n        /* \"#utility.yul\":29471:29490   */\n      swap1\n      pop\n        /* \"#utility.yul\":29130:29496   */\n      swap2\n      swap1\n      pop\n      jump\t// out\n        /* \"#utility.yul\":29502:29921   */\n    tag_245:\n        /* \"#utility.yul\":29668:29672   */\n      0x00\n        /* \"#utility.yul\":29706:29708   */\n      0x20\n        /* \"#utility.yul\":29695:29704   */\n      dup3\n        /* \"#utility.yul\":29691:29709   */\n      add\n        /* \"#utility.yul\":29683:29709   */\n      swap1\n      pop\n        /* \"#utility.yul\":29755:29764   */\n      dup2\n        /* \"#utility.yul\":29749:29753   */\n      dup2\n        /* \"#utility.yul\":29745:29765   */\n      sub\n        /* \"#utility.yul\":29741:29742   */\n      0x00\n        /* \"#utility.yul\":29730:29739   */\n      dup4\n        /* \"#utility.yul\":29726:29743   */\n      add\n        /* \"#utility.yul\":29719:29766   */\n      mstore\n        /* \"#utility.yul\":29783:29914   */\n      tag_696\n        /* \"#utility.yul\":29909:29913   */\n      dup2\n        /* \"#utility.yul\":29783:29914   */\n      tag_398\n      jump\t// in\n    tag_696:\n        /* \"#utility.yul\":29775:29914   */\n      swap1\n      pop\n        /* \"#utility.yul\":29502:29921   */\n      swap2\n      swap1\n      pop\n      jump\t// out\n        /* \"#utility.yul\":29927:30099   */\n    tag_399:\n        /* \"#utility.yul\":30067:30091   */\n      0x496e76616c696420746172676574206164647265737300000000000000000000\n        /* \"#utility.yul\":30063:30064   */\n      0x00\n        /* \"#utility.yul\":30055:30061   */\n      dup3\n        /* \"#utility.yul\":30051:30065   */\n      add\n        /* \"#utility.yul\":30044:30092   */\n      mstore\n        /* \"#utility.yul\":29927:30099   */\n      pop\n      jump\t// out\n        /* \"#utility.yul\":30105:30471   */\n    tag_400:\n        /* \"#utility.yul\":30247:30250   */\n      0x00\n        /* \"#utility.yul\":30268:30335   */\n      tag_699\n        /* \"#utility.yul\":30332:30334   */\n      0x16\n        /* \"#utility.yul\":30327:30330   */\n      dup4\n        /* \"#utility.yul\":30268:30335   */\n      tag_330\n      jump\t// in\n    tag_699:\n        /* \"#utility.yul\":30261:30335   */\n      swap2\n      pop\n        /* \"#utility.yul\":30344:30437   */\n      tag_700\n        /* \"#utility.yul\":30433:30436   */\n      dup3\n        /* \"#utility.yul\":30344:30437   */\n      tag_399\n      jump\t// in\n    tag_700:\n        /* \"#utility.yul\":30462:30464   */\n      0x20\n        /* \"#utility.yul\":30457:30460   */\n      dup3\n        /* \"#utility.yul\":30453:30465   */\n      add\n        /* \"#utility.yul\":30446:30465   */\n      swap1\n      pop\n        /* \"#utility.yul\":30105:30471   */\n      swap2\n      swap1\n      pop\n      jump\t// out\n        /* \"#utility.yul\":30477:30896   */\n    tag_250:\n        /* \"#utility.yul\":30643:30647   */\n      0x00\n        /* \"#utility.yul\":30681:30683   */\n      0x20\n        /* \"#utility.yul\":30670:30679   */\n      dup3\n        /* \"#utility.yul\":30666:30684   */\n      add\n        /* \"#utility.yul\":30658:30684   */\n      swap1\n      pop\n        /* \"#utility.yul\":30730:30739   */\n      dup2\n        /* \"#utility.yul\":30724:30728   */\n      dup2\n        /* \"#utility.yul\":30720:30740   */\n      sub\n        /* \"#utility.yul\":30716:30717   */\n      0x00\n        /* \"#utility.yul\":30705:30714   */\n      dup4\n        /* \"#utility.yul\":30701:30718   */\n      add\n        /* \"#utility.yul\":30694:30741   */\n      mstore\n        /* \"#utility.yul\":30758:30889   */\n      tag_702\n        /* \"#utility.yul\":30884:30888   */\n      dup2\n        /* \"#utility.yul\":30758:30889   */\n      tag_400\n      jump\t// in\n    tag_702:\n        /* \"#utility.yul\":30750:30889   */\n      swap1\n      pop\n        /* \"#utility.yul\":30477:30896   */\n      swap2\n      swap1\n      pop\n      jump\t// out\n        /* \"#utility.yul\":30902:31075   */\n    tag_401:\n        /* \"#utility.yul\":31042:31067   */\n      0x43616e6e6f7420656e646f72736520796f757273656c66000000000000000000\n        /* \"#utility.yul\":31038:31039   */\n      0x00\n        /* \"#utility.yul\":31030:31036   */\n      dup3\n        /* \"#utility.yul\":31026:31040   */\n      add\n        /* \"#utility.yul\":31019:31068   */\n      mstore\n        /* \"#utility.yul\":30902:31075   */\n      pop\n      jump\t// out\n        /* \"#utility.yul\":31081:31447   */\n    tag_402:\n        /* \"#utility.yul\":31223:31226   */\n      0x00\n        /* \"#utility.yul\":31244:31311   */\n      tag_705\n        /* \"#utility.yul\":31308:31310   */\n      0x17\n        /* \"#utility.yul\":31303:31306   */\n      dup4\n        /* \"#utility.yul\":31244:31311   */\n      tag_330\n      jump\t// in\n    tag_705:\n        /* \"#utility.yul\":31237:31311   */\n      swap2\n      pop\n        /* \"#utility.yul\":31320:31413   */\n      tag_706\n        /* \"#utility.yul\":31409:31412   */\n      dup3\n        /* \"#utility.yul\":31320:31413   */\n      tag_401\n      jump\t// in\n    tag_706:\n        /* \"#utility.yul\":31438:31440   */\n      0x20\n        /* \"#utility.yul\":31433:31436   */\n      dup3\n        /* \"#utility.yul\":31429:31441   */\n      add\n        /* \"#utility.yul\":31422:31441   */\n      swap1\n      pop\n        /* \"#utility.yul\":31081:31447   */\n      swap2\n      swap1\n      pop\n      jump\t// out\n        /* \"#utility.yul\":31453:31872   */\n    tag_255:\n        /* \"#utility.yul\":31619:31623   */\n      0x00\n        /* \"#utility.yul\":31657:31659   */\n      0x20\n        /* \"#utility.yul\":31646:31655   */\n      dup3\n        /* \"#utility.yul\":31642:31660   */\n      add\n        /* \"#utility.yul\":31634:31660   */\n      swap1\n      pop\n        /* \"#utility.yul\":31706:31715   */\n      dup2\n        /* \"#utility.yul\":31700:31704   */\n      dup2\n        /* \"#utility.yul\":31696:31716   */\n      sub\n        /* \"#utility.yul\":31692:31693   */\n      0x00\n        /* \"#utility.yul\":31681:31690   */\n      dup4\n        /* \"#utility.yul\":31677:31694   */\n      add\n        /* \"#utility.yul\":31670:31717   */\n      mstore\n        /* \"#utility.yul\":31734:31865   */\n      tag_708\n        /* \"#utility.yul\":31860:31864   */\n      dup2\n        /* \"#utility.yul\":31734:31865   */\n      tag_402\n      jump\t// in\n    tag_708:\n        /* \"#utility.yul\":31726:31865   */\n      swap1\n      pop\n        /* \"#utility.yul\":31453:31872   */\n      swap2\n      swap1\n      pop\n      jump\t// out\n        /* \"#utility.yul\":31878:32057   */\n    tag_403:\n        /* \"#utility.yul\":32018:32049   */\n      0x53636f7265206d757374206265206265747765656e203120616e642035000000\n        /* \"#utility.yul\":32014:32015   */\n      0x00\n        /* \"#utility.yul\":32006:32012   */\n      dup3\n        /* \"#utility.yul\":32002:32016   */\n      add\n        /* \"#utility.yul\":31995:32050   */\n      mstore\n        /* \"#utility.yul\":31878:32057   */\n      pop\n      jump\t// out\n        /* \"#utility.yul\":32063:32429   */\n    tag_404:\n        /* \"#utility.yul\":32205:32208   */\n      0x00\n        /* \"#utility.yul\":32226:32293   */\n      tag_711\n        /* \"#utility.yul\":32290:32292   */\n      0x1d\n        /* \"#utility.yul\":32285:32288   */\n      dup4\n        /* \"#utility.yul\":32226:32293   */\n      tag_330\n      jump\t// in\n    tag_711:\n        /* \"#utility.yul\":32219:32293   */\n      swap2\n      pop\n        /* \"#utility.yul\":32302:32395   */\n      tag_712\n        /* \"#utility.yul\":32391:32394   */\n      dup3\n        /* \"#utility.yul\":32302:32395   */\n      tag_403\n      jump\t// in\n    tag_712:\n        /* \"#utility.yul\":32420:32422   */\n      0x20\n        /* \"#utility.yul\":32415:32418   */\n      dup3\n        /* \"#utility.yul\":32411:32423   */\n      add\n        /* \"#utility.yul\":32404:32423   */\n      swap1\n      pop\n        /* \"#utility.yul\":32063:32429   */\n      swap2\n      swap1\n      pop\n      jump\t// out\n        /* \"#utility.yul\":32435:32854   */\n    tag_259:\n        /* \"#utility.yul\":32601:32605   */\n      0x00\n        /* \"#utility.yul\":32639:32641   */\n      0x20\n        /* \"#utility.yul\":32628:32637   */\n      dup3\n        /* \"#utility.yul\":32624:32642   */\n      add\n        /* \"#utility.yul\":32616:32642   */\n      swap1\n      pop\n        /* \"#utility.yul\":32688:32697   */\n      dup2\n        /* \"#utility.yul\":32682:32686   */\n      dup2\n        /* \"#utility.yul\":32678:32698   */\n      sub\n        /* \"#utility.yul\":32674:32675   */\n      0x00\n        /* \"#utility.yul\":32663:32672   */\n      dup4\n        /* \"#utility.yul\":32659:32676   */\n      add\n        /* \"#utility.yul\":32652:32699   */\n      mstore\n        /* \"#utility.yul\":32716:32847   */\n      tag_714\n        /* \"#utility.yul\":32842:32846   */\n      dup2\n        /* \"#utility.yul\":32716:32847   */\n      tag_404\n      jump\t// in\n    tag_714:\n        /* \"#utility.yul\":32708:32847   */\n      swap1\n      pop\n        /* \"#utility.yul\":32435:32854   */\n      swap2\n      swap1\n      pop\n      jump\t// out\n        /* \"#utility.yul\":32860:33036   */\n    tag_405:\n        /* \"#utility.yul\":33000:33028   */\n      0x496e76616c696420656e646f7273656d656e74206f7074696f6e000000000000\n        /* \"#utility.yul\":32996:32997   */\n      0x00\n        /* \"#utility.yul\":32988:32994   */\n      dup3\n        /* \"#utility.yul\":32984:32998   */\n      add\n        /* \"#utility.yul\":32977:33029   */\n      mstore\n        /* \"#utility.yul\":32860:33036   */\n      pop\n      jump\t// out\n        /* \"#utility.yul\":33042:33408   */\n    tag_406:\n        /* \"#utility.yul\":33184:33187   */\n      0x00\n        /* \"#utility.yul\":33205:33272   */\n      tag_717\n        /* \"#utility.yul\":33269:33271   */\n      0x1a\n        /* \"#utility.yul\":33264:33267   */\n      dup4\n        /* \"#utility.yul\":33205:33272   */\n      tag_330\n      jump\t// in\n    tag_717:\n        /* \"#utility.yul\":33198:33272   */\n      swap2\n      pop\n        /* \"#utility.yul\":33281:33374   */\n      tag_718\n        /* \"#utility.yul\":33370:33373   */\n      dup3\n        /* \"#utility.yul\":33281:33374   */\n      tag_405\n      jump\t// in\n    tag_718:\n        /* \"#utility.yul\":33399:33401   */\n      0x20\n        /* \"#utility.yul\":33394:33397   */\n      dup3\n        /* \"#utility.yul\":33390:33402   */\n      add\n        /* \"#utility.yul\":33383:33402   */\n      swap1\n      pop\n        /* \"#utility.yul\":33042:33408   */\n      swap2\n      swap1\n      pop\n      jump\t// out\n        /* \"#utility.yul\":33414:33833   */\n    tag_270:\n        /* \"#utility.yul\":33580:33584   */\n      0x00\n        /* \"#utility.yul\":33618:33620   */\n      0x20\n        /* \"#utility.yul\":33607:33616   */\n      dup3\n        /* \"#utility.yul\":33603:33621   */\n      add\n        /* \"#utility.yul\":33595:33621   */\n      swap1\n      pop\n        /* \"#utility.yul\":33667:33676   */\n      dup2\n        /* \"#utility.yul\":33661:33665   */\n      dup2\n        /* \"#utility.yul\":33657:33677   */\n      sub\n        /* \"#utility.yul\":33653:33654   */\n      0x00\n        /* \"#utility.yul\":33642:33651   */\n      dup4\n        /* \"#utility.yul\":33638:33655   */\n      add\n        /* \"#utility.yul\":33631:33678   */\n      mstore\n        /* \"#utility.yul\":33695:33826   */\n      tag_720\n        /* \"#utility.yul\":33821:33825   */\n      dup2\n        /* \"#utility.yul\":33695:33826   */\n      tag_406\n      jump\t// in\n    tag_720:\n        /* \"#utility.yul\":33687:33826   */\n      swap1\n      pop\n        /* \"#utility.yul\":33414:33833   */\n      swap2\n      swap1\n      pop\n      jump\t// out\n        /* \"#utility.yul\":33863:34694   */\n    tag_407:\n        /* \"#utility.yul\":33948:33951   */\n      0x00\n        /* \"#utility.yul\":33985:33990   */\n      dup2\n        /* \"#utility.yul\":33979:33991   */\n      sload\n        /* \"#utility.yul\":34014:34050   */\n      tag_722\n        /* \"#utility.yul\":34040:34049   */\n      dup2\n        /* \"#utility.yul\":34014:34050   */\n      tag_116\n      jump\t// in\n    tag_722:\n        /* \"#utility.yul\":34066:34137   */\n      tag_723\n        /* \"#utility.yul\":34130:34136   */\n      dup2\n        /* \"#utility.yul\":34125:34128   */\n      dup7\n        /* \"#utility.yul\":34066:34137   */\n      tag_330\n      jump\t// in\n    tag_723:\n        /* \"#utility.yul\":34059:34137   */\n      swap5\n      pop\n        /* \"#utility.yul\":34168:34169   */\n      0x01\n        /* \"#utility.yul\":34157:34166   */\n      dup3\n        /* \"#utility.yul\":34153:34170   */\n      and\n        /* \"#utility.yul\":34184:34185   */\n      0x00\n        /* \"#utility.yul\":34179:34343   */\n      dup2\n      eq\n      tag_725\n      jumpi\n        /* \"#utility.yul\":34357:34358   */\n      0x01\n        /* \"#utility.yul\":34352:34688   */\n      dup2\n      eq\n      tag_726\n      jumpi\n        /* \"#utility.yul\":34146:34688   */\n      jump(tag_724)\n        /* \"#utility.yul\":34179:34343   */\n    tag_725:\n        /* \"#utility.yul\":34263:34267   */\n      0xff\n        /* \"#utility.yul\":34259:34268   */\n      not\n        /* \"#utility.yul\":34248:34257   */\n      dup4\n        /* \"#utility.yul\":34244:34269   */\n      and\n        /* \"#utility.yul\":34239:34242   */\n      dup7\n        /* \"#utility.yul\":34232:34270   */\n      mstore\n        /* \"#utility.yul\":34323:34329   */\n      dup2\n        /* \"#utility.yul\":34316:34330   */\n      iszero\n        /* \"#utility.yul\":34309:34331   */\n      iszero\n        /* \"#utility.yul\":34303:34307   */\n      0x20\n        /* \"#utility.yul\":34299:34332   */\n      mul\n        /* \"#utility.yul\":34294:34297   */\n      dup7\n        /* \"#utility.yul\":34290:34333   */\n      add\n        /* \"#utility.yul\":34283:34333   */\n      swap4\n      pop\n        /* \"#utility.yul\":34179:34343   */\n      jump(tag_724)\n        /* \"#utility.yul\":34352:34688   */\n    tag_726:\n        /* \"#utility.yul\":34419:34457   */\n      tag_727\n        /* \"#utility.yul\":34451:34456   */\n      dup6\n        /* \"#utility.yul\":34419:34457   */\n      tag_378\n      jump\t// in\n    tag_727:\n        /* \"#utility.yul\":34479:34480   */\n      0x00\n        /* \"#utility.yul\":34493:34647   */\n    tag_728:\n        /* \"#utility.yul\":34507:34513   */\n      dup4\n        /* \"#utility.yul\":34504:34505   */\n      dup2\n        /* \"#utility.yul\":34501:34514   */\n      lt\n        /* \"#utility.yul\":34493:34647   */\n      iszero\n      tag_730\n      jumpi\n        /* \"#utility.yul\":34581:34588   */\n      dup2\n        /* \"#utility.yul\":34575:34589   */\n      sload\n        /* \"#utility.yul\":34571:34572   */\n      dup2\n        /* \"#utility.yul\":34566:34569   */\n      dup10\n        /* \"#utility.yul\":34562:34573   */\n      add\n        /* \"#utility.yul\":34555:34590   */\n      mstore\n        /* \"#utility.yul\":34631:34632   */\n      0x01\n        /* \"#utility.yul\":34622:34629   */\n      dup3\n        /* \"#utility.yul\":34618:34633   */\n      add\n        /* \"#utility.yul\":34607:34633   */\n      swap2\n      pop\n        /* \"#utility.yul\":34529:34533   */\n      0x20\n        /* \"#utility.yul\":34526:34527   */\n      dup2\n        /* \"#utility.yul\":34522:34534   */\n      add\n        /* \"#utility.yul\":34517:34534   */\n      swap1\n      pop\n        /* \"#utility.yul\":34493:34647   */\n      jump(tag_728)\n    tag_730:\n        /* \"#utility.yul\":34676:34677   */\n      dup1\n        /* \"#utility.yul\":34671:34674   */\n      dup9\n        /* \"#utility.yul\":34667:34678   */\n      add\n        /* \"#utility.yul\":34660:34678   */\n      swap6\n      pop\n        /* \"#utility.yul\":34359:34688   */\n      pop\n      pop\n        /* \"#utility.yul\":34146:34688   */\n    tag_724:\n      pop\n        /* \"#utility.yul\":33952:34694   */\n      pop\n      pop\n        /* \"#utility.yul\":33863:34694   */\n      swap3\n      swap2\n      pop\n      pop\n      jump\t// out\n        /* \"#utility.yul\":34700:35007   */\n    tag_281:\n        /* \"#utility.yul\":34810:34814   */\n      0x00\n        /* \"#utility.yul\":34848:34850   */\n      0x20\n        /* \"#utility.yul\":34837:34846   */\n      dup3\n        /* \"#utility.yul\":34833:34851   */\n      add\n        /* \"#utility.yul\":34825:34851   */\n      swap1\n      pop\n        /* \"#utility.yul\":34897:34906   */\n      dup2\n        /* \"#utility.yul\":34891:34895   */\n      dup2\n        /* \"#utility.yul\":34887:34907   */\n      sub\n        /* \"#utility.yul\":34883:34884   */\n      0x00\n        /* \"#utility.yul\":34872:34881   */\n      dup4\n        /* \"#utility.yul\":34868:34885   */\n      add\n        /* \"#utility.yul\":34861:34908   */\n      mstore\n        /* \"#utility.yul\":34925:35000   */\n      tag_732\n        /* \"#utility.yul\":34995:34999   */\n      dup2\n        /* \"#utility.yul\":34986:34992   */\n      dup5\n        /* \"#utility.yul\":34925:35000   */\n      tag_407\n      jump\t// in\n    tag_732:\n        /* \"#utility.yul\":34917:35000   */\n      swap1\n      pop\n        /* \"#utility.yul\":34700:35007   */\n      swap3\n      swap2\n      pop\n      pop\n      jump\t// out\n        /* \"#utility.yul\":35013:35161   */\n    tag_408:\n        /* \"#utility.yul\":35115:35126   */\n      0x00\n        /* \"#utility.yul\":35152:35155   */\n      dup2\n        /* \"#utility.yul\":35137:35155   */\n      swap1\n      pop\n        /* \"#utility.yul\":35013:35161   */\n      swap3\n      swap2\n      pop\n      pop\n      jump\t// out\n        /* \"#utility.yul\":35167:35557   */\n    tag_409:\n        /* \"#utility.yul\":35273:35276   */\n      0x00\n        /* \"#utility.yul\":35301:35340   */\n      tag_735\n        /* \"#utility.yul\":35334:35339   */\n      dup3\n        /* \"#utility.yul\":35301:35340   */\n      tag_329\n      jump\t// in\n    tag_735:\n        /* \"#utility.yul\":35356:35445   */\n      tag_736\n        /* \"#utility.yul\":35438:35444   */\n      dup2\n        /* \"#utility.yul\":35433:35436   */\n      dup6\n        /* \"#utility.yul\":35356:35445   */\n      tag_408\n      jump\t// in\n    tag_736:\n        /* \"#utility.yul\":35349:35445   */\n      swap4\n      pop\n        /* \"#utility.yul\":35454:35519   */\n      tag_737\n        /* \"#utility.yul\":35512:35518   */\n      dup2\n        /* \"#utility.yul\":35507:35510   */\n      dup6\n        /* \"#utility.yul\":35500:35504   */\n      0x20\n        /* \"#utility.yul\":35493:35498   */\n      dup7\n        /* \"#utility.yul\":35489:35505   */\n      add\n        /* \"#utility.yul\":35454:35519   */\n      tag_331\n      jump\t// in\n    tag_737:\n        /* \"#utility.yul\":35544:35550   */\n      dup1\n        /* \"#utility.yul\":35539:35542   */\n      dup5\n        /* \"#utility.yul\":35535:35551   */\n      add\n        /* \"#utility.yul\":35528:35551   */\n      swap2\n      pop\n        /* \"#utility.yul\":35277:35557   */\n      pop\n        /* \"#utility.yul\":35167:35557   */\n      swap3\n      swap2\n      pop\n      pop\n      jump\t// out\n        /* \"#utility.yul\":35563:35838   */\n    tag_287:\n        /* \"#utility.yul\":35695:35698   */\n      0x00\n        /* \"#utility.yul\":35717:35812   */\n      tag_739\n        /* \"#utility.yul\":35808:35811   */\n      dup3\n        /* \"#utility.yul\":35799:35805   */\n      dup5\n        /* \"#utility.yul\":35717:35812   */\n      tag_409\n      jump\t// in\n    tag_739:\n        /* \"#utility.yul\":35710:35812   */\n      swap2\n      pop\n        /* \"#utility.yul\":35829:35832   */\n      dup2\n        /* \"#utility.yul\":35822:35832   */\n      swap1\n      pop\n        /* \"#utility.yul\":35563:35838   */\n      swap3\n      swap2\n      pop\n      pop\n      jump\t// out\n        /* \"#utility.yul\":35844:36377   */\n    tag_290:\n        /* \"#utility.yul\":36013:36017   */\n      0x00\n        /* \"#utility.yul\":36051:36053   */\n      0x60\n        /* \"#utility.yul\":36040:36049   */\n      dup3\n        /* \"#utility.yul\":36036:36054   */\n      add\n        /* \"#utility.yul\":36028:36054   */\n      swap1\n      pop\n        /* \"#utility.yul\":36100:36109   */\n      dup2\n        /* \"#utility.yul\":36094:36098   */\n      dup2\n        /* \"#utility.yul\":36090:36110   */\n      sub\n        /* \"#utility.yul\":36086:36087   */\n      0x00\n        /* \"#utility.yul\":36075:36084   */\n      dup4\n        /* \"#utility.yul\":36071:36088   */\n      add\n        /* \"#utility.yul\":36064:36111   */\n      mstore\n        /* \"#utility.yul\":36128:36206   */\n      tag_741\n        /* \"#utility.yul\":36201:36205   */\n      dup2\n        /* \"#utility.yul\":36192:36198   */\n      dup7\n        /* \"#utility.yul\":36128:36206   */\n      tag_333\n      jump\t// in\n    tag_741:\n        /* \"#utility.yul\":36120:36206   */\n      swap1\n      pop\n        /* \"#utility.yul\":36216:36288   */\n      tag_742\n        /* \"#utility.yul\":36284:36286   */\n      0x20\n        /* \"#utility.yul\":36273:36282   */\n      dup4\n        /* \"#utility.yul\":36269:36287   */\n      add\n        /* \"#utility.yul\":36260:36266   */\n      dup6\n        /* \"#utility.yul\":36216:36288   */\n      tag_318\n      jump\t// in\n    tag_742:\n        /* \"#utility.yul\":36298:36370   */\n      tag_743\n        /* \"#utility.yul\":36366:36368   */\n      0x40\n        /* \"#utility.yul\":36355:36364   */\n      dup4\n        /* \"#utility.yul\":36351:36369   */\n      add\n        /* \"#utility.yul\":36342:36348   */\n      dup5\n        /* \"#utility.yul\":36298:36370   */\n      tag_318\n      jump\t// in\n    tag_743:\n        /* \"#utility.yul\":35844:36377   */\n      swap5\n      swap4\n      pop\n      pop\n      pop\n      pop\n      jump\t// out\n        /* \"#utility.yul\":36383:36565   */\n    tag_410:\n        /* \"#utility.yul\":36523:36557   */\n      0x4f776e61626c653a2063616c6c6572206973206e6f7420746865206f776e6572\n        /* \"#utility.yul\":36519:36520   */\n      0x00\n        /* \"#utility.yul\":36511:36517   */\n      dup3\n        /* \"#utility.yul\":36507:36521   */\n      add\n        /* \"#utility.yul\":36500:36558   */\n      mstore\n        /* \"#utility.yul\":36383:36565   */\n      pop\n      jump\t// out\n        /* \"#utility.yul\":36571:36937   */\n    tag_411:\n        /* \"#utility.yul\":36713:36716   */\n      0x00\n        /* \"#utility.yul\":36734:36801   */\n      tag_746\n        /* \"#utility.yul\":36798:36800   */\n      0x20\n        /* \"#utility.yul\":36793:36796   */\n      dup4\n        /* \"#utility.yul\":36734:36801   */\n      tag_330\n      jump\t// in\n    tag_746:\n        /* \"#utility.yul\":36727:36801   */\n      swap2\n      pop\n        /* \"#utility.yul\":36810:36903   */\n      tag_747\n        /* \"#utility.yul\":36899:36902   */\n      dup3\n        /* \"#utility.yul\":36810:36903   */\n      tag_410\n      jump\t// in\n    tag_747:\n        /* \"#utility.yul\":36928:36930   */\n      0x20\n        /* \"#utility.yul\":36923:36926   */\n      dup3\n        /* \"#utility.yul\":36919:36931   */\n      add\n        /* \"#utility.yul\":36912:36931   */\n      swap1\n      pop\n        /* \"#utility.yul\":36571:36937   */\n      swap2\n      swap1\n      pop\n      jump\t// out\n        /* \"#utility.yul\":36943:37362   */\n    tag_296:\n        /* \"#utility.yul\":37109:37113   */\n      0x00\n        /* \"#utility.yul\":37147:37149   */\n      0x20\n        /* \"#utility.yul\":37136:37145   */\n      dup3\n        /* \"#utility.yul\":37132:37150   */\n      add\n        /* \"#utility.yul\":37124:37150   */\n      swap1\n      pop\n        /* \"#utility.yul\":37196:37205   */\n      dup2\n        /* \"#utility.yul\":37190:37194   */\n      dup2\n        /* \"#utility.yul\":37186:37206   */\n      sub\n        /* \"#utility.yul\":37182:37183   */\n      0x00\n        /* \"#utility.yul\":37171:37180   */\n      dup4\n        /* \"#utility.yul\":37167:37184   */\n      add\n        /* \"#utility.yul\":37160:37207   */\n      mstore\n        /* \"#utility.yul\":37224:37355   */\n      tag_749\n        /* \"#utility.yul\":37350:37354   */\n      dup2\n        /* \"#utility.yul\":37224:37355   */\n      tag_411\n      jump\t// in\n    tag_749:\n        /* \"#utility.yul\":37216:37355   */\n      swap1\n      pop\n        /* \"#utility.yul\":36943:37362   */\n      swap2\n      swap1\n      pop\n      jump\t// out\n\n    auxdata: 0xa26469706673582212202c1cb576d85cf33ffc11ce91117182c48af24fd05bd4649011054007cbbc6b6564736f6c634300081d0033\n}\n",
				"bytecode": {
					"linkReferences": {},
					"object": "60806040526040518060400160405280601581526020017f4661696c656420746f2073656e64204574686572210000000000000000000000815250600190816100489190610382565b50348015610054575f5ffd5b5061007161006661007d60201b60201c565b61008460201b60201c565b5f600281905550610451565b5f33905090565b5f5f5f9054906101000a900473ffffffffffffffffffffffffffffffffffffffff169050815f5f6101000a81548173ffffffffffffffffffffffffffffffffffffffff021916908373ffffffffffffffffffffffffffffffffffffffff1602179055508173ffffffffffffffffffffffffffffffffffffffff168173ffffffffffffffffffffffffffffffffffffffff167f8be0079c531659141344cd1fd0a4f28419497f9722a3daafe3b4186f6b6457e060405160405180910390a35050565b5f81519050919050565b7f4e487b71000000000000000000000000000000000000000000000000000000005f52604160045260245ffd5b7f4e487b71000000000000000000000000000000000000000000000000000000005f52602260045260245ffd5b5f60028204905060018216806101c057607f821691505b6020821081036101d3576101d261017c565b5b50919050565b5f819050815f5260205f209050919050565b5f6020601f8301049050919050565b5f82821b905092915050565b5f600883026102357fffffffffffffffffffffffffffffffffffffffffffffffffffffffffffffffff826101fa565b61023f86836101fa565b95508019841693508086168417925050509392505050565b5f819050919050565b5f819050919050565b5f61028361027e61027984610257565b610260565b610257565b9050919050565b5f819050919050565b61029c83610269565b6102b06102a88261028a565b848454610206565b825550505050565b5f5f905090565b6102c76102b8565b6102d2818484610293565b505050565b5b818110156102f5576102ea5f826102bf565b6001810190506102d8565b5050565b601f82111561033a5761030b816101d9565b610314846101eb565b81016020851015610323578190505b61033761032f856101eb565b8301826102d7565b50505b505050565b5f82821c905092915050565b5f61035a5f198460080261033f565b1980831691505092915050565b5f610372838361034b565b9150826002028217905092915050565b61038b82610145565b67ffffffffffffffff8111156103a4576103a361014f565b5b6103ae82546101a9565b6103b98282856102f9565b5f60209050601f8311600181146103ea575f84156103d8578287015190505b6103e28582610367565b865550610449565b601f1984166103f8866101d9565b5f5b8281101561041f578489015182556001820191506020850194506020810190506103fa565b8683101561043c5784890151610438601f89168261034b565b8355505b6001600288020188555050505b505050505050565b6127998061045e5f395ff3fe608060405260043610610113575f3560e01c8063715018a61161009f578063d2f6ab9b11610063578063d2f6ab9b14610333578063ddca3f431461036f578063f2fde38b14610399578063f31f2f80146103c1578063ffa1ad74146103dd57610113565b8063715018a6146102795780638456cb591461028f5780638da5cb5b146102a55780639012c4a8146102cf578063b666ca9d146102f757610113565b80633f4ba83a116100e65780633f4ba83a146101bf5780635675049e146101d557806356a6d9ef146101ff5780635c975abb14610227578063634143431461025157610113565b806312065fe0146101175780632cdc9efb14610141578063368df2a3146101815780633ccfd60b146101a9575b5f5ffd5b348015610122575f5ffd5b5061012b610407565b604051610138919061162e565b60405180910390f35b34801561014c575f5ffd5b50610167600480360381019061016291906116dc565b61040e565b6040516101789594939291906117b4565b60405180910390f35b34801561018c575f5ffd5b506101a760048036038101906101a2919061193f565b610591565b005b3480156101b4575f5ffd5b506101bd6106da565b005b3480156101ca575f5ffd5b506101d3610799565b005b3480156101e0575f5ffd5b506101e96107ab565b6040516101f69190611a9c565b60405180910390f35b34801561020a575f5ffd5b5061022560048036038101906102209190611af7565b61087f565b005b348015610232575f5ffd5b5061023b610934565b6040516102489190611b4f565b60405180910390f35b34801561025c575f5ffd5b5061027760048036038101906102729190611b68565b610949565b005b348015610284575f5ffd5b5061028d610a99565b005b34801561029a575f5ffd5b506102a3610aac565b005b3480156102b0575f5ffd5b506102b9610abe565b6040516102c69190611baf565b60405180910390f35b3480156102da575f5ffd5b506102f560048036038101906102f09190611bc8565b610ae5565b005b348015610302575f5ffd5b5061031d60048036038101906103189190611bf3565b610b2e565b60405161032a9190611d80565b60405180910390f35b34801561033e575f5ffd5b5061035960048036038101906103549190611bc8565b610d61565b6040516103669190611da0565b60405180910390f35b34801561037a575f5ffd5b50610383610e07565b604051610390919061162e565b60405180910390f35b3480156103a4575f5ffd5b506103bf60048036038101906103ba9190611bf3565b610e0d565b005b6103db60048036038101906103d69190611dea565b610e8f565b005b3480156103e8575f5ffd5b506103f1611353565b6040516103fe9190611da0565b60405180910390f35b5f47905090565b6003602052815f5260405f208181548110610427575f80fd5b905f5260205f2090600502015f9150915050805f015f9054906101000a900473ffffffffffffffffffffffffffffffffffffffff169080600101805461046c90611eb3565b80601f016020809104026020016040519081016040528092919081815260200182805461049890611eb3565b80156104e35780601f106104ba576101008083540402835291602001916104e3565b820191905f5260205f20905b8154815290600101906020018083116104c657829003601f168201915b5050505050908060020180546104f890611eb3565b80601f016020809104026020016040519081016040528092919081815260200182805461052490611eb3565b801561056f5780601f106105465761010080835404028352916020019161056f565b820191905f5260205f20905b81548152906001019060200180831161055257829003601f168201915b505050505090806003015f9054906101000a900460ff16908060040154905085565b61059961138c565b5f8151116105dc576040517f08c379a00000000000000000000000000000000000000000000000000000000081526004016105d390611f2d565b60405180910390fd5b5f5f90505b6004805490508110156106745781805190602001206004828154811061060a57610609611f4b565b5b905f5260205f200160405161061f9190612014565b604051809103902003610667576040517f08c379a000000000000000000000000000000000000000000000000000000000815260040161065e90612074565b60405180910390fd5b80806001019150506105e1565b50806004838154811061068a57610689611f4b565b5b905f5260205f2001908161069e9190612232565b507f8329f95e4544f4e52f94f1889c321525f3ab368f971c4ad352ba31b4ea8fed56816040516106ce9190611da0565b60405180910390a15050565b6106e261138c565b5f4790505f6106ef610abe565b73ffffffffffffffffffffffffffffffffffffffff168260405161071290612324565b5f6040518083038185875af1925050503d805f811461074c576040519150601f19603f3d011682016040523d82523d5f602084013e610751565b606091505b5050905080610795576040517f08c379a000000000000000000000000000000000000000000000000000000000815260040161078c90612382565b60405180910390fd5b5050565b6107a161138c565b6107a961140a565b565b60606004805480602002602001604051908101604052809291908181526020015f905b82821015610876578382905f5260205f200180546107eb90611eb3565b80601f016020809104026020016040519081016040528092919081815260200182805461081790611eb3565b80156108625780601f1061083957610100808354040283529160200191610862565b820191905f5260205f20905b81548152906001019060200180831161084557829003601f168201915b5050505050815260200190600101906107ce565b50505050905090565b61088761138c565b5f8273ffffffffffffffffffffffffffffffffffffffff16826040516108ac90612324565b5f6040518083038185875af1925050503d805f81146108e6576040519150601f19603f3d011682016040523d82523d5f602084013e6108eb565b606091505b505090508061092f576040517f08c379a000000000000000000000000000000000000000000000000000000000815260040161092690612382565b60405180910390fd5b505050565b5f5f60149054906101000a900460ff16905090565b61095161138c565b5f815111610994576040517f08c379a000000000000000000000000000000000000000000000000000000000815260040161098b90611f2d565b60405180910390fd5b5f5f90505b600480549050811015610a2c578180519060200120600482815481106109c2576109c1611f4b565b5b905f5260205f20016040516109d79190612014565b604051809103902003610a1f576040517f08c379a0000000000000000000000000000000000000000000000000000000008152600401610a1690612074565b60405180910390fd5b8080600101915050610999565b50600481908060018154018082558091505060019003905f5260205f20015f909190919091509081610a5e9190612232565b507f8329f95e4544f4e52f94f1889c321525f3ab368f971c4ad352ba31b4ea8fed5681604051610a8e9190611da0565b60405180910390a150565b610aa161138c565b610aaa5f61146b565b565b610ab461138c565b610abc61152c565b565b5f5f5f9054906101000a900473ffffffffffffffffffffffffffffffffffffffff16905090565b610aed61138c565b806002819055507f8c4d35e54a3f2ef1134138fd8ea3daee6a3c89e10d2665996babdf70261e2c7681604051610b23919061162e565b60405180910390a150565b606060035f8373ffffffffffffffffffffffffffffffffffffffff1673ffffffffffffffffffffffffffffffffffffffff1681526020019081526020015f20805480602002602001604051908101604052809291908181526020015f905b82821015610d56578382905f5260205f2090600502016040518060a00160405290815f82015f9054906101000a900473ffffffffffffffffffffffffffffffffffffffff1673ffffffffffffffffffffffffffffffffffffffff1673ffffffffffffffffffffffffffffffffffffffff168152602001600182018054610c1190611eb3565b80601f0160208091040260200160405190810160405280929190818152602001828054610c3d90611eb3565b8015610c885780601f10610c5f57610100808354040283529160200191610c88565b820191905f5260205f20905b815481529060010190602001808311610c6b57829003601f168201915b50505050508152602001600282018054610ca190611eb3565b80601f0160208091040260200160405190810160405280929190818152602001828054610ccd90611eb3565b8015610d185780601f10610cef57610100808354040283529160200191610d18565b820191905f5260205f20905b815481529060010190602001808311610cfb57829003601f168201915b50505050508152602001600382015f9054906101000a900460ff1660ff1660ff16815260200160048201548152505081526020019060010190610b8c565b505050509050919050565b60048181548110610d70575f80fd5b905f5260205f20015f915090508054610d8890611eb3565b80601f0160208091040260200160405190810160405280929190818152602001828054610db490611eb3565b8015610dff5780601f10610dd657610100808354040283529160200191610dff565b820191905f5260205f20905b815481529060010190602001808311610de257829003601f168201915b505050505081565b60025481565b610e1561138c565b5f73ffffffffffffffffffffffffffffffffffffffff168173ffffffffffffffffffffffffffffffffffffffff1603610e83576040517f08c379a0000000000000000000000000000000000000000000000000000000008152600401610e7a90612410565b60405180910390fd5b610e8c8161146b565b50565b5f73ffffffffffffffffffffffffffffffffffffffff168473ffffffffffffffffffffffffffffffffffffffff1603610efd576040517f08c379a0000000000000000000000000000000000000000000000000000000008152600401610ef490612478565b60405180910390fd5b610f0561158e565b73ffffffffffffffffffffffffffffffffffffffff168473ffffffffffffffffffffffffffffffffffffffff1603610f72576040517f08c379a0000000000000000000000000000000000000000000000000000000008152600401610f69906124e0565b60405180910390fd5b5f8160ff16118015610f88575060058160ff1611155b610fc7576040517f08c379a0000000000000000000000000000000000000000000000000000000008152600401610fbe90612548565b60405180910390fd5b5f5f90505f5f90505b60048054905081101561103157848051906020012060048281548110610ff957610ff8611f4b565b5b905f5260205f200160405161100e9190612014565b6040518091039020036110245760019150611031565b8080600101915050610fd0565b5080611072576040517f08c379a0000000000000000000000000000000000000000000000000000000008152600401611069906125b0565b60405180910390fd5b5f6002541115611179576002543410156110c357346040517f926653510000000000000000000000000000000000000000000000000000000081526004016110ba919061162e565b60405180910390fd5b5f6110cc610abe565b73ffffffffffffffffffffffffffffffffffffffff16346040516110ef90612324565b5f6040518083038185875af1925050503d805f8114611129576040519150601f19603f3d011682016040523d82523d5f602084013e61112e565b606091505b5050905080600190611176576040517f08c379a000000000000000000000000000000000000000000000000000000000815260040161116d919061264f565b60405180910390fd5b50505b5f6040518060a0016040528061118d61158e565b73ffffffffffffffffffffffffffffffffffffffff1681526020018681526020018581526020018460ff16815260200142815250905060035f8773ffffffffffffffffffffffffffffffffffffffff1673ffffffffffffffffffffffffffffffffffffffff1681526020019081526020015f2081908060018154018082558091505060019003905f5260205f2090600502015f909190919091505f820151815f015f6101000a81548173ffffffffffffffffffffffffffffffffffffffff021916908373ffffffffffffffffffffffffffffffffffffffff16021790555060208201518160010190816112809190612232565b5060408201518160020190816112969190612232565b506060820151816003015f6101000a81548160ff021916908360ff160217905550608082015181600401555050846040516112d191906126a9565b60405180910390206112e161158e565b73ffffffffffffffffffffffffffffffffffffffff168773ffffffffffffffffffffffffffffffffffffffff167fcee636f0c13aaa861e26f59625e55d15ab4af806aef7de8ee49c13390256a0e88760025442604051611343939291906126bf565b60405180910390a4505050505050565b6040518060400160405280600581526020017f312e302e3000000000000000000000000000000000000000000000000000000081525081565b61139461158e565b73ffffffffffffffffffffffffffffffffffffffff166113b2610abe565b73ffffffffffffffffffffffffffffffffffffffff1614611408576040517f08c379a00000000000000000000000000000000000000000000000000000000081526004016113ff90612745565b60405180910390fd5b565b611412611595565b5f5f60146101000a81548160ff0219169083151502179055507f5db9ee0a495bf2e6ff9c91a7834c1ba4fdd244a5e8aa4e537bd38aeae4b073aa61145461158e565b6040516114619190611baf565b60405180910390a1565b5f5f5f9054906101000a900473ffffffffffffffffffffffffffffffffffffffff169050815f5f6101000a81548173ffffffffffffffffffffffffffffffffffffffff021916908373ffffffffffffffffffffffffffffffffffffffff1602179055508173ffffffffffffffffffffffffffffffffffffffff168173ffffffffffffffffffffffffffffffffffffffff167f8be0079c531659141344cd1fd0a4f28419497f9722a3daafe3b4186f6b6457e060405160405180910390a35050565b6115346115d5565b60015f60146101000a81548160ff0219169083151502179055507f62e78cea01bee320cd4e420270b5ea74000d11b0c9f74754ebdbfc544b05a25861157761158e565b6040516115849190611baf565b60405180910390a1565b5f33905090565b61159d610934565b6115d3576040517f8dfc202b00000000000000000000000000000000000000000000000000000000815260040160405180910390fd5b565b6115dd610934565b15611614576040517fd93c066500000000000000000000000000000000000000000000000000000000815260040160405180910390fd5b565b5f819050919050565b61162881611616565b82525050565b5f6020820190506116415f83018461161f565b92915050565b5f604051905090565b5f5ffd5b5f5ffd5b5f73ffffffffffffffffffffffffffffffffffffffff82169050919050565b5f61168182611658565b9050919050565b61169181611677565b811461169b575f5ffd5b50565b5f813590506116ac81611688565b92915050565b6116bb81611616565b81146116c5575f5ffd5b50565b5f813590506116d6816116b2565b92915050565b5f5f604083850312156116f2576116f1611650565b5b5f6116ff8582860161169e565b9250506020611710858286016116c8565b9150509250929050565b61172381611677565b82525050565b5f81519050919050565b5f82825260208201905092915050565b8281835e5f83830152505050565b5f601f19601f8301169050919050565b5f61176b82611729565b6117758185611733565b9350611785818560208601611743565b61178e81611751565b840191505092915050565b5f60ff82169050919050565b6117ae81611799565b82525050565b5f60a0820190506117c75f83018861171a565b81810360208301526117d98187611761565b905081810360408301526117ed8186611761565b90506117fc60608301856117a5565b611809608083018461161f565b9695505050505050565b5f5ffd5b5f5ffd5b7f4e487b71000000000000000000000000000000000000000000000000000000005f52604160045260245ffd5b61185182611751565b810181811067ffffffffffffffff821117156118705761186f61181b565b5b80604052505050565b5f611882611647565b905061188e8282611848565b919050565b5f67ffffffffffffffff8211156118ad576118ac61181b565b5b6118b682611751565b9050602081019050919050565b828183375f83830152505050565b5f6118e36118de84611893565b611879565b9050828152602081018484840111156118ff576118fe611817565b5b61190a8482856118c3565b509392505050565b5f82601f83011261192657611925611813565b5b81356119368482602086016118d1565b91505092915050565b5f5f6040838503121561195557611954611650565b5b5f611962858286016116c8565b925050602083013567ffffffffffffffff81111561198357611982611654565b5b61198f85828601611912565b9150509250929050565b5f81519050919050565b5f82825260208201905092915050565b5f819050602082019050919050565b5f82825260208201905092915050565b5f6119dc82611729565b6119e681856119c2565b93506119f6818560208601611743565b6119ff81611751565b840191505092915050565b5f611a1583836119d2565b905092915050565b5f602082019050919050565b5f611a3382611999565b611a3d81856119a3565b935083602082028501611a4f856119b3565b805f5b85811015611a8a5784840389528151611a6b8582611a0a565b9450611a7683611a1d565b925060208a01995050600181019050611a52565b50829750879550505050505092915050565b5f6020820190508181035f830152611ab48184611a29565b905092915050565b5f611ac682611658565b9050919050565b611ad681611abc565b8114611ae0575f5ffd5b50565b5f81359050611af181611acd565b92915050565b5f5f60408385031215611b0d57611b0c611650565b5b5f611b1a85828601611ae3565b9250506020611b2b858286016116c8565b9150509250929050565b5f8115159050919050565b611b4981611b35565b82525050565b5f602082019050611b625f830184611b40565b92915050565b5f60208284031215611b7d57611b7c611650565b5b5f82013567ffffffffffffffff811115611b9a57611b99611654565b5b611ba684828501611912565b91505092915050565b5f602082019050611bc25f83018461171a565b92915050565b5f60208284031215611bdd57611bdc611650565b5b5f611bea848285016116c8565b91505092915050565b5f60208284031215611c0857611c07611650565b5b5f611c158482850161169e565b91505092915050565b5f81519050919050565b5f82825260208201905092915050565b5f819050602082019050919050565b611c5081611677565b82525050565b611c5f81611799565b82525050565b611c6e81611616565b82525050565b5f60a083015f830151611c895f860182611c47565b5060208301518482036020860152611ca182826119d2565b91505060408301518482036040860152611cbb82826119d2565b9150506060830151611cd06060860182611c56565b506080830151611ce36080860182611c65565b508091505092915050565b5f611cf98383611c74565b905092915050565b5f602082019050919050565b5f611d1782611c1e565b611d218185611c28565b935083602082028501611d3385611c38565b805f5b85811015611d6e5784840389528151611d4f8582611cee565b9450611d5a83611d01565b925060208a01995050600181019050611d36565b50829750879550505050505092915050565b5f6020820190508181035f830152611d988184611d0d565b905092915050565b5f6020820190508181035f830152611db88184611761565b905092915050565b611dc981611799565b8114611dd3575f5ffd5b50565b5f81359050611de481611dc0565b92915050565b5f5f5f5f60808587031215611e0257611e01611650565b5b5f611e0f8782880161169e565b945050602085013567ffffffffffffffff811115611e3057611e2f611654565b5b611e3c87828801611912565b935050604085013567ffffffffffffffff811115611e5d57611e5c611654565b5b611e6987828801611912565b9250506060611e7a87828801611dd6565b91505092959194509250565b7f4e487b71000000000000000000000000000000000000000000000000000000005f52602260045260245ffd5b5f6002820490506001821680611eca57607f821691505b602082108103611edd57611edc611e86565b5b50919050565b7f4f7074696f6e2063616e6e6f7420626520656d707479000000000000000000005f82015250565b5f611f17601683611733565b9150611f2282611ee3565b602082019050919050565b5f6020820190508181035f830152611f4481611f0b565b9050919050565b7f4e487b71000000000000000000000000000000000000000000000000000000005f52603260045260245ffd5b5f81905092915050565b5f819050815f5260205f209050919050565b5f8154611fa081611eb3565b611faa8186611f78565b9450600182165f8114611fc45760018114611fd95761200b565b60ff198316865281151582028601935061200b565b611fe285611f82565b5f5b8381101561200357815481890152600182019150602081019050611fe4565b838801955050505b50505092915050565b5f61201f8284611f94565b915081905092915050565b7f4f7074696f6e20616c72656164792065786973747300000000000000000000005f82015250565b5f61205e601583611733565b91506120698261202a565b602082019050919050565b5f6020820190508181035f83015261208b81612052565b9050919050565b5f819050815f5260205f209050919050565b5f6020601f8301049050919050565b5f82821b905092915050565b5f600883026120ee7fffffffffffffffffffffffffffffffffffffffffffffffffffffffffffffffff826120b3565b6120f886836120b3565b95508019841693508086168417925050509392505050565b5f819050919050565b5f61213361212e61212984611616565b612110565b611616565b9050919050565b5f819050919050565b61214c83612119565b6121606121588261213a565b8484546120bf565b825550505050565b5f5f905090565b612177612168565b612182818484612143565b505050565b5b818110156121a55761219a5f8261216f565b600181019050612188565b5050565b601f8211156121ea576121bb81612092565b6121c4846120a4565b810160208510156121d3578190505b6121e76121df856120a4565b830182612187565b50505b505050565b5f82821c905092915050565b5f61220a5f19846008026121ef565b1980831691505092915050565b5f61222283836121fb565b9150826002028217905092915050565b61223b82611729565b67ffffffffffffffff8111156122545761225361181b565b5b61225e8254611eb3565b6122698282856121a9565b5f60209050601f83116001811461229a575f8415612288578287015190505b6122928582612217565b8655506122f9565b601f1984166122a886612092565b5f5b828110156122cf578489015182556001820191506020850194506020810190506122aa565b868310156122ec57848901516122e8601f8916826121fb565b8355505b6001600288020188555050505b505050505050565b50565b5f61230f5f83611f78565b915061231a82612301565b5f82019050919050565b5f61232e82612304565b9150819050919050565b7f4661696c656400000000000000000000000000000000000000000000000000005f82015250565b5f61236c600683611733565b915061237782612338565b602082019050919050565b5f6020820190508181035f83015261239981612360565b9050919050565b7f4f776e61626c653a206e6577206f776e657220697320746865207a65726f20615f8201527f6464726573730000000000000000000000000000000000000000000000000000602082015250565b5f6123fa602683611733565b9150612405826123a0565b604082019050919050565b5f6020820190508181035f830152612427816123ee565b9050919050565b7f496e76616c6964207461726765742061646472657373000000000000000000005f82015250565b5f612462601683611733565b915061246d8261242e565b602082019050919050565b5f6020820190508181035f83015261248f81612456565b9050919050565b7f43616e6e6f7420656e646f72736520796f757273656c660000000000000000005f82015250565b5f6124ca601783611733565b91506124d582612496565b602082019050919050565b5f6020820190508181035f8301526124f7816124be565b9050919050565b7f53636f7265206d757374206265206265747765656e203120616e6420350000005f82015250565b5f612532601d83611733565b915061253d826124fe565b602082019050919050565b5f6020820190508181035f83015261255f81612526565b9050919050565b7f496e76616c696420656e646f7273656d656e74206f7074696f6e0000000000005f82015250565b5f61259a601a83611733565b91506125a582612566565b602082019050919050565b5f6020820190508181035f8301526125c78161258e565b9050919050565b5f81546125da81611eb3565b6125e48186611733565b9450600182165f81146125fe576001811461261457612646565b60ff198316865281151560200286019350612646565b61261d85612092565b5f5b8381101561263e5781548189015260018201915060208101905061261f565b808801955050505b50505092915050565b5f6020820190508181035f83015261266781846125ce565b905092915050565b5f81905092915050565b5f61268382611729565b61268d818561266f565b935061269d818560208601611743565b80840191505092915050565b5f6126b48284612679565b915081905092915050565b5f6060820190508181035f8301526126d78186611761565b90506126e6602083018561161f565b6126f3604083018461161f565b949350505050565b7f4f776e61626c653a2063616c6c6572206973206e6f7420746865206f776e65725f82015250565b5f61272f602083611733565b915061273a826126fb565b602082019050919050565b5f6020820190508181035f83015261275c81612723565b905091905056fea26469706673582212202c1cb576d85cf33ffc11ce91117182c48af24fd05bd4649011054007cbbc6b6564736f6c634300081d0033",
					"opcodes": "PUSH1 0x80 PUSH1 0x40 MSTORE PUSH1 0x40 MLOAD DUP1 PUSH1 0x40 ADD PUSH1 0x40 MSTORE DUP1 PUSH1 0x15 DUP2 MSTORE PUSH1 0x20 ADD PUSH32 0x4661696C656420746F2073656E64204574686572210000000000000000000000 DUP2 MSTORE POP PUSH1 0x1 SWAP1 DUP2 PUSH2 0x48 SWAP2 SWAP1 PUSH2 0x382 JUMP JUMPDEST POP CALLVALUE DUP1 ISZERO PUSH2 0x54 JUMPI PUSH0 PUSH0 REVERT JUMPDEST POP PUSH2 0x71 PUSH2 0x66 PUSH2 0x7D PUSH1 0x20 SHL PUSH1 0x20 SHR JUMP JUMPDEST PUSH2 0x84 PUSH1 0x20 SHL PUSH1 0x20 SHR JUMP JUMPDEST PUSH0 PUSH1 0x2 DUP2 SWAP1 SSTORE POP PUSH2 0x451 JUMP JUMPDEST PUSH0 CALLER SWAP1 POP SWAP1 JUMP JUMPDEST PUSH0 PUSH0 PUSH0 SWAP1 SLOAD SWAP1 PUSH2 0x100 EXP SWAP1 DIV PUSH20 0xFFFFFFFFFFFFFFFFFFFFFFFFFFFFFFFFFFFFFFFF AND SWAP1 POP DUP2 PUSH0 PUSH0 PUSH2 0x100 EXP DUP2 SLOAD DUP2 PUSH20 0xFFFFFFFFFFFFFFFFFFFFFFFFFFFFFFFFFFFFFFFF MUL NOT AND SWAP1 DUP4 PUSH20 0xFFFFFFFFFFFFFFFFFFFFFFFFFFFFFFFFFFFFFFFF AND MUL OR SWAP1 SSTORE POP DUP2 PUSH20 0xFFFFFFFFFFFFFFFFFFFFFFFFFFFFFFFFFFFFFFFF AND DUP2 PUSH20 0xFFFFFFFFFFFFFFFFFFFFFFFFFFFFFFFFFFFFFFFF AND PUSH32 0x8BE0079C531659141344CD1FD0A4F28419497F9722A3DAAFE3B4186F6B6457E0 PUSH1 0x40 MLOAD PUSH1 0x40 MLOAD DUP1 SWAP2 SUB SWAP1 LOG3 POP POP JUMP JUMPDEST PUSH0 DUP2 MLOAD SWAP1 POP SWAP2 SWAP1 POP JUMP JUMPDEST PUSH32 0x4E487B7100000000000000000000000000000000000000000000000000000000 PUSH0 MSTORE PUSH1 0x41 PUSH1 0x4 MSTORE PUSH1 0x24 PUSH0 REVERT JUMPDEST PUSH32 0x4E487B7100000000000000000000000000000000000000000000000000000000 PUSH0 MSTORE PUSH1 0x22 PUSH1 0x4 MSTORE PUSH1 0x24 PUSH0 REVERT JUMPDEST PUSH0 PUSH1 0x2 DUP3 DIV SWAP1 POP PUSH1 0x1 DUP3 AND DUP1 PUSH2 0x1C0 JUMPI PUSH1 0x7F DUP3 AND SWAP2 POP JUMPDEST PUSH1 0x20 DUP3 LT DUP2 SUB PUSH2 0x1D3 JUMPI PUSH2 0x1D2 PUSH2 0x17C JUMP JUMPDEST JUMPDEST POP SWAP2 SWAP1 POP JUMP JUMPDEST PUSH0 DUP2 SWAP1 POP DUP2 PUSH0 MSTORE PUSH1 0x20 PUSH0 KECCAK256 SWAP1 POP SWAP2 SWAP1 POP JUMP JUMPDEST PUSH0 PUSH1 0x20 PUSH1 0x1F DUP4 ADD DIV SWAP1 POP SWAP2 SWAP1 POP JUMP JUMPDEST PUSH0 DUP3 DUP3 SHL SWAP1 POP SWAP3 SWAP2 POP POP JUMP JUMPDEST PUSH0 PUSH1 0x8 DUP4 MUL PUSH2 0x235 PUSH32 0xFFFFFFFFFFFFFFFFFFFFFFFFFFFFFFFFFFFFFFFFFFFFFFFFFFFFFFFFFFFFFFFF DUP3 PUSH2 0x1FA JUMP JUMPDEST PUSH2 0x23F DUP7 DUP4 PUSH2 0x1FA JUMP JUMPDEST SWAP6 POP DUP1 NOT DUP5 AND SWAP4 POP DUP1 DUP7 AND DUP5 OR SWAP3 POP POP POP SWAP4 SWAP3 POP POP POP JUMP JUMPDEST PUSH0 DUP2 SWAP1 POP SWAP2 SWAP1 POP JUMP JUMPDEST PUSH0 DUP2 SWAP1 POP SWAP2 SWAP1 POP JUMP JUMPDEST PUSH0 PUSH2 0x283 PUSH2 0x27E PUSH2 0x279 DUP5 PUSH2 0x257 JUMP JUMPDEST PUSH2 0x260 JUMP JUMPDEST PUSH2 0x257 JUMP JUMPDEST SWAP1 POP SWAP2 SWAP1 POP JUMP JUMPDEST PUSH0 DUP2 SWAP1 POP SWAP2 SWAP1 POP JUMP JUMPDEST PUSH2 0x29C DUP4 PUSH2 0x269 JUMP JUMPDEST PUSH2 0x2B0 PUSH2 0x2A8 DUP3 PUSH2 0x28A JUMP JUMPDEST DUP5 DUP5 SLOAD PUSH2 0x206 JUMP JUMPDEST DUP3 SSTORE POP POP POP POP JUMP JUMPDEST PUSH0 PUSH0 SWAP1 POP SWAP1 JUMP JUMPDEST PUSH2 0x2C7 PUSH2 0x2B8 JUMP JUMPDEST PUSH2 0x2D2 DUP2 DUP5 DUP5 PUSH2 0x293 JUMP JUMPDEST POP POP POP JUMP JUMPDEST JUMPDEST DUP2 DUP2 LT ISZERO PUSH2 0x2F5 JUMPI PUSH2 0x2EA PUSH0 DUP3 PUSH2 0x2BF JUMP JUMPDEST PUSH1 0x1 DUP2 ADD SWAP1 POP PUSH2 0x2D8 JUMP JUMPDEST POP POP JUMP JUMPDEST PUSH1 0x1F DUP3 GT ISZERO PUSH2 0x33A JUMPI PUSH2 0x30B DUP2 PUSH2 0x1D9 JUMP JUMPDEST PUSH2 0x314 DUP5 PUSH2 0x1EB JUMP JUMPDEST DUP2 ADD PUSH1 0x20 DUP6 LT ISZERO PUSH2 0x323 JUMPI DUP2 SWAP1 POP JUMPDEST PUSH2 0x337 PUSH2 0x32F DUP6 PUSH2 0x1EB JUMP JUMPDEST DUP4 ADD DUP3 PUSH2 0x2D7 JUMP JUMPDEST POP POP JUMPDEST POP POP POP JUMP JUMPDEST PUSH0 DUP3 DUP3 SHR SWAP1 POP SWAP3 SWAP2 POP POP JUMP JUMPDEST PUSH0 PUSH2 0x35A PUSH0 NOT DUP5 PUSH1 0x8 MUL PUSH2 0x33F JUMP JUMPDEST NOT DUP1 DUP4 AND SWAP2 POP POP SWAP3 SWAP2 POP POP JUMP JUMPDEST PUSH0 PUSH2 0x372 DUP4 DUP4 PUSH2 0x34B JUMP JUMPDEST SWAP2 POP DUP3 PUSH1 0x2 MUL DUP3 OR SWAP1 POP SWAP3 SWAP2 POP POP JUMP JUMPDEST PUSH2 0x38B DUP3 PUSH2 0x145 JUMP JUMPDEST PUSH8 0xFFFFFFFFFFFFFFFF DUP2 GT ISZERO PUSH2 0x3A4 JUMPI PUSH2 0x3A3 PUSH2 0x14F JUMP JUMPDEST JUMPDEST PUSH2 0x3AE DUP3 SLOAD PUSH2 0x1A9 JUMP JUMPDEST PUSH2 0x3B9 DUP3 DUP3 DUP6 PUSH2 0x2F9 JUMP JUMPDEST PUSH0 PUSH1 0x20 SWAP1 POP PUSH1 0x1F DUP4 GT PUSH1 0x1 DUP2 EQ PUSH2 0x3EA JUMPI PUSH0 DUP5 ISZERO PUSH2 0x3D8 JUMPI DUP3 DUP8 ADD MLOAD SWAP1 POP JUMPDEST PUSH2 0x3E2 DUP6 DUP3 PUSH2 0x367 JUMP JUMPDEST DUP7 SSTORE POP PUSH2 0x449 JUMP JUMPDEST PUSH1 0x1F NOT DUP5 AND PUSH2 0x3F8 DUP7 PUSH2 0x1D9 JUMP JUMPDEST PUSH0 JUMPDEST DUP3 DUP2 LT ISZERO PUSH2 0x41F JUMPI DUP5 DUP10 ADD MLOAD DUP3 SSTORE PUSH1 0x1 DUP3 ADD SWAP2 POP PUSH1 0x20 DUP6 ADD SWAP5 POP PUSH1 0x20 DUP2 ADD SWAP1 POP PUSH2 0x3FA JUMP JUMPDEST DUP7 DUP4 LT ISZERO PUSH2 0x43C JUMPI DUP5 DUP10 ADD MLOAD PUSH2 0x438 PUSH1 0x1F DUP10 AND DUP3 PUSH2 0x34B JUMP JUMPDEST DUP4 SSTORE POP JUMPDEST PUSH1 0x1 PUSH1 0x2 DUP9 MUL ADD DUP9 SSTORE POP POP POP JUMPDEST POP POP POP POP POP POP JUMP JUMPDEST PUSH2 0x2799 DUP1 PUSH2 0x45E PUSH0 CODECOPY PUSH0 RETURN INVALID PUSH1 0x80 PUSH1 0x40 MSTORE PUSH1 0x4 CALLDATASIZE LT PUSH2 0x113 JUMPI PUSH0 CALLDATALOAD PUSH1 0xE0 SHR DUP1 PUSH4 0x715018A6 GT PUSH2 0x9F JUMPI DUP1 PUSH4 0xD2F6AB9B GT PUSH2 0x63 JUMPI DUP1 PUSH4 0xD2F6AB9B EQ PUSH2 0x333 JUMPI DUP1 PUSH4 0xDDCA3F43 EQ PUSH2 0x36F JUMPI DUP1 PUSH4 0xF2FDE38B EQ PUSH2 0x399 JUMPI DUP1 PUSH4 0xF31F2F80 EQ PUSH2 0x3C1 JUMPI DUP1 PUSH4 0xFFA1AD74 EQ PUSH2 0x3DD JUMPI PUSH2 0x113 JUMP JUMPDEST DUP1 PUSH4 0x715018A6 EQ PUSH2 0x279 JUMPI DUP1 PUSH4 0x8456CB59 EQ PUSH2 0x28F JUMPI DUP1 PUSH4 0x8DA5CB5B EQ PUSH2 0x2A5 JUMPI DUP1 PUSH4 0x9012C4A8 EQ PUSH2 0x2CF JUMPI DUP1 PUSH4 0xB666CA9D EQ PUSH2 0x2F7 JUMPI PUSH2 0x113 JUMP JUMPDEST DUP1 PUSH4 0x3F4BA83A GT PUSH2 0xE6 JUMPI DUP1 PUSH4 0x3F4BA83A EQ PUSH2 0x1BF JUMPI DUP1 PUSH4 0x5675049E EQ PUSH2 0x1D5 JUMPI DUP1 PUSH4 0x56A6D9EF EQ PUSH2 0x1FF JUMPI DUP1 PUSH4 0x5C975ABB EQ PUSH2 0x227 JUMPI DUP1 PUSH4 0x63414343 EQ PUSH2 0x251 JUMPI PUSH2 0x113 JUMP JUMPDEST DUP1 PUSH4 0x12065FE0 EQ PUSH2 0x117 JUMPI DUP1 PUSH4 0x2CDC9EFB EQ PUSH2 0x141 JUMPI DUP1 PUSH4 0x368DF2A3 EQ PUSH2 0x181 JUMPI DUP1 PUSH4 0x3CCFD60B EQ PUSH2 0x1A9 JUMPI JUMPDEST PUSH0 PUSH0 REVERT JUMPDEST CALLVALUE DUP1 ISZERO PUSH2 0x122 JUMPI PUSH0 PUSH0 REVERT JUMPDEST POP PUSH2 0x12B PUSH2 0x407 JUMP JUMPDEST PUSH1 0x40 MLOAD PUSH2 0x138 SWAP2 SWAP1 PUSH2 0x162E JUMP JUMPDEST PUSH1 0x40 MLOAD DUP1 SWAP2 SUB SWAP1 RETURN JUMPDEST CALLVALUE DUP1 ISZERO PUSH2 0x14C JUMPI PUSH0 PUSH0 REVERT JUMPDEST POP PUSH2 0x167 PUSH1 0x4 DUP1 CALLDATASIZE SUB DUP2 ADD SWAP1 PUSH2 0x162 SWAP2 SWAP1 PUSH2 0x16DC JUMP JUMPDEST PUSH2 0x40E JUMP JUMPDEST PUSH1 0x40 MLOAD PUSH2 0x178 SWAP6 SWAP5 SWAP4 SWAP3 SWAP2 SWAP1 PUSH2 0x17B4 JUMP JUMPDEST PUSH1 0x40 MLOAD DUP1 SWAP2 SUB SWAP1 RETURN JUMPDEST CALLVALUE DUP1 ISZERO PUSH2 0x18C JUMPI PUSH0 PUSH0 REVERT JUMPDEST POP PUSH2 0x1A7 PUSH1 0x4 DUP1 CALLDATASIZE SUB DUP2 ADD SWAP1 PUSH2 0x1A2 SWAP2 SWAP1 PUSH2 0x193F JUMP JUMPDEST PUSH2 0x591 JUMP JUMPDEST STOP JUMPDEST CALLVALUE DUP1 ISZERO PUSH2 0x1B4 JUMPI PUSH0 PUSH0 REVERT JUMPDEST POP PUSH2 0x1BD PUSH2 0x6DA JUMP JUMPDEST STOP JUMPDEST CALLVALUE DUP1 ISZERO PUSH2 0x1CA JUMPI PUSH0 PUSH0 REVERT JUMPDEST POP PUSH2 0x1D3 PUSH2 0x799 JUMP JUMPDEST STOP JUMPDEST CALLVALUE DUP1 ISZERO PUSH2 0x1E0 JUMPI PUSH0 PUSH0 REVERT JUMPDEST POP PUSH2 0x1E9 PUSH2 0x7AB JUMP JUMPDEST PUSH1 0x40 MLOAD PUSH2 0x1F6 SWAP2 SWAP1 PUSH2 0x1A9C JUMP JUMPDEST PUSH1 0x40 MLOAD DUP1 SWAP2 SUB SWAP1 RETURN JUMPDEST CALLVALUE DUP1 ISZERO PUSH2 0x20A JUMPI PUSH0 PUSH0 REVERT JUMPDEST POP PUSH2 0x225 PUSH1 0x4 DUP1 CALLDATASIZE SUB DUP2 ADD SWAP1 PUSH2 0x220 SWAP2 SWAP1 PUSH2 0x1AF7 JUMP JUMPDEST PUSH2 0x87F JUMP JUMPDEST STOP JUMPDEST CALLVALUE DUP1 ISZERO PUSH2 0x232 JUMPI PUSH0 PUSH0 REVERT JUMPDEST POP PUSH2 0x23B PUSH2 0x934 JUMP JUMPDEST PUSH1 0x40 MLOAD PUSH2 0x248 SWAP2 SWAP1 PUSH2 0x1B4F JUMP JUMPDEST PUSH1 0x40 MLOAD DUP1 SWAP2 SUB SWAP1 RETURN JUMPDEST CALLVALUE DUP1 ISZERO PUSH2 0x25C JUMPI PUSH0 PUSH0 REVERT JUMPDEST POP PUSH2 0x277 PUSH1 0x4 DUP1 CALLDATASIZE SUB DUP2 ADD SWAP1 PUSH2 0x272 SWAP2 SWAP1 PUSH2 0x1B68 JUMP JUMPDEST PUSH2 0x949 JUMP JUMPDEST STOP JUMPDEST CALLVALUE DUP1 ISZERO PUSH2 0x284 JUMPI PUSH0 PUSH0 REVERT JUMPDEST POP PUSH2 0x28D PUSH2 0xA99 JUMP JUMPDEST STOP JUMPDEST CALLVALUE DUP1 ISZERO PUSH2 0x29A JUMPI PUSH0 PUSH0 REVERT JUMPDEST POP PUSH2 0x2A3 PUSH2 0xAAC JUMP JUMPDEST STOP JUMPDEST CALLVALUE DUP1 ISZERO PUSH2 0x2B0 JUMPI PUSH0 PUSH0 REVERT JUMPDEST POP PUSH2 0x2B9 PUSH2 0xABE JUMP JUMPDEST PUSH1 0x40 MLOAD PUSH2 0x2C6 SWAP2 SWAP1 PUSH2 0x1BAF JUMP JUMPDEST PUSH1 0x40 MLOAD DUP1 SWAP2 SUB SWAP1 RETURN JUMPDEST CALLVALUE DUP1 ISZERO PUSH2 0x2DA JUMPI PUSH0 PUSH0 REVERT JUMPDEST POP PUSH2 0x2F5 PUSH1 0x4 DUP1 CALLDATASIZE SUB DUP2 ADD SWAP1 PUSH2 0x2F0 SWAP2 SWAP1 PUSH2 0x1BC8 JUMP JUMPDEST PUSH2 0xAE5 JUMP JUMPDEST STOP JUMPDEST CALLVALUE DUP1 ISZERO PUSH2 0x302 JUMPI PUSH0 PUSH0 REVERT JUMPDEST POP PUSH2 0x31D PUSH1 0x4 DUP1 CALLDATASIZE SUB DUP2 ADD SWAP1 PUSH2 0x318 SWAP2 SWAP1 PUSH2 0x1BF3 JUMP JUMPDEST PUSH2 0xB2E JUMP JUMPDEST PUSH1 0x40 MLOAD PUSH2 0x32A SWAP2 SWAP1 PUSH2 0x1D80 JUMP JUMPDEST PUSH1 0x40 MLOAD DUP1 SWAP2 SUB SWAP1 RETURN JUMPDEST CALLVALUE DUP1 ISZERO PUSH2 0x33E JUMPI PUSH0 PUSH0 REVERT JUMPDEST POP PUSH2 0x359 PUSH1 0x4 DUP1 CALLDATASIZE SUB DUP2 ADD SWAP1 PUSH2 0x354 SWAP2 SWAP1 PUSH2 0x1BC8 JUMP JUMPDEST PUSH2 0xD61 JUMP JUMPDEST PUSH1 0x40 MLOAD PUSH2 0x366 SWAP2 SWAP1 PUSH2 0x1DA0 JUMP JUMPDEST PUSH1 0x40 MLOAD DUP1 SWAP2 SUB SWAP1 RETURN JUMPDEST CALLVALUE DUP1 ISZERO PUSH2 0x37A JUMPI PUSH0 PUSH0 REVERT JUMPDEST POP PUSH2 0x383 PUSH2 0xE07 JUMP JUMPDEST PUSH1 0x40 MLOAD PUSH2 0x390 SWAP2 SWAP1 PUSH2 0x162E JUMP JUMPDEST PUSH1 0x40 MLOAD DUP1 SWAP2 SUB SWAP1 RETURN JUMPDEST CALLVALUE DUP1 ISZERO PUSH2 0x3A4 JUMPI PUSH0 PUSH0 REVERT JUMPDEST POP PUSH2 0x3BF PUSH1 0x4 DUP1 CALLDATASIZE SUB DUP2 ADD SWAP1 PUSH2 0x3BA SWAP2 SWAP1 PUSH2 0x1BF3 JUMP JUMPDEST PUSH2 0xE0D JUMP JUMPDEST STOP JUMPDEST PUSH2 0x3DB PUSH1 0x4 DUP1 CALLDATASIZE SUB DUP2 ADD SWAP1 PUSH2 0x3D6 SWAP2 SWAP1 PUSH2 0x1DEA JUMP JUMPDEST PUSH2 0xE8F JUMP JUMPDEST STOP JUMPDEST CALLVALUE DUP1 ISZERO PUSH2 0x3E8 JUMPI PUSH0 PUSH0 REVERT JUMPDEST POP PUSH2 0x3F1 PUSH2 0x1353 JUMP JUMPDEST PUSH1 0x40 MLOAD PUSH2 0x3FE SWAP2 SWAP1 PUSH2 0x1DA0 JUMP JUMPDEST PUSH1 0x40 MLOAD DUP1 SWAP2 SUB SWAP1 RETURN JUMPDEST PUSH0 SELFBALANCE SWAP1 POP SWAP1 JUMP JUMPDEST PUSH1 0x3 PUSH1 0x20 MSTORE DUP2 PUSH0 MSTORE PUSH1 0x40 PUSH0 KECCAK256 DUP2 DUP2 SLOAD DUP2 LT PUSH2 0x427 JUMPI PUSH0 DUP1 REVERT JUMPDEST SWAP1 PUSH0 MSTORE PUSH1 0x20 PUSH0 KECCAK256 SWAP1 PUSH1 0x5 MUL ADD PUSH0 SWAP2 POP SWAP2 POP POP DUP1 PUSH0 ADD PUSH0 SWAP1 SLOAD SWAP1 PUSH2 0x100 EXP SWAP1 DIV PUSH20 0xFFFFFFFFFFFFFFFFFFFFFFFFFFFFFFFFFFFFFFFF AND SWAP1 DUP1 PUSH1 0x1 ADD DUP1 SLOAD PUSH2 0x46C SWAP1 PUSH2 0x1EB3 JUMP JUMPDEST DUP1 PUSH1 0x1F ADD PUSH1 0x20 DUP1 SWAP2 DIV MUL PUSH1 0x20 ADD PUSH1 0x40 MLOAD SWAP1 DUP2 ADD PUSH1 0x40 MSTORE DUP1 SWAP3 SWAP2 SWAP1 DUP2 DUP2 MSTORE PUSH1 0x20 ADD DUP3 DUP1 SLOAD PUSH2 0x498 SWAP1 PUSH2 0x1EB3 JUMP JUMPDEST DUP1 ISZERO PUSH2 0x4E3 JUMPI DUP1 PUSH1 0x1F LT PUSH2 0x4BA JUMPI PUSH2 0x100 DUP1 DUP4 SLOAD DIV MUL DUP4 MSTORE SWAP2 PUSH1 0x20 ADD SWAP2 PUSH2 0x4E3 JUMP JUMPDEST DUP3 ADD SWAP2 SWAP1 PUSH0 MSTORE PUSH1 0x20 PUSH0 KECCAK256 SWAP1 JUMPDEST DUP2 SLOAD DUP2 MSTORE SWAP1 PUSH1 0x1 ADD SWAP1 PUSH1 0x20 ADD DUP1 DUP4 GT PUSH2 0x4C6 JUMPI DUP3 SWAP1 SUB PUSH1 0x1F AND DUP3 ADD SWAP2 JUMPDEST POP POP POP POP POP SWAP1 DUP1 PUSH1 0x2 ADD DUP1 SLOAD PUSH2 0x4F8 SWAP1 PUSH2 0x1EB3 JUMP JUMPDEST DUP1 PUSH1 0x1F ADD PUSH1 0x20 DUP1 SWAP2 DIV MUL PUSH1 0x20 ADD PUSH1 0x40 MLOAD SWAP1 DUP2 ADD PUSH1 0x40 MSTORE DUP1 SWAP3 SWAP2 SWAP1 DUP2 DUP2 MSTORE PUSH1 0x20 ADD DUP3 DUP1 SLOAD PUSH2 0x524 SWAP1 PUSH2 0x1EB3 JUMP JUMPDEST DUP1 ISZERO PUSH2 0x56F JUMPI DUP1 PUSH1 0x1F LT PUSH2 0x546 JUMPI PUSH2 0x100 DUP1 DUP4 SLOAD DIV MUL DUP4 MSTORE SWAP2 PUSH1 0x20 ADD SWAP2 PUSH2 0x56F JUMP JUMPDEST DUP3 ADD SWAP2 SWAP1 PUSH0 MSTORE PUSH1 0x20 PUSH0 KECCAK256 SWAP1 JUMPDEST DUP2 SLOAD DUP2 MSTORE SWAP1 PUSH1 0x1 ADD SWAP1 PUSH1 0x20 ADD DUP1 DUP4 GT PUSH2 0x552 JUMPI DUP3 SWAP1 SUB PUSH1 0x1F AND DUP3 ADD SWAP2 JUMPDEST POP POP POP POP POP SWAP1 DUP1 PUSH1 0x3 ADD PUSH0 SWAP1 SLOAD SWAP1 PUSH2 0x100 EXP SWAP1 DIV PUSH1 0xFF AND SWAP1 DUP1 PUSH1 0x4 ADD SLOAD SWAP1 POP DUP6 JUMP JUMPDEST PUSH2 0x599 PUSH2 0x138C JUMP JUMPDEST PUSH0 DUP2 MLOAD GT PUSH2 0x5DC JUMPI PUSH1 0x40 MLOAD PUSH32 0x8C379A000000000000000000000000000000000000000000000000000000000 DUP2 MSTORE PUSH1 0x4 ADD PUSH2 0x5D3 SWAP1 PUSH2 0x1F2D JUMP JUMPDEST PUSH1 0x40 MLOAD DUP1 SWAP2 SUB SWAP1 REVERT JUMPDEST PUSH0 PUSH0 SWAP1 POP JUMPDEST PUSH1 0x4 DUP1 SLOAD SWAP1 POP DUP2 LT ISZERO PUSH2 0x674 JUMPI DUP2 DUP1 MLOAD SWAP1 PUSH1 0x20 ADD KECCAK256 PUSH1 0x4 DUP3 DUP2 SLOAD DUP2 LT PUSH2 0x60A JUMPI PUSH2 0x609 PUSH2 0x1F4B JUMP JUMPDEST JUMPDEST SWAP1 PUSH0 MSTORE PUSH1 0x20 PUSH0 KECCAK256 ADD PUSH1 0x40 MLOAD PUSH2 0x61F SWAP2 SWAP1 PUSH2 0x2014 JUMP JUMPDEST PUSH1 0x40 MLOAD DUP1 SWAP2 SUB SWAP1 KECCAK256 SUB PUSH2 0x667 JUMPI PUSH1 0x40 MLOAD PUSH32 0x8C379A000000000000000000000000000000000000000000000000000000000 DUP2 MSTORE PUSH1 0x4 ADD PUSH2 0x65E SWAP1 PUSH2 0x2074 JUMP JUMPDEST PUSH1 0x40 MLOAD DUP1 SWAP2 SUB SWAP1 REVERT JUMPDEST DUP1 DUP1 PUSH1 0x1 ADD SWAP2 POP POP PUSH2 0x5E1 JUMP JUMPDEST POP DUP1 PUSH1 0x4 DUP4 DUP2 SLOAD DUP2 LT PUSH2 0x68A JUMPI PUSH2 0x689 PUSH2 0x1F4B JUMP JUMPDEST JUMPDEST SWAP1 PUSH0 MSTORE PUSH1 0x20 PUSH0 KECCAK256 ADD SWAP1 DUP2 PUSH2 0x69E SWAP2 SWAP1 PUSH2 0x2232 JUMP JUMPDEST POP PUSH32 0x8329F95E4544F4E52F94F1889C321525F3AB368F971C4AD352BA31B4EA8FED56 DUP2 PUSH1 0x40 MLOAD PUSH2 0x6CE SWAP2 SWAP1 PUSH2 0x1DA0 JUMP JUMPDEST PUSH1 0x40 MLOAD DUP1 SWAP2 SUB SWAP1 LOG1 POP POP JUMP JUMPDEST PUSH2 0x6E2 PUSH2 0x138C JUMP JUMPDEST PUSH0 SELFBALANCE SWAP1 POP PUSH0 PUSH2 0x6EF PUSH2 0xABE JUMP JUMPDEST PUSH20 0xFFFFFFFFFFFFFFFFFFFFFFFFFFFFFFFFFFFFFFFF AND DUP3 PUSH1 0x40 MLOAD PUSH2 0x712 SWAP1 PUSH2 0x2324 JUMP JUMPDEST PUSH0 PUSH1 0x40 MLOAD DUP1 DUP4 SUB DUP2 DUP6 DUP8 GAS CALL SWAP3 POP POP POP RETURNDATASIZE DUP1 PUSH0 DUP2 EQ PUSH2 0x74C JUMPI PUSH1 0x40 MLOAD SWAP2 POP PUSH1 0x1F NOT PUSH1 0x3F RETURNDATASIZE ADD AND DUP3 ADD PUSH1 0x40 MSTORE RETURNDATASIZE DUP3 MSTORE RETURNDATASIZE PUSH0 PUSH1 0x20 DUP5 ADD RETURNDATACOPY PUSH2 0x751 JUMP JUMPDEST PUSH1 0x60 SWAP2 POP JUMPDEST POP POP SWAP1 POP DUP1 PUSH2 0x795 JUMPI PUSH1 0x40 MLOAD PUSH32 0x8C379A000000000000000000000000000000000000000000000000000000000 DUP2 MSTORE PUSH1 0x4 ADD PUSH2 0x78C SWAP1 PUSH2 0x2382 JUMP JUMPDEST PUSH1 0x40 MLOAD DUP1 SWAP2 SUB SWAP1 REVERT JUMPDEST POP POP JUMP JUMPDEST PUSH2 0x7A1 PUSH2 0x138C JUMP JUMPDEST PUSH2 0x7A9 PUSH2 0x140A JUMP JUMPDEST JUMP JUMPDEST PUSH1 0x60 PUSH1 0x4 DUP1 SLOAD DUP1 PUSH1 0x20 MUL PUSH1 0x20 ADD PUSH1 0x40 MLOAD SWAP1 DUP2 ADD PUSH1 0x40 MSTORE DUP1 SWAP3 SWAP2 SWAP1 DUP2 DUP2 MSTORE PUSH1 0x20 ADD PUSH0 SWAP1 JUMPDEST DUP3 DUP3 LT ISZERO PUSH2 0x876 JUMPI DUP4 DUP3 SWAP1 PUSH0 MSTORE PUSH1 0x20 PUSH0 KECCAK256 ADD DUP1 SLOAD PUSH2 0x7EB SWAP1 PUSH2 0x1EB3 JUMP JUMPDEST DUP1 PUSH1 0x1F ADD PUSH1 0x20 DUP1 SWAP2 DIV MUL PUSH1 0x20 ADD PUSH1 0x40 MLOAD SWAP1 DUP2 ADD PUSH1 0x40 MSTORE DUP1 SWAP3 SWAP2 SWAP1 DUP2 DUP2 MSTORE PUSH1 0x20 ADD DUP3 DUP1 SLOAD PUSH2 0x817 SWAP1 PUSH2 0x1EB3 JUMP JUMPDEST DUP1 ISZERO PUSH2 0x862 JUMPI DUP1 PUSH1 0x1F LT PUSH2 0x839 JUMPI PUSH2 0x100 DUP1 DUP4 SLOAD DIV MUL DUP4 MSTORE SWAP2 PUSH1 0x20 ADD SWAP2 PUSH2 0x862 JUMP JUMPDEST DUP3 ADD SWAP2 SWAP1 PUSH0 MSTORE PUSH1 0x20 PUSH0 KECCAK256 SWAP1 JUMPDEST DUP2 SLOAD DUP2 MSTORE SWAP1 PUSH1 0x1 ADD SWAP1 PUSH1 0x20 ADD DUP1 DUP4 GT PUSH2 0x845 JUMPI DUP3 SWAP1 SUB PUSH1 0x1F AND DUP3 ADD SWAP2 JUMPDEST POP POP POP POP POP DUP2 MSTORE PUSH1 0x20 ADD SWAP1 PUSH1 0x1 ADD SWAP1 PUSH2 0x7CE JUMP JUMPDEST POP POP POP POP SWAP1 POP SWAP1 JUMP JUMPDEST PUSH2 0x887 PUSH2 0x138C JUMP JUMPDEST PUSH0 DUP3 PUSH20 0xFFFFFFFFFFFFFFFFFFFFFFFFFFFFFFFFFFFFFFFF AND DUP3 PUSH1 0x40 MLOAD PUSH2 0x8AC SWAP1 PUSH2 0x2324 JUMP JUMPDEST PUSH0 PUSH1 0x40 MLOAD DUP1 DUP4 SUB DUP2 DUP6 DUP8 GAS CALL SWAP3 POP POP POP RETURNDATASIZE DUP1 PUSH0 DUP2 EQ PUSH2 0x8E6 JUMPI PUSH1 0x40 MLOAD SWAP2 POP PUSH1 0x1F NOT PUSH1 0x3F RETURNDATASIZE ADD AND DUP3 ADD PUSH1 0x40 MSTORE RETURNDATASIZE DUP3 MSTORE RETURNDATASIZE PUSH0 PUSH1 0x20 DUP5 ADD RETURNDATACOPY PUSH2 0x8EB JUMP JUMPDEST PUSH1 0x60 SWAP2 POP JUMPDEST POP POP SWAP1 POP DUP1 PUSH2 0x92F JUMPI PUSH1 0x40 MLOAD PUSH32 0x8C379A000000000000000000000000000000000000000000000000000000000 DUP2 MSTORE PUSH1 0x4 ADD PUSH2 0x926 SWAP1 PUSH2 0x2382 JUMP JUMPDEST PUSH1 0x40 MLOAD DUP1 SWAP2 SUB SWAP1 REVERT JUMPDEST POP POP POP JUMP JUMPDEST PUSH0 PUSH0 PUSH1 0x14 SWAP1 SLOAD SWAP1 PUSH2 0x100 EXP SWAP1 DIV PUSH1 0xFF AND SWAP1 POP SWAP1 JUMP JUMPDEST PUSH2 0x951 PUSH2 0x138C JUMP JUMPDEST PUSH0 DUP2 MLOAD GT PUSH2 0x994 JUMPI PUSH1 0x40 MLOAD PUSH32 0x8C379A000000000000000000000000000000000000000000000000000000000 DUP2 MSTORE PUSH1 0x4 ADD PUSH2 0x98B SWAP1 PUSH2 0x1F2D JUMP JUMPDEST PUSH1 0x40 MLOAD DUP1 SWAP2 SUB SWAP1 REVERT JUMPDEST PUSH0 PUSH0 SWAP1 POP JUMPDEST PUSH1 0x4 DUP1 SLOAD SWAP1 POP DUP2 LT ISZERO PUSH2 0xA2C JUMPI DUP2 DUP1 MLOAD SWAP1 PUSH1 0x20 ADD KECCAK256 PUSH1 0x4 DUP3 DUP2 SLOAD DUP2 LT PUSH2 0x9C2 JUMPI PUSH2 0x9C1 PUSH2 0x1F4B JUMP JUMPDEST JUMPDEST SWAP1 PUSH0 MSTORE PUSH1 0x20 PUSH0 KECCAK256 ADD PUSH1 0x40 MLOAD PUSH2 0x9D7 SWAP2 SWAP1 PUSH2 0x2014 JUMP JUMPDEST PUSH1 0x40 MLOAD DUP1 SWAP2 SUB SWAP1 KECCAK256 SUB PUSH2 0xA1F JUMPI PUSH1 0x40 MLOAD PUSH32 0x8C379A000000000000000000000000000000000000000000000000000000000 DUP2 MSTORE PUSH1 0x4 ADD PUSH2 0xA16 SWAP1 PUSH2 0x2074 JUMP JUMPDEST PUSH1 0x40 MLOAD DUP1 SWAP2 SUB SWAP1 REVERT JUMPDEST DUP1 DUP1 PUSH1 0x1 ADD SWAP2 POP POP PUSH2 0x999 JUMP JUMPDEST POP PUSH1 0x4 DUP2 SWAP1 DUP1 PUSH1 0x1 DUP2 SLOAD ADD DUP1 DUP3 SSTORE DUP1 SWAP2 POP POP PUSH1 0x1 SWAP1 SUB SWAP1 PUSH0 MSTORE PUSH1 0x20 PUSH0 KECCAK256 ADD PUSH0 SWAP1 SWAP2 SWAP1 SWAP2 SWAP1 SWAP2 POP SWAP1 DUP2 PUSH2 0xA5E SWAP2 SWAP1 PUSH2 0x2232 JUMP JUMPDEST POP PUSH32 0x8329F95E4544F4E52F94F1889C321525F3AB368F971C4AD352BA31B4EA8FED56 DUP2 PUSH1 0x40 MLOAD PUSH2 0xA8E SWAP2 SWAP1 PUSH2 0x1DA0 JUMP JUMPDEST PUSH1 0x40 MLOAD DUP1 SWAP2 SUB SWAP1 LOG1 POP JUMP JUMPDEST PUSH2 0xAA1 PUSH2 0x138C JUMP JUMPDEST PUSH2 0xAAA PUSH0 PUSH2 0x146B JUMP JUMPDEST JUMP JUMPDEST PUSH2 0xAB4 PUSH2 0x138C JUMP JUMPDEST PUSH2 0xABC PUSH2 0x152C JUMP JUMPDEST JUMP JUMPDEST PUSH0 PUSH0 PUSH0 SWAP1 SLOAD SWAP1 PUSH2 0x100 EXP SWAP1 DIV PUSH20 0xFFFFFFFFFFFFFFFFFFFFFFFFFFFFFFFFFFFFFFFF AND SWAP1 POP SWAP1 JUMP JUMPDEST PUSH2 0xAED PUSH2 0x138C JUMP JUMPDEST DUP1 PUSH1 0x2 DUP2 SWAP1 SSTORE POP PUSH32 0x8C4D35E54A3F2EF1134138FD8EA3DAEE6A3C89E10D2665996BABDF70261E2C76 DUP2 PUSH1 0x40 MLOAD PUSH2 0xB23 SWAP2 SWAP1 PUSH2 0x162E JUMP JUMPDEST PUSH1 0x40 MLOAD DUP1 SWAP2 SUB SWAP1 LOG1 POP JUMP JUMPDEST PUSH1 0x60 PUSH1 0x3 PUSH0 DUP4 PUSH20 0xFFFFFFFFFFFFFFFFFFFFFFFFFFFFFFFFFFFFFFFF AND PUSH20 0xFFFFFFFFFFFFFFFFFFFFFFFFFFFFFFFFFFFFFFFF AND DUP2 MSTORE PUSH1 0x20 ADD SWAP1 DUP2 MSTORE PUSH1 0x20 ADD PUSH0 KECCAK256 DUP1 SLOAD DUP1 PUSH1 0x20 MUL PUSH1 0x20 ADD PUSH1 0x40 MLOAD SWAP1 DUP2 ADD PUSH1 0x40 MSTORE DUP1 SWAP3 SWAP2 SWAP1 DUP2 DUP2 MSTORE PUSH1 0x20 ADD PUSH0 SWAP1 JUMPDEST DUP3 DUP3 LT ISZERO PUSH2 0xD56 JUMPI DUP4 DUP3 SWAP1 PUSH0 MSTORE PUSH1 0x20 PUSH0 KECCAK256 SWAP1 PUSH1 0x5 MUL ADD PUSH1 0x40 MLOAD DUP1 PUSH1 0xA0 ADD PUSH1 0x40 MSTORE SWAP1 DUP2 PUSH0 DUP3 ADD PUSH0 SWAP1 SLOAD SWAP1 PUSH2 0x100 EXP SWAP1 DIV PUSH20 0xFFFFFFFFFFFFFFFFFFFFFFFFFFFFFFFFFFFFFFFF AND PUSH20 0xFFFFFFFFFFFFFFFFFFFFFFFFFFFFFFFFFFFFFFFF AND PUSH20 0xFFFFFFFFFFFFFFFFFFFFFFFFFFFFFFFFFFFFFFFF AND DUP2 MSTORE PUSH1 0x20 ADD PUSH1 0x1 DUP3 ADD DUP1 SLOAD PUSH2 0xC11 SWAP1 PUSH2 0x1EB3 JUMP JUMPDEST DUP1 PUSH1 0x1F ADD PUSH1 0x20 DUP1 SWAP2 DIV MUL PUSH1 0x20 ADD PUSH1 0x40 MLOAD SWAP1 DUP2 ADD PUSH1 0x40 MSTORE DUP1 SWAP3 SWAP2 SWAP1 DUP2 DUP2 MSTORE PUSH1 0x20 ADD DUP3 DUP1 SLOAD PUSH2 0xC3D SWAP1 PUSH2 0x1EB3 JUMP JUMPDEST DUP1 ISZERO PUSH2 0xC88 JUMPI DUP1 PUSH1 0x1F LT PUSH2 0xC5F JUMPI PUSH2 0x100 DUP1 DUP4 SLOAD DIV MUL DUP4 MSTORE SWAP2 PUSH1 0x20 ADD SWAP2 PUSH2 0xC88 JUMP JUMPDEST DUP3 ADD SWAP2 SWAP1 PUSH0 MSTORE PUSH1 0x20 PUSH0 KECCAK256 SWAP1 JUMPDEST DUP2 SLOAD DUP2 MSTORE SWAP1 PUSH1 0x1 ADD SWAP1 PUSH1 0x20 ADD DUP1 DUP4 GT PUSH2 0xC6B JUMPI DUP3 SWAP1 SUB PUSH1 0x1F AND DUP3 ADD SWAP2 JUMPDEST POP POP POP POP POP DUP2 MSTORE PUSH1 0x20 ADD PUSH1 0x2 DUP3 ADD DUP1 SLOAD PUSH2 0xCA1 SWAP1 PUSH2 0x1EB3 JUMP JUMPDEST DUP1 PUSH1 0x1F ADD PUSH1 0x20 DUP1 SWAP2 DIV MUL PUSH1 0x20 ADD PUSH1 0x40 MLOAD SWAP1 DUP2 ADD PUSH1 0x40 MSTORE DUP1 SWAP3 SWAP2 SWAP1 DUP2 DUP2 MSTORE PUSH1 0x20 ADD DUP3 DUP1 SLOAD PUSH2 0xCCD SWAP1 PUSH2 0x1EB3 JUMP JUMPDEST DUP1 ISZERO PUSH2 0xD18 JUMPI DUP1 PUSH1 0x1F LT PUSH2 0xCEF JUMPI PUSH2 0x100 DUP1 DUP4 SLOAD DIV MUL DUP4 MSTORE SWAP2 PUSH1 0x20 ADD SWAP2 PUSH2 0xD18 JUMP JUMPDEST DUP3 ADD SWAP2 SWAP1 PUSH0 MSTORE PUSH1 0x20 PUSH0 KECCAK256 SWAP1 JUMPDEST DUP2 SLOAD DUP2 MSTORE SWAP1 PUSH1 0x1 ADD SWAP1 PUSH1 0x20 ADD DUP1 DUP4 GT PUSH2 0xCFB JUMPI DUP3 SWAP1 SUB PUSH1 0x1F AND DUP3 ADD SWAP2 JUMPDEST POP POP POP POP POP DUP2 MSTORE PUSH1 0x20 ADD PUSH1 0x3 DUP3 ADD PUSH0 SWAP1 SLOAD SWAP1 PUSH2 0x100 EXP SWAP1 DIV PUSH1 0xFF AND PUSH1 0xFF AND PUSH1 0xFF AND DUP2 MSTORE PUSH1 0x20 ADD PUSH1 0x4 DUP3 ADD SLOAD DUP2 MSTORE POP POP DUP2 MSTORE PUSH1 0x20 ADD SWAP1 PUSH1 0x1 ADD SWAP1 PUSH2 0xB8C JUMP JUMPDEST POP POP POP POP SWAP1 POP SWAP2 SWAP1 POP JUMP JUMPDEST PUSH1 0x4 DUP2 DUP2 SLOAD DUP2 LT PUSH2 0xD70 JUMPI PUSH0 DUP1 REVERT JUMPDEST SWAP1 PUSH0 MSTORE PUSH1 0x20 PUSH0 KECCAK256 ADD PUSH0 SWAP2 POP SWAP1 POP DUP1 SLOAD PUSH2 0xD88 SWAP1 PUSH2 0x1EB3 JUMP JUMPDEST DUP1 PUSH1 0x1F ADD PUSH1 0x20 DUP1 SWAP2 DIV MUL PUSH1 0x20 ADD PUSH1 0x40 MLOAD SWAP1 DUP2 ADD PUSH1 0x40 MSTORE DUP1 SWAP3 SWAP2 SWAP1 DUP2 DUP2 MSTORE PUSH1 0x20 ADD DUP3 DUP1 SLOAD PUSH2 0xDB4 SWAP1 PUSH2 0x1EB3 JUMP JUMPDEST DUP1 ISZERO PUSH2 0xDFF JUMPI DUP1 PUSH1 0x1F LT PUSH2 0xDD6 JUMPI PUSH2 0x100 DUP1 DUP4 SLOAD DIV MUL DUP4 MSTORE SWAP2 PUSH1 0x20 ADD SWAP2 PUSH2 0xDFF JUMP JUMPDEST DUP3 ADD SWAP2 SWAP1 PUSH0 MSTORE PUSH1 0x20 PUSH0 KECCAK256 SWAP1 JUMPDEST DUP2 SLOAD DUP2 MSTORE SWAP1 PUSH1 0x1 ADD SWAP1 PUSH1 0x20 ADD DUP1 DUP4 GT PUSH2 0xDE2 JUMPI DUP3 SWAP1 SUB PUSH1 0x1F AND DUP3 ADD SWAP2 JUMPDEST POP POP POP POP POP DUP2 JUMP JUMPDEST PUSH1 0x2 SLOAD DUP2 JUMP JUMPDEST PUSH2 0xE15 PUSH2 0x138C JUMP JUMPDEST PUSH0 PUSH20 0xFFFFFFFFFFFFFFFFFFFFFFFFFFFFFFFFFFFFFFFF AND DUP2 PUSH20 0xFFFFFFFFFFFFFFFFFFFFFFFFFFFFFFFFFFFFFFFF AND SUB PUSH2 0xE83 JUMPI PUSH1 0x40 MLOAD PUSH32 0x8C379A000000000000000000000000000000000000000000000000000000000 DUP2 MSTORE PUSH1 0x4 ADD PUSH2 0xE7A SWAP1 PUSH2 0x2410 JUMP JUMPDEST PUSH1 0x40 MLOAD DUP1 SWAP2 SUB SWAP1 REVERT JUMPDEST PUSH2 0xE8C DUP2 PUSH2 0x146B JUMP JUMPDEST POP JUMP JUMPDEST PUSH0 PUSH20 0xFFFFFFFFFFFFFFFFFFFFFFFFFFFFFFFFFFFFFFFF AND DUP5 PUSH20 0xFFFFFFFFFFFFFFFFFFFFFFFFFFFFFFFFFFFFFFFF AND SUB PUSH2 0xEFD JUMPI PUSH1 0x40 MLOAD PUSH32 0x8C379A000000000000000000000000000000000000000000000000000000000 DUP2 MSTORE PUSH1 0x4 ADD PUSH2 0xEF4 SWAP1 PUSH2 0x2478 JUMP JUMPDEST PUSH1 0x40 MLOAD DUP1 SWAP2 SUB SWAP1 REVERT JUMPDEST PUSH2 0xF05 PUSH2 0x158E JUMP JUMPDEST PUSH20 0xFFFFFFFFFFFFFFFFFFFFFFFFFFFFFFFFFFFFFFFF AND DUP5 PUSH20 0xFFFFFFFFFFFFFFFFFFFFFFFFFFFFFFFFFFFFFFFF AND SUB PUSH2 0xF72 JUMPI PUSH1 0x40 MLOAD PUSH32 0x8C379A000000000000000000000000000000000000000000000000000000000 DUP2 MSTORE PUSH1 0x4 ADD PUSH2 0xF69 SWAP1 PUSH2 0x24E0 JUMP JUMPDEST PUSH1 0x40 MLOAD DUP1 SWAP2 SUB SWAP1 REVERT JUMPDEST PUSH0 DUP2 PUSH1 0xFF AND GT DUP1 ISZERO PUSH2 0xF88 JUMPI POP PUSH1 0x5 DUP2 PUSH1 0xFF AND GT ISZERO JUMPDEST PUSH2 0xFC7 JUMPI PUSH1 0x40 MLOAD PUSH32 0x8C379A000000000000000000000000000000000000000000000000000000000 DUP2 MSTORE PUSH1 0x4 ADD PUSH2 0xFBE SWAP1 PUSH2 0x2548 JUMP JUMPDEST PUSH1 0x40 MLOAD DUP1 SWAP2 SUB SWAP1 REVERT JUMPDEST PUSH0 PUSH0 SWAP1 POP PUSH0 PUSH0 SWAP1 POP JUMPDEST PUSH1 0x4 DUP1 SLOAD SWAP1 POP DUP2 LT ISZERO PUSH2 0x1031 JUMPI DUP5 DUP1 MLOAD SWAP1 PUSH1 0x20 ADD KECCAK256 PUSH1 0x4 DUP3 DUP2 SLOAD DUP2 LT PUSH2 0xFF9 JUMPI PUSH2 0xFF8 PUSH2 0x1F4B JUMP JUMPDEST JUMPDEST SWAP1 PUSH0 MSTORE PUSH1 0x20 PUSH0 KECCAK256 ADD PUSH1 0x40 MLOAD PUSH2 0x100E SWAP2 SWAP1 PUSH2 0x2014 JUMP JUMPDEST PUSH1 0x40 MLOAD DUP1 SWAP2 SUB SWAP1 KECCAK256 SUB PUSH2 0x1024 JUMPI PUSH1 0x1 SWAP2 POP PUSH2 0x1031 JUMP JUMPDEST DUP1 DUP1 PUSH1 0x1 ADD SWAP2 POP POP PUSH2 0xFD0 JUMP JUMPDEST POP DUP1 PUSH2 0x1072 JUMPI PUSH1 0x40 MLOAD PUSH32 0x8C379A000000000000000000000000000000000000000000000000000000000 DUP2 MSTORE PUSH1 0x4 ADD PUSH2 0x1069 SWAP1 PUSH2 0x25B0 JUMP JUMPDEST PUSH1 0x40 MLOAD DUP1 SWAP2 SUB SWAP1 REVERT JUMPDEST PUSH0 PUSH1 0x2 SLOAD GT ISZERO PUSH2 0x1179 JUMPI PUSH1 0x2 SLOAD CALLVALUE LT ISZERO PUSH2 0x10C3 JUMPI CALLVALUE PUSH1 0x40 MLOAD PUSH32 0x9266535100000000000000000000000000000000000000000000000000000000 DUP2 MSTORE PUSH1 0x4 ADD PUSH2 0x10BA SWAP2 SWAP1 PUSH2 0x162E JUMP JUMPDEST PUSH1 0x40 MLOAD DUP1 SWAP2 SUB SWAP1 REVERT JUMPDEST PUSH0 PUSH2 0x10CC PUSH2 0xABE JUMP JUMPDEST PUSH20 0xFFFFFFFFFFFFFFFFFFFFFFFFFFFFFFFFFFFFFFFF AND CALLVALUE PUSH1 0x40 MLOAD PUSH2 0x10EF SWAP1 PUSH2 0x2324 JUMP JUMPDEST PUSH0 PUSH1 0x40 MLOAD DUP1 DUP4 SUB DUP2 DUP6 DUP8 GAS CALL SWAP3 POP POP POP RETURNDATASIZE DUP1 PUSH0 DUP2 EQ PUSH2 0x1129 JUMPI PUSH1 0x40 MLOAD SWAP2 POP PUSH1 0x1F NOT PUSH1 0x3F RETURNDATASIZE ADD AND DUP3 ADD PUSH1 0x40 MSTORE RETURNDATASIZE DUP3 MSTORE RETURNDATASIZE PUSH0 PUSH1 0x20 DUP5 ADD RETURNDATACOPY PUSH2 0x112E JUMP JUMPDEST PUSH1 0x60 SWAP2 POP JUMPDEST POP POP SWAP1 POP DUP1 PUSH1 0x1 SWAP1 PUSH2 0x1176 JUMPI PUSH1 0x40 MLOAD PUSH32 0x8C379A000000000000000000000000000000000000000000000000000000000 DUP2 MSTORE PUSH1 0x4 ADD PUSH2 0x116D SWAP2 SWAP1 PUSH2 0x264F JUMP JUMPDEST PUSH1 0x40 MLOAD DUP1 SWAP2 SUB SWAP1 REVERT JUMPDEST POP POP JUMPDEST PUSH0 PUSH1 0x40 MLOAD DUP1 PUSH1 0xA0 ADD PUSH1 0x40 MSTORE DUP1 PUSH2 0x118D PUSH2 0x158E JUMP JUMPDEST PUSH20 0xFFFFFFFFFFFFFFFFFFFFFFFFFFFFFFFFFFFFFFFF AND DUP2 MSTORE PUSH1 0x20 ADD DUP7 DUP2 MSTORE PUSH1 0x20 ADD DUP6 DUP2 MSTORE PUSH1 0x20 ADD DUP5 PUSH1 0xFF AND DUP2 MSTORE PUSH1 0x20 ADD TIMESTAMP DUP2 MSTORE POP SWAP1 POP PUSH1 0x3 PUSH0 DUP8 PUSH20 0xFFFFFFFFFFFFFFFFFFFFFFFFFFFFFFFFFFFFFFFF AND PUSH20 0xFFFFFFFFFFFFFFFFFFFFFFFFFFFFFFFFFFFFFFFF AND DUP2 MSTORE PUSH1 0x20 ADD SWAP1 DUP2 MSTORE PUSH1 0x20 ADD PUSH0 KECCAK256 DUP2 SWAP1 DUP1 PUSH1 0x1 DUP2 SLOAD ADD DUP1 DUP3 SSTORE DUP1 SWAP2 POP POP PUSH1 0x1 SWAP1 SUB SWAP1 PUSH0 MSTORE PUSH1 0x20 PUSH0 KECCAK256 SWAP1 PUSH1 0x5 MUL ADD PUSH0 SWAP1 SWAP2 SWAP1 SWAP2 SWAP1 SWAP2 POP PUSH0 DUP3 ADD MLOAD DUP2 PUSH0 ADD PUSH0 PUSH2 0x100 EXP DUP2 SLOAD DUP2 PUSH20 0xFFFFFFFFFFFFFFFFFFFFFFFFFFFFFFFFFFFFFFFF MUL NOT AND SWAP1 DUP4 PUSH20 0xFFFFFFFFFFFFFFFFFFFFFFFFFFFFFFFFFFFFFFFF AND MUL OR SWAP1 SSTORE POP PUSH1 0x20 DUP3 ADD MLOAD DUP2 PUSH1 0x1 ADD SWAP1 DUP2 PUSH2 0x1280 SWAP2 SWAP1 PUSH2 0x2232 JUMP JUMPDEST POP PUSH1 0x40 DUP3 ADD MLOAD DUP2 PUSH1 0x2 ADD SWAP1 DUP2 PUSH2 0x1296 SWAP2 SWAP1 PUSH2 0x2232 JUMP JUMPDEST POP PUSH1 0x60 DUP3 ADD MLOAD DUP2 PUSH1 0x3 ADD PUSH0 PUSH2 0x100 EXP DUP2 SLOAD DUP2 PUSH1 0xFF MUL NOT AND SWAP1 DUP4 PUSH1 0xFF AND MUL OR SWAP1 SSTORE POP PUSH1 0x80 DUP3 ADD MLOAD DUP2 PUSH1 0x4 ADD SSTORE POP POP DUP5 PUSH1 0x40 MLOAD PUSH2 0x12D1 SWAP2 SWAP1 PUSH2 0x26A9 JUMP JUMPDEST PUSH1 0x40 MLOAD DUP1 SWAP2 SUB SWAP1 KECCAK256 PUSH2 0x12E1 PUSH2 0x158E JUMP JUMPDEST PUSH20 0xFFFFFFFFFFFFFFFFFFFFFFFFFFFFFFFFFFFFFFFF AND DUP8 PUSH20 0xFFFFFFFFFFFFFFFFFFFFFFFFFFFFFFFFFFFFFFFF AND PUSH32 0xCEE636F0C13AAA861E26F59625E55D15AB4AF806AEF7DE8EE49C13390256A0E8 DUP8 PUSH1 0x2 SLOAD TIMESTAMP PUSH1 0x40 MLOAD PUSH2 0x1343 SWAP4 SWAP3 SWAP2 SWAP1 PUSH2 0x26BF JUMP JUMPDEST PUSH1 0x40 MLOAD DUP1 SWAP2 SUB SWAP1 LOG4 POP POP POP POP POP POP JUMP JUMPDEST PUSH1 0x40 MLOAD DUP1 PUSH1 0x40 ADD PUSH1 0x40 MSTORE DUP1 PUSH1 0x5 DUP2 MSTORE PUSH1 0x20 ADD PUSH32 0x312E302E30000000000000000000000000000000000000000000000000000000 DUP2 MSTORE POP DUP2 JUMP JUMPDEST PUSH2 0x1394 PUSH2 0x158E JUMP JUMPDEST PUSH20 0xFFFFFFFFFFFFFFFFFFFFFFFFFFFFFFFFFFFFFFFF AND PUSH2 0x13B2 PUSH2 0xABE JUMP JUMPDEST PUSH20 0xFFFFFFFFFFFFFFFFFFFFFFFFFFFFFFFFFFFFFFFF AND EQ PUSH2 0x1408 JUMPI PUSH1 0x40 MLOAD PUSH32 0x8C379A000000000000000000000000000000000000000000000000000000000 DUP2 MSTORE PUSH1 0x4 ADD PUSH2 0x13FF SWAP1 PUSH2 0x2745 JUMP JUMPDEST PUSH1 0x40 MLOAD DUP1 SWAP2 SUB SWAP1 REVERT JUMPDEST JUMP JUMPDEST PUSH2 0x1412 PUSH2 0x1595 JUMP JUMPDEST PUSH0 PUSH0 PUSH1 0x14 PUSH2 0x100 EXP DUP2 SLOAD DUP2 PUSH1 0xFF MUL NOT AND SWAP1 DUP4 ISZERO ISZERO MUL OR SWAP1 SSTORE POP PUSH32 0x5DB9EE0A495BF2E6FF9C91A7834C1BA4FDD244A5E8AA4E537BD38AEAE4B073AA PUSH2 0x1454 PUSH2 0x158E JUMP JUMPDEST PUSH1 0x40 MLOAD PUSH2 0x1461 SWAP2 SWAP1 PUSH2 0x1BAF JUMP JUMPDEST PUSH1 0x40 MLOAD DUP1 SWAP2 SUB SWAP1 LOG1 JUMP JUMPDEST PUSH0 PUSH0 PUSH0 SWAP1 SLOAD SWAP1 PUSH2 0x100 EXP SWAP1 DIV PUSH20 0xFFFFFFFFFFFFFFFFFFFFFFFFFFFFFFFFFFFFFFFF AND SWAP1 POP DUP2 PUSH0 PUSH0 PUSH2 0x100 EXP DUP2 SLOAD DUP2 PUSH20 0xFFFFFFFFFFFFFFFFFFFFFFFFFFFFFFFFFFFFFFFF MUL NOT AND SWAP1 DUP4 PUSH20 0xFFFFFFFFFFFFFFFFFFFFFFFFFFFFFFFFFFFFFFFF AND MUL OR SWAP1 SSTORE POP DUP2 PUSH20 0xFFFFFFFFFFFFFFFFFFFFFFFFFFFFFFFFFFFFFFFF AND DUP2 PUSH20 0xFFFFFFFFFFFFFFFFFFFFFFFFFFFFFFFFFFFFFFFF AND PUSH32 0x8BE0079C531659141344CD1FD0A4F28419497F9722A3DAAFE3B4186F6B6457E0 PUSH1 0x40 MLOAD PUSH1 0x40 MLOAD DUP1 SWAP2 SUB SWAP1 LOG3 POP POP JUMP JUMPDEST PUSH2 0x1534 PUSH2 0x15D5 JUMP JUMPDEST PUSH1 0x1 PUSH0 PUSH1 0x14 PUSH2 0x100 EXP DUP2 SLOAD DUP2 PUSH1 0xFF MUL NOT AND SWAP1 DUP4 ISZERO ISZERO MUL OR SWAP1 SSTORE POP PUSH32 0x62E78CEA01BEE320CD4E420270B5EA74000D11B0C9F74754EBDBFC544B05A258 PUSH2 0x1577 PUSH2 0x158E JUMP JUMPDEST PUSH1 0x40 MLOAD PUSH2 0x1584 SWAP2 SWAP1 PUSH2 0x1BAF JUMP JUMPDEST PUSH1 0x40 MLOAD DUP1 SWAP2 SUB SWAP1 LOG1 JUMP JUMPDEST PUSH0 CALLER SWAP1 POP SWAP1 JUMP JUMPDEST PUSH2 0x159D PUSH2 0x934 JUMP JUMPDEST PUSH2 0x15D3 JUMPI PUSH1 0x40 MLOAD PUSH32 0x8DFC202B00000000000000000000000000000000000000000000000000000000 DUP2 MSTORE PUSH1 0x4 ADD PUSH1 0x40 MLOAD DUP1 SWAP2 SUB SWAP1 REVERT JUMPDEST JUMP JUMPDEST PUSH2 0x15DD PUSH2 0x934 JUMP JUMPDEST ISZERO PUSH2 0x1614 JUMPI PUSH1 0x40 MLOAD PUSH32 0xD93C066500000000000000000000000000000000000000000000000000000000 DUP2 MSTORE PUSH1 0x4 ADD PUSH1 0x40 MLOAD DUP1 SWAP2 SUB SWAP1 REVERT JUMPDEST JUMP JUMPDEST PUSH0 DUP2 SWAP1 POP SWAP2 SWAP1 POP JUMP JUMPDEST PUSH2 0x1628 DUP2 PUSH2 0x1616 JUMP JUMPDEST DUP3 MSTORE POP POP JUMP JUMPDEST PUSH0 PUSH1 0x20 DUP3 ADD SWAP1 POP PUSH2 0x1641 PUSH0 DUP4 ADD DUP5 PUSH2 0x161F JUMP JUMPDEST SWAP3 SWAP2 POP POP JUMP JUMPDEST PUSH0 PUSH1 0x40 MLOAD SWAP1 POP SWAP1 JUMP JUMPDEST PUSH0 PUSH0 REVERT JUMPDEST PUSH0 PUSH0 REVERT JUMPDEST PUSH0 PUSH20 0xFFFFFFFFFFFFFFFFFFFFFFFFFFFFFFFFFFFFFFFF DUP3 AND SWAP1 POP SWAP2 SWAP1 POP JUMP JUMPDEST PUSH0 PUSH2 0x1681 DUP3 PUSH2 0x1658 JUMP JUMPDEST SWAP1 POP SWAP2 SWAP1 POP JUMP JUMPDEST PUSH2 0x1691 DUP2 PUSH2 0x1677 JUMP JUMPDEST DUP2 EQ PUSH2 0x169B JUMPI PUSH0 PUSH0 REVERT JUMPDEST POP JUMP JUMPDEST PUSH0 DUP2 CALLDATALOAD SWAP1 POP PUSH2 0x16AC DUP2 PUSH2 0x1688 JUMP JUMPDEST SWAP3 SWAP2 POP POP JUMP JUMPDEST PUSH2 0x16BB DUP2 PUSH2 0x1616 JUMP JUMPDEST DUP2 EQ PUSH2 0x16C5 JUMPI PUSH0 PUSH0 REVERT JUMPDEST POP JUMP JUMPDEST PUSH0 DUP2 CALLDATALOAD SWAP1 POP PUSH2 0x16D6 DUP2 PUSH2 0x16B2 JUMP JUMPDEST SWAP3 SWAP2 POP POP JUMP JUMPDEST PUSH0 PUSH0 PUSH1 0x40 DUP4 DUP6 SUB SLT ISZERO PUSH2 0x16F2 JUMPI PUSH2 0x16F1 PUSH2 0x1650 JUMP JUMPDEST JUMPDEST PUSH0 PUSH2 0x16FF DUP6 DUP3 DUP7 ADD PUSH2 0x169E JUMP JUMPDEST SWAP3 POP POP PUSH1 0x20 PUSH2 0x1710 DUP6 DUP3 DUP7 ADD PUSH2 0x16C8 JUMP JUMPDEST SWAP2 POP POP SWAP3 POP SWAP3 SWAP1 POP JUMP JUMPDEST PUSH2 0x1723 DUP2 PUSH2 0x1677 JUMP JUMPDEST DUP3 MSTORE POP POP JUMP JUMPDEST PUSH0 DUP2 MLOAD SWAP1 POP SWAP2 SWAP1 POP JUMP JUMPDEST PUSH0 DUP3 DUP3 MSTORE PUSH1 0x20 DUP3 ADD SWAP1 POP SWAP3 SWAP2 POP POP JUMP JUMPDEST DUP3 DUP2 DUP4 MCOPY PUSH0 DUP4 DUP4 ADD MSTORE POP POP POP JUMP JUMPDEST PUSH0 PUSH1 0x1F NOT PUSH1 0x1F DUP4 ADD AND SWAP1 POP SWAP2 SWAP1 POP JUMP JUMPDEST PUSH0 PUSH2 0x176B DUP3 PUSH2 0x1729 JUMP JUMPDEST PUSH2 0x1775 DUP2 DUP6 PUSH2 0x1733 JUMP JUMPDEST SWAP4 POP PUSH2 0x1785 DUP2 DUP6 PUSH1 0x20 DUP7 ADD PUSH2 0x1743 JUMP JUMPDEST PUSH2 0x178E DUP2 PUSH2 0x1751 JUMP JUMPDEST DUP5 ADD SWAP2 POP POP SWAP3 SWAP2 POP POP JUMP JUMPDEST PUSH0 PUSH1 0xFF DUP3 AND SWAP1 POP SWAP2 SWAP1 POP JUMP JUMPDEST PUSH2 0x17AE DUP2 PUSH2 0x1799 JUMP JUMPDEST DUP3 MSTORE POP POP JUMP JUMPDEST PUSH0 PUSH1 0xA0 DUP3 ADD SWAP1 POP PUSH2 0x17C7 PUSH0 DUP4 ADD DUP9 PUSH2 0x171A JUMP JUMPDEST DUP2 DUP2 SUB PUSH1 0x20 DUP4 ADD MSTORE PUSH2 0x17D9 DUP2 DUP8 PUSH2 0x1761 JUMP JUMPDEST SWAP1 POP DUP2 DUP2 SUB PUSH1 0x40 DUP4 ADD MSTORE PUSH2 0x17ED DUP2 DUP7 PUSH2 0x1761 JUMP JUMPDEST SWAP1 POP PUSH2 0x17FC PUSH1 0x60 DUP4 ADD DUP6 PUSH2 0x17A5 JUMP JUMPDEST PUSH2 0x1809 PUSH1 0x80 DUP4 ADD DUP5 PUSH2 0x161F JUMP JUMPDEST SWAP7 SWAP6 POP POP POP POP POP POP JUMP JUMPDEST PUSH0 PUSH0 REVERT JUMPDEST PUSH0 PUSH0 REVERT JUMPDEST PUSH32 0x4E487B7100000000000000000000000000000000000000000000000000000000 PUSH0 MSTORE PUSH1 0x41 PUSH1 0x4 MSTORE PUSH1 0x24 PUSH0 REVERT JUMPDEST PUSH2 0x1851 DUP3 PUSH2 0x1751 JUMP JUMPDEST DUP2 ADD DUP2 DUP2 LT PUSH8 0xFFFFFFFFFFFFFFFF DUP3 GT OR ISZERO PUSH2 0x1870 JUMPI PUSH2 0x186F PUSH2 0x181B JUMP JUMPDEST JUMPDEST DUP1 PUSH1 0x40 MSTORE POP POP POP JUMP JUMPDEST PUSH0 PUSH2 0x1882 PUSH2 0x1647 JUMP JUMPDEST SWAP1 POP PUSH2 0x188E DUP3 DUP3 PUSH2 0x1848 JUMP JUMPDEST SWAP2 SWAP1 POP JUMP JUMPDEST PUSH0 PUSH8 0xFFFFFFFFFFFFFFFF DUP3 GT ISZERO PUSH2 0x18AD JUMPI PUSH2 0x18AC PUSH2 0x181B JUMP JUMPDEST JUMPDEST PUSH2 0x18B6 DUP3 PUSH2 0x1751 JUMP JUMPDEST SWAP1 POP PUSH1 0x20 DUP2 ADD SWAP1 POP SWAP2 SWAP1 POP JUMP JUMPDEST DUP3 DUP2 DUP4 CALLDATACOPY PUSH0 DUP4 DUP4 ADD MSTORE POP POP POP JUMP JUMPDEST PUSH0 PUSH2 0x18E3 PUSH2 0x18DE DUP5 PUSH2 0x1893 JUMP JUMPDEST PUSH2 0x1879 JUMP JUMPDEST SWAP1 POP DUP3 DUP2 MSTORE PUSH1 0x20 DUP2 ADD DUP5 DUP5 DUP5 ADD GT ISZERO PUSH2 0x18FF JUMPI PUSH2 0x18FE PUSH2 0x1817 JUMP JUMPDEST JUMPDEST PUSH2 0x190A DUP5 DUP3 DUP6 PUSH2 0x18C3 JUMP JUMPDEST POP SWAP4 SWAP3 POP POP POP JUMP JUMPDEST PUSH0 DUP3 PUSH1 0x1F DUP4 ADD SLT PUSH2 0x1926 JUMPI PUSH2 0x1925 PUSH2 0x1813 JUMP JUMPDEST JUMPDEST DUP2 CALLDATALOAD PUSH2 0x1936 DUP5 DUP3 PUSH1 0x20 DUP7 ADD PUSH2 0x18D1 JUMP JUMPDEST SWAP2 POP POP SWAP3 SWAP2 POP POP JUMP JUMPDEST PUSH0 PUSH0 PUSH1 0x40 DUP4 DUP6 SUB SLT ISZERO PUSH2 0x1955 JUMPI PUSH2 0x1954 PUSH2 0x1650 JUMP JUMPDEST JUMPDEST PUSH0 PUSH2 0x1962 DUP6 DUP3 DUP7 ADD PUSH2 0x16C8 JUMP JUMPDEST SWAP3 POP POP PUSH1 0x20 DUP4 ADD CALLDATALOAD PUSH8 0xFFFFFFFFFFFFFFFF DUP2 GT ISZERO PUSH2 0x1983 JUMPI PUSH2 0x1982 PUSH2 0x1654 JUMP JUMPDEST JUMPDEST PUSH2 0x198F DUP6 DUP3 DUP7 ADD PUSH2 0x1912 JUMP JUMPDEST SWAP2 POP POP SWAP3 POP SWAP3 SWAP1 POP JUMP JUMPDEST PUSH0 DUP2 MLOAD SWAP1 POP SWAP2 SWAP1 POP JUMP JUMPDEST PUSH0 DUP3 DUP3 MSTORE PUSH1 0x20 DUP3 ADD SWAP1 POP SWAP3 SWAP2 POP POP JUMP JUMPDEST PUSH0 DUP2 SWAP1 POP PUSH1 0x20 DUP3 ADD SWAP1 POP SWAP2 SWAP1 POP JUMP JUMPDEST PUSH0 DUP3 DUP3 MSTORE PUSH1 0x20 DUP3 ADD SWAP1 POP SWAP3 SWAP2 POP POP JUMP JUMPDEST PUSH0 PUSH2 0x19DC DUP3 PUSH2 0x1729 JUMP JUMPDEST PUSH2 0x19E6 DUP2 DUP6 PUSH2 0x19C2 JUMP JUMPDEST SWAP4 POP PUSH2 0x19F6 DUP2 DUP6 PUSH1 0x20 DUP7 ADD PUSH2 0x1743 JUMP JUMPDEST PUSH2 0x19FF DUP2 PUSH2 0x1751 JUMP JUMPDEST DUP5 ADD SWAP2 POP POP SWAP3 SWAP2 POP POP JUMP JUMPDEST PUSH0 PUSH2 0x1A15 DUP4 DUP4 PUSH2 0x19D2 JUMP JUMPDEST SWAP1 POP SWAP3 SWAP2 POP POP JUMP JUMPDEST PUSH0 PUSH1 0x20 DUP3 ADD SWAP1 POP SWAP2 SWAP1 POP JUMP JUMPDEST PUSH0 PUSH2 0x1A33 DUP3 PUSH2 0x1999 JUMP JUMPDEST PUSH2 0x1A3D DUP2 DUP6 PUSH2 0x19A3 JUMP JUMPDEST SWAP4 POP DUP4 PUSH1 0x20 DUP3 MUL DUP6 ADD PUSH2 0x1A4F DUP6 PUSH2 0x19B3 JUMP JUMPDEST DUP1 PUSH0 JUMPDEST DUP6 DUP2 LT ISZERO PUSH2 0x1A8A JUMPI DUP5 DUP5 SUB DUP10 MSTORE DUP2 MLOAD PUSH2 0x1A6B DUP6 DUP3 PUSH2 0x1A0A JUMP JUMPDEST SWAP5 POP PUSH2 0x1A76 DUP4 PUSH2 0x1A1D JUMP JUMPDEST SWAP3 POP PUSH1 0x20 DUP11 ADD SWAP10 POP POP PUSH1 0x1 DUP2 ADD SWAP1 POP PUSH2 0x1A52 JUMP JUMPDEST POP DUP3 SWAP8 POP DUP8 SWAP6 POP POP POP POP POP POP SWAP3 SWAP2 POP POP JUMP JUMPDEST PUSH0 PUSH1 0x20 DUP3 ADD SWAP1 POP DUP2 DUP2 SUB PUSH0 DUP4 ADD MSTORE PUSH2 0x1AB4 DUP2 DUP5 PUSH2 0x1A29 JUMP JUMPDEST SWAP1 POP SWAP3 SWAP2 POP POP JUMP JUMPDEST PUSH0 PUSH2 0x1AC6 DUP3 PUSH2 0x1658 JUMP JUMPDEST SWAP1 POP SWAP2 SWAP1 POP JUMP JUMPDEST PUSH2 0x1AD6 DUP2 PUSH2 0x1ABC JUMP JUMPDEST DUP2 EQ PUSH2 0x1AE0 JUMPI PUSH0 PUSH0 REVERT JUMPDEST POP JUMP JUMPDEST PUSH0 DUP2 CALLDATALOAD SWAP1 POP PUSH2 0x1AF1 DUP2 PUSH2 0x1ACD JUMP JUMPDEST SWAP3 SWAP2 POP POP JUMP JUMPDEST PUSH0 PUSH0 PUSH1 0x40 DUP4 DUP6 SUB SLT ISZERO PUSH2 0x1B0D JUMPI PUSH2 0x1B0C PUSH2 0x1650 JUMP JUMPDEST JUMPDEST PUSH0 PUSH2 0x1B1A DUP6 DUP3 DUP7 ADD PUSH2 0x1AE3 JUMP JUMPDEST SWAP3 POP POP PUSH1 0x20 PUSH2 0x1B2B DUP6 DUP3 DUP7 ADD PUSH2 0x16C8 JUMP JUMPDEST SWAP2 POP POP SWAP3 POP SWAP3 SWAP1 POP JUMP JUMPDEST PUSH0 DUP2 ISZERO ISZERO SWAP1 POP SWAP2 SWAP1 POP JUMP JUMPDEST PUSH2 0x1B49 DUP2 PUSH2 0x1B35 JUMP JUMPDEST DUP3 MSTORE POP POP JUMP JUMPDEST PUSH0 PUSH1 0x20 DUP3 ADD SWAP1 POP PUSH2 0x1B62 PUSH0 DUP4 ADD DUP5 PUSH2 0x1B40 JUMP JUMPDEST SWAP3 SWAP2 POP POP JUMP JUMPDEST PUSH0 PUSH1 0x20 DUP3 DUP5 SUB SLT ISZERO PUSH2 0x1B7D JUMPI PUSH2 0x1B7C PUSH2 0x1650 JUMP JUMPDEST JUMPDEST PUSH0 DUP3 ADD CALLDATALOAD PUSH8 0xFFFFFFFFFFFFFFFF DUP2 GT ISZERO PUSH2 0x1B9A JUMPI PUSH2 0x1B99 PUSH2 0x1654 JUMP JUMPDEST JUMPDEST PUSH2 0x1BA6 DUP5 DUP3 DUP6 ADD PUSH2 0x1912 JUMP JUMPDEST SWAP2 POP POP SWAP3 SWAP2 POP POP JUMP JUMPDEST PUSH0 PUSH1 0x20 DUP3 ADD SWAP1 POP PUSH2 0x1BC2 PUSH0 DUP4 ADD DUP5 PUSH2 0x171A JUMP JUMPDEST SWAP3 SWAP2 POP POP JUMP JUMPDEST PUSH0 PUSH1 0x20 DUP3 DUP5 SUB SLT ISZERO PUSH2 0x1BDD JUMPI PUSH2 0x1BDC PUSH2 0x1650 JUMP JUMPDEST JUMPDEST PUSH0 PUSH2 0x1BEA DUP5 DUP3 DUP6 ADD PUSH2 0x16C8 JUMP JUMPDEST SWAP2 POP POP SWAP3 SWAP2 POP POP JUMP JUMPDEST PUSH0 PUSH1 0x20 DUP3 DUP5 SUB SLT ISZERO PUSH2 0x1C08 JUMPI PUSH2 0x1C07 PUSH2 0x1650 JUMP JUMPDEST JUMPDEST PUSH0 PUSH2 0x1C15 DUP5 DUP3 DUP6 ADD PUSH2 0x169E JUMP JUMPDEST SWAP2 POP POP SWAP3 SWAP2 POP POP JUMP JUMPDEST PUSH0 DUP2 MLOAD SWAP1 POP SWAP2 SWAP1 POP JUMP JUMPDEST PUSH0 DUP3 DUP3 MSTORE PUSH1 0x20 DUP3 ADD SWAP1 POP SWAP3 SWAP2 POP POP JUMP JUMPDEST PUSH0 DUP2 SWAP1 POP PUSH1 0x20 DUP3 ADD SWAP1 POP SWAP2 SWAP1 POP JUMP JUMPDEST PUSH2 0x1C50 DUP2 PUSH2 0x1677 JUMP JUMPDEST DUP3 MSTORE POP POP JUMP JUMPDEST PUSH2 0x1C5F DUP2 PUSH2 0x1799 JUMP JUMPDEST DUP3 MSTORE POP POP JUMP JUMPDEST PUSH2 0x1C6E DUP2 PUSH2 0x1616 JUMP JUMPDEST DUP3 MSTORE POP POP JUMP JUMPDEST PUSH0 PUSH1 0xA0 DUP4 ADD PUSH0 DUP4 ADD MLOAD PUSH2 0x1C89 PUSH0 DUP7 ADD DUP3 PUSH2 0x1C47 JUMP JUMPDEST POP PUSH1 0x20 DUP4 ADD MLOAD DUP5 DUP3 SUB PUSH1 0x20 DUP7 ADD MSTORE PUSH2 0x1CA1 DUP3 DUP3 PUSH2 0x19D2 JUMP JUMPDEST SWAP2 POP POP PUSH1 0x40 DUP4 ADD MLOAD DUP5 DUP3 SUB PUSH1 0x40 DUP7 ADD MSTORE PUSH2 0x1CBB DUP3 DUP3 PUSH2 0x19D2 JUMP JUMPDEST SWAP2 POP POP PUSH1 0x60 DUP4 ADD MLOAD PUSH2 0x1CD0 PUSH1 0x60 DUP7 ADD DUP3 PUSH2 0x1C56 JUMP JUMPDEST POP PUSH1 0x80 DUP4 ADD MLOAD PUSH2 0x1CE3 PUSH1 0x80 DUP7 ADD DUP3 PUSH2 0x1C65 JUMP JUMPDEST POP DUP1 SWAP2 POP POP SWAP3 SWAP2 POP POP JUMP JUMPDEST PUSH0 PUSH2 0x1CF9 DUP4 DUP4 PUSH2 0x1C74 JUMP JUMPDEST SWAP1 POP SWAP3 SWAP2 POP POP JUMP JUMPDEST PUSH0 PUSH1 0x20 DUP3 ADD SWAP1 POP SWAP2 SWAP1 POP JUMP JUMPDEST PUSH0 PUSH2 0x1D17 DUP3 PUSH2 0x1C1E JUMP JUMPDEST PUSH2 0x1D21 DUP2 DUP6 PUSH2 0x1C28 JUMP JUMPDEST SWAP4 POP DUP4 PUSH1 0x20 DUP3 MUL DUP6 ADD PUSH2 0x1D33 DUP6 PUSH2 0x1C38 JUMP JUMPDEST DUP1 PUSH0 JUMPDEST DUP6 DUP2 LT ISZERO PUSH2 0x1D6E JUMPI DUP5 DUP5 SUB DUP10 MSTORE DUP2 MLOAD PUSH2 0x1D4F DUP6 DUP3 PUSH2 0x1CEE JUMP JUMPDEST SWAP5 POP PUSH2 0x1D5A DUP4 PUSH2 0x1D01 JUMP JUMPDEST SWAP3 POP PUSH1 0x20 DUP11 ADD SWAP10 POP POP PUSH1 0x1 DUP2 ADD SWAP1 POP PUSH2 0x1D36 JUMP JUMPDEST POP DUP3 SWAP8 POP DUP8 SWAP6 POP POP POP POP POP POP SWAP3 SWAP2 POP POP JUMP JUMPDEST PUSH0 PUSH1 0x20 DUP3 ADD SWAP1 POP DUP2 DUP2 SUB PUSH0 DUP4 ADD MSTORE PUSH2 0x1D98 DUP2 DUP5 PUSH2 0x1D0D JUMP JUMPDEST SWAP1 POP SWAP3 SWAP2 POP POP JUMP JUMPDEST PUSH0 PUSH1 0x20 DUP3 ADD SWAP1 POP DUP2 DUP2 SUB PUSH0 DUP4 ADD MSTORE PUSH2 0x1DB8 DUP2 DUP5 PUSH2 0x1761 JUMP JUMPDEST SWAP1 POP SWAP3 SWAP2 POP POP JUMP JUMPDEST PUSH2 0x1DC9 DUP2 PUSH2 0x1799 JUMP JUMPDEST DUP2 EQ PUSH2 0x1DD3 JUMPI PUSH0 PUSH0 REVERT JUMPDEST POP JUMP JUMPDEST PUSH0 DUP2 CALLDATALOAD SWAP1 POP PUSH2 0x1DE4 DUP2 PUSH2 0x1DC0 JUMP JUMPDEST SWAP3 SWAP2 POP POP JUMP JUMPDEST PUSH0 PUSH0 PUSH0 PUSH0 PUSH1 0x80 DUP6 DUP8 SUB SLT ISZERO PUSH2 0x1E02 JUMPI PUSH2 0x1E01 PUSH2 0x1650 JUMP JUMPDEST JUMPDEST PUSH0 PUSH2 0x1E0F DUP8 DUP3 DUP9 ADD PUSH2 0x169E JUMP JUMPDEST SWAP5 POP POP PUSH1 0x20 DUP6 ADD CALLDATALOAD PUSH8 0xFFFFFFFFFFFFFFFF DUP2 GT ISZERO PUSH2 0x1E30 JUMPI PUSH2 0x1E2F PUSH2 0x1654 JUMP JUMPDEST JUMPDEST PUSH2 0x1E3C DUP8 DUP3 DUP9 ADD PUSH2 0x1912 JUMP JUMPDEST SWAP4 POP POP PUSH1 0x40 DUP6 ADD CALLDATALOAD PUSH8 0xFFFFFFFFFFFFFFFF DUP2 GT ISZERO PUSH2 0x1E5D JUMPI PUSH2 0x1E5C PUSH2 0x1654 JUMP JUMPDEST JUMPDEST PUSH2 0x1E69 DUP8 DUP3 DUP9 ADD PUSH2 0x1912 JUMP JUMPDEST SWAP3 POP POP PUSH1 0x60 PUSH2 0x1E7A DUP8 DUP3 DUP9 ADD PUSH2 0x1DD6 JUMP JUMPDEST SWAP2 POP POP SWAP3 SWAP6 SWAP2 SWAP5 POP SWAP3 POP JUMP JUMPDEST PUSH32 0x4E487B7100000000000000000000000000000000000000000000000000000000 PUSH0 MSTORE PUSH1 0x22 PUSH1 0x4 MSTORE PUSH1 0x24 PUSH0 REVERT JUMPDEST PUSH0 PUSH1 0x2 DUP3 DIV SWAP1 POP PUSH1 0x1 DUP3 AND DUP1 PUSH2 0x1ECA JUMPI PUSH1 0x7F DUP3 AND SWAP2 POP JUMPDEST PUSH1 0x20 DUP3 LT DUP2 SUB PUSH2 0x1EDD JUMPI PUSH2 0x1EDC PUSH2 0x1E86 JUMP JUMPDEST JUMPDEST POP SWAP2 SWAP1 POP JUMP JUMPDEST PUSH32 0x4F7074696F6E2063616E6E6F7420626520656D70747900000000000000000000 PUSH0 DUP3 ADD MSTORE POP JUMP JUMPDEST PUSH0 PUSH2 0x1F17 PUSH1 0x16 DUP4 PUSH2 0x1733 JUMP JUMPDEST SWAP2 POP PUSH2 0x1F22 DUP3 PUSH2 0x1EE3 JUMP JUMPDEST PUSH1 0x20 DUP3 ADD SWAP1 POP SWAP2 SWAP1 POP JUMP JUMPDEST PUSH0 PUSH1 0x20 DUP3 ADD SWAP1 POP DUP2 DUP2 SUB PUSH0 DUP4 ADD MSTORE PUSH2 0x1F44 DUP2 PUSH2 0x1F0B JUMP JUMPDEST SWAP1 POP SWAP2 SWAP1 POP JUMP JUMPDEST PUSH32 0x4E487B7100000000000000000000000000000000000000000000000000000000 PUSH0 MSTORE PUSH1 0x32 PUSH1 0x4 MSTORE PUSH1 0x24 PUSH0 REVERT JUMPDEST PUSH0 DUP2 SWAP1 POP SWAP3 SWAP2 POP POP JUMP JUMPDEST PUSH0 DUP2 SWAP1 POP DUP2 PUSH0 MSTORE PUSH1 0x20 PUSH0 KECCAK256 SWAP1 POP SWAP2 SWAP1 POP JUMP JUMPDEST PUSH0 DUP2 SLOAD PUSH2 0x1FA0 DUP2 PUSH2 0x1EB3 JUMP JUMPDEST PUSH2 0x1FAA DUP2 DUP7 PUSH2 0x1F78 JUMP JUMPDEST SWAP5 POP PUSH1 0x1 DUP3 AND PUSH0 DUP2 EQ PUSH2 0x1FC4 JUMPI PUSH1 0x1 DUP2 EQ PUSH2 0x1FD9 JUMPI PUSH2 0x200B JUMP JUMPDEST PUSH1 0xFF NOT DUP4 AND DUP7 MSTORE DUP2 ISZERO ISZERO DUP3 MUL DUP7 ADD SWAP4 POP PUSH2 0x200B JUMP JUMPDEST PUSH2 0x1FE2 DUP6 PUSH2 0x1F82 JUMP JUMPDEST PUSH0 JUMPDEST DUP4 DUP2 LT ISZERO PUSH2 0x2003 JUMPI DUP2 SLOAD DUP2 DUP10 ADD MSTORE PUSH1 0x1 DUP3 ADD SWAP2 POP PUSH1 0x20 DUP2 ADD SWAP1 POP PUSH2 0x1FE4 JUMP JUMPDEST DUP4 DUP9 ADD SWAP6 POP POP POP JUMPDEST POP POP POP SWAP3 SWAP2 POP POP JUMP JUMPDEST PUSH0 PUSH2 0x201F DUP3 DUP5 PUSH2 0x1F94 JUMP JUMPDEST SWAP2 POP DUP2 SWAP1 POP SWAP3 SWAP2 POP POP JUMP JUMPDEST PUSH32 0x4F7074696F6E20616C7265616479206578697374730000000000000000000000 PUSH0 DUP3 ADD MSTORE POP JUMP JUMPDEST PUSH0 PUSH2 0x205E PUSH1 0x15 DUP4 PUSH2 0x1733 JUMP JUMPDEST SWAP2 POP PUSH2 0x2069 DUP3 PUSH2 0x202A JUMP JUMPDEST PUSH1 0x20 DUP3 ADD SWAP1 POP SWAP2 SWAP1 POP JUMP JUMPDEST PUSH0 PUSH1 0x20 DUP3 ADD SWAP1 POP DUP2 DUP2 SUB PUSH0 DUP4 ADD MSTORE PUSH2 0x208B DUP2 PUSH2 0x2052 JUMP JUMPDEST SWAP1 POP SWAP2 SWAP1 POP JUMP JUMPDEST PUSH0 DUP2 SWAP1 POP DUP2 PUSH0 MSTORE PUSH1 0x20 PUSH0 KECCAK256 SWAP1 POP SWAP2 SWAP1 POP JUMP JUMPDEST PUSH0 PUSH1 0x20 PUSH1 0x1F DUP4 ADD DIV SWAP1 POP SWAP2 SWAP1 POP JUMP JUMPDEST PUSH0 DUP3 DUP3 SHL SWAP1 POP SWAP3 SWAP2 POP POP JUMP JUMPDEST PUSH0 PUSH1 0x8 DUP4 MUL PUSH2 0x20EE PUSH32 0xFFFFFFFFFFFFFFFFFFFFFFFFFFFFFFFFFFFFFFFFFFFFFFFFFFFFFFFFFFFFFFFF DUP3 PUSH2 0x20B3 JUMP JUMPDEST PUSH2 0x20F8 DUP7 DUP4 PUSH2 0x20B3 JUMP JUMPDEST SWAP6 POP DUP1 NOT DUP5 AND SWAP4 POP DUP1 DUP7 AND DUP5 OR SWAP3 POP POP POP SWAP4 SWAP3 POP POP POP JUMP JUMPDEST PUSH0 DUP2 SWAP1 POP SWAP2 SWAP1 POP JUMP JUMPDEST PUSH0 PUSH2 0x2133 PUSH2 0x212E PUSH2 0x2129 DUP5 PUSH2 0x1616 JUMP JUMPDEST PUSH2 0x2110 JUMP JUMPDEST PUSH2 0x1616 JUMP JUMPDEST SWAP1 POP SWAP2 SWAP1 POP JUMP JUMPDEST PUSH0 DUP2 SWAP1 POP SWAP2 SWAP1 POP JUMP JUMPDEST PUSH2 0x214C DUP4 PUSH2 0x2119 JUMP JUMPDEST PUSH2 0x2160 PUSH2 0x2158 DUP3 PUSH2 0x213A JUMP JUMPDEST DUP5 DUP5 SLOAD PUSH2 0x20BF JUMP JUMPDEST DUP3 SSTORE POP POP POP POP JUMP JUMPDEST PUSH0 PUSH0 SWAP1 POP SWAP1 JUMP JUMPDEST PUSH2 0x2177 PUSH2 0x2168 JUMP JUMPDEST PUSH2 0x2182 DUP2 DUP5 DUP5 PUSH2 0x2143 JUMP JUMPDEST POP POP POP JUMP JUMPDEST JUMPDEST DUP2 DUP2 LT ISZERO PUSH2 0x21A5 JUMPI PUSH2 0x219A PUSH0 DUP3 PUSH2 0x216F JUMP JUMPDEST PUSH1 0x1 DUP2 ADD SWAP1 POP PUSH2 0x2188 JUMP JUMPDEST POP POP JUMP JUMPDEST PUSH1 0x1F DUP3 GT ISZERO PUSH2 0x21EA JUMPI PUSH2 0x21BB DUP2 PUSH2 0x2092 JUMP JUMPDEST PUSH2 0x21C4 DUP5 PUSH2 0x20A4 JUMP JUMPDEST DUP2 ADD PUSH1 0x20 DUP6 LT ISZERO PUSH2 0x21D3 JUMPI DUP2 SWAP1 POP JUMPDEST PUSH2 0x21E7 PUSH2 0x21DF DUP6 PUSH2 0x20A4 JUMP JUMPDEST DUP4 ADD DUP3 PUSH2 0x2187 JUMP JUMPDEST POP POP JUMPDEST POP POP POP JUMP JUMPDEST PUSH0 DUP3 DUP3 SHR SWAP1 POP SWAP3 SWAP2 POP POP JUMP JUMPDEST PUSH0 PUSH2 0x220A PUSH0 NOT DUP5 PUSH1 0x8 MUL PUSH2 0x21EF JUMP JUMPDEST NOT DUP1 DUP4 AND SWAP2 POP POP SWAP3 SWAP2 POP POP JUMP JUMPDEST PUSH0 PUSH2 0x2222 DUP4 DUP4 PUSH2 0x21FB JUMP JUMPDEST SWAP2 POP DUP3 PUSH1 0x2 MUL DUP3 OR SWAP1 POP SWAP3 SWAP2 POP POP JUMP JUMPDEST PUSH2 0x223B DUP3 PUSH2 0x1729 JUMP JUMPDEST PUSH8 0xFFFFFFFFFFFFFFFF DUP2 GT ISZERO PUSH2 0x2254 JUMPI PUSH2 0x2253 PUSH2 0x181B JUMP JUMPDEST JUMPDEST PUSH2 0x225E DUP3 SLOAD PUSH2 0x1EB3 JUMP JUMPDEST PUSH2 0x2269 DUP3 DUP3 DUP6 PUSH2 0x21A9 JUMP JUMPDEST PUSH0 PUSH1 0x20 SWAP1 POP PUSH1 0x1F DUP4 GT PUSH1 0x1 DUP2 EQ PUSH2 0x229A JUMPI PUSH0 DUP5 ISZERO PUSH2 0x2288 JUMPI DUP3 DUP8 ADD MLOAD SWAP1 POP JUMPDEST PUSH2 0x2292 DUP6 DUP3 PUSH2 0x2217 JUMP JUMPDEST DUP7 SSTORE POP PUSH2 0x22F9 JUMP JUMPDEST PUSH1 0x1F NOT DUP5 AND PUSH2 0x22A8 DUP7 PUSH2 0x2092 JUMP JUMPDEST PUSH0 JUMPDEST DUP3 DUP2 LT ISZERO PUSH2 0x22CF JUMPI DUP5 DUP10 ADD MLOAD DUP3 SSTORE PUSH1 0x1 DUP3 ADD SWAP2 POP PUSH1 0x20 DUP6 ADD SWAP5 POP PUSH1 0x20 DUP2 ADD SWAP1 POP PUSH2 0x22AA JUMP JUMPDEST DUP7 DUP4 LT ISZERO PUSH2 0x22EC JUMPI DUP5 DUP10 ADD MLOAD PUSH2 0x22E8 PUSH1 0x1F DUP10 AND DUP3 PUSH2 0x21FB JUMP JUMPDEST DUP4 SSTORE POP JUMPDEST PUSH1 0x1 PUSH1 0x2 DUP9 MUL ADD DUP9 SSTORE POP POP POP JUMPDEST POP POP POP POP POP POP JUMP JUMPDEST POP JUMP JUMPDEST PUSH0 PUSH2 0x230F PUSH0 DUP4 PUSH2 0x1F78 JUMP JUMPDEST SWAP2 POP PUSH2 0x231A DUP3 PUSH2 0x2301 JUMP JUMPDEST PUSH0 DUP3 ADD SWAP1 POP SWAP2 SWAP1 POP JUMP JUMPDEST PUSH0 PUSH2 0x232E DUP3 PUSH2 0x2304 JUMP JUMPDEST SWAP2 POP DUP2 SWAP1 POP SWAP2 SWAP1 POP JUMP JUMPDEST PUSH32 0x4661696C65640000000000000000000000000000000000000000000000000000 PUSH0 DUP3 ADD MSTORE POP JUMP JUMPDEST PUSH0 PUSH2 0x236C PUSH1 0x6 DUP4 PUSH2 0x1733 JUMP JUMPDEST SWAP2 POP PUSH2 0x2377 DUP3 PUSH2 0x2338 JUMP JUMPDEST PUSH1 0x20 DUP3 ADD SWAP1 POP SWAP2 SWAP1 POP JUMP JUMPDEST PUSH0 PUSH1 0x20 DUP3 ADD SWAP1 POP DUP2 DUP2 SUB PUSH0 DUP4 ADD MSTORE PUSH2 0x2399 DUP2 PUSH2 0x2360 JUMP JUMPDEST SWAP1 POP SWAP2 SWAP1 POP JUMP JUMPDEST PUSH32 0x4F776E61626C653A206E6577206F776E657220697320746865207A65726F2061 PUSH0 DUP3 ADD MSTORE PUSH32 0x6464726573730000000000000000000000000000000000000000000000000000 PUSH1 0x20 DUP3 ADD MSTORE POP JUMP JUMPDEST PUSH0 PUSH2 0x23FA PUSH1 0x26 DUP4 PUSH2 0x1733 JUMP JUMPDEST SWAP2 POP PUSH2 0x2405 DUP3 PUSH2 0x23A0 JUMP JUMPDEST PUSH1 0x40 DUP3 ADD SWAP1 POP SWAP2 SWAP1 POP JUMP JUMPDEST PUSH0 PUSH1 0x20 DUP3 ADD SWAP1 POP DUP2 DUP2 SUB PUSH0 DUP4 ADD MSTORE PUSH2 0x2427 DUP2 PUSH2 0x23EE JUMP JUMPDEST SWAP1 POP SWAP2 SWAP1 POP JUMP JUMPDEST PUSH32 0x496E76616C696420746172676574206164647265737300000000000000000000 PUSH0 DUP3 ADD MSTORE POP JUMP JUMPDEST PUSH0 PUSH2 0x2462 PUSH1 0x16 DUP4 PUSH2 0x1733 JUMP JUMPDEST SWAP2 POP PUSH2 0x246D DUP3 PUSH2 0x242E JUMP JUMPDEST PUSH1 0x20 DUP3 ADD SWAP1 POP SWAP2 SWAP1 POP JUMP JUMPDEST PUSH0 PUSH1 0x20 DUP3 ADD SWAP1 POP DUP2 DUP2 SUB PUSH0 DUP4 ADD MSTORE PUSH2 0x248F DUP2 PUSH2 0x2456 JUMP JUMPDEST SWAP1 POP SWAP2 SWAP1 POP JUMP JUMPDEST PUSH32 0x43616E6E6F7420656E646F72736520796F757273656C66000000000000000000 PUSH0 DUP3 ADD MSTORE POP JUMP JUMPDEST PUSH0 PUSH2 0x24CA PUSH1 0x17 DUP4 PUSH2 0x1733 JUMP JUMPDEST SWAP2 POP PUSH2 0x24D5 DUP3 PUSH2 0x2496 JUMP JUMPDEST PUSH1 0x20 DUP3 ADD SWAP1 POP SWAP2 SWAP1 POP JUMP JUMPDEST PUSH0 PUSH1 0x20 DUP3 ADD SWAP1 POP DUP2 DUP2 SUB PUSH0 DUP4 ADD MSTORE PUSH2 0x24F7 DUP2 PUSH2 0x24BE JUMP JUMPDEST SWAP1 POP SWAP2 SWAP1 POP JUMP JUMPDEST PUSH32 0x53636F7265206D757374206265206265747765656E203120616E642035000000 PUSH0 DUP3 ADD MSTORE POP JUMP JUMPDEST PUSH0 PUSH2 0x2532 PUSH1 0x1D DUP4 PUSH2 0x1733 JUMP JUMPDEST SWAP2 POP PUSH2 0x253D DUP3 PUSH2 0x24FE JUMP JUMPDEST PUSH1 0x20 DUP3 ADD SWAP1 POP SWAP2 SWAP1 POP JUMP JUMPDEST PUSH0 PUSH1 0x20 DUP3 ADD SWAP1 POP DUP2 DUP2 SUB PUSH0 DUP4 ADD MSTORE PUSH2 0x255F DUP2 PUSH2 0x2526 JUMP JUMPDEST SWAP1 POP SWAP2 SWAP1 POP JUMP JUMPDEST PUSH32 0x496E76616C696420656E646F7273656D656E74206F7074696F6E000000000000 PUSH0 DUP3 ADD MSTORE POP JUMP JUMPDEST PUSH0 PUSH2 0x259A PUSH1 0x1A DUP4 PUSH2 0x1733 JUMP JUMPDEST SWAP2 POP PUSH2 0x25A5 DUP3 PUSH2 0x2566 JUMP JUMPDEST PUSH1 0x20 DUP3 ADD SWAP1 POP SWAP2 SWAP1 POP JUMP JUMPDEST PUSH0 PUSH1 0x20 DUP3 ADD SWAP1 POP DUP2 DUP2 SUB PUSH0 DUP4 ADD MSTORE PUSH2 0x25C7 DUP2 PUSH2 0x258E JUMP JUMPDEST SWAP1 POP SWAP2 SWAP1 POP JUMP JUMPDEST PUSH0 DUP2 SLOAD PUSH2 0x25DA DUP2 PUSH2 0x1EB3 JUMP JUMPDEST PUSH2 0x25E4 DUP2 DUP7 PUSH2 0x1733 JUMP JUMPDEST SWAP5 POP PUSH1 0x1 DUP3 AND PUSH0 DUP2 EQ PUSH2 0x25FE JUMPI PUSH1 0x1 DUP2 EQ PUSH2 0x2614 JUMPI PUSH2 0x2646 JUMP JUMPDEST PUSH1 0xFF NOT DUP4 AND DUP7 MSTORE DUP2 ISZERO ISZERO PUSH1 0x20 MUL DUP7 ADD SWAP4 POP PUSH2 0x2646 JUMP JUMPDEST PUSH2 0x261D DUP6 PUSH2 0x2092 JUMP JUMPDEST PUSH0 JUMPDEST DUP4 DUP2 LT ISZERO PUSH2 0x263E JUMPI DUP2 SLOAD DUP2 DUP10 ADD MSTORE PUSH1 0x1 DUP3 ADD SWAP2 POP PUSH1 0x20 DUP2 ADD SWAP1 POP PUSH2 0x261F JUMP JUMPDEST DUP1 DUP9 ADD SWAP6 POP POP POP JUMPDEST POP POP POP SWAP3 SWAP2 POP POP JUMP JUMPDEST PUSH0 PUSH1 0x20 DUP3 ADD SWAP1 POP DUP2 DUP2 SUB PUSH0 DUP4 ADD MSTORE PUSH2 0x2667 DUP2 DUP5 PUSH2 0x25CE JUMP JUMPDEST SWAP1 POP SWAP3 SWAP2 POP POP JUMP JUMPDEST PUSH0 DUP2 SWAP1 POP SWAP3 SWAP2 POP POP JUMP JUMPDEST PUSH0 PUSH2 0x2683 DUP3 PUSH2 0x1729 JUMP JUMPDEST PUSH2 0x268D DUP2 DUP6 PUSH2 0x266F JUMP JUMPDEST SWAP4 POP PUSH2 0x269D DUP2 DUP6 PUSH1 0x20 DUP7 ADD PUSH2 0x1743 JUMP JUMPDEST DUP1 DUP5 ADD SWAP2 POP POP SWAP3 SWAP2 POP POP JUMP JUMPDEST PUSH0 PUSH2 0x26B4 DUP3 DUP5 PUSH2 0x2679 JUMP JUMPDEST SWAP2 POP DUP2 SWAP1 POP SWAP3 SWAP2 POP POP JUMP JUMPDEST PUSH0 PUSH1 0x60 DUP3 ADD SWAP1 POP DUP2 DUP2 SUB PUSH0 DUP4 ADD MSTORE PUSH2 0x26D7 DUP2 DUP7 PUSH2 0x1761 JUMP JUMPDEST SWAP1 POP PUSH2 0x26E6 PUSH1 0x20 DUP4 ADD DUP6 PUSH2 0x161F JUMP JUMPDEST PUSH2 0x26F3 PUSH1 0x40 DUP4 ADD DUP5 PUSH2 0x161F JUMP JUMPDEST SWAP5 SWAP4 POP POP POP POP JUMP JUMPDEST PUSH32 0x4F776E61626C653A2063616C6C6572206973206E6F7420746865206F776E6572 PUSH0 DUP3 ADD MSTORE POP JUMP JUMPDEST PUSH0 PUSH2 0x272F PUSH1 0x20 DUP4 PUSH2 0x1733 JUMP JUMPDEST SWAP2 POP PUSH2 0x273A DUP3 PUSH2 0x26FB JUMP JUMPDEST PUSH1 0x20 DUP3 ADD SWAP1 POP SWAP2 SWAP1 POP JUMP JUMPDEST PUSH0 PUSH1 0x20 DUP3 ADD SWAP1 POP DUP2 DUP2 SUB PUSH0 DUP4 ADD MSTORE PUSH2 0x275C DUP2 PUSH2 0x2723 JUMP JUMPDEST SWAP1 POP SWAP2 SWAP1 POP JUMP INVALID LOG2 PUSH5 0x6970667358 0x22 SLT KECCAK256 0x2C SHR 0xB5 PUSH23 0xD85CF33FFC11CE91117182C48AF24FD05BD46490110540 SMOD 0xCB 0xBC PUSH12 0x6564736F6C634300081D0033 "
				},
				"gasEstimates": {
					"creation": {
						"codeDepositCost": "2027400",
						"executionCost": "infinite",
						"totalCost": "infinite"
					},
					"external": {
						"VERSION()": "infinite",
						"addEndorsementOption(string)": "infinite",
						"endorsementOptions(uint256)": "infinite",
						"endorsements(address,uint256)": "infinite",
						"fee()": "2469",
						"getBalance()": "358",
						"getEndorsementOptions()": "infinite",
						"getEndorsements(address)": "infinite",
						"giveEndorsement(address,string,string,uint8)": "infinite",
						"owner()": "2581",
						"pause()": "infinite",
						"paused()": "2612",
						"renounceOwnership()": "30410",
						"transferBalance(address,uint256)": "infinite",
						"transferOwnership(address)": "30794",
						"unpause()": "infinite",
						"updateEndorsementOption(uint256,string)": "infinite",
						"updateFee(uint256)": "infinite",
						"withdraw()": "infinite"
					}
				},
				"methodIdentifiers": {
					"VERSION()": "ffa1ad74",
					"addEndorsementOption(string)": "63414343",
					"endorsementOptions(uint256)": "d2f6ab9b",
					"endorsements(address,uint256)": "2cdc9efb",
					"fee()": "ddca3f43",
					"getBalance()": "12065fe0",
					"getEndorsementOptions()": "5675049e",
					"getEndorsements(address)": "b666ca9d",
					"giveEndorsement(address,string,string,uint8)": "f31f2f80",
					"owner()": "8da5cb5b",
					"pause()": "8456cb59",
					"paused()": "5c975abb",
					"renounceOwnership()": "715018a6",
					"transferBalance(address,uint256)": "56a6d9ef",
					"transferOwnership(address)": "f2fde38b",
					"unpause()": "3f4ba83a",
					"updateEndorsementOption(uint256,string)": "368df2a3",
					"updateFee(uint256)": "9012c4a8",
					"withdraw()": "3ccfd60b"
				}
			},
			"storageLayout": {
				"storage": [
					{
						"astId": 7,
						"contract": "RateUp.sol:RateUp",
						"label": "_owner",
						"offset": 0,
						"slot": "0",
						"type": "t_address"
					},
					{
						"astId": 151,
						"contract": "RateUp.sol:RateUp",
						"label": "_paused",
						"offset": 20,
						"slot": "0",
						"type": "t_bool"
					},
					{
						"astId": 299,
						"contract": "RateUp.sol:RateUp",
						"label": "failedMessage",
						"offset": 0,
						"slot": "1",
						"type": "t_string_storage"
					},
					{
						"astId": 301,
						"contract": "RateUp.sol:RateUp",
						"label": "fee",
						"offset": 0,
						"slot": "2",
						"type": "t_uint256"
					},
					{
						"astId": 318,
						"contract": "RateUp.sol:RateUp",
						"label": "endorsements",
						"offset": 0,
						"slot": "3",
						"type": "t_mapping(t_address,t_array(t_struct(EndorsementStruct)312_storage)dyn_storage)"
					},
					{
						"astId": 321,
						"contract": "RateUp.sol:RateUp",
						"label": "endorsementOptions",
						"offset": 0,
						"slot": "4",
						"type": "t_array(t_string_storage)dyn_storage"
					}
				],
				"types": {
					"t_address": {
						"encoding": "inplace",
						"label": "address",
						"numberOfBytes": "20"
					},
					"t_array(t_string_storage)dyn_storage": {
						"base": "t_string_storage",
						"encoding": "dynamic_array",
						"label": "string[]",
						"numberOfBytes": "32"
					},
					"t_array(t_struct(EndorsementStruct)312_storage)dyn_storage": {
						"base": "t_struct(EndorsementStruct)312_storage",
						"encoding": "dynamic_array",
						"label": "struct RateUp.EndorsementStruct[]",
						"numberOfBytes": "32"
					},
					"t_bool": {
						"encoding": "inplace",
						"label": "bool",
						"numberOfBytes": "1"
					},
					"t_mapping(t_address,t_array(t_struct(EndorsementStruct)312_storage)dyn_storage)": {
						"encoding": "mapping",
						"key": "t_address",
						"label": "mapping(address => struct RateUp.EndorsementStruct[])",
						"numberOfBytes": "32",
						"value": "t_array(t_struct(EndorsementStruct)312_storage)dyn_storage"
					},
					"t_string_storage": {
						"encoding": "bytes",
						"label": "string",
						"numberOfBytes": "32"
					},
					"t_struct(EndorsementStruct)312_storage": {
						"encoding": "inplace",
						"label": "struct RateUp.EndorsementStruct",
						"members": [
							{
								"astId": 303,
								"contract": "RateUp.sol:RateUp",
								"label": "endorser",
								"offset": 0,
								"slot": "0",
								"type": "t_address"
							},
							{
								"astId": 305,
								"contract": "RateUp.sol:RateUp",
								"label": "option",
								"offset": 0,
								"slot": "1",
								"type": "t_string_storage"
							},
							{
								"astId": 307,
								"contract": "RateUp.sol:RateUp",
								"label": "message",
								"offset": 0,
								"slot": "2",
								"type": "t_string_storage"
							},
							{
								"astId": 309,
								"contract": "RateUp.sol:RateUp",
								"label": "score",
								"offset": 0,
								"slot": "3",
								"type": "t_uint8"
							},
							{
								"astId": 311,
								"contract": "RateUp.sol:RateUp",
								"label": "timestamp",
								"offset": 0,
								"slot": "4",
								"type": "t_uint256"
							}
						],
						"numberOfBytes": "160"
					},
					"t_uint256": {
						"encoding": "inplace",
						"label": "uint256",
						"numberOfBytes": "32"
					},
					"t_uint8": {
						"encoding": "inplace",
						"label": "uint8",
						"numberOfBytes": "1"
					}
				}
			},
			"userdoc": {
				"kind": "user",
				"methods": {},
				"notice": "A contract where users can endorse and rate the skills, qualities, and contributions of others, building a transparent and community-driven reputation system.",
				"version": 1
			}
		}
	}
}