{
	"RateUp.sol": {
		"RateUp": {
			"abi": [
				{
					"inputs": [],
					"stateMutability": "nonpayable",
					"type": "constructor"
				},
				{
					"inputs": [],
					"name": "EnforcedPause",
					"type": "error"
				},
				{
					"inputs": [],
					"name": "ExpectedPause",
					"type": "error"
				},
				{
					"inputs": [
						{
							"internalType": "uint256",
							"name": "",
							"type": "uint256"
						}
					],
					"name": "InsufficientBalance",
					"type": "error"
				},
				{
					"anonymous": false,
					"inputs": [
						{
							"indexed": true,
							"internalType": "address",
							"name": "target",
							"type": "address"
						},
						{
							"indexed": true,
							"internalType": "address",
							"name": "endorser",
							"type": "address"
						},
						{
							"indexed": true,
							"internalType": "string",
							"name": "option",
							"type": "string"
						},
						{
							"indexed": false,
							"internalType": "string",
							"name": "message",
							"type": "string"
						},
						{
							"indexed": false,
							"internalType": "uint256",
							"name": "fee",
							"type": "uint256"
						},
						{
							"indexed": false,
							"internalType": "uint256",
							"name": "timestamp",
							"type": "uint256"
						}
					],
					"name": "EndorsementGiven",
					"type": "event"
				},
				{
					"anonymous": false,
					"inputs": [
						{
							"indexed": false,
							"internalType": "string",
							"name": "option",
							"type": "string"
						}
					],
					"name": "EndorsementOptionAdded",
					"type": "event"
				},
				{
					"anonymous": false,
					"inputs": [
						{
							"indexed": false,
							"internalType": "uint256",
							"name": "fee",
							"type": "uint256"
						}
					],
					"name": "FeeUpdated",
					"type": "event"
				},
				{
					"anonymous": false,
					"inputs": [
						{
							"indexed": true,
							"internalType": "address",
							"name": "previousOwner",
							"type": "address"
						},
						{
							"indexed": true,
							"internalType": "address",
							"name": "newOwner",
							"type": "address"
						}
					],
					"name": "OwnershipTransferred",
					"type": "event"
				},
				{
					"anonymous": false,
					"inputs": [
						{
							"indexed": false,
							"internalType": "address",
							"name": "account",
							"type": "address"
						}
					],
					"name": "Paused",
					"type": "event"
				},
				{
					"anonymous": false,
					"inputs": [
						{
							"indexed": false,
							"internalType": "address",
							"name": "account",
							"type": "address"
						}
					],
					"name": "Unpaused",
					"type": "event"
				},
				{
					"inputs": [],
					"name": "VERSION",
					"outputs": [
						{
							"internalType": "string",
							"name": "",
							"type": "string"
						}
					],
					"stateMutability": "view",
					"type": "function"
				},
				{
					"inputs": [
						{
							"internalType": "string",
							"name": "option",
							"type": "string"
						}
					],
					"name": "addEndorsementOption",
					"outputs": [],
					"stateMutability": "nonpayable",
					"type": "function"
				},
				{
					"inputs": [
						{
							"internalType": "uint256",
							"name": "",
							"type": "uint256"
						}
					],
					"name": "endorsementOptions",
					"outputs": [
						{
							"internalType": "string",
							"name": "",
							"type": "string"
						}
					],
					"stateMutability": "view",
					"type": "function"
				},
				{
					"inputs": [
						{
							"internalType": "address",
							"name": "",
							"type": "address"
						},
						{
							"internalType": "uint256",
							"name": "",
							"type": "uint256"
						}
					],
					"name": "endorsements",
					"outputs": [
						{
							"internalType": "address",
							"name": "endorser",
							"type": "address"
						},
						{
							"internalType": "string",
							"name": "option",
							"type": "string"
						},
						{
							"internalType": "string",
							"name": "message",
							"type": "string"
						},
						{
							"internalType": "uint8",
							"name": "score",
							"type": "uint8"
						},
						{
							"internalType": "uint256",
							"name": "timestamp",
							"type": "uint256"
						}
					],
					"stateMutability": "view",
					"type": "function"
				},
				{
					"inputs": [],
					"name": "fee",
					"outputs": [
						{
							"internalType": "uint256",
							"name": "",
							"type": "uint256"
						}
					],
					"stateMutability": "view",
					"type": "function"
				},
				{
					"inputs": [],
					"name": "getBalance",
					"outputs": [
						{
							"internalType": "uint256",
							"name": "",
							"type": "uint256"
						}
					],
					"stateMutability": "view",
					"type": "function"
				},
				{
					"inputs": [],
					"name": "getEndorsementOptions",
					"outputs": [
						{
							"internalType": "string[]",
							"name": "",
							"type": "string[]"
						}
					],
					"stateMutability": "view",
					"type": "function"
				},
				{
					"inputs": [
						{
							"internalType": "address",
							"name": "target",
							"type": "address"
						}
					],
					"name": "getEndorsements",
					"outputs": [
						{
							"components": [
								{
									"internalType": "address",
									"name": "endorser",
									"type": "address"
								},
								{
									"internalType": "string",
									"name": "option",
									"type": "string"
								},
								{
									"internalType": "string",
									"name": "message",
									"type": "string"
								},
								{
									"internalType": "uint8",
									"name": "score",
									"type": "uint8"
								},
								{
									"internalType": "uint256",
									"name": "timestamp",
									"type": "uint256"
								}
							],
							"internalType": "struct RateUp.EndorsementStruct[]",
							"name": "",
							"type": "tuple[]"
						}
					],
					"stateMutability": "view",
					"type": "function"
				},
				{
					"inputs": [
						{
							"internalType": "address",
							"name": "target",
							"type": "address"
						},
						{
							"internalType": "string",
							"name": "option",
							"type": "string"
						},
						{
							"internalType": "string",
							"name": "message",
							"type": "string"
						},
						{
							"internalType": "uint8",
							"name": "score",
							"type": "uint8"
						}
					],
					"name": "giveEndorsement",
					"outputs": [],
					"stateMutability": "payable",
					"type": "function"
				},
				{
					"inputs": [
						{
							"internalType": "address",
							"name": "",
							"type": "address"
						},
						{
							"internalType": "address",
							"name": "",
							"type": "address"
						},
						{
							"internalType": "string",
							"name": "",
							"type": "string"
						}
					],
					"name": "hasEndorsed",
					"outputs": [
						{
							"internalType": "bool",
							"name": "",
							"type": "bool"
						}
					],
					"stateMutability": "view",
					"type": "function"
				},
				{
					"inputs": [],
					"name": "owner",
					"outputs": [
						{
							"internalType": "address",
							"name": "",
							"type": "address"
						}
					],
					"stateMutability": "view",
					"type": "function"
				},
				{
					"inputs": [],
					"name": "pause",
					"outputs": [],
					"stateMutability": "nonpayable",
					"type": "function"
				},
				{
					"inputs": [],
					"name": "paused",
					"outputs": [
						{
							"internalType": "bool",
							"name": "",
							"type": "bool"
						}
					],
					"stateMutability": "view",
					"type": "function"
				},
				{
					"inputs": [],
					"name": "renounceOwnership",
					"outputs": [],
					"stateMutability": "nonpayable",
					"type": "function"
				},
				{
					"inputs": [
						{
							"internalType": "address payable",
							"name": "_to",
							"type": "address"
						},
						{
							"internalType": "uint256",
							"name": "_amount",
							"type": "uint256"
						}
					],
					"name": "transferBalance",
					"outputs": [],
					"stateMutability": "nonpayable",
					"type": "function"
				},
				{
					"inputs": [
						{
							"internalType": "address",
							"name": "newOwner",
							"type": "address"
						}
					],
					"name": "transferOwnership",
					"outputs": [],
					"stateMutability": "nonpayable",
					"type": "function"
				},
				{
					"inputs": [],
					"name": "unpause",
					"outputs": [],
					"stateMutability": "nonpayable",
					"type": "function"
				},
				{
					"inputs": [
						{
							"internalType": "uint256",
							"name": "index",
							"type": "uint256"
						},
						{
							"internalType": "string",
							"name": "option",
							"type": "string"
						}
					],
					"name": "updateEndorsementOption",
					"outputs": [],
					"stateMutability": "nonpayable",
					"type": "function"
				},
				{
					"inputs": [
						{
							"internalType": "uint256",
							"name": "_fee",
							"type": "uint256"
						}
					],
					"name": "updateFee",
					"outputs": [],
					"stateMutability": "nonpayable",
					"type": "function"
				},
				{
					"inputs": [],
					"name": "withdraw",
					"outputs": [],
					"stateMutability": "nonpayable",
					"type": "function"
				}
			],
			"devdoc": {
				"author": "Aratta Labs",
				"custom:emoji": "♦️",
				"custom:security-contact": "atenyun@gmail.com",
				"details": "Deployed contract addresses are available in the project repository.",
				"errors": {
					"EnforcedPause()": [
						{
							"details": "The operation failed because the contract is paused."
						}
					],
					"ExpectedPause()": [
						{
							"details": "The operation failed because the contract is not paused."
						}
					]
				},
				"events": {
					"Paused(address)": {
						"details": "Emitted when the pause is triggered by `account`."
					},
					"Unpaused(address)": {
						"details": "Emitted when the pause is lifted by `account`."
					}
				},
				"kind": "dev",
				"methods": {
					"owner()": {
						"details": "Returns the address of the current owner."
					},
					"paused()": {
						"details": "Returns true if the contract is paused, and false otherwise."
					},
					"renounceOwnership()": {
						"details": "Leaves the contract without owner. It will not be possible to call `onlyOwner` functions. Can only be called by the current owner. NOTE: Renouncing ownership will leave the contract without an owner, thereby disabling any functionality that is only available to the owner."
					},
					"transferOwnership(address)": {
						"details": "Transfers ownership of the contract to a new account (`newOwner`). Can only be called by the current owner."
					}
				},
				"title": "RateUp",
				"version": 1
			},
			"evm": {
				"assembly": "    /* \"RateUp.sol\":572:4461  contract RateUp is Ownable, Pausable {... */\n  mstore(0x40, 0x80)\n    /* \"RateUp.sol\":661:707  string failedMessage = \"Failed to send Ether!\" */\n  mload(0x40)\n  dup1\n  0x40\n  add\n  0x40\n  mstore\n  dup1\n  0x15\n  dup2\n  mstore\n  0x20\n  add\n  0x4661696c656420746f2073656e64204574686572210000000000000000000000\n  dup2\n  mstore\n  pop\n  0x01\n  swap1\n  dup2\n  tag_1\n  swap2\n  swap1\n  tag_2\n  jump\t// in\ntag_1:\n  pop\n    /* \"RateUp.sol\":1145:1183  constructor() {... */\n  callvalue\n  dup1\n  iszero\n  tag_3\n  jumpi\n  revert(0x00, 0x00)\ntag_3:\n  pop\n    /* \"@openzeppelin/contracts/access/Ownable.sol\":936:968  _transferOwnership(_msgSender()) */\n  tag_7\n    /* \"@openzeppelin/contracts/access/Ownable.sol\":955:967  _msgSender() */\n  tag_8\n    /* \"@openzeppelin/contracts/access/Ownable.sol\":955:965  _msgSender */\n  shl(0x20, tag_9)\n    /* \"@openzeppelin/contracts/access/Ownable.sol\":955:967  _msgSender() */\n  0x20\n  shr\n  jump\t// in\ntag_8:\n    /* \"@openzeppelin/contracts/access/Ownable.sol\":936:954  _transferOwnership */\n  shl(0x20, tag_10)\n    /* \"@openzeppelin/contracts/access/Ownable.sol\":936:968  _transferOwnership(_msgSender()) */\n  0x20\n  shr\n  jump\t// in\ntag_7:\n    /* \"RateUp.sol\":1175:1176  0 */\n  0x00\n    /* \"RateUp.sol\":1169:1172  fee */\n  0x02\n    /* \"RateUp.sol\":1169:1176  fee = 0 */\n  dup2\n  swap1\n  sstore\n  pop\n    /* \"RateUp.sol\":572:4461  contract RateUp is Ownable, Pausable {... */\n  jump(tag_12)\n    /* \"@openzeppelin/contracts/utils/Context.sol\":655:751  function _msgSender() internal view virtual returns (address) {... */\ntag_9:\n    /* \"@openzeppelin/contracts/utils/Context.sol\":708:715  address */\n  0x00\n    /* \"@openzeppelin/contracts/utils/Context.sol\":734:744  msg.sender */\n  caller\n    /* \"@openzeppelin/contracts/utils/Context.sol\":727:744  return msg.sender */\n  swap1\n  pop\n    /* \"@openzeppelin/contracts/utils/Context.sol\":655:751  function _msgSender() internal view virtual returns (address) {... */\n  swap1\n  jump\t// out\n    /* \"@openzeppelin/contracts/access/Ownable.sol\":2426:2613  function _transferOwnership(address newOwner) internal virtual {... */\ntag_10:\n    /* \"@openzeppelin/contracts/access/Ownable.sol\":2499:2515  address oldOwner */\n  0x00\n    /* \"@openzeppelin/contracts/access/Ownable.sol\":2518:2524  _owner */\n  0x00\n  0x00\n  swap1\n  sload\n  swap1\n  0x0100\n  exp\n  swap1\n  div\n  0xffffffffffffffffffffffffffffffffffffffff\n  and\n    /* \"@openzeppelin/contracts/access/Ownable.sol\":2499:2524  address oldOwner = _owner */\n  swap1\n  pop\n    /* \"@openzeppelin/contracts/access/Ownable.sol\":2543:2551  newOwner */\n  dup2\n    /* \"@openzeppelin/contracts/access/Ownable.sol\":2534:2540  _owner */\n  0x00\n  0x00\n    /* \"@openzeppelin/contracts/access/Ownable.sol\":2534:2551  _owner = newOwner */\n  0x0100\n  exp\n  dup2\n  sload\n  dup2\n  0xffffffffffffffffffffffffffffffffffffffff\n  mul\n  not\n  and\n  swap1\n  dup4\n  0xffffffffffffffffffffffffffffffffffffffff\n  and\n  mul\n  or\n  swap1\n  sstore\n  pop\n    /* \"@openzeppelin/contracts/access/Ownable.sol\":2597:2605  newOwner */\n  dup2\n    /* \"@openzeppelin/contracts/access/Ownable.sol\":2566:2606  OwnershipTransferred(oldOwner, newOwner) */\n  0xffffffffffffffffffffffffffffffffffffffff\n  and\n    /* \"@openzeppelin/contracts/access/Ownable.sol\":2587:2595  oldOwner */\n  dup2\n    /* \"@openzeppelin/contracts/access/Ownable.sol\":2566:2606  OwnershipTransferred(oldOwner, newOwner) */\n  0xffffffffffffffffffffffffffffffffffffffff\n  and\n  0x8be0079c531659141344cd1fd0a4f28419497f9722a3daafe3b4186f6b6457e0\n  mload(0x40)\n  mload(0x40)\n  dup1\n  swap2\n  sub\n  swap1\n  log3\n    /* \"@openzeppelin/contracts/access/Ownable.sol\":2489:2613  {... */\n  pop\n    /* \"@openzeppelin/contracts/access/Ownable.sol\":2426:2613  function _transferOwnership(address newOwner) internal virtual {... */\n  pop\n  jump\t// out\n    /* \"#utility.yul\":7:106   */\ntag_15:\n    /* \"#utility.yul\":59:65   */\n  0x00\n    /* \"#utility.yul\":93:98   */\n  dup2\n    /* \"#utility.yul\":87:99   */\n  mload\n    /* \"#utility.yul\":77:99   */\n  swap1\n  pop\n    /* \"#utility.yul\":7:106   */\n  swap2\n  swap1\n  pop\n  jump\t// out\n    /* \"#utility.yul\":112:292   */\ntag_16:\n    /* \"#utility.yul\":160:237   */\n  0x4e487b7100000000000000000000000000000000000000000000000000000000\n    /* \"#utility.yul\":157:158   */\n  0x00\n    /* \"#utility.yul\":150:238   */\n  mstore\n    /* \"#utility.yul\":257:261   */\n  0x41\n    /* \"#utility.yul\":254:255   */\n  0x04\n    /* \"#utility.yul\":247:262   */\n  mstore\n    /* \"#utility.yul\":281:285   */\n  0x24\n    /* \"#utility.yul\":278:279   */\n  0x00\n    /* \"#utility.yul\":271:286   */\n  revert\n    /* \"#utility.yul\":298:478   */\ntag_17:\n    /* \"#utility.yul\":346:423   */\n  0x4e487b7100000000000000000000000000000000000000000000000000000000\n    /* \"#utility.yul\":343:344   */\n  0x00\n    /* \"#utility.yul\":336:424   */\n  mstore\n    /* \"#utility.yul\":443:447   */\n  0x22\n    /* \"#utility.yul\":440:441   */\n  0x04\n    /* \"#utility.yul\":433:448   */\n  mstore\n    /* \"#utility.yul\":467:471   */\n  0x24\n    /* \"#utility.yul\":464:465   */\n  0x00\n    /* \"#utility.yul\":457:472   */\n  revert\n    /* \"#utility.yul\":484:804   */\ntag_18:\n    /* \"#utility.yul\":528:534   */\n  0x00\n    /* \"#utility.yul\":565:566   */\n  0x02\n    /* \"#utility.yul\":559:563   */\n  dup3\n    /* \"#utility.yul\":555:567   */\n  div\n    /* \"#utility.yul\":545:567   */\n  swap1\n  pop\n    /* \"#utility.yul\":612:613   */\n  0x01\n    /* \"#utility.yul\":606:610   */\n  dup3\n    /* \"#utility.yul\":602:614   */\n  and\n    /* \"#utility.yul\":633:651   */\n  dup1\n    /* \"#utility.yul\":623:704   */\n  tag_40\n  jumpi\n    /* \"#utility.yul\":689:693   */\n  0x7f\n    /* \"#utility.yul\":681:687   */\n  dup3\n    /* \"#utility.yul\":677:694   */\n  and\n    /* \"#utility.yul\":667:694   */\n  swap2\n  pop\n    /* \"#utility.yul\":623:704   */\ntag_40:\n    /* \"#utility.yul\":751:753   */\n  0x20\n    /* \"#utility.yul\":743:749   */\n  dup3\n    /* \"#utility.yul\":740:754   */\n  lt\n    /* \"#utility.yul\":720:738   */\n  dup2\n    /* \"#utility.yul\":717:755   */\n  sub\n    /* \"#utility.yul\":714:798   */\n  tag_41\n  jumpi\n    /* \"#utility.yul\":770:788   */\n  tag_42\n  tag_17\n  jump\t// in\ntag_42:\n    /* \"#utility.yul\":714:798   */\ntag_41:\n    /* \"#utility.yul\":535:804   */\n  pop\n    /* \"#utility.yul\":484:804   */\n  swap2\n  swap1\n  pop\n  jump\t// out\n    /* \"#utility.yul\":810:951   */\ntag_19:\n    /* \"#utility.yul\":859:863   */\n  0x00\n    /* \"#utility.yul\":882:885   */\n  dup2\n    /* \"#utility.yul\":874:885   */\n  swap1\n  pop\n    /* \"#utility.yul\":905:908   */\n  dup2\n    /* \"#utility.yul\":902:903   */\n  0x00\n    /* \"#utility.yul\":895:909   */\n  mstore\n    /* \"#utility.yul\":939:943   */\n  0x20\n    /* \"#utility.yul\":936:937   */\n  0x00\n    /* \"#utility.yul\":926:944   */\n  keccak256\n    /* \"#utility.yul\":918:944   */\n  swap1\n  pop\n    /* \"#utility.yul\":810:951   */\n  swap2\n  swap1\n  pop\n  jump\t// out\n    /* \"#utility.yul\":957:1050   */\ntag_20:\n    /* \"#utility.yul\":994:1000   */\n  0x00\n    /* \"#utility.yul\":1041:1043   */\n  0x20\n    /* \"#utility.yul\":1036:1038   */\n  0x1f\n    /* \"#utility.yul\":1029:1034   */\n  dup4\n    /* \"#utility.yul\":1025:1039   */\n  add\n    /* \"#utility.yul\":1021:1044   */\n  div\n    /* \"#utility.yul\":1011:1044   */\n  swap1\n  pop\n    /* \"#utility.yul\":957:1050   */\n  swap2\n  swap1\n  pop\n  jump\t// out\n    /* \"#utility.yul\":1056:1163   */\ntag_21:\n    /* \"#utility.yul\":1100:1108   */\n  0x00\n    /* \"#utility.yul\":1150:1155   */\n  dup3\n    /* \"#utility.yul\":1144:1148   */\n  dup3\n    /* \"#utility.yul\":1140:1156   */\n  shl\n    /* \"#utility.yul\":1119:1156   */\n  swap1\n  pop\n    /* \"#utility.yul\":1056:1163   */\n  swap3\n  swap2\n  pop\n  pop\n  jump\t// out\n    /* \"#utility.yul\":1169:1562   */\ntag_22:\n    /* \"#utility.yul\":1238:1244   */\n  0x00\n    /* \"#utility.yul\":1288:1289   */\n  0x08\n    /* \"#utility.yul\":1276:1286   */\n  dup4\n    /* \"#utility.yul\":1272:1290   */\n  mul\n    /* \"#utility.yul\":1311:1408   */\n  tag_47\n    /* \"#utility.yul\":1341:1407   */\n  0xffffffffffffffffffffffffffffffffffffffffffffffffffffffffffffffff\n    /* \"#utility.yul\":1330:1339   */\n  dup3\n    /* \"#utility.yul\":1311:1408   */\n  tag_21\n  jump\t// in\ntag_47:\n    /* \"#utility.yul\":1429:1468   */\n  tag_48\n    /* \"#utility.yul\":1459:1467   */\n  dup7\n    /* \"#utility.yul\":1448:1457   */\n  dup4\n    /* \"#utility.yul\":1429:1468   */\n  tag_21\n  jump\t// in\ntag_48:\n    /* \"#utility.yul\":1417:1468   */\n  swap6\n  pop\n    /* \"#utility.yul\":1501:1505   */\n  dup1\n    /* \"#utility.yul\":1497:1506   */\n  not\n    /* \"#utility.yul\":1490:1495   */\n  dup5\n    /* \"#utility.yul\":1486:1507   */\n  and\n    /* \"#utility.yul\":1477:1507   */\n  swap4\n  pop\n    /* \"#utility.yul\":1550:1554   */\n  dup1\n    /* \"#utility.yul\":1540:1548   */\n  dup7\n    /* \"#utility.yul\":1536:1555   */\n  and\n    /* \"#utility.yul\":1529:1534   */\n  dup5\n    /* \"#utility.yul\":1526:1556   */\n  or\n    /* \"#utility.yul\":1516:1556   */\n  swap3\n  pop\n    /* \"#utility.yul\":1245:1562   */\n  pop\n  pop\n    /* \"#utility.yul\":1169:1562   */\n  swap4\n  swap3\n  pop\n  pop\n  pop\n  jump\t// out\n    /* \"#utility.yul\":1568:1645   */\ntag_23:\n    /* \"#utility.yul\":1605:1612   */\n  0x00\n    /* \"#utility.yul\":1634:1639   */\n  dup2\n    /* \"#utility.yul\":1623:1639   */\n  swap1\n  pop\n    /* \"#utility.yul\":1568:1645   */\n  swap2\n  swap1\n  pop\n  jump\t// out\n    /* \"#utility.yul\":1651:1711   */\ntag_24:\n    /* \"#utility.yul\":1679:1682   */\n  0x00\n    /* \"#utility.yul\":1700:1705   */\n  dup2\n    /* \"#utility.yul\":1693:1705   */\n  swap1\n  pop\n    /* \"#utility.yul\":1651:1711   */\n  swap2\n  swap1\n  pop\n  jump\t// out\n    /* \"#utility.yul\":1717:1859   */\ntag_25:\n    /* \"#utility.yul\":1767:1776   */\n  0x00\n    /* \"#utility.yul\":1800:1853   */\n  tag_52\n    /* \"#utility.yul\":1818:1852   */\n  tag_53\n    /* \"#utility.yul\":1827:1851   */\n  tag_54\n    /* \"#utility.yul\":1845:1850   */\n  dup5\n    /* \"#utility.yul\":1827:1851   */\n  tag_23\n  jump\t// in\ntag_54:\n    /* \"#utility.yul\":1818:1852   */\n  tag_24\n  jump\t// in\ntag_53:\n    /* \"#utility.yul\":1800:1853   */\n  tag_23\n  jump\t// in\ntag_52:\n    /* \"#utility.yul\":1787:1853   */\n  swap1\n  pop\n    /* \"#utility.yul\":1717:1859   */\n  swap2\n  swap1\n  pop\n  jump\t// out\n    /* \"#utility.yul\":1865:1940   */\ntag_26:\n    /* \"#utility.yul\":1908:1911   */\n  0x00\n    /* \"#utility.yul\":1929:1934   */\n  dup2\n    /* \"#utility.yul\":1922:1934   */\n  swap1\n  pop\n    /* \"#utility.yul\":1865:1940   */\n  swap2\n  swap1\n  pop\n  jump\t// out\n    /* \"#utility.yul\":1946:2215   */\ntag_27:\n    /* \"#utility.yul\":2056:2095   */\n  tag_57\n    /* \"#utility.yul\":2087:2094   */\n  dup4\n    /* \"#utility.yul\":2056:2095   */\n  tag_25\n  jump\t// in\ntag_57:\n    /* \"#utility.yul\":2117:2208   */\n  tag_58\n    /* \"#utility.yul\":2166:2207   */\n  tag_59\n    /* \"#utility.yul\":2190:2206   */\n  dup3\n    /* \"#utility.yul\":2166:2207   */\n  tag_26\n  jump\t// in\ntag_59:\n    /* \"#utility.yul\":2158:2164   */\n  dup5\n    /* \"#utility.yul\":2151:2155   */\n  dup5\n    /* \"#utility.yul\":2145:2156   */\n  sload\n    /* \"#utility.yul\":2117:2208   */\n  tag_22\n  jump\t// in\ntag_58:\n    /* \"#utility.yul\":2111:2115   */\n  dup3\n    /* \"#utility.yul\":2104:2209   */\n  sstore\n    /* \"#utility.yul\":2022:2215   */\n  pop\n    /* \"#utility.yul\":1946:2215   */\n  pop\n  pop\n  pop\n  jump\t// out\n    /* \"#utility.yul\":2221:2294   */\ntag_28:\n    /* \"#utility.yul\":2266:2269   */\n  0x00\n    /* \"#utility.yul\":2287:2288   */\n  0x00\n    /* \"#utility.yul\":2280:2288   */\n  swap1\n  pop\n    /* \"#utility.yul\":2221:2294   */\n  swap1\n  jump\t// out\n    /* \"#utility.yul\":2300:2489   */\ntag_29:\n    /* \"#utility.yul\":2377:2409   */\n  tag_62\n  tag_28\n  jump\t// in\ntag_62:\n    /* \"#utility.yul\":2418:2483   */\n  tag_63\n    /* \"#utility.yul\":2476:2482   */\n  dup2\n    /* \"#utility.yul\":2468:2474   */\n  dup5\n    /* \"#utility.yul\":2462:2466   */\n  dup5\n    /* \"#utility.yul\":2418:2483   */\n  tag_27\n  jump\t// in\ntag_63:\n    /* \"#utility.yul\":2353:2489   */\n  pop\n    /* \"#utility.yul\":2300:2489   */\n  pop\n  pop\n  jump\t// out\n    /* \"#utility.yul\":2495:2681   */\ntag_30:\n    /* \"#utility.yul\":2555:2675   */\ntag_65:\n    /* \"#utility.yul\":2572:2575   */\n  dup2\n    /* \"#utility.yul\":2565:2570   */\n  dup2\n    /* \"#utility.yul\":2562:2576   */\n  lt\n    /* \"#utility.yul\":2555:2675   */\n  iszero\n  tag_67\n  jumpi\n    /* \"#utility.yul\":2626:2665   */\n  tag_68\n    /* \"#utility.yul\":2663:2664   */\n  0x00\n    /* \"#utility.yul\":2656:2661   */\n  dup3\n    /* \"#utility.yul\":2626:2665   */\n  tag_29\n  jump\t// in\ntag_68:\n    /* \"#utility.yul\":2599:2600   */\n  0x01\n    /* \"#utility.yul\":2592:2597   */\n  dup2\n    /* \"#utility.yul\":2588:2601   */\n  add\n    /* \"#utility.yul\":2579:2601   */\n  swap1\n  pop\n    /* \"#utility.yul\":2555:2675   */\n  jump(tag_65)\ntag_67:\n    /* \"#utility.yul\":2495:2681   */\n  pop\n  pop\n  jump\t// out\n    /* \"#utility.yul\":2687:3230   */\ntag_31:\n    /* \"#utility.yul\":2788:2790   */\n  0x1f\n    /* \"#utility.yul\":2783:2786   */\n  dup3\n    /* \"#utility.yul\":2780:2791   */\n  gt\n    /* \"#utility.yul\":2777:3223   */\n  iszero\n  tag_70\n  jumpi\n    /* \"#utility.yul\":2822:2860   */\n  tag_71\n    /* \"#utility.yul\":2854:2859   */\n  dup2\n    /* \"#utility.yul\":2822:2860   */\n  tag_19\n  jump\t// in\ntag_71:\n    /* \"#utility.yul\":2906:2935   */\n  tag_72\n    /* \"#utility.yul\":2924:2934   */\n  dup5\n    /* \"#utility.yul\":2906:2935   */\n  tag_20\n  jump\t// in\ntag_72:\n    /* \"#utility.yul\":2896:2904   */\n  dup2\n    /* \"#utility.yul\":2892:2936   */\n  add\n    /* \"#utility.yul\":3089:3091   */\n  0x20\n    /* \"#utility.yul\":3077:3087   */\n  dup6\n    /* \"#utility.yul\":3074:3092   */\n  lt\n    /* \"#utility.yul\":3071:3120   */\n  iszero\n  tag_73\n  jumpi\n    /* \"#utility.yul\":3110:3118   */\n  dup2\n    /* \"#utility.yul\":3095:3118   */\n  swap1\n  pop\n    /* \"#utility.yul\":3071:3120   */\ntag_73:\n    /* \"#utility.yul\":3133:3213   */\n  tag_74\n    /* \"#utility.yul\":3189:3211   */\n  tag_75\n    /* \"#utility.yul\":3207:3210   */\n  dup6\n    /* \"#utility.yul\":3189:3211   */\n  tag_20\n  jump\t// in\ntag_75:\n    /* \"#utility.yul\":3179:3187   */\n  dup4\n    /* \"#utility.yul\":3175:3212   */\n  add\n    /* \"#utility.yul\":3162:3173   */\n  dup3\n    /* \"#utility.yul\":3133:3213   */\n  tag_30\n  jump\t// in\ntag_74:\n    /* \"#utility.yul\":2792:3223   */\n  pop\n  pop\n    /* \"#utility.yul\":2777:3223   */\ntag_70:\n    /* \"#utility.yul\":2687:3230   */\n  pop\n  pop\n  pop\n  jump\t// out\n    /* \"#utility.yul\":3236:3353   */\ntag_32:\n    /* \"#utility.yul\":3290:3298   */\n  0x00\n    /* \"#utility.yul\":3340:3345   */\n  dup3\n    /* \"#utility.yul\":3334:3338   */\n  dup3\n    /* \"#utility.yul\":3330:3346   */\n  shr\n    /* \"#utility.yul\":3309:3346   */\n  swap1\n  pop\n    /* \"#utility.yul\":3236:3353   */\n  swap3\n  swap2\n  pop\n  pop\n  jump\t// out\n    /* \"#utility.yul\":3359:3528   */\ntag_33:\n    /* \"#utility.yul\":3403:3409   */\n  0x00\n    /* \"#utility.yul\":3436:3487   */\n  tag_78\n    /* \"#utility.yul\":3484:3485   */\n  0x00\n    /* \"#utility.yul\":3480:3486   */\n  not\n    /* \"#utility.yul\":3472:3477   */\n  dup5\n    /* \"#utility.yul\":3469:3470   */\n  0x08\n    /* \"#utility.yul\":3465:3478   */\n  mul\n    /* \"#utility.yul\":3436:3487   */\n  tag_32\n  jump\t// in\ntag_78:\n    /* \"#utility.yul\":3432:3488   */\n  not\n    /* \"#utility.yul\":3517:3521   */\n  dup1\n    /* \"#utility.yul\":3511:3515   */\n  dup4\n    /* \"#utility.yul\":3507:3522   */\n  and\n    /* \"#utility.yul\":3497:3522   */\n  swap2\n  pop\n    /* \"#utility.yul\":3410:3528   */\n  pop\n    /* \"#utility.yul\":3359:3528   */\n  swap3\n  swap2\n  pop\n  pop\n  jump\t// out\n    /* \"#utility.yul\":3533:3828   */\ntag_34:\n    /* \"#utility.yul\":3609:3613   */\n  0x00\n    /* \"#utility.yul\":3755:3784   */\n  tag_80\n    /* \"#utility.yul\":3780:3783   */\n  dup4\n    /* \"#utility.yul\":3774:3778   */\n  dup4\n    /* \"#utility.yul\":3755:3784   */\n  tag_33\n  jump\t// in\ntag_80:\n    /* \"#utility.yul\":3747:3784   */\n  swap2\n  pop\n    /* \"#utility.yul\":3817:3820   */\n  dup3\n    /* \"#utility.yul\":3814:3815   */\n  0x02\n    /* \"#utility.yul\":3810:3821   */\n  mul\n    /* \"#utility.yul\":3804:3808   */\n  dup3\n    /* \"#utility.yul\":3801:3822   */\n  or\n    /* \"#utility.yul\":3793:3822   */\n  swap1\n  pop\n    /* \"#utility.yul\":3533:3828   */\n  swap3\n  swap2\n  pop\n  pop\n  jump\t// out\n    /* \"#utility.yul\":3833:5228   */\ntag_2:\n    /* \"#utility.yul\":3950:3987   */\n  tag_82\n    /* \"#utility.yul\":3983:3986   */\n  dup3\n    /* \"#utility.yul\":3950:3987   */\n  tag_15\n  jump\t// in\ntag_82:\n    /* \"#utility.yul\":4052:4070   */\n  0xffffffffffffffff\n    /* \"#utility.yul\":4044:4050   */\n  dup2\n    /* \"#utility.yul\":4041:4071   */\n  gt\n    /* \"#utility.yul\":4038:4094   */\n  iszero\n  tag_83\n  jumpi\n    /* \"#utility.yul\":4074:4092   */\n  tag_84\n  tag_16\n  jump\t// in\ntag_84:\n    /* \"#utility.yul\":4038:4094   */\ntag_83:\n    /* \"#utility.yul\":4118:4156   */\n  tag_85\n    /* \"#utility.yul\":4150:4154   */\n  dup3\n    /* \"#utility.yul\":4144:4155   */\n  sload\n    /* \"#utility.yul\":4118:4156   */\n  tag_18\n  jump\t// in\ntag_85:\n    /* \"#utility.yul\":4203:4270   */\n  tag_86\n    /* \"#utility.yul\":4263:4269   */\n  dup3\n    /* \"#utility.yul\":4255:4261   */\n  dup3\n    /* \"#utility.yul\":4249:4253   */\n  dup6\n    /* \"#utility.yul\":4203:4270   */\n  tag_31\n  jump\t// in\ntag_86:\n    /* \"#utility.yul\":4297:4298   */\n  0x00\n    /* \"#utility.yul\":4321:4325   */\n  0x20\n    /* \"#utility.yul\":4308:4325   */\n  swap1\n  pop\n    /* \"#utility.yul\":4353:4355   */\n  0x1f\n    /* \"#utility.yul\":4345:4351   */\n  dup4\n    /* \"#utility.yul\":4342:4356   */\n  gt\n    /* \"#utility.yul\":4370:4371   */\n  0x01\n    /* \"#utility.yul\":4365:4983   */\n  dup2\n  eq\n  tag_88\n  jumpi\n    /* \"#utility.yul\":5027:5028   */\n  0x00\n    /* \"#utility.yul\":5044:5050   */\n  dup5\n    /* \"#utility.yul\":5041:5118   */\n  iszero\n  tag_89\n  jumpi\n    /* \"#utility.yul\":5093:5102   */\n  dup3\n    /* \"#utility.yul\":5088:5091   */\n  dup8\n    /* \"#utility.yul\":5084:5103   */\n  add\n    /* \"#utility.yul\":5078:5104   */\n  mload\n    /* \"#utility.yul\":5069:5104   */\n  swap1\n  pop\n    /* \"#utility.yul\":5041:5118   */\ntag_89:\n    /* \"#utility.yul\":5144:5211   */\n  tag_90\n    /* \"#utility.yul\":5204:5210   */\n  dup6\n    /* \"#utility.yul\":5197:5202   */\n  dup3\n    /* \"#utility.yul\":5144:5211   */\n  tag_34\n  jump\t// in\ntag_90:\n    /* \"#utility.yul\":5138:5142   */\n  dup7\n    /* \"#utility.yul\":5131:5212   */\n  sstore\n    /* \"#utility.yul\":5000:5222   */\n  pop\n    /* \"#utility.yul\":4335:5222   */\n  jump(tag_87)\n    /* \"#utility.yul\":4365:4983   */\ntag_88:\n    /* \"#utility.yul\":4417:4421   */\n  0x1f\n    /* \"#utility.yul\":4413:4422   */\n  not\n    /* \"#utility.yul\":4405:4411   */\n  dup5\n    /* \"#utility.yul\":4401:4423   */\n  and\n    /* \"#utility.yul\":4451:4488   */\n  tag_91\n    /* \"#utility.yul\":4483:4487   */\n  dup7\n    /* \"#utility.yul\":4451:4488   */\n  tag_19\n  jump\t// in\ntag_91:\n    /* \"#utility.yul\":4510:4511   */\n  0x00\n    /* \"#utility.yul\":4524:4732   */\ntag_92:\n    /* \"#utility.yul\":4538:4545   */\n  dup3\n    /* \"#utility.yul\":4535:4536   */\n  dup2\n    /* \"#utility.yul\":4532:4546   */\n  lt\n    /* \"#utility.yul\":4524:4732   */\n  iszero\n  tag_94\n  jumpi\n    /* \"#utility.yul\":4617:4626   */\n  dup5\n    /* \"#utility.yul\":4612:4615   */\n  dup10\n    /* \"#utility.yul\":4608:4627   */\n  add\n    /* \"#utility.yul\":4602:4628   */\n  mload\n    /* \"#utility.yul\":4594:4600   */\n  dup3\n    /* \"#utility.yul\":4587:4629   */\n  sstore\n    /* \"#utility.yul\":4668:4669   */\n  0x01\n    /* \"#utility.yul\":4660:4666   */\n  dup3\n    /* \"#utility.yul\":4656:4670   */\n  add\n    /* \"#utility.yul\":4646:4670   */\n  swap2\n  pop\n    /* \"#utility.yul\":4715:4717   */\n  0x20\n    /* \"#utility.yul\":4704:4713   */\n  dup6\n    /* \"#utility.yul\":4700:4718   */\n  add\n    /* \"#utility.yul\":4687:4718   */\n  swap5\n  pop\n    /* \"#utility.yul\":4561:4565   */\n  0x20\n    /* \"#utility.yul\":4558:4559   */\n  dup2\n    /* \"#utility.yul\":4554:4566   */\n  add\n    /* \"#utility.yul\":4549:4566   */\n  swap1\n  pop\n    /* \"#utility.yul\":4524:4732   */\n  jump(tag_92)\ntag_94:\n    /* \"#utility.yul\":4760:4766   */\n  dup7\n    /* \"#utility.yul\":4751:4758   */\n  dup4\n    /* \"#utility.yul\":4748:4767   */\n  lt\n    /* \"#utility.yul\":4745:4924   */\n  iszero\n  tag_95\n  jumpi\n    /* \"#utility.yul\":4818:4827   */\n  dup5\n    /* \"#utility.yul\":4813:4816   */\n  dup10\n    /* \"#utility.yul\":4809:4828   */\n  add\n    /* \"#utility.yul\":4803:4829   */\n  mload\n    /* \"#utility.yul\":4861:4909   */\n  tag_96\n    /* \"#utility.yul\":4903:4907   */\n  0x1f\n    /* \"#utility.yul\":4895:4901   */\n  dup10\n    /* \"#utility.yul\":4891:4908   */\n  and\n    /* \"#utility.yul\":4880:4889   */\n  dup3\n    /* \"#utility.yul\":4861:4909   */\n  tag_33\n  jump\t// in\ntag_96:\n    /* \"#utility.yul\":4853:4859   */\n  dup4\n    /* \"#utility.yul\":4846:4910   */\n  sstore\n    /* \"#utility.yul\":4768:4924   */\n  pop\n    /* \"#utility.yul\":4745:4924   */\ntag_95:\n    /* \"#utility.yul\":4970:4971   */\n  0x01\n    /* \"#utility.yul\":4966:4967   */\n  0x02\n    /* \"#utility.yul\":4958:4964   */\n  dup9\n    /* \"#utility.yul\":4954:4968   */\n  mul\n    /* \"#utility.yul\":4950:4972   */\n  add\n    /* \"#utility.yul\":4944:4948   */\n  dup9\n    /* \"#utility.yul\":4937:4973   */\n  sstore\n    /* \"#utility.yul\":4372:4983   */\n  pop\n  pop\n  pop\n    /* \"#utility.yul\":4335:5222   */\ntag_87:\n  pop\n    /* \"#utility.yul\":3925:5228   */\n  pop\n  pop\n  pop\n    /* \"#utility.yul\":3833:5228   */\n  pop\n  pop\n  jump\t// out\n    /* \"RateUp.sol\":572:4461  contract RateUp is Ownable, Pausable {... */\ntag_12:\n  dataSize(sub_0)\n  dup1\n  dataOffset(sub_0)\n  0x00\n  codecopy\n  0x00\n  return\nstop\n\nsub_0: assembly {\n        /* \"RateUp.sol\":572:4461  contract RateUp is Ownable, Pausable {... */\n      mstore(0x40, 0x80)\n      jumpi(tag_1, lt(calldatasize, 0x04))\n      shr(0xe0, calldataload(0x00))\n      dup1\n      0x715018a6\n      gt\n      tag_22\n      jumpi\n      dup1\n      0xd2f6ab9b\n      gt\n      tag_23\n      jumpi\n      dup1\n      0xd2f6ab9b\n      eq\n      tag_17\n      jumpi\n      dup1\n      0xddca3f43\n      eq\n      tag_18\n      jumpi\n      dup1\n      0xf2fde38b\n      eq\n      tag_19\n      jumpi\n      dup1\n      0xf31f2f80\n      eq\n      tag_20\n      jumpi\n      dup1\n      0xffa1ad74\n      eq\n      tag_21\n      jumpi\n      jump(tag_1)\n    tag_23:\n      dup1\n      0x715018a6\n      eq\n      tag_12\n      jumpi\n      dup1\n      0x8456cb59\n      eq\n      tag_13\n      jumpi\n      dup1\n      0x8da5cb5b\n      eq\n      tag_14\n      jumpi\n      dup1\n      0x9012c4a8\n      eq\n      tag_15\n      jumpi\n      dup1\n      0xb666ca9d\n      eq\n      tag_16\n      jumpi\n      jump(tag_1)\n    tag_22:\n      dup1\n      0x5675049e\n      gt\n      tag_24\n      jumpi\n      dup1\n      0x5675049e\n      eq\n      tag_7\n      jumpi\n      dup1\n      0x56a6d9ef\n      eq\n      tag_8\n      jumpi\n      dup1\n      0x5c975abb\n      eq\n      tag_9\n      jumpi\n      dup1\n      0x613a0cc4\n      eq\n      tag_10\n      jumpi\n      dup1\n      0x63414343\n      eq\n      tag_11\n      jumpi\n      jump(tag_1)\n    tag_24:\n      dup1\n      0x12065fe0\n      eq\n      tag_2\n      jumpi\n      dup1\n      0x2cdc9efb\n      eq\n      tag_3\n      jumpi\n      dup1\n      0x368df2a3\n      eq\n      tag_4\n      jumpi\n      dup1\n      0x3ccfd60b\n      eq\n      tag_5\n      jumpi\n      dup1\n      0x3f4ba83a\n      eq\n      tag_6\n      jumpi\n    tag_1:\n      revert(0x00, 0x00)\n        /* \"RateUp.sol\":4228:4325  function getBalance() public view returns (uint256) {... */\n    tag_2:\n      callvalue\n      dup1\n      iszero\n      tag_25\n      jumpi\n      revert(0x00, 0x00)\n    tag_25:\n      pop\n      tag_26\n      tag_27\n      jump\t// in\n    tag_26:\n      mload(0x40)\n      tag_28\n      swap2\n      swap1\n      tag_29\n      jump\t// in\n    tag_28:\n      mload(0x40)\n      dup1\n      swap2\n      sub\n      swap1\n      return\n        /* \"RateUp.sol\":904:963  mapping(address => EndorsementStruct[]) public endorsements */\n    tag_3:\n      callvalue\n      dup1\n      iszero\n      tag_30\n      jumpi\n      revert(0x00, 0x00)\n    tag_30:\n      pop\n      tag_31\n      0x04\n      dup1\n      calldatasize\n      sub\n      dup2\n      add\n      swap1\n      tag_32\n      swap2\n      swap1\n      tag_33\n      jump\t// in\n    tag_32:\n      tag_34\n      jump\t// in\n    tag_31:\n      mload(0x40)\n      tag_35\n      swap6\n      swap5\n      swap4\n      swap3\n      swap2\n      swap1\n      tag_36\n      jump\t// in\n    tag_35:\n      mload(0x40)\n      dup1\n      swap2\n      sub\n      swap1\n      return\n        /* \"RateUp.sol\":3280:3723  function updateEndorsementOption(uint256 index, string memory option) public onlyOwner {... */\n    tag_4:\n      callvalue\n      dup1\n      iszero\n      tag_37\n      jumpi\n      revert(0x00, 0x00)\n    tag_37:\n      pop\n      tag_38\n      0x04\n      dup1\n      calldatasize\n      sub\n      dup2\n      add\n      swap1\n      tag_39\n      swap2\n      swap1\n      tag_40\n      jump\t// in\n    tag_39:\n      tag_41\n      jump\t// in\n    tag_38:\n      stop\n        /* \"RateUp.sol\":3848:4036  function withdraw() public onlyOwner {... */\n    tag_5:\n      callvalue\n      dup1\n      iszero\n      tag_42\n      jumpi\n      revert(0x00, 0x00)\n    tag_42:\n      pop\n      tag_43\n      tag_44\n      jump\t// in\n    tag_43:\n      stop\n        /* \"RateUp.sol\":4396:4459  function unpause() public onlyOwner {... */\n    tag_6:\n      callvalue\n      dup1\n      iszero\n      tag_45\n      jumpi\n      revert(0x00, 0x00)\n    tag_45:\n      pop\n      tag_46\n      tag_47\n      jump\t// in\n    tag_46:\n      stop\n        /* \"RateUp.sol\":3729:3842  function getEndorsementOptions() public view returns (string[] memory) {... */\n    tag_7:\n      callvalue\n      dup1\n      iszero\n      tag_48\n      jumpi\n      revert(0x00, 0x00)\n    tag_48:\n      pop\n      tag_49\n      tag_50\n      jump\t// in\n    tag_49:\n      mload(0x40)\n      tag_51\n      swap2\n      swap1\n      tag_52\n      jump\t// in\n    tag_51:\n      mload(0x40)\n      dup1\n      swap2\n      sub\n      swap1\n      return\n        /* \"RateUp.sol\":4042:4222  function transferBalance(address payable _to, uint256 _amount) public onlyOwner {... */\n    tag_8:\n      callvalue\n      dup1\n      iszero\n      tag_53\n      jumpi\n      revert(0x00, 0x00)\n    tag_53:\n      pop\n      tag_54\n      0x04\n      dup1\n      calldatasize\n      sub\n      dup2\n      add\n      swap1\n      tag_55\n      swap2\n      swap1\n      tag_56\n      jump\t// in\n    tag_55:\n      tag_57\n      jump\t// in\n    tag_54:\n      stop\n        /* \"@openzeppelin/contracts/utils/Pausable.sol\":1726:1810  function paused() public view virtual returns (bool) {... */\n    tag_9:\n      callvalue\n      dup1\n      iszero\n      tag_58\n      jumpi\n      revert(0x00, 0x00)\n    tag_58:\n      pop\n      tag_59\n      tag_60\n      jump\t// in\n    tag_59:\n      mload(0x40)\n      tag_61\n      swap2\n      swap1\n      tag_62\n      jump\t// in\n    tag_61:\n      mload(0x40)\n      dup1\n      swap2\n      sub\n      swap1\n      return\n        /* \"RateUp.sol\":969:1051  mapping(address => mapping(address => mapping(string => bool))) public hasEndorsed */\n    tag_10:\n      callvalue\n      dup1\n      iszero\n      tag_63\n      jumpi\n      revert(0x00, 0x00)\n    tag_63:\n      pop\n      tag_64\n      0x04\n      dup1\n      calldatasize\n      sub\n      dup2\n      add\n      swap1\n      tag_65\n      swap2\n      swap1\n      tag_66\n      jump\t// in\n    tag_65:\n      tag_67\n      jump\t// in\n    tag_64:\n      mload(0x40)\n      tag_68\n      swap2\n      swap1\n      tag_62\n      jump\t// in\n    tag_68:\n      mload(0x40)\n      dup1\n      swap2\n      sub\n      swap1\n      return\n        /* \"RateUp.sol\":2852:3274  function addEndorsementOption(string memory option) public onlyOwner {... */\n    tag_11:\n      callvalue\n      dup1\n      iszero\n      tag_69\n      jumpi\n      revert(0x00, 0x00)\n    tag_69:\n      pop\n      tag_70\n      0x04\n      dup1\n      calldatasize\n      sub\n      dup2\n      add\n      swap1\n      tag_71\n      swap2\n      swap1\n      tag_72\n      jump\t// in\n    tag_71:\n      tag_73\n      jump\t// in\n    tag_70:\n      stop\n        /* \"@openzeppelin/contracts/access/Ownable.sol\":1824:1925  function renounceOwnership() public virtual onlyOwner {... */\n    tag_12:\n      callvalue\n      dup1\n      iszero\n      tag_74\n      jumpi\n      revert(0x00, 0x00)\n    tag_74:\n      pop\n      tag_75\n      tag_76\n      jump\t// in\n    tag_75:\n      stop\n        /* \"RateUp.sol\":4331:4390  function pause() public onlyOwner {... */\n    tag_13:\n      callvalue\n      dup1\n      iszero\n      tag_77\n      jumpi\n      revert(0x00, 0x00)\n    tag_77:\n      pop\n      tag_78\n      tag_79\n      jump\t// in\n    tag_78:\n      stop\n        /* \"@openzeppelin/contracts/access/Ownable.sol\":1201:1286  function owner() public view virtual returns (address) {... */\n    tag_14:\n      callvalue\n      dup1\n      iszero\n      tag_80\n      jumpi\n      revert(0x00, 0x00)\n    tag_80:\n      pop\n      tag_81\n      tag_82\n      jump\t// in\n    tag_81:\n      mload(0x40)\n      tag_83\n      swap2\n      swap1\n      tag_84\n      jump\t// in\n    tag_83:\n      mload(0x40)\n      dup1\n      swap2\n      sub\n      swap1\n      return\n        /* \"RateUp.sol\":1189:1297  function updateFee(uint256 _fee) public onlyOwner {... */\n    tag_15:\n      callvalue\n      dup1\n      iszero\n      tag_85\n      jumpi\n      revert(0x00, 0x00)\n    tag_85:\n      pop\n      tag_86\n      0x04\n      dup1\n      calldatasize\n      sub\n      dup2\n      add\n      swap1\n      tag_87\n      swap2\n      swap1\n      tag_88\n      jump\t// in\n    tag_87:\n      tag_89\n      jump\t// in\n    tag_86:\n      stop\n        /* \"RateUp.sol\":1303:1437  function getEndorsements(address target) public view returns (EndorsementStruct[] memory) {... */\n    tag_16:\n      callvalue\n      dup1\n      iszero\n      tag_90\n      jumpi\n      revert(0x00, 0x00)\n    tag_90:\n      pop\n      tag_91\n      0x04\n      dup1\n      calldatasize\n      sub\n      dup2\n      add\n      swap1\n      tag_92\n      swap2\n      swap1\n      tag_93\n      jump\t// in\n    tag_92:\n      tag_94\n      jump\t// in\n    tag_91:\n      mload(0x40)\n      tag_95\n      swap2\n      swap1\n      tag_96\n      jump\t// in\n    tag_95:\n      mload(0x40)\n      dup1\n      swap2\n      sub\n      swap1\n      return\n        /* \"RateUp.sol\":1104:1138  string[] public endorsementOptions */\n    tag_17:\n      callvalue\n      dup1\n      iszero\n      tag_97\n      jumpi\n      revert(0x00, 0x00)\n    tag_97:\n      pop\n      tag_98\n      0x04\n      dup1\n      calldatasize\n      sub\n      dup2\n      add\n      swap1\n      tag_99\n      swap2\n      swap1\n      tag_88\n      jump\t// in\n    tag_99:\n      tag_100\n      jump\t// in\n    tag_98:\n      mload(0x40)\n      tag_101\n      swap2\n      swap1\n      tag_102\n      jump\t// in\n    tag_101:\n      mload(0x40)\n      dup1\n      swap2\n      sub\n      swap1\n      return\n        /* \"RateUp.sol\":713:731  uint256 public fee */\n    tag_18:\n      callvalue\n      dup1\n      iszero\n      tag_103\n      jumpi\n      revert(0x00, 0x00)\n    tag_103:\n      pop\n      tag_104\n      tag_105\n      jump\t// in\n    tag_104:\n      mload(0x40)\n      tag_106\n      swap2\n      swap1\n      tag_29\n      jump\t// in\n    tag_106:\n      mload(0x40)\n      dup1\n      swap2\n      sub\n      swap1\n      return\n        /* \"@openzeppelin/contracts/access/Ownable.sol\":2074:2272  function transferOwnership(address newOwner) public virtual onlyOwner {... */\n    tag_19:\n      callvalue\n      dup1\n      iszero\n      tag_107\n      jumpi\n      revert(0x00, 0x00)\n    tag_107:\n      pop\n      tag_108\n      0x04\n      dup1\n      calldatasize\n      sub\n      dup2\n      add\n      swap1\n      tag_109\n      swap2\n      swap1\n      tag_93\n      jump\t// in\n    tag_109:\n      tag_110\n      jump\t// in\n    tag_108:\n      stop\n        /* \"RateUp.sol\":1443:2846  function giveEndorsement(... */\n    tag_20:\n      tag_111\n      0x04\n      dup1\n      calldatasize\n      sub\n      dup2\n      add\n      swap1\n      tag_112\n      swap2\n      swap1\n      tag_113\n      jump\t// in\n    tag_112:\n      tag_114\n      jump\t// in\n    tag_111:\n      stop\n        /* \"RateUp.sol\":615:655  string public constant VERSION = \"1.0.0\" */\n    tag_21:\n      callvalue\n      dup1\n      iszero\n      tag_115\n      jumpi\n      revert(0x00, 0x00)\n    tag_115:\n      pop\n      tag_116\n      tag_117\n      jump\t// in\n    tag_116:\n      mload(0x40)\n      tag_118\n      swap2\n      swap1\n      tag_102\n      jump\t// in\n    tag_118:\n      mload(0x40)\n      dup1\n      swap2\n      sub\n      swap1\n      return\n        /* \"RateUp.sol\":4228:4325  function getBalance() public view returns (uint256) {... */\n    tag_27:\n        /* \"RateUp.sol\":4271:4278  uint256 */\n      0x00\n        /* \"RateUp.sol\":4297:4318  address(this).balance */\n      selfbalance\n        /* \"RateUp.sol\":4290:4318  return address(this).balance */\n      swap1\n      pop\n        /* \"RateUp.sol\":4228:4325  function getBalance() public view returns (uint256) {... */\n      swap1\n      jump\t// out\n        /* \"RateUp.sol\":904:963  mapping(address => EndorsementStruct[]) public endorsements */\n    tag_34:\n      mstore(0x20, 0x03)\n      dup2\n      0x00\n      mstore\n      keccak256(0x00, 0x40)\n      dup2\n      dup2\n      sload\n      dup2\n      lt\n      tag_120\n      jumpi\n      0x00\n      dup1\n      revert\n    tag_120:\n      swap1\n      0x00\n      mstore\n      keccak256(0x00, 0x20)\n      swap1\n      0x05\n      mul\n      add\n      0x00\n      swap2\n      pop\n      swap2\n      pop\n      pop\n      dup1\n      0x00\n      add\n      0x00\n      swap1\n      sload\n      swap1\n      0x0100\n      exp\n      swap1\n      div\n      0xffffffffffffffffffffffffffffffffffffffff\n      and\n      swap1\n      dup1\n      0x01\n      add\n      dup1\n      sload\n      tag_122\n      swap1\n      tag_123\n      jump\t// in\n    tag_122:\n      dup1\n      0x1f\n      add\n      0x20\n      dup1\n      swap2\n      div\n      mul\n      0x20\n      add\n      mload(0x40)\n      swap1\n      dup2\n      add\n      0x40\n      mstore\n      dup1\n      swap3\n      swap2\n      swap1\n      dup2\n      dup2\n      mstore\n      0x20\n      add\n      dup3\n      dup1\n      sload\n      tag_124\n      swap1\n      tag_123\n      jump\t// in\n    tag_124:\n      dup1\n      iszero\n      tag_125\n      jumpi\n      dup1\n      0x1f\n      lt\n      tag_126\n      jumpi\n      0x0100\n      dup1\n      dup4\n      sload\n      div\n      mul\n      dup4\n      mstore\n      swap2\n      0x20\n      add\n      swap2\n      jump(tag_125)\n    tag_126:\n      dup3\n      add\n      swap2\n      swap1\n      0x00\n      mstore\n      keccak256(0x00, 0x20)\n      swap1\n    tag_127:\n      dup2\n      sload\n      dup2\n      mstore\n      swap1\n      0x01\n      add\n      swap1\n      0x20\n      add\n      dup1\n      dup4\n      gt\n      tag_127\n      jumpi\n      dup3\n      swap1\n      sub\n      0x1f\n      and\n      dup3\n      add\n      swap2\n    tag_125:\n      pop\n      pop\n      pop\n      pop\n      pop\n      swap1\n      dup1\n      0x02\n      add\n      dup1\n      sload\n      tag_128\n      swap1\n      tag_123\n      jump\t// in\n    tag_128:\n      dup1\n      0x1f\n      add\n      0x20\n      dup1\n      swap2\n      div\n      mul\n      0x20\n      add\n      mload(0x40)\n      swap1\n      dup2\n      add\n      0x40\n      mstore\n      dup1\n      swap3\n      swap2\n      swap1\n      dup2\n      dup2\n      mstore\n      0x20\n      add\n      dup3\n      dup1\n      sload\n      tag_129\n      swap1\n      tag_123\n      jump\t// in\n    tag_129:\n      dup1\n      iszero\n      tag_130\n      jumpi\n      dup1\n      0x1f\n      lt\n      tag_131\n      jumpi\n      0x0100\n      dup1\n      dup4\n      sload\n      div\n      mul\n      dup4\n      mstore\n      swap2\n      0x20\n      add\n      swap2\n      jump(tag_130)\n    tag_131:\n      dup3\n      add\n      swap2\n      swap1\n      0x00\n      mstore\n      keccak256(0x00, 0x20)\n      swap1\n    tag_132:\n      dup2\n      sload\n      dup2\n      mstore\n      swap1\n      0x01\n      add\n      swap1\n      0x20\n      add\n      dup1\n      dup4\n      gt\n      tag_132\n      jumpi\n      dup3\n      swap1\n      sub\n      0x1f\n      and\n      dup3\n      add\n      swap2\n    tag_130:\n      pop\n      pop\n      pop\n      pop\n      pop\n      swap1\n      dup1\n      0x03\n      add\n      0x00\n      swap1\n      sload\n      swap1\n      0x0100\n      exp\n      swap1\n      div\n      0xff\n      and\n      swap1\n      dup1\n      0x04\n      add\n      sload\n      swap1\n      pop\n      dup6\n      jump\t// out\n        /* \"RateUp.sol\":3280:3723  function updateEndorsementOption(uint256 index, string memory option) public onlyOwner {... */\n    tag_41:\n        /* \"@openzeppelin/contracts/access/Ownable.sol\":1094:1107  _checkOwner() */\n      tag_134\n        /* \"@openzeppelin/contracts/access/Ownable.sol\":1094:1105  _checkOwner */\n      tag_135\n        /* \"@openzeppelin/contracts/access/Ownable.sol\":1094:1107  _checkOwner() */\n      jump\t// in\n    tag_134:\n        /* \"RateUp.sol\":3408:3409  0 */\n      0x00\n        /* \"RateUp.sol\":3391:3397  option */\n      dup2\n        /* \"RateUp.sol\":3385:3405  bytes(option).length */\n      mload\n        /* \"RateUp.sol\":3385:3409  bytes(option).length > 0 */\n      gt\n        /* \"RateUp.sol\":3377:3436  require(bytes(option).length > 0, \"Option cannot be empty\") */\n      tag_137\n      jumpi\n      mload(0x40)\n      0x08c379a000000000000000000000000000000000000000000000000000000000\n      dup2\n      mstore\n      0x04\n      add\n      tag_138\n      swap1\n      tag_139\n      jump\t// in\n    tag_138:\n      mload(0x40)\n      dup1\n      swap2\n      sub\n      swap1\n      revert\n    tag_137:\n        /* \"RateUp.sol\":3451:3460  uint256 i */\n      0x00\n        /* \"RateUp.sol\":3463:3464  0 */\n      0x00\n        /* \"RateUp.sol\":3451:3464  uint256 i = 0 */\n      swap1\n      pop\n        /* \"RateUp.sol\":3446:3628  for (uint256 i = 0; i < endorsementOptions.length; i++) {... */\n    tag_140:\n        /* \"RateUp.sol\":3470:3488  endorsementOptions */\n      0x05\n        /* \"RateUp.sol\":3470:3495  endorsementOptions.length */\n      dup1\n      sload\n      swap1\n      pop\n        /* \"RateUp.sol\":3466:3467  i */\n      dup2\n        /* \"RateUp.sol\":3466:3495  i < endorsementOptions.length */\n      lt\n        /* \"RateUp.sol\":3446:3628  for (uint256 i = 0; i < endorsementOptions.length; i++) {... */\n      iszero\n      tag_141\n      jumpi\n        /* \"RateUp.sol\":3583:3589  option */\n      dup2\n        /* \"RateUp.sol\":3567:3591  keccak256(bytes(option)) */\n      dup1\n      mload\n      swap1\n      0x20\n      add\n      keccak256\n        /* \"RateUp.sol\":3540:3558  endorsementOptions */\n      0x05\n        /* \"RateUp.sol\":3559:3560  i */\n      dup3\n        /* \"RateUp.sol\":3540:3561  endorsementOptions[i] */\n      dup2\n      sload\n      dup2\n      lt\n      tag_143\n      jumpi\n      tag_144\n      tag_145\n      jump\t// in\n    tag_144:\n    tag_143:\n      swap1\n      0x00\n      mstore\n      keccak256(0x00, 0x20)\n      add\n        /* \"RateUp.sol\":3524:3563  keccak256(bytes(endorsementOptions[i])) */\n      mload(0x40)\n      tag_147\n      swap2\n      swap1\n      tag_148\n      jump\t// in\n    tag_147:\n      mload(0x40)\n      dup1\n      swap2\n      sub\n      swap1\n      keccak256\n        /* \"RateUp.sol\":3524:3591  keccak256(bytes(endorsementOptions[i])) != keccak256(bytes(option)) */\n      sub\n        /* \"RateUp.sol\":3516:3617  require(keccak256(bytes(endorsementOptions[i])) != keccak256(bytes(option)), \"Option already exists\") */\n      tag_149\n      jumpi\n      mload(0x40)\n      0x08c379a000000000000000000000000000000000000000000000000000000000\n      dup2\n      mstore\n      0x04\n      add\n      tag_150\n      swap1\n      tag_151\n      jump\t// in\n    tag_150:\n      mload(0x40)\n      dup1\n      swap2\n      sub\n      swap1\n      revert\n    tag_149:\n        /* \"RateUp.sol\":3497:3500  i++ */\n      dup1\n      dup1\n      0x01\n      add\n      swap2\n      pop\n      pop\n        /* \"RateUp.sol\":3446:3628  for (uint256 i = 0; i < endorsementOptions.length; i++) {... */\n      jump(tag_140)\n    tag_141:\n      pop\n        /* \"RateUp.sol\":3665:3671  option */\n      dup1\n        /* \"RateUp.sol\":3637:3655  endorsementOptions */\n      0x05\n        /* \"RateUp.sol\":3656:3661  index */\n      dup4\n        /* \"RateUp.sol\":3637:3662  endorsementOptions[index] */\n      dup2\n      sload\n      dup2\n      lt\n      tag_152\n      jumpi\n      tag_153\n      tag_145\n      jump\t// in\n    tag_153:\n    tag_152:\n      swap1\n      0x00\n      mstore\n      keccak256(0x00, 0x20)\n      add\n        /* \"RateUp.sol\":3637:3671  endorsementOptions[index] = option */\n      swap1\n      dup2\n      tag_155\n      swap2\n      swap1\n      tag_156\n      jump\t// in\n    tag_155:\n      pop\n        /* \"RateUp.sol\":3686:3716  EndorsementOptionAdded(option) */\n      0x8329f95e4544f4e52f94f1889c321525f3ab368f971c4ad352ba31b4ea8fed56\n        /* \"RateUp.sol\":3709:3715  option */\n      dup2\n        /* \"RateUp.sol\":3686:3716  EndorsementOptionAdded(option) */\n      mload(0x40)\n      tag_157\n      swap2\n      swap1\n      tag_102\n      jump\t// in\n    tag_157:\n      mload(0x40)\n      dup1\n      swap2\n      sub\n      swap1\n      log1\n        /* \"RateUp.sol\":3280:3723  function updateEndorsementOption(uint256 index, string memory option) public onlyOwner {... */\n      pop\n      pop\n      jump\t// out\n        /* \"RateUp.sol\":3848:4036  function withdraw() public onlyOwner {... */\n    tag_44:\n        /* \"@openzeppelin/contracts/access/Ownable.sol\":1094:1107  _checkOwner() */\n      tag_159\n        /* \"@openzeppelin/contracts/access/Ownable.sol\":1094:1105  _checkOwner */\n      tag_135\n        /* \"@openzeppelin/contracts/access/Ownable.sol\":1094:1107  _checkOwner() */\n      jump\t// in\n    tag_159:\n        /* \"RateUp.sol\":3895:3909  uint256 amount */\n      0x00\n        /* \"RateUp.sol\":3912:3933  address(this).balance */\n      selfbalance\n        /* \"RateUp.sol\":3895:3933  uint256 amount = address(this).balance */\n      swap1\n      pop\n        /* \"RateUp.sol\":3944:3956  bool success */\n      0x00\n        /* \"RateUp.sol\":3962:3969  owner() */\n      tag_161\n        /* \"RateUp.sol\":3962:3967  owner */\n      tag_82\n        /* \"RateUp.sol\":3962:3969  owner() */\n      jump\t// in\n    tag_161:\n        /* \"RateUp.sol\":3962:3974  owner().call */\n      0xffffffffffffffffffffffffffffffffffffffff\n      and\n        /* \"RateUp.sol\":3982:3988  amount */\n      dup3\n        /* \"RateUp.sol\":3962:3993  owner().call{value: amount}(\"\") */\n      mload(0x40)\n      tag_162\n      swap1\n      tag_163\n      jump\t// in\n    tag_162:\n      0x00\n      mload(0x40)\n      dup1\n      dup4\n      sub\n      dup2\n      dup6\n      dup8\n      gas\n      call\n      swap3\n      pop\n      pop\n      pop\n      returndatasize\n      dup1\n      0x00\n      dup2\n      eq\n      tag_166\n      jumpi\n      mload(0x40)\n      swap2\n      pop\n      and(add(returndatasize, 0x3f), not(0x1f))\n      dup3\n      add\n      0x40\n      mstore\n      returndatasize\n      dup3\n      mstore\n      returndatasize\n      0x00\n      0x20\n      dup5\n      add\n      returndatacopy\n      jump(tag_165)\n    tag_166:\n      0x60\n      swap2\n      pop\n    tag_165:\n      pop\n        /* \"RateUp.sol\":3943:3993  (bool success, ) = owner().call{value: amount}(\"\") */\n      pop\n      swap1\n      pop\n        /* \"RateUp.sol\":4011:4018  success */\n      dup1\n        /* \"RateUp.sol\":4003:4029  require(success, \"Failed\") */\n      tag_167\n      jumpi\n      mload(0x40)\n      0x08c379a000000000000000000000000000000000000000000000000000000000\n      dup2\n      mstore\n      0x04\n      add\n      tag_168\n      swap1\n      tag_169\n      jump\t// in\n    tag_168:\n      mload(0x40)\n      dup1\n      swap2\n      sub\n      swap1\n      revert\n    tag_167:\n        /* \"RateUp.sol\":3885:4036  {... */\n      pop\n      pop\n        /* \"RateUp.sol\":3848:4036  function withdraw() public onlyOwner {... */\n      jump\t// out\n        /* \"RateUp.sol\":4396:4459  function unpause() public onlyOwner {... */\n    tag_47:\n        /* \"@openzeppelin/contracts/access/Ownable.sol\":1094:1107  _checkOwner() */\n      tag_171\n        /* \"@openzeppelin/contracts/access/Ownable.sol\":1094:1105  _checkOwner */\n      tag_135\n        /* \"@openzeppelin/contracts/access/Ownable.sol\":1094:1107  _checkOwner() */\n      jump\t// in\n    tag_171:\n        /* \"RateUp.sol\":4442:4452  _unpause() */\n      tag_173\n        /* \"RateUp.sol\":4442:4450  _unpause */\n      tag_174\n        /* \"RateUp.sol\":4442:4452  _unpause() */\n      jump\t// in\n    tag_173:\n        /* \"RateUp.sol\":4396:4459  function unpause() public onlyOwner {... */\n      jump\t// out\n        /* \"RateUp.sol\":3729:3842  function getEndorsementOptions() public view returns (string[] memory) {... */\n    tag_50:\n        /* \"RateUp.sol\":3783:3798  string[] memory */\n      0x60\n        /* \"RateUp.sol\":3817:3835  endorsementOptions */\n      0x05\n        /* \"RateUp.sol\":3810:3835  return endorsementOptions */\n      dup1\n      sload\n      dup1\n      0x20\n      mul\n      0x20\n      add\n      mload(0x40)\n      swap1\n      dup2\n      add\n      0x40\n      mstore\n      dup1\n      swap3\n      swap2\n      swap1\n      dup2\n      dup2\n      mstore\n      0x20\n      add\n      0x00\n      swap1\n    tag_176:\n      dup3\n      dup3\n      lt\n      iszero\n      tag_177\n      jumpi\n      dup4\n      dup3\n      swap1\n      0x00\n      mstore\n      keccak256(0x00, 0x20)\n      add\n      dup1\n      sload\n      tag_179\n      swap1\n      tag_123\n      jump\t// in\n    tag_179:\n      dup1\n      0x1f\n      add\n      0x20\n      dup1\n      swap2\n      div\n      mul\n      0x20\n      add\n      mload(0x40)\n      swap1\n      dup2\n      add\n      0x40\n      mstore\n      dup1\n      swap3\n      swap2\n      swap1\n      dup2\n      dup2\n      mstore\n      0x20\n      add\n      dup3\n      dup1\n      sload\n      tag_180\n      swap1\n      tag_123\n      jump\t// in\n    tag_180:\n      dup1\n      iszero\n      tag_181\n      jumpi\n      dup1\n      0x1f\n      lt\n      tag_182\n      jumpi\n      0x0100\n      dup1\n      dup4\n      sload\n      div\n      mul\n      dup4\n      mstore\n      swap2\n      0x20\n      add\n      swap2\n      jump(tag_181)\n    tag_182:\n      dup3\n      add\n      swap2\n      swap1\n      0x00\n      mstore\n      keccak256(0x00, 0x20)\n      swap1\n    tag_183:\n      dup2\n      sload\n      dup2\n      mstore\n      swap1\n      0x01\n      add\n      swap1\n      0x20\n      add\n      dup1\n      dup4\n      gt\n      tag_183\n      jumpi\n      dup3\n      swap1\n      sub\n      0x1f\n      and\n      dup3\n      add\n      swap2\n    tag_181:\n      pop\n      pop\n      pop\n      pop\n      pop\n      dup2\n      mstore\n      0x20\n      add\n      swap1\n      0x01\n      add\n      swap1\n      jump(tag_176)\n    tag_177:\n      pop\n      pop\n      pop\n      pop\n      swap1\n      pop\n        /* \"RateUp.sol\":3729:3842  function getEndorsementOptions() public view returns (string[] memory) {... */\n      swap1\n      jump\t// out\n        /* \"RateUp.sol\":4042:4222  function transferBalance(address payable _to, uint256 _amount) public onlyOwner {... */\n    tag_57:\n        /* \"@openzeppelin/contracts/access/Ownable.sol\":1094:1107  _checkOwner() */\n      tag_185\n        /* \"@openzeppelin/contracts/access/Ownable.sol\":1094:1105  _checkOwner */\n      tag_135\n        /* \"@openzeppelin/contracts/access/Ownable.sol\":1094:1107  _checkOwner() */\n      jump\t// in\n    tag_185:\n        /* \"RateUp.sol\":4133:4145  bool success */\n      0x00\n        /* \"RateUp.sol\":4151:4154  _to */\n      dup3\n        /* \"RateUp.sol\":4151:4159  _to.call */\n      0xffffffffffffffffffffffffffffffffffffffff\n      and\n        /* \"RateUp.sol\":4167:4174  _amount */\n      dup3\n        /* \"RateUp.sol\":4151:4179  _to.call{value: _amount}(\"\") */\n      mload(0x40)\n      tag_187\n      swap1\n      tag_163\n      jump\t// in\n    tag_187:\n      0x00\n      mload(0x40)\n      dup1\n      dup4\n      sub\n      dup2\n      dup6\n      dup8\n      gas\n      call\n      swap3\n      pop\n      pop\n      pop\n      returndatasize\n      dup1\n      0x00\n      dup2\n      eq\n      tag_190\n      jumpi\n      mload(0x40)\n      swap2\n      pop\n      and(add(returndatasize, 0x3f), not(0x1f))\n      dup3\n      add\n      0x40\n      mstore\n      returndatasize\n      dup3\n      mstore\n      returndatasize\n      0x00\n      0x20\n      dup5\n      add\n      returndatacopy\n      jump(tag_189)\n    tag_190:\n      0x60\n      swap2\n      pop\n    tag_189:\n      pop\n        /* \"RateUp.sol\":4132:4179  (bool success, ) = _to.call{value: _amount}(\"\") */\n      pop\n      swap1\n      pop\n        /* \"RateUp.sol\":4197:4204  success */\n      dup1\n        /* \"RateUp.sol\":4189:4215  require(success, \"Failed\") */\n      tag_191\n      jumpi\n      mload(0x40)\n      0x08c379a000000000000000000000000000000000000000000000000000000000\n      dup2\n      mstore\n      0x04\n      add\n      tag_192\n      swap1\n      tag_169\n      jump\t// in\n    tag_192:\n      mload(0x40)\n      dup1\n      swap2\n      sub\n      swap1\n      revert\n    tag_191:\n        /* \"RateUp.sol\":4122:4222  {... */\n      pop\n        /* \"RateUp.sol\":4042:4222  function transferBalance(address payable _to, uint256 _amount) public onlyOwner {... */\n      pop\n      pop\n      jump\t// out\n        /* \"@openzeppelin/contracts/utils/Pausable.sol\":1726:1810  function paused() public view virtual returns (bool) {... */\n    tag_60:\n        /* \"@openzeppelin/contracts/utils/Pausable.sol\":1773:1777  bool */\n      0x00\n        /* \"@openzeppelin/contracts/utils/Pausable.sol\":1796:1803  _paused */\n      0x00\n      0x14\n      swap1\n      sload\n      swap1\n      0x0100\n      exp\n      swap1\n      div\n      0xff\n      and\n        /* \"@openzeppelin/contracts/utils/Pausable.sol\":1789:1803  return _paused */\n      swap1\n      pop\n        /* \"@openzeppelin/contracts/utils/Pausable.sol\":1726:1810  function paused() public view virtual returns (bool) {... */\n      swap1\n      jump\t// out\n        /* \"RateUp.sol\":969:1051  mapping(address => mapping(address => mapping(string => bool))) public hasEndorsed */\n    tag_67:\n      mstore(0x20, 0x04)\n      dup3\n      0x00\n      mstore\n      mstore(0x20, keccak256(0x00, 0x40))\n      dup2\n      0x00\n      mstore\n      keccak256(0x00, 0x40)\n      dup2\n      dup1\n      mload\n      0x20\n      dup2\n      add\n      dup3\n      add\n      dup1\n      mload\n      dup5\n      dup3\n      mstore\n      0x20\n      dup4\n      add\n      0x20\n      dup6\n      add\n      keccak256\n      dup2\n      dup4\n      mstore\n      dup1\n      swap6\n      pop\n      pop\n      pop\n      pop\n      pop\n      pop\n      0x00\n      swap3\n      pop\n      swap3\n      pop\n      pop\n      swap1\n      sload\n      swap1\n      0x0100\n      exp\n      swap1\n      div\n      0xff\n      and\n      dup2\n      jump\t// out\n        /* \"RateUp.sol\":2852:3274  function addEndorsementOption(string memory option) public onlyOwner {... */\n    tag_73:\n        /* \"@openzeppelin/contracts/access/Ownable.sol\":1094:1107  _checkOwner() */\n      tag_195\n        /* \"@openzeppelin/contracts/access/Ownable.sol\":1094:1105  _checkOwner */\n      tag_135\n        /* \"@openzeppelin/contracts/access/Ownable.sol\":1094:1107  _checkOwner() */\n      jump\t// in\n    tag_195:\n        /* \"RateUp.sol\":2962:2963  0 */\n      0x00\n        /* \"RateUp.sol\":2945:2951  option */\n      dup2\n        /* \"RateUp.sol\":2939:2959  bytes(option).length */\n      mload\n        /* \"RateUp.sol\":2939:2963  bytes(option).length > 0 */\n      gt\n        /* \"RateUp.sol\":2931:2990  require(bytes(option).length > 0, \"Option cannot be empty\") */\n      tag_197\n      jumpi\n      mload(0x40)\n      0x08c379a000000000000000000000000000000000000000000000000000000000\n      dup2\n      mstore\n      0x04\n      add\n      tag_198\n      swap1\n      tag_139\n      jump\t// in\n    tag_198:\n      mload(0x40)\n      dup1\n      swap2\n      sub\n      swap1\n      revert\n    tag_197:\n        /* \"RateUp.sol\":3005:3014  uint256 i */\n      0x00\n        /* \"RateUp.sol\":3017:3018  0 */\n      0x00\n        /* \"RateUp.sol\":3005:3018  uint256 i = 0 */\n      swap1\n      pop\n        /* \"RateUp.sol\":3000:3182  for (uint256 i = 0; i < endorsementOptions.length; i++) {... */\n    tag_199:\n        /* \"RateUp.sol\":3024:3042  endorsementOptions */\n      0x05\n        /* \"RateUp.sol\":3024:3049  endorsementOptions.length */\n      dup1\n      sload\n      swap1\n      pop\n        /* \"RateUp.sol\":3020:3021  i */\n      dup2\n        /* \"RateUp.sol\":3020:3049  i < endorsementOptions.length */\n      lt\n        /* \"RateUp.sol\":3000:3182  for (uint256 i = 0; i < endorsementOptions.length; i++) {... */\n      iszero\n      tag_200\n      jumpi\n        /* \"RateUp.sol\":3137:3143  option */\n      dup2\n        /* \"RateUp.sol\":3121:3145  keccak256(bytes(option)) */\n      dup1\n      mload\n      swap1\n      0x20\n      add\n      keccak256\n        /* \"RateUp.sol\":3094:3112  endorsementOptions */\n      0x05\n        /* \"RateUp.sol\":3113:3114  i */\n      dup3\n        /* \"RateUp.sol\":3094:3115  endorsementOptions[i] */\n      dup2\n      sload\n      dup2\n      lt\n      tag_202\n      jumpi\n      tag_203\n      tag_145\n      jump\t// in\n    tag_203:\n    tag_202:\n      swap1\n      0x00\n      mstore\n      keccak256(0x00, 0x20)\n      add\n        /* \"RateUp.sol\":3078:3117  keccak256(bytes(endorsementOptions[i])) */\n      mload(0x40)\n      tag_205\n      swap2\n      swap1\n      tag_148\n      jump\t// in\n    tag_205:\n      mload(0x40)\n      dup1\n      swap2\n      sub\n      swap1\n      keccak256\n        /* \"RateUp.sol\":3078:3145  keccak256(bytes(endorsementOptions[i])) != keccak256(bytes(option)) */\n      sub\n        /* \"RateUp.sol\":3070:3171  require(keccak256(bytes(endorsementOptions[i])) != keccak256(bytes(option)), \"Option already exists\") */\n      tag_206\n      jumpi\n      mload(0x40)\n      0x08c379a000000000000000000000000000000000000000000000000000000000\n      dup2\n      mstore\n      0x04\n      add\n      tag_207\n      swap1\n      tag_151\n      jump\t// in\n    tag_207:\n      mload(0x40)\n      dup1\n      swap2\n      sub\n      swap1\n      revert\n    tag_206:\n        /* \"RateUp.sol\":3051:3054  i++ */\n      dup1\n      dup1\n      0x01\n      add\n      swap2\n      pop\n      pop\n        /* \"RateUp.sol\":3000:3182  for (uint256 i = 0; i < endorsementOptions.length; i++) {... */\n      jump(tag_199)\n    tag_200:\n      pop\n        /* \"RateUp.sol\":3191:3209  endorsementOptions */\n      0x05\n        /* \"RateUp.sol\":3215:3221  option */\n      dup2\n        /* \"RateUp.sol\":3191:3222  endorsementOptions.push(option) */\n      swap1\n      dup1\n      0x01\n      dup2\n      sload\n      add\n      dup1\n      dup3\n      sstore\n      dup1\n      swap2\n      pop\n      pop\n      0x01\n      swap1\n      sub\n      swap1\n      0x00\n      mstore\n      keccak256(0x00, 0x20)\n      add\n      0x00\n      swap1\n      swap2\n      swap1\n      swap2\n      swap1\n      swap2\n      pop\n      swap1\n      dup2\n      tag_209\n      swap2\n      swap1\n      tag_156\n      jump\t// in\n    tag_209:\n      pop\n        /* \"RateUp.sol\":3237:3267  EndorsementOptionAdded(option) */\n      0x8329f95e4544f4e52f94f1889c321525f3ab368f971c4ad352ba31b4ea8fed56\n        /* \"RateUp.sol\":3260:3266  option */\n      dup2\n        /* \"RateUp.sol\":3237:3267  EndorsementOptionAdded(option) */\n      mload(0x40)\n      tag_210\n      swap2\n      swap1\n      tag_102\n      jump\t// in\n    tag_210:\n      mload(0x40)\n      dup1\n      swap2\n      sub\n      swap1\n      log1\n        /* \"RateUp.sol\":2852:3274  function addEndorsementOption(string memory option) public onlyOwner {... */\n      pop\n      jump\t// out\n        /* \"@openzeppelin/contracts/access/Ownable.sol\":1824:1925  function renounceOwnership() public virtual onlyOwner {... */\n    tag_76:\n        /* \"@openzeppelin/contracts/access/Ownable.sol\":1094:1107  _checkOwner() */\n      tag_212\n        /* \"@openzeppelin/contracts/access/Ownable.sol\":1094:1105  _checkOwner */\n      tag_135\n        /* \"@openzeppelin/contracts/access/Ownable.sol\":1094:1107  _checkOwner() */\n      jump\t// in\n    tag_212:\n        /* \"@openzeppelin/contracts/access/Ownable.sol\":1888:1918  _transferOwnership(address(0)) */\n      tag_214\n        /* \"@openzeppelin/contracts/access/Ownable.sol\":1915:1916  0 */\n      0x00\n        /* \"@openzeppelin/contracts/access/Ownable.sol\":1888:1906  _transferOwnership */\n      tag_215\n        /* \"@openzeppelin/contracts/access/Ownable.sol\":1888:1918  _transferOwnership(address(0)) */\n      jump\t// in\n    tag_214:\n        /* \"@openzeppelin/contracts/access/Ownable.sol\":1824:1925  function renounceOwnership() public virtual onlyOwner {... */\n      jump\t// out\n        /* \"RateUp.sol\":4331:4390  function pause() public onlyOwner {... */\n    tag_79:\n        /* \"@openzeppelin/contracts/access/Ownable.sol\":1094:1107  _checkOwner() */\n      tag_217\n        /* \"@openzeppelin/contracts/access/Ownable.sol\":1094:1105  _checkOwner */\n      tag_135\n        /* \"@openzeppelin/contracts/access/Ownable.sol\":1094:1107  _checkOwner() */\n      jump\t// in\n    tag_217:\n        /* \"RateUp.sol\":4375:4383  _pause() */\n      tag_219\n        /* \"RateUp.sol\":4375:4381  _pause */\n      tag_220\n        /* \"RateUp.sol\":4375:4383  _pause() */\n      jump\t// in\n    tag_219:\n        /* \"RateUp.sol\":4331:4390  function pause() public onlyOwner {... */\n      jump\t// out\n        /* \"@openzeppelin/contracts/access/Ownable.sol\":1201:1286  function owner() public view virtual returns (address) {... */\n    tag_82:\n        /* \"@openzeppelin/contracts/access/Ownable.sol\":1247:1254  address */\n      0x00\n        /* \"@openzeppelin/contracts/access/Ownable.sol\":1273:1279  _owner */\n      0x00\n      0x00\n      swap1\n      sload\n      swap1\n      0x0100\n      exp\n      swap1\n      div\n      0xffffffffffffffffffffffffffffffffffffffff\n      and\n        /* \"@openzeppelin/contracts/access/Ownable.sol\":1266:1279  return _owner */\n      swap1\n      pop\n        /* \"@openzeppelin/contracts/access/Ownable.sol\":1201:1286  function owner() public view virtual returns (address) {... */\n      swap1\n      jump\t// out\n        /* \"RateUp.sol\":1189:1297  function updateFee(uint256 _fee) public onlyOwner {... */\n    tag_89:\n        /* \"@openzeppelin/contracts/access/Ownable.sol\":1094:1107  _checkOwner() */\n      tag_223\n        /* \"@openzeppelin/contracts/access/Ownable.sol\":1094:1105  _checkOwner */\n      tag_135\n        /* \"@openzeppelin/contracts/access/Ownable.sol\":1094:1107  _checkOwner() */\n      jump\t// in\n    tag_223:\n        /* \"RateUp.sol\":1255:1259  _fee */\n      dup1\n        /* \"RateUp.sol\":1249:1252  fee */\n      0x02\n        /* \"RateUp.sol\":1249:1259  fee = _fee */\n      dup2\n      swap1\n      sstore\n      pop\n        /* \"RateUp.sol\":1274:1290  FeeUpdated(_fee) */\n      0x8c4d35e54a3f2ef1134138fd8ea3daee6a3c89e10d2665996babdf70261e2c76\n        /* \"RateUp.sol\":1285:1289  _fee */\n      dup2\n        /* \"RateUp.sol\":1274:1290  FeeUpdated(_fee) */\n      mload(0x40)\n      tag_225\n      swap2\n      swap1\n      tag_29\n      jump\t// in\n    tag_225:\n      mload(0x40)\n      dup1\n      swap2\n      sub\n      swap1\n      log1\n        /* \"RateUp.sol\":1189:1297  function updateFee(uint256 _fee) public onlyOwner {... */\n      pop\n      jump\t// out\n        /* \"RateUp.sol\":1303:1437  function getEndorsements(address target) public view returns (EndorsementStruct[] memory) {... */\n    tag_94:\n        /* \"RateUp.sol\":1365:1391  EndorsementStruct[] memory */\n      0x60\n        /* \"RateUp.sol\":1410:1422  endorsements */\n      0x03\n        /* \"RateUp.sol\":1410:1430  endorsements[target] */\n      0x00\n        /* \"RateUp.sol\":1423:1429  target */\n      dup4\n        /* \"RateUp.sol\":1410:1430  endorsements[target] */\n      0xffffffffffffffffffffffffffffffffffffffff\n      and\n      0xffffffffffffffffffffffffffffffffffffffff\n      and\n      dup2\n      mstore\n      0x20\n      add\n      swap1\n      dup2\n      mstore\n      0x20\n      add\n      0x00\n      keccak256\n        /* \"RateUp.sol\":1403:1430  return endorsements[target] */\n      dup1\n      sload\n      dup1\n      0x20\n      mul\n      0x20\n      add\n      mload(0x40)\n      swap1\n      dup2\n      add\n      0x40\n      mstore\n      dup1\n      swap3\n      swap2\n      swap1\n      dup2\n      dup2\n      mstore\n      0x20\n      add\n      0x00\n      swap1\n    tag_227:\n      dup3\n      dup3\n      lt\n      iszero\n      tag_228\n      jumpi\n      dup4\n      dup3\n      swap1\n      0x00\n      mstore\n      keccak256(0x00, 0x20)\n      swap1\n      0x05\n      mul\n      add\n      mload(0x40)\n      dup1\n      0xa0\n      add\n      0x40\n      mstore\n      swap1\n      dup2\n      0x00\n      dup3\n      add\n      0x00\n      swap1\n      sload\n      swap1\n      0x0100\n      exp\n      swap1\n      div\n      0xffffffffffffffffffffffffffffffffffffffff\n      and\n      0xffffffffffffffffffffffffffffffffffffffff\n      and\n      0xffffffffffffffffffffffffffffffffffffffff\n      and\n      dup2\n      mstore\n      0x20\n      add\n      0x01\n      dup3\n      add\n      dup1\n      sload\n      tag_230\n      swap1\n      tag_123\n      jump\t// in\n    tag_230:\n      dup1\n      0x1f\n      add\n      0x20\n      dup1\n      swap2\n      div\n      mul\n      0x20\n      add\n      mload(0x40)\n      swap1\n      dup2\n      add\n      0x40\n      mstore\n      dup1\n      swap3\n      swap2\n      swap1\n      dup2\n      dup2\n      mstore\n      0x20\n      add\n      dup3\n      dup1\n      sload\n      tag_231\n      swap1\n      tag_123\n      jump\t// in\n    tag_231:\n      dup1\n      iszero\n      tag_232\n      jumpi\n      dup1\n      0x1f\n      lt\n      tag_233\n      jumpi\n      0x0100\n      dup1\n      dup4\n      sload\n      div\n      mul\n      dup4\n      mstore\n      swap2\n      0x20\n      add\n      swap2\n      jump(tag_232)\n    tag_233:\n      dup3\n      add\n      swap2\n      swap1\n      0x00\n      mstore\n      keccak256(0x00, 0x20)\n      swap1\n    tag_234:\n      dup2\n      sload\n      dup2\n      mstore\n      swap1\n      0x01\n      add\n      swap1\n      0x20\n      add\n      dup1\n      dup4\n      gt\n      tag_234\n      jumpi\n      dup3\n      swap1\n      sub\n      0x1f\n      and\n      dup3\n      add\n      swap2\n    tag_232:\n      pop\n      pop\n      pop\n      pop\n      pop\n      dup2\n      mstore\n      0x20\n      add\n      0x02\n      dup3\n      add\n      dup1\n      sload\n      tag_235\n      swap1\n      tag_123\n      jump\t// in\n    tag_235:\n      dup1\n      0x1f\n      add\n      0x20\n      dup1\n      swap2\n      div\n      mul\n      0x20\n      add\n      mload(0x40)\n      swap1\n      dup2\n      add\n      0x40\n      mstore\n      dup1\n      swap3\n      swap2\n      swap1\n      dup2\n      dup2\n      mstore\n      0x20\n      add\n      dup3\n      dup1\n      sload\n      tag_236\n      swap1\n      tag_123\n      jump\t// in\n    tag_236:\n      dup1\n      iszero\n      tag_237\n      jumpi\n      dup1\n      0x1f\n      lt\n      tag_238\n      jumpi\n      0x0100\n      dup1\n      dup4\n      sload\n      div\n      mul\n      dup4\n      mstore\n      swap2\n      0x20\n      add\n      swap2\n      jump(tag_237)\n    tag_238:\n      dup3\n      add\n      swap2\n      swap1\n      0x00\n      mstore\n      keccak256(0x00, 0x20)\n      swap1\n    tag_239:\n      dup2\n      sload\n      dup2\n      mstore\n      swap1\n      0x01\n      add\n      swap1\n      0x20\n      add\n      dup1\n      dup4\n      gt\n      tag_239\n      jumpi\n      dup3\n      swap1\n      sub\n      0x1f\n      and\n      dup3\n      add\n      swap2\n    tag_237:\n      pop\n      pop\n      pop\n      pop\n      pop\n      dup2\n      mstore\n      0x20\n      add\n      0x03\n      dup3\n      add\n      0x00\n      swap1\n      sload\n      swap1\n      0x0100\n      exp\n      swap1\n      div\n      0xff\n      and\n      0xff\n      and\n      0xff\n      and\n      dup2\n      mstore\n      0x20\n      add\n      0x04\n      dup3\n      add\n      sload\n      dup2\n      mstore\n      pop\n      pop\n      dup2\n      mstore\n      0x20\n      add\n      swap1\n      0x01\n      add\n      swap1\n      jump(tag_227)\n    tag_228:\n      pop\n      pop\n      pop\n      pop\n      swap1\n      pop\n        /* \"RateUp.sol\":1303:1437  function getEndorsements(address target) public view returns (EndorsementStruct[] memory) {... */\n      swap2\n      swap1\n      pop\n      jump\t// out\n        /* \"RateUp.sol\":1104:1138  string[] public endorsementOptions */\n    tag_100:\n      0x05\n      dup2\n      dup2\n      sload\n      dup2\n      lt\n      tag_240\n      jumpi\n      0x00\n      dup1\n      revert\n    tag_240:\n      swap1\n      0x00\n      mstore\n      keccak256(0x00, 0x20)\n      add\n      0x00\n      swap2\n      pop\n      swap1\n      pop\n      dup1\n      sload\n      tag_242\n      swap1\n      tag_123\n      jump\t// in\n    tag_242:\n      dup1\n      0x1f\n      add\n      0x20\n      dup1\n      swap2\n      div\n      mul\n      0x20\n      add\n      mload(0x40)\n      swap1\n      dup2\n      add\n      0x40\n      mstore\n      dup1\n      swap3\n      swap2\n      swap1\n      dup2\n      dup2\n      mstore\n      0x20\n      add\n      dup3\n      dup1\n      sload\n      tag_243\n      swap1\n      tag_123\n      jump\t// in\n    tag_243:\n      dup1\n      iszero\n      tag_244\n      jumpi\n      dup1\n      0x1f\n      lt\n      tag_245\n      jumpi\n      0x0100\n      dup1\n      dup4\n      sload\n      div\n      mul\n      dup4\n      mstore\n      swap2\n      0x20\n      add\n      swap2\n      jump(tag_244)\n    tag_245:\n      dup3\n      add\n      swap2\n      swap1\n      0x00\n      mstore\n      keccak256(0x00, 0x20)\n      swap1\n    tag_246:\n      dup2\n      sload\n      dup2\n      mstore\n      swap1\n      0x01\n      add\n      swap1\n      0x20\n      add\n      dup1\n      dup4\n      gt\n      tag_246\n      jumpi\n      dup3\n      swap1\n      sub\n      0x1f\n      and\n      dup3\n      add\n      swap2\n    tag_244:\n      pop\n      pop\n      pop\n      pop\n      pop\n      dup2\n      jump\t// out\n        /* \"RateUp.sol\":713:731  uint256 public fee */\n    tag_105:\n      sload(0x02)\n      dup2\n      jump\t// out\n        /* \"@openzeppelin/contracts/access/Ownable.sol\":2074:2272  function transferOwnership(address newOwner) public virtual onlyOwner {... */\n    tag_110:\n        /* \"@openzeppelin/contracts/access/Ownable.sol\":1094:1107  _checkOwner() */\n      tag_248\n        /* \"@openzeppelin/contracts/access/Ownable.sol\":1094:1105  _checkOwner */\n      tag_135\n        /* \"@openzeppelin/contracts/access/Ownable.sol\":1094:1107  _checkOwner() */\n      jump\t// in\n    tag_248:\n        /* \"@openzeppelin/contracts/access/Ownable.sol\":2182:2183  0 */\n      0x00\n        /* \"@openzeppelin/contracts/access/Ownable.sol\":2162:2184  newOwner != address(0) */\n      0xffffffffffffffffffffffffffffffffffffffff\n      and\n        /* \"@openzeppelin/contracts/access/Ownable.sol\":2162:2170  newOwner */\n      dup2\n        /* \"@openzeppelin/contracts/access/Ownable.sol\":2162:2184  newOwner != address(0) */\n      0xffffffffffffffffffffffffffffffffffffffff\n      and\n      sub\n        /* \"@openzeppelin/contracts/access/Ownable.sol\":2154:2227  require(newOwner != address(0), \"Ownable: new owner is the zero address\") */\n      tag_250\n      jumpi\n      mload(0x40)\n      0x08c379a000000000000000000000000000000000000000000000000000000000\n      dup2\n      mstore\n      0x04\n      add\n      tag_251\n      swap1\n      tag_252\n      jump\t// in\n    tag_251:\n      mload(0x40)\n      dup1\n      swap2\n      sub\n      swap1\n      revert\n    tag_250:\n        /* \"@openzeppelin/contracts/access/Ownable.sol\":2237:2265  _transferOwnership(newOwner) */\n      tag_253\n        /* \"@openzeppelin/contracts/access/Ownable.sol\":2256:2264  newOwner */\n      dup2\n        /* \"@openzeppelin/contracts/access/Ownable.sol\":2237:2255  _transferOwnership */\n      tag_215\n        /* \"@openzeppelin/contracts/access/Ownable.sol\":2237:2265  _transferOwnership(newOwner) */\n      jump\t// in\n    tag_253:\n        /* \"@openzeppelin/contracts/access/Ownable.sol\":2074:2272  function transferOwnership(address newOwner) public virtual onlyOwner {... */\n      pop\n      jump\t// out\n        /* \"RateUp.sol\":1443:2846  function giveEndorsement(... */\n    tag_114:\n        /* \"RateUp.sol\":1631:1632  0 */\n      0x00\n        /* \"RateUp.sol\":1613:1633  target != address(0) */\n      0xffffffffffffffffffffffffffffffffffffffff\n      and\n        /* \"RateUp.sol\":1613:1619  target */\n      dup5\n        /* \"RateUp.sol\":1613:1633  target != address(0) */\n      0xffffffffffffffffffffffffffffffffffffffff\n      and\n      sub\n        /* \"RateUp.sol\":1605:1660  require(target != address(0), \"Invalid target address\") */\n      tag_255\n      jumpi\n      mload(0x40)\n      0x08c379a000000000000000000000000000000000000000000000000000000000\n      dup2\n      mstore\n      0x04\n      add\n      tag_256\n      swap1\n      tag_257\n      jump\t// in\n    tag_256:\n      mload(0x40)\n      dup1\n      swap2\n      sub\n      swap1\n      revert\n    tag_255:\n        /* \"RateUp.sol\":1688:1700  _msgSender() */\n      tag_258\n        /* \"RateUp.sol\":1688:1698  _msgSender */\n      tag_259\n        /* \"RateUp.sol\":1688:1700  _msgSender() */\n      jump\t// in\n    tag_258:\n        /* \"RateUp.sol\":1678:1700  target != _msgSender() */\n      0xffffffffffffffffffffffffffffffffffffffff\n      and\n        /* \"RateUp.sol\":1678:1684  target */\n      dup5\n        /* \"RateUp.sol\":1678:1700  target != _msgSender() */\n      0xffffffffffffffffffffffffffffffffffffffff\n      and\n      sub\n        /* \"RateUp.sol\":1670:1728  require(target != _msgSender(), \"Cannot endorse yourself\") */\n      tag_260\n      jumpi\n      mload(0x40)\n      0x08c379a000000000000000000000000000000000000000000000000000000000\n      dup2\n      mstore\n      0x04\n      add\n      tag_261\n      swap1\n      tag_262\n      jump\t// in\n    tag_261:\n      mload(0x40)\n      dup1\n      swap2\n      sub\n      swap1\n      revert\n    tag_260:\n        /* \"RateUp.sol\":1754:1755  0 */\n      0x00\n        /* \"RateUp.sol\":1746:1751  score */\n      dup2\n        /* \"RateUp.sol\":1746:1755  score > 0 */\n      0xff\n      and\n      gt\n        /* \"RateUp.sol\":1746:1769  score > 0 && score <= 5 */\n      dup1\n      iszero\n      tag_263\n      jumpi\n      pop\n        /* \"RateUp.sol\":1768:1769  5 */\n      0x05\n        /* \"RateUp.sol\":1759:1764  score */\n      dup2\n        /* \"RateUp.sol\":1759:1769  score <= 5 */\n      0xff\n      and\n      gt\n      iszero\n        /* \"RateUp.sol\":1746:1769  score > 0 && score <= 5 */\n    tag_263:\n        /* \"RateUp.sol\":1738:1803  require(score > 0 && score <= 5, \"Score must be between 1 and 5\") */\n      tag_264\n      jumpi\n      mload(0x40)\n      0x08c379a000000000000000000000000000000000000000000000000000000000\n      dup2\n      mstore\n      0x04\n      add\n      tag_265\n      swap1\n      tag_266\n      jump\t// in\n    tag_265:\n      mload(0x40)\n      dup1\n      swap2\n      sub\n      swap1\n      revert\n    tag_264:\n        /* \"RateUp.sol\":1814:1830  bool optionValid */\n      0x00\n        /* \"RateUp.sol\":1833:1838  false */\n      0x00\n        /* \"RateUp.sol\":1814:1838  bool optionValid = false */\n      swap1\n      pop\n        /* \"RateUp.sol\":1853:1862  uint256 i */\n      0x00\n        /* \"RateUp.sol\":1865:1866  0 */\n      0x00\n        /* \"RateUp.sol\":1853:1866  uint256 i = 0 */\n      swap1\n      pop\n        /* \"RateUp.sol\":1848:2075  for (uint256 i = 0; i < endorsementOptions.length; i++) {... */\n    tag_267:\n        /* \"RateUp.sol\":1872:1890  endorsementOptions */\n      0x05\n        /* \"RateUp.sol\":1872:1897  endorsementOptions.length */\n      dup1\n      sload\n      swap1\n      pop\n        /* \"RateUp.sol\":1868:1869  i */\n      dup2\n        /* \"RateUp.sol\":1868:1897  i < endorsementOptions.length */\n      lt\n        /* \"RateUp.sol\":1848:2075  for (uint256 i = 0; i < endorsementOptions.length; i++) {... */\n      iszero\n      tag_268\n      jumpi\n        /* \"RateUp.sol\":1981:1987  option */\n      dup5\n        /* \"RateUp.sol\":1965:1989  keccak256(bytes(option)) */\n      dup1\n      mload\n      swap1\n      0x20\n      add\n      keccak256\n        /* \"RateUp.sol\":1938:1956  endorsementOptions */\n      0x05\n        /* \"RateUp.sol\":1957:1958  i */\n      dup3\n        /* \"RateUp.sol\":1938:1959  endorsementOptions[i] */\n      dup2\n      sload\n      dup2\n      lt\n      tag_270\n      jumpi\n      tag_271\n      tag_145\n      jump\t// in\n    tag_271:\n    tag_270:\n      swap1\n      0x00\n      mstore\n      keccak256(0x00, 0x20)\n      add\n        /* \"RateUp.sol\":1922:1961  keccak256(bytes(endorsementOptions[i])) */\n      mload(0x40)\n      tag_273\n      swap2\n      swap1\n      tag_148\n      jump\t// in\n    tag_273:\n      mload(0x40)\n      dup1\n      swap2\n      sub\n      swap1\n      keccak256\n        /* \"RateUp.sol\":1922:1989  keccak256(bytes(endorsementOptions[i])) == keccak256(bytes(option)) */\n      sub\n        /* \"RateUp.sol\":1918:2065  if (keccak256(bytes(endorsementOptions[i])) == keccak256(bytes(option))) {... */\n      tag_274\n      jumpi\n        /* \"RateUp.sol\":2023:2027  true */\n      0x01\n        /* \"RateUp.sol\":2009:2027  optionValid = true */\n      swap2\n      pop\n        /* \"RateUp.sol\":2045:2050  break */\n      jump(tag_268)\n        /* \"RateUp.sol\":1918:2065  if (keccak256(bytes(endorsementOptions[i])) == keccak256(bytes(option))) {... */\n    tag_274:\n        /* \"RateUp.sol\":1899:1902  i++ */\n      dup1\n      dup1\n      0x01\n      add\n      swap2\n      pop\n      pop\n        /* \"RateUp.sol\":1848:2075  for (uint256 i = 0; i < endorsementOptions.length; i++) {... */\n      jump(tag_267)\n    tag_268:\n      pop\n        /* \"RateUp.sol\":2093:2104  optionValid */\n      dup1\n        /* \"RateUp.sol\":2085:2135  require(optionValid, \"Invalid endorsement option\") */\n      tag_275\n      jumpi\n      mload(0x40)\n      0x08c379a000000000000000000000000000000000000000000000000000000000\n      dup2\n      mstore\n      0x04\n      add\n      tag_276\n      swap1\n      tag_277\n      jump\t// in\n    tag_276:\n      mload(0x40)\n      dup1\n      swap2\n      sub\n      swap1\n      revert\n    tag_275:\n        /* \"RateUp.sol\":2154:2165  hasEndorsed */\n      0x04\n        /* \"RateUp.sol\":2154:2173  hasEndorsed[target] */\n      0x00\n        /* \"RateUp.sol\":2166:2172  target */\n      dup7\n        /* \"RateUp.sol\":2154:2173  hasEndorsed[target] */\n      0xffffffffffffffffffffffffffffffffffffffff\n      and\n      0xffffffffffffffffffffffffffffffffffffffff\n      and\n      dup2\n      mstore\n      0x20\n      add\n      swap1\n      dup2\n      mstore\n      0x20\n      add\n      0x00\n      keccak256\n        /* \"RateUp.sol\":2154:2187  hasEndorsed[target][_msgSender()] */\n      0x00\n        /* \"RateUp.sol\":2174:2186  _msgSender() */\n      tag_278\n        /* \"RateUp.sol\":2174:2184  _msgSender */\n      tag_259\n        /* \"RateUp.sol\":2174:2186  _msgSender() */\n      jump\t// in\n    tag_278:\n        /* \"RateUp.sol\":2154:2187  hasEndorsed[target][_msgSender()] */\n      0xffffffffffffffffffffffffffffffffffffffff\n      and\n      0xffffffffffffffffffffffffffffffffffffffff\n      and\n      dup2\n      mstore\n      0x20\n      add\n      swap1\n      dup2\n      mstore\n      0x20\n      add\n      0x00\n      keccak256\n        /* \"RateUp.sol\":2188:2194  option */\n      dup5\n        /* \"RateUp.sol\":2154:2195  hasEndorsed[target][_msgSender()][option] */\n      mload(0x40)\n      tag_279\n      swap2\n      swap1\n      tag_280\n      jump\t// in\n    tag_279:\n      swap1\n      dup2\n      mstore\n      0x20\n      add\n      mload(0x40)\n      dup1\n      swap2\n      sub\n      swap1\n      keccak256\n      0x00\n      swap1\n      sload\n      swap1\n      0x0100\n      exp\n      swap1\n      div\n      0xff\n      and\n        /* \"RateUp.sol\":2153:2195  !hasEndorsed[target][_msgSender()][option] */\n      iszero\n        /* \"RateUp.sol\":2145:2254  require(!hasEndorsed[target][_msgSender()][option], \"You have already endorsed this target for this option.\") */\n      tag_281\n      jumpi\n      mload(0x40)\n      0x08c379a000000000000000000000000000000000000000000000000000000000\n      dup2\n      mstore\n      0x04\n      add\n      tag_282\n      swap1\n      tag_283\n      jump\t// in\n    tag_282:\n      mload(0x40)\n      dup1\n      swap2\n      sub\n      swap1\n      revert\n    tag_281:\n        /* \"RateUp.sol\":2294:2295  0 */\n      0x00\n        /* \"RateUp.sol\":2288:2291  fee */\n      sload(0x02)\n        /* \"RateUp.sol\":2288:2295  fee > 0 */\n      gt\n        /* \"RateUp.sol\":2284:2492  if (fee > 0) {... */\n      iszero\n      tag_284\n      jumpi\n        /* \"RateUp.sol\":2327:2330  fee */\n      sload(0x02)\n        /* \"RateUp.sol\":2315:2324  msg.value */\n      callvalue\n        /* \"RateUp.sol\":2315:2330  msg.value < fee */\n      lt\n        /* \"RateUp.sol\":2311:2369  if (msg.value < fee) revert InsufficientBalance(msg.value) */\n      iszero\n      tag_285\n      jumpi\n        /* \"RateUp.sol\":2359:2368  msg.value */\n      callvalue\n        /* \"RateUp.sol\":2339:2369  InsufficientBalance(msg.value) */\n      mload(0x40)\n      0x9266535100000000000000000000000000000000000000000000000000000000\n      dup2\n      mstore\n      0x04\n      add\n      tag_286\n      swap2\n      swap1\n      tag_29\n      jump\t// in\n    tag_286:\n      mload(0x40)\n      dup1\n      swap2\n      sub\n      swap1\n      revert\n        /* \"RateUp.sol\":2311:2369  if (msg.value < fee) revert InsufficientBalance(msg.value) */\n    tag_285:\n        /* \"RateUp.sol\":2384:2396  bool success */\n      0x00\n        /* \"RateUp.sol\":2402:2409  owner() */\n      tag_287\n        /* \"RateUp.sol\":2402:2407  owner */\n      tag_82\n        /* \"RateUp.sol\":2402:2409  owner() */\n      jump\t// in\n    tag_287:\n        /* \"RateUp.sol\":2402:2414  owner().call */\n      0xffffffffffffffffffffffffffffffffffffffff\n      and\n        /* \"RateUp.sol\":2422:2431  msg.value */\n      callvalue\n        /* \"RateUp.sol\":2402:2436  owner().call{value: msg.value}(\"\") */\n      mload(0x40)\n      tag_288\n      swap1\n      tag_163\n      jump\t// in\n    tag_288:\n      0x00\n      mload(0x40)\n      dup1\n      dup4\n      sub\n      dup2\n      dup6\n      dup8\n      gas\n      call\n      swap3\n      pop\n      pop\n      pop\n      returndatasize\n      dup1\n      0x00\n      dup2\n      eq\n      tag_291\n      jumpi\n      mload(0x40)\n      swap2\n      pop\n      and(add(returndatasize, 0x3f), not(0x1f))\n      dup3\n      add\n      0x40\n      mstore\n      returndatasize\n      dup3\n      mstore\n      returndatasize\n      0x00\n      0x20\n      dup5\n      add\n      returndatacopy\n      jump(tag_290)\n    tag_291:\n      0x60\n      swap2\n      pop\n    tag_290:\n      pop\n        /* \"RateUp.sol\":2383:2436  (bool success, ) = owner().call{value: msg.value}(\"\") */\n      pop\n      swap1\n      pop\n        /* \"RateUp.sol\":2458:2465  success */\n      dup1\n        /* \"RateUp.sol\":2467:2480  failedMessage */\n      0x01\n        /* \"RateUp.sol\":2450:2481  require(success, failedMessage) */\n      swap1\n      tag_292\n      jumpi\n      mload(0x40)\n      0x08c379a000000000000000000000000000000000000000000000000000000000\n      dup2\n      mstore\n      0x04\n      add\n      tag_293\n      swap2\n      swap1\n      tag_294\n      jump\t// in\n    tag_293:\n      mload(0x40)\n      dup1\n      swap2\n      sub\n      swap1\n      revert\n    tag_292:\n      pop\n        /* \"RateUp.sol\":2297:2492  {... */\n      pop\n        /* \"RateUp.sol\":2284:2492  if (fee > 0) {... */\n    tag_284:\n        /* \"RateUp.sol\":2502:2541  EndorsementStruct memory newEndorsement */\n      0x00\n        /* \"RateUp.sol\":2544:2616  EndorsementStruct(_msgSender(), option, message, score, block.timestamp) */\n      mload(0x40)\n      dup1\n      0xa0\n      add\n      0x40\n      mstore\n      dup1\n        /* \"RateUp.sol\":2562:2574  _msgSender() */\n      tag_295\n        /* \"RateUp.sol\":2562:2572  _msgSender */\n      tag_259\n        /* \"RateUp.sol\":2562:2574  _msgSender() */\n      jump\t// in\n    tag_295:\n        /* \"RateUp.sol\":2544:2616  EndorsementStruct(_msgSender(), option, message, score, block.timestamp) */\n      0xffffffffffffffffffffffffffffffffffffffff\n      and\n      dup2\n      mstore\n      0x20\n      add\n        /* \"RateUp.sol\":2576:2582  option */\n      dup7\n        /* \"RateUp.sol\":2544:2616  EndorsementStruct(_msgSender(), option, message, score, block.timestamp) */\n      dup2\n      mstore\n      0x20\n      add\n        /* \"RateUp.sol\":2584:2591  message */\n      dup6\n        /* \"RateUp.sol\":2544:2616  EndorsementStruct(_msgSender(), option, message, score, block.timestamp) */\n      dup2\n      mstore\n      0x20\n      add\n        /* \"RateUp.sol\":2593:2598  score */\n      dup5\n        /* \"RateUp.sol\":2544:2616  EndorsementStruct(_msgSender(), option, message, score, block.timestamp) */\n      0xff\n      and\n      dup2\n      mstore\n      0x20\n      add\n        /* \"RateUp.sol\":2600:2615  block.timestamp */\n      timestamp\n        /* \"RateUp.sol\":2544:2616  EndorsementStruct(_msgSender(), option, message, score, block.timestamp) */\n      dup2\n      mstore\n      pop\n        /* \"RateUp.sol\":2502:2616  EndorsementStruct memory newEndorsement = EndorsementStruct(_msgSender(), option, message, score, block.timestamp) */\n      swap1\n      pop\n        /* \"RateUp.sol\":2627:2639  endorsements */\n      0x03\n        /* \"RateUp.sol\":2627:2647  endorsements[target] */\n      0x00\n        /* \"RateUp.sol\":2640:2646  target */\n      dup8\n        /* \"RateUp.sol\":2627:2647  endorsements[target] */\n      0xffffffffffffffffffffffffffffffffffffffff\n      and\n      0xffffffffffffffffffffffffffffffffffffffff\n      and\n      dup2\n      mstore\n      0x20\n      add\n      swap1\n      dup2\n      mstore\n      0x20\n      add\n      0x00\n      keccak256\n        /* \"RateUp.sol\":2653:2667  newEndorsement */\n      dup2\n        /* \"RateUp.sol\":2627:2668  endorsements[target].push(newEndorsement) */\n      swap1\n      dup1\n      0x01\n      dup2\n      sload\n      add\n      dup1\n      dup3\n      sstore\n      dup1\n      swap2\n      pop\n      pop\n      0x01\n      swap1\n      sub\n      swap1\n      0x00\n      mstore\n      keccak256(0x00, 0x20)\n      swap1\n      0x05\n      mul\n      add\n      0x00\n      swap1\n      swap2\n      swap1\n      swap2\n      swap1\n      swap2\n      pop\n      0x00\n      dup3\n      add\n      mload\n      dup2\n      0x00\n      add\n      exp(0x0100, 0x00)\n      dup2\n      sload\n      dup2\n      0xffffffffffffffffffffffffffffffffffffffff\n      mul\n      not\n      and\n      swap1\n      dup4\n      0xffffffffffffffffffffffffffffffffffffffff\n      and\n      mul\n      or\n      swap1\n      sstore\n      pop\n      0x20\n      dup3\n      add\n      mload\n      dup2\n      0x01\n      add\n      swap1\n      dup2\n      tag_297\n      swap2\n      swap1\n      tag_156\n      jump\t// in\n    tag_297:\n      pop\n      0x40\n      dup3\n      add\n      mload\n      dup2\n      0x02\n      add\n      swap1\n      dup2\n      tag_298\n      swap2\n      swap1\n      tag_156\n      jump\t// in\n    tag_298:\n      pop\n      0x60\n      dup3\n      add\n      mload\n      dup2\n      0x03\n      add\n      exp(0x0100, 0x00)\n      dup2\n      sload\n      dup2\n      0xff\n      mul\n      not\n      and\n      swap1\n      dup4\n      0xff\n      and\n      mul\n      or\n      swap1\n      sstore\n      pop\n      0x80\n      dup3\n      add\n      mload\n      dup2\n      0x04\n      add\n      sstore\n      pop\n      pop\n        /* \"RateUp.sol\":2722:2726  true */\n      0x01\n        /* \"RateUp.sol\":2678:2689  hasEndorsed */\n      0x04\n        /* \"RateUp.sol\":2678:2697  hasEndorsed[target] */\n      0x00\n        /* \"RateUp.sol\":2690:2696  target */\n      dup9\n        /* \"RateUp.sol\":2678:2697  hasEndorsed[target] */\n      0xffffffffffffffffffffffffffffffffffffffff\n      and\n      0xffffffffffffffffffffffffffffffffffffffff\n      and\n      dup2\n      mstore\n      0x20\n      add\n      swap1\n      dup2\n      mstore\n      0x20\n      add\n      0x00\n      keccak256\n        /* \"RateUp.sol\":2678:2711  hasEndorsed[target][_msgSender()] */\n      0x00\n        /* \"RateUp.sol\":2698:2710  _msgSender() */\n      tag_299\n        /* \"RateUp.sol\":2698:2708  _msgSender */\n      tag_259\n        /* \"RateUp.sol\":2698:2710  _msgSender() */\n      jump\t// in\n    tag_299:\n        /* \"RateUp.sol\":2678:2711  hasEndorsed[target][_msgSender()] */\n      0xffffffffffffffffffffffffffffffffffffffff\n      and\n      0xffffffffffffffffffffffffffffffffffffffff\n      and\n      dup2\n      mstore\n      0x20\n      add\n      swap1\n      dup2\n      mstore\n      0x20\n      add\n      0x00\n      keccak256\n        /* \"RateUp.sol\":2712:2718  option */\n      dup7\n        /* \"RateUp.sol\":2678:2719  hasEndorsed[target][_msgSender()][option] */\n      mload(0x40)\n      tag_300\n      swap2\n      swap1\n      tag_280\n      jump\t// in\n    tag_300:\n      swap1\n      dup2\n      mstore\n      0x20\n      add\n      mload(0x40)\n      dup1\n      swap2\n      sub\n      swap1\n      keccak256\n      0x00\n        /* \"RateUp.sol\":2678:2726  hasEndorsed[target][_msgSender()][option] = true */\n      0x0100\n      exp\n      dup2\n      sload\n      dup2\n      0xff\n      mul\n      not\n      and\n      swap1\n      dup4\n      iszero\n      iszero\n      mul\n      or\n      swap1\n      sstore\n      pop\n        /* \"RateUp.sol\":2801:2807  option */\n      dup5\n        /* \"RateUp.sol\":2762:2839  EndorsementGiven(target, _msgSender(), option, message, fee, block.timestamp) */\n      mload(0x40)\n      tag_301\n      swap2\n      swap1\n      tag_280\n      jump\t// in\n    tag_301:\n      mload(0x40)\n      dup1\n      swap2\n      sub\n      swap1\n      keccak256\n        /* \"RateUp.sol\":2787:2799  _msgSender() */\n      tag_302\n        /* \"RateUp.sol\":2787:2797  _msgSender */\n      tag_259\n        /* \"RateUp.sol\":2787:2799  _msgSender() */\n      jump\t// in\n    tag_302:\n        /* \"RateUp.sol\":2762:2839  EndorsementGiven(target, _msgSender(), option, message, fee, block.timestamp) */\n      0xffffffffffffffffffffffffffffffffffffffff\n      and\n        /* \"RateUp.sol\":2779:2785  target */\n      dup8\n        /* \"RateUp.sol\":2762:2839  EndorsementGiven(target, _msgSender(), option, message, fee, block.timestamp) */\n      0xffffffffffffffffffffffffffffffffffffffff\n      and\n      0xcee636f0c13aaa861e26f59625e55d15ab4af806aef7de8ee49c13390256a0e8\n        /* \"RateUp.sol\":2809:2816  message */\n      dup8\n        /* \"RateUp.sol\":2818:2821  fee */\n      sload(0x02)\n        /* \"RateUp.sol\":2823:2838  block.timestamp */\n      timestamp\n        /* \"RateUp.sol\":2762:2839  EndorsementGiven(target, _msgSender(), option, message, fee, block.timestamp) */\n      mload(0x40)\n      tag_303\n      swap4\n      swap3\n      swap2\n      swap1\n      tag_304\n      jump\t// in\n    tag_303:\n      mload(0x40)\n      dup1\n      swap2\n      sub\n      swap1\n      log4\n        /* \"RateUp.sol\":1595:2846  {... */\n      pop\n      pop\n        /* \"RateUp.sol\":1443:2846  function giveEndorsement(... */\n      pop\n      pop\n      pop\n      pop\n      jump\t// out\n        /* \"RateUp.sol\":615:655  string public constant VERSION = \"1.0.0\" */\n    tag_117:\n      mload(0x40)\n      dup1\n      0x40\n      add\n      0x40\n      mstore\n      dup1\n      0x05\n      dup2\n      mstore\n      0x20\n      add\n      0x312e302e30000000000000000000000000000000000000000000000000000000\n      dup2\n      mstore\n      pop\n      dup2\n      jump\t// out\n        /* \"@openzeppelin/contracts/access/Ownable.sol\":1359:1489  function _checkOwner() internal view virtual {... */\n    tag_135:\n        /* \"@openzeppelin/contracts/access/Ownable.sol\":1433:1445  _msgSender() */\n      tag_306\n        /* \"@openzeppelin/contracts/access/Ownable.sol\":1433:1443  _msgSender */\n      tag_259\n        /* \"@openzeppelin/contracts/access/Ownable.sol\":1433:1445  _msgSender() */\n      jump\t// in\n    tag_306:\n        /* \"@openzeppelin/contracts/access/Ownable.sol\":1422:1445  owner() == _msgSender() */\n      0xffffffffffffffffffffffffffffffffffffffff\n      and\n        /* \"@openzeppelin/contracts/access/Ownable.sol\":1422:1429  owner() */\n      tag_307\n        /* \"@openzeppelin/contracts/access/Ownable.sol\":1422:1427  owner */\n      tag_82\n        /* \"@openzeppelin/contracts/access/Ownable.sol\":1422:1429  owner() */\n      jump\t// in\n    tag_307:\n        /* \"@openzeppelin/contracts/access/Ownable.sol\":1422:1445  owner() == _msgSender() */\n      0xffffffffffffffffffffffffffffffffffffffff\n      and\n      eq\n        /* \"@openzeppelin/contracts/access/Ownable.sol\":1414:1482  require(owner() == _msgSender(), \"Ownable: caller is not the owner\") */\n      tag_308\n      jumpi\n      mload(0x40)\n      0x08c379a000000000000000000000000000000000000000000000000000000000\n      dup2\n      mstore\n      0x04\n      add\n      tag_309\n      swap1\n      tag_310\n      jump\t// in\n    tag_309:\n      mload(0x40)\n      dup1\n      swap2\n      sub\n      swap1\n      revert\n    tag_308:\n        /* \"@openzeppelin/contracts/access/Ownable.sol\":1359:1489  function _checkOwner() internal view virtual {... */\n      jump\t// out\n        /* \"@openzeppelin/contracts/utils/Pausable.sol\":2586:2703  function _unpause() internal virtual whenPaused {... */\n    tag_174:\n        /* \"@openzeppelin/contracts/utils/Pausable.sol\":1597:1613  _requirePaused() */\n      tag_312\n        /* \"@openzeppelin/contracts/utils/Pausable.sol\":1597:1611  _requirePaused */\n      tag_313\n        /* \"@openzeppelin/contracts/utils/Pausable.sol\":1597:1613  _requirePaused() */\n      jump\t// in\n    tag_312:\n        /* \"@openzeppelin/contracts/utils/Pausable.sol\":2654:2659  false */\n      0x00\n        /* \"@openzeppelin/contracts/utils/Pausable.sol\":2644:2651  _paused */\n      0x00\n      0x14\n        /* \"@openzeppelin/contracts/utils/Pausable.sol\":2644:2659  _paused = false */\n      0x0100\n      exp\n      dup2\n      sload\n      dup2\n      0xff\n      mul\n      not\n      and\n      swap1\n      dup4\n      iszero\n      iszero\n      mul\n      or\n      swap1\n      sstore\n      pop\n        /* \"@openzeppelin/contracts/utils/Pausable.sol\":2674:2696  Unpaused(_msgSender()) */\n      0x5db9ee0a495bf2e6ff9c91a7834c1ba4fdd244a5e8aa4e537bd38aeae4b073aa\n        /* \"@openzeppelin/contracts/utils/Pausable.sol\":2683:2695  _msgSender() */\n      tag_315\n        /* \"@openzeppelin/contracts/utils/Pausable.sol\":2683:2693  _msgSender */\n      tag_259\n        /* \"@openzeppelin/contracts/utils/Pausable.sol\":2683:2695  _msgSender() */\n      jump\t// in\n    tag_315:\n        /* \"@openzeppelin/contracts/utils/Pausable.sol\":2674:2696  Unpaused(_msgSender()) */\n      mload(0x40)\n      tag_316\n      swap2\n      swap1\n      tag_84\n      jump\t// in\n    tag_316:\n      mload(0x40)\n      dup1\n      swap2\n      sub\n      swap1\n      log1\n        /* \"@openzeppelin/contracts/utils/Pausable.sol\":2586:2703  function _unpause() internal virtual whenPaused {... */\n      jump\t// out\n        /* \"@openzeppelin/contracts/access/Ownable.sol\":2426:2613  function _transferOwnership(address newOwner) internal virtual {... */\n    tag_215:\n        /* \"@openzeppelin/contracts/access/Ownable.sol\":2499:2515  address oldOwner */\n      0x00\n        /* \"@openzeppelin/contracts/access/Ownable.sol\":2518:2524  _owner */\n      0x00\n      0x00\n      swap1\n      sload\n      swap1\n      0x0100\n      exp\n      swap1\n      div\n      0xffffffffffffffffffffffffffffffffffffffff\n      and\n        /* \"@openzeppelin/contracts/access/Ownable.sol\":2499:2524  address oldOwner = _owner */\n      swap1\n      pop\n        /* \"@openzeppelin/contracts/access/Ownable.sol\":2543:2551  newOwner */\n      dup2\n        /* \"@openzeppelin/contracts/access/Ownable.sol\":2534:2540  _owner */\n      0x00\n      0x00\n        /* \"@openzeppelin/contracts/access/Ownable.sol\":2534:2551  _owner = newOwner */\n      0x0100\n      exp\n      dup2\n      sload\n      dup2\n      0xffffffffffffffffffffffffffffffffffffffff\n      mul\n      not\n      and\n      swap1\n      dup4\n      0xffffffffffffffffffffffffffffffffffffffff\n      and\n      mul\n      or\n      swap1\n      sstore\n      pop\n        /* \"@openzeppelin/contracts/access/Ownable.sol\":2597:2605  newOwner */\n      dup2\n        /* \"@openzeppelin/contracts/access/Ownable.sol\":2566:2606  OwnershipTransferred(oldOwner, newOwner) */\n      0xffffffffffffffffffffffffffffffffffffffff\n      and\n        /* \"@openzeppelin/contracts/access/Ownable.sol\":2587:2595  oldOwner */\n      dup2\n        /* \"@openzeppelin/contracts/access/Ownable.sol\":2566:2606  OwnershipTransferred(oldOwner, newOwner) */\n      0xffffffffffffffffffffffffffffffffffffffff\n      and\n      0x8be0079c531659141344cd1fd0a4f28419497f9722a3daafe3b4186f6b6457e0\n      mload(0x40)\n      mload(0x40)\n      dup1\n      swap2\n      sub\n      swap1\n      log3\n        /* \"@openzeppelin/contracts/access/Ownable.sol\":2489:2613  {... */\n      pop\n        /* \"@openzeppelin/contracts/access/Ownable.sol\":2426:2613  function _transferOwnership(address newOwner) internal virtual {... */\n      pop\n      jump\t// out\n        /* \"@openzeppelin/contracts/utils/Pausable.sol\":2339:2454  function _pause() internal virtual whenNotPaused {... */\n    tag_220:\n        /* \"@openzeppelin/contracts/utils/Pausable.sol\":1350:1369  _requireNotPaused() */\n      tag_319\n        /* \"@openzeppelin/contracts/utils/Pausable.sol\":1350:1367  _requireNotPaused */\n      tag_320\n        /* \"@openzeppelin/contracts/utils/Pausable.sol\":1350:1369  _requireNotPaused() */\n      jump\t// in\n    tag_319:\n        /* \"@openzeppelin/contracts/utils/Pausable.sol\":2408:2412  true */\n      0x01\n        /* \"@openzeppelin/contracts/utils/Pausable.sol\":2398:2405  _paused */\n      0x00\n      0x14\n        /* \"@openzeppelin/contracts/utils/Pausable.sol\":2398:2412  _paused = true */\n      0x0100\n      exp\n      dup2\n      sload\n      dup2\n      0xff\n      mul\n      not\n      and\n      swap1\n      dup4\n      iszero\n      iszero\n      mul\n      or\n      swap1\n      sstore\n      pop\n        /* \"@openzeppelin/contracts/utils/Pausable.sol\":2427:2447  Paused(_msgSender()) */\n      0x62e78cea01bee320cd4e420270b5ea74000d11b0c9f74754ebdbfc544b05a258\n        /* \"@openzeppelin/contracts/utils/Pausable.sol\":2434:2446  _msgSender() */\n      tag_322\n        /* \"@openzeppelin/contracts/utils/Pausable.sol\":2434:2444  _msgSender */\n      tag_259\n        /* \"@openzeppelin/contracts/utils/Pausable.sol\":2434:2446  _msgSender() */\n      jump\t// in\n    tag_322:\n        /* \"@openzeppelin/contracts/utils/Pausable.sol\":2427:2447  Paused(_msgSender()) */\n      mload(0x40)\n      tag_323\n      swap2\n      swap1\n      tag_84\n      jump\t// in\n    tag_323:\n      mload(0x40)\n      dup1\n      swap2\n      sub\n      swap1\n      log1\n        /* \"@openzeppelin/contracts/utils/Pausable.sol\":2339:2454  function _pause() internal virtual whenNotPaused {... */\n      jump\t// out\n        /* \"@openzeppelin/contracts/utils/Context.sol\":655:751  function _msgSender() internal view virtual returns (address) {... */\n    tag_259:\n        /* \"@openzeppelin/contracts/utils/Context.sol\":708:715  address */\n      0x00\n        /* \"@openzeppelin/contracts/utils/Context.sol\":734:744  msg.sender */\n      caller\n        /* \"@openzeppelin/contracts/utils/Context.sol\":727:744  return msg.sender */\n      swap1\n      pop\n        /* \"@openzeppelin/contracts/utils/Context.sol\":655:751  function _msgSender() internal view virtual returns (address) {... */\n      swap1\n      jump\t// out\n        /* \"@openzeppelin/contracts/utils/Pausable.sol\":2078:2204  function _requirePaused() internal view virtual {... */\n    tag_313:\n        /* \"@openzeppelin/contracts/utils/Pausable.sol\":2141:2149  paused() */\n      tag_326\n        /* \"@openzeppelin/contracts/utils/Pausable.sol\":2141:2147  paused */\n      tag_60\n        /* \"@openzeppelin/contracts/utils/Pausable.sol\":2141:2149  paused() */\n      jump\t// in\n    tag_326:\n        /* \"@openzeppelin/contracts/utils/Pausable.sol\":2136:2198  if (!paused()) {... */\n      tag_327\n      jumpi\n        /* \"@openzeppelin/contracts/utils/Pausable.sol\":2172:2187  ExpectedPause() */\n      mload(0x40)\n      0x8dfc202b00000000000000000000000000000000000000000000000000000000\n      dup2\n      mstore\n      0x04\n      add\n      mload(0x40)\n      dup1\n      swap2\n      sub\n      swap1\n      revert\n        /* \"@openzeppelin/contracts/utils/Pausable.sol\":2136:2198  if (!paused()) {... */\n    tag_327:\n        /* \"@openzeppelin/contracts/utils/Pausable.sol\":2078:2204  function _requirePaused() internal view virtual {... */\n      jump\t// out\n        /* \"@openzeppelin/contracts/utils/Pausable.sol\":1878:2006  function _requireNotPaused() internal view virtual {... */\n    tag_320:\n        /* \"@openzeppelin/contracts/utils/Pausable.sol\":1943:1951  paused() */\n      tag_329\n        /* \"@openzeppelin/contracts/utils/Pausable.sol\":1943:1949  paused */\n      tag_60\n        /* \"@openzeppelin/contracts/utils/Pausable.sol\":1943:1951  paused() */\n      jump\t// in\n    tag_329:\n        /* \"@openzeppelin/contracts/utils/Pausable.sol\":1939:2000  if (paused()) {... */\n      iszero\n      tag_330\n      jumpi\n        /* \"@openzeppelin/contracts/utils/Pausable.sol\":1974:1989  EnforcedPause() */\n      mload(0x40)\n      0xd93c066500000000000000000000000000000000000000000000000000000000\n      dup2\n      mstore\n      0x04\n      add\n      mload(0x40)\n      dup1\n      swap2\n      sub\n      swap1\n      revert\n        /* \"@openzeppelin/contracts/utils/Pausable.sol\":1939:2000  if (paused()) {... */\n    tag_330:\n        /* \"@openzeppelin/contracts/utils/Pausable.sol\":1878:2006  function _requireNotPaused() internal view virtual {... */\n      jump\t// out\n        /* \"#utility.yul\":7:84   */\n    tag_331:\n        /* \"#utility.yul\":44:51   */\n      0x00\n        /* \"#utility.yul\":73:78   */\n      dup2\n        /* \"#utility.yul\":62:78   */\n      swap1\n      pop\n        /* \"#utility.yul\":7:84   */\n      swap2\n      swap1\n      pop\n      jump\t// out\n        /* \"#utility.yul\":90:208   */\n    tag_332:\n        /* \"#utility.yul\":177:201   */\n      tag_431\n        /* \"#utility.yul\":195:200   */\n      dup2\n        /* \"#utility.yul\":177:201   */\n      tag_331\n      jump\t// in\n    tag_431:\n        /* \"#utility.yul\":172:175   */\n      dup3\n        /* \"#utility.yul\":165:202   */\n      mstore\n        /* \"#utility.yul\":90:208   */\n      pop\n      pop\n      jump\t// out\n        /* \"#utility.yul\":214:436   */\n    tag_29:\n        /* \"#utility.yul\":307:311   */\n      0x00\n        /* \"#utility.yul\":345:347   */\n      0x20\n        /* \"#utility.yul\":334:343   */\n      dup3\n        /* \"#utility.yul\":330:348   */\n      add\n        /* \"#utility.yul\":322:348   */\n      swap1\n      pop\n        /* \"#utility.yul\":358:429   */\n      tag_433\n        /* \"#utility.yul\":426:427   */\n      0x00\n        /* \"#utility.yul\":415:424   */\n      dup4\n        /* \"#utility.yul\":411:428   */\n      add\n        /* \"#utility.yul\":402:408   */\n      dup5\n        /* \"#utility.yul\":358:429   */\n      tag_332\n      jump\t// in\n    tag_433:\n        /* \"#utility.yul\":214:436   */\n      swap3\n      swap2\n      pop\n      pop\n      jump\t// out\n        /* \"#utility.yul\":442:517   */\n    tag_333:\n        /* \"#utility.yul\":475:481   */\n      0x00\n        /* \"#utility.yul\":508:510   */\n      0x40\n        /* \"#utility.yul\":502:511   */\n      mload\n        /* \"#utility.yul\":492:511   */\n      swap1\n      pop\n        /* \"#utility.yul\":442:517   */\n      swap1\n      jump\t// out\n        /* \"#utility.yul\":523:640   */\n    tag_334:\n        /* \"#utility.yul\":632:633   */\n      0x00\n        /* \"#utility.yul\":629:630   */\n      0x00\n        /* \"#utility.yul\":622:634   */\n      revert\n        /* \"#utility.yul\":646:763   */\n    tag_335:\n        /* \"#utility.yul\":755:756   */\n      0x00\n        /* \"#utility.yul\":752:753   */\n      0x00\n        /* \"#utility.yul\":745:757   */\n      revert\n        /* \"#utility.yul\":769:895   */\n    tag_336:\n        /* \"#utility.yul\":806:813   */\n      0x00\n        /* \"#utility.yul\":846:888   */\n      0xffffffffffffffffffffffffffffffffffffffff\n        /* \"#utility.yul\":839:844   */\n      dup3\n        /* \"#utility.yul\":835:889   */\n      and\n        /* \"#utility.yul\":824:889   */\n      swap1\n      pop\n        /* \"#utility.yul\":769:895   */\n      swap2\n      swap1\n      pop\n      jump\t// out\n        /* \"#utility.yul\":901:997   */\n    tag_337:\n        /* \"#utility.yul\":938:945   */\n      0x00\n        /* \"#utility.yul\":967:991   */\n      tag_439\n        /* \"#utility.yul\":985:990   */\n      dup3\n        /* \"#utility.yul\":967:991   */\n      tag_336\n      jump\t// in\n    tag_439:\n        /* \"#utility.yul\":956:991   */\n      swap1\n      pop\n        /* \"#utility.yul\":901:997   */\n      swap2\n      swap1\n      pop\n      jump\t// out\n        /* \"#utility.yul\":1003:1125   */\n    tag_338:\n        /* \"#utility.yul\":1076:1100   */\n      tag_441\n        /* \"#utility.yul\":1094:1099   */\n      dup2\n        /* \"#utility.yul\":1076:1100   */\n      tag_337\n      jump\t// in\n    tag_441:\n        /* \"#utility.yul\":1069:1074   */\n      dup2\n        /* \"#utility.yul\":1066:1101   */\n      eq\n        /* \"#utility.yul\":1056:1119   */\n      tag_442\n      jumpi\n        /* \"#utility.yul\":1115:1116   */\n      0x00\n        /* \"#utility.yul\":1112:1113   */\n      0x00\n        /* \"#utility.yul\":1105:1117   */\n      revert\n        /* \"#utility.yul\":1056:1119   */\n    tag_442:\n        /* \"#utility.yul\":1003:1125   */\n      pop\n      jump\t// out\n        /* \"#utility.yul\":1131:1270   */\n    tag_339:\n        /* \"#utility.yul\":1177:1182   */\n      0x00\n        /* \"#utility.yul\":1215:1221   */\n      dup2\n        /* \"#utility.yul\":1202:1222   */\n      calldataload\n        /* \"#utility.yul\":1193:1222   */\n      swap1\n      pop\n        /* \"#utility.yul\":1231:1264   */\n      tag_444\n        /* \"#utility.yul\":1258:1263   */\n      dup2\n        /* \"#utility.yul\":1231:1264   */\n      tag_338\n      jump\t// in\n    tag_444:\n        /* \"#utility.yul\":1131:1270   */\n      swap3\n      swap2\n      pop\n      pop\n      jump\t// out\n        /* \"#utility.yul\":1276:1398   */\n    tag_340:\n        /* \"#utility.yul\":1349:1373   */\n      tag_446\n        /* \"#utility.yul\":1367:1372   */\n      dup2\n        /* \"#utility.yul\":1349:1373   */\n      tag_331\n      jump\t// in\n    tag_446:\n        /* \"#utility.yul\":1342:1347   */\n      dup2\n        /* \"#utility.yul\":1339:1374   */\n      eq\n        /* \"#utility.yul\":1329:1392   */\n      tag_447\n      jumpi\n        /* \"#utility.yul\":1388:1389   */\n      0x00\n        /* \"#utility.yul\":1385:1386   */\n      0x00\n        /* \"#utility.yul\":1378:1390   */\n      revert\n        /* \"#utility.yul\":1329:1392   */\n    tag_447:\n        /* \"#utility.yul\":1276:1398   */\n      pop\n      jump\t// out\n        /* \"#utility.yul\":1404:1543   */\n    tag_341:\n        /* \"#utility.yul\":1450:1455   */\n      0x00\n        /* \"#utility.yul\":1488:1494   */\n      dup2\n        /* \"#utility.yul\":1475:1495   */\n      calldataload\n        /* \"#utility.yul\":1466:1495   */\n      swap1\n      pop\n        /* \"#utility.yul\":1504:1537   */\n      tag_449\n        /* \"#utility.yul\":1531:1536   */\n      dup2\n        /* \"#utility.yul\":1504:1537   */\n      tag_340\n      jump\t// in\n    tag_449:\n        /* \"#utility.yul\":1404:1543   */\n      swap3\n      swap2\n      pop\n      pop\n      jump\t// out\n        /* \"#utility.yul\":1549:2023   */\n    tag_33:\n        /* \"#utility.yul\":1617:1623   */\n      0x00\n        /* \"#utility.yul\":1625:1631   */\n      0x00\n        /* \"#utility.yul\":1674:1676   */\n      0x40\n        /* \"#utility.yul\":1662:1671   */\n      dup4\n        /* \"#utility.yul\":1653:1660   */\n      dup6\n        /* \"#utility.yul\":1649:1672   */\n      sub\n        /* \"#utility.yul\":1645:1677   */\n      slt\n        /* \"#utility.yul\":1642:1761   */\n      iszero\n      tag_451\n      jumpi\n        /* \"#utility.yul\":1680:1759   */\n      tag_452\n      tag_334\n      jump\t// in\n    tag_452:\n        /* \"#utility.yul\":1642:1761   */\n    tag_451:\n        /* \"#utility.yul\":1800:1801   */\n      0x00\n        /* \"#utility.yul\":1825:1878   */\n      tag_453\n        /* \"#utility.yul\":1870:1877   */\n      dup6\n        /* \"#utility.yul\":1861:1867   */\n      dup3\n        /* \"#utility.yul\":1850:1859   */\n      dup7\n        /* \"#utility.yul\":1846:1868   */\n      add\n        /* \"#utility.yul\":1825:1878   */\n      tag_339\n      jump\t// in\n    tag_453:\n        /* \"#utility.yul\":1815:1878   */\n      swap3\n      pop\n        /* \"#utility.yul\":1771:1888   */\n      pop\n        /* \"#utility.yul\":1927:1929   */\n      0x20\n        /* \"#utility.yul\":1953:2006   */\n      tag_454\n        /* \"#utility.yul\":1998:2005   */\n      dup6\n        /* \"#utility.yul\":1989:1995   */\n      dup3\n        /* \"#utility.yul\":1978:1987   */\n      dup7\n        /* \"#utility.yul\":1974:1996   */\n      add\n        /* \"#utility.yul\":1953:2006   */\n      tag_341\n      jump\t// in\n    tag_454:\n        /* \"#utility.yul\":1943:2006   */\n      swap2\n      pop\n        /* \"#utility.yul\":1898:2016   */\n      pop\n        /* \"#utility.yul\":1549:2023   */\n      swap3\n      pop\n      swap3\n      swap1\n      pop\n      jump\t// out\n        /* \"#utility.yul\":2029:2147   */\n    tag_342:\n        /* \"#utility.yul\":2116:2140   */\n      tag_456\n        /* \"#utility.yul\":2134:2139   */\n      dup2\n        /* \"#utility.yul\":2116:2140   */\n      tag_337\n      jump\t// in\n    tag_456:\n        /* \"#utility.yul\":2111:2114   */\n      dup3\n        /* \"#utility.yul\":2104:2141   */\n      mstore\n        /* \"#utility.yul\":2029:2147   */\n      pop\n      pop\n      jump\t// out\n        /* \"#utility.yul\":2153:2252   */\n    tag_343:\n        /* \"#utility.yul\":2205:2211   */\n      0x00\n        /* \"#utility.yul\":2239:2244   */\n      dup2\n        /* \"#utility.yul\":2233:2245   */\n      mload\n        /* \"#utility.yul\":2223:2245   */\n      swap1\n      pop\n        /* \"#utility.yul\":2153:2252   */\n      swap2\n      swap1\n      pop\n      jump\t// out\n        /* \"#utility.yul\":2258:2427   */\n    tag_344:\n        /* \"#utility.yul\":2342:2353   */\n      0x00\n        /* \"#utility.yul\":2376:2382   */\n      dup3\n        /* \"#utility.yul\":2371:2374   */\n      dup3\n        /* \"#utility.yul\":2364:2383   */\n      mstore\n        /* \"#utility.yul\":2416:2420   */\n      0x20\n        /* \"#utility.yul\":2411:2414   */\n      dup3\n        /* \"#utility.yul\":2407:2421   */\n      add\n        /* \"#utility.yul\":2392:2421   */\n      swap1\n      pop\n        /* \"#utility.yul\":2258:2427   */\n      swap3\n      swap2\n      pop\n      pop\n      jump\t// out\n        /* \"#utility.yul\":2433:2572   */\n    tag_345:\n        /* \"#utility.yul\":2522:2528   */\n      dup3\n        /* \"#utility.yul\":2517:2520   */\n      dup2\n        /* \"#utility.yul\":2512:2515   */\n      dup4\n        /* \"#utility.yul\":2506:2529   */\n      mcopy\n        /* \"#utility.yul\":2563:2564   */\n      0x00\n        /* \"#utility.yul\":2554:2560   */\n      dup4\n        /* \"#utility.yul\":2549:2552   */\n      dup4\n        /* \"#utility.yul\":2545:2561   */\n      add\n        /* \"#utility.yul\":2538:2565   */\n      mstore\n        /* \"#utility.yul\":2433:2572   */\n      pop\n      pop\n      pop\n      jump\t// out\n        /* \"#utility.yul\":2578:2680   */\n    tag_346:\n        /* \"#utility.yul\":2619:2625   */\n      0x00\n        /* \"#utility.yul\":2670:2672   */\n      0x1f\n        /* \"#utility.yul\":2666:2673   */\n      not\n        /* \"#utility.yul\":2661:2663   */\n      0x1f\n        /* \"#utility.yul\":2654:2659   */\n      dup4\n        /* \"#utility.yul\":2650:2664   */\n      add\n        /* \"#utility.yul\":2646:2674   */\n      and\n        /* \"#utility.yul\":2636:2674   */\n      swap1\n      pop\n        /* \"#utility.yul\":2578:2680   */\n      swap2\n      swap1\n      pop\n      jump\t// out\n        /* \"#utility.yul\":2686:3063   */\n    tag_347:\n        /* \"#utility.yul\":2774:2777   */\n      0x00\n        /* \"#utility.yul\":2802:2841   */\n      tag_462\n        /* \"#utility.yul\":2835:2840   */\n      dup3\n        /* \"#utility.yul\":2802:2841   */\n      tag_343\n      jump\t// in\n    tag_462:\n        /* \"#utility.yul\":2857:2928   */\n      tag_463\n        /* \"#utility.yul\":2921:2927   */\n      dup2\n        /* \"#utility.yul\":2916:2919   */\n      dup6\n        /* \"#utility.yul\":2857:2928   */\n      tag_344\n      jump\t// in\n    tag_463:\n        /* \"#utility.yul\":2850:2928   */\n      swap4\n      pop\n        /* \"#utility.yul\":2937:3002   */\n      tag_464\n        /* \"#utility.yul\":2995:3001   */\n      dup2\n        /* \"#utility.yul\":2990:2993   */\n      dup6\n        /* \"#utility.yul\":2983:2987   */\n      0x20\n        /* \"#utility.yul\":2976:2981   */\n      dup7\n        /* \"#utility.yul\":2972:2988   */\n      add\n        /* \"#utility.yul\":2937:3002   */\n      tag_345\n      jump\t// in\n    tag_464:\n        /* \"#utility.yul\":3027:3056   */\n      tag_465\n        /* \"#utility.yul\":3049:3055   */\n      dup2\n        /* \"#utility.yul\":3027:3056   */\n      tag_346\n      jump\t// in\n    tag_465:\n        /* \"#utility.yul\":3022:3025   */\n      dup5\n        /* \"#utility.yul\":3018:3057   */\n      add\n        /* \"#utility.yul\":3011:3057   */\n      swap2\n      pop\n        /* \"#utility.yul\":2778:3063   */\n      pop\n        /* \"#utility.yul\":2686:3063   */\n      swap3\n      swap2\n      pop\n      pop\n      jump\t// out\n        /* \"#utility.yul\":3069:3155   */\n    tag_348:\n        /* \"#utility.yul\":3104:3111   */\n      0x00\n        /* \"#utility.yul\":3144:3148   */\n      0xff\n        /* \"#utility.yul\":3137:3142   */\n      dup3\n        /* \"#utility.yul\":3133:3149   */\n      and\n        /* \"#utility.yul\":3122:3149   */\n      swap1\n      pop\n        /* \"#utility.yul\":3069:3155   */\n      swap2\n      swap1\n      pop\n      jump\t// out\n        /* \"#utility.yul\":3161:3273   */\n    tag_349:\n        /* \"#utility.yul\":3244:3266   */\n      tag_468\n        /* \"#utility.yul\":3260:3265   */\n      dup2\n        /* \"#utility.yul\":3244:3266   */\n      tag_348\n      jump\t// in\n    tag_468:\n        /* \"#utility.yul\":3239:3242   */\n      dup3\n        /* \"#utility.yul\":3232:3267   */\n      mstore\n        /* \"#utility.yul\":3161:3273   */\n      pop\n      pop\n      jump\t// out\n        /* \"#utility.yul\":3279:4117   */\n    tag_36:\n        /* \"#utility.yul\":3520:3524   */\n      0x00\n        /* \"#utility.yul\":3558:3561   */\n      0xa0\n        /* \"#utility.yul\":3547:3556   */\n      dup3\n        /* \"#utility.yul\":3543:3562   */\n      add\n        /* \"#utility.yul\":3535:3562   */\n      swap1\n      pop\n        /* \"#utility.yul\":3572:3643   */\n      tag_470\n        /* \"#utility.yul\":3640:3641   */\n      0x00\n        /* \"#utility.yul\":3629:3638   */\n      dup4\n        /* \"#utility.yul\":3625:3642   */\n      add\n        /* \"#utility.yul\":3616:3622   */\n      dup9\n        /* \"#utility.yul\":3572:3643   */\n      tag_342\n      jump\t// in\n    tag_470:\n        /* \"#utility.yul\":3690:3699   */\n      dup2\n        /* \"#utility.yul\":3684:3688   */\n      dup2\n        /* \"#utility.yul\":3680:3700   */\n      sub\n        /* \"#utility.yul\":3675:3677   */\n      0x20\n        /* \"#utility.yul\":3664:3673   */\n      dup4\n        /* \"#utility.yul\":3660:3678   */\n      add\n        /* \"#utility.yul\":3653:3701   */\n      mstore\n        /* \"#utility.yul\":3718:3796   */\n      tag_471\n        /* \"#utility.yul\":3791:3795   */\n      dup2\n        /* \"#utility.yul\":3782:3788   */\n      dup8\n        /* \"#utility.yul\":3718:3796   */\n      tag_347\n      jump\t// in\n    tag_471:\n        /* \"#utility.yul\":3710:3796   */\n      swap1\n      pop\n        /* \"#utility.yul\":3843:3852   */\n      dup2\n        /* \"#utility.yul\":3837:3841   */\n      dup2\n        /* \"#utility.yul\":3833:3853   */\n      sub\n        /* \"#utility.yul\":3828:3830   */\n      0x40\n        /* \"#utility.yul\":3817:3826   */\n      dup4\n        /* \"#utility.yul\":3813:3831   */\n      add\n        /* \"#utility.yul\":3806:3854   */\n      mstore\n        /* \"#utility.yul\":3871:3949   */\n      tag_472\n        /* \"#utility.yul\":3944:3948   */\n      dup2\n        /* \"#utility.yul\":3935:3941   */\n      dup7\n        /* \"#utility.yul\":3871:3949   */\n      tag_347\n      jump\t// in\n    tag_472:\n        /* \"#utility.yul\":3863:3949   */\n      swap1\n      pop\n        /* \"#utility.yul\":3959:4027   */\n      tag_473\n        /* \"#utility.yul\":4023:4025   */\n      0x60\n        /* \"#utility.yul\":4012:4021   */\n      dup4\n        /* \"#utility.yul\":4008:4026   */\n      add\n        /* \"#utility.yul\":3999:4005   */\n      dup6\n        /* \"#utility.yul\":3959:4027   */\n      tag_349\n      jump\t// in\n    tag_473:\n        /* \"#utility.yul\":4037:4110   */\n      tag_474\n        /* \"#utility.yul\":4105:4108   */\n      0x80\n        /* \"#utility.yul\":4094:4103   */\n      dup4\n        /* \"#utility.yul\":4090:4109   */\n      add\n        /* \"#utility.yul\":4081:4087   */\n      dup5\n        /* \"#utility.yul\":4037:4110   */\n      tag_332\n      jump\t// in\n    tag_474:\n        /* \"#utility.yul\":3279:4117   */\n      swap7\n      swap6\n      pop\n      pop\n      pop\n      pop\n      pop\n      pop\n      jump\t// out\n        /* \"#utility.yul\":4123:4240   */\n    tag_350:\n        /* \"#utility.yul\":4232:4233   */\n      0x00\n        /* \"#utility.yul\":4229:4230   */\n      0x00\n        /* \"#utility.yul\":4222:4234   */\n      revert\n        /* \"#utility.yul\":4246:4363   */\n    tag_351:\n        /* \"#utility.yul\":4355:4356   */\n      0x00\n        /* \"#utility.yul\":4352:4353   */\n      0x00\n        /* \"#utility.yul\":4345:4357   */\n      revert\n        /* \"#utility.yul\":4369:4549   */\n    tag_352:\n        /* \"#utility.yul\":4417:4494   */\n      0x4e487b7100000000000000000000000000000000000000000000000000000000\n        /* \"#utility.yul\":4414:4415   */\n      0x00\n        /* \"#utility.yul\":4407:4495   */\n      mstore\n        /* \"#utility.yul\":4514:4518   */\n      0x41\n        /* \"#utility.yul\":4511:4512   */\n      0x04\n        /* \"#utility.yul\":4504:4519   */\n      mstore\n        /* \"#utility.yul\":4538:4542   */\n      0x24\n        /* \"#utility.yul\":4535:4536   */\n      0x00\n        /* \"#utility.yul\":4528:4543   */\n      revert\n        /* \"#utility.yul\":4555:4836   */\n    tag_353:\n        /* \"#utility.yul\":4638:4665   */\n      tag_479\n        /* \"#utility.yul\":4660:4664   */\n      dup3\n        /* \"#utility.yul\":4638:4665   */\n      tag_346\n      jump\t// in\n    tag_479:\n        /* \"#utility.yul\":4630:4636   */\n      dup2\n        /* \"#utility.yul\":4626:4666   */\n      add\n        /* \"#utility.yul\":4768:4774   */\n      dup2\n        /* \"#utility.yul\":4756:4766   */\n      dup2\n        /* \"#utility.yul\":4753:4775   */\n      lt\n        /* \"#utility.yul\":4732:4750   */\n      0xffffffffffffffff\n        /* \"#utility.yul\":4720:4730   */\n      dup3\n        /* \"#utility.yul\":4717:4751   */\n      gt\n        /* \"#utility.yul\":4714:4776   */\n      or\n        /* \"#utility.yul\":4711:4799   */\n      iszero\n      tag_480\n      jumpi\n        /* \"#utility.yul\":4779:4797   */\n      tag_481\n      tag_352\n      jump\t// in\n    tag_481:\n        /* \"#utility.yul\":4711:4799   */\n    tag_480:\n        /* \"#utility.yul\":4819:4829   */\n      dup1\n        /* \"#utility.yul\":4815:4817   */\n      0x40\n        /* \"#utility.yul\":4808:4830   */\n      mstore\n        /* \"#utility.yul\":4598:4836   */\n      pop\n        /* \"#utility.yul\":4555:4836   */\n      pop\n      pop\n      jump\t// out\n        /* \"#utility.yul\":4842:4971   */\n    tag_354:\n        /* \"#utility.yul\":4876:4882   */\n      0x00\n        /* \"#utility.yul\":4903:4923   */\n      tag_483\n      tag_333\n      jump\t// in\n    tag_483:\n        /* \"#utility.yul\":4893:4923   */\n      swap1\n      pop\n        /* \"#utility.yul\":4932:4965   */\n      tag_484\n        /* \"#utility.yul\":4960:4964   */\n      dup3\n        /* \"#utility.yul\":4952:4958   */\n      dup3\n        /* \"#utility.yul\":4932:4965   */\n      tag_353\n      jump\t// in\n    tag_484:\n        /* \"#utility.yul\":4842:4971   */\n      swap2\n      swap1\n      pop\n      jump\t// out\n        /* \"#utility.yul\":4977:5285   */\n    tag_355:\n        /* \"#utility.yul\":5039:5043   */\n      0x00\n        /* \"#utility.yul\":5129:5147   */\n      0xffffffffffffffff\n        /* \"#utility.yul\":5121:5127   */\n      dup3\n        /* \"#utility.yul\":5118:5148   */\n      gt\n        /* \"#utility.yul\":5115:5171   */\n      iszero\n      tag_486\n      jumpi\n        /* \"#utility.yul\":5151:5169   */\n      tag_487\n      tag_352\n      jump\t// in\n    tag_487:\n        /* \"#utility.yul\":5115:5171   */\n    tag_486:\n        /* \"#utility.yul\":5189:5218   */\n      tag_488\n        /* \"#utility.yul\":5211:5217   */\n      dup3\n        /* \"#utility.yul\":5189:5218   */\n      tag_346\n      jump\t// in\n    tag_488:\n        /* \"#utility.yul\":5181:5218   */\n      swap1\n      pop\n        /* \"#utility.yul\":5273:5277   */\n      0x20\n        /* \"#utility.yul\":5267:5271   */\n      dup2\n        /* \"#utility.yul\":5263:5278   */\n      add\n        /* \"#utility.yul\":5255:5278   */\n      swap1\n      pop\n        /* \"#utility.yul\":4977:5285   */\n      swap2\n      swap1\n      pop\n      jump\t// out\n        /* \"#utility.yul\":5291:5439   */\n    tag_356:\n        /* \"#utility.yul\":5389:5395   */\n      dup3\n        /* \"#utility.yul\":5384:5387   */\n      dup2\n        /* \"#utility.yul\":5379:5382   */\n      dup4\n        /* \"#utility.yul\":5366:5396   */\n      calldatacopy\n        /* \"#utility.yul\":5430:5431   */\n      0x00\n        /* \"#utility.yul\":5421:5427   */\n      dup4\n        /* \"#utility.yul\":5416:5419   */\n      dup4\n        /* \"#utility.yul\":5412:5428   */\n      add\n        /* \"#utility.yul\":5405:5432   */\n      mstore\n        /* \"#utility.yul\":5291:5439   */\n      pop\n      pop\n      pop\n      jump\t// out\n        /* \"#utility.yul\":5445:5870   */\n    tag_357:\n        /* \"#utility.yul\":5523:5528   */\n      0x00\n        /* \"#utility.yul\":5548:5614   */\n      tag_491\n        /* \"#utility.yul\":5564:5613   */\n      tag_492\n        /* \"#utility.yul\":5606:5612   */\n      dup5\n        /* \"#utility.yul\":5564:5613   */\n      tag_355\n      jump\t// in\n    tag_492:\n        /* \"#utility.yul\":5548:5614   */\n      tag_354\n      jump\t// in\n    tag_491:\n        /* \"#utility.yul\":5539:5614   */\n      swap1\n      pop\n        /* \"#utility.yul\":5637:5643   */\n      dup3\n        /* \"#utility.yul\":5630:5635   */\n      dup2\n        /* \"#utility.yul\":5623:5644   */\n      mstore\n        /* \"#utility.yul\":5675:5679   */\n      0x20\n        /* \"#utility.yul\":5668:5673   */\n      dup2\n        /* \"#utility.yul\":5664:5680   */\n      add\n        /* \"#utility.yul\":5713:5716   */\n      dup5\n        /* \"#utility.yul\":5704:5710   */\n      dup5\n        /* \"#utility.yul\":5699:5702   */\n      dup5\n        /* \"#utility.yul\":5695:5711   */\n      add\n        /* \"#utility.yul\":5692:5717   */\n      gt\n        /* \"#utility.yul\":5689:5801   */\n      iszero\n      tag_493\n      jumpi\n        /* \"#utility.yul\":5720:5799   */\n      tag_494\n      tag_351\n      jump\t// in\n    tag_494:\n        /* \"#utility.yul\":5689:5801   */\n    tag_493:\n        /* \"#utility.yul\":5810:5864   */\n      tag_495\n        /* \"#utility.yul\":5857:5863   */\n      dup5\n        /* \"#utility.yul\":5852:5855   */\n      dup3\n        /* \"#utility.yul\":5847:5850   */\n      dup6\n        /* \"#utility.yul\":5810:5864   */\n      tag_356\n      jump\t// in\n    tag_495:\n        /* \"#utility.yul\":5529:5870   */\n      pop\n        /* \"#utility.yul\":5445:5870   */\n      swap4\n      swap3\n      pop\n      pop\n      pop\n      jump\t// out\n        /* \"#utility.yul\":5890:6230   */\n    tag_358:\n        /* \"#utility.yul\":5946:5951   */\n      0x00\n        /* \"#utility.yul\":5995:5998   */\n      dup3\n        /* \"#utility.yul\":5988:5992   */\n      0x1f\n        /* \"#utility.yul\":5980:5986   */\n      dup4\n        /* \"#utility.yul\":5976:5993   */\n      add\n        /* \"#utility.yul\":5972:5999   */\n      slt\n        /* \"#utility.yul\":5962:6084   */\n      tag_497\n      jumpi\n        /* \"#utility.yul\":6003:6082   */\n      tag_498\n      tag_350\n      jump\t// in\n    tag_498:\n        /* \"#utility.yul\":5962:6084   */\n    tag_497:\n        /* \"#utility.yul\":6120:6126   */\n      dup2\n        /* \"#utility.yul\":6107:6127   */\n      calldataload\n        /* \"#utility.yul\":6145:6224   */\n      tag_499\n        /* \"#utility.yul\":6220:6223   */\n      dup5\n        /* \"#utility.yul\":6212:6218   */\n      dup3\n        /* \"#utility.yul\":6205:6209   */\n      0x20\n        /* \"#utility.yul\":6197:6203   */\n      dup7\n        /* \"#utility.yul\":6193:6210   */\n      add\n        /* \"#utility.yul\":6145:6224   */\n      tag_357\n      jump\t// in\n    tag_499:\n        /* \"#utility.yul\":6136:6224   */\n      swap2\n      pop\n        /* \"#utility.yul\":5952:6230   */\n      pop\n        /* \"#utility.yul\":5890:6230   */\n      swap3\n      swap2\n      pop\n      pop\n      jump\t// out\n        /* \"#utility.yul\":6236:6890   */\n    tag_40:\n        /* \"#utility.yul\":6314:6320   */\n      0x00\n        /* \"#utility.yul\":6322:6328   */\n      0x00\n        /* \"#utility.yul\":6371:6373   */\n      0x40\n        /* \"#utility.yul\":6359:6368   */\n      dup4\n        /* \"#utility.yul\":6350:6357   */\n      dup6\n        /* \"#utility.yul\":6346:6369   */\n      sub\n        /* \"#utility.yul\":6342:6374   */\n      slt\n        /* \"#utility.yul\":6339:6458   */\n      iszero\n      tag_501\n      jumpi\n        /* \"#utility.yul\":6377:6456   */\n      tag_502\n      tag_334\n      jump\t// in\n    tag_502:\n        /* \"#utility.yul\":6339:6458   */\n    tag_501:\n        /* \"#utility.yul\":6497:6498   */\n      0x00\n        /* \"#utility.yul\":6522:6575   */\n      tag_503\n        /* \"#utility.yul\":6567:6574   */\n      dup6\n        /* \"#utility.yul\":6558:6564   */\n      dup3\n        /* \"#utility.yul\":6547:6556   */\n      dup7\n        /* \"#utility.yul\":6543:6565   */\n      add\n        /* \"#utility.yul\":6522:6575   */\n      tag_341\n      jump\t// in\n    tag_503:\n        /* \"#utility.yul\":6512:6575   */\n      swap3\n      pop\n        /* \"#utility.yul\":6468:6585   */\n      pop\n        /* \"#utility.yul\":6652:6654   */\n      0x20\n        /* \"#utility.yul\":6641:6650   */\n      dup4\n        /* \"#utility.yul\":6637:6655   */\n      add\n        /* \"#utility.yul\":6624:6656   */\n      calldataload\n        /* \"#utility.yul\":6683:6701   */\n      0xffffffffffffffff\n        /* \"#utility.yul\":6675:6681   */\n      dup2\n        /* \"#utility.yul\":6672:6702   */\n      gt\n        /* \"#utility.yul\":6669:6786   */\n      iszero\n      tag_504\n      jumpi\n        /* \"#utility.yul\":6705:6784   */\n      tag_505\n      tag_335\n      jump\t// in\n    tag_505:\n        /* \"#utility.yul\":6669:6786   */\n    tag_504:\n        /* \"#utility.yul\":6810:6873   */\n      tag_506\n        /* \"#utility.yul\":6865:6872   */\n      dup6\n        /* \"#utility.yul\":6856:6862   */\n      dup3\n        /* \"#utility.yul\":6845:6854   */\n      dup7\n        /* \"#utility.yul\":6841:6863   */\n      add\n        /* \"#utility.yul\":6810:6873   */\n      tag_358\n      jump\t// in\n    tag_506:\n        /* \"#utility.yul\":6800:6873   */\n      swap2\n      pop\n        /* \"#utility.yul\":6595:6883   */\n      pop\n        /* \"#utility.yul\":6236:6890   */\n      swap3\n      pop\n      swap3\n      swap1\n      pop\n      jump\t// out\n        /* \"#utility.yul\":6896:7020   */\n    tag_359:\n        /* \"#utility.yul\":6973:6979   */\n      0x00\n        /* \"#utility.yul\":7007:7012   */\n      dup2\n        /* \"#utility.yul\":7001:7013   */\n      mload\n        /* \"#utility.yul\":6991:7013   */\n      swap1\n      pop\n        /* \"#utility.yul\":6896:7020   */\n      swap2\n      swap1\n      pop\n      jump\t// out\n        /* \"#utility.yul\":7026:7220   */\n    tag_360:\n        /* \"#utility.yul\":7135:7146   */\n      0x00\n        /* \"#utility.yul\":7169:7175   */\n      dup3\n        /* \"#utility.yul\":7164:7167   */\n      dup3\n        /* \"#utility.yul\":7157:7176   */\n      mstore\n        /* \"#utility.yul\":7209:7213   */\n      0x20\n        /* \"#utility.yul\":7204:7207   */\n      dup3\n        /* \"#utility.yul\":7200:7214   */\n      add\n        /* \"#utility.yul\":7185:7214   */\n      swap1\n      pop\n        /* \"#utility.yul\":7026:7220   */\n      swap3\n      swap2\n      pop\n      pop\n      jump\t// out\n        /* \"#utility.yul\":7226:7368   */\n    tag_361:\n        /* \"#utility.yul\":7303:7307   */\n      0x00\n        /* \"#utility.yul\":7326:7329   */\n      dup2\n        /* \"#utility.yul\":7318:7329   */\n      swap1\n      pop\n        /* \"#utility.yul\":7356:7360   */\n      0x20\n        /* \"#utility.yul\":7351:7354   */\n      dup3\n        /* \"#utility.yul\":7347:7361   */\n      add\n        /* \"#utility.yul\":7339:7361   */\n      swap1\n      pop\n        /* \"#utility.yul\":7226:7368   */\n      swap2\n      swap1\n      pop\n      jump\t// out\n        /* \"#utility.yul\":7374:7533   */\n    tag_362:\n        /* \"#utility.yul\":7448:7459   */\n      0x00\n        /* \"#utility.yul\":7482:7488   */\n      dup3\n        /* \"#utility.yul\":7477:7480   */\n      dup3\n        /* \"#utility.yul\":7470:7489   */\n      mstore\n        /* \"#utility.yul\":7522:7526   */\n      0x20\n        /* \"#utility.yul\":7517:7520   */\n      dup3\n        /* \"#utility.yul\":7513:7527   */\n      add\n        /* \"#utility.yul\":7498:7527   */\n      swap1\n      pop\n        /* \"#utility.yul\":7374:7533   */\n      swap3\n      swap2\n      pop\n      pop\n      jump\t// out\n        /* \"#utility.yul\":7539:7896   */\n    tag_363:\n        /* \"#utility.yul\":7617:7620   */\n      0x00\n        /* \"#utility.yul\":7645:7684   */\n      tag_512\n        /* \"#utility.yul\":7678:7683   */\n      dup3\n        /* \"#utility.yul\":7645:7684   */\n      tag_343\n      jump\t// in\n    tag_512:\n        /* \"#utility.yul\":7700:7761   */\n      tag_513\n        /* \"#utility.yul\":7754:7760   */\n      dup2\n        /* \"#utility.yul\":7749:7752   */\n      dup6\n        /* \"#utility.yul\":7700:7761   */\n      tag_362\n      jump\t// in\n    tag_513:\n        /* \"#utility.yul\":7693:7761   */\n      swap4\n      pop\n        /* \"#utility.yul\":7770:7835   */\n      tag_514\n        /* \"#utility.yul\":7828:7834   */\n      dup2\n        /* \"#utility.yul\":7823:7826   */\n      dup6\n        /* \"#utility.yul\":7816:7820   */\n      0x20\n        /* \"#utility.yul\":7809:7814   */\n      dup7\n        /* \"#utility.yul\":7805:7821   */\n      add\n        /* \"#utility.yul\":7770:7835   */\n      tag_345\n      jump\t// in\n    tag_514:\n        /* \"#utility.yul\":7860:7889   */\n      tag_515\n        /* \"#utility.yul\":7882:7888   */\n      dup2\n        /* \"#utility.yul\":7860:7889   */\n      tag_346\n      jump\t// in\n    tag_515:\n        /* \"#utility.yul\":7855:7858   */\n      dup5\n        /* \"#utility.yul\":7851:7890   */\n      add\n        /* \"#utility.yul\":7844:7890   */\n      swap2\n      pop\n        /* \"#utility.yul\":7621:7896   */\n      pop\n        /* \"#utility.yul\":7539:7896   */\n      swap3\n      swap2\n      pop\n      pop\n      jump\t// out\n        /* \"#utility.yul\":7902:8098   */\n    tag_364:\n        /* \"#utility.yul\":7991:8001   */\n      0x00\n        /* \"#utility.yul\":8026:8092   */\n      tag_517\n        /* \"#utility.yul\":8088:8091   */\n      dup4\n        /* \"#utility.yul\":8080:8086   */\n      dup4\n        /* \"#utility.yul\":8026:8092   */\n      tag_363\n      jump\t// in\n    tag_517:\n        /* \"#utility.yul\":8012:8092   */\n      swap1\n      pop\n        /* \"#utility.yul\":7902:8098   */\n      swap3\n      swap2\n      pop\n      pop\n      jump\t// out\n        /* \"#utility.yul\":8104:8227   */\n    tag_365:\n        /* \"#utility.yul\":8184:8188   */\n      0x00\n        /* \"#utility.yul\":8216:8220   */\n      0x20\n        /* \"#utility.yul\":8211:8214   */\n      dup3\n        /* \"#utility.yul\":8207:8221   */\n      add\n        /* \"#utility.yul\":8199:8221   */\n      swap1\n      pop\n        /* \"#utility.yul\":8104:8227   */\n      swap2\n      swap1\n      pop\n      jump\t// out\n        /* \"#utility.yul\":8261:9252   */\n    tag_366:\n        /* \"#utility.yul\":8400:8403   */\n      0x00\n        /* \"#utility.yul\":8429:8493   */\n      tag_520\n        /* \"#utility.yul\":8487:8492   */\n      dup3\n        /* \"#utility.yul\":8429:8493   */\n      tag_359\n      jump\t// in\n    tag_520:\n        /* \"#utility.yul\":8509:8605   */\n      tag_521\n        /* \"#utility.yul\":8598:8604   */\n      dup2\n        /* \"#utility.yul\":8593:8596   */\n      dup6\n        /* \"#utility.yul\":8509:8605   */\n      tag_360\n      jump\t// in\n    tag_521:\n        /* \"#utility.yul\":8502:8605   */\n      swap4\n      pop\n        /* \"#utility.yul\":8631:8634   */\n      dup4\n        /* \"#utility.yul\":8676:8680   */\n      0x20\n        /* \"#utility.yul\":8668:8674   */\n      dup3\n        /* \"#utility.yul\":8664:8681   */\n      mul\n        /* \"#utility.yul\":8659:8662   */\n      dup6\n        /* \"#utility.yul\":8655:8682   */\n      add\n        /* \"#utility.yul\":8706:8772   */\n      tag_522\n        /* \"#utility.yul\":8766:8771   */\n      dup6\n        /* \"#utility.yul\":8706:8772   */\n      tag_361\n      jump\t// in\n    tag_522:\n        /* \"#utility.yul\":8795:8802   */\n      dup1\n        /* \"#utility.yul\":8826:8827   */\n      0x00\n        /* \"#utility.yul\":8811:9207   */\n    tag_523:\n        /* \"#utility.yul\":8836:8842   */\n      dup6\n        /* \"#utility.yul\":8833:8834   */\n      dup2\n        /* \"#utility.yul\":8830:8843   */\n      lt\n        /* \"#utility.yul\":8811:9207   */\n      iszero\n      tag_525\n      jumpi\n        /* \"#utility.yul\":8907:8916   */\n      dup5\n        /* \"#utility.yul\":8901:8905   */\n      dup5\n        /* \"#utility.yul\":8897:8917   */\n      sub\n        /* \"#utility.yul\":8892:8895   */\n      dup10\n        /* \"#utility.yul\":8885:8918   */\n      mstore\n        /* \"#utility.yul\":8958:8964   */\n      dup2\n        /* \"#utility.yul\":8952:8965   */\n      mload\n        /* \"#utility.yul\":8986:9070   */\n      tag_526\n        /* \"#utility.yul\":9065:9069   */\n      dup6\n        /* \"#utility.yul\":9050:9063   */\n      dup3\n        /* \"#utility.yul\":8986:9070   */\n      tag_364\n      jump\t// in\n    tag_526:\n        /* \"#utility.yul\":8978:9070   */\n      swap5\n      pop\n        /* \"#utility.yul\":9093:9163   */\n      tag_527\n        /* \"#utility.yul\":9156:9162   */\n      dup4\n        /* \"#utility.yul\":9093:9163   */\n      tag_365\n      jump\t// in\n    tag_527:\n        /* \"#utility.yul\":9083:9163   */\n      swap3\n      pop\n        /* \"#utility.yul\":9192:9196   */\n      0x20\n        /* \"#utility.yul\":9187:9190   */\n      dup11\n        /* \"#utility.yul\":9183:9197   */\n      add\n        /* \"#utility.yul\":9176:9197   */\n      swap10\n      pop\n        /* \"#utility.yul\":8871:9207   */\n      pop\n        /* \"#utility.yul\":8858:8859   */\n      0x01\n        /* \"#utility.yul\":8855:8856   */\n      dup2\n        /* \"#utility.yul\":8851:8860   */\n      add\n        /* \"#utility.yul\":8846:8860   */\n      swap1\n      pop\n        /* \"#utility.yul\":8811:9207   */\n      jump(tag_523)\n    tag_525:\n        /* \"#utility.yul\":8815:8829   */\n      pop\n        /* \"#utility.yul\":9223:9227   */\n      dup3\n        /* \"#utility.yul\":9216:9227   */\n      swap8\n      pop\n        /* \"#utility.yul\":9243:9246   */\n      dup8\n        /* \"#utility.yul\":9236:9246   */\n      swap6\n      pop\n        /* \"#utility.yul\":8405:9252   */\n      pop\n      pop\n      pop\n      pop\n      pop\n        /* \"#utility.yul\":8261:9252   */\n      swap3\n      swap2\n      pop\n      pop\n      jump\t// out\n        /* \"#utility.yul\":9258:9671   */\n    tag_52:\n        /* \"#utility.yul\":9421:9425   */\n      0x00\n        /* \"#utility.yul\":9459:9461   */\n      0x20\n        /* \"#utility.yul\":9448:9457   */\n      dup3\n        /* \"#utility.yul\":9444:9462   */\n      add\n        /* \"#utility.yul\":9436:9462   */\n      swap1\n      pop\n        /* \"#utility.yul\":9508:9517   */\n      dup2\n        /* \"#utility.yul\":9502:9506   */\n      dup2\n        /* \"#utility.yul\":9498:9518   */\n      sub\n        /* \"#utility.yul\":9494:9495   */\n      0x00\n        /* \"#utility.yul\":9483:9492   */\n      dup4\n        /* \"#utility.yul\":9479:9496   */\n      add\n        /* \"#utility.yul\":9472:9519   */\n      mstore\n        /* \"#utility.yul\":9536:9664   */\n      tag_529\n        /* \"#utility.yul\":9659:9663   */\n      dup2\n        /* \"#utility.yul\":9650:9656   */\n      dup5\n        /* \"#utility.yul\":9536:9664   */\n      tag_366\n      jump\t// in\n    tag_529:\n        /* \"#utility.yul\":9528:9664   */\n      swap1\n      pop\n        /* \"#utility.yul\":9258:9671   */\n      swap3\n      swap2\n      pop\n      pop\n      jump\t// out\n        /* \"#utility.yul\":9677:9781   */\n    tag_367:\n        /* \"#utility.yul\":9722:9729   */\n      0x00\n        /* \"#utility.yul\":9751:9775   */\n      tag_531\n        /* \"#utility.yul\":9769:9774   */\n      dup3\n        /* \"#utility.yul\":9751:9775   */\n      tag_336\n      jump\t// in\n    tag_531:\n        /* \"#utility.yul\":9740:9775   */\n      swap1\n      pop\n        /* \"#utility.yul\":9677:9781   */\n      swap2\n      swap1\n      pop\n      jump\t// out\n        /* \"#utility.yul\":9787:9925   */\n    tag_368:\n        /* \"#utility.yul\":9868:9900   */\n      tag_533\n        /* \"#utility.yul\":9894:9899   */\n      dup2\n        /* \"#utility.yul\":9868:9900   */\n      tag_367\n      jump\t// in\n    tag_533:\n        /* \"#utility.yul\":9861:9866   */\n      dup2\n        /* \"#utility.yul\":9858:9901   */\n      eq\n        /* \"#utility.yul\":9848:9919   */\n      tag_534\n      jumpi\n        /* \"#utility.yul\":9915:9916   */\n      0x00\n        /* \"#utility.yul\":9912:9913   */\n      0x00\n        /* \"#utility.yul\":9905:9917   */\n      revert\n        /* \"#utility.yul\":9848:9919   */\n    tag_534:\n        /* \"#utility.yul\":9787:9925   */\n      pop\n      jump\t// out\n        /* \"#utility.yul\":9931:10086   */\n    tag_369:\n        /* \"#utility.yul\":9985:9990   */\n      0x00\n        /* \"#utility.yul\":10023:10029   */\n      dup2\n        /* \"#utility.yul\":10010:10030   */\n      calldataload\n        /* \"#utility.yul\":10001:10030   */\n      swap1\n      pop\n        /* \"#utility.yul\":10039:10080   */\n      tag_536\n        /* \"#utility.yul\":10074:10079   */\n      dup2\n        /* \"#utility.yul\":10039:10080   */\n      tag_368\n      jump\t// in\n    tag_536:\n        /* \"#utility.yul\":9931:10086   */\n      swap3\n      swap2\n      pop\n      pop\n      jump\t// out\n        /* \"#utility.yul\":10092:10582   */\n    tag_56:\n        /* \"#utility.yul\":10168:10174   */\n      0x00\n        /* \"#utility.yul\":10176:10182   */\n      0x00\n        /* \"#utility.yul\":10225:10227   */\n      0x40\n        /* \"#utility.yul\":10213:10222   */\n      dup4\n        /* \"#utility.yul\":10204:10211   */\n      dup6\n        /* \"#utility.yul\":10200:10223   */\n      sub\n        /* \"#utility.yul\":10196:10228   */\n      slt\n        /* \"#utility.yul\":10193:10312   */\n      iszero\n      tag_538\n      jumpi\n        /* \"#utility.yul\":10231:10310   */\n      tag_539\n      tag_334\n      jump\t// in\n    tag_539:\n        /* \"#utility.yul\":10193:10312   */\n    tag_538:\n        /* \"#utility.yul\":10351:10352   */\n      0x00\n        /* \"#utility.yul\":10376:10437   */\n      tag_540\n        /* \"#utility.yul\":10429:10436   */\n      dup6\n        /* \"#utility.yul\":10420:10426   */\n      dup3\n        /* \"#utility.yul\":10409:10418   */\n      dup7\n        /* \"#utility.yul\":10405:10427   */\n      add\n        /* \"#utility.yul\":10376:10437   */\n      tag_369\n      jump\t// in\n    tag_540:\n        /* \"#utility.yul\":10366:10437   */\n      swap3\n      pop\n        /* \"#utility.yul\":10322:10447   */\n      pop\n        /* \"#utility.yul\":10486:10488   */\n      0x20\n        /* \"#utility.yul\":10512:10565   */\n      tag_541\n        /* \"#utility.yul\":10557:10564   */\n      dup6\n        /* \"#utility.yul\":10548:10554   */\n      dup3\n        /* \"#utility.yul\":10537:10546   */\n      dup7\n        /* \"#utility.yul\":10533:10555   */\n      add\n        /* \"#utility.yul\":10512:10565   */\n      tag_341\n      jump\t// in\n    tag_541:\n        /* \"#utility.yul\":10502:10565   */\n      swap2\n      pop\n        /* \"#utility.yul\":10457:10575   */\n      pop\n        /* \"#utility.yul\":10092:10582   */\n      swap3\n      pop\n      swap3\n      swap1\n      pop\n      jump\t// out\n        /* \"#utility.yul\":10588:10678   */\n    tag_370:\n        /* \"#utility.yul\":10622:10629   */\n      0x00\n        /* \"#utility.yul\":10665:10670   */\n      dup2\n        /* \"#utility.yul\":10658:10671   */\n      iszero\n        /* \"#utility.yul\":10651:10672   */\n      iszero\n        /* \"#utility.yul\":10640:10672   */\n      swap1\n      pop\n        /* \"#utility.yul\":10588:10678   */\n      swap2\n      swap1\n      pop\n      jump\t// out\n        /* \"#utility.yul\":10684:10793   */\n    tag_371:\n        /* \"#utility.yul\":10765:10786   */\n      tag_544\n        /* \"#utility.yul\":10780:10785   */\n      dup2\n        /* \"#utility.yul\":10765:10786   */\n      tag_370\n      jump\t// in\n    tag_544:\n        /* \"#utility.yul\":10760:10763   */\n      dup3\n        /* \"#utility.yul\":10753:10787   */\n      mstore\n        /* \"#utility.yul\":10684:10793   */\n      pop\n      pop\n      jump\t// out\n        /* \"#utility.yul\":10799:11009   */\n    tag_62:\n        /* \"#utility.yul\":10886:10890   */\n      0x00\n        /* \"#utility.yul\":10924:10926   */\n      0x20\n        /* \"#utility.yul\":10913:10922   */\n      dup3\n        /* \"#utility.yul\":10909:10927   */\n      add\n        /* \"#utility.yul\":10901:10927   */\n      swap1\n      pop\n        /* \"#utility.yul\":10937:11002   */\n      tag_546\n        /* \"#utility.yul\":10999:11000   */\n      0x00\n        /* \"#utility.yul\":10988:10997   */\n      dup4\n        /* \"#utility.yul\":10984:11001   */\n      add\n        /* \"#utility.yul\":10975:10981   */\n      dup5\n        /* \"#utility.yul\":10937:11002   */\n      tag_371\n      jump\t// in\n    tag_546:\n        /* \"#utility.yul\":10799:11009   */\n      swap3\n      swap2\n      pop\n      pop\n      jump\t// out\n        /* \"#utility.yul\":11015:11814   */\n    tag_66:\n        /* \"#utility.yul\":11102:11108   */\n      0x00\n        /* \"#utility.yul\":11110:11116   */\n      0x00\n        /* \"#utility.yul\":11118:11124   */\n      0x00\n        /* \"#utility.yul\":11167:11169   */\n      0x60\n        /* \"#utility.yul\":11155:11164   */\n      dup5\n        /* \"#utility.yul\":11146:11153   */\n      dup7\n        /* \"#utility.yul\":11142:11165   */\n      sub\n        /* \"#utility.yul\":11138:11170   */\n      slt\n        /* \"#utility.yul\":11135:11254   */\n      iszero\n      tag_548\n      jumpi\n        /* \"#utility.yul\":11173:11252   */\n      tag_549\n      tag_334\n      jump\t// in\n    tag_549:\n        /* \"#utility.yul\":11135:11254   */\n    tag_548:\n        /* \"#utility.yul\":11293:11294   */\n      0x00\n        /* \"#utility.yul\":11318:11371   */\n      tag_550\n        /* \"#utility.yul\":11363:11370   */\n      dup7\n        /* \"#utility.yul\":11354:11360   */\n      dup3\n        /* \"#utility.yul\":11343:11352   */\n      dup8\n        /* \"#utility.yul\":11339:11361   */\n      add\n        /* \"#utility.yul\":11318:11371   */\n      tag_339\n      jump\t// in\n    tag_550:\n        /* \"#utility.yul\":11308:11371   */\n      swap4\n      pop\n        /* \"#utility.yul\":11264:11381   */\n      pop\n        /* \"#utility.yul\":11420:11422   */\n      0x20\n        /* \"#utility.yul\":11446:11499   */\n      tag_551\n        /* \"#utility.yul\":11491:11498   */\n      dup7\n        /* \"#utility.yul\":11482:11488   */\n      dup3\n        /* \"#utility.yul\":11471:11480   */\n      dup8\n        /* \"#utility.yul\":11467:11489   */\n      add\n        /* \"#utility.yul\":11446:11499   */\n      tag_339\n      jump\t// in\n    tag_551:\n        /* \"#utility.yul\":11436:11499   */\n      swap3\n      pop\n        /* \"#utility.yul\":11391:11509   */\n      pop\n        /* \"#utility.yul\":11576:11578   */\n      0x40\n        /* \"#utility.yul\":11565:11574   */\n      dup5\n        /* \"#utility.yul\":11561:11579   */\n      add\n        /* \"#utility.yul\":11548:11580   */\n      calldataload\n        /* \"#utility.yul\":11607:11625   */\n      0xffffffffffffffff\n        /* \"#utility.yul\":11599:11605   */\n      dup2\n        /* \"#utility.yul\":11596:11626   */\n      gt\n        /* \"#utility.yul\":11593:11710   */\n      iszero\n      tag_552\n      jumpi\n        /* \"#utility.yul\":11629:11708   */\n      tag_553\n      tag_335\n      jump\t// in\n    tag_553:\n        /* \"#utility.yul\":11593:11710   */\n    tag_552:\n        /* \"#utility.yul\":11734:11797   */\n      tag_554\n        /* \"#utility.yul\":11789:11796   */\n      dup7\n        /* \"#utility.yul\":11780:11786   */\n      dup3\n        /* \"#utility.yul\":11769:11778   */\n      dup8\n        /* \"#utility.yul\":11765:11787   */\n      add\n        /* \"#utility.yul\":11734:11797   */\n      tag_358\n      jump\t// in\n    tag_554:\n        /* \"#utility.yul\":11724:11797   */\n      swap2\n      pop\n        /* \"#utility.yul\":11519:11807   */\n      pop\n        /* \"#utility.yul\":11015:11814   */\n      swap3\n      pop\n      swap3\n      pop\n      swap3\n      jump\t// out\n        /* \"#utility.yul\":11820:12329   */\n    tag_72:\n        /* \"#utility.yul\":11889:11895   */\n      0x00\n        /* \"#utility.yul\":11938:11940   */\n      0x20\n        /* \"#utility.yul\":11926:11935   */\n      dup3\n        /* \"#utility.yul\":11917:11924   */\n      dup5\n        /* \"#utility.yul\":11913:11936   */\n      sub\n        /* \"#utility.yul\":11909:11941   */\n      slt\n        /* \"#utility.yul\":11906:12025   */\n      iszero\n      tag_556\n      jumpi\n        /* \"#utility.yul\":11944:12023   */\n      tag_557\n      tag_334\n      jump\t// in\n    tag_557:\n        /* \"#utility.yul\":11906:12025   */\n    tag_556:\n        /* \"#utility.yul\":12092:12093   */\n      0x00\n        /* \"#utility.yul\":12081:12090   */\n      dup3\n        /* \"#utility.yul\":12077:12094   */\n      add\n        /* \"#utility.yul\":12064:12095   */\n      calldataload\n        /* \"#utility.yul\":12122:12140   */\n      0xffffffffffffffff\n        /* \"#utility.yul\":12114:12120   */\n      dup2\n        /* \"#utility.yul\":12111:12141   */\n      gt\n        /* \"#utility.yul\":12108:12225   */\n      iszero\n      tag_558\n      jumpi\n        /* \"#utility.yul\":12144:12223   */\n      tag_559\n      tag_335\n      jump\t// in\n    tag_559:\n        /* \"#utility.yul\":12108:12225   */\n    tag_558:\n        /* \"#utility.yul\":12249:12312   */\n      tag_560\n        /* \"#utility.yul\":12304:12311   */\n      dup5\n        /* \"#utility.yul\":12295:12301   */\n      dup3\n        /* \"#utility.yul\":12284:12293   */\n      dup6\n        /* \"#utility.yul\":12280:12302   */\n      add\n        /* \"#utility.yul\":12249:12312   */\n      tag_358\n      jump\t// in\n    tag_560:\n        /* \"#utility.yul\":12239:12312   */\n      swap2\n      pop\n        /* \"#utility.yul\":12035:12322   */\n      pop\n        /* \"#utility.yul\":11820:12329   */\n      swap3\n      swap2\n      pop\n      pop\n      jump\t// out\n        /* \"#utility.yul\":12335:12557   */\n    tag_84:\n        /* \"#utility.yul\":12428:12432   */\n      0x00\n        /* \"#utility.yul\":12466:12468   */\n      0x20\n        /* \"#utility.yul\":12455:12464   */\n      dup3\n        /* \"#utility.yul\":12451:12469   */\n      add\n        /* \"#utility.yul\":12443:12469   */\n      swap1\n      pop\n        /* \"#utility.yul\":12479:12550   */\n      tag_562\n        /* \"#utility.yul\":12547:12548   */\n      0x00\n        /* \"#utility.yul\":12536:12545   */\n      dup4\n        /* \"#utility.yul\":12532:12549   */\n      add\n        /* \"#utility.yul\":12523:12529   */\n      dup5\n        /* \"#utility.yul\":12479:12550   */\n      tag_342\n      jump\t// in\n    tag_562:\n        /* \"#utility.yul\":12335:12557   */\n      swap3\n      swap2\n      pop\n      pop\n      jump\t// out\n        /* \"#utility.yul\":12563:12892   */\n    tag_88:\n        /* \"#utility.yul\":12622:12628   */\n      0x00\n        /* \"#utility.yul\":12671:12673   */\n      0x20\n        /* \"#utility.yul\":12659:12668   */\n      dup3\n        /* \"#utility.yul\":12650:12657   */\n      dup5\n        /* \"#utility.yul\":12646:12669   */\n      sub\n        /* \"#utility.yul\":12642:12674   */\n      slt\n        /* \"#utility.yul\":12639:12758   */\n      iszero\n      tag_564\n      jumpi\n        /* \"#utility.yul\":12677:12756   */\n      tag_565\n      tag_334\n      jump\t// in\n    tag_565:\n        /* \"#utility.yul\":12639:12758   */\n    tag_564:\n        /* \"#utility.yul\":12797:12798   */\n      0x00\n        /* \"#utility.yul\":12822:12875   */\n      tag_566\n        /* \"#utility.yul\":12867:12874   */\n      dup5\n        /* \"#utility.yul\":12858:12864   */\n      dup3\n        /* \"#utility.yul\":12847:12856   */\n      dup6\n        /* \"#utility.yul\":12843:12865   */\n      add\n        /* \"#utility.yul\":12822:12875   */\n      tag_341\n      jump\t// in\n    tag_566:\n        /* \"#utility.yul\":12812:12875   */\n      swap2\n      pop\n        /* \"#utility.yul\":12768:12885   */\n      pop\n        /* \"#utility.yul\":12563:12892   */\n      swap3\n      swap2\n      pop\n      pop\n      jump\t// out\n        /* \"#utility.yul\":12898:13227   */\n    tag_93:\n        /* \"#utility.yul\":12957:12963   */\n      0x00\n        /* \"#utility.yul\":13006:13008   */\n      0x20\n        /* \"#utility.yul\":12994:13003   */\n      dup3\n        /* \"#utility.yul\":12985:12992   */\n      dup5\n        /* \"#utility.yul\":12981:13004   */\n      sub\n        /* \"#utility.yul\":12977:13009   */\n      slt\n        /* \"#utility.yul\":12974:13093   */\n      iszero\n      tag_568\n      jumpi\n        /* \"#utility.yul\":13012:13091   */\n      tag_569\n      tag_334\n      jump\t// in\n    tag_569:\n        /* \"#utility.yul\":12974:13093   */\n    tag_568:\n        /* \"#utility.yul\":13132:13133   */\n      0x00\n        /* \"#utility.yul\":13157:13210   */\n      tag_570\n        /* \"#utility.yul\":13202:13209   */\n      dup5\n        /* \"#utility.yul\":13193:13199   */\n      dup3\n        /* \"#utility.yul\":13182:13191   */\n      dup6\n        /* \"#utility.yul\":13178:13200   */\n      add\n        /* \"#utility.yul\":13157:13210   */\n      tag_339\n      jump\t// in\n    tag_570:\n        /* \"#utility.yul\":13147:13210   */\n      swap2\n      pop\n        /* \"#utility.yul\":13103:13220   */\n      pop\n        /* \"#utility.yul\":12898:13227   */\n      swap3\n      swap2\n      pop\n      pop\n      jump\t// out\n        /* \"#utility.yul\":13233:13381   */\n    tag_372:\n        /* \"#utility.yul\":13334:13340   */\n      0x00\n        /* \"#utility.yul\":13368:13373   */\n      dup2\n        /* \"#utility.yul\":13362:13374   */\n      mload\n        /* \"#utility.yul\":13352:13374   */\n      swap1\n      pop\n        /* \"#utility.yul\":13233:13381   */\n      swap2\n      swap1\n      pop\n      jump\t// out\n        /* \"#utility.yul\":13387:13605   */\n    tag_373:\n        /* \"#utility.yul\":13520:13531   */\n      0x00\n        /* \"#utility.yul\":13554:13560   */\n      dup3\n        /* \"#utility.yul\":13549:13552   */\n      dup3\n        /* \"#utility.yul\":13542:13561   */\n      mstore\n        /* \"#utility.yul\":13594:13598   */\n      0x20\n        /* \"#utility.yul\":13589:13592   */\n      dup3\n        /* \"#utility.yul\":13585:13599   */\n      add\n        /* \"#utility.yul\":13570:13599   */\n      swap1\n      pop\n        /* \"#utility.yul\":13387:13605   */\n      swap3\n      swap2\n      pop\n      pop\n      jump\t// out\n        /* \"#utility.yul\":13611:13777   */\n    tag_374:\n        /* \"#utility.yul\":13712:13716   */\n      0x00\n        /* \"#utility.yul\":13735:13738   */\n      dup2\n        /* \"#utility.yul\":13727:13738   */\n      swap1\n      pop\n        /* \"#utility.yul\":13765:13769   */\n      0x20\n        /* \"#utility.yul\":13760:13763   */\n      dup3\n        /* \"#utility.yul\":13756:13770   */\n      add\n        /* \"#utility.yul\":13748:13770   */\n      swap1\n      pop\n        /* \"#utility.yul\":13611:13777   */\n      swap2\n      swap1\n      pop\n      jump\t// out\n        /* \"#utility.yul\":13783:13891   */\n    tag_375:\n        /* \"#utility.yul\":13860:13884   */\n      tag_575\n        /* \"#utility.yul\":13878:13883   */\n      dup2\n        /* \"#utility.yul\":13860:13884   */\n      tag_337\n      jump\t// in\n    tag_575:\n        /* \"#utility.yul\":13855:13858   */\n      dup3\n        /* \"#utility.yul\":13848:13885   */\n      mstore\n        /* \"#utility.yul\":13783:13891   */\n      pop\n      pop\n      jump\t// out\n        /* \"#utility.yul\":13897:13999   */\n    tag_376:\n        /* \"#utility.yul\":13970:13992   */\n      tag_577\n        /* \"#utility.yul\":13986:13991   */\n      dup2\n        /* \"#utility.yul\":13970:13992   */\n      tag_348\n      jump\t// in\n    tag_577:\n        /* \"#utility.yul\":13965:13968   */\n      dup3\n        /* \"#utility.yul\":13958:13993   */\n      mstore\n        /* \"#utility.yul\":13897:13999   */\n      pop\n      pop\n      jump\t// out\n        /* \"#utility.yul\":14005:14113   */\n    tag_377:\n        /* \"#utility.yul\":14082:14106   */\n      tag_579\n        /* \"#utility.yul\":14100:14105   */\n      dup2\n        /* \"#utility.yul\":14082:14106   */\n      tag_331\n      jump\t// in\n    tag_579:\n        /* \"#utility.yul\":14077:14080   */\n      dup3\n        /* \"#utility.yul\":14070:14107   */\n      mstore\n        /* \"#utility.yul\":14005:14113   */\n      pop\n      pop\n      jump\t// out\n        /* \"#utility.yul\":14193:15411   */\n    tag_378:\n        /* \"#utility.yul\":14320:14323   */\n      0x00\n        /* \"#utility.yul\":14356:14360   */\n      0xa0\n        /* \"#utility.yul\":14351:14354   */\n      dup4\n        /* \"#utility.yul\":14347:14361   */\n      add\n        /* \"#utility.yul\":14447:14451   */\n      0x00\n        /* \"#utility.yul\":14440:14445   */\n      dup4\n        /* \"#utility.yul\":14436:14452   */\n      add\n        /* \"#utility.yul\":14430:14453   */\n      mload\n        /* \"#utility.yul\":14466:14529   */\n      tag_581\n        /* \"#utility.yul\":14523:14527   */\n      0x00\n        /* \"#utility.yul\":14518:14521   */\n      dup7\n        /* \"#utility.yul\":14514:14528   */\n      add\n        /* \"#utility.yul\":14500:14512   */\n      dup3\n        /* \"#utility.yul\":14466:14529   */\n      tag_375\n      jump\t// in\n    tag_581:\n        /* \"#utility.yul\":14371:14539   */\n      pop\n        /* \"#utility.yul\":14623:14627   */\n      0x20\n        /* \"#utility.yul\":14616:14621   */\n      dup4\n        /* \"#utility.yul\":14612:14628   */\n      add\n        /* \"#utility.yul\":14606:14629   */\n      mload\n        /* \"#utility.yul\":14676:14679   */\n      dup5\n        /* \"#utility.yul\":14670:14674   */\n      dup3\n        /* \"#utility.yul\":14666:14680   */\n      sub\n        /* \"#utility.yul\":14659:14663   */\n      0x20\n        /* \"#utility.yul\":14654:14657   */\n      dup7\n        /* \"#utility.yul\":14650:14664   */\n      add\n        /* \"#utility.yul\":14643:14681   */\n      mstore\n        /* \"#utility.yul\":14702:14775   */\n      tag_582\n        /* \"#utility.yul\":14770:14774   */\n      dup3\n        /* \"#utility.yul\":14756:14768   */\n      dup3\n        /* \"#utility.yul\":14702:14775   */\n      tag_363\n      jump\t// in\n    tag_582:\n        /* \"#utility.yul\":14694:14775   */\n      swap2\n      pop\n        /* \"#utility.yul\":14549:14786   */\n      pop\n        /* \"#utility.yul\":14871:14875   */\n      0x40\n        /* \"#utility.yul\":14864:14869   */\n      dup4\n        /* \"#utility.yul\":14860:14876   */\n      add\n        /* \"#utility.yul\":14854:14877   */\n      mload\n        /* \"#utility.yul\":14924:14927   */\n      dup5\n        /* \"#utility.yul\":14918:14922   */\n      dup3\n        /* \"#utility.yul\":14914:14928   */\n      sub\n        /* \"#utility.yul\":14907:14911   */\n      0x40\n        /* \"#utility.yul\":14902:14905   */\n      dup7\n        /* \"#utility.yul\":14898:14912   */\n      add\n        /* \"#utility.yul\":14891:14929   */\n      mstore\n        /* \"#utility.yul\":14950:15023   */\n      tag_583\n        /* \"#utility.yul\":15018:15022   */\n      dup3\n        /* \"#utility.yul\":15004:15016   */\n      dup3\n        /* \"#utility.yul\":14950:15023   */\n      tag_363\n      jump\t// in\n    tag_583:\n        /* \"#utility.yul\":14942:15023   */\n      swap2\n      pop\n        /* \"#utility.yul\":14796:15034   */\n      pop\n        /* \"#utility.yul\":15117:15121   */\n      0x60\n        /* \"#utility.yul\":15110:15115   */\n      dup4\n        /* \"#utility.yul\":15106:15122   */\n      add\n        /* \"#utility.yul\":15100:15123   */\n      mload\n        /* \"#utility.yul\":15136:15195   */\n      tag_584\n        /* \"#utility.yul\":15189:15193   */\n      0x60\n        /* \"#utility.yul\":15184:15187   */\n      dup7\n        /* \"#utility.yul\":15180:15194   */\n      add\n        /* \"#utility.yul\":15166:15178   */\n      dup3\n        /* \"#utility.yul\":15136:15195   */\n      tag_376\n      jump\t// in\n    tag_584:\n        /* \"#utility.yul\":15044:15205   */\n      pop\n        /* \"#utility.yul\":15292:15296   */\n      0x80\n        /* \"#utility.yul\":15285:15290   */\n      dup4\n        /* \"#utility.yul\":15281:15297   */\n      add\n        /* \"#utility.yul\":15275:15298   */\n      mload\n        /* \"#utility.yul\":15311:15374   */\n      tag_585\n        /* \"#utility.yul\":15368:15372   */\n      0x80\n        /* \"#utility.yul\":15363:15366   */\n      dup7\n        /* \"#utility.yul\":15359:15373   */\n      add\n        /* \"#utility.yul\":15345:15357   */\n      dup3\n        /* \"#utility.yul\":15311:15374   */\n      tag_377\n      jump\t// in\n    tag_585:\n        /* \"#utility.yul\":15215:15384   */\n      pop\n        /* \"#utility.yul\":15401:15405   */\n      dup1\n        /* \"#utility.yul\":15394:15405   */\n      swap2\n      pop\n        /* \"#utility.yul\":14325:15411   */\n      pop\n        /* \"#utility.yul\":14193:15411   */\n      swap3\n      swap2\n      pop\n      pop\n      jump\t// out\n        /* \"#utility.yul\":15417:15709   */\n    tag_379:\n        /* \"#utility.yul\":15554:15564   */\n      0x00\n        /* \"#utility.yul\":15589:15703   */\n      tag_587\n        /* \"#utility.yul\":15699:15702   */\n      dup4\n        /* \"#utility.yul\":15691:15697   */\n      dup4\n        /* \"#utility.yul\":15589:15703   */\n      tag_378\n      jump\t// in\n    tag_587:\n        /* \"#utility.yul\":15575:15703   */\n      swap1\n      pop\n        /* \"#utility.yul\":15417:15709   */\n      swap3\n      swap2\n      pop\n      pop\n      jump\t// out\n        /* \"#utility.yul\":15715:15862   */\n    tag_380:\n        /* \"#utility.yul\":15819:15823   */\n      0x00\n        /* \"#utility.yul\":15851:15855   */\n      0x20\n        /* \"#utility.yul\":15846:15849   */\n      dup3\n        /* \"#utility.yul\":15842:15856   */\n      add\n        /* \"#utility.yul\":15834:15856   */\n      swap1\n      pop\n        /* \"#utility.yul\":15715:15862   */\n      swap2\n      swap1\n      pop\n      jump\t// out\n        /* \"#utility.yul\":15946:17129   */\n    tag_381:\n        /* \"#utility.yul\":16133:16136   */\n      0x00\n        /* \"#utility.yul\":16162:16250   */\n      tag_590\n        /* \"#utility.yul\":16244:16249   */\n      dup3\n        /* \"#utility.yul\":16162:16250   */\n      tag_372\n      jump\t// in\n    tag_590:\n        /* \"#utility.yul\":16266:16386   */\n      tag_591\n        /* \"#utility.yul\":16379:16385   */\n      dup2\n        /* \"#utility.yul\":16374:16377   */\n      dup6\n        /* \"#utility.yul\":16266:16386   */\n      tag_373\n      jump\t// in\n    tag_591:\n        /* \"#utility.yul\":16259:16386   */\n      swap4\n      pop\n        /* \"#utility.yul\":16412:16415   */\n      dup4\n        /* \"#utility.yul\":16457:16461   */\n      0x20\n        /* \"#utility.yul\":16449:16455   */\n      dup3\n        /* \"#utility.yul\":16445:16462   */\n      mul\n        /* \"#utility.yul\":16440:16443   */\n      dup6\n        /* \"#utility.yul\":16436:16463   */\n      add\n        /* \"#utility.yul\":16487:16577   */\n      tag_592\n        /* \"#utility.yul\":16571:16576   */\n      dup6\n        /* \"#utility.yul\":16487:16577   */\n      tag_374\n      jump\t// in\n    tag_592:\n        /* \"#utility.yul\":16600:16607   */\n      dup1\n        /* \"#utility.yul\":16631:16632   */\n      0x00\n        /* \"#utility.yul\":16616:17084   */\n    tag_593:\n        /* \"#utility.yul\":16641:16647   */\n      dup6\n        /* \"#utility.yul\":16638:16639   */\n      dup2\n        /* \"#utility.yul\":16635:16648   */\n      lt\n        /* \"#utility.yul\":16616:17084   */\n      iszero\n      tag_595\n      jumpi\n        /* \"#utility.yul\":16712:16721   */\n      dup5\n        /* \"#utility.yul\":16706:16710   */\n      dup5\n        /* \"#utility.yul\":16702:16722   */\n      sub\n        /* \"#utility.yul\":16697:16700   */\n      dup10\n        /* \"#utility.yul\":16690:16723   */\n      mstore\n        /* \"#utility.yul\":16763:16769   */\n      dup2\n        /* \"#utility.yul\":16757:16770   */\n      mload\n        /* \"#utility.yul\":16791:16923   */\n      tag_596\n        /* \"#utility.yul\":16918:16922   */\n      dup6\n        /* \"#utility.yul\":16903:16916   */\n      dup3\n        /* \"#utility.yul\":16791:16923   */\n      tag_379\n      jump\t// in\n    tag_596:\n        /* \"#utility.yul\":16783:16923   */\n      swap5\n      pop\n        /* \"#utility.yul\":16946:17040   */\n      tag_597\n        /* \"#utility.yul\":17033:17039   */\n      dup4\n        /* \"#utility.yul\":16946:17040   */\n      tag_380\n      jump\t// in\n    tag_597:\n        /* \"#utility.yul\":16936:17040   */\n      swap3\n      pop\n        /* \"#utility.yul\":17069:17073   */\n      0x20\n        /* \"#utility.yul\":17064:17067   */\n      dup11\n        /* \"#utility.yul\":17060:17074   */\n      add\n        /* \"#utility.yul\":17053:17074   */\n      swap10\n      pop\n        /* \"#utility.yul\":16676:17084   */\n      pop\n        /* \"#utility.yul\":16663:16664   */\n      0x01\n        /* \"#utility.yul\":16660:16661   */\n      dup2\n        /* \"#utility.yul\":16656:16665   */\n      add\n        /* \"#utility.yul\":16651:16665   */\n      swap1\n      pop\n        /* \"#utility.yul\":16616:17084   */\n      jump(tag_593)\n    tag_595:\n        /* \"#utility.yul\":16620:16634   */\n      pop\n        /* \"#utility.yul\":17100:17104   */\n      dup3\n        /* \"#utility.yul\":17093:17104   */\n      swap8\n      pop\n        /* \"#utility.yul\":17120:17123   */\n      dup8\n        /* \"#utility.yul\":17113:17123   */\n      swap6\n      pop\n        /* \"#utility.yul\":16138:17129   */\n      pop\n      pop\n      pop\n      pop\n      pop\n        /* \"#utility.yul\":15946:17129   */\n      swap3\n      swap2\n      pop\n      pop\n      jump\t// out\n        /* \"#utility.yul\":17135:17644   */\n    tag_96:\n        /* \"#utility.yul\":17346:17350   */\n      0x00\n        /* \"#utility.yul\":17384:17386   */\n      0x20\n        /* \"#utility.yul\":17373:17382   */\n      dup3\n        /* \"#utility.yul\":17369:17387   */\n      add\n        /* \"#utility.yul\":17361:17387   */\n      swap1\n      pop\n        /* \"#utility.yul\":17433:17442   */\n      dup2\n        /* \"#utility.yul\":17427:17431   */\n      dup2\n        /* \"#utility.yul\":17423:17443   */\n      sub\n        /* \"#utility.yul\":17419:17420   */\n      0x00\n        /* \"#utility.yul\":17408:17417   */\n      dup4\n        /* \"#utility.yul\":17404:17421   */\n      add\n        /* \"#utility.yul\":17397:17444   */\n      mstore\n        /* \"#utility.yul\":17461:17637   */\n      tag_599\n        /* \"#utility.yul\":17632:17636   */\n      dup2\n        /* \"#utility.yul\":17623:17629   */\n      dup5\n        /* \"#utility.yul\":17461:17637   */\n      tag_381\n      jump\t// in\n    tag_599:\n        /* \"#utility.yul\":17453:17637   */\n      swap1\n      pop\n        /* \"#utility.yul\":17135:17644   */\n      swap3\n      swap2\n      pop\n      pop\n      jump\t// out\n        /* \"#utility.yul\":17650:17963   */\n    tag_102:\n        /* \"#utility.yul\":17763:17767   */\n      0x00\n        /* \"#utility.yul\":17801:17803   */\n      0x20\n        /* \"#utility.yul\":17790:17799   */\n      dup3\n        /* \"#utility.yul\":17786:17804   */\n      add\n        /* \"#utility.yul\":17778:17804   */\n      swap1\n      pop\n        /* \"#utility.yul\":17850:17859   */\n      dup2\n        /* \"#utility.yul\":17844:17848   */\n      dup2\n        /* \"#utility.yul\":17840:17860   */\n      sub\n        /* \"#utility.yul\":17836:17837   */\n      0x00\n        /* \"#utility.yul\":17825:17834   */\n      dup4\n        /* \"#utility.yul\":17821:17838   */\n      add\n        /* \"#utility.yul\":17814:17861   */\n      mstore\n        /* \"#utility.yul\":17878:17956   */\n      tag_601\n        /* \"#utility.yul\":17951:17955   */\n      dup2\n        /* \"#utility.yul\":17942:17948   */\n      dup5\n        /* \"#utility.yul\":17878:17956   */\n      tag_347\n      jump\t// in\n    tag_601:\n        /* \"#utility.yul\":17870:17956   */\n      swap1\n      pop\n        /* \"#utility.yul\":17650:17963   */\n      swap3\n      swap2\n      pop\n      pop\n      jump\t// out\n        /* \"#utility.yul\":17969:18087   */\n    tag_382:\n        /* \"#utility.yul\":18040:18062   */\n      tag_603\n        /* \"#utility.yul\":18056:18061   */\n      dup2\n        /* \"#utility.yul\":18040:18062   */\n      tag_348\n      jump\t// in\n    tag_603:\n        /* \"#utility.yul\":18033:18038   */\n      dup2\n        /* \"#utility.yul\":18030:18063   */\n      eq\n        /* \"#utility.yul\":18020:18081   */\n      tag_604\n      jumpi\n        /* \"#utility.yul\":18077:18078   */\n      0x00\n        /* \"#utility.yul\":18074:18075   */\n      0x00\n        /* \"#utility.yul\":18067:18079   */\n      revert\n        /* \"#utility.yul\":18020:18081   */\n    tag_604:\n        /* \"#utility.yul\":17969:18087   */\n      pop\n      jump\t// out\n        /* \"#utility.yul\":18093:18228   */\n    tag_383:\n        /* \"#utility.yul\":18137:18142   */\n      0x00\n        /* \"#utility.yul\":18175:18181   */\n      dup2\n        /* \"#utility.yul\":18162:18182   */\n      calldataload\n        /* \"#utility.yul\":18153:18182   */\n      swap1\n      pop\n        /* \"#utility.yul\":18191:18222   */\n      tag_606\n        /* \"#utility.yul\":18216:18221   */\n      dup2\n        /* \"#utility.yul\":18191:18222   */\n      tag_382\n      jump\t// in\n    tag_606:\n        /* \"#utility.yul\":18093:18228   */\n      swap3\n      swap2\n      pop\n      pop\n      jump\t// out\n        /* \"#utility.yul\":18234:19355   */\n    tag_113:\n        /* \"#utility.yul\":18338:18344   */\n      0x00\n        /* \"#utility.yul\":18346:18352   */\n      0x00\n        /* \"#utility.yul\":18354:18360   */\n      0x00\n        /* \"#utility.yul\":18362:18368   */\n      0x00\n        /* \"#utility.yul\":18411:18414   */\n      0x80\n        /* \"#utility.yul\":18399:18408   */\n      dup6\n        /* \"#utility.yul\":18390:18397   */\n      dup8\n        /* \"#utility.yul\":18386:18409   */\n      sub\n        /* \"#utility.yul\":18382:18415   */\n      slt\n        /* \"#utility.yul\":18379:18499   */\n      iszero\n      tag_608\n      jumpi\n        /* \"#utility.yul\":18418:18497   */\n      tag_609\n      tag_334\n      jump\t// in\n    tag_609:\n        /* \"#utility.yul\":18379:18499   */\n    tag_608:\n        /* \"#utility.yul\":18538:18539   */\n      0x00\n        /* \"#utility.yul\":18563:18616   */\n      tag_610\n        /* \"#utility.yul\":18608:18615   */\n      dup8\n        /* \"#utility.yul\":18599:18605   */\n      dup3\n        /* \"#utility.yul\":18588:18597   */\n      dup9\n        /* \"#utility.yul\":18584:18606   */\n      add\n        /* \"#utility.yul\":18563:18616   */\n      tag_339\n      jump\t// in\n    tag_610:\n        /* \"#utility.yul\":18553:18616   */\n      swap5\n      pop\n        /* \"#utility.yul\":18509:18626   */\n      pop\n        /* \"#utility.yul\":18693:18695   */\n      0x20\n        /* \"#utility.yul\":18682:18691   */\n      dup6\n        /* \"#utility.yul\":18678:18696   */\n      add\n        /* \"#utility.yul\":18665:18697   */\n      calldataload\n        /* \"#utility.yul\":18724:18742   */\n      0xffffffffffffffff\n        /* \"#utility.yul\":18716:18722   */\n      dup2\n        /* \"#utility.yul\":18713:18743   */\n      gt\n        /* \"#utility.yul\":18710:18827   */\n      iszero\n      tag_611\n      jumpi\n        /* \"#utility.yul\":18746:18825   */\n      tag_612\n      tag_335\n      jump\t// in\n    tag_612:\n        /* \"#utility.yul\":18710:18827   */\n    tag_611:\n        /* \"#utility.yul\":18851:18914   */\n      tag_613\n        /* \"#utility.yul\":18906:18913   */\n      dup8\n        /* \"#utility.yul\":18897:18903   */\n      dup3\n        /* \"#utility.yul\":18886:18895   */\n      dup9\n        /* \"#utility.yul\":18882:18904   */\n      add\n        /* \"#utility.yul\":18851:18914   */\n      tag_358\n      jump\t// in\n    tag_613:\n        /* \"#utility.yul\":18841:18914   */\n      swap4\n      pop\n        /* \"#utility.yul\":18636:18924   */\n      pop\n        /* \"#utility.yul\":18991:18993   */\n      0x40\n        /* \"#utility.yul\":18980:18989   */\n      dup6\n        /* \"#utility.yul\":18976:18994   */\n      add\n        /* \"#utility.yul\":18963:18995   */\n      calldataload\n        /* \"#utility.yul\":19022:19040   */\n      0xffffffffffffffff\n        /* \"#utility.yul\":19014:19020   */\n      dup2\n        /* \"#utility.yul\":19011:19041   */\n      gt\n        /* \"#utility.yul\":19008:19125   */\n      iszero\n      tag_614\n      jumpi\n        /* \"#utility.yul\":19044:19123   */\n      tag_615\n      tag_335\n      jump\t// in\n    tag_615:\n        /* \"#utility.yul\":19008:19125   */\n    tag_614:\n        /* \"#utility.yul\":19149:19212   */\n      tag_616\n        /* \"#utility.yul\":19204:19211   */\n      dup8\n        /* \"#utility.yul\":19195:19201   */\n      dup3\n        /* \"#utility.yul\":19184:19193   */\n      dup9\n        /* \"#utility.yul\":19180:19202   */\n      add\n        /* \"#utility.yul\":19149:19212   */\n      tag_358\n      jump\t// in\n    tag_616:\n        /* \"#utility.yul\":19139:19212   */\n      swap3\n      pop\n        /* \"#utility.yul\":18934:19222   */\n      pop\n        /* \"#utility.yul\":19261:19263   */\n      0x60\n        /* \"#utility.yul\":19287:19338   */\n      tag_617\n        /* \"#utility.yul\":19330:19337   */\n      dup8\n        /* \"#utility.yul\":19321:19327   */\n      dup3\n        /* \"#utility.yul\":19310:19319   */\n      dup9\n        /* \"#utility.yul\":19306:19328   */\n      add\n        /* \"#utility.yul\":19287:19338   */\n      tag_383\n      jump\t// in\n    tag_617:\n        /* \"#utility.yul\":19277:19338   */\n      swap2\n      pop\n        /* \"#utility.yul\":19232:19348   */\n      pop\n        /* \"#utility.yul\":18234:19355   */\n      swap3\n      swap6\n      swap2\n      swap5\n      pop\n      swap3\n      pop\n      jump\t// out\n        /* \"#utility.yul\":19361:19541   */\n    tag_384:\n        /* \"#utility.yul\":19409:19486   */\n      0x4e487b7100000000000000000000000000000000000000000000000000000000\n        /* \"#utility.yul\":19406:19407   */\n      0x00\n        /* \"#utility.yul\":19399:19487   */\n      mstore\n        /* \"#utility.yul\":19506:19510   */\n      0x22\n        /* \"#utility.yul\":19503:19504   */\n      0x04\n        /* \"#utility.yul\":19496:19511   */\n      mstore\n        /* \"#utility.yul\":19530:19534   */\n      0x24\n        /* \"#utility.yul\":19527:19528   */\n      0x00\n        /* \"#utility.yul\":19520:19535   */\n      revert\n        /* \"#utility.yul\":19547:19867   */\n    tag_123:\n        /* \"#utility.yul\":19591:19597   */\n      0x00\n        /* \"#utility.yul\":19628:19629   */\n      0x02\n        /* \"#utility.yul\":19622:19626   */\n      dup3\n        /* \"#utility.yul\":19618:19630   */\n      div\n        /* \"#utility.yul\":19608:19630   */\n      swap1\n      pop\n        /* \"#utility.yul\":19675:19676   */\n      0x01\n        /* \"#utility.yul\":19669:19673   */\n      dup3\n        /* \"#utility.yul\":19665:19677   */\n      and\n        /* \"#utility.yul\":19696:19714   */\n      dup1\n        /* \"#utility.yul\":19686:19767   */\n      tag_620\n      jumpi\n        /* \"#utility.yul\":19752:19756   */\n      0x7f\n        /* \"#utility.yul\":19744:19750   */\n      dup3\n        /* \"#utility.yul\":19740:19757   */\n      and\n        /* \"#utility.yul\":19730:19757   */\n      swap2\n      pop\n        /* \"#utility.yul\":19686:19767   */\n    tag_620:\n        /* \"#utility.yul\":19814:19816   */\n      0x20\n        /* \"#utility.yul\":19806:19812   */\n      dup3\n        /* \"#utility.yul\":19803:19817   */\n      lt\n        /* \"#utility.yul\":19783:19801   */\n      dup2\n        /* \"#utility.yul\":19780:19818   */\n      sub\n        /* \"#utility.yul\":19777:19861   */\n      tag_621\n      jumpi\n        /* \"#utility.yul\":19833:19851   */\n      tag_622\n      tag_384\n      jump\t// in\n    tag_622:\n        /* \"#utility.yul\":19777:19861   */\n    tag_621:\n        /* \"#utility.yul\":19598:19867   */\n      pop\n        /* \"#utility.yul\":19547:19867   */\n      swap2\n      swap1\n      pop\n      jump\t// out\n        /* \"#utility.yul\":19873:20045   */\n    tag_385:\n        /* \"#utility.yul\":20013:20037   */\n      0x4f7074696f6e2063616e6e6f7420626520656d70747900000000000000000000\n        /* \"#utility.yul\":20009:20010   */\n      0x00\n        /* \"#utility.yul\":20001:20007   */\n      dup3\n        /* \"#utility.yul\":19997:20011   */\n      add\n        /* \"#utility.yul\":19990:20038   */\n      mstore\n        /* \"#utility.yul\":19873:20045   */\n      pop\n      jump\t// out\n        /* \"#utility.yul\":20051:20417   */\n    tag_386:\n        /* \"#utility.yul\":20193:20196   */\n      0x00\n        /* \"#utility.yul\":20214:20281   */\n      tag_625\n        /* \"#utility.yul\":20278:20280   */\n      0x16\n        /* \"#utility.yul\":20273:20276   */\n      dup4\n        /* \"#utility.yul\":20214:20281   */\n      tag_344\n      jump\t// in\n    tag_625:\n        /* \"#utility.yul\":20207:20281   */\n      swap2\n      pop\n        /* \"#utility.yul\":20290:20383   */\n      tag_626\n        /* \"#utility.yul\":20379:20382   */\n      dup3\n        /* \"#utility.yul\":20290:20383   */\n      tag_385\n      jump\t// in\n    tag_626:\n        /* \"#utility.yul\":20408:20410   */\n      0x20\n        /* \"#utility.yul\":20403:20406   */\n      dup3\n        /* \"#utility.yul\":20399:20411   */\n      add\n        /* \"#utility.yul\":20392:20411   */\n      swap1\n      pop\n        /* \"#utility.yul\":20051:20417   */\n      swap2\n      swap1\n      pop\n      jump\t// out\n        /* \"#utility.yul\":20423:20842   */\n    tag_139:\n        /* \"#utility.yul\":20589:20593   */\n      0x00\n        /* \"#utility.yul\":20627:20629   */\n      0x20\n        /* \"#utility.yul\":20616:20625   */\n      dup3\n        /* \"#utility.yul\":20612:20630   */\n      add\n        /* \"#utility.yul\":20604:20630   */\n      swap1\n      pop\n        /* \"#utility.yul\":20676:20685   */\n      dup2\n        /* \"#utility.yul\":20670:20674   */\n      dup2\n        /* \"#utility.yul\":20666:20686   */\n      sub\n        /* \"#utility.yul\":20662:20663   */\n      0x00\n        /* \"#utility.yul\":20651:20660   */\n      dup4\n        /* \"#utility.yul\":20647:20664   */\n      add\n        /* \"#utility.yul\":20640:20687   */\n      mstore\n        /* \"#utility.yul\":20704:20835   */\n      tag_628\n        /* \"#utility.yul\":20830:20834   */\n      dup2\n        /* \"#utility.yul\":20704:20835   */\n      tag_386\n      jump\t// in\n    tag_628:\n        /* \"#utility.yul\":20696:20835   */\n      swap1\n      pop\n        /* \"#utility.yul\":20423:20842   */\n      swap2\n      swap1\n      pop\n      jump\t// out\n        /* \"#utility.yul\":20848:21028   */\n    tag_145:\n        /* \"#utility.yul\":20896:20973   */\n      0x4e487b7100000000000000000000000000000000000000000000000000000000\n        /* \"#utility.yul\":20893:20894   */\n      0x00\n        /* \"#utility.yul\":20886:20974   */\n      mstore\n        /* \"#utility.yul\":20993:20997   */\n      0x32\n        /* \"#utility.yul\":20990:20991   */\n      0x04\n        /* \"#utility.yul\":20983:20998   */\n      mstore\n        /* \"#utility.yul\":21017:21021   */\n      0x24\n        /* \"#utility.yul\":21014:21015   */\n      0x00\n        /* \"#utility.yul\":21007:21022   */\n      revert\n        /* \"#utility.yul\":21034:21181   */\n    tag_387:\n        /* \"#utility.yul\":21135:21146   */\n      0x00\n        /* \"#utility.yul\":21172:21175   */\n      dup2\n        /* \"#utility.yul\":21157:21175   */\n      swap1\n      pop\n        /* \"#utility.yul\":21034:21181   */\n      swap3\n      swap2\n      pop\n      pop\n      jump\t// out\n        /* \"#utility.yul\":21187:21331   */\n    tag_388:\n        /* \"#utility.yul\":21239:21243   */\n      0x00\n        /* \"#utility.yul\":21262:21265   */\n      dup2\n        /* \"#utility.yul\":21254:21265   */\n      swap1\n      pop\n        /* \"#utility.yul\":21285:21288   */\n      dup2\n        /* \"#utility.yul\":21282:21283   */\n      0x00\n        /* \"#utility.yul\":21275:21289   */\n      mstore\n        /* \"#utility.yul\":21319:21323   */\n      0x20\n        /* \"#utility.yul\":21316:21317   */\n      0x00\n        /* \"#utility.yul\":21306:21324   */\n      keccak256\n        /* \"#utility.yul\":21298:21324   */\n      swap1\n      pop\n        /* \"#utility.yul\":21187:21331   */\n      swap2\n      swap1\n      pop\n      jump\t// out\n        /* \"#utility.yul\":21359:22237   */\n    tag_389:\n        /* \"#utility.yul\":21464:21467   */\n      0x00\n        /* \"#utility.yul\":21501:21506   */\n      dup2\n        /* \"#utility.yul\":21495:21507   */\n      sload\n        /* \"#utility.yul\":21530:21566   */\n      tag_633\n        /* \"#utility.yul\":21556:21565   */\n      dup2\n        /* \"#utility.yul\":21530:21566   */\n      tag_123\n      jump\t// in\n    tag_633:\n        /* \"#utility.yul\":21582:21670   */\n      tag_634\n        /* \"#utility.yul\":21663:21669   */\n      dup2\n        /* \"#utility.yul\":21658:21661   */\n      dup7\n        /* \"#utility.yul\":21582:21670   */\n      tag_387\n      jump\t// in\n    tag_634:\n        /* \"#utility.yul\":21575:21670   */\n      swap5\n      pop\n        /* \"#utility.yul\":21701:21702   */\n      0x01\n        /* \"#utility.yul\":21690:21699   */\n      dup3\n        /* \"#utility.yul\":21686:21703   */\n      and\n        /* \"#utility.yul\":21717:21718   */\n      0x00\n        /* \"#utility.yul\":21712:21878   */\n      dup2\n      eq\n      tag_636\n      jumpi\n        /* \"#utility.yul\":21892:21893   */\n      0x01\n        /* \"#utility.yul\":21887:22231   */\n      dup2\n      eq\n      tag_637\n      jumpi\n        /* \"#utility.yul\":21679:22231   */\n      jump(tag_635)\n        /* \"#utility.yul\":21712:21878   */\n    tag_636:\n        /* \"#utility.yul\":21796:21800   */\n      0xff\n        /* \"#utility.yul\":21792:21801   */\n      not\n        /* \"#utility.yul\":21781:21790   */\n      dup4\n        /* \"#utility.yul\":21777:21802   */\n      and\n        /* \"#utility.yul\":21772:21775   */\n      dup7\n        /* \"#utility.yul\":21765:21803   */\n      mstore\n        /* \"#utility.yul\":21858:21864   */\n      dup2\n        /* \"#utility.yul\":21851:21865   */\n      iszero\n        /* \"#utility.yul\":21844:21866   */\n      iszero\n        /* \"#utility.yul\":21836:21842   */\n      dup3\n        /* \"#utility.yul\":21832:21867   */\n      mul\n        /* \"#utility.yul\":21827:21830   */\n      dup7\n        /* \"#utility.yul\":21823:21868   */\n      add\n        /* \"#utility.yul\":21816:21868   */\n      swap4\n      pop\n        /* \"#utility.yul\":21712:21878   */\n      jump(tag_635)\n        /* \"#utility.yul\":21887:22231   */\n    tag_637:\n        /* \"#utility.yul\":21954:21995   */\n      tag_638\n        /* \"#utility.yul\":21989:21994   */\n      dup6\n        /* \"#utility.yul\":21954:21995   */\n      tag_388\n      jump\t// in\n    tag_638:\n        /* \"#utility.yul\":22017:22018   */\n      0x00\n        /* \"#utility.yul\":22031:22185   */\n    tag_639:\n        /* \"#utility.yul\":22045:22051   */\n      dup4\n        /* \"#utility.yul\":22042:22043   */\n      dup2\n        /* \"#utility.yul\":22039:22052   */\n      lt\n        /* \"#utility.yul\":22031:22185   */\n      iszero\n      tag_641\n      jumpi\n        /* \"#utility.yul\":22119:22126   */\n      dup2\n        /* \"#utility.yul\":22113:22127   */\n      sload\n        /* \"#utility.yul\":22109:22110   */\n      dup2\n        /* \"#utility.yul\":22104:22107   */\n      dup10\n        /* \"#utility.yul\":22100:22111   */\n      add\n        /* \"#utility.yul\":22093:22128   */\n      mstore\n        /* \"#utility.yul\":22169:22170   */\n      0x01\n        /* \"#utility.yul\":22160:22167   */\n      dup3\n        /* \"#utility.yul\":22156:22171   */\n      add\n        /* \"#utility.yul\":22145:22171   */\n      swap2\n      pop\n        /* \"#utility.yul\":22067:22071   */\n      0x20\n        /* \"#utility.yul\":22064:22065   */\n      dup2\n        /* \"#utility.yul\":22060:22072   */\n      add\n        /* \"#utility.yul\":22055:22072   */\n      swap1\n      pop\n        /* \"#utility.yul\":22031:22185   */\n      jump(tag_639)\n    tag_641:\n        /* \"#utility.yul\":22214:22220   */\n      dup4\n        /* \"#utility.yul\":22209:22212   */\n      dup9\n        /* \"#utility.yul\":22205:22221   */\n      add\n        /* \"#utility.yul\":22198:22221   */\n      swap6\n      pop\n        /* \"#utility.yul\":21894:22231   */\n      pop\n      pop\n        /* \"#utility.yul\":21679:22231   */\n    tag_635:\n      pop\n        /* \"#utility.yul\":21468:22237   */\n      pop\n      pop\n        /* \"#utility.yul\":21359:22237   */\n      swap3\n      swap2\n      pop\n      pop\n      jump\t// out\n        /* \"#utility.yul\":22243:22516   */\n    tag_148:\n        /* \"#utility.yul\":22374:22377   */\n      0x00\n        /* \"#utility.yul\":22396:22490   */\n      tag_643\n        /* \"#utility.yul\":22486:22489   */\n      dup3\n        /* \"#utility.yul\":22477:22483   */\n      dup5\n        /* \"#utility.yul\":22396:22490   */\n      tag_389\n      jump\t// in\n    tag_643:\n        /* \"#utility.yul\":22389:22490   */\n      swap2\n      pop\n        /* \"#utility.yul\":22507:22510   */\n      dup2\n        /* \"#utility.yul\":22500:22510   */\n      swap1\n      pop\n        /* \"#utility.yul\":22243:22516   */\n      swap3\n      swap2\n      pop\n      pop\n      jump\t// out\n        /* \"#utility.yul\":22522:22693   */\n    tag_390:\n        /* \"#utility.yul\":22662:22685   */\n      0x4f7074696f6e20616c7265616479206578697374730000000000000000000000\n        /* \"#utility.yul\":22658:22659   */\n      0x00\n        /* \"#utility.yul\":22650:22656   */\n      dup3\n        /* \"#utility.yul\":22646:22660   */\n      add\n        /* \"#utility.yul\":22639:22686   */\n      mstore\n        /* \"#utility.yul\":22522:22693   */\n      pop\n      jump\t// out\n        /* \"#utility.yul\":22699:23065   */\n    tag_391:\n        /* \"#utility.yul\":22841:22844   */\n      0x00\n        /* \"#utility.yul\":22862:22929   */\n      tag_646\n        /* \"#utility.yul\":22926:22928   */\n      0x15\n        /* \"#utility.yul\":22921:22924   */\n      dup4\n        /* \"#utility.yul\":22862:22929   */\n      tag_344\n      jump\t// in\n    tag_646:\n        /* \"#utility.yul\":22855:22929   */\n      swap2\n      pop\n        /* \"#utility.yul\":22938:23031   */\n      tag_647\n        /* \"#utility.yul\":23027:23030   */\n      dup3\n        /* \"#utility.yul\":22938:23031   */\n      tag_390\n      jump\t// in\n    tag_647:\n        /* \"#utility.yul\":23056:23058   */\n      0x20\n        /* \"#utility.yul\":23051:23054   */\n      dup3\n        /* \"#utility.yul\":23047:23059   */\n      add\n        /* \"#utility.yul\":23040:23059   */\n      swap1\n      pop\n        /* \"#utility.yul\":22699:23065   */\n      swap2\n      swap1\n      pop\n      jump\t// out\n        /* \"#utility.yul\":23071:23490   */\n    tag_151:\n        /* \"#utility.yul\":23237:23241   */\n      0x00\n        /* \"#utility.yul\":23275:23277   */\n      0x20\n        /* \"#utility.yul\":23264:23273   */\n      dup3\n        /* \"#utility.yul\":23260:23278   */\n      add\n        /* \"#utility.yul\":23252:23278   */\n      swap1\n      pop\n        /* \"#utility.yul\":23324:23333   */\n      dup2\n        /* \"#utility.yul\":23318:23322   */\n      dup2\n        /* \"#utility.yul\":23314:23334   */\n      sub\n        /* \"#utility.yul\":23310:23311   */\n      0x00\n        /* \"#utility.yul\":23299:23308   */\n      dup4\n        /* \"#utility.yul\":23295:23312   */\n      add\n        /* \"#utility.yul\":23288:23335   */\n      mstore\n        /* \"#utility.yul\":23352:23483   */\n      tag_649\n        /* \"#utility.yul\":23478:23482   */\n      dup2\n        /* \"#utility.yul\":23352:23483   */\n      tag_391\n      jump\t// in\n    tag_649:\n        /* \"#utility.yul\":23344:23483   */\n      swap1\n      pop\n        /* \"#utility.yul\":23071:23490   */\n      swap2\n      swap1\n      pop\n      jump\t// out\n        /* \"#utility.yul\":23496:23637   */\n    tag_392:\n        /* \"#utility.yul\":23545:23549   */\n      0x00\n        /* \"#utility.yul\":23568:23571   */\n      dup2\n        /* \"#utility.yul\":23560:23571   */\n      swap1\n      pop\n        /* \"#utility.yul\":23591:23594   */\n      dup2\n        /* \"#utility.yul\":23588:23589   */\n      0x00\n        /* \"#utility.yul\":23581:23595   */\n      mstore\n        /* \"#utility.yul\":23625:23629   */\n      0x20\n        /* \"#utility.yul\":23622:23623   */\n      0x00\n        /* \"#utility.yul\":23612:23630   */\n      keccak256\n        /* \"#utility.yul\":23604:23630   */\n      swap1\n      pop\n        /* \"#utility.yul\":23496:23637   */\n      swap2\n      swap1\n      pop\n      jump\t// out\n        /* \"#utility.yul\":23643:23736   */\n    tag_393:\n        /* \"#utility.yul\":23680:23686   */\n      0x00\n        /* \"#utility.yul\":23727:23729   */\n      0x20\n        /* \"#utility.yul\":23722:23724   */\n      0x1f\n        /* \"#utility.yul\":23715:23720   */\n      dup4\n        /* \"#utility.yul\":23711:23725   */\n      add\n        /* \"#utility.yul\":23707:23730   */\n      div\n        /* \"#utility.yul\":23697:23730   */\n      swap1\n      pop\n        /* \"#utility.yul\":23643:23736   */\n      swap2\n      swap1\n      pop\n      jump\t// out\n        /* \"#utility.yul\":23742:23849   */\n    tag_394:\n        /* \"#utility.yul\":23786:23794   */\n      0x00\n        /* \"#utility.yul\":23836:23841   */\n      dup3\n        /* \"#utility.yul\":23830:23834   */\n      dup3\n        /* \"#utility.yul\":23826:23842   */\n      shl\n        /* \"#utility.yul\":23805:23842   */\n      swap1\n      pop\n        /* \"#utility.yul\":23742:23849   */\n      swap3\n      swap2\n      pop\n      pop\n      jump\t// out\n        /* \"#utility.yul\":23855:24248   */\n    tag_395:\n        /* \"#utility.yul\":23924:23930   */\n      0x00\n        /* \"#utility.yul\":23974:23975   */\n      0x08\n        /* \"#utility.yul\":23962:23972   */\n      dup4\n        /* \"#utility.yul\":23958:23976   */\n      mul\n        /* \"#utility.yul\":23997:24094   */\n      tag_654\n        /* \"#utility.yul\":24027:24093   */\n      0xffffffffffffffffffffffffffffffffffffffffffffffffffffffffffffffff\n        /* \"#utility.yul\":24016:24025   */\n      dup3\n        /* \"#utility.yul\":23997:24094   */\n      tag_394\n      jump\t// in\n    tag_654:\n        /* \"#utility.yul\":24115:24154   */\n      tag_655\n        /* \"#utility.yul\":24145:24153   */\n      dup7\n        /* \"#utility.yul\":24134:24143   */\n      dup4\n        /* \"#utility.yul\":24115:24154   */\n      tag_394\n      jump\t// in\n    tag_655:\n        /* \"#utility.yul\":24103:24154   */\n      swap6\n      pop\n        /* \"#utility.yul\":24187:24191   */\n      dup1\n        /* \"#utility.yul\":24183:24192   */\n      not\n        /* \"#utility.yul\":24176:24181   */\n      dup5\n        /* \"#utility.yul\":24172:24193   */\n      and\n        /* \"#utility.yul\":24163:24193   */\n      swap4\n      pop\n        /* \"#utility.yul\":24236:24240   */\n      dup1\n        /* \"#utility.yul\":24226:24234   */\n      dup7\n        /* \"#utility.yul\":24222:24241   */\n      and\n        /* \"#utility.yul\":24215:24220   */\n      dup5\n        /* \"#utility.yul\":24212:24242   */\n      or\n        /* \"#utility.yul\":24202:24242   */\n      swap3\n      pop\n        /* \"#utility.yul\":23931:24248   */\n      pop\n      pop\n        /* \"#utility.yul\":23855:24248   */\n      swap4\n      swap3\n      pop\n      pop\n      pop\n      jump\t// out\n        /* \"#utility.yul\":24254:24314   */\n    tag_396:\n        /* \"#utility.yul\":24282:24285   */\n      0x00\n        /* \"#utility.yul\":24303:24308   */\n      dup2\n        /* \"#utility.yul\":24296:24308   */\n      swap1\n      pop\n        /* \"#utility.yul\":24254:24314   */\n      swap2\n      swap1\n      pop\n      jump\t// out\n        /* \"#utility.yul\":24320:24462   */\n    tag_397:\n        /* \"#utility.yul\":24370:24379   */\n      0x00\n        /* \"#utility.yul\":24403:24456   */\n      tag_658\n        /* \"#utility.yul\":24421:24455   */\n      tag_659\n        /* \"#utility.yul\":24430:24454   */\n      tag_660\n        /* \"#utility.yul\":24448:24453   */\n      dup5\n        /* \"#utility.yul\":24430:24454   */\n      tag_331\n      jump\t// in\n    tag_660:\n        /* \"#utility.yul\":24421:24455   */\n      tag_396\n      jump\t// in\n    tag_659:\n        /* \"#utility.yul\":24403:24456   */\n      tag_331\n      jump\t// in\n    tag_658:\n        /* \"#utility.yul\":24390:24456   */\n      swap1\n      pop\n        /* \"#utility.yul\":24320:24462   */\n      swap2\n      swap1\n      pop\n      jump\t// out\n        /* \"#utility.yul\":24468:24543   */\n    tag_398:\n        /* \"#utility.yul\":24511:24514   */\n      0x00\n        /* \"#utility.yul\":24532:24537   */\n      dup2\n        /* \"#utility.yul\":24525:24537   */\n      swap1\n      pop\n        /* \"#utility.yul\":24468:24543   */\n      swap2\n      swap1\n      pop\n      jump\t// out\n        /* \"#utility.yul\":24549:24818   */\n    tag_399:\n        /* \"#utility.yul\":24659:24698   */\n      tag_663\n        /* \"#utility.yul\":24690:24697   */\n      dup4\n        /* \"#utility.yul\":24659:24698   */\n      tag_397\n      jump\t// in\n    tag_663:\n        /* \"#utility.yul\":24720:24811   */\n      tag_664\n        /* \"#utility.yul\":24769:24810   */\n      tag_665\n        /* \"#utility.yul\":24793:24809   */\n      dup3\n        /* \"#utility.yul\":24769:24810   */\n      tag_398\n      jump\t// in\n    tag_665:\n        /* \"#utility.yul\":24761:24767   */\n      dup5\n        /* \"#utility.yul\":24754:24758   */\n      dup5\n        /* \"#utility.yul\":24748:24759   */\n      sload\n        /* \"#utility.yul\":24720:24811   */\n      tag_395\n      jump\t// in\n    tag_664:\n        /* \"#utility.yul\":24714:24718   */\n      dup3\n        /* \"#utility.yul\":24707:24812   */\n      sstore\n        /* \"#utility.yul\":24625:24818   */\n      pop\n        /* \"#utility.yul\":24549:24818   */\n      pop\n      pop\n      pop\n      jump\t// out\n        /* \"#utility.yul\":24824:24897   */\n    tag_400:\n        /* \"#utility.yul\":24869:24872   */\n      0x00\n        /* \"#utility.yul\":24890:24891   */\n      0x00\n        /* \"#utility.yul\":24883:24891   */\n      swap1\n      pop\n        /* \"#utility.yul\":24824:24897   */\n      swap1\n      jump\t// out\n        /* \"#utility.yul\":24903:25092   */\n    tag_401:\n        /* \"#utility.yul\":24980:25012   */\n      tag_668\n      tag_400\n      jump\t// in\n    tag_668:\n        /* \"#utility.yul\":25021:25086   */\n      tag_669\n        /* \"#utility.yul\":25079:25085   */\n      dup2\n        /* \"#utility.yul\":25071:25077   */\n      dup5\n        /* \"#utility.yul\":25065:25069   */\n      dup5\n        /* \"#utility.yul\":25021:25086   */\n      tag_399\n      jump\t// in\n    tag_669:\n        /* \"#utility.yul\":24956:25092   */\n      pop\n        /* \"#utility.yul\":24903:25092   */\n      pop\n      pop\n      jump\t// out\n        /* \"#utility.yul\":25098:25284   */\n    tag_402:\n        /* \"#utility.yul\":25158:25278   */\n    tag_671:\n        /* \"#utility.yul\":25175:25178   */\n      dup2\n        /* \"#utility.yul\":25168:25173   */\n      dup2\n        /* \"#utility.yul\":25165:25179   */\n      lt\n        /* \"#utility.yul\":25158:25278   */\n      iszero\n      tag_673\n      jumpi\n        /* \"#utility.yul\":25229:25268   */\n      tag_674\n        /* \"#utility.yul\":25266:25267   */\n      0x00\n        /* \"#utility.yul\":25259:25264   */\n      dup3\n        /* \"#utility.yul\":25229:25268   */\n      tag_401\n      jump\t// in\n    tag_674:\n        /* \"#utility.yul\":25202:25203   */\n      0x01\n        /* \"#utility.yul\":25195:25200   */\n      dup2\n        /* \"#utility.yul\":25191:25204   */\n      add\n        /* \"#utility.yul\":25182:25204   */\n      swap1\n      pop\n        /* \"#utility.yul\":25158:25278   */\n      jump(tag_671)\n    tag_673:\n        /* \"#utility.yul\":25098:25284   */\n      pop\n      pop\n      jump\t// out\n        /* \"#utility.yul\":25290:25833   */\n    tag_403:\n        /* \"#utility.yul\":25391:25393   */\n      0x1f\n        /* \"#utility.yul\":25386:25389   */\n      dup3\n        /* \"#utility.yul\":25383:25394   */\n      gt\n        /* \"#utility.yul\":25380:25826   */\n      iszero\n      tag_676\n      jumpi\n        /* \"#utility.yul\":25425:25463   */\n      tag_677\n        /* \"#utility.yul\":25457:25462   */\n      dup2\n        /* \"#utility.yul\":25425:25463   */\n      tag_392\n      jump\t// in\n    tag_677:\n        /* \"#utility.yul\":25509:25538   */\n      tag_678\n        /* \"#utility.yul\":25527:25537   */\n      dup5\n        /* \"#utility.yul\":25509:25538   */\n      tag_393\n      jump\t// in\n    tag_678:\n        /* \"#utility.yul\":25499:25507   */\n      dup2\n        /* \"#utility.yul\":25495:25539   */\n      add\n        /* \"#utility.yul\":25692:25694   */\n      0x20\n        /* \"#utility.yul\":25680:25690   */\n      dup6\n        /* \"#utility.yul\":25677:25695   */\n      lt\n        /* \"#utility.yul\":25674:25723   */\n      iszero\n      tag_679\n      jumpi\n        /* \"#utility.yul\":25713:25721   */\n      dup2\n        /* \"#utility.yul\":25698:25721   */\n      swap1\n      pop\n        /* \"#utility.yul\":25674:25723   */\n    tag_679:\n        /* \"#utility.yul\":25736:25816   */\n      tag_680\n        /* \"#utility.yul\":25792:25814   */\n      tag_681\n        /* \"#utility.yul\":25810:25813   */\n      dup6\n        /* \"#utility.yul\":25792:25814   */\n      tag_393\n      jump\t// in\n    tag_681:\n        /* \"#utility.yul\":25782:25790   */\n      dup4\n        /* \"#utility.yul\":25778:25815   */\n      add\n        /* \"#utility.yul\":25765:25776   */\n      dup3\n        /* \"#utility.yul\":25736:25816   */\n      tag_402\n      jump\t// in\n    tag_680:\n        /* \"#utility.yul\":25395:25826   */\n      pop\n      pop\n        /* \"#utility.yul\":25380:25826   */\n    tag_676:\n        /* \"#utility.yul\":25290:25833   */\n      pop\n      pop\n      pop\n      jump\t// out\n        /* \"#utility.yul\":25839:25956   */\n    tag_404:\n        /* \"#utility.yul\":25893:25901   */\n      0x00\n        /* \"#utility.yul\":25943:25948   */\n      dup3\n        /* \"#utility.yul\":25937:25941   */\n      dup3\n        /* \"#utility.yul\":25933:25949   */\n      shr\n        /* \"#utility.yul\":25912:25949   */\n      swap1\n      pop\n        /* \"#utility.yul\":25839:25956   */\n      swap3\n      swap2\n      pop\n      pop\n      jump\t// out\n        /* \"#utility.yul\":25962:26131   */\n    tag_405:\n        /* \"#utility.yul\":26006:26012   */\n      0x00\n        /* \"#utility.yul\":26039:26090   */\n      tag_684\n        /* \"#utility.yul\":26087:26088   */\n      0x00\n        /* \"#utility.yul\":26083:26089   */\n      not\n        /* \"#utility.yul\":26075:26080   */\n      dup5\n        /* \"#utility.yul\":26072:26073   */\n      0x08\n        /* \"#utility.yul\":26068:26081   */\n      mul\n        /* \"#utility.yul\":26039:26090   */\n      tag_404\n      jump\t// in\n    tag_684:\n        /* \"#utility.yul\":26035:26091   */\n      not\n        /* \"#utility.yul\":26120:26124   */\n      dup1\n        /* \"#utility.yul\":26114:26118   */\n      dup4\n        /* \"#utility.yul\":26110:26125   */\n      and\n        /* \"#utility.yul\":26100:26125   */\n      swap2\n      pop\n        /* \"#utility.yul\":26013:26131   */\n      pop\n        /* \"#utility.yul\":25962:26131   */\n      swap3\n      swap2\n      pop\n      pop\n      jump\t// out\n        /* \"#utility.yul\":26136:26431   */\n    tag_406:\n        /* \"#utility.yul\":26212:26216   */\n      0x00\n        /* \"#utility.yul\":26358:26387   */\n      tag_686\n        /* \"#utility.yul\":26383:26386   */\n      dup4\n        /* \"#utility.yul\":26377:26381   */\n      dup4\n        /* \"#utility.yul\":26358:26387   */\n      tag_405\n      jump\t// in\n    tag_686:\n        /* \"#utility.yul\":26350:26387   */\n      swap2\n      pop\n        /* \"#utility.yul\":26420:26423   */\n      dup3\n        /* \"#utility.yul\":26417:26418   */\n      0x02\n        /* \"#utility.yul\":26413:26424   */\n      mul\n        /* \"#utility.yul\":26407:26411   */\n      dup3\n        /* \"#utility.yul\":26404:26425   */\n      or\n        /* \"#utility.yul\":26396:26425   */\n      swap1\n      pop\n        /* \"#utility.yul\":26136:26431   */\n      swap3\n      swap2\n      pop\n      pop\n      jump\t// out\n        /* \"#utility.yul\":26436:27831   */\n    tag_156:\n        /* \"#utility.yul\":26553:26590   */\n      tag_688\n        /* \"#utility.yul\":26586:26589   */\n      dup3\n        /* \"#utility.yul\":26553:26590   */\n      tag_343\n      jump\t// in\n    tag_688:\n        /* \"#utility.yul\":26655:26673   */\n      0xffffffffffffffff\n        /* \"#utility.yul\":26647:26653   */\n      dup2\n        /* \"#utility.yul\":26644:26674   */\n      gt\n        /* \"#utility.yul\":26641:26697   */\n      iszero\n      tag_689\n      jumpi\n        /* \"#utility.yul\":26677:26695   */\n      tag_690\n      tag_352\n      jump\t// in\n    tag_690:\n        /* \"#utility.yul\":26641:26697   */\n    tag_689:\n        /* \"#utility.yul\":26721:26759   */\n      tag_691\n        /* \"#utility.yul\":26753:26757   */\n      dup3\n        /* \"#utility.yul\":26747:26758   */\n      sload\n        /* \"#utility.yul\":26721:26759   */\n      tag_123\n      jump\t// in\n    tag_691:\n        /* \"#utility.yul\":26806:26873   */\n      tag_692\n        /* \"#utility.yul\":26866:26872   */\n      dup3\n        /* \"#utility.yul\":26858:26864   */\n      dup3\n        /* \"#utility.yul\":26852:26856   */\n      dup6\n        /* \"#utility.yul\":26806:26873   */\n      tag_403\n      jump\t// in\n    tag_692:\n        /* \"#utility.yul\":26900:26901   */\n      0x00\n        /* \"#utility.yul\":26924:26928   */\n      0x20\n        /* \"#utility.yul\":26911:26928   */\n      swap1\n      pop\n        /* \"#utility.yul\":26956:26958   */\n      0x1f\n        /* \"#utility.yul\":26948:26954   */\n      dup4\n        /* \"#utility.yul\":26945:26959   */\n      gt\n        /* \"#utility.yul\":26973:26974   */\n      0x01\n        /* \"#utility.yul\":26968:27586   */\n      dup2\n      eq\n      tag_694\n      jumpi\n        /* \"#utility.yul\":27630:27631   */\n      0x00\n        /* \"#utility.yul\":27647:27653   */\n      dup5\n        /* \"#utility.yul\":27644:27721   */\n      iszero\n      tag_695\n      jumpi\n        /* \"#utility.yul\":27696:27705   */\n      dup3\n        /* \"#utility.yul\":27691:27694   */\n      dup8\n        /* \"#utility.yul\":27687:27706   */\n      add\n        /* \"#utility.yul\":27681:27707   */\n      mload\n        /* \"#utility.yul\":27672:27707   */\n      swap1\n      pop\n        /* \"#utility.yul\":27644:27721   */\n    tag_695:\n        /* \"#utility.yul\":27747:27814   */\n      tag_696\n        /* \"#utility.yul\":27807:27813   */\n      dup6\n        /* \"#utility.yul\":27800:27805   */\n      dup3\n        /* \"#utility.yul\":27747:27814   */\n      tag_406\n      jump\t// in\n    tag_696:\n        /* \"#utility.yul\":27741:27745   */\n      dup7\n        /* \"#utility.yul\":27734:27815   */\n      sstore\n        /* \"#utility.yul\":27603:27825   */\n      pop\n        /* \"#utility.yul\":26938:27825   */\n      jump(tag_693)\n        /* \"#utility.yul\":26968:27586   */\n    tag_694:\n        /* \"#utility.yul\":27020:27024   */\n      0x1f\n        /* \"#utility.yul\":27016:27025   */\n      not\n        /* \"#utility.yul\":27008:27014   */\n      dup5\n        /* \"#utility.yul\":27004:27026   */\n      and\n        /* \"#utility.yul\":27054:27091   */\n      tag_697\n        /* \"#utility.yul\":27086:27090   */\n      dup7\n        /* \"#utility.yul\":27054:27091   */\n      tag_392\n      jump\t// in\n    tag_697:\n        /* \"#utility.yul\":27113:27114   */\n      0x00\n        /* \"#utility.yul\":27127:27335   */\n    tag_698:\n        /* \"#utility.yul\":27141:27148   */\n      dup3\n        /* \"#utility.yul\":27138:27139   */\n      dup2\n        /* \"#utility.yul\":27135:27149   */\n      lt\n        /* \"#utility.yul\":27127:27335   */\n      iszero\n      tag_700\n      jumpi\n        /* \"#utility.yul\":27220:27229   */\n      dup5\n        /* \"#utility.yul\":27215:27218   */\n      dup10\n        /* \"#utility.yul\":27211:27230   */\n      add\n        /* \"#utility.yul\":27205:27231   */\n      mload\n        /* \"#utility.yul\":27197:27203   */\n      dup3\n        /* \"#utility.yul\":27190:27232   */\n      sstore\n        /* \"#utility.yul\":27271:27272   */\n      0x01\n        /* \"#utility.yul\":27263:27269   */\n      dup3\n        /* \"#utility.yul\":27259:27273   */\n      add\n        /* \"#utility.yul\":27249:27273   */\n      swap2\n      pop\n        /* \"#utility.yul\":27318:27320   */\n      0x20\n        /* \"#utility.yul\":27307:27316   */\n      dup6\n        /* \"#utility.yul\":27303:27321   */\n      add\n        /* \"#utility.yul\":27290:27321   */\n      swap5\n      pop\n        /* \"#utility.yul\":27164:27168   */\n      0x20\n        /* \"#utility.yul\":27161:27162   */\n      dup2\n        /* \"#utility.yul\":27157:27169   */\n      add\n        /* \"#utility.yul\":27152:27169   */\n      swap1\n      pop\n        /* \"#utility.yul\":27127:27335   */\n      jump(tag_698)\n    tag_700:\n        /* \"#utility.yul\":27363:27369   */\n      dup7\n        /* \"#utility.yul\":27354:27361   */\n      dup4\n        /* \"#utility.yul\":27351:27370   */\n      lt\n        /* \"#utility.yul\":27348:27527   */\n      iszero\n      tag_701\n      jumpi\n        /* \"#utility.yul\":27421:27430   */\n      dup5\n        /* \"#utility.yul\":27416:27419   */\n      dup10\n        /* \"#utility.yul\":27412:27431   */\n      add\n        /* \"#utility.yul\":27406:27432   */\n      mload\n        /* \"#utility.yul\":27464:27512   */\n      tag_702\n        /* \"#utility.yul\":27506:27510   */\n      0x1f\n        /* \"#utility.yul\":27498:27504   */\n      dup10\n        /* \"#utility.yul\":27494:27511   */\n      and\n        /* \"#utility.yul\":27483:27492   */\n      dup3\n        /* \"#utility.yul\":27464:27512   */\n      tag_405\n      jump\t// in\n    tag_702:\n        /* \"#utility.yul\":27456:27462   */\n      dup4\n        /* \"#utility.yul\":27449:27513   */\n      sstore\n        /* \"#utility.yul\":27371:27527   */\n      pop\n        /* \"#utility.yul\":27348:27527   */\n    tag_701:\n        /* \"#utility.yul\":27573:27574   */\n      0x01\n        /* \"#utility.yul\":27569:27570   */\n      0x02\n        /* \"#utility.yul\":27561:27567   */\n      dup9\n        /* \"#utility.yul\":27557:27571   */\n      mul\n        /* \"#utility.yul\":27553:27575   */\n      add\n        /* \"#utility.yul\":27547:27551   */\n      dup9\n        /* \"#utility.yul\":27540:27576   */\n      sstore\n        /* \"#utility.yul\":26975:27586   */\n      pop\n      pop\n      pop\n        /* \"#utility.yul\":26938:27825   */\n    tag_693:\n      pop\n        /* \"#utility.yul\":26528:27831   */\n      pop\n      pop\n      pop\n        /* \"#utility.yul\":26436:27831   */\n      pop\n      pop\n      jump\t// out\n        /* \"#utility.yul\":27837:27951   */\n    tag_407:\n      pop\n      jump\t// out\n        /* \"#utility.yul\":27957:28355   */\n    tag_408:\n        /* \"#utility.yul\":28116:28119   */\n      0x00\n        /* \"#utility.yul\":28137:28220   */\n      tag_705\n        /* \"#utility.yul\":28218:28219   */\n      0x00\n        /* \"#utility.yul\":28213:28216   */\n      dup4\n        /* \"#utility.yul\":28137:28220   */\n      tag_387\n      jump\t// in\n    tag_705:\n        /* \"#utility.yul\":28130:28220   */\n      swap2\n      pop\n        /* \"#utility.yul\":28229:28322   */\n      tag_706\n        /* \"#utility.yul\":28318:28321   */\n      dup3\n        /* \"#utility.yul\":28229:28322   */\n      tag_407\n      jump\t// in\n    tag_706:\n        /* \"#utility.yul\":28347:28348   */\n      0x00\n        /* \"#utility.yul\":28342:28345   */\n      dup3\n        /* \"#utility.yul\":28338:28349   */\n      add\n        /* \"#utility.yul\":28331:28349   */\n      swap1\n      pop\n        /* \"#utility.yul\":27957:28355   */\n      swap2\n      swap1\n      pop\n      jump\t// out\n        /* \"#utility.yul\":28361:28740   */\n    tag_163:\n        /* \"#utility.yul\":28545:28548   */\n      0x00\n        /* \"#utility.yul\":28567:28714   */\n      tag_708\n        /* \"#utility.yul\":28710:28713   */\n      dup3\n        /* \"#utility.yul\":28567:28714   */\n      tag_408\n      jump\t// in\n    tag_708:\n        /* \"#utility.yul\":28560:28714   */\n      swap2\n      pop\n        /* \"#utility.yul\":28731:28734   */\n      dup2\n        /* \"#utility.yul\":28724:28734   */\n      swap1\n      pop\n        /* \"#utility.yul\":28361:28740   */\n      swap2\n      swap1\n      pop\n      jump\t// out\n        /* \"#utility.yul\":28746:28902   */\n    tag_409:\n        /* \"#utility.yul\":28886:28894   */\n      0x4661696c65640000000000000000000000000000000000000000000000000000\n        /* \"#utility.yul\":28882:28883   */\n      0x00\n        /* \"#utility.yul\":28874:28880   */\n      dup3\n        /* \"#utility.yul\":28870:28884   */\n      add\n        /* \"#utility.yul\":28863:28895   */\n      mstore\n        /* \"#utility.yul\":28746:28902   */\n      pop\n      jump\t// out\n        /* \"#utility.yul\":28908:29273   */\n    tag_410:\n        /* \"#utility.yul\":29050:29053   */\n      0x00\n        /* \"#utility.yul\":29071:29137   */\n      tag_711\n        /* \"#utility.yul\":29135:29136   */\n      0x06\n        /* \"#utility.yul\":29130:29133   */\n      dup4\n        /* \"#utility.yul\":29071:29137   */\n      tag_344\n      jump\t// in\n    tag_711:\n        /* \"#utility.yul\":29064:29137   */\n      swap2\n      pop\n        /* \"#utility.yul\":29146:29239   */\n      tag_712\n        /* \"#utility.yul\":29235:29238   */\n      dup3\n        /* \"#utility.yul\":29146:29239   */\n      tag_409\n      jump\t// in\n    tag_712:\n        /* \"#utility.yul\":29264:29266   */\n      0x20\n        /* \"#utility.yul\":29259:29262   */\n      dup3\n        /* \"#utility.yul\":29255:29267   */\n      add\n        /* \"#utility.yul\":29248:29267   */\n      swap1\n      pop\n        /* \"#utility.yul\":28908:29273   */\n      swap2\n      swap1\n      pop\n      jump\t// out\n        /* \"#utility.yul\":29279:29698   */\n    tag_169:\n        /* \"#utility.yul\":29445:29449   */\n      0x00\n        /* \"#utility.yul\":29483:29485   */\n      0x20\n        /* \"#utility.yul\":29472:29481   */\n      dup3\n        /* \"#utility.yul\":29468:29486   */\n      add\n        /* \"#utility.yul\":29460:29486   */\n      swap1\n      pop\n        /* \"#utility.yul\":29532:29541   */\n      dup2\n        /* \"#utility.yul\":29526:29530   */\n      dup2\n        /* \"#utility.yul\":29522:29542   */\n      sub\n        /* \"#utility.yul\":29518:29519   */\n      0x00\n        /* \"#utility.yul\":29507:29516   */\n      dup4\n        /* \"#utility.yul\":29503:29520   */\n      add\n        /* \"#utility.yul\":29496:29543   */\n      mstore\n        /* \"#utility.yul\":29560:29691   */\n      tag_714\n        /* \"#utility.yul\":29686:29690   */\n      dup2\n        /* \"#utility.yul\":29560:29691   */\n      tag_410\n      jump\t// in\n    tag_714:\n        /* \"#utility.yul\":29552:29691   */\n      swap1\n      pop\n        /* \"#utility.yul\":29279:29698   */\n      swap2\n      swap1\n      pop\n      jump\t// out\n        /* \"#utility.yul\":29704:29929   */\n    tag_411:\n        /* \"#utility.yul\":29844:29878   */\n      0x4f776e61626c653a206e6577206f776e657220697320746865207a65726f2061\n        /* \"#utility.yul\":29840:29841   */\n      0x00\n        /* \"#utility.yul\":29832:29838   */\n      dup3\n        /* \"#utility.yul\":29828:29842   */\n      add\n        /* \"#utility.yul\":29821:29879   */\n      mstore\n        /* \"#utility.yul\":29913:29921   */\n      0x6464726573730000000000000000000000000000000000000000000000000000\n        /* \"#utility.yul\":29908:29910   */\n      0x20\n        /* \"#utility.yul\":29900:29906   */\n      dup3\n        /* \"#utility.yul\":29896:29911   */\n      add\n        /* \"#utility.yul\":29889:29922   */\n      mstore\n        /* \"#utility.yul\":29704:29929   */\n      pop\n      jump\t// out\n        /* \"#utility.yul\":29935:30301   */\n    tag_412:\n        /* \"#utility.yul\":30077:30080   */\n      0x00\n        /* \"#utility.yul\":30098:30165   */\n      tag_717\n        /* \"#utility.yul\":30162:30164   */\n      0x26\n        /* \"#utility.yul\":30157:30160   */\n      dup4\n        /* \"#utility.yul\":30098:30165   */\n      tag_344\n      jump\t// in\n    tag_717:\n        /* \"#utility.yul\":30091:30165   */\n      swap2\n      pop\n        /* \"#utility.yul\":30174:30267   */\n      tag_718\n        /* \"#utility.yul\":30263:30266   */\n      dup3\n        /* \"#utility.yul\":30174:30267   */\n      tag_411\n      jump\t// in\n    tag_718:\n        /* \"#utility.yul\":30292:30294   */\n      0x40\n        /* \"#utility.yul\":30287:30290   */\n      dup3\n        /* \"#utility.yul\":30283:30295   */\n      add\n        /* \"#utility.yul\":30276:30295   */\n      swap1\n      pop\n        /* \"#utility.yul\":29935:30301   */\n      swap2\n      swap1\n      pop\n      jump\t// out\n        /* \"#utility.yul\":30307:30726   */\n    tag_252:\n        /* \"#utility.yul\":30473:30477   */\n      0x00\n        /* \"#utility.yul\":30511:30513   */\n      0x20\n        /* \"#utility.yul\":30500:30509   */\n      dup3\n        /* \"#utility.yul\":30496:30514   */\n      add\n        /* \"#utility.yul\":30488:30514   */\n      swap1\n      pop\n        /* \"#utility.yul\":30560:30569   */\n      dup2\n        /* \"#utility.yul\":30554:30558   */\n      dup2\n        /* \"#utility.yul\":30550:30570   */\n      sub\n        /* \"#utility.yul\":30546:30547   */\n      0x00\n        /* \"#utility.yul\":30535:30544   */\n      dup4\n        /* \"#utility.yul\":30531:30548   */\n      add\n        /* \"#utility.yul\":30524:30571   */\n      mstore\n        /* \"#utility.yul\":30588:30719   */\n      tag_720\n        /* \"#utility.yul\":30714:30718   */\n      dup2\n        /* \"#utility.yul\":30588:30719   */\n      tag_412\n      jump\t// in\n    tag_720:\n        /* \"#utility.yul\":30580:30719   */\n      swap1\n      pop\n        /* \"#utility.yul\":30307:30726   */\n      swap2\n      swap1\n      pop\n      jump\t// out\n        /* \"#utility.yul\":30732:30904   */\n    tag_413:\n        /* \"#utility.yul\":30872:30896   */\n      0x496e76616c696420746172676574206164647265737300000000000000000000\n        /* \"#utility.yul\":30868:30869   */\n      0x00\n        /* \"#utility.yul\":30860:30866   */\n      dup3\n        /* \"#utility.yul\":30856:30870   */\n      add\n        /* \"#utility.yul\":30849:30897   */\n      mstore\n        /* \"#utility.yul\":30732:30904   */\n      pop\n      jump\t// out\n        /* \"#utility.yul\":30910:31276   */\n    tag_414:\n        /* \"#utility.yul\":31052:31055   */\n      0x00\n        /* \"#utility.yul\":31073:31140   */\n      tag_723\n        /* \"#utility.yul\":31137:31139   */\n      0x16\n        /* \"#utility.yul\":31132:31135   */\n      dup4\n        /* \"#utility.yul\":31073:31140   */\n      tag_344\n      jump\t// in\n    tag_723:\n        /* \"#utility.yul\":31066:31140   */\n      swap2\n      pop\n        /* \"#utility.yul\":31149:31242   */\n      tag_724\n        /* \"#utility.yul\":31238:31241   */\n      dup3\n        /* \"#utility.yul\":31149:31242   */\n      tag_413\n      jump\t// in\n    tag_724:\n        /* \"#utility.yul\":31267:31269   */\n      0x20\n        /* \"#utility.yul\":31262:31265   */\n      dup3\n        /* \"#utility.yul\":31258:31270   */\n      add\n        /* \"#utility.yul\":31251:31270   */\n      swap1\n      pop\n        /* \"#utility.yul\":30910:31276   */\n      swap2\n      swap1\n      pop\n      jump\t// out\n        /* \"#utility.yul\":31282:31701   */\n    tag_257:\n        /* \"#utility.yul\":31448:31452   */\n      0x00\n        /* \"#utility.yul\":31486:31488   */\n      0x20\n        /* \"#utility.yul\":31475:31484   */\n      dup3\n        /* \"#utility.yul\":31471:31489   */\n      add\n        /* \"#utility.yul\":31463:31489   */\n      swap1\n      pop\n        /* \"#utility.yul\":31535:31544   */\n      dup2\n        /* \"#utility.yul\":31529:31533   */\n      dup2\n        /* \"#utility.yul\":31525:31545   */\n      sub\n        /* \"#utility.yul\":31521:31522   */\n      0x00\n        /* \"#utility.yul\":31510:31519   */\n      dup4\n        /* \"#utility.yul\":31506:31523   */\n      add\n        /* \"#utility.yul\":31499:31546   */\n      mstore\n        /* \"#utility.yul\":31563:31694   */\n      tag_726\n        /* \"#utility.yul\":31689:31693   */\n      dup2\n        /* \"#utility.yul\":31563:31694   */\n      tag_414\n      jump\t// in\n    tag_726:\n        /* \"#utility.yul\":31555:31694   */\n      swap1\n      pop\n        /* \"#utility.yul\":31282:31701   */\n      swap2\n      swap1\n      pop\n      jump\t// out\n        /* \"#utility.yul\":31707:31880   */\n    tag_415:\n        /* \"#utility.yul\":31847:31872   */\n      0x43616e6e6f7420656e646f72736520796f757273656c66000000000000000000\n        /* \"#utility.yul\":31843:31844   */\n      0x00\n        /* \"#utility.yul\":31835:31841   */\n      dup3\n        /* \"#utility.yul\":31831:31845   */\n      add\n        /* \"#utility.yul\":31824:31873   */\n      mstore\n        /* \"#utility.yul\":31707:31880   */\n      pop\n      jump\t// out\n        /* \"#utility.yul\":31886:32252   */\n    tag_416:\n        /* \"#utility.yul\":32028:32031   */\n      0x00\n        /* \"#utility.yul\":32049:32116   */\n      tag_729\n        /* \"#utility.yul\":32113:32115   */\n      0x17\n        /* \"#utility.yul\":32108:32111   */\n      dup4\n        /* \"#utility.yul\":32049:32116   */\n      tag_344\n      jump\t// in\n    tag_729:\n        /* \"#utility.yul\":32042:32116   */\n      swap2\n      pop\n        /* \"#utility.yul\":32125:32218   */\n      tag_730\n        /* \"#utility.yul\":32214:32217   */\n      dup3\n        /* \"#utility.yul\":32125:32218   */\n      tag_415\n      jump\t// in\n    tag_730:\n        /* \"#utility.yul\":32243:32245   */\n      0x20\n        /* \"#utility.yul\":32238:32241   */\n      dup3\n        /* \"#utility.yul\":32234:32246   */\n      add\n        /* \"#utility.yul\":32227:32246   */\n      swap1\n      pop\n        /* \"#utility.yul\":31886:32252   */\n      swap2\n      swap1\n      pop\n      jump\t// out\n        /* \"#utility.yul\":32258:32677   */\n    tag_262:\n        /* \"#utility.yul\":32424:32428   */\n      0x00\n        /* \"#utility.yul\":32462:32464   */\n      0x20\n        /* \"#utility.yul\":32451:32460   */\n      dup3\n        /* \"#utility.yul\":32447:32465   */\n      add\n        /* \"#utility.yul\":32439:32465   */\n      swap1\n      pop\n        /* \"#utility.yul\":32511:32520   */\n      dup2\n        /* \"#utility.yul\":32505:32509   */\n      dup2\n        /* \"#utility.yul\":32501:32521   */\n      sub\n        /* \"#utility.yul\":32497:32498   */\n      0x00\n        /* \"#utility.yul\":32486:32495   */\n      dup4\n        /* \"#utility.yul\":32482:32499   */\n      add\n        /* \"#utility.yul\":32475:32522   */\n      mstore\n        /* \"#utility.yul\":32539:32670   */\n      tag_732\n        /* \"#utility.yul\":32665:32669   */\n      dup2\n        /* \"#utility.yul\":32539:32670   */\n      tag_416\n      jump\t// in\n    tag_732:\n        /* \"#utility.yul\":32531:32670   */\n      swap1\n      pop\n        /* \"#utility.yul\":32258:32677   */\n      swap2\n      swap1\n      pop\n      jump\t// out\n        /* \"#utility.yul\":32683:32862   */\n    tag_417:\n        /* \"#utility.yul\":32823:32854   */\n      0x53636f7265206d757374206265206265747765656e203120616e642035000000\n        /* \"#utility.yul\":32819:32820   */\n      0x00\n        /* \"#utility.yul\":32811:32817   */\n      dup3\n        /* \"#utility.yul\":32807:32821   */\n      add\n        /* \"#utility.yul\":32800:32855   */\n      mstore\n        /* \"#utility.yul\":32683:32862   */\n      pop\n      jump\t// out\n        /* \"#utility.yul\":32868:33234   */\n    tag_418:\n        /* \"#utility.yul\":33010:33013   */\n      0x00\n        /* \"#utility.yul\":33031:33098   */\n      tag_735\n        /* \"#utility.yul\":33095:33097   */\n      0x1d\n        /* \"#utility.yul\":33090:33093   */\n      dup4\n        /* \"#utility.yul\":33031:33098   */\n      tag_344\n      jump\t// in\n    tag_735:\n        /* \"#utility.yul\":33024:33098   */\n      swap2\n      pop\n        /* \"#utility.yul\":33107:33200   */\n      tag_736\n        /* \"#utility.yul\":33196:33199   */\n      dup3\n        /* \"#utility.yul\":33107:33200   */\n      tag_417\n      jump\t// in\n    tag_736:\n        /* \"#utility.yul\":33225:33227   */\n      0x20\n        /* \"#utility.yul\":33220:33223   */\n      dup3\n        /* \"#utility.yul\":33216:33228   */\n      add\n        /* \"#utility.yul\":33209:33228   */\n      swap1\n      pop\n        /* \"#utility.yul\":32868:33234   */\n      swap2\n      swap1\n      pop\n      jump\t// out\n        /* \"#utility.yul\":33240:33659   */\n    tag_266:\n        /* \"#utility.yul\":33406:33410   */\n      0x00\n        /* \"#utility.yul\":33444:33446   */\n      0x20\n        /* \"#utility.yul\":33433:33442   */\n      dup3\n        /* \"#utility.yul\":33429:33447   */\n      add\n        /* \"#utility.yul\":33421:33447   */\n      swap1\n      pop\n        /* \"#utility.yul\":33493:33502   */\n      dup2\n        /* \"#utility.yul\":33487:33491   */\n      dup2\n        /* \"#utility.yul\":33483:33503   */\n      sub\n        /* \"#utility.yul\":33479:33480   */\n      0x00\n        /* \"#utility.yul\":33468:33477   */\n      dup4\n        /* \"#utility.yul\":33464:33481   */\n      add\n        /* \"#utility.yul\":33457:33504   */\n      mstore\n        /* \"#utility.yul\":33521:33652   */\n      tag_738\n        /* \"#utility.yul\":33647:33651   */\n      dup2\n        /* \"#utility.yul\":33521:33652   */\n      tag_418\n      jump\t// in\n    tag_738:\n        /* \"#utility.yul\":33513:33652   */\n      swap1\n      pop\n        /* \"#utility.yul\":33240:33659   */\n      swap2\n      swap1\n      pop\n      jump\t// out\n        /* \"#utility.yul\":33665:33841   */\n    tag_419:\n        /* \"#utility.yul\":33805:33833   */\n      0x496e76616c696420656e646f7273656d656e74206f7074696f6e000000000000\n        /* \"#utility.yul\":33801:33802   */\n      0x00\n        /* \"#utility.yul\":33793:33799   */\n      dup3\n        /* \"#utility.yul\":33789:33803   */\n      add\n        /* \"#utility.yul\":33782:33834   */\n      mstore\n        /* \"#utility.yul\":33665:33841   */\n      pop\n      jump\t// out\n        /* \"#utility.yul\":33847:34213   */\n    tag_420:\n        /* \"#utility.yul\":33989:33992   */\n      0x00\n        /* \"#utility.yul\":34010:34077   */\n      tag_741\n        /* \"#utility.yul\":34074:34076   */\n      0x1a\n        /* \"#utility.yul\":34069:34072   */\n      dup4\n        /* \"#utility.yul\":34010:34077   */\n      tag_344\n      jump\t// in\n    tag_741:\n        /* \"#utility.yul\":34003:34077   */\n      swap2\n      pop\n        /* \"#utility.yul\":34086:34179   */\n      tag_742\n        /* \"#utility.yul\":34175:34178   */\n      dup3\n        /* \"#utility.yul\":34086:34179   */\n      tag_419\n      jump\t// in\n    tag_742:\n        /* \"#utility.yul\":34204:34206   */\n      0x20\n        /* \"#utility.yul\":34199:34202   */\n      dup3\n        /* \"#utility.yul\":34195:34207   */\n      add\n        /* \"#utility.yul\":34188:34207   */\n      swap1\n      pop\n        /* \"#utility.yul\":33847:34213   */\n      swap2\n      swap1\n      pop\n      jump\t// out\n        /* \"#utility.yul\":34219:34638   */\n    tag_277:\n        /* \"#utility.yul\":34385:34389   */\n      0x00\n        /* \"#utility.yul\":34423:34425   */\n      0x20\n        /* \"#utility.yul\":34412:34421   */\n      dup3\n        /* \"#utility.yul\":34408:34426   */\n      add\n        /* \"#utility.yul\":34400:34426   */\n      swap1\n      pop\n        /* \"#utility.yul\":34472:34481   */\n      dup2\n        /* \"#utility.yul\":34466:34470   */\n      dup2\n        /* \"#utility.yul\":34462:34482   */\n      sub\n        /* \"#utility.yul\":34458:34459   */\n      0x00\n        /* \"#utility.yul\":34447:34456   */\n      dup4\n        /* \"#utility.yul\":34443:34460   */\n      add\n        /* \"#utility.yul\":34436:34483   */\n      mstore\n        /* \"#utility.yul\":34500:34631   */\n      tag_744\n        /* \"#utility.yul\":34626:34630   */\n      dup2\n        /* \"#utility.yul\":34500:34631   */\n      tag_420\n      jump\t// in\n    tag_744:\n        /* \"#utility.yul\":34492:34631   */\n      swap1\n      pop\n        /* \"#utility.yul\":34219:34638   */\n      swap2\n      swap1\n      pop\n      jump\t// out\n        /* \"#utility.yul\":34644:34792   */\n    tag_421:\n        /* \"#utility.yul\":34746:34757   */\n      0x00\n        /* \"#utility.yul\":34783:34786   */\n      dup2\n        /* \"#utility.yul\":34768:34786   */\n      swap1\n      pop\n        /* \"#utility.yul\":34644:34792   */\n      swap3\n      swap2\n      pop\n      pop\n      jump\t// out\n        /* \"#utility.yul\":34798:35188   */\n    tag_422:\n        /* \"#utility.yul\":34904:34907   */\n      0x00\n        /* \"#utility.yul\":34932:34971   */\n      tag_747\n        /* \"#utility.yul\":34965:34970   */\n      dup3\n        /* \"#utility.yul\":34932:34971   */\n      tag_343\n      jump\t// in\n    tag_747:\n        /* \"#utility.yul\":34987:35076   */\n      tag_748\n        /* \"#utility.yul\":35069:35075   */\n      dup2\n        /* \"#utility.yul\":35064:35067   */\n      dup6\n        /* \"#utility.yul\":34987:35076   */\n      tag_421\n      jump\t// in\n    tag_748:\n        /* \"#utility.yul\":34980:35076   */\n      swap4\n      pop\n        /* \"#utility.yul\":35085:35150   */\n      tag_749\n        /* \"#utility.yul\":35143:35149   */\n      dup2\n        /* \"#utility.yul\":35138:35141   */\n      dup6\n        /* \"#utility.yul\":35131:35135   */\n      0x20\n        /* \"#utility.yul\":35124:35129   */\n      dup7\n        /* \"#utility.yul\":35120:35136   */\n      add\n        /* \"#utility.yul\":35085:35150   */\n      tag_345\n      jump\t// in\n    tag_749:\n        /* \"#utility.yul\":35175:35181   */\n      dup1\n        /* \"#utility.yul\":35170:35173   */\n      dup5\n        /* \"#utility.yul\":35166:35182   */\n      add\n        /* \"#utility.yul\":35159:35182   */\n      swap2\n      pop\n        /* \"#utility.yul\":34908:35188   */\n      pop\n        /* \"#utility.yul\":34798:35188   */\n      swap3\n      swap2\n      pop\n      pop\n      jump\t// out\n        /* \"#utility.yul\":35194:35469   */\n    tag_280:\n        /* \"#utility.yul\":35326:35329   */\n      0x00\n        /* \"#utility.yul\":35348:35443   */\n      tag_751\n        /* \"#utility.yul\":35439:35442   */\n      dup3\n        /* \"#utility.yul\":35430:35436   */\n      dup5\n        /* \"#utility.yul\":35348:35443   */\n      tag_422\n      jump\t// in\n    tag_751:\n        /* \"#utility.yul\":35341:35443   */\n      swap2\n      pop\n        /* \"#utility.yul\":35460:35463   */\n      dup2\n        /* \"#utility.yul\":35453:35463   */\n      swap1\n      pop\n        /* \"#utility.yul\":35194:35469   */\n      swap3\n      swap2\n      pop\n      pop\n      jump\t// out\n        /* \"#utility.yul\":35475:35716   */\n    tag_423:\n        /* \"#utility.yul\":35615:35649   */\n      0x596f75206861766520616c726561647920656e646f7273656420746869732074\n        /* \"#utility.yul\":35611:35612   */\n      0x00\n        /* \"#utility.yul\":35603:35609   */\n      dup3\n        /* \"#utility.yul\":35599:35613   */\n      add\n        /* \"#utility.yul\":35592:35650   */\n      mstore\n        /* \"#utility.yul\":35684:35708   */\n      0x617267657420666f722074686973206f7074696f6e2e00000000000000000000\n        /* \"#utility.yul\":35679:35681   */\n      0x20\n        /* \"#utility.yul\":35671:35677   */\n      dup3\n        /* \"#utility.yul\":35667:35682   */\n      add\n        /* \"#utility.yul\":35660:35709   */\n      mstore\n        /* \"#utility.yul\":35475:35716   */\n      pop\n      jump\t// out\n        /* \"#utility.yul\":35722:36088   */\n    tag_424:\n        /* \"#utility.yul\":35864:35867   */\n      0x00\n        /* \"#utility.yul\":35885:35952   */\n      tag_754\n        /* \"#utility.yul\":35949:35951   */\n      0x36\n        /* \"#utility.yul\":35944:35947   */\n      dup4\n        /* \"#utility.yul\":35885:35952   */\n      tag_344\n      jump\t// in\n    tag_754:\n        /* \"#utility.yul\":35878:35952   */\n      swap2\n      pop\n        /* \"#utility.yul\":35961:36054   */\n      tag_755\n        /* \"#utility.yul\":36050:36053   */\n      dup3\n        /* \"#utility.yul\":35961:36054   */\n      tag_423\n      jump\t// in\n    tag_755:\n        /* \"#utility.yul\":36079:36081   */\n      0x40\n        /* \"#utility.yul\":36074:36077   */\n      dup3\n        /* \"#utility.yul\":36070:36082   */\n      add\n        /* \"#utility.yul\":36063:36082   */\n      swap1\n      pop\n        /* \"#utility.yul\":35722:36088   */\n      swap2\n      swap1\n      pop\n      jump\t// out\n        /* \"#utility.yul\":36094:36513   */\n    tag_283:\n        /* \"#utility.yul\":36260:36264   */\n      0x00\n        /* \"#utility.yul\":36298:36300   */\n      0x20\n        /* \"#utility.yul\":36287:36296   */\n      dup3\n        /* \"#utility.yul\":36283:36301   */\n      add\n        /* \"#utility.yul\":36275:36301   */\n      swap1\n      pop\n        /* \"#utility.yul\":36347:36356   */\n      dup2\n        /* \"#utility.yul\":36341:36345   */\n      dup2\n        /* \"#utility.yul\":36337:36357   */\n      sub\n        /* \"#utility.yul\":36333:36334   */\n      0x00\n        /* \"#utility.yul\":36322:36331   */\n      dup4\n        /* \"#utility.yul\":36318:36335   */\n      add\n        /* \"#utility.yul\":36311:36358   */\n      mstore\n        /* \"#utility.yul\":36375:36506   */\n      tag_757\n        /* \"#utility.yul\":36501:36505   */\n      dup2\n        /* \"#utility.yul\":36375:36506   */\n      tag_424\n      jump\t// in\n    tag_757:\n        /* \"#utility.yul\":36367:36506   */\n      swap1\n      pop\n        /* \"#utility.yul\":36094:36513   */\n      swap2\n      swap1\n      pop\n      jump\t// out\n        /* \"#utility.yul\":36543:37374   */\n    tag_425:\n        /* \"#utility.yul\":36628:36631   */\n      0x00\n        /* \"#utility.yul\":36665:36670   */\n      dup2\n        /* \"#utility.yul\":36659:36671   */\n      sload\n        /* \"#utility.yul\":36694:36730   */\n      tag_759\n        /* \"#utility.yul\":36720:36729   */\n      dup2\n        /* \"#utility.yul\":36694:36730   */\n      tag_123\n      jump\t// in\n    tag_759:\n        /* \"#utility.yul\":36746:36817   */\n      tag_760\n        /* \"#utility.yul\":36810:36816   */\n      dup2\n        /* \"#utility.yul\":36805:36808   */\n      dup7\n        /* \"#utility.yul\":36746:36817   */\n      tag_344\n      jump\t// in\n    tag_760:\n        /* \"#utility.yul\":36739:36817   */\n      swap5\n      pop\n        /* \"#utility.yul\":36848:36849   */\n      0x01\n        /* \"#utility.yul\":36837:36846   */\n      dup3\n        /* \"#utility.yul\":36833:36850   */\n      and\n        /* \"#utility.yul\":36864:36865   */\n      0x00\n        /* \"#utility.yul\":36859:37023   */\n      dup2\n      eq\n      tag_762\n      jumpi\n        /* \"#utility.yul\":37037:37038   */\n      0x01\n        /* \"#utility.yul\":37032:37368   */\n      dup2\n      eq\n      tag_763\n      jumpi\n        /* \"#utility.yul\":36826:37368   */\n      jump(tag_761)\n        /* \"#utility.yul\":36859:37023   */\n    tag_762:\n        /* \"#utility.yul\":36943:36947   */\n      0xff\n        /* \"#utility.yul\":36939:36948   */\n      not\n        /* \"#utility.yul\":36928:36937   */\n      dup4\n        /* \"#utility.yul\":36924:36949   */\n      and\n        /* \"#utility.yul\":36919:36922   */\n      dup7\n        /* \"#utility.yul\":36912:36950   */\n      mstore\n        /* \"#utility.yul\":37003:37009   */\n      dup2\n        /* \"#utility.yul\":36996:37010   */\n      iszero\n        /* \"#utility.yul\":36989:37011   */\n      iszero\n        /* \"#utility.yul\":36983:36987   */\n      0x20\n        /* \"#utility.yul\":36979:37012   */\n      mul\n        /* \"#utility.yul\":36974:36977   */\n      dup7\n        /* \"#utility.yul\":36970:37013   */\n      add\n        /* \"#utility.yul\":36963:37013   */\n      swap4\n      pop\n        /* \"#utility.yul\":36859:37023   */\n      jump(tag_761)\n        /* \"#utility.yul\":37032:37368   */\n    tag_763:\n        /* \"#utility.yul\":37099:37137   */\n      tag_764\n        /* \"#utility.yul\":37131:37136   */\n      dup6\n        /* \"#utility.yul\":37099:37137   */\n      tag_392\n      jump\t// in\n    tag_764:\n        /* \"#utility.yul\":37159:37160   */\n      0x00\n        /* \"#utility.yul\":37173:37327   */\n    tag_765:\n        /* \"#utility.yul\":37187:37193   */\n      dup4\n        /* \"#utility.yul\":37184:37185   */\n      dup2\n        /* \"#utility.yul\":37181:37194   */\n      lt\n        /* \"#utility.yul\":37173:37327   */\n      iszero\n      tag_767\n      jumpi\n        /* \"#utility.yul\":37261:37268   */\n      dup2\n        /* \"#utility.yul\":37255:37269   */\n      sload\n        /* \"#utility.yul\":37251:37252   */\n      dup2\n        /* \"#utility.yul\":37246:37249   */\n      dup10\n        /* \"#utility.yul\":37242:37253   */\n      add\n        /* \"#utility.yul\":37235:37270   */\n      mstore\n        /* \"#utility.yul\":37311:37312   */\n      0x01\n        /* \"#utility.yul\":37302:37309   */\n      dup3\n        /* \"#utility.yul\":37298:37313   */\n      add\n        /* \"#utility.yul\":37287:37313   */\n      swap2\n      pop\n        /* \"#utility.yul\":37209:37213   */\n      0x20\n        /* \"#utility.yul\":37206:37207   */\n      dup2\n        /* \"#utility.yul\":37202:37214   */\n      add\n        /* \"#utility.yul\":37197:37214   */\n      swap1\n      pop\n        /* \"#utility.yul\":37173:37327   */\n      jump(tag_765)\n    tag_767:\n        /* \"#utility.yul\":37356:37357   */\n      dup1\n        /* \"#utility.yul\":37351:37354   */\n      dup9\n        /* \"#utility.yul\":37347:37358   */\n      add\n        /* \"#utility.yul\":37340:37358   */\n      swap6\n      pop\n        /* \"#utility.yul\":37039:37368   */\n      pop\n      pop\n        /* \"#utility.yul\":36826:37368   */\n    tag_761:\n      pop\n        /* \"#utility.yul\":36632:37374   */\n      pop\n      pop\n        /* \"#utility.yul\":36543:37374   */\n      swap3\n      swap2\n      pop\n      pop\n      jump\t// out\n        /* \"#utility.yul\":37380:37687   */\n    tag_294:\n        /* \"#utility.yul\":37490:37494   */\n      0x00\n        /* \"#utility.yul\":37528:37530   */\n      0x20\n        /* \"#utility.yul\":37517:37526   */\n      dup3\n        /* \"#utility.yul\":37513:37531   */\n      add\n        /* \"#utility.yul\":37505:37531   */\n      swap1\n      pop\n        /* \"#utility.yul\":37577:37586   */\n      dup2\n        /* \"#utility.yul\":37571:37575   */\n      dup2\n        /* \"#utility.yul\":37567:37587   */\n      sub\n        /* \"#utility.yul\":37563:37564   */\n      0x00\n        /* \"#utility.yul\":37552:37561   */\n      dup4\n        /* \"#utility.yul\":37548:37565   */\n      add\n        /* \"#utility.yul\":37541:37588   */\n      mstore\n        /* \"#utility.yul\":37605:37680   */\n      tag_769\n        /* \"#utility.yul\":37675:37679   */\n      dup2\n        /* \"#utility.yul\":37666:37672   */\n      dup5\n        /* \"#utility.yul\":37605:37680   */\n      tag_425\n      jump\t// in\n    tag_769:\n        /* \"#utility.yul\":37597:37680   */\n      swap1\n      pop\n        /* \"#utility.yul\":37380:37687   */\n      swap3\n      swap2\n      pop\n      pop\n      jump\t// out\n        /* \"#utility.yul\":37693:38226   */\n    tag_304:\n        /* \"#utility.yul\":37862:37866   */\n      0x00\n        /* \"#utility.yul\":37900:37902   */\n      0x60\n        /* \"#utility.yul\":37889:37898   */\n      dup3\n        /* \"#utility.yul\":37885:37903   */\n      add\n        /* \"#utility.yul\":37877:37903   */\n      swap1\n      pop\n        /* \"#utility.yul\":37949:37958   */\n      dup2\n        /* \"#utility.yul\":37943:37947   */\n      dup2\n        /* \"#utility.yul\":37939:37959   */\n      sub\n        /* \"#utility.yul\":37935:37936   */\n      0x00\n        /* \"#utility.yul\":37924:37933   */\n      dup4\n        /* \"#utility.yul\":37920:37937   */\n      add\n        /* \"#utility.yul\":37913:37960   */\n      mstore\n        /* \"#utility.yul\":37977:38055   */\n      tag_771\n        /* \"#utility.yul\":38050:38054   */\n      dup2\n        /* \"#utility.yul\":38041:38047   */\n      dup7\n        /* \"#utility.yul\":37977:38055   */\n      tag_347\n      jump\t// in\n    tag_771:\n        /* \"#utility.yul\":37969:38055   */\n      swap1\n      pop\n        /* \"#utility.yul\":38065:38137   */\n      tag_772\n        /* \"#utility.yul\":38133:38135   */\n      0x20\n        /* \"#utility.yul\":38122:38131   */\n      dup4\n        /* \"#utility.yul\":38118:38136   */\n      add\n        /* \"#utility.yul\":38109:38115   */\n      dup6\n        /* \"#utility.yul\":38065:38137   */\n      tag_332\n      jump\t// in\n    tag_772:\n        /* \"#utility.yul\":38147:38219   */\n      tag_773\n        /* \"#utility.yul\":38215:38217   */\n      0x40\n        /* \"#utility.yul\":38204:38213   */\n      dup4\n        /* \"#utility.yul\":38200:38218   */\n      add\n        /* \"#utility.yul\":38191:38197   */\n      dup5\n        /* \"#utility.yul\":38147:38219   */\n      tag_332\n      jump\t// in\n    tag_773:\n        /* \"#utility.yul\":37693:38226   */\n      swap5\n      swap4\n      pop\n      pop\n      pop\n      pop\n      jump\t// out\n        /* \"#utility.yul\":38232:38414   */\n    tag_426:\n        /* \"#utility.yul\":38372:38406   */\n      0x4f776e61626c653a2063616c6c6572206973206e6f7420746865206f776e6572\n        /* \"#utility.yul\":38368:38369   */\n      0x00\n        /* \"#utility.yul\":38360:38366   */\n      dup3\n        /* \"#utility.yul\":38356:38370   */\n      add\n        /* \"#utility.yul\":38349:38407   */\n      mstore\n        /* \"#utility.yul\":38232:38414   */\n      pop\n      jump\t// out\n        /* \"#utility.yul\":38420:38786   */\n    tag_427:\n        /* \"#utility.yul\":38562:38565   */\n      0x00\n        /* \"#utility.yul\":38583:38650   */\n      tag_776\n        /* \"#utility.yul\":38647:38649   */\n      0x20\n        /* \"#utility.yul\":38642:38645   */\n      dup4\n        /* \"#utility.yul\":38583:38650   */\n      tag_344\n      jump\t// in\n    tag_776:\n        /* \"#utility.yul\":38576:38650   */\n      swap2\n      pop\n        /* \"#utility.yul\":38659:38752   */\n      tag_777\n        /* \"#utility.yul\":38748:38751   */\n      dup3\n        /* \"#utility.yul\":38659:38752   */\n      tag_426\n      jump\t// in\n    tag_777:\n        /* \"#utility.yul\":38777:38779   */\n      0x20\n        /* \"#utility.yul\":38772:38775   */\n      dup3\n        /* \"#utility.yul\":38768:38780   */\n      add\n        /* \"#utility.yul\":38761:38780   */\n      swap1\n      pop\n        /* \"#utility.yul\":38420:38786   */\n      swap2\n      swap1\n      pop\n      jump\t// out\n        /* \"#utility.yul\":38792:39211   */\n    tag_310:\n        /* \"#utility.yul\":38958:38962   */\n      0x00\n        /* \"#utility.yul\":38996:38998   */\n      0x20\n        /* \"#utility.yul\":38985:38994   */\n      dup3\n        /* \"#utility.yul\":38981:38999   */\n      add\n        /* \"#utility.yul\":38973:38999   */\n      swap1\n      pop\n        /* \"#utility.yul\":39045:39054   */\n      dup2\n        /* \"#utility.yul\":39039:39043   */\n      dup2\n        /* \"#utility.yul\":39035:39055   */\n      sub\n        /* \"#utility.yul\":39031:39032   */\n      0x00\n        /* \"#utility.yul\":39020:39029   */\n      dup4\n        /* \"#utility.yul\":39016:39033   */\n      add\n        /* \"#utility.yul\":39009:39056   */\n      mstore\n        /* \"#utility.yul\":39073:39204   */\n      tag_779\n        /* \"#utility.yul\":39199:39203   */\n      dup2\n        /* \"#utility.yul\":39073:39204   */\n      tag_427\n      jump\t// in\n    tag_779:\n        /* \"#utility.yul\":39065:39204   */\n      swap1\n      pop\n        /* \"#utility.yul\":38792:39211   */\n      swap2\n      swap1\n      pop\n      jump\t// out\n\n    auxdata: 0xa264697066735822122018d04dd146d5d560d41e9845a82a79e17fedd3328de2b135455f4a6f0ba65d7f64736f6c634300081d0033\n}\n",
				"bytecode": {
					"linkReferences": {},
					"object": "60806040526040518060400160405280601581526020017f4661696c656420746f2073656e64204574686572210000000000000000000000815250600190816100489190610382565b50348015610054575f5ffd5b5061007161006661007d60201b60201c565b61008460201b60201c565b5f600281905550610451565b5f33905090565b5f5f5f9054906101000a900473ffffffffffffffffffffffffffffffffffffffff169050815f5f6101000a81548173ffffffffffffffffffffffffffffffffffffffff021916908373ffffffffffffffffffffffffffffffffffffffff1602179055508173ffffffffffffffffffffffffffffffffffffffff168173ffffffffffffffffffffffffffffffffffffffff167f8be0079c531659141344cd1fd0a4f28419497f9722a3daafe3b4186f6b6457e060405160405180910390a35050565b5f81519050919050565b7f4e487b71000000000000000000000000000000000000000000000000000000005f52604160045260245ffd5b7f4e487b71000000000000000000000000000000000000000000000000000000005f52602260045260245ffd5b5f60028204905060018216806101c057607f821691505b6020821081036101d3576101d261017c565b5b50919050565b5f819050815f5260205f209050919050565b5f6020601f8301049050919050565b5f82821b905092915050565b5f600883026102357fffffffffffffffffffffffffffffffffffffffffffffffffffffffffffffffff826101fa565b61023f86836101fa565b95508019841693508086168417925050509392505050565b5f819050919050565b5f819050919050565b5f61028361027e61027984610257565b610260565b610257565b9050919050565b5f819050919050565b61029c83610269565b6102b06102a88261028a565b848454610206565b825550505050565b5f5f905090565b6102c76102b8565b6102d2818484610293565b505050565b5b818110156102f5576102ea5f826102bf565b6001810190506102d8565b5050565b601f82111561033a5761030b816101d9565b610314846101eb565b81016020851015610323578190505b61033761032f856101eb565b8301826102d7565b50505b505050565b5f82821c905092915050565b5f61035a5f198460080261033f565b1980831691505092915050565b5f610372838361034b565b9150826002028217905092915050565b61038b82610145565b67ffffffffffffffff8111156103a4576103a361014f565b5b6103ae82546101a9565b6103b98282856102f9565b5f60209050601f8311600181146103ea575f84156103d8578287015190505b6103e28582610367565b865550610449565b601f1984166103f8866101d9565b5f5b8281101561041f578489015182556001820191506020850194506020810190506103fa565b8683101561043c5784890151610438601f89168261034b565b8355505b6001600288020188555050505b505050505050565b612ac28061045e5f395ff3fe60806040526004361061011e575f3560e01c8063715018a61161009f578063d2f6ab9b11610063578063d2f6ab9b1461037a578063ddca3f43146103b6578063f2fde38b146103e0578063f31f2f8014610408578063ffa1ad74146104245761011e565b8063715018a6146102c05780638456cb59146102d65780638da5cb5b146102ec5780639012c4a814610316578063b666ca9d1461033e5761011e565b80635675049e116100e65780635675049e146101e057806356a6d9ef1461020a5780635c975abb14610232578063613a0cc41461025c57806363414343146102985761011e565b806312065fe0146101225780632cdc9efb1461014c578063368df2a31461018c5780633ccfd60b146101b45780633f4ba83a146101ca575b5f5ffd5b34801561012d575f5ffd5b5061013661044e565b604051610143919061185d565b60405180910390f35b348015610157575f5ffd5b50610172600480360381019061016d919061190b565b610455565b6040516101839594939291906119e3565b60405180910390f35b348015610197575f5ffd5b506101b260048036038101906101ad9190611b6e565b6105d8565b005b3480156101bf575f5ffd5b506101c8610721565b005b3480156101d5575f5ffd5b506101de6107e0565b005b3480156101eb575f5ffd5b506101f46107f2565b6040516102019190611ccb565b60405180910390f35b348015610215575f5ffd5b50610230600480360381019061022b9190611d26565b6108c6565b005b34801561023d575f5ffd5b5061024661097b565b6040516102539190611d7e565b60405180910390f35b348015610267575f5ffd5b50610282600480360381019061027d9190611d97565b610990565b60405161028f9190611d7e565b60405180910390f35b3480156102a3575f5ffd5b506102be60048036038101906102b99190611e03565b6109dd565b005b3480156102cb575f5ffd5b506102d4610b2d565b005b3480156102e1575f5ffd5b506102ea610b40565b005b3480156102f7575f5ffd5b50610300610b52565b60405161030d9190611e4a565b60405180910390f35b348015610321575f5ffd5b5061033c60048036038101906103379190611e63565b610b79565b005b348015610349575f5ffd5b50610364600480360381019061035f9190611e8e565b610bc2565b604051610371919061201b565b60405180910390f35b348015610385575f5ffd5b506103a0600480360381019061039b9190611e63565b610df5565b6040516103ad919061203b565b60405180910390f35b3480156103c1575f5ffd5b506103ca610e9b565b6040516103d7919061185d565b60405180910390f35b3480156103eb575f5ffd5b5061040660048036038101906104019190611e8e565b610ea1565b005b610422600480360381019061041d9190612085565b610f23565b005b34801561042f575f5ffd5b50610438611582565b604051610445919061203b565b60405180910390f35b5f47905090565b6003602052815f5260405f20818154811061046e575f80fd5b905f5260205f2090600502015f9150915050805f015f9054906101000a900473ffffffffffffffffffffffffffffffffffffffff16908060010180546104b39061214e565b80601f01602080910402602001604051908101604052809291908181526020018280546104df9061214e565b801561052a5780601f106105015761010080835404028352916020019161052a565b820191905f5260205f20905b81548152906001019060200180831161050d57829003601f168201915b50505050509080600201805461053f9061214e565b80601f016020809104026020016040519081016040528092919081815260200182805461056b9061214e565b80156105b65780601f1061058d576101008083540402835291602001916105b6565b820191905f5260205f20905b81548152906001019060200180831161059957829003601f168201915b505050505090806003015f9054906101000a900460ff16908060040154905085565b6105e06115bb565b5f815111610623576040517f08c379a000000000000000000000000000000000000000000000000000000000815260040161061a906121c8565b60405180910390fd5b5f5f90505b6005805490508110156106bb57818051906020012060058281548110610651576106506121e6565b5b905f5260205f200160405161066691906122af565b6040518091039020036106ae576040517f08c379a00000000000000000000000000000000000000000000000000000000081526004016106a59061230f565b60405180910390fd5b8080600101915050610628565b5080600583815481106106d1576106d06121e6565b5b905f5260205f200190816106e591906124cd565b507f8329f95e4544f4e52f94f1889c321525f3ab368f971c4ad352ba31b4ea8fed5681604051610715919061203b565b60405180910390a15050565b6107296115bb565b5f4790505f610736610b52565b73ffffffffffffffffffffffffffffffffffffffff1682604051610759906125bf565b5f6040518083038185875af1925050503d805f8114610793576040519150601f19603f3d011682016040523d82523d5f602084013e610798565b606091505b50509050806107dc576040517f08c379a00000000000000000000000000000000000000000000000000000000081526004016107d39061261d565b60405180910390fd5b5050565b6107e86115bb565b6107f0611639565b565b60606005805480602002602001604051908101604052809291908181526020015f905b828210156108bd578382905f5260205f200180546108329061214e565b80601f016020809104026020016040519081016040528092919081815260200182805461085e9061214e565b80156108a95780601f10610880576101008083540402835291602001916108a9565b820191905f5260205f20905b81548152906001019060200180831161088c57829003601f168201915b505050505081526020019060010190610815565b50505050905090565b6108ce6115bb565b5f8273ffffffffffffffffffffffffffffffffffffffff16826040516108f3906125bf565b5f6040518083038185875af1925050503d805f811461092d576040519150601f19603f3d011682016040523d82523d5f602084013e610932565b606091505b5050905080610976576040517f08c379a000000000000000000000000000000000000000000000000000000000815260040161096d9061261d565b60405180910390fd5b505050565b5f5f60149054906101000a900460ff16905090565b6004602052825f5260405f20602052815f5260405f20818051602081018201805184825260208301602085012081835280955050505050505f92509250509054906101000a900460ff1681565b6109e56115bb565b5f815111610a28576040517f08c379a0000000000000000000000000000000000000000000000000000000008152600401610a1f906121c8565b60405180910390fd5b5f5f90505b600580549050811015610ac057818051906020012060058281548110610a5657610a556121e6565b5b905f5260205f2001604051610a6b91906122af565b604051809103902003610ab3576040517f08c379a0000000000000000000000000000000000000000000000000000000008152600401610aaa9061230f565b60405180910390fd5b8080600101915050610a2d565b50600581908060018154018082558091505060019003905f5260205f20015f909190919091509081610af291906124cd565b507f8329f95e4544f4e52f94f1889c321525f3ab368f971c4ad352ba31b4ea8fed5681604051610b22919061203b565b60405180910390a150565b610b356115bb565b610b3e5f61169a565b565b610b486115bb565b610b5061175b565b565b5f5f5f9054906101000a900473ffffffffffffffffffffffffffffffffffffffff16905090565b610b816115bb565b806002819055507f8c4d35e54a3f2ef1134138fd8ea3daee6a3c89e10d2665996babdf70261e2c7681604051610bb7919061185d565b60405180910390a150565b606060035f8373ffffffffffffffffffffffffffffffffffffffff1673ffffffffffffffffffffffffffffffffffffffff1681526020019081526020015f20805480602002602001604051908101604052809291908181526020015f905b82821015610dea578382905f5260205f2090600502016040518060a00160405290815f82015f9054906101000a900473ffffffffffffffffffffffffffffffffffffffff1673ffffffffffffffffffffffffffffffffffffffff1673ffffffffffffffffffffffffffffffffffffffff168152602001600182018054610ca59061214e565b80601f0160208091040260200160405190810160405280929190818152602001828054610cd19061214e565b8015610d1c5780601f10610cf357610100808354040283529160200191610d1c565b820191905f5260205f20905b815481529060010190602001808311610cff57829003601f168201915b50505050508152602001600282018054610d359061214e565b80601f0160208091040260200160405190810160405280929190818152602001828054610d619061214e565b8015610dac5780601f10610d8357610100808354040283529160200191610dac565b820191905f5260205f20905b815481529060010190602001808311610d8f57829003601f168201915b50505050508152602001600382015f9054906101000a900460ff1660ff1660ff16815260200160048201548152505081526020019060010190610c20565b505050509050919050565b60058181548110610e04575f80fd5b905f5260205f20015f915090508054610e1c9061214e565b80601f0160208091040260200160405190810160405280929190818152602001828054610e489061214e565b8015610e935780601f10610e6a57610100808354040283529160200191610e93565b820191905f5260205f20905b815481529060010190602001808311610e7657829003601f168201915b505050505081565b60025481565b610ea96115bb565b5f73ffffffffffffffffffffffffffffffffffffffff168173ffffffffffffffffffffffffffffffffffffffff1603610f17576040517f08c379a0000000000000000000000000000000000000000000000000000000008152600401610f0e906126ab565b60405180910390fd5b610f208161169a565b50565b5f73ffffffffffffffffffffffffffffffffffffffff168473ffffffffffffffffffffffffffffffffffffffff1603610f91576040517f08c379a0000000000000000000000000000000000000000000000000000000008152600401610f8890612713565b60405180910390fd5b610f996117bd565b73ffffffffffffffffffffffffffffffffffffffff168473ffffffffffffffffffffffffffffffffffffffff1603611006576040517f08c379a0000000000000000000000000000000000000000000000000000000008152600401610ffd9061277b565b60405180910390fd5b5f8160ff1611801561101c575060058160ff1611155b61105b576040517f08c379a0000000000000000000000000000000000000000000000000000000008152600401611052906127e3565b60405180910390fd5b5f5f90505f5f90505b6005805490508110156110c55784805190602001206005828154811061108d5761108c6121e6565b5b905f5260205f20016040516110a291906122af565b6040518091039020036110b857600191506110c5565b8080600101915050611064565b5080611106576040517f08c379a00000000000000000000000000000000000000000000000000000000081526004016110fd9061284b565b60405180910390fd5b60045f8673ffffffffffffffffffffffffffffffffffffffff1673ffffffffffffffffffffffffffffffffffffffff1681526020019081526020015f205f61114c6117bd565b73ffffffffffffffffffffffffffffffffffffffff1673ffffffffffffffffffffffffffffffffffffffff1681526020019081526020015f208460405161119391906128a3565b90815260200160405180910390205f9054906101000a900460ff16156111ee576040517f08c379a00000000000000000000000000000000000000000000000000000000081526004016111e590612929565b60405180910390fd5b5f60025411156112f55760025434101561123f57346040517f92665351000000000000000000000000000000000000000000000000000000008152600401611236919061185d565b60405180910390fd5b5f611248610b52565b73ffffffffffffffffffffffffffffffffffffffff163460405161126b906125bf565b5f6040518083038185875af1925050503d805f81146112a5576040519150601f19603f3d011682016040523d82523d5f602084013e6112aa565b606091505b50509050806001906112f2576040517f08c379a00000000000000000000000000000000000000000000000000000000081526004016112e991906129c8565b60405180910390fd5b50505b5f6040518060a001604052806113096117bd565b73ffffffffffffffffffffffffffffffffffffffff1681526020018681526020018581526020018460ff16815260200142815250905060035f8773ffffffffffffffffffffffffffffffffffffffff1673ffffffffffffffffffffffffffffffffffffffff1681526020019081526020015f2081908060018154018082558091505060019003905f5260205f2090600502015f909190919091505f820151815f015f6101000a81548173ffffffffffffffffffffffffffffffffffffffff021916908373ffffffffffffffffffffffffffffffffffffffff16021790555060208201518160010190816113fc91906124cd565b50604082015181600201908161141291906124cd565b506060820151816003015f6101000a81548160ff021916908360ff160217905550608082015181600401555050600160045f8873ffffffffffffffffffffffffffffffffffffffff1673ffffffffffffffffffffffffffffffffffffffff1681526020019081526020015f205f6114876117bd565b73ffffffffffffffffffffffffffffffffffffffff1673ffffffffffffffffffffffffffffffffffffffff1681526020019081526020015f20866040516114ce91906128a3565b90815260200160405180910390205f6101000a81548160ff0219169083151502179055508460405161150091906128a3565b60405180910390206115106117bd565b73ffffffffffffffffffffffffffffffffffffffff168773ffffffffffffffffffffffffffffffffffffffff167fcee636f0c13aaa861e26f59625e55d15ab4af806aef7de8ee49c13390256a0e88760025442604051611572939291906129e8565b60405180910390a4505050505050565b6040518060400160405280600581526020017f312e302e3000000000000000000000000000000000000000000000000000000081525081565b6115c36117bd565b73ffffffffffffffffffffffffffffffffffffffff166115e1610b52565b73ffffffffffffffffffffffffffffffffffffffff1614611637576040517f08c379a000000000000000000000000000000000000000000000000000000000815260040161162e90612a6e565b60405180910390fd5b565b6116416117c4565b5f5f60146101000a81548160ff0219169083151502179055507f5db9ee0a495bf2e6ff9c91a7834c1ba4fdd244a5e8aa4e537bd38aeae4b073aa6116836117bd565b6040516116909190611e4a565b60405180910390a1565b5f5f5f9054906101000a900473ffffffffffffffffffffffffffffffffffffffff169050815f5f6101000a81548173ffffffffffffffffffffffffffffffffffffffff021916908373ffffffffffffffffffffffffffffffffffffffff1602179055508173ffffffffffffffffffffffffffffffffffffffff168173ffffffffffffffffffffffffffffffffffffffff167f8be0079c531659141344cd1fd0a4f28419497f9722a3daafe3b4186f6b6457e060405160405180910390a35050565b611763611804565b60015f60146101000a81548160ff0219169083151502179055507f62e78cea01bee320cd4e420270b5ea74000d11b0c9f74754ebdbfc544b05a2586117a66117bd565b6040516117b39190611e4a565b60405180910390a1565b5f33905090565b6117cc61097b565b611802576040517f8dfc202b00000000000000000000000000000000000000000000000000000000815260040160405180910390fd5b565b61180c61097b565b15611843576040517fd93c066500000000000000000000000000000000000000000000000000000000815260040160405180910390fd5b565b5f819050919050565b61185781611845565b82525050565b5f6020820190506118705f83018461184e565b92915050565b5f604051905090565b5f5ffd5b5f5ffd5b5f73ffffffffffffffffffffffffffffffffffffffff82169050919050565b5f6118b082611887565b9050919050565b6118c0816118a6565b81146118ca575f5ffd5b50565b5f813590506118db816118b7565b92915050565b6118ea81611845565b81146118f4575f5ffd5b50565b5f81359050611905816118e1565b92915050565b5f5f604083850312156119215761192061187f565b5b5f61192e858286016118cd565b925050602061193f858286016118f7565b9150509250929050565b611952816118a6565b82525050565b5f81519050919050565b5f82825260208201905092915050565b8281835e5f83830152505050565b5f601f19601f8301169050919050565b5f61199a82611958565b6119a48185611962565b93506119b4818560208601611972565b6119bd81611980565b840191505092915050565b5f60ff82169050919050565b6119dd816119c8565b82525050565b5f60a0820190506119f65f830188611949565b8181036020830152611a088187611990565b90508181036040830152611a1c8186611990565b9050611a2b60608301856119d4565b611a38608083018461184e565b9695505050505050565b5f5ffd5b5f5ffd5b7f4e487b71000000000000000000000000000000000000000000000000000000005f52604160045260245ffd5b611a8082611980565b810181811067ffffffffffffffff82111715611a9f57611a9e611a4a565b5b80604052505050565b5f611ab1611876565b9050611abd8282611a77565b919050565b5f67ffffffffffffffff821115611adc57611adb611a4a565b5b611ae582611980565b9050602081019050919050565b828183375f83830152505050565b5f611b12611b0d84611ac2565b611aa8565b905082815260208101848484011115611b2e57611b2d611a46565b5b611b39848285611af2565b509392505050565b5f82601f830112611b5557611b54611a42565b5b8135611b65848260208601611b00565b91505092915050565b5f5f60408385031215611b8457611b8361187f565b5b5f611b91858286016118f7565b925050602083013567ffffffffffffffff811115611bb257611bb1611883565b5b611bbe85828601611b41565b9150509250929050565b5f81519050919050565b5f82825260208201905092915050565b5f819050602082019050919050565b5f82825260208201905092915050565b5f611c0b82611958565b611c158185611bf1565b9350611c25818560208601611972565b611c2e81611980565b840191505092915050565b5f611c448383611c01565b905092915050565b5f602082019050919050565b5f611c6282611bc8565b611c6c8185611bd2565b935083602082028501611c7e85611be2565b805f5b85811015611cb95784840389528151611c9a8582611c39565b9450611ca583611c4c565b925060208a01995050600181019050611c81565b50829750879550505050505092915050565b5f6020820190508181035f830152611ce38184611c58565b905092915050565b5f611cf582611887565b9050919050565b611d0581611ceb565b8114611d0f575f5ffd5b50565b5f81359050611d2081611cfc565b92915050565b5f5f60408385031215611d3c57611d3b61187f565b5b5f611d4985828601611d12565b9250506020611d5a858286016118f7565b9150509250929050565b5f8115159050919050565b611d7881611d64565b82525050565b5f602082019050611d915f830184611d6f565b92915050565b5f5f5f60608486031215611dae57611dad61187f565b5b5f611dbb868287016118cd565b9350506020611dcc868287016118cd565b925050604084013567ffffffffffffffff811115611ded57611dec611883565b5b611df986828701611b41565b9150509250925092565b5f60208284031215611e1857611e1761187f565b5b5f82013567ffffffffffffffff811115611e3557611e34611883565b5b611e4184828501611b41565b91505092915050565b5f602082019050611e5d5f830184611949565b92915050565b5f60208284031215611e7857611e7761187f565b5b5f611e85848285016118f7565b91505092915050565b5f60208284031215611ea357611ea261187f565b5b5f611eb0848285016118cd565b91505092915050565b5f81519050919050565b5f82825260208201905092915050565b5f819050602082019050919050565b611eeb816118a6565b82525050565b611efa816119c8565b82525050565b611f0981611845565b82525050565b5f60a083015f830151611f245f860182611ee2565b5060208301518482036020860152611f3c8282611c01565b91505060408301518482036040860152611f568282611c01565b9150506060830151611f6b6060860182611ef1565b506080830151611f7e6080860182611f00565b508091505092915050565b5f611f948383611f0f565b905092915050565b5f602082019050919050565b5f611fb282611eb9565b611fbc8185611ec3565b935083602082028501611fce85611ed3565b805f5b858110156120095784840389528151611fea8582611f89565b9450611ff583611f9c565b925060208a01995050600181019050611fd1565b50829750879550505050505092915050565b5f6020820190508181035f8301526120338184611fa8565b905092915050565b5f6020820190508181035f8301526120538184611990565b905092915050565b612064816119c8565b811461206e575f5ffd5b50565b5f8135905061207f8161205b565b92915050565b5f5f5f5f6080858703121561209d5761209c61187f565b5b5f6120aa878288016118cd565b945050602085013567ffffffffffffffff8111156120cb576120ca611883565b5b6120d787828801611b41565b935050604085013567ffffffffffffffff8111156120f8576120f7611883565b5b61210487828801611b41565b925050606061211587828801612071565b91505092959194509250565b7f4e487b71000000000000000000000000000000000000000000000000000000005f52602260045260245ffd5b5f600282049050600182168061216557607f821691505b60208210810361217857612177612121565b5b50919050565b7f4f7074696f6e2063616e6e6f7420626520656d707479000000000000000000005f82015250565b5f6121b2601683611962565b91506121bd8261217e565b602082019050919050565b5f6020820190508181035f8301526121df816121a6565b9050919050565b7f4e487b71000000000000000000000000000000000000000000000000000000005f52603260045260245ffd5b5f81905092915050565b5f819050815f5260205f209050919050565b5f815461223b8161214e565b6122458186612213565b9450600182165f811461225f5760018114612274576122a6565b60ff19831686528115158202860193506122a6565b61227d8561221d565b5f5b8381101561229e5781548189015260018201915060208101905061227f565b838801955050505b50505092915050565b5f6122ba828461222f565b915081905092915050565b7f4f7074696f6e20616c72656164792065786973747300000000000000000000005f82015250565b5f6122f9601583611962565b9150612304826122c5565b602082019050919050565b5f6020820190508181035f830152612326816122ed565b9050919050565b5f819050815f5260205f209050919050565b5f6020601f8301049050919050565b5f82821b905092915050565b5f600883026123897fffffffffffffffffffffffffffffffffffffffffffffffffffffffffffffffff8261234e565b612393868361234e565b95508019841693508086168417925050509392505050565b5f819050919050565b5f6123ce6123c96123c484611845565b6123ab565b611845565b9050919050565b5f819050919050565b6123e7836123b4565b6123fb6123f3826123d5565b84845461235a565b825550505050565b5f5f905090565b612412612403565b61241d8184846123de565b505050565b5b81811015612440576124355f8261240a565b600181019050612423565b5050565b601f821115612485576124568161232d565b61245f8461233f565b8101602085101561246e578190505b61248261247a8561233f565b830182612422565b50505b505050565b5f82821c905092915050565b5f6124a55f198460080261248a565b1980831691505092915050565b5f6124bd8383612496565b9150826002028217905092915050565b6124d682611958565b67ffffffffffffffff8111156124ef576124ee611a4a565b5b6124f9825461214e565b612504828285612444565b5f60209050601f831160018114612535575f8415612523578287015190505b61252d85826124b2565b865550612594565b601f1984166125438661232d565b5f5b8281101561256a57848901518255600182019150602085019450602081019050612545565b868310156125875784890151612583601f891682612496565b8355505b6001600288020188555050505b505050505050565b50565b5f6125aa5f83612213565b91506125b58261259c565b5f82019050919050565b5f6125c98261259f565b9150819050919050565b7f4661696c656400000000000000000000000000000000000000000000000000005f82015250565b5f612607600683611962565b9150612612826125d3565b602082019050919050565b5f6020820190508181035f830152612634816125fb565b9050919050565b7f4f776e61626c653a206e6577206f776e657220697320746865207a65726f20615f8201527f6464726573730000000000000000000000000000000000000000000000000000602082015250565b5f612695602683611962565b91506126a08261263b565b604082019050919050565b5f6020820190508181035f8301526126c281612689565b9050919050565b7f496e76616c6964207461726765742061646472657373000000000000000000005f82015250565b5f6126fd601683611962565b9150612708826126c9565b602082019050919050565b5f6020820190508181035f83015261272a816126f1565b9050919050565b7f43616e6e6f7420656e646f72736520796f757273656c660000000000000000005f82015250565b5f612765601783611962565b915061277082612731565b602082019050919050565b5f6020820190508181035f83015261279281612759565b9050919050565b7f53636f7265206d757374206265206265747765656e203120616e6420350000005f82015250565b5f6127cd601d83611962565b91506127d882612799565b602082019050919050565b5f6020820190508181035f8301526127fa816127c1565b9050919050565b7f496e76616c696420656e646f7273656d656e74206f7074696f6e0000000000005f82015250565b5f612835601a83611962565b915061284082612801565b602082019050919050565b5f6020820190508181035f83015261286281612829565b9050919050565b5f81905092915050565b5f61287d82611958565b6128878185612869565b9350612897818560208601611972565b80840191505092915050565b5f6128ae8284612873565b915081905092915050565b7f596f75206861766520616c726561647920656e646f72736564207468697320745f8201527f617267657420666f722074686973206f7074696f6e2e00000000000000000000602082015250565b5f612913603683611962565b915061291e826128b9565b604082019050919050565b5f6020820190508181035f83015261294081612907565b9050919050565b5f81546129538161214e565b61295d8186611962565b9450600182165f8114612977576001811461298d576129bf565b60ff1983168652811515602002860193506129bf565b6129968561232d565b5f5b838110156129b757815481890152600182019150602081019050612998565b808801955050505b50505092915050565b5f6020820190508181035f8301526129e08184612947565b905092915050565b5f6060820190508181035f830152612a008186611990565b9050612a0f602083018561184e565b612a1c604083018461184e565b949350505050565b7f4f776e61626c653a2063616c6c6572206973206e6f7420746865206f776e65725f82015250565b5f612a58602083611962565b9150612a6382612a24565b602082019050919050565b5f6020820190508181035f830152612a8581612a4c565b905091905056fea264697066735822122018d04dd146d5d560d41e9845a82a79e17fedd3328de2b135455f4a6f0ba65d7f64736f6c634300081d0033",
					"opcodes": "PUSH1 0x80 PUSH1 0x40 MSTORE PUSH1 0x40 MLOAD DUP1 PUSH1 0x40 ADD PUSH1 0x40 MSTORE DUP1 PUSH1 0x15 DUP2 MSTORE PUSH1 0x20 ADD PUSH32 0x4661696C656420746F2073656E64204574686572210000000000000000000000 DUP2 MSTORE POP PUSH1 0x1 SWAP1 DUP2 PUSH2 0x48 SWAP2 SWAP1 PUSH2 0x382 JUMP JUMPDEST POP CALLVALUE DUP1 ISZERO PUSH2 0x54 JUMPI PUSH0 PUSH0 REVERT JUMPDEST POP PUSH2 0x71 PUSH2 0x66 PUSH2 0x7D PUSH1 0x20 SHL PUSH1 0x20 SHR JUMP JUMPDEST PUSH2 0x84 PUSH1 0x20 SHL PUSH1 0x20 SHR JUMP JUMPDEST PUSH0 PUSH1 0x2 DUP2 SWAP1 SSTORE POP PUSH2 0x451 JUMP JUMPDEST PUSH0 CALLER SWAP1 POP SWAP1 JUMP JUMPDEST PUSH0 PUSH0 PUSH0 SWAP1 SLOAD SWAP1 PUSH2 0x100 EXP SWAP1 DIV PUSH20 0xFFFFFFFFFFFFFFFFFFFFFFFFFFFFFFFFFFFFFFFF AND SWAP1 POP DUP2 PUSH0 PUSH0 PUSH2 0x100 EXP DUP2 SLOAD DUP2 PUSH20 0xFFFFFFFFFFFFFFFFFFFFFFFFFFFFFFFFFFFFFFFF MUL NOT AND SWAP1 DUP4 PUSH20 0xFFFFFFFFFFFFFFFFFFFFFFFFFFFFFFFFFFFFFFFF AND MUL OR SWAP1 SSTORE POP DUP2 PUSH20 0xFFFFFFFFFFFFFFFFFFFFFFFFFFFFFFFFFFFFFFFF AND DUP2 PUSH20 0xFFFFFFFFFFFFFFFFFFFFFFFFFFFFFFFFFFFFFFFF AND PUSH32 0x8BE0079C531659141344CD1FD0A4F28419497F9722A3DAAFE3B4186F6B6457E0 PUSH1 0x40 MLOAD PUSH1 0x40 MLOAD DUP1 SWAP2 SUB SWAP1 LOG3 POP POP JUMP JUMPDEST PUSH0 DUP2 MLOAD SWAP1 POP SWAP2 SWAP1 POP JUMP JUMPDEST PUSH32 0x4E487B7100000000000000000000000000000000000000000000000000000000 PUSH0 MSTORE PUSH1 0x41 PUSH1 0x4 MSTORE PUSH1 0x24 PUSH0 REVERT JUMPDEST PUSH32 0x4E487B7100000000000000000000000000000000000000000000000000000000 PUSH0 MSTORE PUSH1 0x22 PUSH1 0x4 MSTORE PUSH1 0x24 PUSH0 REVERT JUMPDEST PUSH0 PUSH1 0x2 DUP3 DIV SWAP1 POP PUSH1 0x1 DUP3 AND DUP1 PUSH2 0x1C0 JUMPI PUSH1 0x7F DUP3 AND SWAP2 POP JUMPDEST PUSH1 0x20 DUP3 LT DUP2 SUB PUSH2 0x1D3 JUMPI PUSH2 0x1D2 PUSH2 0x17C JUMP JUMPDEST JUMPDEST POP SWAP2 SWAP1 POP JUMP JUMPDEST PUSH0 DUP2 SWAP1 POP DUP2 PUSH0 MSTORE PUSH1 0x20 PUSH0 KECCAK256 SWAP1 POP SWAP2 SWAP1 POP JUMP JUMPDEST PUSH0 PUSH1 0x20 PUSH1 0x1F DUP4 ADD DIV SWAP1 POP SWAP2 SWAP1 POP JUMP JUMPDEST PUSH0 DUP3 DUP3 SHL SWAP1 POP SWAP3 SWAP2 POP POP JUMP JUMPDEST PUSH0 PUSH1 0x8 DUP4 MUL PUSH2 0x235 PUSH32 0xFFFFFFFFFFFFFFFFFFFFFFFFFFFFFFFFFFFFFFFFFFFFFFFFFFFFFFFFFFFFFFFF DUP3 PUSH2 0x1FA JUMP JUMPDEST PUSH2 0x23F DUP7 DUP4 PUSH2 0x1FA JUMP JUMPDEST SWAP6 POP DUP1 NOT DUP5 AND SWAP4 POP DUP1 DUP7 AND DUP5 OR SWAP3 POP POP POP SWAP4 SWAP3 POP POP POP JUMP JUMPDEST PUSH0 DUP2 SWAP1 POP SWAP2 SWAP1 POP JUMP JUMPDEST PUSH0 DUP2 SWAP1 POP SWAP2 SWAP1 POP JUMP JUMPDEST PUSH0 PUSH2 0x283 PUSH2 0x27E PUSH2 0x279 DUP5 PUSH2 0x257 JUMP JUMPDEST PUSH2 0x260 JUMP JUMPDEST PUSH2 0x257 JUMP JUMPDEST SWAP1 POP SWAP2 SWAP1 POP JUMP JUMPDEST PUSH0 DUP2 SWAP1 POP SWAP2 SWAP1 POP JUMP JUMPDEST PUSH2 0x29C DUP4 PUSH2 0x269 JUMP JUMPDEST PUSH2 0x2B0 PUSH2 0x2A8 DUP3 PUSH2 0x28A JUMP JUMPDEST DUP5 DUP5 SLOAD PUSH2 0x206 JUMP JUMPDEST DUP3 SSTORE POP POP POP POP JUMP JUMPDEST PUSH0 PUSH0 SWAP1 POP SWAP1 JUMP JUMPDEST PUSH2 0x2C7 PUSH2 0x2B8 JUMP JUMPDEST PUSH2 0x2D2 DUP2 DUP5 DUP5 PUSH2 0x293 JUMP JUMPDEST POP POP POP JUMP JUMPDEST JUMPDEST DUP2 DUP2 LT ISZERO PUSH2 0x2F5 JUMPI PUSH2 0x2EA PUSH0 DUP3 PUSH2 0x2BF JUMP JUMPDEST PUSH1 0x1 DUP2 ADD SWAP1 POP PUSH2 0x2D8 JUMP JUMPDEST POP POP JUMP JUMPDEST PUSH1 0x1F DUP3 GT ISZERO PUSH2 0x33A JUMPI PUSH2 0x30B DUP2 PUSH2 0x1D9 JUMP JUMPDEST PUSH2 0x314 DUP5 PUSH2 0x1EB JUMP JUMPDEST DUP2 ADD PUSH1 0x20 DUP6 LT ISZERO PUSH2 0x323 JUMPI DUP2 SWAP1 POP JUMPDEST PUSH2 0x337 PUSH2 0x32F DUP6 PUSH2 0x1EB JUMP JUMPDEST DUP4 ADD DUP3 PUSH2 0x2D7 JUMP JUMPDEST POP POP JUMPDEST POP POP POP JUMP JUMPDEST PUSH0 DUP3 DUP3 SHR SWAP1 POP SWAP3 SWAP2 POP POP JUMP JUMPDEST PUSH0 PUSH2 0x35A PUSH0 NOT DUP5 PUSH1 0x8 MUL PUSH2 0x33F JUMP JUMPDEST NOT DUP1 DUP4 AND SWAP2 POP POP SWAP3 SWAP2 POP POP JUMP JUMPDEST PUSH0 PUSH2 0x372 DUP4 DUP4 PUSH2 0x34B JUMP JUMPDEST SWAP2 POP DUP3 PUSH1 0x2 MUL DUP3 OR SWAP1 POP SWAP3 SWAP2 POP POP JUMP JUMPDEST PUSH2 0x38B DUP3 PUSH2 0x145 JUMP JUMPDEST PUSH8 0xFFFFFFFFFFFFFFFF DUP2 GT ISZERO PUSH2 0x3A4 JUMPI PUSH2 0x3A3 PUSH2 0x14F JUMP JUMPDEST JUMPDEST PUSH2 0x3AE DUP3 SLOAD PUSH2 0x1A9 JUMP JUMPDEST PUSH2 0x3B9 DUP3 DUP3 DUP6 PUSH2 0x2F9 JUMP JUMPDEST PUSH0 PUSH1 0x20 SWAP1 POP PUSH1 0x1F DUP4 GT PUSH1 0x1 DUP2 EQ PUSH2 0x3EA JUMPI PUSH0 DUP5 ISZERO PUSH2 0x3D8 JUMPI DUP3 DUP8 ADD MLOAD SWAP1 POP JUMPDEST PUSH2 0x3E2 DUP6 DUP3 PUSH2 0x367 JUMP JUMPDEST DUP7 SSTORE POP PUSH2 0x449 JUMP JUMPDEST PUSH1 0x1F NOT DUP5 AND PUSH2 0x3F8 DUP7 PUSH2 0x1D9 JUMP JUMPDEST PUSH0 JUMPDEST DUP3 DUP2 LT ISZERO PUSH2 0x41F JUMPI DUP5 DUP10 ADD MLOAD DUP3 SSTORE PUSH1 0x1 DUP3 ADD SWAP2 POP PUSH1 0x20 DUP6 ADD SWAP5 POP PUSH1 0x20 DUP2 ADD SWAP1 POP PUSH2 0x3FA JUMP JUMPDEST DUP7 DUP4 LT ISZERO PUSH2 0x43C JUMPI DUP5 DUP10 ADD MLOAD PUSH2 0x438 PUSH1 0x1F DUP10 AND DUP3 PUSH2 0x34B JUMP JUMPDEST DUP4 SSTORE POP JUMPDEST PUSH1 0x1 PUSH1 0x2 DUP9 MUL ADD DUP9 SSTORE POP POP POP JUMPDEST POP POP POP POP POP POP JUMP JUMPDEST PUSH2 0x2AC2 DUP1 PUSH2 0x45E PUSH0 CODECOPY PUSH0 RETURN INVALID PUSH1 0x80 PUSH1 0x40 MSTORE PUSH1 0x4 CALLDATASIZE LT PUSH2 0x11E JUMPI PUSH0 CALLDATALOAD PUSH1 0xE0 SHR DUP1 PUSH4 0x715018A6 GT PUSH2 0x9F JUMPI DUP1 PUSH4 0xD2F6AB9B GT PUSH2 0x63 JUMPI DUP1 PUSH4 0xD2F6AB9B EQ PUSH2 0x37A JUMPI DUP1 PUSH4 0xDDCA3F43 EQ PUSH2 0x3B6 JUMPI DUP1 PUSH4 0xF2FDE38B EQ PUSH2 0x3E0 JUMPI DUP1 PUSH4 0xF31F2F80 EQ PUSH2 0x408 JUMPI DUP1 PUSH4 0xFFA1AD74 EQ PUSH2 0x424 JUMPI PUSH2 0x11E JUMP JUMPDEST DUP1 PUSH4 0x715018A6 EQ PUSH2 0x2C0 JUMPI DUP1 PUSH4 0x8456CB59 EQ PUSH2 0x2D6 JUMPI DUP1 PUSH4 0x8DA5CB5B EQ PUSH2 0x2EC JUMPI DUP1 PUSH4 0x9012C4A8 EQ PUSH2 0x316 JUMPI DUP1 PUSH4 0xB666CA9D EQ PUSH2 0x33E JUMPI PUSH2 0x11E JUMP JUMPDEST DUP1 PUSH4 0x5675049E GT PUSH2 0xE6 JUMPI DUP1 PUSH4 0x5675049E EQ PUSH2 0x1E0 JUMPI DUP1 PUSH4 0x56A6D9EF EQ PUSH2 0x20A JUMPI DUP1 PUSH4 0x5C975ABB EQ PUSH2 0x232 JUMPI DUP1 PUSH4 0x613A0CC4 EQ PUSH2 0x25C JUMPI DUP1 PUSH4 0x63414343 EQ PUSH2 0x298 JUMPI PUSH2 0x11E JUMP JUMPDEST DUP1 PUSH4 0x12065FE0 EQ PUSH2 0x122 JUMPI DUP1 PUSH4 0x2CDC9EFB EQ PUSH2 0x14C JUMPI DUP1 PUSH4 0x368DF2A3 EQ PUSH2 0x18C JUMPI DUP1 PUSH4 0x3CCFD60B EQ PUSH2 0x1B4 JUMPI DUP1 PUSH4 0x3F4BA83A EQ PUSH2 0x1CA JUMPI JUMPDEST PUSH0 PUSH0 REVERT JUMPDEST CALLVALUE DUP1 ISZERO PUSH2 0x12D JUMPI PUSH0 PUSH0 REVERT JUMPDEST POP PUSH2 0x136 PUSH2 0x44E JUMP JUMPDEST PUSH1 0x40 MLOAD PUSH2 0x143 SWAP2 SWAP1 PUSH2 0x185D JUMP JUMPDEST PUSH1 0x40 MLOAD DUP1 SWAP2 SUB SWAP1 RETURN JUMPDEST CALLVALUE DUP1 ISZERO PUSH2 0x157 JUMPI PUSH0 PUSH0 REVERT JUMPDEST POP PUSH2 0x172 PUSH1 0x4 DUP1 CALLDATASIZE SUB DUP2 ADD SWAP1 PUSH2 0x16D SWAP2 SWAP1 PUSH2 0x190B JUMP JUMPDEST PUSH2 0x455 JUMP JUMPDEST PUSH1 0x40 MLOAD PUSH2 0x183 SWAP6 SWAP5 SWAP4 SWAP3 SWAP2 SWAP1 PUSH2 0x19E3 JUMP JUMPDEST PUSH1 0x40 MLOAD DUP1 SWAP2 SUB SWAP1 RETURN JUMPDEST CALLVALUE DUP1 ISZERO PUSH2 0x197 JUMPI PUSH0 PUSH0 REVERT JUMPDEST POP PUSH2 0x1B2 PUSH1 0x4 DUP1 CALLDATASIZE SUB DUP2 ADD SWAP1 PUSH2 0x1AD SWAP2 SWAP1 PUSH2 0x1B6E JUMP JUMPDEST PUSH2 0x5D8 JUMP JUMPDEST STOP JUMPDEST CALLVALUE DUP1 ISZERO PUSH2 0x1BF JUMPI PUSH0 PUSH0 REVERT JUMPDEST POP PUSH2 0x1C8 PUSH2 0x721 JUMP JUMPDEST STOP JUMPDEST CALLVALUE DUP1 ISZERO PUSH2 0x1D5 JUMPI PUSH0 PUSH0 REVERT JUMPDEST POP PUSH2 0x1DE PUSH2 0x7E0 JUMP JUMPDEST STOP JUMPDEST CALLVALUE DUP1 ISZERO PUSH2 0x1EB JUMPI PUSH0 PUSH0 REVERT JUMPDEST POP PUSH2 0x1F4 PUSH2 0x7F2 JUMP JUMPDEST PUSH1 0x40 MLOAD PUSH2 0x201 SWAP2 SWAP1 PUSH2 0x1CCB JUMP JUMPDEST PUSH1 0x40 MLOAD DUP1 SWAP2 SUB SWAP1 RETURN JUMPDEST CALLVALUE DUP1 ISZERO PUSH2 0x215 JUMPI PUSH0 PUSH0 REVERT JUMPDEST POP PUSH2 0x230 PUSH1 0x4 DUP1 CALLDATASIZE SUB DUP2 ADD SWAP1 PUSH2 0x22B SWAP2 SWAP1 PUSH2 0x1D26 JUMP JUMPDEST PUSH2 0x8C6 JUMP JUMPDEST STOP JUMPDEST CALLVALUE DUP1 ISZERO PUSH2 0x23D JUMPI PUSH0 PUSH0 REVERT JUMPDEST POP PUSH2 0x246 PUSH2 0x97B JUMP JUMPDEST PUSH1 0x40 MLOAD PUSH2 0x253 SWAP2 SWAP1 PUSH2 0x1D7E JUMP JUMPDEST PUSH1 0x40 MLOAD DUP1 SWAP2 SUB SWAP1 RETURN JUMPDEST CALLVALUE DUP1 ISZERO PUSH2 0x267 JUMPI PUSH0 PUSH0 REVERT JUMPDEST POP PUSH2 0x282 PUSH1 0x4 DUP1 CALLDATASIZE SUB DUP2 ADD SWAP1 PUSH2 0x27D SWAP2 SWAP1 PUSH2 0x1D97 JUMP JUMPDEST PUSH2 0x990 JUMP JUMPDEST PUSH1 0x40 MLOAD PUSH2 0x28F SWAP2 SWAP1 PUSH2 0x1D7E JUMP JUMPDEST PUSH1 0x40 MLOAD DUP1 SWAP2 SUB SWAP1 RETURN JUMPDEST CALLVALUE DUP1 ISZERO PUSH2 0x2A3 JUMPI PUSH0 PUSH0 REVERT JUMPDEST POP PUSH2 0x2BE PUSH1 0x4 DUP1 CALLDATASIZE SUB DUP2 ADD SWAP1 PUSH2 0x2B9 SWAP2 SWAP1 PUSH2 0x1E03 JUMP JUMPDEST PUSH2 0x9DD JUMP JUMPDEST STOP JUMPDEST CALLVALUE DUP1 ISZERO PUSH2 0x2CB JUMPI PUSH0 PUSH0 REVERT JUMPDEST POP PUSH2 0x2D4 PUSH2 0xB2D JUMP JUMPDEST STOP JUMPDEST CALLVALUE DUP1 ISZERO PUSH2 0x2E1 JUMPI PUSH0 PUSH0 REVERT JUMPDEST POP PUSH2 0x2EA PUSH2 0xB40 JUMP JUMPDEST STOP JUMPDEST CALLVALUE DUP1 ISZERO PUSH2 0x2F7 JUMPI PUSH0 PUSH0 REVERT JUMPDEST POP PUSH2 0x300 PUSH2 0xB52 JUMP JUMPDEST PUSH1 0x40 MLOAD PUSH2 0x30D SWAP2 SWAP1 PUSH2 0x1E4A JUMP JUMPDEST PUSH1 0x40 MLOAD DUP1 SWAP2 SUB SWAP1 RETURN JUMPDEST CALLVALUE DUP1 ISZERO PUSH2 0x321 JUMPI PUSH0 PUSH0 REVERT JUMPDEST POP PUSH2 0x33C PUSH1 0x4 DUP1 CALLDATASIZE SUB DUP2 ADD SWAP1 PUSH2 0x337 SWAP2 SWAP1 PUSH2 0x1E63 JUMP JUMPDEST PUSH2 0xB79 JUMP JUMPDEST STOP JUMPDEST CALLVALUE DUP1 ISZERO PUSH2 0x349 JUMPI PUSH0 PUSH0 REVERT JUMPDEST POP PUSH2 0x364 PUSH1 0x4 DUP1 CALLDATASIZE SUB DUP2 ADD SWAP1 PUSH2 0x35F SWAP2 SWAP1 PUSH2 0x1E8E JUMP JUMPDEST PUSH2 0xBC2 JUMP JUMPDEST PUSH1 0x40 MLOAD PUSH2 0x371 SWAP2 SWAP1 PUSH2 0x201B JUMP JUMPDEST PUSH1 0x40 MLOAD DUP1 SWAP2 SUB SWAP1 RETURN JUMPDEST CALLVALUE DUP1 ISZERO PUSH2 0x385 JUMPI PUSH0 PUSH0 REVERT JUMPDEST POP PUSH2 0x3A0 PUSH1 0x4 DUP1 CALLDATASIZE SUB DUP2 ADD SWAP1 PUSH2 0x39B SWAP2 SWAP1 PUSH2 0x1E63 JUMP JUMPDEST PUSH2 0xDF5 JUMP JUMPDEST PUSH1 0x40 MLOAD PUSH2 0x3AD SWAP2 SWAP1 PUSH2 0x203B JUMP JUMPDEST PUSH1 0x40 MLOAD DUP1 SWAP2 SUB SWAP1 RETURN JUMPDEST CALLVALUE DUP1 ISZERO PUSH2 0x3C1 JUMPI PUSH0 PUSH0 REVERT JUMPDEST POP PUSH2 0x3CA PUSH2 0xE9B JUMP JUMPDEST PUSH1 0x40 MLOAD PUSH2 0x3D7 SWAP2 SWAP1 PUSH2 0x185D JUMP JUMPDEST PUSH1 0x40 MLOAD DUP1 SWAP2 SUB SWAP1 RETURN JUMPDEST CALLVALUE DUP1 ISZERO PUSH2 0x3EB JUMPI PUSH0 PUSH0 REVERT JUMPDEST POP PUSH2 0x406 PUSH1 0x4 DUP1 CALLDATASIZE SUB DUP2 ADD SWAP1 PUSH2 0x401 SWAP2 SWAP1 PUSH2 0x1E8E JUMP JUMPDEST PUSH2 0xEA1 JUMP JUMPDEST STOP JUMPDEST PUSH2 0x422 PUSH1 0x4 DUP1 CALLDATASIZE SUB DUP2 ADD SWAP1 PUSH2 0x41D SWAP2 SWAP1 PUSH2 0x2085 JUMP JUMPDEST PUSH2 0xF23 JUMP JUMPDEST STOP JUMPDEST CALLVALUE DUP1 ISZERO PUSH2 0x42F JUMPI PUSH0 PUSH0 REVERT JUMPDEST POP PUSH2 0x438 PUSH2 0x1582 JUMP JUMPDEST PUSH1 0x40 MLOAD PUSH2 0x445 SWAP2 SWAP1 PUSH2 0x203B JUMP JUMPDEST PUSH1 0x40 MLOAD DUP1 SWAP2 SUB SWAP1 RETURN JUMPDEST PUSH0 SELFBALANCE SWAP1 POP SWAP1 JUMP JUMPDEST PUSH1 0x3 PUSH1 0x20 MSTORE DUP2 PUSH0 MSTORE PUSH1 0x40 PUSH0 KECCAK256 DUP2 DUP2 SLOAD DUP2 LT PUSH2 0x46E JUMPI PUSH0 DUP1 REVERT JUMPDEST SWAP1 PUSH0 MSTORE PUSH1 0x20 PUSH0 KECCAK256 SWAP1 PUSH1 0x5 MUL ADD PUSH0 SWAP2 POP SWAP2 POP POP DUP1 PUSH0 ADD PUSH0 SWAP1 SLOAD SWAP1 PUSH2 0x100 EXP SWAP1 DIV PUSH20 0xFFFFFFFFFFFFFFFFFFFFFFFFFFFFFFFFFFFFFFFF AND SWAP1 DUP1 PUSH1 0x1 ADD DUP1 SLOAD PUSH2 0x4B3 SWAP1 PUSH2 0x214E JUMP JUMPDEST DUP1 PUSH1 0x1F ADD PUSH1 0x20 DUP1 SWAP2 DIV MUL PUSH1 0x20 ADD PUSH1 0x40 MLOAD SWAP1 DUP2 ADD PUSH1 0x40 MSTORE DUP1 SWAP3 SWAP2 SWAP1 DUP2 DUP2 MSTORE PUSH1 0x20 ADD DUP3 DUP1 SLOAD PUSH2 0x4DF SWAP1 PUSH2 0x214E JUMP JUMPDEST DUP1 ISZERO PUSH2 0x52A JUMPI DUP1 PUSH1 0x1F LT PUSH2 0x501 JUMPI PUSH2 0x100 DUP1 DUP4 SLOAD DIV MUL DUP4 MSTORE SWAP2 PUSH1 0x20 ADD SWAP2 PUSH2 0x52A JUMP JUMPDEST DUP3 ADD SWAP2 SWAP1 PUSH0 MSTORE PUSH1 0x20 PUSH0 KECCAK256 SWAP1 JUMPDEST DUP2 SLOAD DUP2 MSTORE SWAP1 PUSH1 0x1 ADD SWAP1 PUSH1 0x20 ADD DUP1 DUP4 GT PUSH2 0x50D JUMPI DUP3 SWAP1 SUB PUSH1 0x1F AND DUP3 ADD SWAP2 JUMPDEST POP POP POP POP POP SWAP1 DUP1 PUSH1 0x2 ADD DUP1 SLOAD PUSH2 0x53F SWAP1 PUSH2 0x214E JUMP JUMPDEST DUP1 PUSH1 0x1F ADD PUSH1 0x20 DUP1 SWAP2 DIV MUL PUSH1 0x20 ADD PUSH1 0x40 MLOAD SWAP1 DUP2 ADD PUSH1 0x40 MSTORE DUP1 SWAP3 SWAP2 SWAP1 DUP2 DUP2 MSTORE PUSH1 0x20 ADD DUP3 DUP1 SLOAD PUSH2 0x56B SWAP1 PUSH2 0x214E JUMP JUMPDEST DUP1 ISZERO PUSH2 0x5B6 JUMPI DUP1 PUSH1 0x1F LT PUSH2 0x58D JUMPI PUSH2 0x100 DUP1 DUP4 SLOAD DIV MUL DUP4 MSTORE SWAP2 PUSH1 0x20 ADD SWAP2 PUSH2 0x5B6 JUMP JUMPDEST DUP3 ADD SWAP2 SWAP1 PUSH0 MSTORE PUSH1 0x20 PUSH0 KECCAK256 SWAP1 JUMPDEST DUP2 SLOAD DUP2 MSTORE SWAP1 PUSH1 0x1 ADD SWAP1 PUSH1 0x20 ADD DUP1 DUP4 GT PUSH2 0x599 JUMPI DUP3 SWAP1 SUB PUSH1 0x1F AND DUP3 ADD SWAP2 JUMPDEST POP POP POP POP POP SWAP1 DUP1 PUSH1 0x3 ADD PUSH0 SWAP1 SLOAD SWAP1 PUSH2 0x100 EXP SWAP1 DIV PUSH1 0xFF AND SWAP1 DUP1 PUSH1 0x4 ADD SLOAD SWAP1 POP DUP6 JUMP JUMPDEST PUSH2 0x5E0 PUSH2 0x15BB JUMP JUMPDEST PUSH0 DUP2 MLOAD GT PUSH2 0x623 JUMPI PUSH1 0x40 MLOAD PUSH32 0x8C379A000000000000000000000000000000000000000000000000000000000 DUP2 MSTORE PUSH1 0x4 ADD PUSH2 0x61A SWAP1 PUSH2 0x21C8 JUMP JUMPDEST PUSH1 0x40 MLOAD DUP1 SWAP2 SUB SWAP1 REVERT JUMPDEST PUSH0 PUSH0 SWAP1 POP JUMPDEST PUSH1 0x5 DUP1 SLOAD SWAP1 POP DUP2 LT ISZERO PUSH2 0x6BB JUMPI DUP2 DUP1 MLOAD SWAP1 PUSH1 0x20 ADD KECCAK256 PUSH1 0x5 DUP3 DUP2 SLOAD DUP2 LT PUSH2 0x651 JUMPI PUSH2 0x650 PUSH2 0x21E6 JUMP JUMPDEST JUMPDEST SWAP1 PUSH0 MSTORE PUSH1 0x20 PUSH0 KECCAK256 ADD PUSH1 0x40 MLOAD PUSH2 0x666 SWAP2 SWAP1 PUSH2 0x22AF JUMP JUMPDEST PUSH1 0x40 MLOAD DUP1 SWAP2 SUB SWAP1 KECCAK256 SUB PUSH2 0x6AE JUMPI PUSH1 0x40 MLOAD PUSH32 0x8C379A000000000000000000000000000000000000000000000000000000000 DUP2 MSTORE PUSH1 0x4 ADD PUSH2 0x6A5 SWAP1 PUSH2 0x230F JUMP JUMPDEST PUSH1 0x40 MLOAD DUP1 SWAP2 SUB SWAP1 REVERT JUMPDEST DUP1 DUP1 PUSH1 0x1 ADD SWAP2 POP POP PUSH2 0x628 JUMP JUMPDEST POP DUP1 PUSH1 0x5 DUP4 DUP2 SLOAD DUP2 LT PUSH2 0x6D1 JUMPI PUSH2 0x6D0 PUSH2 0x21E6 JUMP JUMPDEST JUMPDEST SWAP1 PUSH0 MSTORE PUSH1 0x20 PUSH0 KECCAK256 ADD SWAP1 DUP2 PUSH2 0x6E5 SWAP2 SWAP1 PUSH2 0x24CD JUMP JUMPDEST POP PUSH32 0x8329F95E4544F4E52F94F1889C321525F3AB368F971C4AD352BA31B4EA8FED56 DUP2 PUSH1 0x40 MLOAD PUSH2 0x715 SWAP2 SWAP1 PUSH2 0x203B JUMP JUMPDEST PUSH1 0x40 MLOAD DUP1 SWAP2 SUB SWAP1 LOG1 POP POP JUMP JUMPDEST PUSH2 0x729 PUSH2 0x15BB JUMP JUMPDEST PUSH0 SELFBALANCE SWAP1 POP PUSH0 PUSH2 0x736 PUSH2 0xB52 JUMP JUMPDEST PUSH20 0xFFFFFFFFFFFFFFFFFFFFFFFFFFFFFFFFFFFFFFFF AND DUP3 PUSH1 0x40 MLOAD PUSH2 0x759 SWAP1 PUSH2 0x25BF JUMP JUMPDEST PUSH0 PUSH1 0x40 MLOAD DUP1 DUP4 SUB DUP2 DUP6 DUP8 GAS CALL SWAP3 POP POP POP RETURNDATASIZE DUP1 PUSH0 DUP2 EQ PUSH2 0x793 JUMPI PUSH1 0x40 MLOAD SWAP2 POP PUSH1 0x1F NOT PUSH1 0x3F RETURNDATASIZE ADD AND DUP3 ADD PUSH1 0x40 MSTORE RETURNDATASIZE DUP3 MSTORE RETURNDATASIZE PUSH0 PUSH1 0x20 DUP5 ADD RETURNDATACOPY PUSH2 0x798 JUMP JUMPDEST PUSH1 0x60 SWAP2 POP JUMPDEST POP POP SWAP1 POP DUP1 PUSH2 0x7DC JUMPI PUSH1 0x40 MLOAD PUSH32 0x8C379A000000000000000000000000000000000000000000000000000000000 DUP2 MSTORE PUSH1 0x4 ADD PUSH2 0x7D3 SWAP1 PUSH2 0x261D JUMP JUMPDEST PUSH1 0x40 MLOAD DUP1 SWAP2 SUB SWAP1 REVERT JUMPDEST POP POP JUMP JUMPDEST PUSH2 0x7E8 PUSH2 0x15BB JUMP JUMPDEST PUSH2 0x7F0 PUSH2 0x1639 JUMP JUMPDEST JUMP JUMPDEST PUSH1 0x60 PUSH1 0x5 DUP1 SLOAD DUP1 PUSH1 0x20 MUL PUSH1 0x20 ADD PUSH1 0x40 MLOAD SWAP1 DUP2 ADD PUSH1 0x40 MSTORE DUP1 SWAP3 SWAP2 SWAP1 DUP2 DUP2 MSTORE PUSH1 0x20 ADD PUSH0 SWAP1 JUMPDEST DUP3 DUP3 LT ISZERO PUSH2 0x8BD JUMPI DUP4 DUP3 SWAP1 PUSH0 MSTORE PUSH1 0x20 PUSH0 KECCAK256 ADD DUP1 SLOAD PUSH2 0x832 SWAP1 PUSH2 0x214E JUMP JUMPDEST DUP1 PUSH1 0x1F ADD PUSH1 0x20 DUP1 SWAP2 DIV MUL PUSH1 0x20 ADD PUSH1 0x40 MLOAD SWAP1 DUP2 ADD PUSH1 0x40 MSTORE DUP1 SWAP3 SWAP2 SWAP1 DUP2 DUP2 MSTORE PUSH1 0x20 ADD DUP3 DUP1 SLOAD PUSH2 0x85E SWAP1 PUSH2 0x214E JUMP JUMPDEST DUP1 ISZERO PUSH2 0x8A9 JUMPI DUP1 PUSH1 0x1F LT PUSH2 0x880 JUMPI PUSH2 0x100 DUP1 DUP4 SLOAD DIV MUL DUP4 MSTORE SWAP2 PUSH1 0x20 ADD SWAP2 PUSH2 0x8A9 JUMP JUMPDEST DUP3 ADD SWAP2 SWAP1 PUSH0 MSTORE PUSH1 0x20 PUSH0 KECCAK256 SWAP1 JUMPDEST DUP2 SLOAD DUP2 MSTORE SWAP1 PUSH1 0x1 ADD SWAP1 PUSH1 0x20 ADD DUP1 DUP4 GT PUSH2 0x88C JUMPI DUP3 SWAP1 SUB PUSH1 0x1F AND DUP3 ADD SWAP2 JUMPDEST POP POP POP POP POP DUP2 MSTORE PUSH1 0x20 ADD SWAP1 PUSH1 0x1 ADD SWAP1 PUSH2 0x815 JUMP JUMPDEST POP POP POP POP SWAP1 POP SWAP1 JUMP JUMPDEST PUSH2 0x8CE PUSH2 0x15BB JUMP JUMPDEST PUSH0 DUP3 PUSH20 0xFFFFFFFFFFFFFFFFFFFFFFFFFFFFFFFFFFFFFFFF AND DUP3 PUSH1 0x40 MLOAD PUSH2 0x8F3 SWAP1 PUSH2 0x25BF JUMP JUMPDEST PUSH0 PUSH1 0x40 MLOAD DUP1 DUP4 SUB DUP2 DUP6 DUP8 GAS CALL SWAP3 POP POP POP RETURNDATASIZE DUP1 PUSH0 DUP2 EQ PUSH2 0x92D JUMPI PUSH1 0x40 MLOAD SWAP2 POP PUSH1 0x1F NOT PUSH1 0x3F RETURNDATASIZE ADD AND DUP3 ADD PUSH1 0x40 MSTORE RETURNDATASIZE DUP3 MSTORE RETURNDATASIZE PUSH0 PUSH1 0x20 DUP5 ADD RETURNDATACOPY PUSH2 0x932 JUMP JUMPDEST PUSH1 0x60 SWAP2 POP JUMPDEST POP POP SWAP1 POP DUP1 PUSH2 0x976 JUMPI PUSH1 0x40 MLOAD PUSH32 0x8C379A000000000000000000000000000000000000000000000000000000000 DUP2 MSTORE PUSH1 0x4 ADD PUSH2 0x96D SWAP1 PUSH2 0x261D JUMP JUMPDEST PUSH1 0x40 MLOAD DUP1 SWAP2 SUB SWAP1 REVERT JUMPDEST POP POP POP JUMP JUMPDEST PUSH0 PUSH0 PUSH1 0x14 SWAP1 SLOAD SWAP1 PUSH2 0x100 EXP SWAP1 DIV PUSH1 0xFF AND SWAP1 POP SWAP1 JUMP JUMPDEST PUSH1 0x4 PUSH1 0x20 MSTORE DUP3 PUSH0 MSTORE PUSH1 0x40 PUSH0 KECCAK256 PUSH1 0x20 MSTORE DUP2 PUSH0 MSTORE PUSH1 0x40 PUSH0 KECCAK256 DUP2 DUP1 MLOAD PUSH1 0x20 DUP2 ADD DUP3 ADD DUP1 MLOAD DUP5 DUP3 MSTORE PUSH1 0x20 DUP4 ADD PUSH1 0x20 DUP6 ADD KECCAK256 DUP2 DUP4 MSTORE DUP1 SWAP6 POP POP POP POP POP POP PUSH0 SWAP3 POP SWAP3 POP POP SWAP1 SLOAD SWAP1 PUSH2 0x100 EXP SWAP1 DIV PUSH1 0xFF AND DUP2 JUMP JUMPDEST PUSH2 0x9E5 PUSH2 0x15BB JUMP JUMPDEST PUSH0 DUP2 MLOAD GT PUSH2 0xA28 JUMPI PUSH1 0x40 MLOAD PUSH32 0x8C379A000000000000000000000000000000000000000000000000000000000 DUP2 MSTORE PUSH1 0x4 ADD PUSH2 0xA1F SWAP1 PUSH2 0x21C8 JUMP JUMPDEST PUSH1 0x40 MLOAD DUP1 SWAP2 SUB SWAP1 REVERT JUMPDEST PUSH0 PUSH0 SWAP1 POP JUMPDEST PUSH1 0x5 DUP1 SLOAD SWAP1 POP DUP2 LT ISZERO PUSH2 0xAC0 JUMPI DUP2 DUP1 MLOAD SWAP1 PUSH1 0x20 ADD KECCAK256 PUSH1 0x5 DUP3 DUP2 SLOAD DUP2 LT PUSH2 0xA56 JUMPI PUSH2 0xA55 PUSH2 0x21E6 JUMP JUMPDEST JUMPDEST SWAP1 PUSH0 MSTORE PUSH1 0x20 PUSH0 KECCAK256 ADD PUSH1 0x40 MLOAD PUSH2 0xA6B SWAP2 SWAP1 PUSH2 0x22AF JUMP JUMPDEST PUSH1 0x40 MLOAD DUP1 SWAP2 SUB SWAP1 KECCAK256 SUB PUSH2 0xAB3 JUMPI PUSH1 0x40 MLOAD PUSH32 0x8C379A000000000000000000000000000000000000000000000000000000000 DUP2 MSTORE PUSH1 0x4 ADD PUSH2 0xAAA SWAP1 PUSH2 0x230F JUMP JUMPDEST PUSH1 0x40 MLOAD DUP1 SWAP2 SUB SWAP1 REVERT JUMPDEST DUP1 DUP1 PUSH1 0x1 ADD SWAP2 POP POP PUSH2 0xA2D JUMP JUMPDEST POP PUSH1 0x5 DUP2 SWAP1 DUP1 PUSH1 0x1 DUP2 SLOAD ADD DUP1 DUP3 SSTORE DUP1 SWAP2 POP POP PUSH1 0x1 SWAP1 SUB SWAP1 PUSH0 MSTORE PUSH1 0x20 PUSH0 KECCAK256 ADD PUSH0 SWAP1 SWAP2 SWAP1 SWAP2 SWAP1 SWAP2 POP SWAP1 DUP2 PUSH2 0xAF2 SWAP2 SWAP1 PUSH2 0x24CD JUMP JUMPDEST POP PUSH32 0x8329F95E4544F4E52F94F1889C321525F3AB368F971C4AD352BA31B4EA8FED56 DUP2 PUSH1 0x40 MLOAD PUSH2 0xB22 SWAP2 SWAP1 PUSH2 0x203B JUMP JUMPDEST PUSH1 0x40 MLOAD DUP1 SWAP2 SUB SWAP1 LOG1 POP JUMP JUMPDEST PUSH2 0xB35 PUSH2 0x15BB JUMP JUMPDEST PUSH2 0xB3E PUSH0 PUSH2 0x169A JUMP JUMPDEST JUMP JUMPDEST PUSH2 0xB48 PUSH2 0x15BB JUMP JUMPDEST PUSH2 0xB50 PUSH2 0x175B JUMP JUMPDEST JUMP JUMPDEST PUSH0 PUSH0 PUSH0 SWAP1 SLOAD SWAP1 PUSH2 0x100 EXP SWAP1 DIV PUSH20 0xFFFFFFFFFFFFFFFFFFFFFFFFFFFFFFFFFFFFFFFF AND SWAP1 POP SWAP1 JUMP JUMPDEST PUSH2 0xB81 PUSH2 0x15BB JUMP JUMPDEST DUP1 PUSH1 0x2 DUP2 SWAP1 SSTORE POP PUSH32 0x8C4D35E54A3F2EF1134138FD8EA3DAEE6A3C89E10D2665996BABDF70261E2C76 DUP2 PUSH1 0x40 MLOAD PUSH2 0xBB7 SWAP2 SWAP1 PUSH2 0x185D JUMP JUMPDEST PUSH1 0x40 MLOAD DUP1 SWAP2 SUB SWAP1 LOG1 POP JUMP JUMPDEST PUSH1 0x60 PUSH1 0x3 PUSH0 DUP4 PUSH20 0xFFFFFFFFFFFFFFFFFFFFFFFFFFFFFFFFFFFFFFFF AND PUSH20 0xFFFFFFFFFFFFFFFFFFFFFFFFFFFFFFFFFFFFFFFF AND DUP2 MSTORE PUSH1 0x20 ADD SWAP1 DUP2 MSTORE PUSH1 0x20 ADD PUSH0 KECCAK256 DUP1 SLOAD DUP1 PUSH1 0x20 MUL PUSH1 0x20 ADD PUSH1 0x40 MLOAD SWAP1 DUP2 ADD PUSH1 0x40 MSTORE DUP1 SWAP3 SWAP2 SWAP1 DUP2 DUP2 MSTORE PUSH1 0x20 ADD PUSH0 SWAP1 JUMPDEST DUP3 DUP3 LT ISZERO PUSH2 0xDEA JUMPI DUP4 DUP3 SWAP1 PUSH0 MSTORE PUSH1 0x20 PUSH0 KECCAK256 SWAP1 PUSH1 0x5 MUL ADD PUSH1 0x40 MLOAD DUP1 PUSH1 0xA0 ADD PUSH1 0x40 MSTORE SWAP1 DUP2 PUSH0 DUP3 ADD PUSH0 SWAP1 SLOAD SWAP1 PUSH2 0x100 EXP SWAP1 DIV PUSH20 0xFFFFFFFFFFFFFFFFFFFFFFFFFFFFFFFFFFFFFFFF AND PUSH20 0xFFFFFFFFFFFFFFFFFFFFFFFFFFFFFFFFFFFFFFFF AND PUSH20 0xFFFFFFFFFFFFFFFFFFFFFFFFFFFFFFFFFFFFFFFF AND DUP2 MSTORE PUSH1 0x20 ADD PUSH1 0x1 DUP3 ADD DUP1 SLOAD PUSH2 0xCA5 SWAP1 PUSH2 0x214E JUMP JUMPDEST DUP1 PUSH1 0x1F ADD PUSH1 0x20 DUP1 SWAP2 DIV MUL PUSH1 0x20 ADD PUSH1 0x40 MLOAD SWAP1 DUP2 ADD PUSH1 0x40 MSTORE DUP1 SWAP3 SWAP2 SWAP1 DUP2 DUP2 MSTORE PUSH1 0x20 ADD DUP3 DUP1 SLOAD PUSH2 0xCD1 SWAP1 PUSH2 0x214E JUMP JUMPDEST DUP1 ISZERO PUSH2 0xD1C JUMPI DUP1 PUSH1 0x1F LT PUSH2 0xCF3 JUMPI PUSH2 0x100 DUP1 DUP4 SLOAD DIV MUL DUP4 MSTORE SWAP2 PUSH1 0x20 ADD SWAP2 PUSH2 0xD1C JUMP JUMPDEST DUP3 ADD SWAP2 SWAP1 PUSH0 MSTORE PUSH1 0x20 PUSH0 KECCAK256 SWAP1 JUMPDEST DUP2 SLOAD DUP2 MSTORE SWAP1 PUSH1 0x1 ADD SWAP1 PUSH1 0x20 ADD DUP1 DUP4 GT PUSH2 0xCFF JUMPI DUP3 SWAP1 SUB PUSH1 0x1F AND DUP3 ADD SWAP2 JUMPDEST POP POP POP POP POP DUP2 MSTORE PUSH1 0x20 ADD PUSH1 0x2 DUP3 ADD DUP1 SLOAD PUSH2 0xD35 SWAP1 PUSH2 0x214E JUMP JUMPDEST DUP1 PUSH1 0x1F ADD PUSH1 0x20 DUP1 SWAP2 DIV MUL PUSH1 0x20 ADD PUSH1 0x40 MLOAD SWAP1 DUP2 ADD PUSH1 0x40 MSTORE DUP1 SWAP3 SWAP2 SWAP1 DUP2 DUP2 MSTORE PUSH1 0x20 ADD DUP3 DUP1 SLOAD PUSH2 0xD61 SWAP1 PUSH2 0x214E JUMP JUMPDEST DUP1 ISZERO PUSH2 0xDAC JUMPI DUP1 PUSH1 0x1F LT PUSH2 0xD83 JUMPI PUSH2 0x100 DUP1 DUP4 SLOAD DIV MUL DUP4 MSTORE SWAP2 PUSH1 0x20 ADD SWAP2 PUSH2 0xDAC JUMP JUMPDEST DUP3 ADD SWAP2 SWAP1 PUSH0 MSTORE PUSH1 0x20 PUSH0 KECCAK256 SWAP1 JUMPDEST DUP2 SLOAD DUP2 MSTORE SWAP1 PUSH1 0x1 ADD SWAP1 PUSH1 0x20 ADD DUP1 DUP4 GT PUSH2 0xD8F JUMPI DUP3 SWAP1 SUB PUSH1 0x1F AND DUP3 ADD SWAP2 JUMPDEST POP POP POP POP POP DUP2 MSTORE PUSH1 0x20 ADD PUSH1 0x3 DUP3 ADD PUSH0 SWAP1 SLOAD SWAP1 PUSH2 0x100 EXP SWAP1 DIV PUSH1 0xFF AND PUSH1 0xFF AND PUSH1 0xFF AND DUP2 MSTORE PUSH1 0x20 ADD PUSH1 0x4 DUP3 ADD SLOAD DUP2 MSTORE POP POP DUP2 MSTORE PUSH1 0x20 ADD SWAP1 PUSH1 0x1 ADD SWAP1 PUSH2 0xC20 JUMP JUMPDEST POP POP POP POP SWAP1 POP SWAP2 SWAP1 POP JUMP JUMPDEST PUSH1 0x5 DUP2 DUP2 SLOAD DUP2 LT PUSH2 0xE04 JUMPI PUSH0 DUP1 REVERT JUMPDEST SWAP1 PUSH0 MSTORE PUSH1 0x20 PUSH0 KECCAK256 ADD PUSH0 SWAP2 POP SWAP1 POP DUP1 SLOAD PUSH2 0xE1C SWAP1 PUSH2 0x214E JUMP JUMPDEST DUP1 PUSH1 0x1F ADD PUSH1 0x20 DUP1 SWAP2 DIV MUL PUSH1 0x20 ADD PUSH1 0x40 MLOAD SWAP1 DUP2 ADD PUSH1 0x40 MSTORE DUP1 SWAP3 SWAP2 SWAP1 DUP2 DUP2 MSTORE PUSH1 0x20 ADD DUP3 DUP1 SLOAD PUSH2 0xE48 SWAP1 PUSH2 0x214E JUMP JUMPDEST DUP1 ISZERO PUSH2 0xE93 JUMPI DUP1 PUSH1 0x1F LT PUSH2 0xE6A JUMPI PUSH2 0x100 DUP1 DUP4 SLOAD DIV MUL DUP4 MSTORE SWAP2 PUSH1 0x20 ADD SWAP2 PUSH2 0xE93 JUMP JUMPDEST DUP3 ADD SWAP2 SWAP1 PUSH0 MSTORE PUSH1 0x20 PUSH0 KECCAK256 SWAP1 JUMPDEST DUP2 SLOAD DUP2 MSTORE SWAP1 PUSH1 0x1 ADD SWAP1 PUSH1 0x20 ADD DUP1 DUP4 GT PUSH2 0xE76 JUMPI DUP3 SWAP1 SUB PUSH1 0x1F AND DUP3 ADD SWAP2 JUMPDEST POP POP POP POP POP DUP2 JUMP JUMPDEST PUSH1 0x2 SLOAD DUP2 JUMP JUMPDEST PUSH2 0xEA9 PUSH2 0x15BB JUMP JUMPDEST PUSH0 PUSH20 0xFFFFFFFFFFFFFFFFFFFFFFFFFFFFFFFFFFFFFFFF AND DUP2 PUSH20 0xFFFFFFFFFFFFFFFFFFFFFFFFFFFFFFFFFFFFFFFF AND SUB PUSH2 0xF17 JUMPI PUSH1 0x40 MLOAD PUSH32 0x8C379A000000000000000000000000000000000000000000000000000000000 DUP2 MSTORE PUSH1 0x4 ADD PUSH2 0xF0E SWAP1 PUSH2 0x26AB JUMP JUMPDEST PUSH1 0x40 MLOAD DUP1 SWAP2 SUB SWAP1 REVERT JUMPDEST PUSH2 0xF20 DUP2 PUSH2 0x169A JUMP JUMPDEST POP JUMP JUMPDEST PUSH0 PUSH20 0xFFFFFFFFFFFFFFFFFFFFFFFFFFFFFFFFFFFFFFFF AND DUP5 PUSH20 0xFFFFFFFFFFFFFFFFFFFFFFFFFFFFFFFFFFFFFFFF AND SUB PUSH2 0xF91 JUMPI PUSH1 0x40 MLOAD PUSH32 0x8C379A000000000000000000000000000000000000000000000000000000000 DUP2 MSTORE PUSH1 0x4 ADD PUSH2 0xF88 SWAP1 PUSH2 0x2713 JUMP JUMPDEST PUSH1 0x40 MLOAD DUP1 SWAP2 SUB SWAP1 REVERT JUMPDEST PUSH2 0xF99 PUSH2 0x17BD JUMP JUMPDEST PUSH20 0xFFFFFFFFFFFFFFFFFFFFFFFFFFFFFFFFFFFFFFFF AND DUP5 PUSH20 0xFFFFFFFFFFFFFFFFFFFFFFFFFFFFFFFFFFFFFFFF AND SUB PUSH2 0x1006 JUMPI PUSH1 0x40 MLOAD PUSH32 0x8C379A000000000000000000000000000000000000000000000000000000000 DUP2 MSTORE PUSH1 0x4 ADD PUSH2 0xFFD SWAP1 PUSH2 0x277B JUMP JUMPDEST PUSH1 0x40 MLOAD DUP1 SWAP2 SUB SWAP1 REVERT JUMPDEST PUSH0 DUP2 PUSH1 0xFF AND GT DUP1 ISZERO PUSH2 0x101C JUMPI POP PUSH1 0x5 DUP2 PUSH1 0xFF AND GT ISZERO JUMPDEST PUSH2 0x105B JUMPI PUSH1 0x40 MLOAD PUSH32 0x8C379A000000000000000000000000000000000000000000000000000000000 DUP2 MSTORE PUSH1 0x4 ADD PUSH2 0x1052 SWAP1 PUSH2 0x27E3 JUMP JUMPDEST PUSH1 0x40 MLOAD DUP1 SWAP2 SUB SWAP1 REVERT JUMPDEST PUSH0 PUSH0 SWAP1 POP PUSH0 PUSH0 SWAP1 POP JUMPDEST PUSH1 0x5 DUP1 SLOAD SWAP1 POP DUP2 LT ISZERO PUSH2 0x10C5 JUMPI DUP5 DUP1 MLOAD SWAP1 PUSH1 0x20 ADD KECCAK256 PUSH1 0x5 DUP3 DUP2 SLOAD DUP2 LT PUSH2 0x108D JUMPI PUSH2 0x108C PUSH2 0x21E6 JUMP JUMPDEST JUMPDEST SWAP1 PUSH0 MSTORE PUSH1 0x20 PUSH0 KECCAK256 ADD PUSH1 0x40 MLOAD PUSH2 0x10A2 SWAP2 SWAP1 PUSH2 0x22AF JUMP JUMPDEST PUSH1 0x40 MLOAD DUP1 SWAP2 SUB SWAP1 KECCAK256 SUB PUSH2 0x10B8 JUMPI PUSH1 0x1 SWAP2 POP PUSH2 0x10C5 JUMP JUMPDEST DUP1 DUP1 PUSH1 0x1 ADD SWAP2 POP POP PUSH2 0x1064 JUMP JUMPDEST POP DUP1 PUSH2 0x1106 JUMPI PUSH1 0x40 MLOAD PUSH32 0x8C379A000000000000000000000000000000000000000000000000000000000 DUP2 MSTORE PUSH1 0x4 ADD PUSH2 0x10FD SWAP1 PUSH2 0x284B JUMP JUMPDEST PUSH1 0x40 MLOAD DUP1 SWAP2 SUB SWAP1 REVERT JUMPDEST PUSH1 0x4 PUSH0 DUP7 PUSH20 0xFFFFFFFFFFFFFFFFFFFFFFFFFFFFFFFFFFFFFFFF AND PUSH20 0xFFFFFFFFFFFFFFFFFFFFFFFFFFFFFFFFFFFFFFFF AND DUP2 MSTORE PUSH1 0x20 ADD SWAP1 DUP2 MSTORE PUSH1 0x20 ADD PUSH0 KECCAK256 PUSH0 PUSH2 0x114C PUSH2 0x17BD JUMP JUMPDEST PUSH20 0xFFFFFFFFFFFFFFFFFFFFFFFFFFFFFFFFFFFFFFFF AND PUSH20 0xFFFFFFFFFFFFFFFFFFFFFFFFFFFFFFFFFFFFFFFF AND DUP2 MSTORE PUSH1 0x20 ADD SWAP1 DUP2 MSTORE PUSH1 0x20 ADD PUSH0 KECCAK256 DUP5 PUSH1 0x40 MLOAD PUSH2 0x1193 SWAP2 SWAP1 PUSH2 0x28A3 JUMP JUMPDEST SWAP1 DUP2 MSTORE PUSH1 0x20 ADD PUSH1 0x40 MLOAD DUP1 SWAP2 SUB SWAP1 KECCAK256 PUSH0 SWAP1 SLOAD SWAP1 PUSH2 0x100 EXP SWAP1 DIV PUSH1 0xFF AND ISZERO PUSH2 0x11EE JUMPI PUSH1 0x40 MLOAD PUSH32 0x8C379A000000000000000000000000000000000000000000000000000000000 DUP2 MSTORE PUSH1 0x4 ADD PUSH2 0x11E5 SWAP1 PUSH2 0x2929 JUMP JUMPDEST PUSH1 0x40 MLOAD DUP1 SWAP2 SUB SWAP1 REVERT JUMPDEST PUSH0 PUSH1 0x2 SLOAD GT ISZERO PUSH2 0x12F5 JUMPI PUSH1 0x2 SLOAD CALLVALUE LT ISZERO PUSH2 0x123F JUMPI CALLVALUE PUSH1 0x40 MLOAD PUSH32 0x9266535100000000000000000000000000000000000000000000000000000000 DUP2 MSTORE PUSH1 0x4 ADD PUSH2 0x1236 SWAP2 SWAP1 PUSH2 0x185D JUMP JUMPDEST PUSH1 0x40 MLOAD DUP1 SWAP2 SUB SWAP1 REVERT JUMPDEST PUSH0 PUSH2 0x1248 PUSH2 0xB52 JUMP JUMPDEST PUSH20 0xFFFFFFFFFFFFFFFFFFFFFFFFFFFFFFFFFFFFFFFF AND CALLVALUE PUSH1 0x40 MLOAD PUSH2 0x126B SWAP1 PUSH2 0x25BF JUMP JUMPDEST PUSH0 PUSH1 0x40 MLOAD DUP1 DUP4 SUB DUP2 DUP6 DUP8 GAS CALL SWAP3 POP POP POP RETURNDATASIZE DUP1 PUSH0 DUP2 EQ PUSH2 0x12A5 JUMPI PUSH1 0x40 MLOAD SWAP2 POP PUSH1 0x1F NOT PUSH1 0x3F RETURNDATASIZE ADD AND DUP3 ADD PUSH1 0x40 MSTORE RETURNDATASIZE DUP3 MSTORE RETURNDATASIZE PUSH0 PUSH1 0x20 DUP5 ADD RETURNDATACOPY PUSH2 0x12AA JUMP JUMPDEST PUSH1 0x60 SWAP2 POP JUMPDEST POP POP SWAP1 POP DUP1 PUSH1 0x1 SWAP1 PUSH2 0x12F2 JUMPI PUSH1 0x40 MLOAD PUSH32 0x8C379A000000000000000000000000000000000000000000000000000000000 DUP2 MSTORE PUSH1 0x4 ADD PUSH2 0x12E9 SWAP2 SWAP1 PUSH2 0x29C8 JUMP JUMPDEST PUSH1 0x40 MLOAD DUP1 SWAP2 SUB SWAP1 REVERT JUMPDEST POP POP JUMPDEST PUSH0 PUSH1 0x40 MLOAD DUP1 PUSH1 0xA0 ADD PUSH1 0x40 MSTORE DUP1 PUSH2 0x1309 PUSH2 0x17BD JUMP JUMPDEST PUSH20 0xFFFFFFFFFFFFFFFFFFFFFFFFFFFFFFFFFFFFFFFF AND DUP2 MSTORE PUSH1 0x20 ADD DUP7 DUP2 MSTORE PUSH1 0x20 ADD DUP6 DUP2 MSTORE PUSH1 0x20 ADD DUP5 PUSH1 0xFF AND DUP2 MSTORE PUSH1 0x20 ADD TIMESTAMP DUP2 MSTORE POP SWAP1 POP PUSH1 0x3 PUSH0 DUP8 PUSH20 0xFFFFFFFFFFFFFFFFFFFFFFFFFFFFFFFFFFFFFFFF AND PUSH20 0xFFFFFFFFFFFFFFFFFFFFFFFFFFFFFFFFFFFFFFFF AND DUP2 MSTORE PUSH1 0x20 ADD SWAP1 DUP2 MSTORE PUSH1 0x20 ADD PUSH0 KECCAK256 DUP2 SWAP1 DUP1 PUSH1 0x1 DUP2 SLOAD ADD DUP1 DUP3 SSTORE DUP1 SWAP2 POP POP PUSH1 0x1 SWAP1 SUB SWAP1 PUSH0 MSTORE PUSH1 0x20 PUSH0 KECCAK256 SWAP1 PUSH1 0x5 MUL ADD PUSH0 SWAP1 SWAP2 SWAP1 SWAP2 SWAP1 SWAP2 POP PUSH0 DUP3 ADD MLOAD DUP2 PUSH0 ADD PUSH0 PUSH2 0x100 EXP DUP2 SLOAD DUP2 PUSH20 0xFFFFFFFFFFFFFFFFFFFFFFFFFFFFFFFFFFFFFFFF MUL NOT AND SWAP1 DUP4 PUSH20 0xFFFFFFFFFFFFFFFFFFFFFFFFFFFFFFFFFFFFFFFF AND MUL OR SWAP1 SSTORE POP PUSH1 0x20 DUP3 ADD MLOAD DUP2 PUSH1 0x1 ADD SWAP1 DUP2 PUSH2 0x13FC SWAP2 SWAP1 PUSH2 0x24CD JUMP JUMPDEST POP PUSH1 0x40 DUP3 ADD MLOAD DUP2 PUSH1 0x2 ADD SWAP1 DUP2 PUSH2 0x1412 SWAP2 SWAP1 PUSH2 0x24CD JUMP JUMPDEST POP PUSH1 0x60 DUP3 ADD MLOAD DUP2 PUSH1 0x3 ADD PUSH0 PUSH2 0x100 EXP DUP2 SLOAD DUP2 PUSH1 0xFF MUL NOT AND SWAP1 DUP4 PUSH1 0xFF AND MUL OR SWAP1 SSTORE POP PUSH1 0x80 DUP3 ADD MLOAD DUP2 PUSH1 0x4 ADD SSTORE POP POP PUSH1 0x1 PUSH1 0x4 PUSH0 DUP9 PUSH20 0xFFFFFFFFFFFFFFFFFFFFFFFFFFFFFFFFFFFFFFFF AND PUSH20 0xFFFFFFFFFFFFFFFFFFFFFFFFFFFFFFFFFFFFFFFF AND DUP2 MSTORE PUSH1 0x20 ADD SWAP1 DUP2 MSTORE PUSH1 0x20 ADD PUSH0 KECCAK256 PUSH0 PUSH2 0x1487 PUSH2 0x17BD JUMP JUMPDEST PUSH20 0xFFFFFFFFFFFFFFFFFFFFFFFFFFFFFFFFFFFFFFFF AND PUSH20 0xFFFFFFFFFFFFFFFFFFFFFFFFFFFFFFFFFFFFFFFF AND DUP2 MSTORE PUSH1 0x20 ADD SWAP1 DUP2 MSTORE PUSH1 0x20 ADD PUSH0 KECCAK256 DUP7 PUSH1 0x40 MLOAD PUSH2 0x14CE SWAP2 SWAP1 PUSH2 0x28A3 JUMP JUMPDEST SWAP1 DUP2 MSTORE PUSH1 0x20 ADD PUSH1 0x40 MLOAD DUP1 SWAP2 SUB SWAP1 KECCAK256 PUSH0 PUSH2 0x100 EXP DUP2 SLOAD DUP2 PUSH1 0xFF MUL NOT AND SWAP1 DUP4 ISZERO ISZERO MUL OR SWAP1 SSTORE POP DUP5 PUSH1 0x40 MLOAD PUSH2 0x1500 SWAP2 SWAP1 PUSH2 0x28A3 JUMP JUMPDEST PUSH1 0x40 MLOAD DUP1 SWAP2 SUB SWAP1 KECCAK256 PUSH2 0x1510 PUSH2 0x17BD JUMP JUMPDEST PUSH20 0xFFFFFFFFFFFFFFFFFFFFFFFFFFFFFFFFFFFFFFFF AND DUP8 PUSH20 0xFFFFFFFFFFFFFFFFFFFFFFFFFFFFFFFFFFFFFFFF AND PUSH32 0xCEE636F0C13AAA861E26F59625E55D15AB4AF806AEF7DE8EE49C13390256A0E8 DUP8 PUSH1 0x2 SLOAD TIMESTAMP PUSH1 0x40 MLOAD PUSH2 0x1572 SWAP4 SWAP3 SWAP2 SWAP1 PUSH2 0x29E8 JUMP JUMPDEST PUSH1 0x40 MLOAD DUP1 SWAP2 SUB SWAP1 LOG4 POP POP POP POP POP POP JUMP JUMPDEST PUSH1 0x40 MLOAD DUP1 PUSH1 0x40 ADD PUSH1 0x40 MSTORE DUP1 PUSH1 0x5 DUP2 MSTORE PUSH1 0x20 ADD PUSH32 0x312E302E30000000000000000000000000000000000000000000000000000000 DUP2 MSTORE POP DUP2 JUMP JUMPDEST PUSH2 0x15C3 PUSH2 0x17BD JUMP JUMPDEST PUSH20 0xFFFFFFFFFFFFFFFFFFFFFFFFFFFFFFFFFFFFFFFF AND PUSH2 0x15E1 PUSH2 0xB52 JUMP JUMPDEST PUSH20 0xFFFFFFFFFFFFFFFFFFFFFFFFFFFFFFFFFFFFFFFF AND EQ PUSH2 0x1637 JUMPI PUSH1 0x40 MLOAD PUSH32 0x8C379A000000000000000000000000000000000000000000000000000000000 DUP2 MSTORE PUSH1 0x4 ADD PUSH2 0x162E SWAP1 PUSH2 0x2A6E JUMP JUMPDEST PUSH1 0x40 MLOAD DUP1 SWAP2 SUB SWAP1 REVERT JUMPDEST JUMP JUMPDEST PUSH2 0x1641 PUSH2 0x17C4 JUMP JUMPDEST PUSH0 PUSH0 PUSH1 0x14 PUSH2 0x100 EXP DUP2 SLOAD DUP2 PUSH1 0xFF MUL NOT AND SWAP1 DUP4 ISZERO ISZERO MUL OR SWAP1 SSTORE POP PUSH32 0x5DB9EE0A495BF2E6FF9C91A7834C1BA4FDD244A5E8AA4E537BD38AEAE4B073AA PUSH2 0x1683 PUSH2 0x17BD JUMP JUMPDEST PUSH1 0x40 MLOAD PUSH2 0x1690 SWAP2 SWAP1 PUSH2 0x1E4A JUMP JUMPDEST PUSH1 0x40 MLOAD DUP1 SWAP2 SUB SWAP1 LOG1 JUMP JUMPDEST PUSH0 PUSH0 PUSH0 SWAP1 SLOAD SWAP1 PUSH2 0x100 EXP SWAP1 DIV PUSH20 0xFFFFFFFFFFFFFFFFFFFFFFFFFFFFFFFFFFFFFFFF AND SWAP1 POP DUP2 PUSH0 PUSH0 PUSH2 0x100 EXP DUP2 SLOAD DUP2 PUSH20 0xFFFFFFFFFFFFFFFFFFFFFFFFFFFFFFFFFFFFFFFF MUL NOT AND SWAP1 DUP4 PUSH20 0xFFFFFFFFFFFFFFFFFFFFFFFFFFFFFFFFFFFFFFFF AND MUL OR SWAP1 SSTORE POP DUP2 PUSH20 0xFFFFFFFFFFFFFFFFFFFFFFFFFFFFFFFFFFFFFFFF AND DUP2 PUSH20 0xFFFFFFFFFFFFFFFFFFFFFFFFFFFFFFFFFFFFFFFF AND PUSH32 0x8BE0079C531659141344CD1FD0A4F28419497F9722A3DAAFE3B4186F6B6457E0 PUSH1 0x40 MLOAD PUSH1 0x40 MLOAD DUP1 SWAP2 SUB SWAP1 LOG3 POP POP JUMP JUMPDEST PUSH2 0x1763 PUSH2 0x1804 JUMP JUMPDEST PUSH1 0x1 PUSH0 PUSH1 0x14 PUSH2 0x100 EXP DUP2 SLOAD DUP2 PUSH1 0xFF MUL NOT AND SWAP1 DUP4 ISZERO ISZERO MUL OR SWAP1 SSTORE POP PUSH32 0x62E78CEA01BEE320CD4E420270B5EA74000D11B0C9F74754EBDBFC544B05A258 PUSH2 0x17A6 PUSH2 0x17BD JUMP JUMPDEST PUSH1 0x40 MLOAD PUSH2 0x17B3 SWAP2 SWAP1 PUSH2 0x1E4A JUMP JUMPDEST PUSH1 0x40 MLOAD DUP1 SWAP2 SUB SWAP1 LOG1 JUMP JUMPDEST PUSH0 CALLER SWAP1 POP SWAP1 JUMP JUMPDEST PUSH2 0x17CC PUSH2 0x97B JUMP JUMPDEST PUSH2 0x1802 JUMPI PUSH1 0x40 MLOAD PUSH32 0x8DFC202B00000000000000000000000000000000000000000000000000000000 DUP2 MSTORE PUSH1 0x4 ADD PUSH1 0x40 MLOAD DUP1 SWAP2 SUB SWAP1 REVERT JUMPDEST JUMP JUMPDEST PUSH2 0x180C PUSH2 0x97B JUMP JUMPDEST ISZERO PUSH2 0x1843 JUMPI PUSH1 0x40 MLOAD PUSH32 0xD93C066500000000000000000000000000000000000000000000000000000000 DUP2 MSTORE PUSH1 0x4 ADD PUSH1 0x40 MLOAD DUP1 SWAP2 SUB SWAP1 REVERT JUMPDEST JUMP JUMPDEST PUSH0 DUP2 SWAP1 POP SWAP2 SWAP1 POP JUMP JUMPDEST PUSH2 0x1857 DUP2 PUSH2 0x1845 JUMP JUMPDEST DUP3 MSTORE POP POP JUMP JUMPDEST PUSH0 PUSH1 0x20 DUP3 ADD SWAP1 POP PUSH2 0x1870 PUSH0 DUP4 ADD DUP5 PUSH2 0x184E JUMP JUMPDEST SWAP3 SWAP2 POP POP JUMP JUMPDEST PUSH0 PUSH1 0x40 MLOAD SWAP1 POP SWAP1 JUMP JUMPDEST PUSH0 PUSH0 REVERT JUMPDEST PUSH0 PUSH0 REVERT JUMPDEST PUSH0 PUSH20 0xFFFFFFFFFFFFFFFFFFFFFFFFFFFFFFFFFFFFFFFF DUP3 AND SWAP1 POP SWAP2 SWAP1 POP JUMP JUMPDEST PUSH0 PUSH2 0x18B0 DUP3 PUSH2 0x1887 JUMP JUMPDEST SWAP1 POP SWAP2 SWAP1 POP JUMP JUMPDEST PUSH2 0x18C0 DUP2 PUSH2 0x18A6 JUMP JUMPDEST DUP2 EQ PUSH2 0x18CA JUMPI PUSH0 PUSH0 REVERT JUMPDEST POP JUMP JUMPDEST PUSH0 DUP2 CALLDATALOAD SWAP1 POP PUSH2 0x18DB DUP2 PUSH2 0x18B7 JUMP JUMPDEST SWAP3 SWAP2 POP POP JUMP JUMPDEST PUSH2 0x18EA DUP2 PUSH2 0x1845 JUMP JUMPDEST DUP2 EQ PUSH2 0x18F4 JUMPI PUSH0 PUSH0 REVERT JUMPDEST POP JUMP JUMPDEST PUSH0 DUP2 CALLDATALOAD SWAP1 POP PUSH2 0x1905 DUP2 PUSH2 0x18E1 JUMP JUMPDEST SWAP3 SWAP2 POP POP JUMP JUMPDEST PUSH0 PUSH0 PUSH1 0x40 DUP4 DUP6 SUB SLT ISZERO PUSH2 0x1921 JUMPI PUSH2 0x1920 PUSH2 0x187F JUMP JUMPDEST JUMPDEST PUSH0 PUSH2 0x192E DUP6 DUP3 DUP7 ADD PUSH2 0x18CD JUMP JUMPDEST SWAP3 POP POP PUSH1 0x20 PUSH2 0x193F DUP6 DUP3 DUP7 ADD PUSH2 0x18F7 JUMP JUMPDEST SWAP2 POP POP SWAP3 POP SWAP3 SWAP1 POP JUMP JUMPDEST PUSH2 0x1952 DUP2 PUSH2 0x18A6 JUMP JUMPDEST DUP3 MSTORE POP POP JUMP JUMPDEST PUSH0 DUP2 MLOAD SWAP1 POP SWAP2 SWAP1 POP JUMP JUMPDEST PUSH0 DUP3 DUP3 MSTORE PUSH1 0x20 DUP3 ADD SWAP1 POP SWAP3 SWAP2 POP POP JUMP JUMPDEST DUP3 DUP2 DUP4 MCOPY PUSH0 DUP4 DUP4 ADD MSTORE POP POP POP JUMP JUMPDEST PUSH0 PUSH1 0x1F NOT PUSH1 0x1F DUP4 ADD AND SWAP1 POP SWAP2 SWAP1 POP JUMP JUMPDEST PUSH0 PUSH2 0x199A DUP3 PUSH2 0x1958 JUMP JUMPDEST PUSH2 0x19A4 DUP2 DUP6 PUSH2 0x1962 JUMP JUMPDEST SWAP4 POP PUSH2 0x19B4 DUP2 DUP6 PUSH1 0x20 DUP7 ADD PUSH2 0x1972 JUMP JUMPDEST PUSH2 0x19BD DUP2 PUSH2 0x1980 JUMP JUMPDEST DUP5 ADD SWAP2 POP POP SWAP3 SWAP2 POP POP JUMP JUMPDEST PUSH0 PUSH1 0xFF DUP3 AND SWAP1 POP SWAP2 SWAP1 POP JUMP JUMPDEST PUSH2 0x19DD DUP2 PUSH2 0x19C8 JUMP JUMPDEST DUP3 MSTORE POP POP JUMP JUMPDEST PUSH0 PUSH1 0xA0 DUP3 ADD SWAP1 POP PUSH2 0x19F6 PUSH0 DUP4 ADD DUP9 PUSH2 0x1949 JUMP JUMPDEST DUP2 DUP2 SUB PUSH1 0x20 DUP4 ADD MSTORE PUSH2 0x1A08 DUP2 DUP8 PUSH2 0x1990 JUMP JUMPDEST SWAP1 POP DUP2 DUP2 SUB PUSH1 0x40 DUP4 ADD MSTORE PUSH2 0x1A1C DUP2 DUP7 PUSH2 0x1990 JUMP JUMPDEST SWAP1 POP PUSH2 0x1A2B PUSH1 0x60 DUP4 ADD DUP6 PUSH2 0x19D4 JUMP JUMPDEST PUSH2 0x1A38 PUSH1 0x80 DUP4 ADD DUP5 PUSH2 0x184E JUMP JUMPDEST SWAP7 SWAP6 POP POP POP POP POP POP JUMP JUMPDEST PUSH0 PUSH0 REVERT JUMPDEST PUSH0 PUSH0 REVERT JUMPDEST PUSH32 0x4E487B7100000000000000000000000000000000000000000000000000000000 PUSH0 MSTORE PUSH1 0x41 PUSH1 0x4 MSTORE PUSH1 0x24 PUSH0 REVERT JUMPDEST PUSH2 0x1A80 DUP3 PUSH2 0x1980 JUMP JUMPDEST DUP2 ADD DUP2 DUP2 LT PUSH8 0xFFFFFFFFFFFFFFFF DUP3 GT OR ISZERO PUSH2 0x1A9F JUMPI PUSH2 0x1A9E PUSH2 0x1A4A JUMP JUMPDEST JUMPDEST DUP1 PUSH1 0x40 MSTORE POP POP POP JUMP JUMPDEST PUSH0 PUSH2 0x1AB1 PUSH2 0x1876 JUMP JUMPDEST SWAP1 POP PUSH2 0x1ABD DUP3 DUP3 PUSH2 0x1A77 JUMP JUMPDEST SWAP2 SWAP1 POP JUMP JUMPDEST PUSH0 PUSH8 0xFFFFFFFFFFFFFFFF DUP3 GT ISZERO PUSH2 0x1ADC JUMPI PUSH2 0x1ADB PUSH2 0x1A4A JUMP JUMPDEST JUMPDEST PUSH2 0x1AE5 DUP3 PUSH2 0x1980 JUMP JUMPDEST SWAP1 POP PUSH1 0x20 DUP2 ADD SWAP1 POP SWAP2 SWAP1 POP JUMP JUMPDEST DUP3 DUP2 DUP4 CALLDATACOPY PUSH0 DUP4 DUP4 ADD MSTORE POP POP POP JUMP JUMPDEST PUSH0 PUSH2 0x1B12 PUSH2 0x1B0D DUP5 PUSH2 0x1AC2 JUMP JUMPDEST PUSH2 0x1AA8 JUMP JUMPDEST SWAP1 POP DUP3 DUP2 MSTORE PUSH1 0x20 DUP2 ADD DUP5 DUP5 DUP5 ADD GT ISZERO PUSH2 0x1B2E JUMPI PUSH2 0x1B2D PUSH2 0x1A46 JUMP JUMPDEST JUMPDEST PUSH2 0x1B39 DUP5 DUP3 DUP6 PUSH2 0x1AF2 JUMP JUMPDEST POP SWAP4 SWAP3 POP POP POP JUMP JUMPDEST PUSH0 DUP3 PUSH1 0x1F DUP4 ADD SLT PUSH2 0x1B55 JUMPI PUSH2 0x1B54 PUSH2 0x1A42 JUMP JUMPDEST JUMPDEST DUP2 CALLDATALOAD PUSH2 0x1B65 DUP5 DUP3 PUSH1 0x20 DUP7 ADD PUSH2 0x1B00 JUMP JUMPDEST SWAP2 POP POP SWAP3 SWAP2 POP POP JUMP JUMPDEST PUSH0 PUSH0 PUSH1 0x40 DUP4 DUP6 SUB SLT ISZERO PUSH2 0x1B84 JUMPI PUSH2 0x1B83 PUSH2 0x187F JUMP JUMPDEST JUMPDEST PUSH0 PUSH2 0x1B91 DUP6 DUP3 DUP7 ADD PUSH2 0x18F7 JUMP JUMPDEST SWAP3 POP POP PUSH1 0x20 DUP4 ADD CALLDATALOAD PUSH8 0xFFFFFFFFFFFFFFFF DUP2 GT ISZERO PUSH2 0x1BB2 JUMPI PUSH2 0x1BB1 PUSH2 0x1883 JUMP JUMPDEST JUMPDEST PUSH2 0x1BBE DUP6 DUP3 DUP7 ADD PUSH2 0x1B41 JUMP JUMPDEST SWAP2 POP POP SWAP3 POP SWAP3 SWAP1 POP JUMP JUMPDEST PUSH0 DUP2 MLOAD SWAP1 POP SWAP2 SWAP1 POP JUMP JUMPDEST PUSH0 DUP3 DUP3 MSTORE PUSH1 0x20 DUP3 ADD SWAP1 POP SWAP3 SWAP2 POP POP JUMP JUMPDEST PUSH0 DUP2 SWAP1 POP PUSH1 0x20 DUP3 ADD SWAP1 POP SWAP2 SWAP1 POP JUMP JUMPDEST PUSH0 DUP3 DUP3 MSTORE PUSH1 0x20 DUP3 ADD SWAP1 POP SWAP3 SWAP2 POP POP JUMP JUMPDEST PUSH0 PUSH2 0x1C0B DUP3 PUSH2 0x1958 JUMP JUMPDEST PUSH2 0x1C15 DUP2 DUP6 PUSH2 0x1BF1 JUMP JUMPDEST SWAP4 POP PUSH2 0x1C25 DUP2 DUP6 PUSH1 0x20 DUP7 ADD PUSH2 0x1972 JUMP JUMPDEST PUSH2 0x1C2E DUP2 PUSH2 0x1980 JUMP JUMPDEST DUP5 ADD SWAP2 POP POP SWAP3 SWAP2 POP POP JUMP JUMPDEST PUSH0 PUSH2 0x1C44 DUP4 DUP4 PUSH2 0x1C01 JUMP JUMPDEST SWAP1 POP SWAP3 SWAP2 POP POP JUMP JUMPDEST PUSH0 PUSH1 0x20 DUP3 ADD SWAP1 POP SWAP2 SWAP1 POP JUMP JUMPDEST PUSH0 PUSH2 0x1C62 DUP3 PUSH2 0x1BC8 JUMP JUMPDEST PUSH2 0x1C6C DUP2 DUP6 PUSH2 0x1BD2 JUMP JUMPDEST SWAP4 POP DUP4 PUSH1 0x20 DUP3 MUL DUP6 ADD PUSH2 0x1C7E DUP6 PUSH2 0x1BE2 JUMP JUMPDEST DUP1 PUSH0 JUMPDEST DUP6 DUP2 LT ISZERO PUSH2 0x1CB9 JUMPI DUP5 DUP5 SUB DUP10 MSTORE DUP2 MLOAD PUSH2 0x1C9A DUP6 DUP3 PUSH2 0x1C39 JUMP JUMPDEST SWAP5 POP PUSH2 0x1CA5 DUP4 PUSH2 0x1C4C JUMP JUMPDEST SWAP3 POP PUSH1 0x20 DUP11 ADD SWAP10 POP POP PUSH1 0x1 DUP2 ADD SWAP1 POP PUSH2 0x1C81 JUMP JUMPDEST POP DUP3 SWAP8 POP DUP8 SWAP6 POP POP POP POP POP POP SWAP3 SWAP2 POP POP JUMP JUMPDEST PUSH0 PUSH1 0x20 DUP3 ADD SWAP1 POP DUP2 DUP2 SUB PUSH0 DUP4 ADD MSTORE PUSH2 0x1CE3 DUP2 DUP5 PUSH2 0x1C58 JUMP JUMPDEST SWAP1 POP SWAP3 SWAP2 POP POP JUMP JUMPDEST PUSH0 PUSH2 0x1CF5 DUP3 PUSH2 0x1887 JUMP JUMPDEST SWAP1 POP SWAP2 SWAP1 POP JUMP JUMPDEST PUSH2 0x1D05 DUP2 PUSH2 0x1CEB JUMP JUMPDEST DUP2 EQ PUSH2 0x1D0F JUMPI PUSH0 PUSH0 REVERT JUMPDEST POP JUMP JUMPDEST PUSH0 DUP2 CALLDATALOAD SWAP1 POP PUSH2 0x1D20 DUP2 PUSH2 0x1CFC JUMP JUMPDEST SWAP3 SWAP2 POP POP JUMP JUMPDEST PUSH0 PUSH0 PUSH1 0x40 DUP4 DUP6 SUB SLT ISZERO PUSH2 0x1D3C JUMPI PUSH2 0x1D3B PUSH2 0x187F JUMP JUMPDEST JUMPDEST PUSH0 PUSH2 0x1D49 DUP6 DUP3 DUP7 ADD PUSH2 0x1D12 JUMP JUMPDEST SWAP3 POP POP PUSH1 0x20 PUSH2 0x1D5A DUP6 DUP3 DUP7 ADD PUSH2 0x18F7 JUMP JUMPDEST SWAP2 POP POP SWAP3 POP SWAP3 SWAP1 POP JUMP JUMPDEST PUSH0 DUP2 ISZERO ISZERO SWAP1 POP SWAP2 SWAP1 POP JUMP JUMPDEST PUSH2 0x1D78 DUP2 PUSH2 0x1D64 JUMP JUMPDEST DUP3 MSTORE POP POP JUMP JUMPDEST PUSH0 PUSH1 0x20 DUP3 ADD SWAP1 POP PUSH2 0x1D91 PUSH0 DUP4 ADD DUP5 PUSH2 0x1D6F JUMP JUMPDEST SWAP3 SWAP2 POP POP JUMP JUMPDEST PUSH0 PUSH0 PUSH0 PUSH1 0x60 DUP5 DUP7 SUB SLT ISZERO PUSH2 0x1DAE JUMPI PUSH2 0x1DAD PUSH2 0x187F JUMP JUMPDEST JUMPDEST PUSH0 PUSH2 0x1DBB DUP7 DUP3 DUP8 ADD PUSH2 0x18CD JUMP JUMPDEST SWAP4 POP POP PUSH1 0x20 PUSH2 0x1DCC DUP7 DUP3 DUP8 ADD PUSH2 0x18CD JUMP JUMPDEST SWAP3 POP POP PUSH1 0x40 DUP5 ADD CALLDATALOAD PUSH8 0xFFFFFFFFFFFFFFFF DUP2 GT ISZERO PUSH2 0x1DED JUMPI PUSH2 0x1DEC PUSH2 0x1883 JUMP JUMPDEST JUMPDEST PUSH2 0x1DF9 DUP7 DUP3 DUP8 ADD PUSH2 0x1B41 JUMP JUMPDEST SWAP2 POP POP SWAP3 POP SWAP3 POP SWAP3 JUMP JUMPDEST PUSH0 PUSH1 0x20 DUP3 DUP5 SUB SLT ISZERO PUSH2 0x1E18 JUMPI PUSH2 0x1E17 PUSH2 0x187F JUMP JUMPDEST JUMPDEST PUSH0 DUP3 ADD CALLDATALOAD PUSH8 0xFFFFFFFFFFFFFFFF DUP2 GT ISZERO PUSH2 0x1E35 JUMPI PUSH2 0x1E34 PUSH2 0x1883 JUMP JUMPDEST JUMPDEST PUSH2 0x1E41 DUP5 DUP3 DUP6 ADD PUSH2 0x1B41 JUMP JUMPDEST SWAP2 POP POP SWAP3 SWAP2 POP POP JUMP JUMPDEST PUSH0 PUSH1 0x20 DUP3 ADD SWAP1 POP PUSH2 0x1E5D PUSH0 DUP4 ADD DUP5 PUSH2 0x1949 JUMP JUMPDEST SWAP3 SWAP2 POP POP JUMP JUMPDEST PUSH0 PUSH1 0x20 DUP3 DUP5 SUB SLT ISZERO PUSH2 0x1E78 JUMPI PUSH2 0x1E77 PUSH2 0x187F JUMP JUMPDEST JUMPDEST PUSH0 PUSH2 0x1E85 DUP5 DUP3 DUP6 ADD PUSH2 0x18F7 JUMP JUMPDEST SWAP2 POP POP SWAP3 SWAP2 POP POP JUMP JUMPDEST PUSH0 PUSH1 0x20 DUP3 DUP5 SUB SLT ISZERO PUSH2 0x1EA3 JUMPI PUSH2 0x1EA2 PUSH2 0x187F JUMP JUMPDEST JUMPDEST PUSH0 PUSH2 0x1EB0 DUP5 DUP3 DUP6 ADD PUSH2 0x18CD JUMP JUMPDEST SWAP2 POP POP SWAP3 SWAP2 POP POP JUMP JUMPDEST PUSH0 DUP2 MLOAD SWAP1 POP SWAP2 SWAP1 POP JUMP JUMPDEST PUSH0 DUP3 DUP3 MSTORE PUSH1 0x20 DUP3 ADD SWAP1 POP SWAP3 SWAP2 POP POP JUMP JUMPDEST PUSH0 DUP2 SWAP1 POP PUSH1 0x20 DUP3 ADD SWAP1 POP SWAP2 SWAP1 POP JUMP JUMPDEST PUSH2 0x1EEB DUP2 PUSH2 0x18A6 JUMP JUMPDEST DUP3 MSTORE POP POP JUMP JUMPDEST PUSH2 0x1EFA DUP2 PUSH2 0x19C8 JUMP JUMPDEST DUP3 MSTORE POP POP JUMP JUMPDEST PUSH2 0x1F09 DUP2 PUSH2 0x1845 JUMP JUMPDEST DUP3 MSTORE POP POP JUMP JUMPDEST PUSH0 PUSH1 0xA0 DUP4 ADD PUSH0 DUP4 ADD MLOAD PUSH2 0x1F24 PUSH0 DUP7 ADD DUP3 PUSH2 0x1EE2 JUMP JUMPDEST POP PUSH1 0x20 DUP4 ADD MLOAD DUP5 DUP3 SUB PUSH1 0x20 DUP7 ADD MSTORE PUSH2 0x1F3C DUP3 DUP3 PUSH2 0x1C01 JUMP JUMPDEST SWAP2 POP POP PUSH1 0x40 DUP4 ADD MLOAD DUP5 DUP3 SUB PUSH1 0x40 DUP7 ADD MSTORE PUSH2 0x1F56 DUP3 DUP3 PUSH2 0x1C01 JUMP JUMPDEST SWAP2 POP POP PUSH1 0x60 DUP4 ADD MLOAD PUSH2 0x1F6B PUSH1 0x60 DUP7 ADD DUP3 PUSH2 0x1EF1 JUMP JUMPDEST POP PUSH1 0x80 DUP4 ADD MLOAD PUSH2 0x1F7E PUSH1 0x80 DUP7 ADD DUP3 PUSH2 0x1F00 JUMP JUMPDEST POP DUP1 SWAP2 POP POP SWAP3 SWAP2 POP POP JUMP JUMPDEST PUSH0 PUSH2 0x1F94 DUP4 DUP4 PUSH2 0x1F0F JUMP JUMPDEST SWAP1 POP SWAP3 SWAP2 POP POP JUMP JUMPDEST PUSH0 PUSH1 0x20 DUP3 ADD SWAP1 POP SWAP2 SWAP1 POP JUMP JUMPDEST PUSH0 PUSH2 0x1FB2 DUP3 PUSH2 0x1EB9 JUMP JUMPDEST PUSH2 0x1FBC DUP2 DUP6 PUSH2 0x1EC3 JUMP JUMPDEST SWAP4 POP DUP4 PUSH1 0x20 DUP3 MUL DUP6 ADD PUSH2 0x1FCE DUP6 PUSH2 0x1ED3 JUMP JUMPDEST DUP1 PUSH0 JUMPDEST DUP6 DUP2 LT ISZERO PUSH2 0x2009 JUMPI DUP5 DUP5 SUB DUP10 MSTORE DUP2 MLOAD PUSH2 0x1FEA DUP6 DUP3 PUSH2 0x1F89 JUMP JUMPDEST SWAP5 POP PUSH2 0x1FF5 DUP4 PUSH2 0x1F9C JUMP JUMPDEST SWAP3 POP PUSH1 0x20 DUP11 ADD SWAP10 POP POP PUSH1 0x1 DUP2 ADD SWAP1 POP PUSH2 0x1FD1 JUMP JUMPDEST POP DUP3 SWAP8 POP DUP8 SWAP6 POP POP POP POP POP POP SWAP3 SWAP2 POP POP JUMP JUMPDEST PUSH0 PUSH1 0x20 DUP3 ADD SWAP1 POP DUP2 DUP2 SUB PUSH0 DUP4 ADD MSTORE PUSH2 0x2033 DUP2 DUP5 PUSH2 0x1FA8 JUMP JUMPDEST SWAP1 POP SWAP3 SWAP2 POP POP JUMP JUMPDEST PUSH0 PUSH1 0x20 DUP3 ADD SWAP1 POP DUP2 DUP2 SUB PUSH0 DUP4 ADD MSTORE PUSH2 0x2053 DUP2 DUP5 PUSH2 0x1990 JUMP JUMPDEST SWAP1 POP SWAP3 SWAP2 POP POP JUMP JUMPDEST PUSH2 0x2064 DUP2 PUSH2 0x19C8 JUMP JUMPDEST DUP2 EQ PUSH2 0x206E JUMPI PUSH0 PUSH0 REVERT JUMPDEST POP JUMP JUMPDEST PUSH0 DUP2 CALLDATALOAD SWAP1 POP PUSH2 0x207F DUP2 PUSH2 0x205B JUMP JUMPDEST SWAP3 SWAP2 POP POP JUMP JUMPDEST PUSH0 PUSH0 PUSH0 PUSH0 PUSH1 0x80 DUP6 DUP8 SUB SLT ISZERO PUSH2 0x209D JUMPI PUSH2 0x209C PUSH2 0x187F JUMP JUMPDEST JUMPDEST PUSH0 PUSH2 0x20AA DUP8 DUP3 DUP9 ADD PUSH2 0x18CD JUMP JUMPDEST SWAP5 POP POP PUSH1 0x20 DUP6 ADD CALLDATALOAD PUSH8 0xFFFFFFFFFFFFFFFF DUP2 GT ISZERO PUSH2 0x20CB JUMPI PUSH2 0x20CA PUSH2 0x1883 JUMP JUMPDEST JUMPDEST PUSH2 0x20D7 DUP8 DUP3 DUP9 ADD PUSH2 0x1B41 JUMP JUMPDEST SWAP4 POP POP PUSH1 0x40 DUP6 ADD CALLDATALOAD PUSH8 0xFFFFFFFFFFFFFFFF DUP2 GT ISZERO PUSH2 0x20F8 JUMPI PUSH2 0x20F7 PUSH2 0x1883 JUMP JUMPDEST JUMPDEST PUSH2 0x2104 DUP8 DUP3 DUP9 ADD PUSH2 0x1B41 JUMP JUMPDEST SWAP3 POP POP PUSH1 0x60 PUSH2 0x2115 DUP8 DUP3 DUP9 ADD PUSH2 0x2071 JUMP JUMPDEST SWAP2 POP POP SWAP3 SWAP6 SWAP2 SWAP5 POP SWAP3 POP JUMP JUMPDEST PUSH32 0x4E487B7100000000000000000000000000000000000000000000000000000000 PUSH0 MSTORE PUSH1 0x22 PUSH1 0x4 MSTORE PUSH1 0x24 PUSH0 REVERT JUMPDEST PUSH0 PUSH1 0x2 DUP3 DIV SWAP1 POP PUSH1 0x1 DUP3 AND DUP1 PUSH2 0x2165 JUMPI PUSH1 0x7F DUP3 AND SWAP2 POP JUMPDEST PUSH1 0x20 DUP3 LT DUP2 SUB PUSH2 0x2178 JUMPI PUSH2 0x2177 PUSH2 0x2121 JUMP JUMPDEST JUMPDEST POP SWAP2 SWAP1 POP JUMP JUMPDEST PUSH32 0x4F7074696F6E2063616E6E6F7420626520656D70747900000000000000000000 PUSH0 DUP3 ADD MSTORE POP JUMP JUMPDEST PUSH0 PUSH2 0x21B2 PUSH1 0x16 DUP4 PUSH2 0x1962 JUMP JUMPDEST SWAP2 POP PUSH2 0x21BD DUP3 PUSH2 0x217E JUMP JUMPDEST PUSH1 0x20 DUP3 ADD SWAP1 POP SWAP2 SWAP1 POP JUMP JUMPDEST PUSH0 PUSH1 0x20 DUP3 ADD SWAP1 POP DUP2 DUP2 SUB PUSH0 DUP4 ADD MSTORE PUSH2 0x21DF DUP2 PUSH2 0x21A6 JUMP JUMPDEST SWAP1 POP SWAP2 SWAP1 POP JUMP JUMPDEST PUSH32 0x4E487B7100000000000000000000000000000000000000000000000000000000 PUSH0 MSTORE PUSH1 0x32 PUSH1 0x4 MSTORE PUSH1 0x24 PUSH0 REVERT JUMPDEST PUSH0 DUP2 SWAP1 POP SWAP3 SWAP2 POP POP JUMP JUMPDEST PUSH0 DUP2 SWAP1 POP DUP2 PUSH0 MSTORE PUSH1 0x20 PUSH0 KECCAK256 SWAP1 POP SWAP2 SWAP1 POP JUMP JUMPDEST PUSH0 DUP2 SLOAD PUSH2 0x223B DUP2 PUSH2 0x214E JUMP JUMPDEST PUSH2 0x2245 DUP2 DUP7 PUSH2 0x2213 JUMP JUMPDEST SWAP5 POP PUSH1 0x1 DUP3 AND PUSH0 DUP2 EQ PUSH2 0x225F JUMPI PUSH1 0x1 DUP2 EQ PUSH2 0x2274 JUMPI PUSH2 0x22A6 JUMP JUMPDEST PUSH1 0xFF NOT DUP4 AND DUP7 MSTORE DUP2 ISZERO ISZERO DUP3 MUL DUP7 ADD SWAP4 POP PUSH2 0x22A6 JUMP JUMPDEST PUSH2 0x227D DUP6 PUSH2 0x221D JUMP JUMPDEST PUSH0 JUMPDEST DUP4 DUP2 LT ISZERO PUSH2 0x229E JUMPI DUP2 SLOAD DUP2 DUP10 ADD MSTORE PUSH1 0x1 DUP3 ADD SWAP2 POP PUSH1 0x20 DUP2 ADD SWAP1 POP PUSH2 0x227F JUMP JUMPDEST DUP4 DUP9 ADD SWAP6 POP POP POP JUMPDEST POP POP POP SWAP3 SWAP2 POP POP JUMP JUMPDEST PUSH0 PUSH2 0x22BA DUP3 DUP5 PUSH2 0x222F JUMP JUMPDEST SWAP2 POP DUP2 SWAP1 POP SWAP3 SWAP2 POP POP JUMP JUMPDEST PUSH32 0x4F7074696F6E20616C7265616479206578697374730000000000000000000000 PUSH0 DUP3 ADD MSTORE POP JUMP JUMPDEST PUSH0 PUSH2 0x22F9 PUSH1 0x15 DUP4 PUSH2 0x1962 JUMP JUMPDEST SWAP2 POP PUSH2 0x2304 DUP3 PUSH2 0x22C5 JUMP JUMPDEST PUSH1 0x20 DUP3 ADD SWAP1 POP SWAP2 SWAP1 POP JUMP JUMPDEST PUSH0 PUSH1 0x20 DUP3 ADD SWAP1 POP DUP2 DUP2 SUB PUSH0 DUP4 ADD MSTORE PUSH2 0x2326 DUP2 PUSH2 0x22ED JUMP JUMPDEST SWAP1 POP SWAP2 SWAP1 POP JUMP JUMPDEST PUSH0 DUP2 SWAP1 POP DUP2 PUSH0 MSTORE PUSH1 0x20 PUSH0 KECCAK256 SWAP1 POP SWAP2 SWAP1 POP JUMP JUMPDEST PUSH0 PUSH1 0x20 PUSH1 0x1F DUP4 ADD DIV SWAP1 POP SWAP2 SWAP1 POP JUMP JUMPDEST PUSH0 DUP3 DUP3 SHL SWAP1 POP SWAP3 SWAP2 POP POP JUMP JUMPDEST PUSH0 PUSH1 0x8 DUP4 MUL PUSH2 0x2389 PUSH32 0xFFFFFFFFFFFFFFFFFFFFFFFFFFFFFFFFFFFFFFFFFFFFFFFFFFFFFFFFFFFFFFFF DUP3 PUSH2 0x234E JUMP JUMPDEST PUSH2 0x2393 DUP7 DUP4 PUSH2 0x234E JUMP JUMPDEST SWAP6 POP DUP1 NOT DUP5 AND SWAP4 POP DUP1 DUP7 AND DUP5 OR SWAP3 POP POP POP SWAP4 SWAP3 POP POP POP JUMP JUMPDEST PUSH0 DUP2 SWAP1 POP SWAP2 SWAP1 POP JUMP JUMPDEST PUSH0 PUSH2 0x23CE PUSH2 0x23C9 PUSH2 0x23C4 DUP5 PUSH2 0x1845 JUMP JUMPDEST PUSH2 0x23AB JUMP JUMPDEST PUSH2 0x1845 JUMP JUMPDEST SWAP1 POP SWAP2 SWAP1 POP JUMP JUMPDEST PUSH0 DUP2 SWAP1 POP SWAP2 SWAP1 POP JUMP JUMPDEST PUSH2 0x23E7 DUP4 PUSH2 0x23B4 JUMP JUMPDEST PUSH2 0x23FB PUSH2 0x23F3 DUP3 PUSH2 0x23D5 JUMP JUMPDEST DUP5 DUP5 SLOAD PUSH2 0x235A JUMP JUMPDEST DUP3 SSTORE POP POP POP POP JUMP JUMPDEST PUSH0 PUSH0 SWAP1 POP SWAP1 JUMP JUMPDEST PUSH2 0x2412 PUSH2 0x2403 JUMP JUMPDEST PUSH2 0x241D DUP2 DUP5 DUP5 PUSH2 0x23DE JUMP JUMPDEST POP POP POP JUMP JUMPDEST JUMPDEST DUP2 DUP2 LT ISZERO PUSH2 0x2440 JUMPI PUSH2 0x2435 PUSH0 DUP3 PUSH2 0x240A JUMP JUMPDEST PUSH1 0x1 DUP2 ADD SWAP1 POP PUSH2 0x2423 JUMP JUMPDEST POP POP JUMP JUMPDEST PUSH1 0x1F DUP3 GT ISZERO PUSH2 0x2485 JUMPI PUSH2 0x2456 DUP2 PUSH2 0x232D JUMP JUMPDEST PUSH2 0x245F DUP5 PUSH2 0x233F JUMP JUMPDEST DUP2 ADD PUSH1 0x20 DUP6 LT ISZERO PUSH2 0x246E JUMPI DUP2 SWAP1 POP JUMPDEST PUSH2 0x2482 PUSH2 0x247A DUP6 PUSH2 0x233F JUMP JUMPDEST DUP4 ADD DUP3 PUSH2 0x2422 JUMP JUMPDEST POP POP JUMPDEST POP POP POP JUMP JUMPDEST PUSH0 DUP3 DUP3 SHR SWAP1 POP SWAP3 SWAP2 POP POP JUMP JUMPDEST PUSH0 PUSH2 0x24A5 PUSH0 NOT DUP5 PUSH1 0x8 MUL PUSH2 0x248A JUMP JUMPDEST NOT DUP1 DUP4 AND SWAP2 POP POP SWAP3 SWAP2 POP POP JUMP JUMPDEST PUSH0 PUSH2 0x24BD DUP4 DUP4 PUSH2 0x2496 JUMP JUMPDEST SWAP2 POP DUP3 PUSH1 0x2 MUL DUP3 OR SWAP1 POP SWAP3 SWAP2 POP POP JUMP JUMPDEST PUSH2 0x24D6 DUP3 PUSH2 0x1958 JUMP JUMPDEST PUSH8 0xFFFFFFFFFFFFFFFF DUP2 GT ISZERO PUSH2 0x24EF JUMPI PUSH2 0x24EE PUSH2 0x1A4A JUMP JUMPDEST JUMPDEST PUSH2 0x24F9 DUP3 SLOAD PUSH2 0x214E JUMP JUMPDEST PUSH2 0x2504 DUP3 DUP3 DUP6 PUSH2 0x2444 JUMP JUMPDEST PUSH0 PUSH1 0x20 SWAP1 POP PUSH1 0x1F DUP4 GT PUSH1 0x1 DUP2 EQ PUSH2 0x2535 JUMPI PUSH0 DUP5 ISZERO PUSH2 0x2523 JUMPI DUP3 DUP8 ADD MLOAD SWAP1 POP JUMPDEST PUSH2 0x252D DUP6 DUP3 PUSH2 0x24B2 JUMP JUMPDEST DUP7 SSTORE POP PUSH2 0x2594 JUMP JUMPDEST PUSH1 0x1F NOT DUP5 AND PUSH2 0x2543 DUP7 PUSH2 0x232D JUMP JUMPDEST PUSH0 JUMPDEST DUP3 DUP2 LT ISZERO PUSH2 0x256A JUMPI DUP5 DUP10 ADD MLOAD DUP3 SSTORE PUSH1 0x1 DUP3 ADD SWAP2 POP PUSH1 0x20 DUP6 ADD SWAP5 POP PUSH1 0x20 DUP2 ADD SWAP1 POP PUSH2 0x2545 JUMP JUMPDEST DUP7 DUP4 LT ISZERO PUSH2 0x2587 JUMPI DUP5 DUP10 ADD MLOAD PUSH2 0x2583 PUSH1 0x1F DUP10 AND DUP3 PUSH2 0x2496 JUMP JUMPDEST DUP4 SSTORE POP JUMPDEST PUSH1 0x1 PUSH1 0x2 DUP9 MUL ADD DUP9 SSTORE POP POP POP JUMPDEST POP POP POP POP POP POP JUMP JUMPDEST POP JUMP JUMPDEST PUSH0 PUSH2 0x25AA PUSH0 DUP4 PUSH2 0x2213 JUMP JUMPDEST SWAP2 POP PUSH2 0x25B5 DUP3 PUSH2 0x259C JUMP JUMPDEST PUSH0 DUP3 ADD SWAP1 POP SWAP2 SWAP1 POP JUMP JUMPDEST PUSH0 PUSH2 0x25C9 DUP3 PUSH2 0x259F JUMP JUMPDEST SWAP2 POP DUP2 SWAP1 POP SWAP2 SWAP1 POP JUMP JUMPDEST PUSH32 0x4661696C65640000000000000000000000000000000000000000000000000000 PUSH0 DUP3 ADD MSTORE POP JUMP JUMPDEST PUSH0 PUSH2 0x2607 PUSH1 0x6 DUP4 PUSH2 0x1962 JUMP JUMPDEST SWAP2 POP PUSH2 0x2612 DUP3 PUSH2 0x25D3 JUMP JUMPDEST PUSH1 0x20 DUP3 ADD SWAP1 POP SWAP2 SWAP1 POP JUMP JUMPDEST PUSH0 PUSH1 0x20 DUP3 ADD SWAP1 POP DUP2 DUP2 SUB PUSH0 DUP4 ADD MSTORE PUSH2 0x2634 DUP2 PUSH2 0x25FB JUMP JUMPDEST SWAP1 POP SWAP2 SWAP1 POP JUMP JUMPDEST PUSH32 0x4F776E61626C653A206E6577206F776E657220697320746865207A65726F2061 PUSH0 DUP3 ADD MSTORE PUSH32 0x6464726573730000000000000000000000000000000000000000000000000000 PUSH1 0x20 DUP3 ADD MSTORE POP JUMP JUMPDEST PUSH0 PUSH2 0x2695 PUSH1 0x26 DUP4 PUSH2 0x1962 JUMP JUMPDEST SWAP2 POP PUSH2 0x26A0 DUP3 PUSH2 0x263B JUMP JUMPDEST PUSH1 0x40 DUP3 ADD SWAP1 POP SWAP2 SWAP1 POP JUMP JUMPDEST PUSH0 PUSH1 0x20 DUP3 ADD SWAP1 POP DUP2 DUP2 SUB PUSH0 DUP4 ADD MSTORE PUSH2 0x26C2 DUP2 PUSH2 0x2689 JUMP JUMPDEST SWAP1 POP SWAP2 SWAP1 POP JUMP JUMPDEST PUSH32 0x496E76616C696420746172676574206164647265737300000000000000000000 PUSH0 DUP3 ADD MSTORE POP JUMP JUMPDEST PUSH0 PUSH2 0x26FD PUSH1 0x16 DUP4 PUSH2 0x1962 JUMP JUMPDEST SWAP2 POP PUSH2 0x2708 DUP3 PUSH2 0x26C9 JUMP JUMPDEST PUSH1 0x20 DUP3 ADD SWAP1 POP SWAP2 SWAP1 POP JUMP JUMPDEST PUSH0 PUSH1 0x20 DUP3 ADD SWAP1 POP DUP2 DUP2 SUB PUSH0 DUP4 ADD MSTORE PUSH2 0x272A DUP2 PUSH2 0x26F1 JUMP JUMPDEST SWAP1 POP SWAP2 SWAP1 POP JUMP JUMPDEST PUSH32 0x43616E6E6F7420656E646F72736520796F757273656C66000000000000000000 PUSH0 DUP3 ADD MSTORE POP JUMP JUMPDEST PUSH0 PUSH2 0x2765 PUSH1 0x17 DUP4 PUSH2 0x1962 JUMP JUMPDEST SWAP2 POP PUSH2 0x2770 DUP3 PUSH2 0x2731 JUMP JUMPDEST PUSH1 0x20 DUP3 ADD SWAP1 POP SWAP2 SWAP1 POP JUMP JUMPDEST PUSH0 PUSH1 0x20 DUP3 ADD SWAP1 POP DUP2 DUP2 SUB PUSH0 DUP4 ADD MSTORE PUSH2 0x2792 DUP2 PUSH2 0x2759 JUMP JUMPDEST SWAP1 POP SWAP2 SWAP1 POP JUMP JUMPDEST PUSH32 0x53636F7265206D757374206265206265747765656E203120616E642035000000 PUSH0 DUP3 ADD MSTORE POP JUMP JUMPDEST PUSH0 PUSH2 0x27CD PUSH1 0x1D DUP4 PUSH2 0x1962 JUMP JUMPDEST SWAP2 POP PUSH2 0x27D8 DUP3 PUSH2 0x2799 JUMP JUMPDEST PUSH1 0x20 DUP3 ADD SWAP1 POP SWAP2 SWAP1 POP JUMP JUMPDEST PUSH0 PUSH1 0x20 DUP3 ADD SWAP1 POP DUP2 DUP2 SUB PUSH0 DUP4 ADD MSTORE PUSH2 0x27FA DUP2 PUSH2 0x27C1 JUMP JUMPDEST SWAP1 POP SWAP2 SWAP1 POP JUMP JUMPDEST PUSH32 0x496E76616C696420656E646F7273656D656E74206F7074696F6E000000000000 PUSH0 DUP3 ADD MSTORE POP JUMP JUMPDEST PUSH0 PUSH2 0x2835 PUSH1 0x1A DUP4 PUSH2 0x1962 JUMP JUMPDEST SWAP2 POP PUSH2 0x2840 DUP3 PUSH2 0x2801 JUMP JUMPDEST PUSH1 0x20 DUP3 ADD SWAP1 POP SWAP2 SWAP1 POP JUMP JUMPDEST PUSH0 PUSH1 0x20 DUP3 ADD SWAP1 POP DUP2 DUP2 SUB PUSH0 DUP4 ADD MSTORE PUSH2 0x2862 DUP2 PUSH2 0x2829 JUMP JUMPDEST SWAP1 POP SWAP2 SWAP1 POP JUMP JUMPDEST PUSH0 DUP2 SWAP1 POP SWAP3 SWAP2 POP POP JUMP JUMPDEST PUSH0 PUSH2 0x287D DUP3 PUSH2 0x1958 JUMP JUMPDEST PUSH2 0x2887 DUP2 DUP6 PUSH2 0x2869 JUMP JUMPDEST SWAP4 POP PUSH2 0x2897 DUP2 DUP6 PUSH1 0x20 DUP7 ADD PUSH2 0x1972 JUMP JUMPDEST DUP1 DUP5 ADD SWAP2 POP POP SWAP3 SWAP2 POP POP JUMP JUMPDEST PUSH0 PUSH2 0x28AE DUP3 DUP5 PUSH2 0x2873 JUMP JUMPDEST SWAP2 POP DUP2 SWAP1 POP SWAP3 SWAP2 POP POP JUMP JUMPDEST PUSH32 0x596F75206861766520616C726561647920656E646F7273656420746869732074 PUSH0 DUP3 ADD MSTORE PUSH32 0x617267657420666F722074686973206F7074696F6E2E00000000000000000000 PUSH1 0x20 DUP3 ADD MSTORE POP JUMP JUMPDEST PUSH0 PUSH2 0x2913 PUSH1 0x36 DUP4 PUSH2 0x1962 JUMP JUMPDEST SWAP2 POP PUSH2 0x291E DUP3 PUSH2 0x28B9 JUMP JUMPDEST PUSH1 0x40 DUP3 ADD SWAP1 POP SWAP2 SWAP1 POP JUMP JUMPDEST PUSH0 PUSH1 0x20 DUP3 ADD SWAP1 POP DUP2 DUP2 SUB PUSH0 DUP4 ADD MSTORE PUSH2 0x2940 DUP2 PUSH2 0x2907 JUMP JUMPDEST SWAP1 POP SWAP2 SWAP1 POP JUMP JUMPDEST PUSH0 DUP2 SLOAD PUSH2 0x2953 DUP2 PUSH2 0x214E JUMP JUMPDEST PUSH2 0x295D DUP2 DUP7 PUSH2 0x1962 JUMP JUMPDEST SWAP5 POP PUSH1 0x1 DUP3 AND PUSH0 DUP2 EQ PUSH2 0x2977 JUMPI PUSH1 0x1 DUP2 EQ PUSH2 0x298D JUMPI PUSH2 0x29BF JUMP JUMPDEST PUSH1 0xFF NOT DUP4 AND DUP7 MSTORE DUP2 ISZERO ISZERO PUSH1 0x20 MUL DUP7 ADD SWAP4 POP PUSH2 0x29BF JUMP JUMPDEST PUSH2 0x2996 DUP6 PUSH2 0x232D JUMP JUMPDEST PUSH0 JUMPDEST DUP4 DUP2 LT ISZERO PUSH2 0x29B7 JUMPI DUP2 SLOAD DUP2 DUP10 ADD MSTORE PUSH1 0x1 DUP3 ADD SWAP2 POP PUSH1 0x20 DUP2 ADD SWAP1 POP PUSH2 0x2998 JUMP JUMPDEST DUP1 DUP9 ADD SWAP6 POP POP POP JUMPDEST POP POP POP SWAP3 SWAP2 POP POP JUMP JUMPDEST PUSH0 PUSH1 0x20 DUP3 ADD SWAP1 POP DUP2 DUP2 SUB PUSH0 DUP4 ADD MSTORE PUSH2 0x29E0 DUP2 DUP5 PUSH2 0x2947 JUMP JUMPDEST SWAP1 POP SWAP3 SWAP2 POP POP JUMP JUMPDEST PUSH0 PUSH1 0x60 DUP3 ADD SWAP1 POP DUP2 DUP2 SUB PUSH0 DUP4 ADD MSTORE PUSH2 0x2A00 DUP2 DUP7 PUSH2 0x1990 JUMP JUMPDEST SWAP1 POP PUSH2 0x2A0F PUSH1 0x20 DUP4 ADD DUP6 PUSH2 0x184E JUMP JUMPDEST PUSH2 0x2A1C PUSH1 0x40 DUP4 ADD DUP5 PUSH2 0x184E JUMP JUMPDEST SWAP5 SWAP4 POP POP POP POP JUMP JUMPDEST PUSH32 0x4F776E61626C653A2063616C6C6572206973206E6F7420746865206F776E6572 PUSH0 DUP3 ADD MSTORE POP JUMP JUMPDEST PUSH0 PUSH2 0x2A58 PUSH1 0x20 DUP4 PUSH2 0x1962 JUMP JUMPDEST SWAP2 POP PUSH2 0x2A63 DUP3 PUSH2 0x2A24 JUMP JUMPDEST PUSH1 0x20 DUP3 ADD SWAP1 POP SWAP2 SWAP1 POP JUMP JUMPDEST PUSH0 PUSH1 0x20 DUP3 ADD SWAP1 POP DUP2 DUP2 SUB PUSH0 DUP4 ADD MSTORE PUSH2 0x2A85 DUP2 PUSH2 0x2A4C JUMP JUMPDEST SWAP1 POP SWAP2 SWAP1 POP JUMP INVALID LOG2 PUSH5 0x6970667358 0x22 SLT KECCAK256 XOR 0xD0 0x4D DATALOADN 0x46D5 0xD5 PUSH1 0xD4 0x1E SWAP9 GASLIMIT 0xA8 0x2A PUSH26 0xE17FEDD3328DE2B135455F4A6F0BA65D7F64736F6C634300081D STOP CALLER "
				},
				"gasEstimates": {
					"creation": {
						"codeDepositCost": "2189200",
						"executionCost": "infinite",
						"totalCost": "infinite"
					},
					"external": {
						"VERSION()": "infinite",
						"addEndorsementOption(string)": "infinite",
						"endorsementOptions(uint256)": "infinite",
						"endorsements(address,uint256)": "infinite",
						"fee()": "2469",
						"getBalance()": "358",
						"getEndorsementOptions()": "infinite",
						"getEndorsements(address)": "infinite",
						"giveEndorsement(address,string,string,uint8)": "infinite",
						"hasEndorsed(address,address,string)": "infinite",
						"owner()": "2581",
						"pause()": "infinite",
						"paused()": "2590",
						"renounceOwnership()": "30410",
						"transferBalance(address,uint256)": "infinite",
						"transferOwnership(address)": "30794",
						"unpause()": "infinite",
						"updateEndorsementOption(uint256,string)": "infinite",
						"updateFee(uint256)": "infinite",
						"withdraw()": "infinite"
					}
				},
				"methodIdentifiers": {
					"VERSION()": "ffa1ad74",
					"addEndorsementOption(string)": "63414343",
					"endorsementOptions(uint256)": "d2f6ab9b",
					"endorsements(address,uint256)": "2cdc9efb",
					"fee()": "ddca3f43",
					"getBalance()": "12065fe0",
					"getEndorsementOptions()": "5675049e",
					"getEndorsements(address)": "b666ca9d",
					"giveEndorsement(address,string,string,uint8)": "f31f2f80",
					"hasEndorsed(address,address,string)": "613a0cc4",
					"owner()": "8da5cb5b",
					"pause()": "8456cb59",
					"paused()": "5c975abb",
					"renounceOwnership()": "715018a6",
					"transferBalance(address,uint256)": "56a6d9ef",
					"transferOwnership(address)": "f2fde38b",
					"unpause()": "3f4ba83a",
					"updateEndorsementOption(uint256,string)": "368df2a3",
					"updateFee(uint256)": "9012c4a8",
					"withdraw()": "3ccfd60b"
				}
			},
			"storageLayout": {
				"storage": [
					{
						"astId": 7,
						"contract": "RateUp.sol:RateUp",
						"label": "_owner",
						"offset": 0,
						"slot": "0",
						"type": "t_address"
					},
					{
						"astId": 151,
						"contract": "RateUp.sol:RateUp",
						"label": "_paused",
						"offset": 20,
						"slot": "0",
						"type": "t_bool"
					},
					{
						"astId": 299,
						"contract": "RateUp.sol:RateUp",
						"label": "failedMessage",
						"offset": 0,
						"slot": "1",
						"type": "t_string_storage"
					},
					{
						"astId": 301,
						"contract": "RateUp.sol:RateUp",
						"label": "fee",
						"offset": 0,
						"slot": "2",
						"type": "t_uint256"
					},
					{
						"astId": 318,
						"contract": "RateUp.sol:RateUp",
						"label": "endorsements",
						"offset": 0,
						"slot": "3",
						"type": "t_mapping(t_address,t_array(t_struct(EndorsementStruct)312_storage)dyn_storage)"
					},
					{
						"astId": 326,
						"contract": "RateUp.sol:RateUp",
						"label": "hasEndorsed",
						"offset": 0,
						"slot": "4",
						"type": "t_mapping(t_address,t_mapping(t_address,t_mapping(t_string_memory_ptr,t_bool)))"
					},
					{
						"astId": 329,
						"contract": "RateUp.sol:RateUp",
						"label": "endorsementOptions",
						"offset": 0,
						"slot": "5",
						"type": "t_array(t_string_storage)dyn_storage"
					}
				],
				"types": {
					"t_address": {
						"encoding": "inplace",
						"label": "address",
						"numberOfBytes": "20"
					},
					"t_array(t_string_storage)dyn_storage": {
						"base": "t_string_storage",
						"encoding": "dynamic_array",
						"label": "string[]",
						"numberOfBytes": "32"
					},
					"t_array(t_struct(EndorsementStruct)312_storage)dyn_storage": {
						"base": "t_struct(EndorsementStruct)312_storage",
						"encoding": "dynamic_array",
						"label": "struct RateUp.EndorsementStruct[]",
						"numberOfBytes": "32"
					},
					"t_bool": {
						"encoding": "inplace",
						"label": "bool",
						"numberOfBytes": "1"
					},
					"t_mapping(t_address,t_array(t_struct(EndorsementStruct)312_storage)dyn_storage)": {
						"encoding": "mapping",
						"key": "t_address",
						"label": "mapping(address => struct RateUp.EndorsementStruct[])",
						"numberOfBytes": "32",
						"value": "t_array(t_struct(EndorsementStruct)312_storage)dyn_storage"
					},
					"t_mapping(t_address,t_mapping(t_address,t_mapping(t_string_memory_ptr,t_bool)))": {
						"encoding": "mapping",
						"key": "t_address",
						"label": "mapping(address => mapping(address => mapping(string => bool)))",
						"numberOfBytes": "32",
						"value": "t_mapping(t_address,t_mapping(t_string_memory_ptr,t_bool))"
					},
					"t_mapping(t_address,t_mapping(t_string_memory_ptr,t_bool))": {
						"encoding": "mapping",
						"key": "t_address",
						"label": "mapping(address => mapping(string => bool))",
						"numberOfBytes": "32",
						"value": "t_mapping(t_string_memory_ptr,t_bool)"
					},
					"t_mapping(t_string_memory_ptr,t_bool)": {
						"encoding": "mapping",
						"key": "t_string_memory_ptr",
						"label": "mapping(string => bool)",
						"numberOfBytes": "32",
						"value": "t_bool"
					},
					"t_string_memory_ptr": {
						"encoding": "bytes",
						"label": "string",
						"numberOfBytes": "32"
					},
					"t_string_storage": {
						"encoding": "bytes",
						"label": "string",
						"numberOfBytes": "32"
					},
					"t_struct(EndorsementStruct)312_storage": {
						"encoding": "inplace",
						"label": "struct RateUp.EndorsementStruct",
						"members": [
							{
								"astId": 303,
								"contract": "RateUp.sol:RateUp",
								"label": "endorser",
								"offset": 0,
								"slot": "0",
								"type": "t_address"
							},
							{
								"astId": 305,
								"contract": "RateUp.sol:RateUp",
								"label": "option",
								"offset": 0,
								"slot": "1",
								"type": "t_string_storage"
							},
							{
								"astId": 307,
								"contract": "RateUp.sol:RateUp",
								"label": "message",
								"offset": 0,
								"slot": "2",
								"type": "t_string_storage"
							},
							{
								"astId": 309,
								"contract": "RateUp.sol:RateUp",
								"label": "score",
								"offset": 0,
								"slot": "3",
								"type": "t_uint8"
							},
							{
								"astId": 311,
								"contract": "RateUp.sol:RateUp",
								"label": "timestamp",
								"offset": 0,
								"slot": "4",
								"type": "t_uint256"
							}
						],
						"numberOfBytes": "160"
					},
					"t_uint256": {
						"encoding": "inplace",
						"label": "uint256",
						"numberOfBytes": "32"
					},
					"t_uint8": {
						"encoding": "inplace",
						"label": "uint8",
						"numberOfBytes": "1"
					}
				}
			},
			"userdoc": {
				"kind": "user",
				"methods": {},
				"notice": "A contract where users can endorse and rate the skills, qualities, and contributions of others, building a transparent and community-driven reputation system.",
				"version": 1
			}
		}
	}
}